{
  "_format": "hh-sol-artifact-1",
  "contractName": "FunctionsManager",
  "sourceName": "contracts/FunctionsManager.sol",
  "abi": [
    {
      "inputs": [
        {
          "internalType": "address",
          "name": "_link",
          "type": "address"
        },
        {
          "internalType": "address",
          "name": "_billingRegistryProxy",
          "type": "address"
        },
        {
          "internalType": "address",
          "name": "_oracleProxy",
          "type": "address"
        },
        {
          "internalType": "uint32",
          "name": "_feeManagerCut",
          "type": "uint32"
        },
        {
          "internalType": "uint96",
          "name": "_minimumSubscriptionBalance",
          "type": "uint96"
        },
        {
          "internalType": "uint32",
          "name": "_maxGasLimit",
          "type": "uint32"
        }
      ],
      "stateMutability": "nonpayable",
      "type": "constructor"
    },
    {
      "inputs": [],
      "name": "EmptyArgs",
      "type": "error"
    },
    {
      "inputs": [],
      "name": "EmptySecrets",
      "type": "error"
    },
    {
      "inputs": [],
      "name": "EmptySource",
      "type": "error"
    },
    {
      "inputs": [],
      "name": "NoInlineSecrets",
      "type": "error"
    },
    {
      "inputs": [],
      "name": "RequestIsAlreadyPending",
      "type": "error"
    },
    {
      "inputs": [],
      "name": "RequestIsNotPending",
      "type": "error"
    },
    {
      "inputs": [],
      "name": "SenderIsNotRegistry",
      "type": "error"
    },
    {
      "anonymous": false,
      "inputs": [
        {
          "indexed": false,
          "internalType": "uint32",
          "name": "newFeeManagerCut",
          "type": "uint32"
        }
      ],
      "name": "FeeManagerCutUpdated",
      "type": "event"
    },
    {
      "anonymous": false,
      "inputs": [
        {
          "indexed": false,
          "internalType": "bytes32",
          "name": "requestId",
          "type": "bytes32"
        },
        {
          "indexed": false,
          "internalType": "bytes",
          "name": "response",
          "type": "bytes"
        },
        {
          "indexed": false,
          "internalType": "bytes",
          "name": "err",
          "type": "bytes"
        }
      ],
      "name": "FulfillRequest",
      "type": "event"
    },
    {
      "anonymous": false,
      "inputs": [
        {
          "indexed": true,
          "internalType": "bytes32",
          "name": "functionId",
          "type": "bytes32"
        },
        {
          "indexed": true,
          "internalType": "bytes32",
          "name": "requestId",
          "type": "bytes32"
        },
        {
          "indexed": true,
          "internalType": "address",
          "name": "caller",
          "type": "address"
        },
        {
          "indexed": false,
          "internalType": "address",
          "name": "owner",
          "type": "address"
        },
        {
          "indexed": false,
          "internalType": "bytes32",
          "name": "callbackFunction",
          "type": "bytes32"
        },
        {
          "indexed": false,
          "internalType": "bytes",
          "name": "response",
          "type": "bytes"
        },
        {
          "indexed": false,
          "internalType": "bytes",
          "name": "err",
          "type": "bytes"
        }
      ],
      "name": "FunctionCallCompleted",
      "type": "event"
    },
    {
      "anonymous": false,
      "inputs": [
        {
          "indexed": true,
          "internalType": "bytes32",
          "name": "functionId",
          "type": "bytes32"
        },
        {
          "indexed": true,
          "internalType": "bytes32",
          "name": "requestId",
          "type": "bytes32"
        },
        {
          "indexed": true,
          "internalType": "address",
          "name": "caller",
          "type": "address"
        },
        {
          "indexed": false,
          "internalType": "address",
          "name": "owner",
          "type": "address"
        },
        {
          "indexed": false,
          "internalType": "bytes32",
          "name": "callbackFunction",
          "type": "bytes32"
        },
        {
          "indexed": false,
          "internalType": "uint96",
          "name": "baseFee",
          "type": "uint96"
        },
        {
          "indexed": false,
          "internalType": "uint96",
          "name": "fee",
          "type": "uint96"
        },
        {
          "indexed": false,
          "internalType": "string[]",
          "name": "args",
          "type": "string[]"
        }
      ],
      "name": "FunctionCalled",
      "type": "event"
    },
    {
      "anonymous": false,
      "inputs": [
        {
          "indexed": true,
          "internalType": "bytes32",
          "name": "functionId",
          "type": "bytes32"
        },
        {
          "indexed": true,
          "internalType": "address",
          "name": "owner",
          "type": "address"
        },
        {
          "indexed": true,
          "internalType": "bytes32",
          "name": "category",
          "type": "bytes32"
        },
        {
          "components": [
            {
              "internalType": "bytes32",
              "name": "functionId",
              "type": "bytes32"
            },
            {
              "internalType": "address",
              "name": "owner",
              "type": "address"
            },
            {
              "internalType": "bytes32",
              "name": "category",
              "type": "bytes32"
            },
            {
              "internalType": "enum FunctionsManager.ReturnTypes",
              "name": "expectedReturnType",
              "type": "uint8"
            },
            {
              "internalType": "enum Functions.Location",
              "name": "codeLocation",
              "type": "uint8"
            },
            {
              "internalType": "enum Functions.Location",
              "name": "secretsLocation",
              "type": "uint8"
            },
            {
              "internalType": "enum Functions.CodeLanguage",
              "name": "language",
              "type": "uint8"
            },
            {
              "internalType": "string",
              "name": "name",
              "type": "string"
            },
            {
              "internalType": "string",
              "name": "desc",
              "type": "string"
            },
            {
              "internalType": "string",
              "name": "imageUrl",
              "type": "string"
            },
            {
              "internalType": "string[]",
              "name": "expectedArgs",
              "type": "string[]"
            }
          ],
          "indexed": false,
          "internalType": "struct FunctionsManager.FunctionMetadata",
          "name": "metadata",
          "type": "tuple"
        },
        {
          "indexed": false,
          "internalType": "uint96",
          "name": "fee",
          "type": "uint96"
        },
        {
          "indexed": false,
          "internalType": "uint64",
          "name": "subId",
          "type": "uint64"
        }
      ],
      "name": "FunctionRegistered",
      "type": "event"
    },
    {
      "anonymous": false,
      "inputs": [
        {
          "indexed": false,
          "internalType": "uint32",
          "name": "newMaxGasLimit",
          "type": "uint32"
        }
      ],
      "name": "MaxGasLimitUpdated",
      "type": "event"
    },
    {
      "anonymous": false,
      "inputs": [
        {
          "indexed": false,
          "internalType": "uint96",
          "name": "newMinimumSubscriptionBalance",
          "type": "uint96"
        }
      ],
      "name": "MinimumSubscriptionBalanceUpdated",
      "type": "event"
    },
    {
      "anonymous": false,
      "inputs": [
        {
          "indexed": true,
          "internalType": "address",
          "name": "from",
          "type": "address"
        },
        {
          "indexed": true,
          "internalType": "address",
          "name": "to",
          "type": "address"
        }
      ],
      "name": "OwnershipTransferRequested",
      "type": "event"
    },
    {
      "anonymous": false,
      "inputs": [
        {
          "indexed": true,
          "internalType": "address",
          "name": "from",
          "type": "address"
        },
        {
          "indexed": true,
          "internalType": "address",
          "name": "to",
          "type": "address"
        }
      ],
      "name": "OwnershipTransferred",
      "type": "event"
    },
    {
      "anonymous": false,
      "inputs": [
        {
          "indexed": true,
          "internalType": "bytes32",
          "name": "id",
          "type": "bytes32"
        }
      ],
      "name": "RequestFulfilled",
      "type": "event"
    },
    {
      "anonymous": false,
      "inputs": [
        {
          "indexed": true,
          "internalType": "bytes32",
          "name": "id",
          "type": "bytes32"
        }
      ],
      "name": "RequestSent",
      "type": "event"
    },
    {
      "inputs": [],
      "name": "acceptOwnership",
      "outputs": [],
      "stateMutability": "nonpayable",
      "type": "function"
    },
    {
      "inputs": [
        {
          "components": [
            {
              "internalType": "enum Functions.Location",
              "name": "codeLocation",
              "type": "uint8"
            },
            {
              "internalType": "enum Functions.Location",
              "name": "secretsLocation",
              "type": "uint8"
            },
            {
              "internalType": "enum Functions.CodeLanguage",
              "name": "language",
              "type": "uint8"
            },
            {
              "internalType": "string",
              "name": "source",
              "type": "string"
            },
            {
              "internalType": "bytes",
              "name": "secrets",
              "type": "bytes"
            },
            {
              "internalType": "string[]",
              "name": "args",
              "type": "string[]"
            }
          ],
          "internalType": "struct Functions.Request",
          "name": "req",
          "type": "tuple"
        },
        {
          "internalType": "uint64",
          "name": "subscriptionId",
          "type": "uint64"
        },
        {
          "internalType": "uint32",
          "name": "gasLimit",
          "type": "uint32"
        },
        {
          "internalType": "uint256",
          "name": "gasPrice",
          "type": "uint256"
        }
      ],
      "name": "estimateCost",
      "outputs": [
        {
          "internalType": "uint96",
          "name": "",
          "type": "uint96"
        }
      ],
      "stateMutability": "view",
      "type": "function"
    },
    {
      "inputs": [
        {
          "internalType": "bytes32",
          "name": "functionId",
          "type": "bytes32"
        },
        {
          "internalType": "string[]",
          "name": "args",
          "type": "string[]"
        }
      ],
      "name": "executeRequest",
      "outputs": [
        {
          "internalType": "bytes32",
          "name": "",
          "type": "bytes32"
        }
      ],
      "stateMutability": "nonpayable",
      "type": "function"
    },
    {
      "inputs": [],
      "name": "feeManagerCut",
      "outputs": [
        {
          "internalType": "uint32",
          "name": "",
          "type": "uint32"
        }
      ],
      "stateMutability": "view",
      "type": "function"
    },
    {
      "inputs": [
        {
          "internalType": "bytes32",
          "name": "functionId",
          "type": "bytes32"
        }
      ],
      "name": "forceUnlockFees",
      "outputs": [],
      "stateMutability": "nonpayable",
      "type": "function"
    },
    {
      "inputs": [
        {
          "internalType": "bytes32",
          "name": "",
          "type": "bytes32"
        }
      ],
      "name": "functionExecuteMetadatas",
      "outputs": [
        {
          "internalType": "address",
          "name": "owner",
          "type": "address"
        },
        {
          "internalType": "uint64",
          "name": "subId",
          "type": "uint64"
        },
        {
          "internalType": "uint96",
          "name": "fee",
          "type": "uint96"
        },
        {
          "internalType": "uint96",
          "name": "unlockedProfitPool",
          "type": "uint96"
        },
        {
          "internalType": "uint64",
          "name": "functionsCalledCount",
          "type": "uint64"
        },
        {
          "internalType": "uint96",
          "name": "lockedProfitPool",
          "type": "uint96"
        },
        {
          "internalType": "uint96",
          "name": "totalFeesCollected",
          "type": "uint96"
        },
        {
          "internalType": "uint64",
          "name": "successfulResponseCount",
          "type": "uint64"
        },
        {
          "internalType": "uint64",
          "name": "failedResponseCount",
          "type": "uint64"
        }
      ],
      "stateMutability": "view",
      "type": "function"
    },
    {
      "inputs": [],
      "name": "functionManagerProfitPool",
      "outputs": [
        {
          "internalType": "uint96",
          "name": "",
          "type": "uint96"
        }
      ],
      "stateMutability": "view",
      "type": "function"
    },
    {
      "inputs": [
        {
          "internalType": "bytes32",
          "name": "",
          "type": "bytes32"
        }
      ],
      "name": "functionMetadatas",
      "outputs": [
        {
          "internalType": "bytes32",
          "name": "functionId",
          "type": "bytes32"
        },
        {
          "internalType": "address",
          "name": "owner",
          "type": "address"
        },
        {
          "internalType": "bytes32",
          "name": "category",
          "type": "bytes32"
        },
        {
          "internalType": "enum FunctionsManager.ReturnTypes",
          "name": "expectedReturnType",
          "type": "uint8"
        },
        {
          "internalType": "enum Functions.Location",
          "name": "codeLocation",
          "type": "uint8"
        },
        {
          "internalType": "enum Functions.Location",
          "name": "secretsLocation",
          "type": "uint8"
        },
        {
          "internalType": "enum Functions.CodeLanguage",
          "name": "language",
          "type": "uint8"
        },
        {
          "internalType": "string",
          "name": "name",
          "type": "string"
        },
        {
          "internalType": "string",
          "name": "desc",
          "type": "string"
        },
        {
          "internalType": "string",
          "name": "imageUrl",
          "type": "string"
        }
      ],
      "stateMutability": "view",
      "type": "function"
    },
    {
      "inputs": [
        {
          "internalType": "bytes32",
          "name": "",
          "type": "bytes32"
        }
      ],
      "name": "functionResponses",
      "outputs": [
        {
          "internalType": "bytes32",
          "name": "functionId",
          "type": "bytes32"
        },
        {
          "internalType": "address",
          "name": "caller",
          "type": "address"
        },
        {
          "internalType": "bytes32",
          "name": "callbackFunction",
          "type": "bytes32"
        },
        {
          "internalType": "bytes",
          "name": "response",
          "type": "bytes"
        },
        {
          "internalType": "bytes",
          "name": "err",
          "type": "bytes"
        }
      ],
      "stateMutability": "view",
      "type": "function"
    },
    {
      "inputs": [],
      "name": "functionsCalledCount",
      "outputs": [
        {
          "internalType": "uint96",
          "name": "",
          "type": "uint96"
        }
      ],
      "stateMutability": "view",
      "type": "function"
    },
    {
      "inputs": [],
      "name": "functionsRegisteredCount",
      "outputs": [
        {
          "internalType": "uint64",
          "name": "",
          "type": "uint64"
        }
      ],
      "stateMutability": "view",
      "type": "function"
    },
    {
      "inputs": [],
      "name": "getDONPublicKey",
      "outputs": [
        {
          "internalType": "bytes",
          "name": "",
          "type": "bytes"
        }
      ],
      "stateMutability": "view",
      "type": "function"
    },
    {
      "inputs": [
        {
          "internalType": "bytes32",
          "name": "_functionId",
          "type": "bytes32"
        }
      ],
      "name": "getFunctionExecuteMetadata",
      "outputs": [
        {
          "components": [
            {
              "internalType": "address",
              "name": "owner",
              "type": "address"
            },
            {
              "internalType": "uint64",
              "name": "subId",
              "type": "uint64"
            },
            {
              "internalType": "uint96",
              "name": "fee",
              "type": "uint96"
            },
            {
              "internalType": "uint96",
              "name": "unlockedProfitPool",
              "type": "uint96"
            },
            {
              "internalType": "uint64",
              "name": "functionsCalledCount",
              "type": "uint64"
            },
            {
              "internalType": "uint96",
              "name": "lockedProfitPool",
              "type": "uint96"
            },
            {
              "internalType": "uint96",
              "name": "totalFeesCollected",
              "type": "uint96"
            },
            {
              "internalType": "uint64",
              "name": "successfulResponseCount",
              "type": "uint64"
            },
            {
              "internalType": "uint64",
              "name": "failedResponseCount",
              "type": "uint64"
            }
          ],
          "internalType": "struct FunctionsManager.FunctionExecuteMetadata",
          "name": "",
          "type": "tuple"
        }
      ],
      "stateMutability": "view",
      "type": "function"
    },
    {
      "inputs": [
        {
          "internalType": "bytes32",
          "name": "_functionId",
          "type": "bytes32"
        }
      ],
      "name": "getFunctionMetadata",
      "outputs": [
        {
          "components": [
            {
              "internalType": "bytes32",
              "name": "functionId",
              "type": "bytes32"
            },
            {
              "internalType": "address",
              "name": "owner",
              "type": "address"
            },
            {
              "internalType": "bytes32",
              "name": "category",
              "type": "bytes32"
            },
            {
              "internalType": "enum FunctionsManager.ReturnTypes",
              "name": "expectedReturnType",
              "type": "uint8"
            },
            {
              "internalType": "enum Functions.Location",
              "name": "codeLocation",
              "type": "uint8"
            },
            {
              "internalType": "enum Functions.Location",
              "name": "secretsLocation",
              "type": "uint8"
            },
            {
              "internalType": "enum Functions.CodeLanguage",
              "name": "language",
              "type": "uint8"
            },
            {
              "internalType": "string",
              "name": "name",
              "type": "string"
            },
            {
              "internalType": "string",
              "name": "desc",
              "type": "string"
            },
            {
              "internalType": "string",
              "name": "imageUrl",
              "type": "string"
            },
            {
              "internalType": "string[]",
              "name": "expectedArgs",
              "type": "string[]"
            }
          ],
          "internalType": "struct FunctionsManager.FunctionMetadata",
          "name": "",
          "type": "tuple"
        }
      ],
      "stateMutability": "view",
      "type": "function"
    },
    {
      "inputs": [
        {
          "internalType": "bytes32",
          "name": "_requestId",
          "type": "bytes32"
        }
      ],
      "name": "getFunctionResponse",
      "outputs": [
        {
          "components": [
            {
              "internalType": "bytes32",
              "name": "functionId",
              "type": "bytes32"
            },
            {
              "internalType": "address",
              "name": "caller",
              "type": "address"
            },
            {
              "internalType": "bytes32",
              "name": "callbackFunction",
              "type": "bytes32"
            },
            {
              "internalType": "string[]",
              "name": "args",
              "type": "string[]"
            },
            {
              "internalType": "bytes",
              "name": "response",
              "type": "bytes"
            },
            {
              "internalType": "bytes",
              "name": "err",
              "type": "bytes"
            }
          ],
          "internalType": "struct FunctionsManager.FunctionResponse",
          "name": "",
          "type": "tuple"
        }
      ],
      "stateMutability": "view",
      "type": "function"
    },
    {
      "inputs": [
        {
          "internalType": "uint64",
          "name": "_subscriptionId",
          "type": "uint64"
        }
      ],
      "name": "getSubscriptionBalance",
      "outputs": [
        {
          "internalType": "uint256",
          "name": "",
          "type": "uint256"
        }
      ],
      "stateMutability": "view",
      "type": "function"
    },
    {
      "inputs": [
        {
          "internalType": "bytes32",
          "name": "requestId",
          "type": "bytes32"
        },
        {
          "internalType": "bytes",
          "name": "response",
          "type": "bytes"
        },
        {
          "internalType": "bytes",
          "name": "err",
          "type": "bytes"
        }
      ],
      "name": "handleOracleFulfillment",
      "outputs": [],
      "stateMutability": "nonpayable",
      "type": "function"
    },
    {
      "inputs": [],
      "name": "maxGasLimit",
      "outputs": [
        {
          "internalType": "uint32",
          "name": "",
          "type": "uint32"
        }
      ],
      "stateMutability": "view",
      "type": "function"
    },
    {
      "inputs": [],
      "name": "minimumSubscriptionBalance",
      "outputs": [
        {
          "internalType": "uint96",
          "name": "",
          "type": "uint96"
        }
      ],
      "stateMutability": "view",
      "type": "function"
    },
    {
      "inputs": [],
      "name": "owner",
      "outputs": [
        {
          "internalType": "address",
          "name": "",
          "type": "address"
        }
      ],
      "stateMutability": "view",
      "type": "function"
    },
    {
      "inputs": [
        {
          "internalType": "uint64",
          "name": "_subscriptionId",
          "type": "uint64"
        }
      ],
      "name": "refillSubscription",
      "outputs": [],
      "stateMutability": "nonpayable",
      "type": "function"
    },
    {
      "inputs": [
        {
          "components": [
            {
              "internalType": "uint96",
              "name": "fees",
              "type": "uint96"
            },
            {
              "internalType": "string",
              "name": "functionName",
              "type": "string"
            },
            {
              "internalType": "string",
              "name": "desc",
              "type": "string"
            },
            {
              "internalType": "string",
              "name": "imageUrl",
              "type": "string"
            },
            {
              "internalType": "string",
              "name": "source",
              "type": "string"
            },
            {
              "internalType": "string[]",
              "name": "expectedArgs",
              "type": "string[]"
            },
            {
              "internalType": "enum Functions.Location",
              "name": "codeLocation",
              "type": "uint8"
            },
            {
              "internalType": "enum Functions.Location",
              "name": "secretsLocation",
              "type": "uint8"
            },
            {
              "internalType": "enum Functions.CodeLanguage",
              "name": "language",
              "type": "uint8"
            },
            {
              "internalType": "bytes32",
              "name": "category",
              "type": "bytes32"
            },
            {
              "internalType": "uint64",
              "name": "subId",
              "type": "uint64"
            },
            {
              "internalType": "enum FunctionsManager.ReturnTypes",
              "name": "expectedReturnType",
              "type": "uint8"
            },
            {
              "internalType": "bytes",
              "name": "secrets",
              "type": "bytes"
            }
          ],
          "internalType": "struct FunctionsManager.FunctionsRegisterRequest",
          "name": "request",
          "type": "tuple"
        }
      ],
      "name": "registerFunction",
      "outputs": [
        {
          "internalType": "bytes32",
          "name": "",
          "type": "bytes32"
        }
      ],
      "stateMutability": "payable",
      "type": "function"
    },
    {
      "inputs": [
        {
          "internalType": "uint32",
          "name": "_feeManagerCut",
          "type": "uint32"
        }
      ],
      "name": "setFeeManagerCut",
      "outputs": [],
      "stateMutability": "nonpayable",
      "type": "function"
    },
    {
      "inputs": [
        {
          "internalType": "uint32",
          "name": "_maxGasLimit",
          "type": "uint32"
        }
      ],
      "name": "setMaxGasLimit",
      "outputs": [],
      "stateMutability": "nonpayable",
      "type": "function"
    },
    {
      "inputs": [
        {
          "internalType": "uint96",
          "name": "_minimumSubBalance",
          "type": "uint96"
        }
      ],
      "name": "setMinimumSubscriptionBalance",
      "outputs": [],
      "stateMutability": "nonpayable",
      "type": "function"
    },
    {
      "inputs": [
        {
          "internalType": "uint64",
          "name": "",
          "type": "uint64"
        }
      ],
      "name": "subscriptionBalances",
      "outputs": [
        {
          "internalType": "uint96",
          "name": "",
          "type": "uint96"
        }
      ],
      "stateMutability": "view",
      "type": "function"
    },
    {
      "inputs": [],
      "name": "totalFeesCollected",
      "outputs": [
        {
          "internalType": "uint96",
          "name": "",
          "type": "uint96"
        }
      ],
      "stateMutability": "view",
      "type": "function"
    },
    {
      "inputs": [
        {
          "internalType": "address",
          "name": "to",
          "type": "address"
        }
      ],
      "name": "transferOwnership",
      "outputs": [],
      "stateMutability": "nonpayable",
      "type": "function"
    },
    {
      "inputs": [
        {
          "internalType": "bytes32",
          "name": "functionId",
          "type": "bytes32"
        }
      ],
      "name": "withdrawFunctionProfitToAuthor",
      "outputs": [],
      "stateMutability": "nonpayable",
      "type": "function"
    },
    {
      "inputs": [],
      "name": "withdrawFunctionsManagerProfitToOwner",
      "outputs": [],
      "stateMutability": "nonpayable",
      "type": "function"
    },
    {
      "inputs": [
        {
          "internalType": "bytes32[]",
          "name": "functionIds",
          "type": "bytes32[]"
        }
      ],
      "name": "withdrawMultipleFunctionProfitToAuthor",
      "outputs": [],
      "stateMutability": "nonpayable",
      "type": "function"
    }
  ],
  "bytecode": "0x608034620001ff57601f62005ceb38819003918201601f19168301916001600160401b03831184841017620002045780849260c094604052833981010312620001ff576200004d816200021a565b6200005b602083016200021a565b906200006a604084016200021a565b9262000079606082016200022f565b6080820151916001600160601b0383168303620001ff5760a06200009e91016200022f565b9460018060a01b038091169460018060a01b031994868660005416176000553315620001ba5733866002541617600255606463ffffffff8516116200015b57821685600a541617600a551683600b541617600b556fffffffff000000000000000000000000600d549160601b16906fffffffff000000000000000000000000191617600d5560a01b1617600c55600e549063ffffffff60c01b9060c01b169063ffffffff60c01b191617600e55604051615aa99081620002428239f35b60405162461bcd60e51b815260206004820152603160248201527f466565206d616e6167657220637574206d757374206265206c6573732074686160448201527006e206f7220657175616c20746f2031303607c1b6064820152608490fd5b60405162461bcd60e51b815260206004820152601860248201527f43616e6e6f7420736574206f776e657220746f207a65726f00000000000000006044820152606490fd5b600080fd5b634e487b7160e01b600052604160045260246000fd5b51906001600160a01b0382168203620001ff57565b519063ffffffff82168203620001ff5756fe6080604052600436101561001257600080fd5b60003560e01c80630ca76175146102025780631ac67b34146101fd5780631f3597fa146101f8578063228764b2146101f3578063257912f3146101ee5780634351077d146101e95780634b5de5c4146101e45780634e011def146101df5780635e45da23146101da57806360c6d8ae146101d55780637587b1b21461018a578063769748c3146101d057806379ba5097146101cb5780637b0caaa2146101c65780638a328420146101c15780638da5cb5b146101bc57806396e10261146101b7578063a1901523146101b2578063a36df5c2146101ad578063ba9c513f146101a8578063bdf47104146101a3578063c7147f811461019e578063d328a91e14610199578063d4b3917514610194578063d5549c8a1461018f578063d7e6a96b1461018a578063de76f05314610185578063f2fde38b14610180578063f3ba47eb1461017b578063f8312841146101765763f8454cd81461017157600080fd5b6122bf565b6121b0565b612186565b6120be565b611fb1565b6111c2565b611f8a565b611e84565b611cfb565b611c09565b611be9565b611b65565b611add565b611ab6565b611a30565b6119f2565b611979565b611941565b611876565b611209565b61117a565b611153565b611093565b610ff4565b610f35565b610e9e565b610d97565b610aeb565b610a5a565b610358565b634e487b7160e01b600052604160045260246000fd5b60c081019081106001600160401b0382111761023857604052565b610207565b604081019081106001600160401b0382111761023857604052565b606081019081106001600160401b0382111761023857604052565b90601f801991011681019081106001600160401b0382111761023857604052565b6040519061016082018281106001600160401b0382111761023857604052565b604051906102c18261021d565b565b6040519061012082018281106001600160401b0382111761023857604052565b6001600160401b03811161023857601f01601f191660200190565b92919261030a826102e3565b916103186040519384610273565b829481845281830111610335578281602093846000960137010152565b600080fd5b9080601f8301121561033557816020610355933591016102fe565b90565b34610335576060366003190112610335576001600160401b036004356024358281116103355761038c90369060040161033a565b91604435908111610335576103a590369060040161033a565b6103b56103b0614ab0565b6158b9565b6103c6336103c1614ae9565b61592a565b6001600160a01b03926103fc33856103f56103e9600b546001600160a01b031690565b6001600160a01b031690565b1614614b48565b61042f846104276001610419876000526006602052604060002090565b01546001600160a01b031690565b161515614bba565b61047461046d6103e961046061044f876000526006602052604060002090565b546000526005602052604060002090565b546001600160a01b031690565b1515614c2c565b610480336103c1614c9e565b61049c610497846000526006602052604060002090565b614468565b938160808601528260a08601526104c6856104c1866000526006602052604060002090565b61375b565b6104e36104de86516000526005602052604060002090565b613175565b6105ce61050061046061044f886000526006602052604060002090565b9460208801958461051b6103e989516001600160a01b031690565b9116036106f0575b80516106cf5761055660e0840161054961054482516001600160401b031690565b612fee565b6001600160401b03169052565b6105748361056f8a516000526005602052604060002090565b612d42565b6105896103e9600b546001600160a01b031690565b94600060208501966105a288516001600160401b031690565b60405163523e3b4b60e11b81526001600160401b03909116600482015294859190829081906024820190565b03915afa9586156106ca577f46179aadb72bd1ccbb0e9ebc270c28ff7763288a733eba4fb65169a441dbf87e96610684946000916106a7575b50610610614d71565b6106256001600160601b0380931680926158e7565b610646610634600c5460a01c90565b9261063d614daa565b931680936158e7565b10610689575b5060406106736106658b5199516001600160a01b031690565b95516001600160a01b031690565b990151604051958695169985614de3565b0390a4005b516106a1906001600160401b031661405e565b61405e565b3861064c565b6106c2913d8091833e6106ba8183610273565b81019061272d565b505038610607565b6127cf565b6106eb610100840161054961054482516001600160401b031690565b610556565b61070a61046061044f896000526006602052604060002090565b8461071f6103e989516001600160a01b031690565b911603610737575b6107326103b0614d12565b610523565b61084461081361079461078461075760408801516001600160601b031690565b61077e610775610770600d5463ffffffff9060601c1690565b614cfd565b63ffffffff1690565b9061347b565b6001600160601b03606491160490565b6107c260a087016107b5836107b083516001600160601b031690565b6136a5565b6001600160601b03169052565b6107e3606087016107b5836107de83516001600160601b031690565b613460565b6107ff60c087016107b5836107de83516001600160601b031690565b600e5460601c6001600160601b0316613460565b6bffffffffffffffffffffffff60601b196bffffffffffffffffffffffff60601b600e549260601b16911617600e55565b610727565b90600182811c92168015610879575b602083101461086357565b634e487b7160e01b600052602260045260246000fd5b91607f1691610858565b906040519182600082549261089784610849565b90818452600194858116908160001461090457506001146108c1575b50506102c192500383610273565b9093915060005260209081600020936000915b8183106108ec5750506102c1935082010138806108b3565b855488840185015294850194879450918301916108d4565b9150506102c194506020925060ff191682840152151560051b82010138806108b3565b634e487b7160e01b600052602160045260246000fd5b6004111561094757565b610927565b9060048210156109475752565b6002111561094757565b9060028210156109475752565b6001111561094757565b9060018210156109475752565b60005b83811061099a5750506000910152565b818101518382015260200161098a565b906020916109c381518092818552858086019101610987565b601f01601f1916010190565b9895610a17610a3c96610a0d6103559d9b9760608e610a2b996001600160a01b03610a4b9f9a610a219a84521660208301526040820152019061094c565b60808c0190610963565b60a08a0190610963565b60c088019061097a565b6101408060e08801528601906109aa565b908482036101008601526109aa565b916101208184039101526109aa565b3461033557602036600319011261033557600435600052600460205260406000208054610ae76001600160a01b03600184015416600284015493600381015494610aa660048301610883565b90610abf6006610ab860058601610883565b9401610883565b9360405197889760ff8260181c169360ff8360101c169360ff808560081c169416928b6109cf565b0390f35b3461033557602036600319011261033557610be460206004353033148015610c44575b8015610c1d575b610b1e90614334565b610b486001610b37836000526005602052604060002090565b015460601c6001600160601b031690565b90610b7b6001610b62836000526005602052604060002090565b016bffffffffffffffffffffffff60601b198154169055565b610ba7610460610b966103e9600a546001600160a01b031690565b926000526005602052604060002090565b600060405180968195829463a9059cbb60e01b8452600484019092916001600160601b036020916001600160a01b03604085019616845216910152565b03925af180156106ca57610bf457005b610c149060203d8111610c16575b610c0c8183610273565b8101906130d0565b005b503d610c02565b50610b1e610c3b6103e9610460846000526005602052604060002090565b33149050610b15565b50610c5a6103e96002546001600160a01b031690565b3314610b0e565b908082519081815260208091019281808460051b8301019501936000915b848310610c8f5750505050505090565b9091929394958480610cad600193601f198682030187528a516109aa565b9801930193019194939290610c7f565b805182526020808201516001600160a01b031690830152610355919060408101516040830152610cf56060820151606084019061094c565b610d0760808201516080840190610963565b610d1960a082015160a0840190610963565b610d2b60c082015160c084019061097a565b610d72610d5e610d4a60e08401516101608060e08801528601906109aa565b6101008085015190868303908701526109aa565b6101208084015190858303908601526109aa565b916101408092015191818403910152610c61565b906020610355928181520190610cbd565b3461033557602036600319011261033557610db0612591565b506004356000526004602052610ae76040600020610e8c6007610dd1610294565b9280548452610dfd610ded60018301546001600160a01b031690565b6001600160a01b03166020860152565b60028101546040850152610e5160ff6003830154610e2082821660608901612636565b610e32828260081c166080890161264c565b610e44828260101c1660a0890161264c565b60181c1660c08601612662565b610e5d60048201610883565b60e0850152610e6e60058201610883565b610100850152610e8060068201610883565b61012085015201613291565b61014082015260405191829182610d86565b34610335576000366003190112610335576020600c5460a01c604051908152f35b906103559160208152815160208201526001600160a01b03602083015116604082015260408201516060820152610f05606083015160c0608084015260e0830190610c61565b9060c060a0610f25608086015194601f19958686830301848701526109aa565b94015192828503019101526109aa565b3461033557602036600319011261033557610f4e612981565b506004356000526006602052610ae76040600020610fbd600560405192610f748461021d565b805484526001600160a01b03600182015416602085015260028101546040850152610fa160038201613291565b6060850152610fb260048201610883565b608085015201610883565b60a082015260405191829182610ebf565b6004359063ffffffff8216820361033557565b6044359063ffffffff8216820361033557565b34610335576020366003190112610335577fea75a541fdea902fd9286e55cc7a68149b042e7a85dcdd3304df35bf9b7d6da96020611030610fce565b6110386123d5565b600e547fffffffff00000000ffffffffffffffffffffffffffffffffffffffffffffffff7bffffffff0000000000000000000000000000000000000000000000008360c01b16911617600e5563ffffffff60405191168152a1005b3461033557602036600319011261033557600435600052600560205260406000208054610ae760018301546110d7600360028601549501546001600160401b031690565b604080516001600160a01b03861681526001600160401b0360a096871c811660208301526001600160601b0385811693830193909352606085811c84168184015260c095861c6080840152888416978301979097529587901c909116838201529490911c60e08501529091166101008301528190610120820190565b3461033557600036600319011261033557602063ffffffff600e5460c01c16604051908152f35b346103355760003660031901126103355760206001600160601b03600e5460601c16604051908152f35b6001600160401b0381160361033557565b602435906102c1826111a4565b34610335576020366003190112610335576001600160401b036004356111e7816111a4565b16600052600960205260206001600160601b0360406000205416604051908152f35b600319602036820112610335576001600160401b03908160043511610335576101a090600435360301126103355761124560043560040161242e565b5060246004350161126761125e82600435600401612438565b9050151561246a565b61129561127982600435600401612438565b9061128f6112856124b6565b91339336916102fe565b906159bf565b6112cd6112bf6112aa83600435600401612438565b9290604051928391602083019533918761251d565b03601f198101835282610273565b519020906112fc6001600160a01b036112f56001610419866000526004602052604060002090565b1615612545565b61131f6113196103e9610460856000526005602052604060002090565b15612545565b61134961134261132d612591565b84815233602082015292600435600401612438565b36916102fe565b60e0820152611365611342604460043501600435600401612438565b610100820152611382611342606460043501600435600401612438565b6101208201526113a661139f60a4600435016004356004016125f4565b3691611dfa565b610140820152610124600435013560408201526113d46113cb61016460043501612629565b60608301612636565b6113ee6113e560c460043501612642565b6080830161264c565b6114086113ff60e460043501612642565b60a0830161264c565b61142361141a61010460043501612658565b60c08301612662565b61142b61266e565b3381529061145061144060043560040161242e565b6001600160601b03166040840152565b83611460610144600435016126c4565b1661150e576114706103b06128c7565b6114856103e9600a546001600160a01b031690565b6040516370a0823160e01b815233600482015290602090829060249082905afa80156106ca576114da916000916114df575b506114d36114c7600c5460a01c90565b6001600160601b031690565b111561290f565b613006565b611501915060203d602011611507575b6114f98183610273565b810190612900565b826114b7565b503d6114ef565b61153561158794611524610144600435016126c4565b9061152d6126ce565b9116906158e7565b600061154c6103e9600b546001600160a01b031690565b61155b610144600435016126c4565b60405163523e3b4b60e11b81526001600160401b03909116600482015295869190829081906024820190565b03915afa9384156106ca576000908195611850575b506001600160a01b03163081149033146000915b865183101561184057306115d76103e96115ca868b612805565b516001600160a01b031690565b0361182057506001915b8280611819575b6115fb576115f5906127f1565b916115b0565b50610ae7955090611613915b81611811575b5061282f565b611635611625610144600435016126c4565b6001600160401b03166020840152565b6116f1611640612981565b61167e61165160c460043501612642565b61166061010460043501612658565b611677611342608460043501600435600401612438565b91846144c7565b600161168e60e460043501612642565b61169781610959565b14806117f2575b6117cc575b6116c0836116bb876000526004602052604060002090565b612c57565b6116d88461056f876000526005602052604060002090565b6116ec856000526007602052604060002090565b612f32565b827f21813596c09ceb4b0982d4768204369a8a4102e8bb57faa68abeb17f905aa6af604083015193611741602061173260408401516001600160601b031690565b9201516001600160401b031690565b90611753604051928392339784612fb9565b0390a46117bc611772610544600d546001600160401b039060801c1690565b7fffffffffffffffff0000000000000000ffffffffffffffffffffffffffffffff77ffffffffffffffff00000000000000000000000000000000600d549260801b16911617600d55565b6040519081529081906020820190565b6117ed6117e761134261018460043501600435600401612438565b826144fe565b6116a3565b5061180861018460043501600435600401612438565b9050151561169e565b90503861160d565b50816115e8565b91336118326103e96115ca848b612805565b036115e157600191506115e1565b90610ae796506116139250611607565b6001600160a01b03955061186d913d8091833e6106ba8183610273565b9591509061159c565b346103355760008060031936011261193e576001600160a01b03806003541633036118f9576002546001600160a01b0316600280546001600160a01b03191633179055906118cf6001600160a01b031960035416600355565b3391167f8be0079c531659141344cd1fd0a4f28419497f9722a3daafe3b4186f6b6457e08380a380f35b60405162461bcd60e51b815260206004820152601660248201527f4d7573742062652070726f706f736564206f776e6572000000000000000000006044820152606490fd5b80fd5b3461033557600036600319011261033557602063ffffffff600d5460601c16604051908152f35b6001600160601b0381160361033557565b34610335576020366003190112610335577ff93ca41ce15e716948ecea40b2fdd7db09875e09fa15a0f7b9d86e030bc138fc60206004356119b981611968565b6119c16123d5565b600c546001600160a01b036001600160a01b03198360a01b16911617600c556001600160601b0360405191168152a1005b346103355760003660031901126103355760206001600160a01b0360025416604051908152f35b6001600160401b0381116102385760051b60200190565b3461033557602080600319360112610335576004356001600160401b038111610335573660238201121561033557806004013590611a6d82611a19565b91611a7b6040519384610273565b80835260248484019160051b8301019136831161033557602401905b828210611aa757610c14846143f2565b81358152908401908401611a97565b346103355760003660031901126103355760206001600160601b03600e5416604051908152f35b3461033557602036600319011261033557600435600052600660205260406000208054610ae76001600160a01b0360018401541692611b57600282015491611b336005611b2c60048401610883565b9201610883565b9260405196879687526020870152604086015260a0606086015260a08501906109aa565b9083820360808501526109aa565b34610335576020366003190112610335577f46c1366d39ebca435b59ead94f7c3af0b9adebd337dd0b02d786ef47abaf68696020611ba1610fce565b611ba96123d5565b600d546fffffffff0000000000000000000000008260601b16906fffffffff000000000000000000000000191617600d5563ffffffff60405191168152a1005b3461033557602036600319011261033557610c1460043561069c816111a4565b346103355760008060031936011261193e57611c236123d5565b611c3a6001600160a01b03600254166103c16142d5565b611cbd6020611c51600d546001600160601b031690565b611c666001600160601b0319600d5416600d55565b611c7b6103e9600a546001600160a01b031690565b60025460405163a9059cbb60e01b81526001600160a01b0390911660048201526001600160601b03909216602483015290928391908290869082906044820190565b03925af180156106ca57611ccf575080f35b611ce69060203d8111610c1657610c0c8183610273565b5080f35b9060206103559281815201906109aa565b346103355760008060031936011261193e576004816001600160a01b0381541660405192838092636994548f60e11b82525afa9081156106ca578291611d4a575b60405180610ae78482611cea565b90503d8083833e611d5b8183610273565b810190602081830312611dc8578051906001600160401b038211611dcc570181601f82011215611dc857805192611d91846102e3565b92611d9f6040519485610273565b8484526020858401011161193e5750610ae792611dc29160208085019101610987565b38611d3c565b8280fd5b8380fd5b6002111561033557565b35906102c182611dd0565b6001111561033557565b35906102c182611de5565b92919092611e0784611a19565b91611e156040519384610273565b829480845260208094019060051b8301928284116103355780915b848310611e3f57505050505050565b82356001600160401b038111610335578691611e5e868493860161033a565b815201920191611e30565b9080601f830112156103355781602061035593359101611dfa565b3461033557600319608036820112610335576004356001600160401b03918282116103355760c090823603011261033557611ebd6102b4565b611ec982600401611dda565b8152611ed760248301611dda565b6020820152611ee860448301611def565b6040820152606482013583811161033557611f09906004369185010161033a565b6060820152608482013583811161033557611f2a906004369185010161033a565b608082015260a482013592831161033557611f51611f70926004610ae79536920101611e69565b60a0820152611f5e6111b5565b611f66610fe1565b9060643592614543565b6040516001600160601b0390911681529081906020820190565b346103355760003660031901126103355760206001600160601b03600d5416604051908152f35b3461033557602036600319011261033557611fca6123d5565b600435600052600560205260406000206001600160a01b038154161561206857806120536002610c14930191612024600161200c85546001600160601b031690565b9201916107de83546001600160601b039060601c1690565b6bffffffffffffffffffffffff60601b196bffffffffffffffffffffffff60601b83549260601b169116179055565b80546bffffffffffffffffffffffff19169055565b60405162461bcd60e51b815260206004820152601760248201527f46756e6374696f6e20646f6573206e6f742065786973740000000000000000006044820152606490fd5b6001600160a01b0381160361033557565b34610335576020366003190112610335576001600160a01b036004356120e3816120ad565b6120eb6123d5565b1633811461214157806001600160a01b0319600354161760035561211a6103e96002546001600160a01b031690565b7fed8889f560326eb138920d842192f0eb3dd22b4f139c87a2c57538e05bae1278600080a3005b60405162461bcd60e51b815260206004820152601760248201527f43616e6e6f74207472616e7366657220746f2073656c660000000000000000006044820152606490fd5b346103355760003660031901126103355760206001600160401b03600d5460801c16604051908152f35b34610335576040366003190112610335576001600160401b036024358181116103355736602382011215610335578060040135918211610335573660248360051b8301011161033557610ae79160246117bc92016004356139ad565b81516001600160a01b031681526020808301516001600160401b0316908201526040808301516001600160601b031690820152610120810192916102c191906060818101516001600160601b0316908301526080818101516001600160401b03169083015260a0818101516001600160601b03169083015260c0818101516001600160601b03169083015260e0818101516001600160401b031690830152610100908101516001600160401b0316910152565b34610335576020366003190112610335576122d861266e565b506004356000526005602052610ae760406000206123c96123b860036122fc6102c3565b9361233c6001600160401b0382546123266001600160a01b03821689906001600160a01b03169052565b60a01c1660208701906001600160401b03169052565b60018101546001600160601b038082166040880152606082811c8216908801526123aa9161236e9060c01c6080890152565b60028301546001600160601b038282161660a0890152906123a0908260601c1660c08901906001600160601b03169052565b60c01c60e0870152565b01546001600160401b031690565b6001600160401b0316610100830152565b6040519182918261220c565b6001600160a01b036002541633036123e957565b60405162461bcd60e51b815260206004820152601660248201527f4f6e6c792063616c6c61626c65206279206f776e6572000000000000000000006044820152606490fd5b3561035581611968565b903590601e198136030182121561033557018035906001600160401b0382116103355760200191813603831361033557565b1561247157565b60405162461bcd60e51b815260206004820152601d60248201527f46756e6374696f6e206e616d652063616e6e6f7420626520656d7074790000006044820152606490fd5b604051906124c382610258565b60248252637220257360e01b6040837f726567697374657246756e6374696f6e2c206e616d653a2025732073656e646560208201520152565b908060209392818452848401376000828201840152601f01601f1916010190565b9161253e6020926001600160a01b03929695966040865260408601916124fc565b9416910152565b1561254c57565b60405162461bcd60e51b815260206004820152601760248201527f46756e6374696f6e20616c7265616479206578697374730000000000000000006044820152606490fd5b6040519061016082018281106001600160401b0382111761023857604052606061014083600080825280602083015280604083015280848301528060808301528060a083015260c08201528260e082015282610100820152826101208201520152565b903590601e198136030182121561033557018035906001600160401b03821161033557602001918160051b3603831361033557565b3560048110156103355790565b60048210156109475752565b3561035581611dd0565b60028210156109475752565b3561035581611de5565b60018210156109475752565b6040519061012082018281106001600160401b0382111761023857604052816101006000918281528260208201528260408201528260608201528260808201528260a08201528260c08201528260e08201520152565b35610355816111a4565b604051906126db82610258565b603682527f636865636b696e6720696620617574686f72697a6564000000000000000000006040837f7573696e67206578697374696e6720737562736372697074696f6e2025642c2060208201520152565b909160608284031261033557815161274481611968565b92602080840151612754816120ad565b936040810151906001600160401b03821161033557019180601f8401121561033557825161278181611a19565b9361278f6040519586610273565b818552838086019260051b820101928311610335578301905b8282106127b6575050505090565b83809183516127c4816120ad565b8152019101906127a8565b6040513d6000823e3d90fd5b634e487b7160e01b600052601160045260246000fd5b60001981146128005760010190565b6127db565b80518210156128195760209160051b010190565b634e487b7160e01b600052603260045260246000fd5b1561283657565b60405162461bcd60e51b815260206004820152604f60248201527f46756e6374696f6e734d616e6167657220616e642f6f722063616c6c6572206160448201527f7265206e6f7420617574686f72697a656420636f6e73756d657273206f66207460648201527f686520737562736372697074696f6e0000000000000000000000000000000000608482015260a490fd5b604051906128d48261023d565b601982527f6372656174696e67206e657720737562736372697074696f6e000000000000006020830152565b90816020910312610335575190565b1561291657565b60405162461bcd60e51b815260206004820152602e60248201527f496e73756666696369656e74204c494e4b2062616c616e636520746f2066756e60448201527f6420737562736372697074696f6e0000000000000000000000000000000000006064820152608490fd5b6040519061298e8261021d565b606060a08360008152600060208201526000604082015282808201528260808201520152565b9060048110156109475760ff80198354169116179055565b9060028110156109475761ff0082549160081b169061ff001916179055565b90600281101561094757815462ff0000191660109190911b62ff000016179055565b9060018110156109475763ff00000082549160181b169063ff0000001916179055565b818110612a3b575050565b60008155600101612a30565b9190601f8111612a5657505050565b6102c1926000526020600020906020601f840160051c83019310612a82575b601f0160051c0190612a30565b9091508190612a75565b91909182516001600160401b03811161023857612ab381612aad8454610849565b84612a47565b602080601f8311600114612aef575081929394600092612ae4575b50508160011b916000199060031b1c1916179055565b015190503880612ace565b90601f19831695612b0585600052602060002090565b926000905b888210612b4257505083600195969710612b29575b505050811b019055565b015160001960f88460031b161c19169055388080612b1f565b80600185968294968601518155019501930190612b0a565b908160011b918083046002149015171561280057565b815191680100000000000000008311610238578154838355808410612bd3575b50612ba5602080920192600052602060002090565b6000925b848410612bb7575050505050565b60018382612bc783945186612a8c565b01920193019290612ba9565b6000838152846020822092830192015b828110612bf1575050612b90565b80612bfe60019254610849565b80612c0b575b5001612be3565b601f908181118414612c235750508281555b38612c04565b83612c4592612c3785600052602060002090565b920160051c82019101612a30565b60008181526020812081835555612c1d565b60076101406102c19380518455612c9a612c7b60208301516001600160a01b031690565b60018601906001600160a01b03166001600160a01b0319825416179055565b60408101516002850155612d0460038501612cc26060840151612cbc8161093d565b826129b4565b612cd96080840151612cd381610959565b826129cc565b612cf060a0840151612cea81610959565b826129eb565b60c083015190612cff82610970565b612a0d565b612d1560e082015160048601612a8c565b612d2761010082015160058601612a8c565b612d3961012082015160068601612a8c565b01519101612b70565b6003612f156101006102c194612d7e612d6282516001600160a01b031690565b86906001600160a01b03166001600160a01b0319825416179055565b612de2612d9560208301516001600160401b031690565b86547fffffffff0000000000000000ffffffffffffffffffffffffffffffffffffffff1660a09190911b7bffffffffffffffff000000000000000000000000000000000000000016178655565b612ebf60018601612e21612e0060408501516001600160601b031690565b82546bffffffffffffffffffffffff19166001600160601b03909116178255565b612e68612e3860608501516001600160601b031690565b82546bffffffffffffffffffffffff60601b191660609190911b6bffffffffffffffffffffffff60601b16178255565b60808301516001600160401b03165b77ffffffffffffffffffffffffffffffffffffffffffffffff7fffffffffffffffff00000000000000000000000000000000000000000000000083549260c01b169116179055565b612f0760028601612edd612e0060a08501516001600160601b031690565b612ef4612e3860c08501516001600160601b031690565b60e08301516001600160401b0316612e77565b01516001600160401b031690565b9101906001600160401b03166001600160401b0319825416179055565b815160028110156109475760ff80198354169116178155612f5a6020830151612cd381610959565b604082015191612f6983610970565b60018310156109475760a0600391612f956102c19585549062ff00009060101b169062ff000019161790565b8455612fa8606082015160018601612a8c565b612d39608082015160028601612a8c565b9193926001600160401b03906001600160601b03612fe1604094606087526060870190610cbd565b9616602085015216910152565b6001600160401b038091169081146128005760010190565b60405162461bcd60e51b815260206004820152605a60248201527f746865206162696c69747920746f20637265617465207375627363726970746960448201527f6f6e73206973206578706c696369746c792064697361626c656420696e20746860648201527f69732076657273696f6e206f662074686520636f6e7472616374000000000000608482015260a490fd5b604051906130a48261023d565b601982527f73656e646572202573204c494e4b2062616c616e6365202564000000000000006020830152565b90816020910312610335575180151581036103355790565b6001600160601b0361035594936001600160a01b0360609416835216602082015281604082015201906109aa565b6040519061312382610258565b602682527f696f6e49643a00000000000000000000000000000000000000000000000000006040837f65786563757465526571756573742063616c6c656420776974682066756e637460208201520152565b906102c161323460036131866102c3565b946131c66001600160401b0382546131b06001600160a01b0382168a906001600160a01b03169052565b60a01c1660208801906001600160401b03169052565b60018101546001600160601b038082166040890152606082811c8216908901526123aa916131f89060c01c60808a0152565b60028301546001600160601b038282161660a08a01529061322a908260601c1660c08a01906001600160601b03169052565b60c01c60e0880152565b6001600160401b0316610100840152565b1561324c57565b60405162461bcd60e51b815260206004820152601a60248201527f66756e6374696f6e206973206e6f7420726567697374657265640000000000006044820152606490fd5b90815461329d81611a19565b926132ab6040519485610273565b818452600090815260208082208186015b8484106132ca575050505050565b60018381926132d885610883565b8152019201930192906132bc565b906040516132f38161021d565b60a06133566003839561332e60ff825461330f8282168961264c565b613321828260081c1660208a0161264c565b60101c1660408701612662565b61333a60018201610883565b606086015261334b60028201610883565b608086015201613291565b910152565b604051906133688261023d565b601b82527f636f6c6c656374696e6720616e64206c6f636b696e67206665657300000000006020830152565b60405190608082018281106001600160401b038211176102385760405260006060838281528260208201528260408201520152565b90816020910312610335575161035581611968565b91909160a081526060518060a083015260005b81811061344c5750606060c08260008260809587010152601f8019910116840101946001600160401b0381511660208501526001600160a01b03602082015116604085015263ffffffff604082015116828501520151910152565b608081015183820160c001526020016133f1565b9190916001600160601b038080941691160191821161280057565b9190916001600160601b038080941691160291821691820361280057565b156134a057565b60405162461bcd60e51b815260206004820152603a60248201527f55736572206973206e6f7420617070726f76656420746f207472616e7366657260448201527f204c494e4b20746f2066756e6374696f6e73206d616e616765720000000000006064820152608490fd5b1561351257565b60405162461bcd60e51b815260206004820152603160248201527f596f7520646f206e6f74206861766520656e6f756768204c494e4b20746f206360448201527f616c6c20746869732066756e6374696f6e0000000000000000000000000000006064820152608490fd5b6040519061358a8261023d565b601482527f5472616e7366657272696e67202564204c494e4b0000000000000000000000006020830152565b156135bd57565b60405162461bcd60e51b815260206004820152602260248201527f4661696c656420746f20636f6c6c65637420666565732066726f6d2063616c6c60448201526132b960f11b6064820152608490fd5b6040519061361a8261023d565b601c82527f726573657276656420737562736372697074696f6e20666565202564000000006020830152565b6040519061365382610258565b602882527f696e6720666565730000000000000000000000000000000000000000000000006040837f63616c6c6572206973206e6f7420746865206f776e65722c20636f6c6c65637460208201520152565b6001600160601b03918216908216039190821161280057565b6001600160601b038091169081146128005760010190565b604051906136e38261023d565b601982527f73656e64696e672066756e6374696f6e732072657175657374000000000000006020830152565b1561371657565b60405162461bcd60e51b815260206004820152601960248201527f5265717565737420494420616c726561647920657869737473000000000000006044820152606490fd5b908051825560206001600160a01b03818301511690613794600192838601906001600160a01b03166001600160a01b0319825416179055565b60408301516002850155600384016060840151918251926801000000000000000084116102385781835485855580861061382a575b506137db910192600052602060002090565b6000925b84841061380f5750505050505090600560a08361380660806102c196015160048601612a8c565b01519101612a8c565b85838261381e83945186612a8c565b019201930192906137df565b6000858152878784832093840193015b838110613849575050506137c9565b90919293506138588154610849565b8061386a575b5001908785939261383a565b601f9083828211600114613885575050508281555b3861385e565b61389892612c3785600052602060002090565b6000818152602081208183555561387f565b604051906138b78261023d565b601d82527f656d697474696e672046756e6374696f6e43616c6c6564206576656e740000006020830152565b9290948092956001600160a01b0360a086019116855260009660209388858801526001600160601b03809216604088015216606086015260a060808601525260c083019260c08360051b820101958581925b85841061394757505050505050505090565b909192939495969760bf198282030188528835601e19843603018112156139a957830186813591016001600160401b0382116139a55781360381136139a557613995600193899384936124fc565b9a01980196959401929190613935565b8580fd5b8480fd5b91613a6a926139bd6103b0613116565b6139c681615877565b6139dd6104de826000526005602052604060002090565b92613a026001600160a01b036139fa86516001600160a01b031690565b161515613245565b613a1e613a19836000526007602052604060002090565b6132e6565b9083613f4e575b613a306103b061335b565b6020613a3a613394565b613a4f6103e9600b546001600160a01b031690565b60405180809a819463f1e14a2160e01b8352600483016133de565b03915afa9586156106ca57600096613f1d575b50613a9b613a9560408701516001600160601b031690565b87613460565b95613ab060208701516001600160401b031690565b613adf610784613aca60408a01516001600160601b031690565b600d5461077e9060601c63ffffffff16610775565b93613af56103e9600a546001600160a01b031690565b604051636eb1769f60e11b815233600482015230602482015290996020826044818e5afa9182156106ca57600092613efc575b50613b3f6001600160601b03821680931015613499565b6040516370a0823160e01b8082523360048301529b90602081602481855afa80156106ca57613b7f91600091613edd575b5033613b7a613097565b615a21565b6040519b8c523360048d015260208c602481845afa9182156106ca57613bcb84613bbe60009f96600096602098613c039891613ec0575b50101561350b565b613bc661357d565b6158e7565b6040516323b872dd60e01b81523360048201523060248201526001600160601b0390911660448201529b8c9283919082906064820190565b03925af19485156106ca57613cd7613ca8613d8a94613c4f7f5cf89c91d79a72ac225587f61c8d2559506bf25ca1f527d112ec8a1781e4fff299613e229e600091613ea1575b506135b6565b613c8f613c7f613c72836001600160401b03166000526009602052604060002090565b546001600160601b031690565b6001600160601b0361152d61360d565b6001600160401b03166000526009602052604060002090565b613cbd866107de83546001600160601b031690565b6001600160601b03166001600160601b0319825416179055565b613ceb6103e98a516001600160a01b031690565b3303613e28575b50613d0e6080890161054961054482516001600160401b031690565b613d47613d2b613d26600e546001600160601b031690565b6136be565b6001600160601b03166001600160601b0319600e541617600e55565b613d5f8861056f886000526005602052604060002090565b613d6a6103b06136d6565b60208801516001600160401b0316600e5460c01c63ffffffff1691614962565b968795613dab613da4886000526006602052604060002090565b541561370f565b613de3613db6612981565b878152336020820152613dca368488611dfa565b60608201526104c1896000526006602052604060002090565b613dee6103b06138aa565b613e136040613e048a516001600160a01b031690565b9901516001600160601b031690565b93604051948594339a866138e3565b0390a490565b613e82613e9b91613e3a6103b0613646565b613e6f613e53826107de600d546001600160601b031690565b6001600160601b03166001600160601b0319600d541617600d55565b60408b01516001600160601b03166136a5565b6107b560a08b01916107de83516001600160601b031690565b38613cf2565b613eba915060203d602011610c1657610c0c8183610273565b38613c49565b613ed79150893d8b11611507576114f98183610273565b38613bb6565b613ef6915060203d602011611507576114f98183610273565b38613b70565b613f1691925060203d602011611507576114f98183610273565b9038613b28565b613f4091965060203d602011613f47575b613f388183610273565b8101906133c9565b9438613a7d565b503d613f2e565b613f62613f5c368684611dfa565b83614524565b613a25565b15613f6e57565b60405162461bcd60e51b815260206004820152604a60248201527f4f6e6c7920746865206f776e6572206f7220616e20617574686f72697a65642060448201527f636f6e73756d6572206f662074686520737562736372697074696f6e2063616e60648201527f20726566696c6c20697400000000000000000000000000000000000000000000608482015260a490fd5b6040519061400c82610258565b603782527f6c6c20617661696c61626c652062616c616e63652025640000000000000000006040837f526566696c6c696e6720737562736372697074696f6e2025642077697468206160208201520152565b6140666126ce565b9061407b6001600160401b03821680936158e7565b6140906103e9600b546001600160a01b031690565b60405163523e3b4b60e11b81526001600160401b0383166004820152909290600081602481875afa9081156106ca576000916142b9575b503033149384156142a4575b508315614282575b8315614217575b506020916141326141c1926140f96141ec96613f67565b614119613c72846001600160401b03166000526009602052604060002090565b906001600160601b0361412a613fff565b921691615976565b614152613c72826001600160401b03166000526009602052604060002090565b614172612053836001600160401b03166000526009602052604060002090565b60006141896103e9600a546001600160a01b031690565b926141cf6141a26103e9600b546001600160a01b031690565b916040519687918983019190916001600160401b036020820193169052565b03601f198101875286610273565b604051630200057560e51b815296879586948593600485016130e8565b03925af180156106ca576141fd5750565b6142149060203d8111610c1657610c0c8183610273565b50565b60005b815181101561426a57336142346103e96115ca8486612805565b1461424757614242906127f1565b61421a565b50506141ec92506020916141326141c1926140f960015b965050925050916140e2565b50506020916141326141c1926140f96141ec9661425e565b925061429c6103e96103e9600c546001600160a01b031690565b3314926140db565b6001600160a01b0391945016331492386140d3565b6142cc913d8091833e6106ba8183610273565b915050386140c7565b604051906142e282610258565b603182527f734d616e61676572206f776e65722025730000000000000000000000000000006040837f5769746864726177696e6720616c6c206665657320746f2046756e6374696f6e60208201520152565b1561433b57565b60405162461bcd60e51b815260206004820152606860248201527f4d7573742062652046756e6374696f6e734d616e616765722c2046756e63746960448201527f6f6e734d616e61676572206f776e65722c206f722066756e6374696f6e206f7760648201527f6e657220746f2077697468647261772070726f66697420746f2066756e63746960848201527f6f6e206f776e657200000000000000000000000000000000000000000000000060a482015260c490fd5b60005b8151811015614464576144088183612805565b5190303b1561033557604091825190630f9acbfd60e11b8252600482015260008160248183305af180156106ca5761444b575b5061444691506127f1565b6143f5565b6001600160401b0381116102385761444692523861443b565b5050565b906040516144758161021d565b60a061335660058395805485526001600160a01b036001820154166020860152600281015460408601526144ab60038201613291565b60608601526144bc60048201610883565b608086015201610883565b908351156144ec576060926144df6144e8928461264c565b60408301612662565b0152565b6040516322ce3edd60e01b8152600490fd5b815115614512576001602082015260800152565b60405163e889636f60e01b8152600490fd5b8151156145315760a00152565b60405163fe936cb760e01b8152600490fd5b6001600160401b0361459994926020946145686001600160a01b03600054169461474a565b9463ffffffff6040519889978896879663d227d24560e01b88521660048701526080602487015260848601906109aa565b92166044840152606483015203915afa9081156106ca576000916145bb575090565b610355915060203d8111613f4757613f388183610273565b604051906145e08261023d565b6000602083606081520152565b604051906145fa8261023d565b60006020836146076145d3565b81520152565b6040519061461a8261023d565b600c82527f636f64654c6f636174696f6e00000000000000000000000000000000000000006020830152565b604051906146538261023d565b600882527f6c616e67756167650000000000000000000000000000000000000000000000006020830152565b6040519061468c8261023d565b600682527f736f7572636500000000000000000000000000000000000000000000000000006020830152565b604051906146c58261023d565b60048252636172677360e01b6020830152565b604051906146e58261023d565b600f82527f736563726574734c6f636174696f6e00000000000000000000000000000000006020830152565b6040519061471e8261023d565b600782527f73656372657473000000000000000000000000000000000000000000000000006020830152565b6147526145ed565b9061475d8251614e46565b5061476f61476961460d565b83615538565b61478c815161477d81610959565b61478681610959565b83614ec5565b614797614769614646565b6147b160408201516147a881610970565b61478681610970565b6147bc61476961467f565b6147ca606082015183615538565b60a0810180515161486a575b5060808101908151516147eb575b5050515190565b6020019081516147fa81610959565b61480381610959565b15614858576148396148519261482061481a6146d8565b86615538565b5161482a81610959565b61483381610959565b84614ec5565b61484a614844614711565b84615538565b5182615486565b38806147e4565b60405163a80d31f760e01b8152600490fd5b926148766148446146b8565b61487f836155bc565b60005b845180518210156148af57906148a561489e826148aa94612805565b5186615538565b6127f1565b614882565b505092506148bc82615648565b386147d6565b604051906148cf82610258565b602982527f6c69656e74206c696200000000000000000000000000000000000000000000006040837f53656e64696e6720726571756573742066726f6d2066756e6374696f6e73206360208201520152565b9161253e63ffffffff916001600160401b036040949796971685526060602086015260608501906109aa565b908160209103126103355751610355816120ad565b6149b692916149726103b06148c2565b600093849261499461498e6103e986546001600160a01b031690565b9161474a565b94604051968780948193630a090ac160e21b83526020998a9860048501614921565b03925af19283156106ca578193614a8e575b5080826149e16103e9600494546001600160a01b031690565b604051635ab1bd5360e01b815293849182905afa9283156106ca5784937f1131472297a800fee664d1d89cfa8f7676ff07189ecc53f80bbb5f4969099db893614a5c928492614a61575b5050614a41856000526001602052604060002090565b906001600160a01b03166001600160a01b0319825416179055565b80a290565b614a809250803d10614a87575b614a788183610273565b81019061494d565b3880614a2b565b503d614a6e565b6004919350614aa990833d8511611507576114f98183610273565b92906149c8565b60405190614abd8261023d565b601282527f66756c66696c6c696e67207265717565737400000000000000000000000000006020830152565b60405190614af682610258565b603382527f63616c6c2066756c66696c6c52657175657374000000000000000000000000006040837f436865636b696e6720696620257320697320617574686f72697a656420746f2060208201520152565b15614b4f57565b60405162461bcd60e51b815260206004820152603260248201527f4f6e6c7920746865202042696c6c696e672052656769737472792063616e206360448201527f616c6c2066756c66696c6c5265717565737400000000000000000000000000006064820152608490fd5b15614bc157565b60405162461bcd60e51b815260206004820152602560248201527f52657175657374206e6f7420666f756e6420696e2046756e6374696f6e734d6160448201527f6e616765720000000000000000000000000000000000000000000000000000006064820152608490fd5b15614c3357565b60405162461bcd60e51b815260206004820152602660248201527f46756e6374696f6e206e6f7420666f756e6420696e2046756e6374696f6e734d60448201527f616e6167657200000000000000000000000000000000000000000000000000006064820152608490fd5b60405190614cab82610258565b603582527f63616c6c20746869732066756e6374696f6e2e2e2e00000000000000000000006040837f436865636b696e6720697320257320697320617574686f72697a656420746f2060208201520152565b9063ffffffff80921660640391821161280057565b60405190614d1f82610258565b603b82527f67206966206e6565642066696c6c20737562736372697074696f6e00000000006040837f46696e697368656420756e6c6f636b696e6720666565732c20636865636b696e60208201520152565b60405190614d7e8261023d565b601782527f537562736372697074696f6e2062616c616e63652025640000000000000000006020830152565b60405190614db78261023d565b601f82527f4d696e696d756d20737562736372697074696f6e2062616c616e6365202564006020830152565b9261035594926001600160a01b03614e0e9316855260208501526080604085015260808401906109aa565b9160608184039101526109aa565b601f1981019190821161280057565b906020820180921161280057565b9190820180921161280057565b614e4e6145d3565b5061010060208201526040518082526000815261012081019081106103355760405290565b90614e7c6145d3565b50601f811680614eab575b50806020830152604051908183526000825281016020019081106103355760405290565b602003602081116128005781018091116128005738614e87565b90815191614ed16145d3565b508251516001810190818111612800576020850151811015614f2a575b60c260206102c19651928301015380518211614f22575b505060405191602083015260208252614f1d8261023d565b615486565b523880614f05565b8160011b948286046002148315171561280057602081614f5c6102c198614f5560c295519184614e73565b50826153ce565b5096505050614eee565b614f6e6145d3565b508051516001810190818111612800576020830151811015614fa7575b605b60208451928301015380518211614fa357505090565b5290565b8160011b8281046002148315171561280057614fd090614fc985519186614e73565b50846153ce565b50614f8b565b614fde6145d3565b508051516001810190818111612800576020830151811015615013575b605a60208451928301015380518211614fa357505090565b8160011b828104600214831517156128005761503590614fc985519186614e73565b50614ffb565b6150436145d3565b508051516001810190818111612800576020830151811015615078575b605960208451928301015380518211614fa357505090565b8160011b828104600214831517156128005761509a90614fc985519186614e73565b50615060565b6150a86145d3565b5080515160018101908181116128005760208301518110156150dd575b605860208451928301015380518211614fa357505090565b8160011b82810460021483151715612800576150ff90614fc985519186614e73565b506150c5565b61510d6145d3565b508051516001810190818111612800576020830151811015615142575b607b60208451928301015380518211614fa357505090565b8160011b828104600214831517156128005761516490614fc985519186614e73565b5061512a565b6151726145d3565b5080515160018101908181116128005760208301518110156151a7575b607a60208451928301015380518211614fa357505090565b8160011b82810460021483151715612800576151c990614fc985519186614e73565b5061518f565b6151d76145d3565b50805151600181019081811161280057602083015181101561520c575b607960208451928301015380518211614fa357505090565b8160011b828104600214831517156128005761522e90614fc985519186614e73565b506151f4565b61523c6145d3565b508051516001810190818111612800576020830151811015615271575b607860208451928301015380518211614fa357505090565b8160011b828104600214831517156128005761529390614fc985519186614e73565b50615259565b906152a26145d3565b5081515160018101918282116128005760208401518210156152d5575b60208451928301015380518211614fa357505090565b8260011b83810460021484151715612800576152fe906152f786519187614e73565b50856153ce565b506152bf565b9061531182519183614e73565b5061531a6145d3565b508051906153266145d3565b50615334815183111561547f565b825151926153428385614e39565b9160209282848094015182116153b7575b51838151978201019682116153af575b505001915b818110156153895760001991036101000a0190811990511690825116179052565b91926153a461539e6153aa9286518152614e2b565b94614e2b565b92614e1c565b615368565b523880615363565b6153c96153c383612b5a565b82615304565b615353565b906153d76145d3565b5080516153e26145d3565b506153f0825182111561547f565b825151916153fe8284614e39565b6020918291828701518111615468575b865183815197820101968211615460575b505001915b818110156154465760001991036101000a019081199051169082511617905290565b91926153a461539e61545b9286518152614e2b565b615424565b52388061541f565b61547a61547482612b5a565b88615304565b61540e565b1561033557565b81516142149291906001600160401b03811690601782116154bd576154b59150604060ff845192161790615299565b505b516153ce565b5060ff81116154e2576154dc906154d483516150a0565b508251615811565b506154b7565b61ffff8111615501576154dc906154f9835161503b565b5082516157aa565b63ffffffff8111615522576154dc9061551a8351614fd6565b508251615741565b6154dc906155308351614f66565b5082516156d5565b81516142149291906001600160401b0381169060178211615567576154b59150606060ff845192161790615299565b5060ff811161557e576154dc906154d48351615234565b61ffff8111615595576154dc906154f983516151cf565b63ffffffff81116155ae576154dc9061551a835161516a565b6154dc906155308351615105565b8051906155c76145d3565b508151516001810190818111612800576020840151811015615615575b609f602080955192830101538051821161560d575b505001805190600182018092116128005752565b5238806155f9565b8160011b93828504600214831517156128005760208161563e8297614f55609f95519184614e73565b50955050506155e4565b8051906156536145d3565b5081515160018101908181116128005760208401518110156156a2575b60ff602080955192830101538051821161569a575b50500180516000198101919082116128005752565b523880615685565b8160011b9382850460021483151715612800576020816156cb8297614f5560ff95519184614e73565b5095505050615670565b906156de6145d3565b508151518060080191826008116128005760208401518311615720575b6008845192830101906001600160401b031982511617905280518211614fa357505090565b8260011b838104600214841517156128005761573c9085615304565b6156fb565b9061574a6145d3565b508151518060040191826004116128005760208401518311615789575b60048451928301019063ffffffff1982511617905280518211614fa357505090565b8260011b83810460021484151715612800576157a59085615304565b615767565b906157b36145d3565b5081515180600201918260021161280057602084015183116157f0575b60028451928301019061ffff1982511617905280518211614fa357505090565b8260011b838104600214841517156128005761580c9085615304565b6157d0565b9061581a6145d3565b508151518060010191826001116128005760208401518311615856575b60018451928301019060ff1982511617905280518211614fa357505090565b8260011b83810460021484151715612800576158729085615304565b615837565b6102c190604051906327b7cf8560e01b602083015260248201526024815261589e81610258565b600080916020815191016a636f6e736f6c652e6c6f675afa50565b6112bf61589e6102c19260405192839163104c13eb60e21b60208401526020602484015260448301906109aa565b61589e615916916102c193604051938492632d839cb360e21b60208501526040602485015260648401906109aa565b90604483015203601f198101835282610273565b61589e615961916102c1936001600160a01b0360405194859363319af33360e01b60208601526040602486015260648501906109aa565b9116604483015203601f198101835282610273565b61589e906159a6926102c19460405194859363ca47c4eb60e01b60208601526060602486015260848501906109aa565b916044840152606483015203601f198101835282610273565b61589e906102c1936001600160a01b03615a0c6159fa956040519687956395ed019560e01b60208801526060602488015260848701906109aa565b858103602319016044870152906109aa565b9116606483015203601f198101835282610273565b61589e90615a59926102c1946001600160a01b03604051958694630d26b92560e01b60208701526060602487015260848601906109aa565b92166044840152606483015203601f19810183528261027356fea2646970667358221220a1c33d42ab3f8668c3c3ff26c5ebe08a297364d6d6dcd5f8b83942063a9a976e64736f6c63430008120033",
  "linkReferences": {},
  "deployedLinkReferences": {}
}