{
  "_format": "hh-sol-artifact-1",
  "contractName": "FunctionsManager",
  "sourceName": "contracts/FunctionsManager.sol",
  "abi": [
    {
      "inputs": [
        {
          "internalType": "address",
          "name": "link",
          "type": "address"
        },
        {
          "internalType": "address",
          "name": "billingRegistryProxy",
          "type": "address"
        },
        {
          "internalType": "address",
          "name": "oracleProxy",
          "type": "address"
        },
        {
          "internalType": "uint96",
          "name": "_baseFee",
          "type": "uint96"
        },
        {
          "internalType": "uint32",
          "name": "_feeManagerCut",
          "type": "uint32"
        },
        {
          "internalType": "uint96",
          "name": "_minimumSubscriptionDeposit",
          "type": "uint96"
        }
      ],
      "stateMutability": "nonpayable",
      "type": "constructor"
    },
    {
      "inputs": [],
      "name": "EmptyArgs",
      "type": "error"
    },
    {
      "inputs": [],
      "name": "EmptySecrets",
      "type": "error"
    },
    {
      "inputs": [],
      "name": "EmptySource",
      "type": "error"
    },
    {
      "inputs": [],
      "name": "NoInlineSecrets",
      "type": "error"
    },
    {
      "inputs": [],
      "name": "RequestIsAlreadyPending",
      "type": "error"
    },
    {
      "inputs": [],
      "name": "RequestIsNotPending",
      "type": "error"
    },
    {
      "inputs": [],
      "name": "SenderIsNotRegistry",
      "type": "error"
    },
    {
      "anonymous": false,
      "inputs": [
        {
          "indexed": false,
          "internalType": "uint256",
          "name": "newBaseFee",
          "type": "uint256"
        }
      ],
      "name": "BaseFeeUpdated",
      "type": "event"
    },
    {
      "anonymous": false,
      "inputs": [
        {
          "indexed": false,
          "internalType": "bytes32",
          "name": "functionId",
          "type": "bytes32"
        }
      ],
      "name": "Debug1",
      "type": "event"
    },
    {
      "anonymous": false,
      "inputs": [
        {
          "indexed": false,
          "internalType": "bytes32",
          "name": "requestId",
          "type": "bytes32"
        }
      ],
      "name": "Debug2",
      "type": "event"
    },
    {
      "anonymous": false,
      "inputs": [
        {
          "indexed": false,
          "internalType": "uint256",
          "name": "newFeeManagerCut",
          "type": "uint256"
        }
      ],
      "name": "FeeManagerCutUpdated",
      "type": "event"
    },
    {
      "anonymous": false,
      "inputs": [
        {
          "indexed": false,
          "internalType": "bytes32",
          "name": "requestId",
          "type": "bytes32"
        },
        {
          "indexed": false,
          "internalType": "bytes",
          "name": "response",
          "type": "bytes"
        },
        {
          "indexed": false,
          "internalType": "bytes",
          "name": "err",
          "type": "bytes"
        }
      ],
      "name": "FulfillRequest",
      "type": "event"
    },
    {
      "anonymous": false,
      "inputs": [
        {
          "indexed": true,
          "internalType": "bytes32",
          "name": "functionId",
          "type": "bytes32"
        },
        {
          "indexed": true,
          "internalType": "bytes32",
          "name": "requestId",
          "type": "bytes32"
        },
        {
          "indexed": true,
          "internalType": "address",
          "name": "caller",
          "type": "address"
        },
        {
          "indexed": false,
          "internalType": "address",
          "name": "owner",
          "type": "address"
        },
        {
          "indexed": false,
          "internalType": "bytes32",
          "name": "callbackFunction",
          "type": "bytes32"
        },
        {
          "indexed": false,
          "internalType": "uint256",
          "name": "usedGas",
          "type": "uint256"
        },
        {
          "indexed": false,
          "internalType": "bytes",
          "name": "response",
          "type": "bytes"
        },
        {
          "indexed": false,
          "internalType": "bytes",
          "name": "err",
          "type": "bytes"
        }
      ],
      "name": "FunctionCallCompleted",
      "type": "event"
    },
    {
      "anonymous": false,
      "inputs": [
        {
          "indexed": true,
          "internalType": "bytes32",
          "name": "functionId",
          "type": "bytes32"
        },
        {
          "indexed": true,
          "internalType": "bytes32",
          "name": "requestId",
          "type": "bytes32"
        },
        {
          "indexed": true,
          "internalType": "address",
          "name": "caller",
          "type": "address"
        },
        {
          "indexed": false,
          "internalType": "address",
          "name": "owner",
          "type": "address"
        },
        {
          "indexed": false,
          "internalType": "bytes32",
          "name": "callbackFunction",
          "type": "bytes32"
        },
        {
          "indexed": false,
          "internalType": "uint256",
          "name": "gasDeposit",
          "type": "uint256"
        },
        {
          "indexed": false,
          "internalType": "uint96",
          "name": "baseFee",
          "type": "uint96"
        },
        {
          "indexed": false,
          "internalType": "uint96",
          "name": "fee",
          "type": "uint96"
        }
      ],
      "name": "FunctionCalled",
      "type": "event"
    },
    {
      "anonymous": false,
      "inputs": [
        {
          "indexed": true,
          "internalType": "bytes32",
          "name": "functionId",
          "type": "bytes32"
        },
        {
          "indexed": true,
          "internalType": "address",
          "name": "owner",
          "type": "address"
        },
        {
          "indexed": true,
          "internalType": "bytes32",
          "name": "category",
          "type": "bytes32"
        },
        {
          "components": [
            {
              "internalType": "address",
              "name": "owner",
              "type": "address"
            },
            {
              "internalType": "uint64",
              "name": "subId",
              "type": "uint64"
            },
            {
              "internalType": "string",
              "name": "name",
              "type": "string"
            },
            {
              "internalType": "string",
              "name": "desc",
              "type": "string"
            },
            {
              "internalType": "string",
              "name": "imageUrl",
              "type": "string"
            },
            {
              "internalType": "string[]",
              "name": "expectedArgs",
              "type": "string[]"
            },
            {
              "components": [
                {
                  "internalType": "enum Functions.Location",
                  "name": "codeLocation",
                  "type": "uint8"
                },
                {
                  "internalType": "enum Functions.Location",
                  "name": "secretsLocation",
                  "type": "uint8"
                },
                {
                  "internalType": "enum Functions.CodeLanguage",
                  "name": "language",
                  "type": "uint8"
                },
                {
                  "internalType": "string",
                  "name": "source",
                  "type": "string"
                },
                {
                  "internalType": "bytes",
                  "name": "secrets",
                  "type": "bytes"
                },
                {
                  "internalType": "string[]",
                  "name": "args",
                  "type": "string[]"
                }
              ],
              "internalType": "struct Functions.Request",
              "name": "request",
              "type": "tuple"
            },
            {
              "internalType": "bytes32",
              "name": "category",
              "type": "bytes32"
            },
            {
              "internalType": "uint96",
              "name": "fee",
              "type": "uint96"
            },
            {
              "internalType": "uint96",
              "name": "unlockedProfitPool",
              "type": "uint96"
            },
            {
              "internalType": "uint96",
              "name": "lockedProfitPool",
              "type": "uint96"
            }
          ],
          "indexed": false,
          "internalType": "struct FunctionsManager.FunctionMetadata",
          "name": "metadata",
          "type": "tuple"
        }
      ],
      "name": "FunctionRegistered",
      "type": "event"
    },
    {
      "anonymous": false,
      "inputs": [
        {
          "indexed": false,
          "internalType": "uint256",
          "name": "newMinimumDeposit",
          "type": "uint256"
        }
      ],
      "name": "MinimumSubscriptionDepositUpdated",
      "type": "event"
    },
    {
      "anonymous": false,
      "inputs": [
        {
          "indexed": true,
          "internalType": "bytes32",
          "name": "requestId",
          "type": "bytes32"
        },
        {
          "indexed": false,
          "internalType": "bytes",
          "name": "result",
          "type": "bytes"
        },
        {
          "indexed": false,
          "internalType": "bytes",
          "name": "err",
          "type": "bytes"
        }
      ],
      "name": "OCRResponse",
      "type": "event"
    },
    {
      "anonymous": false,
      "inputs": [
        {
          "indexed": true,
          "internalType": "address",
          "name": "from",
          "type": "address"
        },
        {
          "indexed": true,
          "internalType": "address",
          "name": "to",
          "type": "address"
        }
      ],
      "name": "OwnershipTransferRequested",
      "type": "event"
    },
    {
      "anonymous": false,
      "inputs": [
        {
          "indexed": true,
          "internalType": "address",
          "name": "from",
          "type": "address"
        },
        {
          "indexed": true,
          "internalType": "address",
          "name": "to",
          "type": "address"
        }
      ],
      "name": "OwnershipTransferred",
      "type": "event"
    },
    {
      "anonymous": false,
      "inputs": [
        {
          "indexed": true,
          "internalType": "bytes32",
          "name": "id",
          "type": "bytes32"
        }
      ],
      "name": "RequestFulfilled",
      "type": "event"
    },
    {
      "anonymous": false,
      "inputs": [
        {
          "indexed": true,
          "internalType": "bytes32",
          "name": "id",
          "type": "bytes32"
        }
      ],
      "name": "RequestSent",
      "type": "event"
    },
    {
      "inputs": [],
      "name": "acceptOwnership",
      "outputs": [],
      "stateMutability": "nonpayable",
      "type": "function"
    },
    {
      "inputs": [
        {
          "internalType": "address",
          "name": "_spender",
          "type": "address"
        },
        {
          "internalType": "uint256",
          "name": "_value",
          "type": "uint256"
        }
      ],
      "name": "approveTokenSpender",
      "outputs": [],
      "stateMutability": "nonpayable",
      "type": "function"
    },
    {
      "inputs": [
        {
          "internalType": "address",
          "name": "",
          "type": "address"
        }
      ],
      "name": "authorMetadata",
      "outputs": [
        {
          "internalType": "string",
          "name": "name",
          "type": "string"
        },
        {
          "internalType": "string",
          "name": "imageUrl",
          "type": "string"
        },
        {
          "internalType": "string",
          "name": "websiteUrl",
          "type": "string"
        }
      ],
      "stateMutability": "view",
      "type": "function"
    },
    {
      "inputs": [],
      "name": "baseFee",
      "outputs": [
        {
          "internalType": "uint96",
          "name": "",
          "type": "uint96"
        }
      ],
      "stateMutability": "view",
      "type": "function"
    },
    {
      "inputs": [
        {
          "internalType": "string",
          "name": "functionName",
          "type": "string"
        },
        {
          "internalType": "address",
          "name": "owner",
          "type": "address"
        }
      ],
      "name": "calculateFunctionId",
      "outputs": [
        {
          "internalType": "bytes32",
          "name": "",
          "type": "bytes32"
        }
      ],
      "stateMutability": "pure",
      "type": "function"
    },
    {
      "inputs": [
        {
          "internalType": "uint64",
          "name": "",
          "type": "uint64"
        }
      ],
      "name": "categoryNames",
      "outputs": [
        {
          "internalType": "string",
          "name": "",
          "type": "string"
        }
      ],
      "stateMutability": "view",
      "type": "function"
    },
    {
      "inputs": [
        {
          "components": [
            {
              "internalType": "enum Functions.Location",
              "name": "codeLocation",
              "type": "uint8"
            },
            {
              "internalType": "enum Functions.Location",
              "name": "secretsLocation",
              "type": "uint8"
            },
            {
              "internalType": "enum Functions.CodeLanguage",
              "name": "language",
              "type": "uint8"
            },
            {
              "internalType": "string",
              "name": "source",
              "type": "string"
            },
            {
              "internalType": "bytes",
              "name": "secrets",
              "type": "bytes"
            },
            {
              "internalType": "string[]",
              "name": "args",
              "type": "string[]"
            }
          ],
          "internalType": "struct Functions.Request",
          "name": "req",
          "type": "tuple"
        },
        {
          "internalType": "uint64",
          "name": "subscriptionId",
          "type": "uint64"
        },
        {
          "internalType": "uint32",
          "name": "gasLimit",
          "type": "uint32"
        },
        {
          "internalType": "uint256",
          "name": "gasPrice",
          "type": "uint256"
        }
      ],
      "name": "estimateCost",
      "outputs": [
        {
          "internalType": "uint96",
          "name": "",
          "type": "uint96"
        }
      ],
      "stateMutability": "view",
      "type": "function"
    },
    {
      "inputs": [
        {
          "internalType": "bytes32",
          "name": "functionId",
          "type": "bytes32"
        },
        {
          "internalType": "string[]",
          "name": "args",
          "type": "string[]"
        },
        {
          "internalType": "uint32",
          "name": "gasLimit",
          "type": "uint32"
        }
      ],
      "name": "executeRequest",
      "outputs": [
        {
          "internalType": "bytes32",
          "name": "",
          "type": "bytes32"
        }
      ],
      "stateMutability": "nonpayable",
      "type": "function"
    },
    {
      "inputs": [],
      "name": "feeManagerCut",
      "outputs": [
        {
          "internalType": "uint32",
          "name": "",
          "type": "uint32"
        }
      ],
      "stateMutability": "view",
      "type": "function"
    },
    {
      "inputs": [
        {
          "internalType": "bytes32",
          "name": "functionId",
          "type": "bytes32"
        }
      ],
      "name": "forceUnlockFees",
      "outputs": [],
      "stateMutability": "nonpayable",
      "type": "function"
    },
    {
      "inputs": [],
      "name": "functionManagerProfitPool",
      "outputs": [
        {
          "internalType": "uint96",
          "name": "",
          "type": "uint96"
        }
      ],
      "stateMutability": "view",
      "type": "function"
    },
    {
      "inputs": [
        {
          "internalType": "bytes32",
          "name": "",
          "type": "bytes32"
        }
      ],
      "name": "functionMetadatas",
      "outputs": [
        {
          "internalType": "address",
          "name": "owner",
          "type": "address"
        },
        {
          "internalType": "uint64",
          "name": "subId",
          "type": "uint64"
        },
        {
          "internalType": "string",
          "name": "name",
          "type": "string"
        },
        {
          "internalType": "string",
          "name": "desc",
          "type": "string"
        },
        {
          "internalType": "string",
          "name": "imageUrl",
          "type": "string"
        },
        {
          "components": [
            {
              "internalType": "enum Functions.Location",
              "name": "codeLocation",
              "type": "uint8"
            },
            {
              "internalType": "enum Functions.Location",
              "name": "secretsLocation",
              "type": "uint8"
            },
            {
              "internalType": "enum Functions.CodeLanguage",
              "name": "language",
              "type": "uint8"
            },
            {
              "internalType": "string",
              "name": "source",
              "type": "string"
            },
            {
              "internalType": "bytes",
              "name": "secrets",
              "type": "bytes"
            },
            {
              "internalType": "string[]",
              "name": "args",
              "type": "string[]"
            }
          ],
          "internalType": "struct Functions.Request",
          "name": "request",
          "type": "tuple"
        },
        {
          "internalType": "bytes32",
          "name": "category",
          "type": "bytes32"
        },
        {
          "internalType": "uint96",
          "name": "fee",
          "type": "uint96"
        },
        {
          "internalType": "uint96",
          "name": "unlockedProfitPool",
          "type": "uint96"
        },
        {
          "internalType": "uint96",
          "name": "lockedProfitPool",
          "type": "uint96"
        }
      ],
      "stateMutability": "view",
      "type": "function"
    },
    {
      "inputs": [
        {
          "internalType": "bytes32",
          "name": "",
          "type": "bytes32"
        }
      ],
      "name": "functionResponses",
      "outputs": [
        {
          "internalType": "bytes32",
          "name": "functionId",
          "type": "bytes32"
        },
        {
          "internalType": "address",
          "name": "caller",
          "type": "address"
        },
        {
          "internalType": "bytes32",
          "name": "callbackFunction",
          "type": "bytes32"
        },
        {
          "internalType": "uint256",
          "name": "gasDeposit",
          "type": "uint256"
        },
        {
          "internalType": "bytes",
          "name": "response",
          "type": "bytes"
        },
        {
          "internalType": "bytes",
          "name": "err",
          "type": "bytes"
        }
      ],
      "stateMutability": "view",
      "type": "function"
    },
    {
      "inputs": [],
      "name": "getDONPublicKey",
      "outputs": [
        {
          "internalType": "bytes",
          "name": "",
          "type": "bytes"
        }
      ],
      "stateMutability": "view",
      "type": "function"
    },
    {
      "inputs": [
        {
          "internalType": "bytes32",
          "name": "_functionId",
          "type": "bytes32"
        }
      ],
      "name": "getFunction",
      "outputs": [
        {
          "components": [
            {
              "internalType": "address",
              "name": "owner",
              "type": "address"
            },
            {
              "internalType": "uint64",
              "name": "subId",
              "type": "uint64"
            },
            {
              "internalType": "string",
              "name": "name",
              "type": "string"
            },
            {
              "internalType": "string",
              "name": "desc",
              "type": "string"
            },
            {
              "internalType": "string",
              "name": "imageUrl",
              "type": "string"
            },
            {
              "internalType": "string[]",
              "name": "expectedArgs",
              "type": "string[]"
            },
            {
              "components": [
                {
                  "internalType": "enum Functions.Location",
                  "name": "codeLocation",
                  "type": "uint8"
                },
                {
                  "internalType": "enum Functions.Location",
                  "name": "secretsLocation",
                  "type": "uint8"
                },
                {
                  "internalType": "enum Functions.CodeLanguage",
                  "name": "language",
                  "type": "uint8"
                },
                {
                  "internalType": "string",
                  "name": "source",
                  "type": "string"
                },
                {
                  "internalType": "bytes",
                  "name": "secrets",
                  "type": "bytes"
                },
                {
                  "internalType": "string[]",
                  "name": "args",
                  "type": "string[]"
                }
              ],
              "internalType": "struct Functions.Request",
              "name": "request",
              "type": "tuple"
            },
            {
              "internalType": "bytes32",
              "name": "category",
              "type": "bytes32"
            },
            {
              "internalType": "uint96",
              "name": "fee",
              "type": "uint96"
            },
            {
              "internalType": "uint96",
              "name": "unlockedProfitPool",
              "type": "uint96"
            },
            {
              "internalType": "uint96",
              "name": "lockedProfitPool",
              "type": "uint96"
            }
          ],
          "internalType": "struct FunctionsManager.FunctionMetadata",
          "name": "",
          "type": "tuple"
        }
      ],
      "stateMutability": "view",
      "type": "function"
    },
    {
      "inputs": [
        {
          "internalType": "bytes32",
          "name": "_requestId",
          "type": "bytes32"
        }
      ],
      "name": "getFunctionResponse",
      "outputs": [
        {
          "components": [
            {
              "internalType": "bytes32",
              "name": "functionId",
              "type": "bytes32"
            },
            {
              "internalType": "address",
              "name": "caller",
              "type": "address"
            },
            {
              "internalType": "bytes32",
              "name": "callbackFunction",
              "type": "bytes32"
            },
            {
              "internalType": "uint256",
              "name": "gasDeposit",
              "type": "uint256"
            },
            {
              "internalType": "bytes",
              "name": "response",
              "type": "bytes"
            },
            {
              "internalType": "bytes",
              "name": "err",
              "type": "bytes"
            }
          ],
          "internalType": "struct FunctionsManager.FunctionResponse",
          "name": "",
          "type": "tuple"
        }
      ],
      "stateMutability": "view",
      "type": "function"
    },
    {
      "inputs": [
        {
          "internalType": "uint64",
          "name": "_subscriptionId",
          "type": "uint64"
        }
      ],
      "name": "getSubscriptionBalance",
      "outputs": [
        {
          "internalType": "uint256",
          "name": "",
          "type": "uint256"
        }
      ],
      "stateMutability": "view",
      "type": "function"
    },
    {
      "inputs": [
        {
          "internalType": "bytes32",
          "name": "requestId",
          "type": "bytes32"
        },
        {
          "internalType": "bytes",
          "name": "response",
          "type": "bytes"
        },
        {
          "internalType": "bytes",
          "name": "err",
          "type": "bytes"
        }
      ],
      "name": "handleOracleFulfillment",
      "outputs": [],
      "stateMutability": "nonpayable",
      "type": "function"
    },
    {
      "inputs": [],
      "name": "minimumSubscriptionBalance",
      "outputs": [
        {
          "internalType": "uint96",
          "name": "",
          "type": "uint96"
        }
      ],
      "stateMutability": "view",
      "type": "function"
    },
    {
      "inputs": [],
      "name": "minimumSubscriptionDeposit",
      "outputs": [
        {
          "internalType": "uint96",
          "name": "",
          "type": "uint96"
        }
      ],
      "stateMutability": "view",
      "type": "function"
    },
    {
      "inputs": [],
      "name": "owner",
      "outputs": [
        {
          "internalType": "address",
          "name": "",
          "type": "address"
        }
      ],
      "stateMutability": "view",
      "type": "function"
    },
    {
      "inputs": [
        {
          "internalType": "uint64",
          "name": "_subscriptionId",
          "type": "uint64"
        }
      ],
      "name": "refillSubscription",
      "outputs": [],
      "stateMutability": "nonpayable",
      "type": "function"
    },
    {
      "inputs": [
        {
          "components": [
            {
              "internalType": "uint96",
              "name": "fees",
              "type": "uint96"
            },
            {
              "internalType": "string",
              "name": "functionName",
              "type": "string"
            },
            {
              "internalType": "string",
              "name": "desc",
              "type": "string"
            },
            {
              "internalType": "string",
              "name": "imageUrl",
              "type": "string"
            },
            {
              "internalType": "string[]",
              "name": "expectedArgs",
              "type": "string[]"
            },
            {
              "internalType": "enum Functions.Location",
              "name": "codeLocation",
              "type": "uint8"
            },
            {
              "internalType": "enum Functions.Location",
              "name": "secretsLocation",
              "type": "uint8"
            },
            {
              "internalType": "enum Functions.CodeLanguage",
              "name": "language",
              "type": "uint8"
            },
            {
              "internalType": "bytes32",
              "name": "category",
              "type": "bytes32"
            },
            {
              "internalType": "uint64",
              "name": "subId",
              "type": "uint64"
            },
            {
              "internalType": "string",
              "name": "source",
              "type": "string"
            },
            {
              "internalType": "bytes",
              "name": "secrets",
              "type": "bytes"
            }
          ],
          "internalType": "struct FunctionsManager.FunctionsRegisterRequest",
          "name": "request",
          "type": "tuple"
        }
      ],
      "name": "registerFunction",
      "outputs": [
        {
          "internalType": "bytes32",
          "name": "",
          "type": "bytes32"
        }
      ],
      "stateMutability": "payable",
      "type": "function"
    },
    {
      "inputs": [
        {
          "internalType": "uint96",
          "name": "_baseFee",
          "type": "uint96"
        }
      ],
      "name": "setBaseFee",
      "outputs": [],
      "stateMutability": "nonpayable",
      "type": "function"
    },
    {
      "inputs": [
        {
          "internalType": "uint32",
          "name": "_feeManagerCut",
          "type": "uint32"
        }
      ],
      "name": "setFeeManagerCut",
      "outputs": [],
      "stateMutability": "nonpayable",
      "type": "function"
    },
    {
      "inputs": [
        {
          "internalType": "uint96",
          "name": "_minimumDeposit",
          "type": "uint96"
        }
      ],
      "name": "setMinimumDeposit",
      "outputs": [],
      "stateMutability": "nonpayable",
      "type": "function"
    },
    {
      "inputs": [
        {
          "internalType": "uint64",
          "name": "",
          "type": "uint64"
        }
      ],
      "name": "subscriptionBalances",
      "outputs": [
        {
          "internalType": "uint96",
          "name": "",
          "type": "uint96"
        }
      ],
      "stateMutability": "view",
      "type": "function"
    },
    {
      "inputs": [
        {
          "internalType": "address",
          "name": "to",
          "type": "address"
        }
      ],
      "name": "transferOwnership",
      "outputs": [],
      "stateMutability": "nonpayable",
      "type": "function"
    }
  ],
  "bytecode": "0x6080346200021b57601f62004d1438819003918201601f19168301916001600160401b03831184841017620002205780849260c0946040528339810103126200021b576200004d8162000236565b6200005b6020830162000236565b906200006a6040840162000236565b62000078606085016200024b565b9260808501519363ffffffff8516958686036200021b5760a06200009d91016200024b565b600080546001600160a01b039586166001600160a01b0319918216811790925591949091903315620001d657338260025416176002556c01000000000000000000000000600160c01b0319600e5416946064600f549a116200017757816fffffffff000000000000000000000000981683600b541617600b551690600c541617600c556503782dace9d960b21b17600d556c01000000000000000000000000600160c01b039060601b1617600e5560018060601b03169260018060801b0319169160601b161717600f55604051614ab39081620002618239f35b60405162461bcd60e51b815260206004820152603160248201527f466565206d616e6167657220637574206d757374206265206c6573732074686160448201527006e206f7220657175616c20746f2031303607c1b6064820152608490fd5b60405162461bcd60e51b815260206004820152601860248201527f43616e6e6f7420736574206f776e657220746f207a65726f00000000000000006044820152606490fd5b600080fd5b634e487b7160e01b600052604160045260246000fd5b51906001600160a01b03821682036200021b57565b51906001600160601b03821682036200021b5756fe6080604052600436101561001257600080fd5b60003560e01c80630b562aa9146101d75780630ca76175146101d25780631ac67b34146101cd578063257912f3146101c85780634351077d146101c3578063475a8b46146101be57806356fa1a2a146101b95780636ef25c3a146101b45780637587b1b2146101af57806379ba5097146101aa5780637b0caaa2146101a55780637bcb334d146101a057806385ec38a21461019b5780638913aa6d146101965780638da5cb5b14610191578063a36df5c21461018c578063ba9c513f14610187578063bdf4710414610182578063be4f00cd1461017d578063c8155bcb14610178578063d328a91e14610173578063d4b391751461016e578063d5549c8a14610169578063d7e6a96b14610164578063de76f0531461015f578063e67950d31461015a578063efb6c140146101555763f2fde38b1461015057600080fd5b611e6c565b611e19565b611cae565b611b62565b611afe565b611ad7565b6119d0565b61182c565b6112ee565b61124c565b611227565b61118e565b611103565b6110dc565b61104d565b610fe1565b610f6a565b610f30565b610e66565b610e1e565b610dd5565b610d62565b610c33565b610b34565b610aad565b6109fb565b610359565b6101ec565b60009103126101e757565b600080fd5b346101e75760003660031901126101e75760206001600160601b03600f5416604051908152f35b634e487b7160e01b600052604160045260246000fd5b60c0810190811067ffffffffffffffff82111761024557604052565b610213565b67ffffffffffffffff811161024557604052565b6040810190811067ffffffffffffffff82111761024557604052565b6060810190811067ffffffffffffffff82111761024557604052565b90601f8019910116810190811067ffffffffffffffff82111761024557604052565b604051906102c582610229565b565b60405190610160820182811067ffffffffffffffff82111761024557604052565b67ffffffffffffffff811161024557601f01601f191660200190565b929192610310826102e8565b9161031e6040519384610296565b8294818452818301116101e7578281602093846000960137010152565b9080601f830112156101e75781602061035693359101610304565b90565b346101e75760603660031901126101e75767ffffffffffffffff6004356024358281116101e75761038e90369060040161033b565b916044359081116101e7576103a790369060040161033b565b916103c96103bd600c546001600160a01b031690565b6001600160a01b031690565b6001600160a01b03908116331491906103e183613b2c565b6103f16103ec613bc3565b6148a8565b610405846000526005602052604060002090565b60018101936104278361041f87546001600160a01b031690565b161515613bfc565b61043833610433613c47565b61494b565b336104616103bd61045485546000526004602052604060002090565b546001600160a01b031690565b1490811561062d575b508015610608575b61047b90613ca6565b61048733610433613d17565b610494836004830161250d565b6104a1866005830161250d565b6104ac6103ec6131d9565b6104b681546132eb565b8054926104f86104546104e76104d6876000526004602052604060002090565b5460a01c67ffffffffffffffff1690565b956000526004602052604060002090565b966105046103ec613d50565b6105196103bd600c546001600160a01b031690565b60405163523e3b4b60e11b815267ffffffffffffffff871660048201529290600090849060249082905afa958615610603577f6968e95d7bc2605bb814d168859020d6e2f617bc615d1ae5aef0ce68af0d1631966105cc946000916105e0575b506001600160601b0361059d610591600d5460a01c90565b6001600160601b031690565b9116106105d1575b5060026105bb855498546001600160a01b031690565b940154604051958695169985613daf565b0390a4005b6105da9061350f565b386105a5565b6105fb913d8091833e6105f38183610296565b8101906121ff565b505038610579565b6122a2565b5061047b336106256103bd6103bd600d546001600160a01b031690565b149050610472565b90503861046a565b90600182811c92168015610665575b602083101461064f57565b634e487b7160e01b600052602260045260246000fd5b91607f1691610644565b906040519182600082549261068384610635565b9081845260019485811690816000146106f057506001146106ad575b50506102c592500383610296565b9093915060005260209081600020936000915b8183106106d85750506102c59350820101388061069f565b855488840185015294850194879450918301916106c0565b9150506102c594506020925060ff191682840152151560051b820101388061069f565b634e487b7160e01b600052602160045260246000fd5b6002111561073357565b610713565b60028210156107335752565b6001111561073357565b60018210156107335752565b67ffffffffffffffff81116102455760051b60200190565b90815461077e8161075a565b9261078c6040519485610296565b818452600090815260208082208186015b8484106107ab575050505050565b60018381926107b98561066f565b81520192019301929061079d565b906040516107d481610229565b60a06108376003839561080f60ff82546107f082821689610738565b610802828260081c1660208a01610738565b60101c166040870161074e565b61081b6001820161066f565b606086015261082c6002820161066f565b608086015201610772565b910152565b60005b83811061084f5750506000910152565b818101518382015260200161083f565b906020916108788151809281855285808601910161083c565b601f01601f1916010190565b9060028210156107335752565b908082519081815260208091019281808460051b8301019501936000915b8483106108bf5750505050505090565b90919293949584806108dd600193601f198682030187528a5161085f565b98019301930191949392906108af565b6108f8828251610884565b61090a60208201516020840190610884565b60408101519160018310156107335761035692604082015260a0610952610940606085015160c0606086015260c085019061085f565b6080850151848203608086015261085f565b9201519060a0818403910152610891565b98969a9995926109d6946109ac6109ba928c602067ffffffffffffffff6109c8986101209f9c986001600160a01b031684521691015260408d61014091829101528d019061085f565b908b820360608d015261085f565b9089820360808b015261085f565b9087820360a08901526108ed565b9660c08601526001600160601b03928380921660e08701521661010085015216910152565b346101e75760203660031901126101e757600435600052600460205260406000208054610aa9610a2d6001840161066f565b91610a3a6002850161066f565b93610a476003820161066f565b91610a54600583016107c7565b600983015490610a73600b600a8601549501546001600160601b031690565b946040519889986001600160601b03808860601c169716956001600160a01b0367ffffffffffffffff8260a01c1691168b610963565b0390f35b346101e75760003660031901126101e7576020600d5460a01c604051908152f35b906103569160208152815160208201526001600160a01b036020830151166040820152604082015160608201526060820151608082015260a0610b1f608084015160c08385015260e084019061085f565b9201519060c0601f198285030191015261085f565b346101e75760203660031901126101e757610aa96040808051610b5681610229565b606060a0600092838152836020820152838582015283838201528260808201520152610bb58251610b868161025e565b601381527f67657446756e6374696f6e526573706f6e73650000000000000000000000000060208201526148a8565b600435815260056020522090610c136005825193610bd285610229565b805485526001600160a01b03600182015416602086015260028101548486015260038101546060860152610c086004820161066f565b60808601520161066f565b60a08301525191829182610ace565b6001600160a01b038116036101e757565b346101e75760403660031901126101e757610d296020600435610c5581610c22565b60243590610c61611f33565b610cc68282604051610c728161027a565b603a81527f617070726f76696e672025732061732061207370656e646572206f66204c494e878201527f4b207769746820612076616c7565206f6620757020746f2025640000000000006040820152614a12565b610cdb6103bd600b546001600160a01b031690565b9060006040518096819582947f095ea7b300000000000000000000000000000000000000000000000000000000845260048401602090939291936001600160a01b0360408201951681520152565b03925af1801561060357610d3957005b610d599060203d8111610d5b575b610d518183610296565b810190612a0e565b005b503d610d47565b346101e75760403660031901126101e75760043567ffffffffffffffff8082116101e757366023830112156101e75781600401359081116101e75736602482840101116101e757610aa991610dc5916024803592610dbf84610c22565b0161363f565b6040519081529081906020820190565b346101e75760003660031901126101e75760206001600160601b03600e5460601c16604051908152f35b67ffffffffffffffff8116036101e757565b602435906102c582610dff565b346101e75760203660031901126101e75767ffffffffffffffff600435610e4481610dff565b16600052600a60205260206001600160601b0360406000205416604051908152f35b346101e757600080600319360112610f2d576001600160a01b0380600354163303610ee9576002546001600160a01b0316600280546001600160a01b0319163317905590610ebf6001600160a01b031960035416600355565b3391167f8be0079c531659141344cd1fd0a4f28419497f9722a3daafe3b4186f6b6457e08380a380f35b606460405162461bcd60e51b815260206004820152601660248201527f4d7573742062652070726f706f736564206f776e6572000000000000000000006044820152fd5b80fd5b346101e75760003660031901126101e757602063ffffffff600f5460601c16604051908152f35b6044359063ffffffff821682036101e757565b346101e75760603660031901126101e75767ffffffffffffffff6024358181116101e757366023820112156101e75780600401359182116101e7573660248360051b830101116101e757610aa9916024610dc592610fc6610f57565b5001600435612f41565b6001600160601b038116036101e757565b346101e75760203660031901126101e7577ff310923b17686bb5bfbd2bc7e25960dac092be75769b675fbf4909d7de77916b60206001600160601b0360043561102981610fd0565b611031611f33565b16806001600160601b0319600f541617600f55604051908152a1005b346101e75760203660031901126101e7576001600160a01b0360043561107281610c22565b1660005260086020526110c06040600020610aa961108f8261066f565b916110ce6110ab60026110a46001850161066f565b930161066f565b9160405195869560608752606087019061085f565b90858203602087015261085f565b90838203604085015261085f565b346101e75760003660031901126101e75760206001600160a01b0360025416604051908152f35b346101e75760203660031901126101e757600435600052600560205260406000208054610aa96001600160a01b0360018401541692611180600282015491600381015461115760056110a46004850161066f565b93604051978897885260208801526040870152606086015260c0608086015260c085019061085f565b9083820360a085015261085f565b346101e75760203660031901126101e75760043563ffffffff8116908181036101e7577f5df6c53187c7cfa2643679f49eee9fc8a62e23a074ed0b12f17b5635c25f721d916020916111de611f33565b7fffffffffffffffffffffffffffffffff00000000ffffffffffffffffffffffff6fffffffff000000000000000000000000600f549260601b16911617600f55604051908152a1005b346101e75760203660031901126101e757610d5960043561124781610dff565b61350f565b346101e75760203660031901126101e7577f803bee7e92bbc6ae7a1551f9f4ed3e31a8ea8df32e93332f41b0028f1091f9c3602060043561128c81610fd0565b611294611f33565b600e547fffffffffffffffff000000000000000000000000ffffffffffffffffffffffff77ffffffffffffffffffffffff0000000000000000000000008360601b16911617600e556001600160601b0360405191168152a1005b602060031981813601126101e7576004359167ffffffffffffffff918284116101e757610180846004019185360301126101e75761136f6113c39261133283611f8b565b506024860161134d6113448286611f95565b90501515611fc8565b6113d061135a8286611f95565b60409791885196879187830193339185612013565b0395611383601f1997888101835282610296565b5190206113b36113ae6113aa6113a3846000526007602052604060002090565b5460ff1690565b1590565b61204d565b6000526007602052604060002090565b805460ff19166001179055565b6113d86120f1565b338152936113f96113e882611f8b565b6001600160601b0316610100870152565b61140d6114068383611f95565b3691610304565b8686015261142161140660448a0183611f95565b606086015261143661140660648a0183611f95565b608086015261145261144b60848a0183612160565b3691611945565b60a086015260e085019661010489013588526101248901908061147483612196565b1661168e5750506114866103ec612399565b61149b6103bd600b546001600160a01b031690565b86516370a0823160e01b815233600482015292908490849060249082905afa91821561060357610aa9996114f561157a9461159c96600091611661575b506114ee610591600f546001600160601b031690565b11156123e1565b611510611500612aeb565b67ffffffffffffffff1689880152565b6115186120be565b9061154c61152860a48301612452565b61153460e4840161245c565b611545611406610144860188611f95565b918561365f565b600161155a60c48301612452565b61156381610729565b1480611649575b611629575b5060c0880152611f95565b9390926115908751948592830196339188612013565b03908101835282610296565b519020926115c96001600160a01b036115c2610454876000526004602052604060002090565b1615612466565b6115e6826115e1866000526004602052604060002090565b61278b565b5190837f8a23a15f3ff2881778895794d1779641909d65a0e3598e69f9106f6cd88f01a2845180611618339582611ba8565b0390a4519081529081906020820190565b61163d611406610164611643930185611f95565b826136ae565b3861156f565b50611658610164820184611f95565b9050151561156a565b6116819150883d8a11611687575b6116798183610296565b8101906123d2565b386114d8565b503d61166f565b906116b16116fd9a926116a083612196565b906116a96121a0565b9116906148ef565b60006116c86103bd600c546001600160a01b031690565b6116d183612196565b908a5180809e819463523e3b4b60e11b83526004830191909167ffffffffffffffff6020820193169052565b03915afa998a1561060357600090819b6117f5575b506001600160a01b03163081149033146000915b8c518310156117d4578c61174e6103bd6117418630946122d8565b516001600160a01b031690565b036117b357506001915b82806117ac575b6117725761176c906122c4565b91611726565b50610aa99b5061150061157a959361179a61159c98969461179f945b816117a4575b50612302565b612196565b611510565b905038611794565b508161175f565b918c6117c66103bd6117418433946122d8565b036117585760019150611758565b610aa99c5061159c9694925061157a959361179a6115009261179f9461178e565b6001600160a01b039b50611812913d8091833e6105f38183610296565b9b915090611712565b90602061035692818152019061085f565b346101e757600080600319360112610f2d576004816001600160a01b03815416604051928380927fd328a91e0000000000000000000000000000000000000000000000000000000082525afa908115610603578291611894575b60405180610aa9848261181b565b90503d8083833e6118a58183610296565b8101906020818303126119135780519067ffffffffffffffff8211611917570181601f82011215611913578051926118dc846102e8565b926118ea6040519485610296565b84845260208584010111610f2d5750610aa99261190d916020808501910161083c565b38611886565b8280fd5b8380fd5b600211156101e757565b35906102c58261191b565b600111156101e757565b35906102c582611930565b929190926119528461075a565b916119606040519384610296565b829480845260208094019060051b8301928284116101e75780915b84831061198a57505050505050565b823567ffffffffffffffff81116101e75786916119aa868493860161033b565b81520192019161197b565b9080601f830112156101e75781602061035693359101611945565b346101e7576003196080368201126101e75760043567ffffffffffffffff918282116101e75760c09082360301126101e757611a0a6102b8565b611a1682600401611925565b8152611a2460248301611925565b6020820152611a356044830161193a565b604082015260648201358381116101e757611a56906004369185010161033b565b606082015260848201358381116101e757611a77906004369185010161033b565b608082015260a48201359283116101e757611a9e611abd926004610aa995369201016119b5565b60a0820152611aab610e11565b611ab3610f57565b9060643592613771565b6040516001600160601b0390911681529081906020820190565b346101e75760003660031901126101e75760206001600160601b03600e5416604051908152f35b346101e75760203660031901126101e75767ffffffffffffffff600435611b2481610dff565b610e44604051611b338161025e565b601681527f676574537562736372697074696f6e42616c616e63650000000000000000000060208201526148a8565b346101e75760203660031901126101e757610d59600435611b81611f33565b806000526004602052611ba36001600160a01b0360406000205416151561318e565b6132eb565b6103569060208152611bc66020820184516001600160a01b03169052565b602083015167ffffffffffffffff1660408201526040830151611c59611bfa6101609283606086015261018085019061085f565b611c44611c30611c1c606089015193601f1994858983030160808a015261085f565b6080890151848883030160a089015261085f565b60a0880151838783030160c0880152610891565b9060c0870151908583030160e08601526108ed565b9360e08101516101009081850152810151611c8261012091828601906001600160601b03169052565b81015190611c9e61014092838601906001600160601b03169052565b01516001600160601b0316910152565b346101e75760203660031901126101e757611cc76120f1565b50611d06604051611cd78161025e565b600b81527f67657446756e6374696f6e00000000000000000000000000000000000000000060208201526148a8565b6004356000526004602052610aa96040600020611e0d611dfc600b611d296102c7565b93611d6b67ffffffffffffffff8254611d546001600160a01b03821689906001600160a01b03169052565b60a01c16602087019067ffffffffffffffff169052565b611d776001820161066f565b6040860152611d886002820161066f565b6060860152611d996003820161066f565b6080860152611daa60048201610772565b60a0860152611dbb600582016107c7565b60c0860152600981015460e0860152600a8101546001600160601b0380821661010088015260609190911c166101208601525b01546001600160601b031690565b6001600160601b0316610140830152565b60405191829182611ba8565b346101e75760203660031901126101e75767ffffffffffffffff600435611e3f81610dff565b166000526009602052610aa9611e58604060002061066f565b60405191829160208352602083019061085f565b346101e75760203660031901126101e7576001600160a01b03600435611e9181610c22565b611e99611f33565b16338114611eef57806001600160a01b03196003541617600355611ec86103bd6002546001600160a01b031690565b7fed8889f560326eb138920d842192f0eb3dd22b4f139c87a2c57538e05bae1278600080a3005b606460405162461bcd60e51b815260206004820152601760248201527f43616e6e6f74207472616e7366657220746f2073656c660000000000000000006044820152fd5b6001600160a01b03600254163303611f4757565b606460405162461bcd60e51b815260206004820152601660248201527f4f6e6c792063616c6c61626c65206279206f776e6572000000000000000000006044820152fd5b3561035681610fd0565b903590601e19813603018212156101e7570180359067ffffffffffffffff82116101e7576020019181360383136101e757565b15611fcf57565b606460405162461bcd60e51b815260206004820152601d60248201527f46756e6374696f6e206e616d652063616e6e6f7420626520656d7074790000006044820152fd5b916060816001600160a01b039260209497969760408752816040880152838701376000828287010152601f80199101168401019416910152565b1561205457565b608460405162461bcd60e51b815260206004820152602b60248201527f46756e6374696f6e206e616d6520616c72656164792065786973747320666f7260448201527f2074686973206f776e65720000000000000000000000000000000000000000006064820152fd5b604051906120cb82610229565b606060a08360008152600060208201526000604082015282808201528260808201520152565b60405190610160820182811067ffffffffffffffff82111761024557604052816101406000918281528260208201526060604082015260608082015260606080820152606060a08201526121436120be565b60c08201528260e082015282610100820152826101208201520152565b903590601e19813603018212156101e7570180359067ffffffffffffffff82116101e757602001918160051b360383136101e757565b3561035681610dff565b604051906121ad8261027a565b603682527f636865636b696e6720696620617574686f72697a6564000000000000000000006040837f7573696e67206578697374696e6720737562736372697074696f6e2025642c2060208201520152565b90916060828403126101e757815161221681610fd0565b9260208084015161222681610c22565b9360408101519067ffffffffffffffff82116101e757019180601f840112156101e75782516122548161075a565b936122626040519586610296565b818552838086019260051b8201019283116101e7578301905b828210612289575050505090565b838091835161229781610c22565b81520191019061227b565b6040513d6000823e3d90fd5b634e487b7160e01b600052601160045260246000fd5b60001981146122d35760010190565b6122ae565b80518210156122ec5760209160051b010190565b634e487b7160e01b600052603260045260246000fd5b1561230957565b60a460405162461bcd60e51b815260206004820152604f60248201527f46756e6374696f6e734d616e6167657220616e642f6f722063616c6c6572206160448201527f7265206e6f7420617574686f72697a656420636f6e73756d657273206f66207460648201527f686520737562736372697074696f6e00000000000000000000000000000000006084820152fd5b604051906123a68261025e565b601982527f6372656174696e67206e657720737562736372697074696f6e000000000000006020830152565b908160209103126101e7575190565b156123e857565b608460405162461bcd60e51b815260206004820152602e60248201527f496e73756666696369656e74204c494e4b2062616c616e636520746f2066756e60448201527f6420737562736372697074696f6e0000000000000000000000000000000000006064820152fd5b356103568161191b565b3561035681611930565b1561246d57565b606460405162461bcd60e51b815260206004820152601760248201527f46756e6374696f6e20616c7265616479206578697374730000000000000000006044820152fd5b8181106124bc575050565b600081556001016124b1565b9190601f81116124d757505050565b6102c5926000526020600020906020601f840160051c83019310612503575b601f0160051c01906124b1565b90915081906124f6565b919091825167ffffffffffffffff8111610245576125358161252f8454610635565b846124c8565b602080601f8311600114612571575081929394600092612566575b50508160011b916000199060031b1c1916179055565b015190503880612550565b90601f1983169561258785600052602060002090565b926000905b8882106125c4575050836001959697106125ab575b505050811b019055565b015160001960f88460031b161c191690553880806125a1565b8060018596829496860151815501950193019061258c565b908160011b91808304600214901517156122d357565b815191680100000000000000008311610245578154838355808410612655575b50612627602080920192600052602060002090565b6000925b848410612639575050505050565b600183826126498394518661250d565b0192019301929061262b565b6000838152846020822092830192015b828110612673575050612612565b8061268060019254610635565b8061268d575b5001612665565b601f9081811184146126a55750508281555b38612686565b836126c7926126b985600052602060002090565b920160051c820191016124b1565b6000818152602081208183555561269f565b9060018110156107335762ff000082549160101b169062ff00001916179055565b81519160028310156107335760ff82549316908160ff19851617835560208101519061272582610729565b6002821015610733576102c59460039361ff0060a09460081b169161ffff191617178455612760604082015161275a81610744565b856126d9565b61277160608201516001860161250d565b61278260808201516002860161250d565b015191016125f2565b600b6129316101406102c5946127c76127ab82516001600160a01b031690565b86906001600160a01b03166001600160a01b0319825416179055565b61282c6127df602083015167ffffffffffffffff1690565b86547fffffffff0000000000000000ffffffffffffffffffffffffffffffffffffffff1660a09190911b7bffffffffffffffff000000000000000000000000000000000000000016178655565b61283d60408201516001870161250d565b61284e60608201516002870161250d565b61285f60808201516003870161250d565b61287060a0820151600487016125f2565b61288160c0820151600587016126fa565b60e08101516009860155612923600a86016128cb6128aa6101008501516001600160601b031690565b82546bffffffffffffffffffffffff19166001600160601b03909116178255565b6101208301516001600160601b03165b7fffffffffffffffff000000000000000000000000ffffffffffffffffffffffff77ffffffffffffffffffffffff00000000000000000000000083549260601b169116179055565b01516001600160601b031690565b9101906001600160601b03166001600160601b0319825416179055565b908160209103126101e7575161035681610dff565b604051906129708261025e565b601f82527f6372656174656420737562736372697074696f6e2077697468206964202564006020830152565b604051906129a98261025e565b601582527f616464696e6720257320617320636f6e73756d657200000000000000000000006020830152565b604051906129e28261025e565b601982527f73656e646572202573204c494e4b2062616c616e6365202564000000000000006020830152565b908160209103126101e7575180151581036101e75790565b6001600160601b0361035694936001600160a01b03606094168352166020820152816040820152019061085f565b15612a5b57565b60a460405162461bcd60e51b815260206004820152604460248201527f4661696c656420746f207472616e73666572204c494e4b20746f2042696c6c6960448201527f6e6720526567697374727920746f2066756e642074686520737562736372697060648201527f74696f6e000000000000000000000000000000000000000000000000000000006084820152fd5b612b006103bd600c546001600160a01b031690565b604051907fa21a23e400000000000000000000000000000000000000000000000000000000825260208083600481600080965af1928315610603578293612d72575b50612b5f612b4e612963565b67ffffffffffffffff8516906148ef565b612b6b3061043361299c565b612b806103bd600c546001600160a01b031690565b803b15611913576040517f7341c10c00000000000000000000000000000000000000000000000000000000815267ffffffffffffffff851660048201523060248201529083908290604490829084905af1801561060357612d59575b50612c1a33612bff8567ffffffffffffffff166000526006602052604060002090565b906001600160a01b03166001600160a01b0319825416179055565b612c2f6103bd600b546001600160a01b031690565b6040516370a0823160e01b8152336004820152908282602481845afa90811561060357612c718492612d03948791612d3c575b5033612c6c6129d5565b614a12565b612c866103bd600c546001600160a01b031690565b90612c99600f546001600160601b031690565b8660405193612ccd85612cbf8c89830191909167ffffffffffffffff6020820193169052565b03601f198101875286610296565b604051968795869485937f4000aea000000000000000000000000000000000000000000000000000000000855260048501612a26565b03925af1918215610603576103569392612d1f575b5050612a54565b612d359250803d10610d5b57610d518183610296565b3880612d18565b612d539150843d8611611687576116798183610296565b38612c62565b80612d66612d6c9261024a565b806101dc565b38612bdc565b81612d939294503d8511612d9a575b612d8b8183610296565b81019061294e565b9138612b42565b503d612d81565b60405190612dae8261027a565b602682527f696f6e49643a00000000000000000000000000000000000000000000000000006040837f65786563757465526571756573742063616c6c656420776974682066756e637460208201520152565b15612e0757565b606460405162461bcd60e51b815260206004820152601a60248201527f66756e6374696f6e206973206e6f7420726567697374657265640000000000006044820152fd5b60405190612e588261025e565b601b82527f636f6c6c656374696e6720616e64206c6f636b696e67206665657300000000006020830152565b60405190612e918261025e565b601982527f73656e64696e672066756e6374696f6e732072657175657374000000000000006020830152565b15612ec457565b606460405162461bcd60e51b815260206004820152601960248201527f5265717565737420494420616c726561647920657869737473000000000000006044820152fd5b60405190612f158261025e565b601d82527f656d697474696e672046756e6374696f6e43616c6c6564206576656e740000006020830152565b91612f4d6103ec612da1565b612f568361484d565b612f8c6005612f6f856000526004602052604060002090565b612f86612f7f6001830154610635565b1515612e00565b016107c7565b9080613171575b505050612fa16103ec612e4b565b612fac6103ec612e84565b6040518181527f3811ad3be2c1ad6289b577168b7198ef14a31d21be250b4e62fdb914aede7dc390602090a160408051602081018381523360601b6bffffffffffffffffffffffff19169282019290925242605482015261301a81607481015b03601f198101835282610296565b519020907fb6bbc09e48a45d15c4f573e21671285a2c20d8e28934eaba14b328066487e6556040518061305285829190602083019252565b0390a161307361306c836000526005602052604060002090565b5415612ebd565b80613088836000526005602052604060002090565b556130bf3360016130a3856000526005602052604060002090565b01906001600160a01b03166001600160a01b0319825416179055565b6130ca6103ec612f08565b816130e2610454836000526004602052604060002090565b917feb98a4358e79cd01f5b134f72406251bd2a7b8667fd337212737d07697d4b9fc61311a600e546001600160601b039060601c1690565b613133600a611dee856000526004602052604060002090565b604080516001600160a01b03979097168752600060208801819052908701526001600160601b039182166060870152166080850152339360a090a490565b61318692613180913691611945565b906136ec565b388080612f93565b1561319557565b606460405162461bcd60e51b815260206004820152601760248201527f46756e6374696f6e20646f6573206e6f742065786973740000000000000000006044820152fd5b604051906131e68261025e565b600e82527f556e6c6f636b696e6720666565730000000000000000000000000000000000006020830152565b9063ffffffff8092166064039182116122d357565b9190916001600160601b03808094169116029182169182036122d357565b604051906132528261025e565b601c82527f4265666f7265206c6f636b656420256420756e6c6f636b6564202564000000006020830152565b6001600160601b0391821690821603919082116122d357565b9190916001600160601b03808094169116019182116122d357565b604051906132bf8261025e565b601b82527f4166746572206c6f636b656420256420756e6c6f636b656420256400000000006020830152565b6102c5906132fa6103ec6131d9565b6133246001600160a01b0361331c610454846000526004602052604060002090565b16151561318e565b613380613370613343600a611dee856000526004602052604060002090565b61336a61336161335c600f5463ffffffff9060601c1690565b613212565b63ffffffff1690565b90613227565b6001600160601b03606491160490565b61346a61339c600b611dee856000526004602052604060002090565b916133e76133ca600a6133b9876000526004602052604060002090565b015460601c6001600160601b031690565b936133d3613245565b6001600160601b03808097169216906149b0565b613435600b613400866000526004602052604060002090565b0161341b8361341683546001600160601b031690565b61327e565b6001600160601b03166001600160601b0319825416179055565b6128db600a61344e866000526004602052604060002090565b019161346583546001600160601b039060601c1690565b613297565b61349c600a6133b961348b600b611dee876000526004602052604060002090565b946000526004602052604060002090565b90806134a66132b2565b92169216906149b0565b604051906134bd8261027a565b603782527f6c6c20617661696c61626c652062616c616e63652025640000000000000000006040837f526566696c6c696e6720737562736372697074696f6e2025642077697468206160208201520152565b6020612cbf6136149261356d61354961353c8367ffffffffffffffff16600052600a602052604060002090565b546001600160601b031690565b6001600160601b036135596134b0565b91169067ffffffffffffffff8416906149b0565b61358e61353c8267ffffffffffffffff16600052600a602052604060002090565b6135c46135af8367ffffffffffffffff16600052600a602052604060002090565b80546bffffffffffffffffffffffff19169055565b60006135db6103bd600b546001600160a01b031690565b92612ccd6135f46103bd600c546001600160a01b031690565b9160405196879189830191909167ffffffffffffffff6020820193169052565b03925af18015610603576136255750565b61363c9060203d8111610d5b57610d518183610296565b50565b91906136599061300c604051938492602084019687612013565b51902090565b90835115613684576060926136776136809284610738565b6040830161074e565b0152565b60046040517f22ce3edd000000000000000000000000000000000000000000000000000000008152fd5b8151156136c2576001602082015260800152565b60046040517fe889636f000000000000000000000000000000000000000000000000000000008152fd5b8151156136f95760a00152565b60046040517ffe936cb7000000000000000000000000000000000000000000000000000000008152fd5b908160209103126101e7575161035681610fd0565b9061376660609367ffffffffffffffff63ffffffff939897969816845260806020850152608084019061085f565b951660408201520152565b91906001600160a01b0360005416906137886139b6565b6137928151613e19565b506137a461379e6139d6565b8261450c565b6137c185516137b281610729565b6137bb81610729565b82613e98565b6137cc61379e613a0f565b6137e660408601516137dd81610744565b6137bb81610744565b6137f161379e613a48565b6137ff60608601518261450c565b60a08501805151613930575b506080850194855151613898575b506020945051519061385a604051968795869485947fd227d24500000000000000000000000000000000000000000000000000000000865260048601613738565b03915afa90811561060357600091613870575090565b610356915060203d8111613891575b6138898183610296565b810190613723565b503d61387f565b60200180516138a681610729565b6138af81610729565b15613906576020956138e8613900926138cf6138c9613aba565b8661450c565b516138d981610729565b6138e281610729565b84613e98565b6138f96138f3613af3565b8461450c565b5182614459565b38613819565b60046040517fa80d31f7000000000000000000000000000000000000000000000000000000008152fd5b959261394a61394498959298969396613a81565b8961450c565b61395388614591565b60005b8751805182101561398357906139796139728261397e946122d8565b518b61450c565b6122c4565b613956565b505092955092959390936139968161461d565b3861380b565b604051906139a98261025e565b6000602083606081520152565b604051906139c38261025e565b60006020836139d061399c565b81520152565b604051906139e38261025e565b600c82527f636f64654c6f636174696f6e00000000000000000000000000000000000000006020830152565b60405190613a1c8261025e565b600882527f6c616e67756167650000000000000000000000000000000000000000000000006020830152565b60405190613a558261025e565b600682527f736f7572636500000000000000000000000000000000000000000000000000006020830152565b60405190613a8e8261025e565b600482527f61726773000000000000000000000000000000000000000000000000000000006020830152565b60405190613ac78261025e565b600f82527f736563726574734c6f636174696f6e00000000000000000000000000000000006020830152565b60405190613b008261025e565b600782527f73656372657473000000000000000000000000000000000000000000000000006020830152565b15613b3357565b60a460405162461bcd60e51b815260206004820152604260248201527f4f6e6c79207468652066756e6374696f6e206f776e6572206f722042696c6c6960448201527f6e672052656769737472792063616e2063616c6c20746869732066756e63746960648201527f6f6e0000000000000000000000000000000000000000000000000000000000006084820152fd5b60405190613bd08261025e565b601282527f66756c66696c6c696e67207265717565737400000000000000000000000000006020830152565b15613c0357565b606460405162461bcd60e51b815260206004820152601260248201527f496e76616c6964207265717565737420494400000000000000000000000000006044820152fd5b60405190613c548261027a565b603582527f63616c6c20746869732066756e6374696f6e2e2e2e00000000000000000000006040837f436865636b696e6720697320257320697320617574686f72697a656420746f2060208201520152565b15613cad57565b608460405162461bcd60e51b815260206004820152602e60248201527f4f6e6c79207468652066756e6374696f6e206f776e65722063616e2063616c6c60448201527f20746869732066756e6374696f6e0000000000000000000000000000000000006064820152fd5b60405190613d248261025e565b601382527f257320697320617574686f72697a65642e2e2e000000000000000000000000006020830152565b60405190613d5d8261027a565b603b82527f67206966206e6565642066696c6c20737562736372697074696f6e00000000006040837f46696e697368656420756e6c6f636b696e6720666565732c20636865636b696e60208201520152565b9261035694926001600160a01b03613de19316855260208501526000604085015260a0606085015260a084019061085f565b91608081840391015261085f565b601f198101919082116122d357565b90602082018092116122d357565b919082018092116122d357565b613e2161399c565b5061010060208201526040518082526000815261012081019081106101e75760405290565b90613e4f61399c565b50601f811680613e7e575b50806020830152604051908183526000825281016020019081106101e75760405290565b602003602081116122d35781018091116122d35738613e5a565b90815191613ea461399c565b5082515160018101908181116122d3576020850151811015613efd575b60c260206102c59651928301015380518211613ef5575b505060405191602083015260208252613ef08261025e565b614459565b523880613ed8565b8160011b94828604600214831517156122d357602081613f2f6102c598613f2860c295519184613e46565b50826143a1565b5096505050613ec1565b613f4161399c565b5080515160018101908181116122d3576020830151811015613f7a575b605b60208451928301015380518211613f7657505090565b5290565b8160011b828104600214831517156122d357613fa390613f9c85519186613e46565b50846143a1565b50613f5e565b613fb161399c565b5080515160018101908181116122d3576020830151811015613fe6575b605a60208451928301015380518211613f7657505090565b8160011b828104600214831517156122d35761400890613f9c85519186613e46565b50613fce565b61401661399c565b5080515160018101908181116122d357602083015181101561404b575b605960208451928301015380518211613f7657505090565b8160011b828104600214831517156122d35761406d90613f9c85519186613e46565b50614033565b61407b61399c565b5080515160018101908181116122d35760208301518110156140b0575b605860208451928301015380518211613f7657505090565b8160011b828104600214831517156122d3576140d290613f9c85519186613e46565b50614098565b6140e061399c565b5080515160018101908181116122d3576020830151811015614115575b607b60208451928301015380518211613f7657505090565b8160011b828104600214831517156122d35761413790613f9c85519186613e46565b506140fd565b61414561399c565b5080515160018101908181116122d357602083015181101561417a575b607a60208451928301015380518211613f7657505090565b8160011b828104600214831517156122d35761419c90613f9c85519186613e46565b50614162565b6141aa61399c565b5080515160018101908181116122d35760208301518110156141df575b607960208451928301015380518211613f7657505090565b8160011b828104600214831517156122d35761420190613f9c85519186613e46565b506141c7565b61420f61399c565b5080515160018101908181116122d3576020830151811015614244575b607860208451928301015380518211613f7657505090565b8160011b828104600214831517156122d35761426690613f9c85519186613e46565b5061422c565b9061427561399c565b5081515160018101918282116122d35760208401518210156142a8575b60208451928301015380518211613f7657505090565b8260011b838104600214841517156122d3576142d1906142ca86519187613e46565b50856143a1565b50614292565b906142e482519183613e46565b506142ed61399c565b508051906142f961399c565b506143078151831115614452565b825151926143158385613e0c565b91602092828480940151821161438a575b5183815197820101968211614382575b505001915b8181101561435c5760001991036101000a0190811990511690825116179052565b919261437761437161437d9286518152613dfe565b94613dfe565b92613def565b61433b565b523880614336565b61439c614396836125dc565b826142d7565b614326565b906143aa61399c565b5080516143b561399c565b506143c38251821115614452565b825151916143d18284613e0c565b602091829182870151811161443b575b865183815197820101968211614433575b505001915b818110156144195760001991036101000a019081199051169082511617905290565b919261437761437161442e9286518152613dfe565b6143f7565b5238806143f2565b61444d614447826125dc565b886142d7565b6143e1565b156101e757565b815161363c92919067ffffffffffffffff81169060178211614491576144899150604060ff84519216179061426c565b505b516143a1565b5060ff81116144b6576144b0906144a88351614073565b5082516147e7565b5061448b565b61ffff81116144d5576144b0906144cd835161400e565b508251614780565b63ffffffff81116144f6576144b0906144ee8351613fa9565b508251614717565b6144b0906145048351613f39565b5082516146aa565b815161363c92919067ffffffffffffffff8116906017821161453c576144899150606060ff84519216179061426c565b5060ff8111614553576144b0906144a88351614207565b61ffff811161456a576144b0906144cd83516141a2565b63ffffffff8111614583576144b0906144ee835161413d565b6144b09061450483516140d8565b80519061459c61399c565b5081515160018101908181116122d35760208401518110156145ea575b609f60208095519283010153805182116145e2575b505001805190600182018092116122d35752565b5238806145ce565b8160011b93828504600214831517156122d3576020816146138297613f28609f95519184613e46565b50955050506145b9565b80519061462861399c565b5081515160018101908181116122d3576020840151811015614677575b60ff602080955192830101538051821161466f575b50500180516000198101919082116122d35752565b52388061465a565b8160011b93828504600214831517156122d3576020816146a08297613f2860ff95519184613e46565b5095505050614645565b906146b361399c565b508151518060080191826008116122d357602084015183116146f6575b60088451928301019067ffffffffffffffff1982511617905280518211613f7657505090565b8260011b838104600214841517156122d35761471290856142d7565b6146d0565b9061472061399c565b508151518060040191826004116122d3576020840151831161475f575b60048451928301019063ffffffff1982511617905280518211613f7657505090565b8260011b838104600214841517156122d35761477b90856142d7565b61473d565b9061478961399c565b508151518060020191826002116122d357602084015183116147c6575b60028451928301019061ffff1982511617905280518211613f7657505090565b8260011b838104600214841517156122d3576147e290856142d7565b6147a6565b906147f061399c565b508151518060010191826001116122d3576020840151831161482c575b60018451928301019060ff1982511617905280518211613f7657505090565b8260011b838104600214841517156122d35761484890856142d7565b61480d565b6102c590604051907f27b7cf8500000000000000000000000000000000000000000000000000000000602083015260248201526024815261488d8161027a565b600080916020815191016a636f6e736f6c652e6c6f675afa50565b61300c61488d6102c5926040519283917f41304fac00000000000000000000000000000000000000000000000000000000602084015260206024840152604483019061085f565b61488d614937916102c5936040519384927fb60e72cc00000000000000000000000000000000000000000000000000000000602085015260406024850152606484019061085f565b90604483015203601f198101835282610296565b61488d61499b916102c5936001600160a01b036040519485937f319af33300000000000000000000000000000000000000000000000000000000602086015260406024860152606485019061085f565b9116604483015203601f198101835282610296565b61488d906149f9926102c5946040519485937fca47c4eb00000000000000000000000000000000000000000000000000000000602086015260606024860152608485019061085f565b916044840152606483015203601f198101835282610296565b61488d90614a63926102c5946001600160a01b036040519586947f0d26b92500000000000000000000000000000000000000000000000000000000602087015260606024870152608486019061085f565b92166044840152606483015203601f19810183528261029656fea264697066735822122022f5208a450034305da2764be9dcea8b05c8562d9021063975ed957ade02e98764736f6c63430008120033",
  "linkReferences": {},
  "deployedLinkReferences": {}
}