{
  "_format": "hh-sol-artifact-1",
  "contractName": "FunctionsManager",
  "sourceName": "contracts/FunctionsManager.sol",
  "abi": [
    {
      "inputs": [
        {
          "internalType": "address",
          "name": "link",
          "type": "address"
        },
        {
          "internalType": "address",
          "name": "billingRegistryProxy",
          "type": "address"
        },
        {
          "internalType": "address",
          "name": "oracleProxy",
          "type": "address"
        },
        {
          "internalType": "uint96",
          "name": "_baseFee",
          "type": "uint96"
        },
        {
          "internalType": "uint32",
          "name": "_feeManagerCut",
          "type": "uint32"
        },
        {
          "internalType": "uint96",
          "name": "_minimumSubscriptionBalance",
          "type": "uint96"
        }
      ],
      "stateMutability": "nonpayable",
      "type": "constructor"
    },
    {
      "inputs": [],
      "name": "EmptyArgs",
      "type": "error"
    },
    {
      "inputs": [],
      "name": "EmptySecrets",
      "type": "error"
    },
    {
      "inputs": [],
      "name": "EmptySource",
      "type": "error"
    },
    {
      "inputs": [],
      "name": "NoInlineSecrets",
      "type": "error"
    },
    {
      "inputs": [],
      "name": "RequestIsAlreadyPending",
      "type": "error"
    },
    {
      "inputs": [],
      "name": "RequestIsNotPending",
      "type": "error"
    },
    {
      "inputs": [],
      "name": "SenderIsNotRegistry",
      "type": "error"
    },
    {
      "anonymous": false,
      "inputs": [
        {
          "indexed": false,
          "internalType": "uint256",
          "name": "newBaseFee",
          "type": "uint256"
        }
      ],
      "name": "BaseFeeUpdated",
      "type": "event"
    },
    {
      "anonymous": false,
      "inputs": [
        {
          "indexed": false,
          "internalType": "uint256",
          "name": "newFeeManagerCut",
          "type": "uint256"
        }
      ],
      "name": "FeeManagerCutUpdated",
      "type": "event"
    },
    {
      "anonymous": false,
      "inputs": [
        {
          "indexed": false,
          "internalType": "bytes32",
          "name": "requestId",
          "type": "bytes32"
        },
        {
          "indexed": false,
          "internalType": "bytes",
          "name": "response",
          "type": "bytes"
        },
        {
          "indexed": false,
          "internalType": "bytes",
          "name": "err",
          "type": "bytes"
        }
      ],
      "name": "FulfillRequest",
      "type": "event"
    },
    {
      "anonymous": false,
      "inputs": [
        {
          "indexed": true,
          "internalType": "bytes32",
          "name": "functionId",
          "type": "bytes32"
        },
        {
          "indexed": true,
          "internalType": "bytes32",
          "name": "requestId",
          "type": "bytes32"
        },
        {
          "indexed": true,
          "internalType": "address",
          "name": "caller",
          "type": "address"
        },
        {
          "indexed": false,
          "internalType": "address",
          "name": "owner",
          "type": "address"
        },
        {
          "indexed": false,
          "internalType": "bytes32",
          "name": "callbackFunction",
          "type": "bytes32"
        },
        {
          "indexed": false,
          "internalType": "uint256",
          "name": "usedGas",
          "type": "uint256"
        },
        {
          "indexed": false,
          "internalType": "bytes",
          "name": "response",
          "type": "bytes"
        },
        {
          "indexed": false,
          "internalType": "bytes",
          "name": "err",
          "type": "bytes"
        }
      ],
      "name": "FunctionCallCompleted",
      "type": "event"
    },
    {
      "anonymous": false,
      "inputs": [
        {
          "indexed": true,
          "internalType": "bytes32",
          "name": "functionId",
          "type": "bytes32"
        },
        {
          "indexed": true,
          "internalType": "bytes32",
          "name": "requestId",
          "type": "bytes32"
        },
        {
          "indexed": true,
          "internalType": "address",
          "name": "caller",
          "type": "address"
        },
        {
          "indexed": false,
          "internalType": "address",
          "name": "owner",
          "type": "address"
        },
        {
          "indexed": false,
          "internalType": "bytes32",
          "name": "callbackFunction",
          "type": "bytes32"
        },
        {
          "indexed": false,
          "internalType": "uint256",
          "name": "gasDeposit",
          "type": "uint256"
        },
        {
          "indexed": false,
          "internalType": "uint96",
          "name": "baseFee",
          "type": "uint96"
        },
        {
          "indexed": false,
          "internalType": "uint96",
          "name": "fee",
          "type": "uint96"
        }
      ],
      "name": "FunctionCalled",
      "type": "event"
    },
    {
      "anonymous": false,
      "inputs": [
        {
          "indexed": true,
          "internalType": "bytes32",
          "name": "functionId",
          "type": "bytes32"
        },
        {
          "indexed": true,
          "internalType": "address",
          "name": "owner",
          "type": "address"
        },
        {
          "indexed": true,
          "internalType": "bytes32",
          "name": "category",
          "type": "bytes32"
        },
        {
          "components": [
            {
              "internalType": "address",
              "name": "owner",
              "type": "address"
            },
            {
              "internalType": "string",
              "name": "name",
              "type": "string"
            },
            {
              "internalType": "string",
              "name": "desc",
              "type": "string"
            },
            {
              "internalType": "string",
              "name": "imageUrl",
              "type": "string"
            },
            {
              "internalType": "string[]",
              "name": "expectedArgs",
              "type": "string[]"
            },
            {
              "internalType": "bytes32",
              "name": "category",
              "type": "bytes32"
            }
          ],
          "indexed": false,
          "internalType": "struct FunctionsManager.FunctionMetadata",
          "name": "metadata",
          "type": "tuple"
        }
      ],
      "name": "FunctionRegistered",
      "type": "event"
    },
    {
      "anonymous": false,
      "inputs": [
        {
          "indexed": false,
          "internalType": "uint256",
          "name": "newMinimumDeposit",
          "type": "uint256"
        }
      ],
      "name": "MinimumSubscriptionBalanceUpdated",
      "type": "event"
    },
    {
      "anonymous": false,
      "inputs": [
        {
          "indexed": true,
          "internalType": "bytes32",
          "name": "requestId",
          "type": "bytes32"
        },
        {
          "indexed": false,
          "internalType": "bytes",
          "name": "result",
          "type": "bytes"
        },
        {
          "indexed": false,
          "internalType": "bytes",
          "name": "err",
          "type": "bytes"
        }
      ],
      "name": "OCRResponse",
      "type": "event"
    },
    {
      "anonymous": false,
      "inputs": [
        {
          "indexed": true,
          "internalType": "address",
          "name": "from",
          "type": "address"
        },
        {
          "indexed": true,
          "internalType": "address",
          "name": "to",
          "type": "address"
        }
      ],
      "name": "OwnershipTransferRequested",
      "type": "event"
    },
    {
      "anonymous": false,
      "inputs": [
        {
          "indexed": true,
          "internalType": "address",
          "name": "from",
          "type": "address"
        },
        {
          "indexed": true,
          "internalType": "address",
          "name": "to",
          "type": "address"
        }
      ],
      "name": "OwnershipTransferred",
      "type": "event"
    },
    {
      "anonymous": false,
      "inputs": [
        {
          "indexed": true,
          "internalType": "bytes32",
          "name": "id",
          "type": "bytes32"
        }
      ],
      "name": "RequestFulfilled",
      "type": "event"
    },
    {
      "anonymous": false,
      "inputs": [
        {
          "indexed": true,
          "internalType": "bytes32",
          "name": "id",
          "type": "bytes32"
        }
      ],
      "name": "RequestSent",
      "type": "event"
    },
    {
      "inputs": [],
      "name": "acceptOwnership",
      "outputs": [],
      "stateMutability": "nonpayable",
      "type": "function"
    },
    {
      "inputs": [
        {
          "internalType": "address",
          "name": "_spender",
          "type": "address"
        },
        {
          "internalType": "uint256",
          "name": "_value",
          "type": "uint256"
        }
      ],
      "name": "approveTokenSpender",
      "outputs": [],
      "stateMutability": "nonpayable",
      "type": "function"
    },
    {
      "inputs": [
        {
          "internalType": "address",
          "name": "",
          "type": "address"
        }
      ],
      "name": "authorMetadata",
      "outputs": [
        {
          "internalType": "string",
          "name": "name",
          "type": "string"
        },
        {
          "internalType": "string",
          "name": "imageUrl",
          "type": "string"
        },
        {
          "internalType": "string",
          "name": "websiteUrl",
          "type": "string"
        }
      ],
      "stateMutability": "view",
      "type": "function"
    },
    {
      "inputs": [],
      "name": "baseFee",
      "outputs": [
        {
          "internalType": "uint96",
          "name": "",
          "type": "uint96"
        }
      ],
      "stateMutability": "view",
      "type": "function"
    },
    {
      "inputs": [
        {
          "internalType": "string",
          "name": "functionName",
          "type": "string"
        },
        {
          "internalType": "address",
          "name": "owner",
          "type": "address"
        }
      ],
      "name": "calculateFunctionId",
      "outputs": [
        {
          "internalType": "bytes32",
          "name": "",
          "type": "bytes32"
        }
      ],
      "stateMutability": "pure",
      "type": "function"
    },
    {
      "inputs": [
        {
          "components": [
            {
              "internalType": "uint96",
              "name": "fees",
              "type": "uint96"
            },
            {
              "internalType": "string",
              "name": "functionName",
              "type": "string"
            },
            {
              "internalType": "string",
              "name": "desc",
              "type": "string"
            },
            {
              "internalType": "string",
              "name": "imageUrl",
              "type": "string"
            },
            {
              "internalType": "string",
              "name": "source",
              "type": "string"
            },
            {
              "internalType": "string[]",
              "name": "expectedArgs",
              "type": "string[]"
            },
            {
              "internalType": "enum Functions.Location",
              "name": "codeLocation",
              "type": "uint8"
            },
            {
              "internalType": "enum Functions.Location",
              "name": "secretsLocation",
              "type": "uint8"
            },
            {
              "internalType": "enum Functions.CodeLanguage",
              "name": "language",
              "type": "uint8"
            },
            {
              "internalType": "bytes32",
              "name": "category",
              "type": "bytes32"
            },
            {
              "internalType": "uint64",
              "name": "subId",
              "type": "uint64"
            },
            {
              "internalType": "bytes",
              "name": "secrets",
              "type": "bytes"
            }
          ],
          "internalType": "struct FunctionsManager.FunctionsRegisterRequest",
          "name": "request",
          "type": "tuple"
        },
        {
          "internalType": "address",
          "name": "owner",
          "type": "address"
        }
      ],
      "name": "calculateFunctionIdFromRequest",
      "outputs": [
        {
          "internalType": "bytes32",
          "name": "",
          "type": "bytes32"
        }
      ],
      "stateMutability": "pure",
      "type": "function"
    },
    {
      "inputs": [
        {
          "components": [
            {
              "internalType": "enum Functions.Location",
              "name": "codeLocation",
              "type": "uint8"
            },
            {
              "internalType": "enum Functions.Location",
              "name": "secretsLocation",
              "type": "uint8"
            },
            {
              "internalType": "enum Functions.CodeLanguage",
              "name": "language",
              "type": "uint8"
            },
            {
              "internalType": "string",
              "name": "source",
              "type": "string"
            },
            {
              "internalType": "bytes",
              "name": "secrets",
              "type": "bytes"
            },
            {
              "internalType": "string[]",
              "name": "args",
              "type": "string[]"
            }
          ],
          "internalType": "struct Functions.Request",
          "name": "req",
          "type": "tuple"
        },
        {
          "internalType": "uint64",
          "name": "subscriptionId",
          "type": "uint64"
        },
        {
          "internalType": "uint32",
          "name": "gasLimit",
          "type": "uint32"
        },
        {
          "internalType": "uint256",
          "name": "gasPrice",
          "type": "uint256"
        }
      ],
      "name": "estimateCost",
      "outputs": [
        {
          "internalType": "uint96",
          "name": "",
          "type": "uint96"
        }
      ],
      "stateMutability": "view",
      "type": "function"
    },
    {
      "inputs": [
        {
          "internalType": "bytes32",
          "name": "functionId",
          "type": "bytes32"
        },
        {
          "internalType": "string[]",
          "name": "args",
          "type": "string[]"
        },
        {
          "internalType": "uint32",
          "name": "gasLimit",
          "type": "uint32"
        }
      ],
      "name": "executeRequest",
      "outputs": [
        {
          "internalType": "bytes32",
          "name": "",
          "type": "bytes32"
        }
      ],
      "stateMutability": "nonpayable",
      "type": "function"
    },
    {
      "inputs": [],
      "name": "feeManagerCut",
      "outputs": [
        {
          "internalType": "uint32",
          "name": "",
          "type": "uint32"
        }
      ],
      "stateMutability": "view",
      "type": "function"
    },
    {
      "inputs": [
        {
          "internalType": "bytes32",
          "name": "functionId",
          "type": "bytes32"
        }
      ],
      "name": "forceUnlockFees",
      "outputs": [],
      "stateMutability": "nonpayable",
      "type": "function"
    },
    {
      "inputs": [
        {
          "internalType": "bytes32",
          "name": "",
          "type": "bytes32"
        }
      ],
      "name": "functionExecuteMetadatas",
      "outputs": [
        {
          "internalType": "address",
          "name": "owner",
          "type": "address"
        },
        {
          "internalType": "uint64",
          "name": "subId",
          "type": "uint64"
        },
        {
          "internalType": "uint96",
          "name": "fee",
          "type": "uint96"
        },
        {
          "internalType": "uint96",
          "name": "unlockedProfitPool",
          "type": "uint96"
        },
        {
          "internalType": "uint64",
          "name": "functionsCalledCount",
          "type": "uint64"
        },
        {
          "internalType": "uint96",
          "name": "lockedProfitPool",
          "type": "uint96"
        },
        {
          "internalType": "uint96",
          "name": "totalFeesCollected",
          "type": "uint96"
        },
        {
          "internalType": "uint64",
          "name": "successfulResponseCount",
          "type": "uint64"
        },
        {
          "internalType": "uint64",
          "name": "failedResponseCount",
          "type": "uint64"
        }
      ],
      "stateMutability": "view",
      "type": "function"
    },
    {
      "inputs": [],
      "name": "functionManagerProfitPool",
      "outputs": [
        {
          "internalType": "uint96",
          "name": "",
          "type": "uint96"
        }
      ],
      "stateMutability": "view",
      "type": "function"
    },
    {
      "inputs": [
        {
          "internalType": "bytes32",
          "name": "",
          "type": "bytes32"
        }
      ],
      "name": "functionMetadatas",
      "outputs": [
        {
          "internalType": "address",
          "name": "owner",
          "type": "address"
        },
        {
          "internalType": "string",
          "name": "name",
          "type": "string"
        },
        {
          "internalType": "string",
          "name": "desc",
          "type": "string"
        },
        {
          "internalType": "string",
          "name": "imageUrl",
          "type": "string"
        },
        {
          "internalType": "bytes32",
          "name": "category",
          "type": "bytes32"
        }
      ],
      "stateMutability": "view",
      "type": "function"
    },
    {
      "inputs": [
        {
          "internalType": "bytes32",
          "name": "",
          "type": "bytes32"
        }
      ],
      "name": "functionResponses",
      "outputs": [
        {
          "internalType": "bytes32",
          "name": "functionId",
          "type": "bytes32"
        },
        {
          "internalType": "address",
          "name": "caller",
          "type": "address"
        },
        {
          "internalType": "bytes32",
          "name": "callbackFunction",
          "type": "bytes32"
        },
        {
          "internalType": "bytes",
          "name": "response",
          "type": "bytes"
        },
        {
          "internalType": "bytes",
          "name": "err",
          "type": "bytes"
        }
      ],
      "stateMutability": "view",
      "type": "function"
    },
    {
      "inputs": [],
      "name": "functionsCalledCount",
      "outputs": [
        {
          "internalType": "uint96",
          "name": "",
          "type": "uint96"
        }
      ],
      "stateMutability": "view",
      "type": "function"
    },
    {
      "inputs": [],
      "name": "functionsRegisteredCount",
      "outputs": [
        {
          "internalType": "uint64",
          "name": "",
          "type": "uint64"
        }
      ],
      "stateMutability": "view",
      "type": "function"
    },
    {
      "inputs": [],
      "name": "getDONPublicKey",
      "outputs": [
        {
          "internalType": "bytes",
          "name": "",
          "type": "bytes"
        }
      ],
      "stateMutability": "view",
      "type": "function"
    },
    {
      "inputs": [
        {
          "internalType": "bytes32",
          "name": "_functionId",
          "type": "bytes32"
        }
      ],
      "name": "getFunctionExecuteMetadata",
      "outputs": [
        {
          "components": [
            {
              "internalType": "address",
              "name": "owner",
              "type": "address"
            },
            {
              "internalType": "uint64",
              "name": "subId",
              "type": "uint64"
            },
            {
              "internalType": "uint96",
              "name": "fee",
              "type": "uint96"
            },
            {
              "internalType": "uint96",
              "name": "unlockedProfitPool",
              "type": "uint96"
            },
            {
              "internalType": "uint64",
              "name": "functionsCalledCount",
              "type": "uint64"
            },
            {
              "internalType": "uint96",
              "name": "lockedProfitPool",
              "type": "uint96"
            },
            {
              "internalType": "uint96",
              "name": "totalFeesCollected",
              "type": "uint96"
            },
            {
              "internalType": "uint64",
              "name": "successfulResponseCount",
              "type": "uint64"
            },
            {
              "internalType": "uint64",
              "name": "failedResponseCount",
              "type": "uint64"
            }
          ],
          "internalType": "struct FunctionsManager.FunctionExecuteMetadata",
          "name": "",
          "type": "tuple"
        }
      ],
      "stateMutability": "view",
      "type": "function"
    },
    {
      "inputs": [
        {
          "internalType": "bytes32",
          "name": "_functionId",
          "type": "bytes32"
        }
      ],
      "name": "getFunctionMetadata",
      "outputs": [
        {
          "components": [
            {
              "internalType": "address",
              "name": "owner",
              "type": "address"
            },
            {
              "internalType": "string",
              "name": "name",
              "type": "string"
            },
            {
              "internalType": "string",
              "name": "desc",
              "type": "string"
            },
            {
              "internalType": "string",
              "name": "imageUrl",
              "type": "string"
            },
            {
              "internalType": "string[]",
              "name": "expectedArgs",
              "type": "string[]"
            },
            {
              "internalType": "bytes32",
              "name": "category",
              "type": "bytes32"
            }
          ],
          "internalType": "struct FunctionsManager.FunctionMetadata",
          "name": "",
          "type": "tuple"
        }
      ],
      "stateMutability": "view",
      "type": "function"
    },
    {
      "inputs": [
        {
          "internalType": "bytes32",
          "name": "_requestId",
          "type": "bytes32"
        }
      ],
      "name": "getFunctionResponse",
      "outputs": [
        {
          "components": [
            {
              "internalType": "bytes32",
              "name": "functionId",
              "type": "bytes32"
            },
            {
              "internalType": "address",
              "name": "caller",
              "type": "address"
            },
            {
              "internalType": "bytes32",
              "name": "callbackFunction",
              "type": "bytes32"
            },
            {
              "internalType": "bytes",
              "name": "response",
              "type": "bytes"
            },
            {
              "internalType": "bytes",
              "name": "err",
              "type": "bytes"
            }
          ],
          "internalType": "struct FunctionsManager.FunctionResponse",
          "name": "",
          "type": "tuple"
        }
      ],
      "stateMutability": "view",
      "type": "function"
    },
    {
      "inputs": [
        {
          "internalType": "uint64",
          "name": "_subscriptionId",
          "type": "uint64"
        }
      ],
      "name": "getSubscriptionBalance",
      "outputs": [
        {
          "internalType": "uint256",
          "name": "",
          "type": "uint256"
        }
      ],
      "stateMutability": "view",
      "type": "function"
    },
    {
      "inputs": [
        {
          "internalType": "bytes32",
          "name": "requestId",
          "type": "bytes32"
        },
        {
          "internalType": "bytes",
          "name": "response",
          "type": "bytes"
        },
        {
          "internalType": "bytes",
          "name": "err",
          "type": "bytes"
        }
      ],
      "name": "handleOracleFulfillment",
      "outputs": [],
      "stateMutability": "nonpayable",
      "type": "function"
    },
    {
      "inputs": [],
      "name": "minimumSubscriptionBalance",
      "outputs": [
        {
          "internalType": "uint96",
          "name": "",
          "type": "uint96"
        }
      ],
      "stateMutability": "view",
      "type": "function"
    },
    {
      "inputs": [],
      "name": "owner",
      "outputs": [
        {
          "internalType": "address",
          "name": "",
          "type": "address"
        }
      ],
      "stateMutability": "view",
      "type": "function"
    },
    {
      "inputs": [
        {
          "internalType": "uint64",
          "name": "_subscriptionId",
          "type": "uint64"
        }
      ],
      "name": "refillSubscription",
      "outputs": [],
      "stateMutability": "nonpayable",
      "type": "function"
    },
    {
      "inputs": [
        {
          "components": [
            {
              "internalType": "uint96",
              "name": "fees",
              "type": "uint96"
            },
            {
              "internalType": "string",
              "name": "functionName",
              "type": "string"
            },
            {
              "internalType": "string",
              "name": "desc",
              "type": "string"
            },
            {
              "internalType": "string",
              "name": "imageUrl",
              "type": "string"
            },
            {
              "internalType": "string",
              "name": "source",
              "type": "string"
            },
            {
              "internalType": "string[]",
              "name": "expectedArgs",
              "type": "string[]"
            },
            {
              "internalType": "enum Functions.Location",
              "name": "codeLocation",
              "type": "uint8"
            },
            {
              "internalType": "enum Functions.Location",
              "name": "secretsLocation",
              "type": "uint8"
            },
            {
              "internalType": "enum Functions.CodeLanguage",
              "name": "language",
              "type": "uint8"
            },
            {
              "internalType": "bytes32",
              "name": "category",
              "type": "bytes32"
            },
            {
              "internalType": "uint64",
              "name": "subId",
              "type": "uint64"
            },
            {
              "internalType": "bytes",
              "name": "secrets",
              "type": "bytes"
            }
          ],
          "internalType": "struct FunctionsManager.FunctionsRegisterRequest",
          "name": "request",
          "type": "tuple"
        }
      ],
      "name": "registerFunction",
      "outputs": [
        {
          "internalType": "bytes32",
          "name": "",
          "type": "bytes32"
        }
      ],
      "stateMutability": "payable",
      "type": "function"
    },
    {
      "inputs": [
        {
          "internalType": "uint96",
          "name": "_baseFee",
          "type": "uint96"
        }
      ],
      "name": "setBaseFee",
      "outputs": [],
      "stateMutability": "nonpayable",
      "type": "function"
    },
    {
      "inputs": [
        {
          "internalType": "uint32",
          "name": "_feeManagerCut",
          "type": "uint32"
        }
      ],
      "name": "setFeeManagerCut",
      "outputs": [],
      "stateMutability": "nonpayable",
      "type": "function"
    },
    {
      "inputs": [
        {
          "internalType": "uint96",
          "name": "_minimumSubBalance",
          "type": "uint96"
        }
      ],
      "name": "setMinimumSubscriptionBalance",
      "outputs": [],
      "stateMutability": "nonpayable",
      "type": "function"
    },
    {
      "inputs": [
        {
          "internalType": "uint64",
          "name": "",
          "type": "uint64"
        }
      ],
      "name": "subscriptionBalances",
      "outputs": [
        {
          "internalType": "uint96",
          "name": "",
          "type": "uint96"
        }
      ],
      "stateMutability": "view",
      "type": "function"
    },
    {
      "inputs": [],
      "name": "totalFeesCollected",
      "outputs": [
        {
          "internalType": "uint96",
          "name": "",
          "type": "uint96"
        }
      ],
      "stateMutability": "view",
      "type": "function"
    },
    {
      "inputs": [
        {
          "internalType": "address",
          "name": "to",
          "type": "address"
        }
      ],
      "name": "transferOwnership",
      "outputs": [],
      "stateMutability": "nonpayable",
      "type": "function"
    }
  ],
  "bytecode": "0x608034620001f557601f6200582538819003918201601f19168301916001600160401b03831184841017620001fa5780849260c094604052833981010312620001f5576200004d8162000210565b6200005b6020830162000210565b906200006a6040840162000210565b92620000796060820162000225565b60808201519263ffffffff841692838503620001f55760a06200009d910162000225565b600080546001600160a01b039889166001600160a01b03199182168117909255909790969195913315620001b057338860025416176002556064600e5496116200015157816fffffffff000000000000000000000000941688600b541617600b551686600c541617600c5560601b16916c01000000000000000000000000600160e01b03191690600160801b600160e01b039060801b161717600e5560a01b1617600d556040516155ea90816200023b8239f35b60405162461bcd60e51b815260206004820152603160248201527f466565206d616e6167657220637574206d757374206265206c6573732074686160448201527006e206f7220657175616c20746f2031303607c1b6064820152608490fd5b60405162461bcd60e51b815260206004820152601860248201527f43616e6e6f7420736574206f776e657220746f207a65726f00000000000000006044820152606490fd5b600080fd5b634e487b7160e01b600052604160045260246000fd5b51906001600160a01b0382168203620001f557565b51906001600160601b0382168203620001f55756fe6080604052600436101561001257600080fd5b60003560e01c80630ca76175146102175780631ac67b3414610212578063228764b21461020d578063257912f3146102085780634351077d14610203578063475a8b46146101fe5780634e011def146101f957806356fa1a2a146101f457806360c6d8ae146101ef5780636ef25c3a146101ea5780637587b1b2146101e557806379ba5097146101e05780637b0caaa2146101db5780637bcb334d146101d65780638913aa6d146101d15780638a328420146101cc5780638da5cb5b146101c7578063a1901523146101c2578063a36df5c2146101bd578063b6db95e0146101b8578063ba9c513f146101b3578063bdf47104146101ae578063be4f00cd146101a9578063d328a91e146101a4578063d4b391751461019f578063d5549c8a1461019a578063d7e6a96b14610195578063de76f05314610190578063e58e36501461018b578063f2fde38b14610186578063f3ba47eb146101815763f8454cd81461017c57600080fd5b612156565b61207c565b611fb5565b611a62565b61194e565b6118eb565b6118c4565b6117be565b6116d0565b611619565b6115f9565b611560565b6113ec565b611299565b61126f565b611248565b6111cf565b611124565b6110bf565b611085565b610fbb565b610f74565b610f21565b610f00565b610e8e565b610dce565b610c9f565b610bbb565b610b3e565b610a84565b610912565b61039b565b634e487b7160e01b600052604160045260246000fd5b60c081019081106001600160401b0382111761024d57604052565b61021c565b60a081019081106001600160401b0382111761024d57604052565b6001600160401b03811161024d57604052565b604081019081106001600160401b0382111761024d57604052565b606081019081106001600160401b0382111761024d57604052565b90601f801991011681019081106001600160401b0382111761024d57604052565b6040519061018082018281106001600160401b0382111761024d57604052565b6040519061030482610232565b565b6040519061012082018281106001600160401b0382111761024d57604052565b6001600160401b03811161024d57601f01601f191660200190565b92919261034d82610326565b9161035b60405193846102b6565b829481845281830111610378578281602093846000960137010152565b600080fd5b9080601f830112156103785781602061039893359101610341565b90565b34610378576060366003190112610378576001600160401b03600435602435828111610378576103cf90369060040161037d565b91604435908111610378576103e890369060040161037d565b916103f96103f4614577565b615364565b61040a336104056145b0565b615407565b6001600160a01b0392610440338561043961042d600c546001600160a01b031690565b6001600160a01b031690565b161461460f565b6104738461046b600161045d876000526006602052604060002090565b01546001600160a01b031690565b161515614680565b6104b86104b161042d6104a4610493876000526006602052604060002090565b546000526005602052604060002090565b546001600160a01b031690565b15156146f1565b6104c433610405614762565b6104e06104db846000526006602052604060002090565b613fd5565b9382606086015281608086015261050a85610505866000526006602052604060002090565b6137ed565b61052761052286516000526005602052604060002090565b61342a565b6105326103f46147c1565b61062661060561058f61057f61055260408601516001600160601b031690565b61057961057061056b600e5463ffffffff9060601c1690565b6147fa565b63ffffffff1690565b9061367b565b6001600160601b03606491160490565b6105bd60a085016105b0836105ab83516001600160601b031690565b61370b565b6001600160601b03169052565b6105de606085016105b0836105d983516001600160601b031690565b613660565b6105fa60c085016105b0836105d983516001600160601b031690565b600f5460a01c613660565b6001600160a01b036001600160a01b0319600f549260a01b16911617600f55565b82516107cb5761065960e0820161064c61064782516001600160401b031690565b612e4a565b6001600160401b03169052565b6106778161067288516000526005602052604060002090565b612b8f565b6106826103f461480f565b6106df61069a61042d600c546001600160a01b031690565b93600060208401956106b387516001600160401b031690565b90604051808096819463523e3b4b60e11b8352600483019190916001600160401b036020820193169052565b03915afa9485156107c6577f6968e95d7bc2605bb814d168859020d6e2f617bc615d1ae5aef0ce68af0d163195610780936000916107a3575b506001600160601b0361073c610730600d5460a01c90565b6001600160601b031690565b911610610785575b50875195604061076f61076160208c01516001600160a01b031690565b95516001600160a01b031690565b99015160405195869516998561486e565b0390a4005b5161079d906001600160401b0316613e68565b613e68565b38610744565b6107be913d8091833e6107b681836102b6565b810190612562565b505038610718565b612604565b6107e7610100820161064c61064782516001600160401b031690565b610659565b90600182811c9216801561081c575b602083101461080657565b634e487b7160e01b600052602260045260246000fd5b91607f16916107fb565b906040519182600082549261083a846107ec565b9081845260019485811690816000146108a75750600114610864575b5050610304925003836102b6565b9093915060005260209081600020936000915b81831061088f57505061030493508201013880610856565b85548884018501529485019487945091830191610877565b91505061030494506020925060ff191682840152151560051b8201013880610856565b60005b8381106108dd5750506000910152565b81810151838201526020016108cd565b90602091610906815180928185528580860191016108ca565b601f01601f1916010190565b3461037857602036600319011261037857600435600052600460205260406000206001600160a01b0381541661094a60018301610826565b916109a861095a60028301610826565b9161099a600561096c60038401610826565b9201549361098c604051978897885260a0602089015260a08801906108ed565b9086820360408801526108ed565b9084820360608601526108ed565b9060808301520390f35b6020918282526001600160a01b03815116838301526109df8382015160c0604085015260e08401906108ed565b610a126109fe604084015192601f1993848783030160608801526108ed565b6060840151838683030160808701526108ed565b608083015194828583030160a086015285519182815281810182808560051b8401019801946000925b858410610a56575050505050505060a060c091015191015290565b909192939495988580610a73838686600196030188528d516108ed565b9b0194019401929594939190610a3b565b3461037857602036600319011261037857610a9d61243a565b50610aa96103f4613f9c565b6004356000526004602052610b2f6040600020600560405191610acb83610232565b6001600160a01b038154168352610ae460018201610826565b6020840152610af560028201610826565b6040840152610b0660038201610826565b6060840152610b176004820161355d565b6080840152015460a0820152604051918291826109b2565b0390f35b600091031261037857565b34610378576000366003190112610378576020600d5460a01c604051908152f35b906103989160208152815160208201526001600160a01b036020830151166040820152604082015160608201526080610ba6606084015160a08385015260c08401906108ed565b9201519060a0601f19828503019101526108ed565b3461037857602036600319011261037857610bd46137c0565b50610c13604051610be481610280565b601381527f67657446756e6374696f6e526573706f6e7365000000000000000000000000006020820152615364565b6004356000526006602052610b2f6040600020610c70600460405192610c3884610252565b805484526001600160a01b03600182015416602085015260028101546040850152610c6560038201610826565b606085015201610826565b608082015260405191829182610b5f565b6001600160a01b0381160361037857565b6024359061030482610c81565b3461037857604036600319011261037857610d956020600435610cc181610c81565b60243590610ccd612277565b610d328282604051610cde8161029b565b603a81527f617070726f76696e672025732061732061207370656e646572206f66204c494e878201527f4b207769746820612076616c7565206f6620757020746f2025640000000000006040820152615549565b610d4761042d600b546001600160a01b031690565b9060006040518096819582947f095ea7b300000000000000000000000000000000000000000000000000000000845260048401602090939291936001600160a01b0360408201951681520152565b03925af180156107c657610da557005b610dc59060203d8111610dc7575b610dbd81836102b6565b810190612f22565b005b503d610db3565b3461037857602036600319011261037857600435600052600560205260406000208054610b2f6001830154610e12600360028601549501546001600160401b031690565b604080516001600160a01b03861681526001600160401b0360a096871c811660208301526001600160601b0385811693830193909352606085811c84168184015260c095861c6080840152888416978301979097529587901c909116838201529490911c60e08501529091166101008301528190610120820190565b34610378576040366003190112610378576004356001600160401b03808211610378573660238301121561037857816004013590811161037857366024828401011161037857610b2f91610ef0916024803592610eea84610c81565b01614023565b6040519081529081906020820190565b34610378576000366003190112610378576020600f5460a01c604051908152f35b346103785760003660031901126103785760206001600160601b03600e5460801c16604051908152f35b6001600160401b0381160361037857565b6024359061030482610f4b565b359061030482610f4b565b34610378576020366003190112610378576001600160401b03600435610f9981610f4b565b16600052600a60205260206001600160601b0360406000205416604051908152f35b3461037857600080600319360112611082576001600160a01b038060035416330361103e576002546001600160a01b0316600280546001600160a01b03191633179055906110146001600160a01b031960035416600355565b3391167f8be0079c531659141344cd1fd0a4f28419497f9722a3daafe3b4186f6b6457e08380a380f35b606460405162461bcd60e51b815260206004820152601660248201527f4d7573742062652070726f706f736564206f776e6572000000000000000000006044820152fd5b80fd5b3461037857600036600319011261037857602063ffffffff600e5460601c16604051908152f35b6044359063ffffffff8216820361037857565b34610378576060366003190112610378576024356001600160401b038082116103785736602383011215610378578160040135908111610378573660248260051b8401011161037857610b2f91610ef091602461111a6110ac565b9201600435613958565b34610378576020366003190112610378576001600160a01b0360043561114981610c81565b1660005260096020526111976040600020610b2f61116682610826565b916111a5611182600261117b60018501610826565b9301610826565b916040519586956060875260608701906108ed565b9085820360208701526108ed565b9083820360408501526108ed565b6001600160601b0381160361037857565b3590610304826111b3565b34610378576020366003190112610378577fcefd6167f8a328d10167fe2c462697369efecfa6db2373014c0b4489d2854e53602060043561120f816111b3565b611217612277565b600d546001600160a01b036001600160a01b03198360a01b16911617600d556001600160601b0360405191168152a1005b346103785760003660031901126103785760206001600160a01b0360025416604051908152f35b34610378576000366003190112610378576020600f546001600160601b036040519160401c168152f35b3461037857602036600319011261037857600435600052600660205260406000208054610b2f6001600160a01b03600184015416926113136002820154916112ef60046112e860038401610826565b9201610826565b9260405196879687526020870152604086015260a0606086015260a08501906108ed565b9083820360808501526108ed565b6001600160401b03811161024d5760051b60200190565b9291909261134584611321565b9161135360405193846102b6565b829480845260208094019060051b8301928284116103785780915b84831061137d57505050505050565b82356001600160401b03811161037857869161139c868493860161037d565b81520192019161136e565b9080601f830112156103785781602061039893359101611338565b6002111561037857565b3590610304826113c2565b6001111561037857565b3590610304826113d7565b34610378576003196040368201126103785760048035916001600160401b039081841161037857610180908436030112610378576114286102d7565b906114348484016111c4565b82526024840135818111610378576114519084369187010161037d565b60208301526044840135818111610378576114719084369187010161037d565b60408301526064840135818111610378576114919084369187010161037d565b60608301526084840135818111610378576114b19084369187010161037d565b608083015260a4840135818111610378576114d1908436918701016113a7565b60a08301526114e260c485016113cc565b60c08301526114f360e485016113cc565b60e083015261150561010485016113e1565b6101008301526101248401356101208301526115246101448501610f69565b61014083015261016484013590811161037857610b2f93610ef09361154c923692010161037d565b61016082015261155a610c92565b90614063565b346103785760203660031901126103785760043563ffffffff811690818103610378577f5df6c53187c7cfa2643679f49eee9fc8a62e23a074ed0b12f17b5635c25f721d916020916115b0612277565b7fffffffffffffffffffffffffffffffff00000000ffffffffffffffffffffffff6fffffffff000000000000000000000000600e549260601b16911617600e55604051908152a1005b3461037857602036600319011261037857610dc560043561079881610f4b565b34610378576020366003190112610378577f803bee7e92bbc6ae7a1551f9f4ed3e31a8ea8df32e93332f41b0028f1091f9c36020600435611659816111b3565b611661612277565b600e547fffffffff000000000000000000000000ffffffffffffffffffffffffffffffff7bffffffffffffffffffffffff000000000000000000000000000000008360801b16911617600e556001600160601b0360405191168152a1005b9060206103989281815201906108ed565b3461037857600080600319360112611082576004816001600160a01b03815416604051928380927fd328a91e0000000000000000000000000000000000000000000000000000000082525afa9081156107c6578291611738575b60405180610b2f84826116bf565b90503d8083833e61174981836102b6565b8101906020818303126117b6578051906001600160401b0382116117ba570181601f820112156117b65780519261177f84610326565b9261178d60405194856102b6565b848452602085840101116110825750610b2f926117b091602080850191016108ca565b3861172a565b8280fd5b8380fd5b3461037857600319608036820112610378576004356001600160401b03918282116103785760c0908236030112610378576117f76102f7565b611803826004016113cc565b8152611811602483016113cc565b6020820152611822604483016113e1565b6040820152606482013583811161037857611843906004369185010161037d565b6060820152608482013583811161037857611864906004369185010161037d565b608082015260a48201359283116103785761188b6118aa926004610b2f95369201016113a7565b60a0820152611898610f5c565b6118a06110ac565b90606435926141bc565b6040516001600160601b0390911681529081906020820190565b346103785760003660031901126103785760206001600160601b03600e5416604051908152f35b34610378576020366003190112610378576001600160401b0360043561191081610f4b565b610f9960405161191f81610280565b601681527f676574537562736372697074696f6e42616c616e6365000000000000000000006020820152615364565b3461037857602036600319011261037857611967612277565b600435600052600560205260406000206001600160a01b0381541615611a1e5780611a096002610dc59301916119c160016119a985546001600160601b031690565b9201916105d983546001600160601b039060601c1690565b7fffffffffffffffff000000000000000000000000ffffffffffffffffffffffff77ffffffffffffffffffffffff00000000000000000000000083549260601b169116179055565b80546bffffffffffffffffffffffff19169055565b606460405162461bcd60e51b815260206004820152601760248201527f46756e6374696f6e20646f6573206e6f742065786973740000000000000000006044820152fd5b6020600319818136011261037857600435916001600160401b03808411610378576101808460040193853603011261037857611a9d836122cf565b506024840190611ab9611ab083866122d9565b9050151561230b565b611ae2611ac683866122d9565b90611adc611ad2612356565b9133933691610341565b906154ce565b611aec82856122d9565b611b07611b15604096938751928391868301953391876123b5565b03601f1981018352826102b6565b519020946001600160a01b0392611b4484611b3d6104a48a6000526004602052604060002090565b16156123ef565b611b67611b6161042d6104a48a6000526005602052604060002090565b156123ef565b611b86611b7f611b7561243a565b33815296846122d9565b3691610341565b83860152611b9a611b7f60448a01846122d9565b86860152611bae611b7f60648a01846122d9565b6060860152611bca611bc360a48a018461246e565b3691611338565b608086015260a08501936101248901358552611be46124a3565b33815291611c03611bf4856122cf565b6001600160601b0316848a0152565b6101448a019080611c13836124f9565b16611e3257505050611c266103f46126fb565b611c3b61042d600b546001600160a01b031690565b86516370a0823160e01b815233600482015291908490839060249082905afa9889156107c657611ca9611d5495611c92610b2f9c611d3b96600091611e05575b50611c8b610730600d5460a01c90565b1115612743565b611c9a613096565b6001600160401b031690840152565b611cb16127b4565b93611ce5611cc160c4840161280c565b611cce6101048501612820565b611cde611b7f60848701866122d9565b91886140ab565b6001611cf360e4840161280c565b611cfc816127fd565b1480611ded575b611dcb575b5050611d2786611d228a6000526004602052604060002090565b612a51565b610672886000526005602052604060002090565b611d4f866000526007602052604060002090565b612db9565b5190837f12e4b4be5fe05eb0dff7a431e5ab13f8446aa6cf09a94b595e1d982a7ab02e51845180611d863395826109b2565b0390a4611dbd611da1610647600f546001600160401b031690565b6001600160401b03166001600160401b0319600f541617600f55565b519081529081906020820190565b611b7f611de091610164611de69401906122d9565b846140fa565b3880611d08565b50611dfc6101648301826122d9565b90501515611d03565b611e259150833d8511611e2b575b611e1d81836102b6565b810190612734565b38611c7b565b503d611e13565b611e5690611e45839c959697949c6124f9565b90611e4e612503565b9116906153ab565b611e6b61042d600c546001600160a01b031690565b996000611ea4611e7a846124f9565b8b5163523e3b4b60e11b81526001600160401b0390911660048201529c8d91829081906024820190565b03915afa9a8b156107c657600090819c611f96575b50163081149033146000915b8c51831015611f74578c611eed61042d611ee086309461263a565b516001600160a01b031690565b03611f5357506001915b8280611f4c575b611f1157611f0b90612626565b91611ec5565b50610b2f9b5092611c9a611d3b9593611f3a611f3f94611d549a99975b81611f44575b50612664565b6124f9565b611ca9565b905038611f34565b5081611efe565b918c611f6661042d611ee084339461263a565b03611ef75760019150611ef7565b610b2f9c50611f3f9250611d3b9593611f3a611c9a92611d549a999794611f2e565b90611fac929c503d8091833e6107b681836102b6565b9b915038611eb9565b34610378576020366003190112610378576001600160a01b03600435611fda81610c81565b611fe2612277565b1633811461203857806001600160a01b0319600354161760035561201161042d6002546001600160a01b031690565b7fed8889f560326eb138920d842192f0eb3dd22b4f139c87a2c57538e05bae1278600080a3005b606460405162461bcd60e51b815260206004820152601760248201527f43616e6e6f74207472616e7366657220746f2073656c660000000000000000006044820152fd5b346103785760003660031901126103785760206001600160401b03600f5416604051908152f35b81516001600160a01b031681526020808301516001600160401b0316908201526040808301516001600160601b0316908201526101208101929161030491906060818101516001600160601b0316908301526080818101516001600160401b03169083015260a0818101516001600160601b03169083015260c0818101516001600160601b03169083015260e0818101516001600160401b031690830152610100908101516001600160401b0316910152565b346103785760203660031901126103785761216f6124a3565b5061217b6103f4613f9c565b6004356000526005602052610b2f604060002061226b61225a600361219e610306565b936121de6001600160401b0382546121c86001600160a01b03821689906001600160a01b03169052565b60a01c1660208701906001600160401b03169052565b60018101546001600160601b038082166040880152606082811c82169088015261224c916122109060c01c6080890152565b60028301546001600160601b038282161660a089015290612242908260601c1660c08901906001600160601b03169052565b60c01c60e0870152565b01546001600160401b031690565b6001600160401b0316610100830152565b604051918291826120a3565b6001600160a01b0360025416330361228b57565b606460405162461bcd60e51b815260206004820152601660248201527f4f6e6c792063616c6c61626c65206279206f776e6572000000000000000000006044820152fd5b35610398816111b3565b903590601e198136030182121561037857018035906001600160401b0382116103785760200191813603831361037857565b1561231257565b606460405162461bcd60e51b815260206004820152601d60248201527f46756e6374696f6e206e616d652063616e6e6f7420626520656d7074790000006044820152fd5b604051906123638261029b565b602482527f72202573000000000000000000000000000000000000000000000000000000006040837f726567697374657246756e6374696f6e2c206e616d653a2025732073656e646560208201520152565b916060816001600160a01b039260209497969760408752816040880152838701376000828287010152601f80199101168401019416910152565b156123f657565b606460405162461bcd60e51b815260206004820152601760248201527f46756e6374696f6e20616c7265616479206578697374730000000000000000006044820152fd5b6040519061244782610232565b600060a0838281526060602082015260606040820152606080820152606060808201520152565b903590601e198136030182121561037857018035906001600160401b03821161037857602001918160051b3603831361037857565b6040519061012082018281106001600160401b0382111761024d57604052816101006000918281528260208201528260408201528260608201528260808201528260a08201528260c08201528260e08201520152565b3561039881610f4b565b604051906125108261029b565b603682527f636865636b696e6720696620617574686f72697a6564000000000000000000006040837f7573696e67206578697374696e6720737562736372697074696f6e2025642c2060208201520152565b9091606082840312610378578151612579816111b3565b9260208084015161258981610c81565b936040810151906001600160401b03821161037857019180601f840112156103785782516125b681611321565b936125c460405195866102b6565b818552838086019260051b820101928311610378578301905b8282106125eb575050505090565b83809183516125f981610c81565b8152019101906125dd565b6040513d6000823e3d90fd5b634e487b7160e01b600052601160045260246000fd5b60001981146126355760010190565b612610565b805182101561264e5760209160051b010190565b634e487b7160e01b600052603260045260246000fd5b1561266b57565b60a460405162461bcd60e51b815260206004820152604f60248201527f46756e6374696f6e734d616e6167657220616e642f6f722063616c6c6572206160448201527f7265206e6f7420617574686f72697a656420636f6e73756d657273206f66207460648201527f686520737562736372697074696f6e00000000000000000000000000000000006084820152fd5b6040519061270882610280565b601982527f6372656174696e67206e657720737562736372697074696f6e000000000000006020830152565b90816020910312610378575190565b1561274a57565b608460405162461bcd60e51b815260206004820152602e60248201527f496e73756666696369656e74204c494e4b2062616c616e636520746f2066756e60448201527f6420737562736372697074696f6e0000000000000000000000000000000000006064820152fd5b604051906127c182610232565b606060a08360008152600060208201526000604082015282808201528260808201520152565b634e487b7160e01b600052602160045260246000fd5b6002111561280757565b6127e7565b35610398816113c2565b6001111561280757565b35610398816113d7565b818110612835575050565b6000815560010161282a565b9190601f811161285057505050565b610304926000526020600020906020601f840160051c8301931061287c575b601f0160051c019061282a565b909150819061286f565b91909182516001600160401b03811161024d576128ad816128a784546107ec565b84612841565b602080601f83116001146128e95750819293946000926128de575b50508160011b916000199060031b1c1916179055565b0151905038806128c8565b90601f198316956128ff85600052602060002090565b926000905b88821061293c57505083600195969710612923575b505050811b019055565b015160001960f88460031b161c19169055388080612919565b80600185968294968601518155019501930190612904565b908160011b918083046002149015171561263557565b81519168010000000000000000831161024d5781548383558084106129cd575b5061299f602080920192600052602060002090565b6000925b8484106129b1575050505050565b600183826129c183945186612886565b019201930192906129a3565b6000838152846020822092830192015b8281106129eb57505061298a565b806129f8600192546107ec565b80612a05575b50016129dd565b601f908181118414612a1d5750508281555b386129fe565b83612a3f92612a3185600052602060002090565b920160051c8201910161282a565b60008181526020812081835555612a17565b815181546001600160a01b0319166001600160a01b039190911617815590600190818301602080830151938451916001600160401b03831161024d57612aa183612a9b86546107ec565b86612841565b80601f8411600114612b1957509180809260a0969594600598600094612b0e575b50501b916000199060031b1c19161790555b612ae5604082015160028601612886565b612af6606082015160038601612886565b612b0760808201516004860161296a565b0151910155565b015192503880612ac2565b91939495601f198416612b3187600052602060002090565b936000905b828210612b78575050916005979593918560a098969410612b5f575b505050811b019055612ad4565b015160001960f88460031b161c19169055388080612b52565b808886978294978701518155019601940190612b36565b6003612d7b61010061030494612bcb612baf82516001600160a01b031690565b86906001600160a01b03166001600160a01b0319825416179055565b612c2f612be260208301516001600160401b031690565b86547fffffffff0000000000000000ffffffffffffffffffffffffffffffffffffffff1660a09190911b7bffffffffffffffff000000000000000000000000000000000000000016178655565b612d2560018601612c6e612c4d60408501516001600160601b031690565b82546bffffffffffffffffffffffff19166001600160601b03909116178255565b612cce612c8560608501516001600160601b031690565b82547fffffffffffffffff000000000000000000000000ffffffffffffffffffffffff1660609190911b77ffffffffffffffffffffffff00000000000000000000000016178255565b60808301516001600160401b03165b77ffffffffffffffffffffffffffffffffffffffffffffffff7fffffffffffffffff00000000000000000000000000000000000000000000000083549260c01b169116179055565b612d6d60028601612d43612c4d60a08501516001600160601b031690565b612d5a612c8560c08501516001600160601b031690565b60e08301516001600160401b0316612cdd565b01516001600160401b031690565b9101906001600160401b03166001600160401b0319825416179055565b9060018110156128075762ff000082549160101b169062ff00001916179055565b81519160028310156128075760ff82549316908160ff198516178355602081015190612de4826127fd565b6002821015612807576103049460039361ff0060a09460081b169161ffff191617178455612e1f6040820151612e1981612816565b85612d98565b612e30606082015160018601612886565b612e41608082015160028601612886565b0151910161296a565b6001600160401b038091169081146126355760010190565b90816020910312610378575161039881610f4b565b60405190612e8482610280565b601f82527f6372656174656420737562736372697074696f6e2077697468206964202564006020830152565b60405190612ebd82610280565b601582527f616464696e6720257320617320636f6e73756d657200000000000000000000006020830152565b60405190612ef682610280565b601982527f73656e646572202573204c494e4b2062616c616e6365202564000000000000006020830152565b90816020910312610378575180151581036103785790565b15612f4157565b60a460405162461bcd60e51b815260206004820152604860248201527f4661696c656420746f207472616e73666572204c494e4b20746f20746865204660448201527f756e6374696f6e204d616e6167657220746f2066756e6420746865207375627360648201527f6372697074696f6e0000000000000000000000000000000000000000000000006084820152fd5b6001600160601b0361039894936001600160a01b0360609416835216602082015281604082015201906108ed565b1561300657565b60a460405162461bcd60e51b815260206004820152604460248201527f4661696c656420746f207472616e73666572204c494e4b20746f2042696c6c6960448201527f6e6720526567697374727920746f2066756e642074686520737562736372697060648201527f74696f6e000000000000000000000000000000000000000000000000000000006084820152fd5b6130ab61042d600c546001600160a01b031690565b6040908151917fa21a23e40000000000000000000000000000000000000000000000000000000083526020908184600481600080975af19384156107c657839461339c575b5061310c6130fc612e77565b6001600160401b038616906153ab565b61311830610405612eb0565b61312d61042d600c546001600160a01b031690565b803b156117ba5781517f7341c10c0000000000000000000000000000000000000000000000000000000081526001600160401b03861660048201523060248201529084908290604490829084905af180156107c657613383575b506131c4336131a9866001600160401b03166000526008602052604060002090565b906001600160a01b03166001600160a01b0319825416179055565b6131d961042d600b546001600160a01b031690565b81516370a0823160e01b81523360048201529091908381602481865afa80156107c657859361321d61326b9287948791613366575b5033613218612ee9565b615549565b600d5484517f23b872dd00000000000000000000000000000000000000000000000000000000815233600482015230602482015260a09190911c604482015294859283919082906064820190565b03925af19081156107c65761328c8492613310948791613349575b50612f3a565b6132a161042d600b546001600160a01b031690565b6132b661042d600c546001600160a01b031690565b866132c3600d5460a01c90565b918451946132f5866132e78d8a83019190916001600160401b036020820193169052565b03601f1981018852876102b6565b5196879586948593630200057560e51b855260048501612fd1565b03925af19182156107c657610398939261332c575b5050612fff565b6133429250803d10610dc757610dbd81836102b6565b3880613325565b6133609150843d8611610dc757610dbd81836102b6565b38613286565b61337d9150853d8711611e2b57611e1d81836102b6565b3861320e565b806133906133969261026d565b80610b33565b38613187565b6133bd919450823d84116133c4575b6133b581836102b6565b810190612e62565b92386130f0565b503d6133ab565b604051906133d88261029b565b602682527f696f6e49643a00000000000000000000000000000000000000000000000000006040837f65786563757465526571756573742063616c6c656420776974682066756e637460208201520152565b906103046134e9600361343b610306565b9461347b6001600160401b0382546134656001600160a01b0382168a906001600160a01b03169052565b60a01c1660208801906001600160401b03169052565b60018101546001600160601b038082166040890152606082811c82169089015261224c916134ad9060c01c60808a0152565b60028301546001600160601b038282161660a08a0152906134df908260601c1660c08a01906001600160601b03169052565b60c01c60e0880152565b6001600160401b0316610100840152565b1561350157565b606460405162461bcd60e51b815260206004820152601a60248201527f66756e6374696f6e206973206e6f7420726567697374657265640000000000006044820152fd5b60028210156128075752565b60018210156128075752565b90815461356981611321565b9261357760405194856102b6565b818452600090815260208082208186015b848410613596575050505050565b60018381926135a485610826565b815201920193019290613588565b906040516135bf81610232565b60a0613622600383956135fa60ff82546135db82821689613545565b6135ed828260081c1660208a01613545565b60101c1660408701613551565b61360660018201610826565b606086015261361760028201610826565b60808601520161355d565b910152565b6040519061363482610280565b601b82527f636f6c6c656374696e6720616e64206c6f636b696e67206665657300000000006020830152565b9190916001600160601b038080941691160191821161263557565b9190916001600160601b038080941691160291821691820361263557565b604051906136a682610280565b601482527f5472616e7366657272696e67202564204c494e4b0000000000000000000000006020830152565b604051906136df82610280565b601c82527f726573657276656420737562736372697074696f6e20666565202564000000006020830152565b6001600160601b03918216908216039190821161263557565b6001600160601b038091169081146126355760010190565b6040519061374982610280565b601982527f73656e64696e672066756e6374696f6e732072657175657374000000000000006020830152565b1561377c57565b606460405162461bcd60e51b815260206004820152601960248201527f5265717565737420494420616c726561647920657869737473000000000000006044820152fd5b604051906137cd82610252565b606060808360008152600060208201526000604082015282808201520152565b815181556020916001600160a01b03838201511692613826600194858501906001600160a01b03166001600160a01b0319825416179055565b6040820151600284015560038301906060830151948551916001600160401b03831161024d5761385a83612a9b86546107ec565b80601f84116001146138a4575091808060809593600497956103049a600094613899575b50501b916000199060031b1c19161790555b01519101612886565b01519250388061387e565b9193949596601f1984166138bd87600052602060002090565b936000905b828210613908575050926080959285926103049a999660049996106138ef575b505050811b019055613890565b015160001960f88460031b161c191690553880806138e2565b8088869782949787015181550196019401906138c2565b6040519061392c82610280565b601d82527f656d697474696e672046756e6374696f6e43616c6c6564206576656e740000006020830152565b92906139656103f46133cb565b61396e84615309565b613985610522856000526005602052604060002090565b926139aa6001600160a01b036139a286516001600160a01b031690565b1615156134fa565b6139c66139c1866000526007602052604060002090565b6135b2565b9080613dec575b5050506139db6103f4613627565b600e54613a076139f560408501516001600160601b031690565b6001600160601b038360801c16613660565b90613a1c60208501516001600160401b031690565b613a4661057f613a3660408801516001600160601b031690565b63ffffffff8560601c169061367b565b90613a5c61042d600b546001600160a01b031690565b6040516370a0823160e01b81523360048201529390602090859060249082905afa80156107c6576001600160601b03613b10613b4094613abe613ba199613ab5613b2696613b889b600091613dd3575033613218612ee9565b84611e4e613699565b613af7613aee613ae1836001600160401b0316600052600a602052604060002090565b546001600160601b031690565b84611e4e6136d2565b6001600160401b0316600052600a602052604060002090565b9260801c166105d983546001600160601b031690565b6001600160601b03166001600160601b0319825416179055565b613b75613b59826105d9600e546001600160601b031690565b6001600160601b03166001600160601b0319600e541617600e55565b60408501516001600160601b031661370b565b6105b060a08501916105d983516001600160601b031690565b613bbc6080830161064c61064782516001600160401b031690565b613c23613bdd613bd8600f546001600160601b039060401c1690565b613724565b7fffffffffffffffffffffffff000000000000000000000000ffffffffffffffff73ffffffffffffffffffffffff0000000000000000600f549260401b16911617600f55565b613c3b82610672856000526005602052604060002090565b613c466103f461373c565b611b07613ce2613c6060208501516001600160401b031690565b604051928391602083019542913388927fffffffffffffffff000000000000000000000000000000000000000000000000604095937fffffffff00000000000000000000000000000000000000000000000000000000936001600160601b03199060601b16865260c01b16601485015260e01b16601c83015260208201520190565b5190208092613d05613cfe836000526006602052604060002090565b5415613775565b613d2d613d106137c0565b828152336020820152610505846000526006602052604060002090565b613d386103f461391f565b7feb98a4358e79cd01f5b134f72406251bd2a7b8667fd337212737d07697d4b9fc613d6a84516001600160a01b031690565b93613d956040613d86600e546001600160601b039060801c1690565b9201516001600160601b031690565b604080516001600160a01b03979097168752600060208801819052908701526001600160601b039182166060870152166080850152339360a090a490565b61337d915060203d602011611e2b57611e1d81836102b6565b613e0192613dfb913691611338565b90614138565b3880806139cd565b60405190613e168261029b565b603782527f6c6c20617661696c61626c652062616c616e63652025640000000000000000006040837f526566696c6c696e6720737562736372697074696f6e2025642077697468206160208201520152565b6020613f46613f7192613eb7613e94613ae1836001600160401b0316600052600a602052604060002090565b6001600160601b03613ea4613e09565b9116906001600160401b0384169061546c565b613ed7613ae1826001600160401b0316600052600a602052604060002090565b613ef7611a09836001600160401b0316600052600a602052604060002090565b6000613f0e61042d600b546001600160a01b031690565b92613f54613f2761042d600c546001600160a01b031690565b916040519687918983019190916001600160401b036020820193169052565b03601f1981018752866102b6565b60405196879586948593630200057560e51b855260048501612fd1565b03925af180156107c657613f825750565b613f999060203d8111610dc757610dbd81836102b6565b50565b60405190613fa982610280565b600b82527f67657446756e6374696f6e0000000000000000000000000000000000000000006020830152565b90604051613fe281610252565b608061362260048395805485526001600160a01b0360018201541660208601526002810154604086015261401860038201610826565b606086015201610826565b9190603461405d9160405193818592602084019788378201906001600160601b03199060601b1660208201520360148101845201826102b6565b51902090565b602001519061405d60346040518093602061408781840197888151938492016108ca565b8201906001600160601b03199060601b1660208201520360148101845201826102b6565b908351156140d0576060926140c36140cc9284613545565b60408301613551565b0152565b60046040517f22ce3edd000000000000000000000000000000000000000000000000000000008152fd5b81511561410e576001602082015260800152565b60046040517fe889636f000000000000000000000000000000000000000000000000000000008152fd5b8151156141455760a00152565b60046040517ffe936cb7000000000000000000000000000000000000000000000000000000008152fd5b908160209103126103785751610398816111b3565b906141b16060936001600160401b0363ffffffff93989796981684526080602085015260808401906108ed565b951660408201520152565b91906001600160a01b0360005416906141d3614401565b6141dd81516148d8565b506141ef6141e9614421565b82614fca565b61420c85516141fd816127fd565b614206816127fd565b82614957565b6142176141e961445a565b614231604086015161422881612816565b61420681612816565b61423c6141e9614493565b61424a606086015182614fca565b60a0850180515161437b575b5060808501948551516142e3575b50602094505151906142a5604051968795869485947fd227d24500000000000000000000000000000000000000000000000000000000865260048601614184565b03915afa9081156107c6576000916142bb575090565b610398915060203d81116142dc575b6142d481836102b6565b81019061416f565b503d6142ca565b60200180516142f1816127fd565b6142fa816127fd565b156143515760209561433361434b9261431a614314614505565b86614fca565b51614324816127fd565b61432d816127fd565b84614957565b61434461433e61453e565b84614fca565b5182614f18565b38614264565b60046040517fa80d31f7000000000000000000000000000000000000000000000000000000008152fd5b959261439561438f989592989693966144cc565b89614fca565b61439e8861504e565b60005b875180518210156143ce57906143c46143bd826143c99461263a565b518b614fca565b612626565b6143a1565b505092955092959390936143e1816150da565b38614256565b604051906143f482610280565b6000602083606081520152565b6040519061440e82610280565b600060208361441b6143e7565b81520152565b6040519061442e82610280565b600c82527f636f64654c6f636174696f6e00000000000000000000000000000000000000006020830152565b6040519061446782610280565b600882527f6c616e67756167650000000000000000000000000000000000000000000000006020830152565b604051906144a082610280565b600682527f736f7572636500000000000000000000000000000000000000000000000000006020830152565b604051906144d982610280565b600482527f61726773000000000000000000000000000000000000000000000000000000006020830152565b6040519061451282610280565b600f82527f736563726574734c6f636174696f6e00000000000000000000000000000000006020830152565b6040519061454b82610280565b600782527f73656372657473000000000000000000000000000000000000000000000000006020830152565b6040519061458482610280565b601282527f66756c66696c6c696e67207265717565737400000000000000000000000000006020830152565b604051906145bd8261029b565b603382527f63616c6c2066756c66696c6c52657175657374000000000000000000000000006040837f436865636b696e6720696620257320697320617574686f72697a656420746f2060208201520152565b1561461657565b608460405162461bcd60e51b815260206004820152603260248201527f4f6e6c7920746865202042696c6c696e672052656769737472792063616e206360448201527f616c6c2066756c66696c6c5265717565737400000000000000000000000000006064820152fd5b1561468757565b608460405162461bcd60e51b815260206004820152602560248201527f52657175657374206e6f7420666f756e6420696e2046756e6374696f6e734d6160448201527f6e616765720000000000000000000000000000000000000000000000000000006064820152fd5b156146f857565b608460405162461bcd60e51b815260206004820152602660248201527f46756e6374696f6e206e6f7420666f756e6420696e2046756e6374696f6e734d60448201527f616e6167657200000000000000000000000000000000000000000000000000006064820152fd5b6040519061476f8261029b565b603582527f63616c6c20746869732066756e6374696f6e2e2e2e00000000000000000000006040837f436865636b696e6720697320257320697320617574686f72697a656420746f2060208201520152565b604051906147ce82610280565b600e82527f556e6c6f636b696e6720666565730000000000000000000000000000000000006020830152565b9063ffffffff80921660640391821161263557565b6040519061481c8261029b565b603b82527f67206966206e6565642066696c6c20737562736372697074696f6e00000000006040837f46696e697368656420756e6c6f636b696e6720666565732c20636865636b696e60208201520152565b9261039894926001600160a01b036148a09316855260208501526000604085015260a0606085015260a08401906108ed565b9160808184039101526108ed565b601f1981019190821161263557565b906020820180921161263557565b9190820180921161263557565b6148e06143e7565b5061010060208201526040518082526000815261012081019081106103785760405290565b9061490e6143e7565b50601f81168061493d575b50806020830152604051908183526000825281016020019081106103785760405290565b602003602081116126355781018091116126355738614919565b908151916149636143e7565b5082515160018101908181116126355760208501518110156149bc575b60c2602061030496519283010153805182116149b4575b5050604051916020830152602082526149af82610280565b614f18565b523880614997565b8160011b9482860460021483151715612635576020816149ee610304986149e760c295519184614905565b5082614e60565b5096505050614980565b614a006143e7565b508051516001810190818111612635576020830151811015614a39575b605b60208451928301015380518211614a3557505090565b5290565b8160011b8281046002148315171561263557614a6290614a5b85519186614905565b5084614e60565b50614a1d565b614a706143e7565b508051516001810190818111612635576020830151811015614aa5575b605a60208451928301015380518211614a3557505090565b8160011b8281046002148315171561263557614ac790614a5b85519186614905565b50614a8d565b614ad56143e7565b508051516001810190818111612635576020830151811015614b0a575b605960208451928301015380518211614a3557505090565b8160011b8281046002148315171561263557614b2c90614a5b85519186614905565b50614af2565b614b3a6143e7565b508051516001810190818111612635576020830151811015614b6f575b605860208451928301015380518211614a3557505090565b8160011b8281046002148315171561263557614b9190614a5b85519186614905565b50614b57565b614b9f6143e7565b508051516001810190818111612635576020830151811015614bd4575b607b60208451928301015380518211614a3557505090565b8160011b8281046002148315171561263557614bf690614a5b85519186614905565b50614bbc565b614c046143e7565b508051516001810190818111612635576020830151811015614c39575b607a60208451928301015380518211614a3557505090565b8160011b8281046002148315171561263557614c5b90614a5b85519186614905565b50614c21565b614c696143e7565b508051516001810190818111612635576020830151811015614c9e575b607960208451928301015380518211614a3557505090565b8160011b8281046002148315171561263557614cc090614a5b85519186614905565b50614c86565b614cce6143e7565b508051516001810190818111612635576020830151811015614d03575b607860208451928301015380518211614a3557505090565b8160011b8281046002148315171561263557614d2590614a5b85519186614905565b50614ceb565b90614d346143e7565b508151516001810191828211612635576020840151821015614d67575b60208451928301015380518211614a3557505090565b8260011b8381046002148415171561263557614d9090614d8986519187614905565b5085614e60565b50614d51565b90614da382519183614905565b50614dac6143e7565b50805190614db86143e7565b50614dc68151831115614f11565b82515192614dd483856148cb565b916020928284809401518211614e49575b5183815197820101968211614e41575b505001915b81811015614e1b5760001991036101000a0190811990511690825116179052565b9192614e36614e30614e3c92865181526148bd565b946148bd565b926148ae565b614dfa565b523880614df5565b614e5b614e5583612954565b82614d96565b614de5565b90614e696143e7565b508051614e746143e7565b50614e828251821115614f11565b82515191614e9082846148cb565b6020918291828701518111614efa575b865183815197820101968211614ef2575b505001915b81811015614ed85760001991036101000a019081199051169082511617905290565b9192614e36614e30614eed92865181526148bd565b614eb6565b523880614eb1565b614f0c614f0682612954565b88614d96565b614ea0565b1561037857565b8151613f999291906001600160401b0381169060178211614f4f57614f479150604060ff845192161790614d2b565b505b51614e60565b5060ff8111614f7457614f6e90614f668351614b32565b5082516152a3565b50614f49565b61ffff8111614f9357614f6e90614f8b8351614acd565b50825161523c565b63ffffffff8111614fb457614f6e90614fac8351614a68565b5082516151d3565b614f6e90614fc283516149f8565b508251615167565b8151613f999291906001600160401b0381169060178211614ff957614f479150606060ff845192161790614d2b565b5060ff811161501057614f6e90614f668351614cc6565b61ffff811161502757614f6e90614f8b8351614c61565b63ffffffff811161504057614f6e90614fac8351614bfc565b614f6e90614fc28351614b97565b8051906150596143e7565b5081515160018101908181116126355760208401518110156150a7575b609f602080955192830101538051821161509f575b505001805190600182018092116126355752565b52388061508b565b8160011b9382850460021483151715612635576020816150d082976149e7609f95519184614905565b5095505050615076565b8051906150e56143e7565b508151516001810190818111612635576020840151811015615134575b60ff602080955192830101538051821161512c575b50500180516000198101919082116126355752565b523880615117565b8160011b93828504600214831517156126355760208161515d82976149e760ff95519184614905565b5095505050615102565b906151706143e7565b5081515180600801918260081161263557602084015183116151b2575b6008845192830101906001600160401b031982511617905280518211614a3557505090565b8260011b83810460021484151715612635576151ce9085614d96565b61518d565b906151dc6143e7565b50815151806004019182600411612635576020840151831161521b575b60048451928301019063ffffffff1982511617905280518211614a3557505090565b8260011b83810460021484151715612635576152379085614d96565b6151f9565b906152456143e7565b508151518060020191826002116126355760208401518311615282575b60028451928301019061ffff1982511617905280518211614a3557505090565b8260011b838104600214841517156126355761529e9085614d96565b615262565b906152ac6143e7565b5081515180600101918260011161263557602084015183116152e8575b60018451928301019060ff1982511617905280518211614a3557505090565b8260011b83810460021484151715612635576153049085614d96565b6152c9565b61030490604051907f27b7cf850000000000000000000000000000000000000000000000000000000060208301526024820152602481526153498161029b565b600080916020815191016a636f6e736f6c652e6c6f675afa50565b611b07615349610304926040519283917f41304fac0000000000000000000000000000000000000000000000000000000060208401526020602484015260448301906108ed565b6153496153f391610304936040519384927fb60e72cc0000000000000000000000000000000000000000000000000000000060208501526040602485015260648401906108ed565b90604483015203601f1981018352826102b6565b61534961545791610304936001600160a01b036040519485937f319af3330000000000000000000000000000000000000000000000000000000060208601526040602486015260648501906108ed565b9116604483015203601f1981018352826102b6565b615349906154b592610304946040519485937fca47c4eb0000000000000000000000000000000000000000000000000000000060208601526060602486015260848501906108ed565b916044840152606483015203601f1981018352826102b6565b61534990610304936001600160a01b03615534615522956040519687957f95ed01950000000000000000000000000000000000000000000000000000000060208801526060602488015260848701906108ed565b858103602319016044870152906108ed565b9116606483015203601f1981018352826102b6565b6153499061559a92610304946001600160a01b036040519586947f0d26b9250000000000000000000000000000000000000000000000000000000060208701526060602487015260848601906108ed565b92166044840152606483015203601f1981018352826102b656fea2646970667358221220382b5c59ed1ff93d895d964665673a18ebf3dd9c63c56bbe9d56538ae1eee5ef64736f6c63430008120033",
  "linkReferences": {},
  "deployedLinkReferences": {}
}