{
  "_format": "hh-sol-artifact-1",
  "contractName": "FunctionsManager",
  "sourceName": "contracts/FunctionsManager.sol",
  "abi": [
    {
      "inputs": [
        {
          "internalType": "address",
          "name": "_link",
          "type": "address"
        },
        {
          "internalType": "address",
          "name": "_billingRegistryProxy",
          "type": "address"
        },
        {
          "internalType": "address",
          "name": "_oracleProxy",
          "type": "address"
        },
        {
          "internalType": "uint32",
          "name": "_feeManagerCut",
          "type": "uint32"
        },
        {
          "internalType": "uint96",
          "name": "_minimumSubscriptionBalance",
          "type": "uint96"
        },
        {
          "internalType": "uint32",
          "name": "_maxGasLimit",
          "type": "uint32"
        }
      ],
      "stateMutability": "nonpayable",
      "type": "constructor"
    },
    {
      "inputs": [],
      "name": "EmptyArgs",
      "type": "error"
    },
    {
      "inputs": [],
      "name": "EmptySecrets",
      "type": "error"
    },
    {
      "inputs": [],
      "name": "EmptySource",
      "type": "error"
    },
    {
      "inputs": [],
      "name": "NoInlineSecrets",
      "type": "error"
    },
    {
      "inputs": [],
      "name": "RequestIsAlreadyPending",
      "type": "error"
    },
    {
      "inputs": [],
      "name": "RequestIsNotPending",
      "type": "error"
    },
    {
      "inputs": [],
      "name": "SenderIsNotRegistry",
      "type": "error"
    },
    {
      "anonymous": false,
      "inputs": [
        {
          "indexed": false,
          "internalType": "uint32",
          "name": "newFeeManagerCut",
          "type": "uint32"
        }
      ],
      "name": "FeeManagerCutUpdated",
      "type": "event"
    },
    {
      "anonymous": false,
      "inputs": [
        {
          "indexed": false,
          "internalType": "bytes32",
          "name": "requestId",
          "type": "bytes32"
        },
        {
          "indexed": false,
          "internalType": "bytes",
          "name": "response",
          "type": "bytes"
        },
        {
          "indexed": false,
          "internalType": "bytes",
          "name": "err",
          "type": "bytes"
        }
      ],
      "name": "FulfillRequest",
      "type": "event"
    },
    {
      "anonymous": false,
      "inputs": [
        {
          "indexed": true,
          "internalType": "bytes32",
          "name": "functionId",
          "type": "bytes32"
        },
        {
          "indexed": true,
          "internalType": "bytes32",
          "name": "requestId",
          "type": "bytes32"
        },
        {
          "indexed": true,
          "internalType": "address",
          "name": "caller",
          "type": "address"
        },
        {
          "indexed": false,
          "internalType": "address",
          "name": "owner",
          "type": "address"
        },
        {
          "indexed": false,
          "internalType": "bytes32",
          "name": "callbackFunction",
          "type": "bytes32"
        },
        {
          "indexed": false,
          "internalType": "bytes",
          "name": "response",
          "type": "bytes"
        },
        {
          "indexed": false,
          "internalType": "bytes",
          "name": "err",
          "type": "bytes"
        }
      ],
      "name": "FunctionCallCompleted",
      "type": "event"
    },
    {
      "anonymous": false,
      "inputs": [
        {
          "indexed": true,
          "internalType": "bytes32",
          "name": "functionId",
          "type": "bytes32"
        },
        {
          "indexed": true,
          "internalType": "bytes32",
          "name": "requestId",
          "type": "bytes32"
        },
        {
          "indexed": true,
          "internalType": "address",
          "name": "caller",
          "type": "address"
        },
        {
          "indexed": false,
          "internalType": "address",
          "name": "owner",
          "type": "address"
        },
        {
          "indexed": false,
          "internalType": "bytes32",
          "name": "callbackFunction",
          "type": "bytes32"
        },
        {
          "indexed": false,
          "internalType": "uint96",
          "name": "baseFee",
          "type": "uint96"
        },
        {
          "indexed": false,
          "internalType": "uint96",
          "name": "fee",
          "type": "uint96"
        },
        {
          "indexed": false,
          "internalType": "uint96",
          "name": "functionsManagerCut",
          "type": "uint96"
        },
        {
          "indexed": false,
          "internalType": "string[]",
          "name": "args",
          "type": "string[]"
        }
      ],
      "name": "FunctionCalled",
      "type": "event"
    },
    {
      "anonymous": false,
      "inputs": [
        {
          "indexed": true,
          "internalType": "bytes32",
          "name": "functionId",
          "type": "bytes32"
        },
        {
          "indexed": true,
          "internalType": "address",
          "name": "owner",
          "type": "address"
        },
        {
          "indexed": true,
          "internalType": "bytes32",
          "name": "category",
          "type": "bytes32"
        },
        {
          "components": [
            {
              "internalType": "bytes32",
              "name": "functionId",
              "type": "bytes32"
            },
            {
              "internalType": "address",
              "name": "owner",
              "type": "address"
            },
            {
              "internalType": "bytes32",
              "name": "category",
              "type": "bytes32"
            },
            {
              "internalType": "enum FunctionsManager.ReturnTypes",
              "name": "expectedReturnType",
              "type": "uint8"
            },
            {
              "internalType": "enum Functions.Location",
              "name": "codeLocation",
              "type": "uint8"
            },
            {
              "internalType": "enum Functions.Location",
              "name": "secretsLocation",
              "type": "uint8"
            },
            {
              "internalType": "enum Functions.CodeLanguage",
              "name": "language",
              "type": "uint8"
            },
            {
              "internalType": "string",
              "name": "name",
              "type": "string"
            },
            {
              "internalType": "string",
              "name": "desc",
              "type": "string"
            },
            {
              "internalType": "string",
              "name": "imageUrl",
              "type": "string"
            },
            {
              "internalType": "string[]",
              "name": "expectedArgs",
              "type": "string[]"
            }
          ],
          "indexed": false,
          "internalType": "struct FunctionsManager.FunctionMetadata",
          "name": "metadata",
          "type": "tuple"
        },
        {
          "indexed": false,
          "internalType": "uint96",
          "name": "fee",
          "type": "uint96"
        },
        {
          "indexed": false,
          "internalType": "uint64",
          "name": "subId",
          "type": "uint64"
        }
      ],
      "name": "FunctionRegistered",
      "type": "event"
    },
    {
      "anonymous": false,
      "inputs": [
        {
          "indexed": false,
          "internalType": "uint32",
          "name": "newMaxGasLimit",
          "type": "uint32"
        }
      ],
      "name": "MaxGasLimitUpdated",
      "type": "event"
    },
    {
      "anonymous": false,
      "inputs": [
        {
          "indexed": false,
          "internalType": "uint96",
          "name": "newMinimumSubscriptionBalance",
          "type": "uint96"
        }
      ],
      "name": "MinimumSubscriptionBalanceUpdated",
      "type": "event"
    },
    {
      "anonymous": false,
      "inputs": [
        {
          "indexed": true,
          "internalType": "address",
          "name": "from",
          "type": "address"
        },
        {
          "indexed": true,
          "internalType": "address",
          "name": "to",
          "type": "address"
        }
      ],
      "name": "OwnershipTransferRequested",
      "type": "event"
    },
    {
      "anonymous": false,
      "inputs": [
        {
          "indexed": true,
          "internalType": "address",
          "name": "from",
          "type": "address"
        },
        {
          "indexed": true,
          "internalType": "address",
          "name": "to",
          "type": "address"
        }
      ],
      "name": "OwnershipTransferred",
      "type": "event"
    },
    {
      "anonymous": false,
      "inputs": [
        {
          "indexed": true,
          "internalType": "bytes32",
          "name": "id",
          "type": "bytes32"
        }
      ],
      "name": "RequestFulfilled",
      "type": "event"
    },
    {
      "anonymous": false,
      "inputs": [
        {
          "indexed": true,
          "internalType": "bytes32",
          "name": "id",
          "type": "bytes32"
        }
      ],
      "name": "RequestSent",
      "type": "event"
    },
    {
      "inputs": [],
      "name": "acceptOwnership",
      "outputs": [],
      "stateMutability": "nonpayable",
      "type": "function"
    },
    {
      "inputs": [
        {
          "components": [
            {
              "internalType": "enum Functions.Location",
              "name": "codeLocation",
              "type": "uint8"
            },
            {
              "internalType": "enum Functions.Location",
              "name": "secretsLocation",
              "type": "uint8"
            },
            {
              "internalType": "enum Functions.CodeLanguage",
              "name": "language",
              "type": "uint8"
            },
            {
              "internalType": "string",
              "name": "source",
              "type": "string"
            },
            {
              "internalType": "bytes",
              "name": "secrets",
              "type": "bytes"
            },
            {
              "internalType": "string[]",
              "name": "args",
              "type": "string[]"
            }
          ],
          "internalType": "struct Functions.Request",
          "name": "req",
          "type": "tuple"
        },
        {
          "internalType": "uint64",
          "name": "subscriptionId",
          "type": "uint64"
        },
        {
          "internalType": "uint32",
          "name": "gasLimit",
          "type": "uint32"
        },
        {
          "internalType": "uint256",
          "name": "gasPrice",
          "type": "uint256"
        }
      ],
      "name": "estimateCost",
      "outputs": [
        {
          "internalType": "uint96",
          "name": "",
          "type": "uint96"
        }
      ],
      "stateMutability": "view",
      "type": "function"
    },
    {
      "inputs": [
        {
          "internalType": "bytes32",
          "name": "functionId",
          "type": "bytes32"
        },
        {
          "internalType": "string[]",
          "name": "args",
          "type": "string[]"
        }
      ],
      "name": "executeRequest",
      "outputs": [
        {
          "internalType": "bytes32",
          "name": "",
          "type": "bytes32"
        }
      ],
      "stateMutability": "nonpayable",
      "type": "function"
    },
    {
      "inputs": [],
      "name": "feeManagerCut",
      "outputs": [
        {
          "internalType": "uint32",
          "name": "",
          "type": "uint32"
        }
      ],
      "stateMutability": "view",
      "type": "function"
    },
    {
      "inputs": [
        {
          "internalType": "bytes32",
          "name": "functionId",
          "type": "bytes32"
        }
      ],
      "name": "forceUnlockFees",
      "outputs": [],
      "stateMutability": "nonpayable",
      "type": "function"
    },
    {
      "inputs": [
        {
          "internalType": "bytes32",
          "name": "",
          "type": "bytes32"
        }
      ],
      "name": "functionExecuteMetadatas",
      "outputs": [
        {
          "internalType": "address",
          "name": "owner",
          "type": "address"
        },
        {
          "internalType": "uint64",
          "name": "subId",
          "type": "uint64"
        },
        {
          "internalType": "uint96",
          "name": "fee",
          "type": "uint96"
        },
        {
          "internalType": "uint96",
          "name": "unlockedProfitPool",
          "type": "uint96"
        },
        {
          "internalType": "uint64",
          "name": "functionsCalledCount",
          "type": "uint64"
        },
        {
          "internalType": "uint96",
          "name": "lockedProfitPool",
          "type": "uint96"
        },
        {
          "internalType": "uint96",
          "name": "totalFeesCollected",
          "type": "uint96"
        },
        {
          "internalType": "uint64",
          "name": "successfulResponseCount",
          "type": "uint64"
        },
        {
          "internalType": "uint64",
          "name": "failedResponseCount",
          "type": "uint64"
        }
      ],
      "stateMutability": "view",
      "type": "function"
    },
    {
      "inputs": [],
      "name": "functionManagerProfitPool",
      "outputs": [
        {
          "internalType": "uint96",
          "name": "",
          "type": "uint96"
        }
      ],
      "stateMutability": "view",
      "type": "function"
    },
    {
      "inputs": [
        {
          "internalType": "bytes32",
          "name": "",
          "type": "bytes32"
        }
      ],
      "name": "functionMetadatas",
      "outputs": [
        {
          "internalType": "bytes32",
          "name": "functionId",
          "type": "bytes32"
        },
        {
          "internalType": "address",
          "name": "owner",
          "type": "address"
        },
        {
          "internalType": "bytes32",
          "name": "category",
          "type": "bytes32"
        },
        {
          "internalType": "enum FunctionsManager.ReturnTypes",
          "name": "expectedReturnType",
          "type": "uint8"
        },
        {
          "internalType": "enum Functions.Location",
          "name": "codeLocation",
          "type": "uint8"
        },
        {
          "internalType": "enum Functions.Location",
          "name": "secretsLocation",
          "type": "uint8"
        },
        {
          "internalType": "enum Functions.CodeLanguage",
          "name": "language",
          "type": "uint8"
        },
        {
          "internalType": "string",
          "name": "name",
          "type": "string"
        },
        {
          "internalType": "string",
          "name": "desc",
          "type": "string"
        },
        {
          "internalType": "string",
          "name": "imageUrl",
          "type": "string"
        }
      ],
      "stateMutability": "view",
      "type": "function"
    },
    {
      "inputs": [
        {
          "internalType": "bytes32",
          "name": "",
          "type": "bytes32"
        }
      ],
      "name": "functionRequests",
      "outputs": [
        {
          "internalType": "enum Functions.Location",
          "name": "codeLocation",
          "type": "uint8"
        },
        {
          "internalType": "enum Functions.Location",
          "name": "secretsLocation",
          "type": "uint8"
        },
        {
          "internalType": "enum Functions.CodeLanguage",
          "name": "language",
          "type": "uint8"
        },
        {
          "internalType": "string",
          "name": "source",
          "type": "string"
        },
        {
          "internalType": "bytes",
          "name": "secrets",
          "type": "bytes"
        }
      ],
      "stateMutability": "view",
      "type": "function"
    },
    {
      "inputs": [
        {
          "internalType": "bytes32",
          "name": "",
          "type": "bytes32"
        }
      ],
      "name": "functionResponses",
      "outputs": [
        {
          "internalType": "bytes32",
          "name": "functionId",
          "type": "bytes32"
        },
        {
          "internalType": "address",
          "name": "caller",
          "type": "address"
        },
        {
          "internalType": "bytes32",
          "name": "callbackFunction",
          "type": "bytes32"
        },
        {
          "internalType": "uint96",
          "name": "premiumFee",
          "type": "uint96"
        },
        {
          "internalType": "uint96",
          "name": "baseFee",
          "type": "uint96"
        },
        {
          "internalType": "uint96",
          "name": "functionsManagerCut",
          "type": "uint96"
        },
        {
          "internalType": "bytes",
          "name": "response",
          "type": "bytes"
        },
        {
          "internalType": "bytes",
          "name": "err",
          "type": "bytes"
        }
      ],
      "stateMutability": "view",
      "type": "function"
    },
    {
      "inputs": [],
      "name": "functionsCalledCount",
      "outputs": [
        {
          "internalType": "uint96",
          "name": "",
          "type": "uint96"
        }
      ],
      "stateMutability": "view",
      "type": "function"
    },
    {
      "inputs": [],
      "name": "functionsRegisteredCount",
      "outputs": [
        {
          "internalType": "uint64",
          "name": "",
          "type": "uint64"
        }
      ],
      "stateMutability": "view",
      "type": "function"
    },
    {
      "inputs": [],
      "name": "getDONPublicKey",
      "outputs": [
        {
          "internalType": "bytes",
          "name": "",
          "type": "bytes"
        }
      ],
      "stateMutability": "view",
      "type": "function"
    },
    {
      "inputs": [
        {
          "internalType": "bytes32",
          "name": "_functionId",
          "type": "bytes32"
        }
      ],
      "name": "getFunctionExecuteMetadata",
      "outputs": [
        {
          "components": [
            {
              "internalType": "address",
              "name": "owner",
              "type": "address"
            },
            {
              "internalType": "uint64",
              "name": "subId",
              "type": "uint64"
            },
            {
              "internalType": "uint96",
              "name": "fee",
              "type": "uint96"
            },
            {
              "internalType": "uint96",
              "name": "unlockedProfitPool",
              "type": "uint96"
            },
            {
              "internalType": "uint64",
              "name": "functionsCalledCount",
              "type": "uint64"
            },
            {
              "internalType": "uint96",
              "name": "lockedProfitPool",
              "type": "uint96"
            },
            {
              "internalType": "uint96",
              "name": "totalFeesCollected",
              "type": "uint96"
            },
            {
              "internalType": "uint64",
              "name": "successfulResponseCount",
              "type": "uint64"
            },
            {
              "internalType": "uint64",
              "name": "failedResponseCount",
              "type": "uint64"
            }
          ],
          "internalType": "struct FunctionsManager.FunctionExecuteMetadata",
          "name": "",
          "type": "tuple"
        }
      ],
      "stateMutability": "view",
      "type": "function"
    },
    {
      "inputs": [
        {
          "internalType": "bytes32",
          "name": "_functionId",
          "type": "bytes32"
        }
      ],
      "name": "getFunctionMetadata",
      "outputs": [
        {
          "components": [
            {
              "internalType": "bytes32",
              "name": "functionId",
              "type": "bytes32"
            },
            {
              "internalType": "address",
              "name": "owner",
              "type": "address"
            },
            {
              "internalType": "bytes32",
              "name": "category",
              "type": "bytes32"
            },
            {
              "internalType": "enum FunctionsManager.ReturnTypes",
              "name": "expectedReturnType",
              "type": "uint8"
            },
            {
              "internalType": "enum Functions.Location",
              "name": "codeLocation",
              "type": "uint8"
            },
            {
              "internalType": "enum Functions.Location",
              "name": "secretsLocation",
              "type": "uint8"
            },
            {
              "internalType": "enum Functions.CodeLanguage",
              "name": "language",
              "type": "uint8"
            },
            {
              "internalType": "string",
              "name": "name",
              "type": "string"
            },
            {
              "internalType": "string",
              "name": "desc",
              "type": "string"
            },
            {
              "internalType": "string",
              "name": "imageUrl",
              "type": "string"
            },
            {
              "internalType": "string[]",
              "name": "expectedArgs",
              "type": "string[]"
            }
          ],
          "internalType": "struct FunctionsManager.FunctionMetadata",
          "name": "",
          "type": "tuple"
        }
      ],
      "stateMutability": "view",
      "type": "function"
    },
    {
      "inputs": [
        {
          "internalType": "bytes32",
          "name": "_functionId",
          "type": "bytes32"
        }
      ],
      "name": "getFunctionRequest",
      "outputs": [
        {
          "components": [
            {
              "internalType": "enum Functions.Location",
              "name": "codeLocation",
              "type": "uint8"
            },
            {
              "internalType": "enum Functions.Location",
              "name": "secretsLocation",
              "type": "uint8"
            },
            {
              "internalType": "enum Functions.CodeLanguage",
              "name": "language",
              "type": "uint8"
            },
            {
              "internalType": "string",
              "name": "source",
              "type": "string"
            },
            {
              "internalType": "bytes",
              "name": "secrets",
              "type": "bytes"
            },
            {
              "internalType": "string[]",
              "name": "args",
              "type": "string[]"
            }
          ],
          "internalType": "struct Functions.Request",
          "name": "",
          "type": "tuple"
        }
      ],
      "stateMutability": "view",
      "type": "function"
    },
    {
      "inputs": [
        {
          "internalType": "bytes32",
          "name": "_requestId",
          "type": "bytes32"
        }
      ],
      "name": "getFunctionResponse",
      "outputs": [
        {
          "components": [
            {
              "internalType": "bytes32",
              "name": "functionId",
              "type": "bytes32"
            },
            {
              "internalType": "address",
              "name": "caller",
              "type": "address"
            },
            {
              "internalType": "bytes32",
              "name": "callbackFunction",
              "type": "bytes32"
            },
            {
              "internalType": "uint96",
              "name": "premiumFee",
              "type": "uint96"
            },
            {
              "internalType": "uint96",
              "name": "baseFee",
              "type": "uint96"
            },
            {
              "internalType": "uint96",
              "name": "functionsManagerCut",
              "type": "uint96"
            },
            {
              "internalType": "string[]",
              "name": "args",
              "type": "string[]"
            },
            {
              "internalType": "bytes",
              "name": "response",
              "type": "bytes"
            },
            {
              "internalType": "bytes",
              "name": "err",
              "type": "bytes"
            }
          ],
          "internalType": "struct FunctionsManager.FunctionResponse",
          "name": "",
          "type": "tuple"
        }
      ],
      "stateMutability": "view",
      "type": "function"
    },
    {
      "inputs": [
        {
          "internalType": "bytes32",
          "name": "_requestId",
          "type": "bytes32"
        }
      ],
      "name": "getFunctionResponseValue",
      "outputs": [
        {
          "internalType": "bytes",
          "name": "",
          "type": "bytes"
        }
      ],
      "stateMutability": "view",
      "type": "function"
    },
    {
      "inputs": [],
      "name": "getGasPrice",
      "outputs": [
        {
          "internalType": "uint256",
          "name": "",
          "type": "uint256"
        }
      ],
      "stateMutability": "view",
      "type": "function"
    },
    {
      "inputs": [
        {
          "internalType": "uint64",
          "name": "_subscriptionId",
          "type": "uint64"
        }
      ],
      "name": "getSubscriptionBalance",
      "outputs": [
        {
          "internalType": "uint256",
          "name": "",
          "type": "uint256"
        }
      ],
      "stateMutability": "view",
      "type": "function"
    },
    {
      "inputs": [
        {
          "internalType": "bytes32",
          "name": "requestId",
          "type": "bytes32"
        },
        {
          "internalType": "bytes",
          "name": "response",
          "type": "bytes"
        },
        {
          "internalType": "bytes",
          "name": "err",
          "type": "bytes"
        }
      ],
      "name": "handleOracleFulfillment",
      "outputs": [],
      "stateMutability": "nonpayable",
      "type": "function"
    },
    {
      "inputs": [],
      "name": "maxGasLimit",
      "outputs": [
        {
          "internalType": "uint32",
          "name": "",
          "type": "uint32"
        }
      ],
      "stateMutability": "view",
      "type": "function"
    },
    {
      "inputs": [],
      "name": "minimumSubscriptionBalance",
      "outputs": [
        {
          "internalType": "uint96",
          "name": "",
          "type": "uint96"
        }
      ],
      "stateMutability": "view",
      "type": "function"
    },
    {
      "inputs": [],
      "name": "owner",
      "outputs": [
        {
          "internalType": "address",
          "name": "",
          "type": "address"
        }
      ],
      "stateMutability": "view",
      "type": "function"
    },
    {
      "inputs": [
        {
          "internalType": "uint64",
          "name": "_subscriptionId",
          "type": "uint64"
        }
      ],
      "name": "refillSubscription",
      "outputs": [],
      "stateMutability": "nonpayable",
      "type": "function"
    },
    {
      "inputs": [
        {
          "components": [
            {
              "internalType": "uint96",
              "name": "fees",
              "type": "uint96"
            },
            {
              "internalType": "string",
              "name": "functionName",
              "type": "string"
            },
            {
              "internalType": "string",
              "name": "desc",
              "type": "string"
            },
            {
              "internalType": "string",
              "name": "imageUrl",
              "type": "string"
            },
            {
              "internalType": "string",
              "name": "source",
              "type": "string"
            },
            {
              "internalType": "string[]",
              "name": "expectedArgs",
              "type": "string[]"
            },
            {
              "internalType": "enum Functions.Location",
              "name": "codeLocation",
              "type": "uint8"
            },
            {
              "internalType": "enum Functions.Location",
              "name": "secretsLocation",
              "type": "uint8"
            },
            {
              "internalType": "enum Functions.CodeLanguage",
              "name": "language",
              "type": "uint8"
            },
            {
              "internalType": "bytes32",
              "name": "category",
              "type": "bytes32"
            },
            {
              "internalType": "uint64",
              "name": "subId",
              "type": "uint64"
            },
            {
              "internalType": "enum FunctionsManager.ReturnTypes",
              "name": "expectedReturnType",
              "type": "uint8"
            },
            {
              "internalType": "bytes",
              "name": "secrets",
              "type": "bytes"
            }
          ],
          "internalType": "struct FunctionsManager.FunctionsRegisterRequest",
          "name": "request",
          "type": "tuple"
        }
      ],
      "name": "registerFunction",
      "outputs": [
        {
          "internalType": "bytes32",
          "name": "",
          "type": "bytes32"
        }
      ],
      "stateMutability": "payable",
      "type": "function"
    },
    {
      "inputs": [
        {
          "internalType": "uint32",
          "name": "_feeManagerCut",
          "type": "uint32"
        }
      ],
      "name": "setFeeManagerCut",
      "outputs": [],
      "stateMutability": "nonpayable",
      "type": "function"
    },
    {
      "inputs": [
        {
          "internalType": "uint32",
          "name": "_maxGasLimit",
          "type": "uint32"
        }
      ],
      "name": "setMaxGasLimit",
      "outputs": [],
      "stateMutability": "nonpayable",
      "type": "function"
    },
    {
      "inputs": [
        {
          "internalType": "uint96",
          "name": "_minimumSubBalance",
          "type": "uint96"
        }
      ],
      "name": "setMinimumSubscriptionBalance",
      "outputs": [],
      "stateMutability": "nonpayable",
      "type": "function"
    },
    {
      "inputs": [
        {
          "internalType": "uint64",
          "name": "",
          "type": "uint64"
        }
      ],
      "name": "subscriptionBalances",
      "outputs": [
        {
          "internalType": "uint96",
          "name": "",
          "type": "uint96"
        }
      ],
      "stateMutability": "view",
      "type": "function"
    },
    {
      "inputs": [],
      "name": "totalFeesCollected",
      "outputs": [
        {
          "internalType": "uint96",
          "name": "",
          "type": "uint96"
        }
      ],
      "stateMutability": "view",
      "type": "function"
    },
    {
      "inputs": [
        {
          "internalType": "address",
          "name": "to",
          "type": "address"
        }
      ],
      "name": "transferOwnership",
      "outputs": [],
      "stateMutability": "nonpayable",
      "type": "function"
    },
    {
      "inputs": [
        {
          "internalType": "bytes32",
          "name": "functionId",
          "type": "bytes32"
        }
      ],
      "name": "withdrawFunctionProfitToAuthor",
      "outputs": [],
      "stateMutability": "nonpayable",
      "type": "function"
    },
    {
      "inputs": [],
      "name": "withdrawFunctionsManagerProfitToOwner",
      "outputs": [],
      "stateMutability": "nonpayable",
      "type": "function"
    },
    {
      "inputs": [
        {
          "internalType": "bytes32[]",
          "name": "functionIds",
          "type": "bytes32[]"
        }
      ],
      "name": "withdrawMultipleFunctionProfitToAuthor",
      "outputs": [],
      "stateMutability": "nonpayable",
      "type": "function"
    }
  ],
  "bytecode": "0x608034620001fc57601f62005ec738819003918201601f19168301916001600160401b03831184841017620002015780849260c094604052833981010312620001fc576200004d8162000217565b906200005c6020820162000217565b916200006b6040830162000217565b926200007a606084016200022c565b6080840151909490936001600160601b0385168503620001fc5760a0620000a291016200022c565b600080546001600160a01b039384166001600160a01b0319918216811790925591939092903315620001b75733836002541617600255606463ffffffff8916116200015857816fffffffff000000000000000000000000961683600a541617600a551681600b541617600b55600d549460a01b1617600c5563ffffffff60801b9060801b169260601b16906c01000000000000000000000000600160a01b0319161717600d55604051615c8890816200023f8239f35b60405162461bcd60e51b815260206004820152603160248201527f466565206d616e6167657220637574206d757374206265206c6573732074686160448201527006e206f7220657175616c20746f2031303607c1b6064820152608490fd5b60405162461bcd60e51b815260206004820152601860248201527f43616e6e6f7420736574206f776e657220746f207a65726f00000000000000006044820152606490fd5b600080fd5b634e487b7160e01b600052604160045260246000fd5b51906001600160a01b0382168203620001fc57565b519063ffffffff82168203620001fc5756fe6080604052600436101561001257600080fd5b60003560e01c80630ca76175146102425780631ac67b341461023d5780631f3597fa14610238578063228764b214610233578063257912f31461022e5780634351077d14610229578063455259cb146102245780634b5de5c41461021f5780634e011def1461021a578063509f4a3a146102155780635e45da231461021057806360c6d8ae1461020b5780637587b1b2146101b6578063769748c31461020657806379ba5097146102015780637b0caaa2146101fc5780637dec470c146101f75780638a328420146101f25780638da5cb5b146101ed57806396e10261146101e8578063a1901523146101e3578063a36df5c2146101de578063ba9c513f146101d9578063bdf47104146101d4578063c7147f81146101cf578063ca74fc03146101ca578063d328a91e146101c5578063d4b39175146101c0578063d5549c8a146101bb578063d7e6a96b146101b6578063de76f053146101b1578063f2fde38b146101ac578063f3ba47eb146101a7578063f8312841146101a25763f8454cd81461019d57600080fd5b612521565b612412565b6123e8565b612320565b612213565b61122c565b6121ec565b6120e6565b611f5d565b611eb3565b611d3a565b611d1a565b611c96565b611c16565b611b8e565b611b08565b611aca565b611a51565b6119a5565b61197e565b6118b3565b611273565b6111e4565b6111bd565b61118a565b6110b9565b611022565b610fe1565b610ef1565b610e18565b610d11565b610a52565b6109c1565b6103a1565b634e487b7160e01b600052604160045260246000fd5b60c081019081106001600160401b0382111761027857604052565b610247565b61012081019081106001600160401b0382111761027857604052565b604081019081106001600160401b0382111761027857604052565b606081019081106001600160401b0382111761027857604052565b90601f801991011681019081106001600160401b0382111761027857604052565b6040519061016082018281106001600160401b0382111761027857604052565b6040519061031d8261027d565b565b6040519061031d8261025d565b6001600160401b03811161027857601f01601f191660200190565b9291926103538261032c565b9161036160405193846102cf565b82948184528183011161037e578281602093846000960137010152565b600080fd5b9080601f8301121561037e5781602061039e93359101610347565b90565b3461037e57606036600319011261037e576001600160401b0360043560243582811161037e576103d5903690600401610383565b9160443590811161037e576103ee903690600401610383565b91610410610404600b546001600160a01b031690565b6001600160a01b031690565b926104276001600160a01b03948533911614614e0d565b61045a846104526001610444876000526006602052604060002090565b01546001600160a01b031690565b161515614e7f565b61049f61049861040461048b61047a876000526006602052604060002090565b546000526005602052604060002090565b546001600160a01b031690565b1515614ef1565b6104bb6104b6846000526006602052604060002090565b61470e565b938260e086015261010082818701526104e7866104e2876000526006602052604060002090565b61396c565b6105046104ff87516000526005602052604060002090565b6133a1565b906105e66105b561053661052260608b01516001600160601b031690565b60a08b01516001600160601b031690613872565b61056460a086016105578361055283516001600160601b031690565b613872565b6001600160601b03169052565b610585606086016105578361058083516001600160601b031690565b61368c565b6105a160c086016105578361058083516001600160601b031690565b600e5460601c6001600160601b031661368c565b6bffffffffffffffffffffffff60601b196bffffffffffffffffffffffff60601b600e549260601b16911617600e55565b6105f66105f1614f63565b615a98565b8351610791575061062a60e0820161061d61061882516001600160401b031690565b61321a565b6001600160401b03169052565b6106488161064388516000526005602052604060002090565b612f93565b6106a5610660610404600b546001600160a01b031690565b936000602084019561067987516001600160401b031690565b60405163523e3b4b60e11b81526001600160401b03909116600482015293849190829081906024820190565b03915afa94851561078c577f46179aadb72bd1ccbb0e9ebc270c28ff7763288a733eba4fb65169a441dbf87e9561074693600091610769575b506001600160601b036107026106f6600c5460a01c90565b6001600160601b031690565b91161061074b575b50875195604061073561072760208c01516001600160a01b031690565b95516001600160a01b031690565b990151604051958695169985614fc2565b0390a4005b51610763906001600160401b03166141f0565b6141f0565b3861070a565b610784913d8091833e61077c81836102cf565b81019061297e565b5050386106de565b612a20565b6107ab90820161061d61061882516001600160401b031690565b61062a565b90600182811c921680156107e0575b60208310146107ca57565b634e487b7160e01b600052602260045260246000fd5b91607f16916107bf565b90604051918260008254926107fe846107b0565b90818452600194858116908160001461086b5750600114610828575b505061031d925003836102cf565b9093915060005260209081600020936000915b81831061085357505061031d9350820101388061081a565b8554888401850152948501948794509183019161083b565b91505061031d94506020925060ff191682840152151560051b820101388061081a565b634e487b7160e01b600052602160045260246000fd5b600411156108ae57565b61088e565b9060048210156108ae5752565b600211156108ae57565b9060028210156108ae5752565b600111156108ae57565b9060018210156108ae5752565b60005b8381106109015750506000910152565b81810151838201526020016108f1565b9060209161092a815180928185528580860191016108ee565b601f01601f1916010190565b989561097e6109a39661097461039e9d9b9760608e610992996001600160a01b036109b29f9a6109889a8452166020830152604082015201906108b3565b60808c01906108ca565b60a08a01906108ca565b60c08801906108e1565b6101408060e0880152860190610911565b90848203610100860152610911565b91610120818403910152610911565b3461037e57602036600319011261037e57600435600052600460205260406000208054610a4e6001600160a01b03600184015416600284015493600381015494610a0d600483016107ea565b90610a266006610a1f600586016107ea565b94016107ea565b9360405197889760ff8260181c169360ff8360101c169360ff808560081c169416928b610936565b0390f35b3461037e57602036600319011261037e57610b4b60206004353033148015610bbe575b8015610b97575b610a8590614568565b610aaf6001610a9e836000526005602052604060002090565b015460601c6001600160601b031690565b90610ae26001610ac9836000526005602052604060002090565b016bffffffffffffffffffffffff60601b198154169055565b610b0e61048b610afd610404600a546001600160a01b031690565b926000526005602052604060002090565b600060405180968195829463a9059cbb60e01b8452600484019092916001600160601b036020916001600160a01b03604085019616845216910152565b03925af1801561078c57610b6791600091610b69575b50614626565b005b610b8a915060203d8111610b90575b610b8281836102cf565b8101906132fc565b38610b61565b503d610b78565b50610a85610bb561040461048b846000526005602052604060002090565b33149050610a7c565b50610bd46104046002546001600160a01b031690565b3314610a75565b908082519081815260208091019281808460051b8301019501936000915b848310610c095750505050505090565b9091929394958480610c27600193601f198682030187528a51610911565b9801930193019194939290610bf9565b805182526020808201516001600160a01b03169083015261039e919060408101516040830152610c6f606082015160608401906108b3565b610c81608082015160808401906108ca565b610c9360a082015160a08401906108ca565b610ca560c082015160c08401906108e1565b610cec610cd8610cc460e08401516101608060e0880152860190610911565b610100808501519086830390870152610911565b610120808401519085830390860152610911565b916101408092015191818403910152610bdb565b90602061039e928181520190610c37565b3461037e57602036600319011261037e57610d2a6127f3565b506004356000526004602052610a4e6040600020610e066007610d4b6102f0565b9280548452610d77610d6760018301546001600160a01b031690565b6001600160a01b03166020860152565b60028101546040850152610dcb60ff6003830154610d9a82821660608901612898565b610dac828260081c16608089016128ae565b610dbe828260101c1660a089016128ae565b60181c1660c086016128c4565b610dd7600482016107ea565b60e0850152610de8600582016107ea565b610100850152610dfa600682016107ea565b610120850152016134bd565b61014082015260405191829182610d00565b3461037e57600036600319011261037e576020600c5460a01c604051908152f35b60208082528251818301528201516001600160a01b0316604082015261039e919060408201516060820152610e7e606083015160808301906001600160601b03169052565b60808201516001600160601b031660a082015260a08201516001600160601b031660c082015260c082015190610ec2610120928360e0840152610140830190610bdb565b9160e0840151610ee1601f199461010092868683030184870152610911565b9401519282850301910152610911565b3461037e57602036600319011261037e57610f0a613928565b506004356000526006602052610a4e6040600020610fcf6007610f2b610310565b9280548452610f47610d6760018301546001600160a01b031690565b6002810154604085015260038101546001600160601b038082166060870152610f809160601c1660808601906001600160601b03169052565b610fa7610f9760048301546001600160601b031690565b6001600160601b031660a0860152565b610fb3600582016134bd565b60c0850152610fc4600682016107ea565b60e0850152016107ea565b61010082015260405191829182610e39565b3461037e57600036600319011261037e5760206040513a8152f35b6004359063ffffffff8216820361037e57565b6044359063ffffffff8216820361037e57565b3461037e57602036600319011261037e577fea75a541fdea902fd9286e55cc7a68149b042e7a85dcdd3304df35bf9b7d6da9602061105e610ffc565b611066612637565b600d547fffffffffffffffffffffffff00000000ffffffffffffffffffffffffffffffff73ffffffff000000000000000000000000000000008360801b16911617600d5563ffffffff60405191168152a1005b3461037e57602036600319011261037e57600435600052600560205260406000208054610a4e60018301546110fd600360028601549501546001600160401b031690565b604080516001600160a01b03861681526001600160401b0360a096871c811660208301526001600160601b0385811693830193909352606085811c84168184015260c095861c6080840152888416978301979097529587901c909116838201529490911c60e08501529091166101008301528190610120820190565b90602061039e928181520190610911565b3461037e57602036600319011261037e57610a4e6111a96004356147d8565b604051918291602083526020830190610911565b3461037e57600036600319011261037e57602063ffffffff600d5460801c16604051908152f35b3461037e57600036600319011261037e5760206001600160601b03600e5460601c16604051908152f35b6001600160401b0381160361037e57565b6024359061031d8261120e565b3461037e57602036600319011261037e576001600160401b036004356112518161120e565b16600052600960205260206001600160601b0360406000205416604051908152f35b60031960203682011261037e576001600160401b0390816004351161037e576101a0906004353603011261037e576112af600435600401612690565b506024600435016112d16112c88260043560040161269a565b905015156126cc565b6112ff6112e38260043560040161269a565b906112f96112ef612718565b9133933691610347565b90615b9e565b6113376113296113148360043560040161269a565b9290604051928391602083019533918761277f565b03601f1981018352826102cf565b519020906113666001600160a01b0361135f6001610444866000526004602052604060002090565b16156127a7565b61138961138361040461048b856000526005602052604060002090565b156127a7565b6113b36113ac6113976127f3565b8481523360208201529260043560040161269a565b3691610347565b60e08201526113cf6113ac60446004350160043560040161269a565b6101008201526113ec6113ac60646004350160043560040161269a565b61012082015261141061140960a460043501600435600401612856565b369161205c565b6101408201526101246004350135604082015261143e6114356101646004350161288b565b60608301612898565b61145861144f60c4600435016128a4565b608083016128ae565b61147261146960e4600435016128a4565b60a083016128ae565b61148d611484610104600435016128ba565b60c083016128c4565b6114956128d0565b338152906114ba6114aa600435600401612690565b6001600160601b03166040840152565b836114ca61014460043501612915565b1661156c576114da6105f1612b18565b6114ef610404600a546001600160a01b031690565b6040516370a0823160e01b815233600482015290602090829060249082905afa801561078c576115389160009161153d575b506115316106f6600c5460a01c90565b1115612b60565b613232565b61155f915060203d602011611565575b61155781836102cf565b810190612b51565b82611521565b503d61154d565b6115936115e59461158261014460043501612915565b9061158b61291f565b911690615ac6565b60006115aa610404600b546001600160a01b031690565b6115b961014460043501612915565b60405163523e3b4b60e11b81526001600160401b03909116600482015295869190829081906024820190565b03915afa93841561078c57600090819561188d575b506001600160a01b03163081149033146000915b865183101561187d5730611635610404611628868b612a56565b516001600160a01b031690565b0361185d57506001915b8280611856575b6116595761165390612a42565b9161160e565b50610a4e955090611671915b8161184e575b50612a80565b61169361168361014460043501612915565b6001600160401b03166020840152565b61174f61169e612bd2565b6116dc6116af60c4600435016128a4565b6116be610104600435016128ba565b6116d56113ac60846004350160043560040161269a565b9184614824565b60016116ec60e4600435016128a4565b6116f5816108c0565b148061182f575b611809575b61171e83611719876000526004602052604060002090565b612ea8565b61173684610643876000526005602052604060002090565b61174a856000526007602052604060002090565b61315e565b827f21813596c09ceb4b0982d4768204369a8a4102e8bb57faa68abeb17f905aa6af60408301519361179f602061179060408401516001600160601b031690565b9201516001600160401b031690565b906117b16040519283923397846131e5565b0390a46117f96117d0610618600d546001600160401b039060a01c1690565b67ffffffffffffffff60a01b1967ffffffffffffffff60a01b600d549260a01b16911617600d55565b6040519081529081906020820190565b61182a6118246113ac6101846004350160043560040161269a565b8261485b565b611701565b506118456101846004350160043560040161269a565b905015156116fc565b90503861166b565b5081611646565b913361186f610404611628848b612a56565b0361163f576001915061163f565b90610a4e96506116719250611665565b6001600160a01b0395506118aa913d8091833e61077c81836102cf565b959150906115fa565b3461037e5760008060031936011261197b576001600160a01b0380600354163303611936576002546001600160a01b0316600280546001600160a01b031916331790559061190c6001600160a01b031960035416600355565b3391167f8be0079c531659141344cd1fd0a4f28419497f9722a3daafe3b4186f6b6457e08380a380f35b60405162461bcd60e51b815260206004820152601660248201527f4d7573742062652070726f706f736564206f776e6572000000000000000000006044820152606490fd5b80fd5b3461037e57600036600319011261037e57602063ffffffff600d5460601c16604051908152f35b3461037e57602036600319011261037e576004356000526007602052611a216040600020610a4e815491611a326119ea60026119e3600185016107ea565b93016107ea565b9160405195856119fe8860ff8199166108ca565b611a116020880160ff8360081c166108ca565b60ff604088019160101c166108e1565b60a0606086015260a0850190610911565b908382036080850152610911565b6001600160601b0381160361037e57565b3461037e57602036600319011261037e577ff93ca41ce15e716948ecea40b2fdd7db09875e09fa15a0f7b9d86e030bc138fc6020600435611a9181611a40565b611a99612637565b600c546001600160a01b036001600160a01b03198360a01b16911617600c556001600160601b0360405191168152a1005b3461037e57600036600319011261037e5760206001600160a01b0360025416604051908152f35b6001600160401b0381116102785760051b60200190565b3461037e5760208060031936011261037e576004356001600160401b03811161037e573660238201121561037e57806004013590611b4582611af1565b91611b5360405193846102cf565b80835260248484019160051b8301019136831161037e57602401905b828210611b7f57610b6784614698565b81358152908401908401611b6f565b3461037e57600036600319011261037e5760206001600160601b03600e5416604051908152f35b969390926001600160a01b0361039e999793611c0897958a5216602089015260408801526001600160601b03928380921660608901521660808701521660a08501526101008060c0860152840190610911565b9160e0818403910152610911565b3461037e57602036600319011261037e57600435600052600660205260406000208054610a4e6001600160a01b03600184015416926002810154906003810154936001600160601b03948560048401541691611c806007611c79600687016107ea565b95016107ea565b9460405198888a998560601c1694169289611bb5565b3461037e57602036600319011261037e577f46c1366d39ebca435b59ead94f7c3af0b9adebd337dd0b02d786ef47abaf68696020611cd2610ffc565b611cda612637565b600d546fffffffff0000000000000000000000008260601b16906fffffffff000000000000000000000000191617600d5563ffffffff60405191168152a1005b3461037e57602036600319011261037e57610b6760043561075e8161120e565b3461037e5760008060031936011261197b57611d54612637565b611d706001600160a01b0360025416611d6b614497565b615b09565b611df36020611d87600d546001600160601b031690565b611d9c6001600160601b0319600d5416600d55565b611db1610404600a546001600160a01b031690565b60025460405163a9059cbb60e01b81526001600160a01b0390911660048201526001600160601b03909216602483015290928391908290869082906044820190565b03925af1801561078c57611e0e918391611e11575b506144f6565b80f35b611e29915060203d8111610b9057610b8281836102cf565b38611e08565b9061039e9160208152611e466020820183516108ca565b611e58602083015160408301906108ca565b611e6a604083015160608301906108e1565b611e83606083015160c0608084015260e0830190610911565b9060c060a0611ea3608086015194601f1995868683030184870152610911565b9401519282850301910152610bdb565b3461037e57602036600319011261037e57611ecc612bd2565b506004356000526007602052610a4e6040600020611f4c600360405192611ef28461025d565b611f2460ff8254611f05828216886128ae565b611f17828260081c16602089016128ae565b60101c16604086016128c4565b611f30600182016107ea565b6060850152611f41600282016107ea565b6080850152016134bd565b60a082015260405191829182611e2f565b3461037e5760008060031936011261197b576004816001600160a01b0381541660405192838092636994548f60e11b82525afa90811561078c578291611fac575b60405180610a4e8482611179565b90503d8083833e611fbd81836102cf565b81019060208183031261202a578051906001600160401b03821161202e570181601f8201121561202a57805192611ff38461032c565b9261200160405194856102cf565b8484526020858401011161197b5750610a4e9261202491602080850191016108ee565b38611f9e565b8280fd5b8380fd5b6002111561037e57565b359061031d82612032565b6001111561037e57565b359061031d82612047565b9291909261206984611af1565b9161207760405193846102cf565b829480845260208094019060051b83019282841161037e5780915b8483106120a157505050505050565b82356001600160401b03811161037e5786916120c08684938601610383565b815201920191612092565b9080601f8301121561037e5781602061039e9335910161205c565b3461037e5760031960803682011261037e576004356001600160401b039182821161037e5760c090823603011261037e5761211f61031f565b61212b8260040161203c565b81526121396024830161203c565b602082015261214a60448301612051565b6040820152606482013583811161037e5761216b9060043691850101610383565b6060820152608482013583811161037e5761218c9060043691850101610383565b608082015260a482013592831161037e576121b36121d2926004610a4e95369201016120cb565b60a08201526121c061121f565b6121c861100f565b90606435926148a0565b6040516001600160601b0390911681529081906020820190565b3461037e57600036600319011261037e5760206001600160601b03600d5416604051908152f35b3461037e57602036600319011261037e5761222c612637565b600435600052600560205260406000206001600160a01b03815416156122ca57806122b56002610b67930191612286600161226e85546001600160601b031690565b92019161058083546001600160601b039060601c1690565b6bffffffffffffffffffffffff60601b196bffffffffffffffffffffffff60601b83549260601b169116179055565b80546bffffffffffffffffffffffff19169055565b60405162461bcd60e51b815260206004820152601760248201527f46756e6374696f6e20646f6573206e6f742065786973740000000000000000006044820152606490fd5b6001600160a01b0381160361037e57565b3461037e57602036600319011261037e576001600160a01b036004356123458161230f565b61234d612637565b163381146123a357806001600160a01b0319600354161760035561237c6104046002546001600160a01b031690565b7fed8889f560326eb138920d842192f0eb3dd22b4f139c87a2c57538e05bae1278600080a3005b60405162461bcd60e51b815260206004820152601760248201527f43616e6e6f74207472616e7366657220746f2073656c660000000000000000006044820152606490fd5b3461037e57600036600319011261037e5760206001600160401b03600d5460a01c16604051908152f35b3461037e57604036600319011261037e576001600160401b0360243581811161037e573660238201121561037e57806004013591821161037e573660248360051b8301011161037e57610a4e9160246117f99201600435613b37565b81516001600160a01b031681526020808301516001600160401b0316908201526040808301516001600160601b0316908201526101208101929161031d91906060818101516001600160601b0316908301526080818101516001600160401b03169083015260a0818101516001600160601b03169083015260c0818101516001600160601b03169083015260e0818101516001600160401b031690830152610100908101516001600160401b0316910152565b3461037e57602036600319011261037e5761253a6128d0565b506004356000526005602052610a4e604060002061262b61261a600361255e610310565b9361259e6001600160401b0382546125886001600160a01b03821689906001600160a01b03169052565b60a01c1660208701906001600160401b03169052565b60018101546001600160601b038082166040880152606082811c82169088015261260c916125d09060c01c6080890152565b60028301546001600160601b038282161660a089015290612602908260601c1660c08901906001600160601b03169052565b60c01c60e0870152565b01546001600160401b031690565b6001600160401b0316610100830152565b6040519182918261246e565b6001600160a01b0360025416330361264b57565b60405162461bcd60e51b815260206004820152601660248201527f4f6e6c792063616c6c61626c65206279206f776e6572000000000000000000006044820152606490fd5b3561039e81611a40565b903590601e198136030182121561037e57018035906001600160401b03821161037e5760200191813603831361037e57565b156126d357565b60405162461bcd60e51b815260206004820152601d60248201527f46756e6374696f6e206e616d652063616e6e6f7420626520656d7074790000006044820152606490fd5b60405190612725826102b4565b60248252637220257360e01b6040837f726567697374657246756e6374696f6e2c206e616d653a2025732073656e646560208201520152565b908060209392818452848401376000828201840152601f01601f1916010190565b916127a06020926001600160a01b039296959660408652604086019161275e565b9416910152565b156127ae57565b60405162461bcd60e51b815260206004820152601760248201527f46756e6374696f6e20616c7265616479206578697374730000000000000000006044820152606490fd5b6040519061016082018281106001600160401b0382111761027857604052606061014083600080825280602083015280604083015280848301528060808301528060a083015260c08201528260e082015282610100820152826101208201520152565b903590601e198136030182121561037e57018035906001600160401b03821161037e57602001918160051b3603831361037e57565b35600481101561037e5790565b60048210156108ae5752565b3561039e81612032565b60028210156108ae5752565b3561039e81612047565b60018210156108ae5752565b604051906128dd8261027d565b816101006000918281528260208201528260408201528260608201528260808201528260a08201528260c08201528260e08201520152565b3561039e8161120e565b6040519061292c826102b4565b603682527f636865636b696e6720696620617574686f72697a6564000000000000000000006040837f7573696e67206578697374696e6720737562736372697074696f6e2025642c2060208201520152565b909160608284031261037e57815161299581611a40565b926020808401516129a58161230f565b936040810151906001600160401b03821161037e57019180601f8401121561037e5782516129d281611af1565b936129e060405195866102cf565b818552838086019260051b82010192831161037e578301905b828210612a07575050505090565b8380918351612a158161230f565b8152019101906129f9565b6040513d6000823e3d90fd5b634e487b7160e01b600052601160045260246000fd5b6000198114612a515760010190565b612a2c565b8051821015612a6a5760209160051b010190565b634e487b7160e01b600052603260045260246000fd5b15612a8757565b60405162461bcd60e51b815260206004820152604f60248201527f46756e6374696f6e734d616e6167657220616e642f6f722063616c6c6572206160448201527f7265206e6f7420617574686f72697a656420636f6e73756d657273206f66207460648201527f686520737562736372697074696f6e0000000000000000000000000000000000608482015260a490fd5b60405190612b2582610299565b601982527f6372656174696e67206e657720737562736372697074696f6e000000000000006020830152565b9081602091031261037e575190565b15612b6757565b60405162461bcd60e51b815260206004820152602e60248201527f496e73756666696369656e74204c494e4b2062616c616e636520746f2066756e60448201527f6420737562736372697074696f6e0000000000000000000000000000000000006064820152608490fd5b60405190612bdf8261025d565b606060a08360008152600060208201526000604082015282808201528260808201520152565b9060048110156108ae5760ff80198354169116179055565b9060028110156108ae5761ff0082549160081b169061ff001916179055565b9060028110156108ae57815462ff0000191660109190911b62ff000016179055565b9060018110156108ae5763ff00000082549160181b169063ff0000001916179055565b818110612c8c575050565b60008155600101612c81565b9190601f8111612ca757505050565b61031d926000526020600020906020601f840160051c83019310612cd3575b601f0160051c0190612c81565b9091508190612cc6565b91909182516001600160401b03811161027857612d0481612cfe84546107b0565b84612c98565b602080601f8311600114612d40575081929394600092612d35575b50508160011b916000199060031b1c1916179055565b015190503880612d1f565b90601f19831695612d5685600052602060002090565b926000905b888210612d9357505083600195969710612d7a575b505050811b019055565b015160001960f88460031b161c19169055388080612d70565b80600185968294968601518155019501930190612d5b565b908160011b9180830460021490151715612a5157565b815191680100000000000000008311610278578154838355808410612e24575b50612df6602080920192600052602060002090565b6000925b848410612e08575050505050565b60018382612e1883945186612cdd565b01920193019290612dfa565b6000838152846020822092830192015b828110612e42575050612de1565b80612e4f600192546107b0565b80612e5c575b5001612e34565b601f908181118414612e745750508281555b38612e55565b83612e9692612e8885600052602060002090565b920160051c82019101612c81565b60008181526020812081835555612e6e565b600761014061031d9380518455612eeb612ecc60208301516001600160a01b031690565b60018601906001600160a01b03166001600160a01b0319825416179055565b60408101516002850155612f5560038501612f136060840151612f0d816108a4565b82612c05565b612f2a6080840151612f24816108c0565b82612c1d565b612f4160a0840151612f3b816108c0565b82612c3c565b60c083015190612f50826108d7565b612c5e565b612f6660e082015160048601612cdd565b612f7861010082015160058601612cdd565b612f8a61012082015160068601612cdd565b01519101612dc1565b600361314161010061031d94612fcf612fb382516001600160a01b031690565b86906001600160a01b03166001600160a01b0319825416179055565b61300e612fe660208301516001600160401b031690565b865467ffffffffffffffff60a01b191660a09190911b67ffffffffffffffff60a01b16178655565b6130eb6001860161304d61302c60408501516001600160601b031690565b82546bffffffffffffffffffffffff19166001600160601b03909116178255565b61309461306460608501516001600160601b031690565b82546bffffffffffffffffffffffff60601b191660609190911b6bffffffffffffffffffffffff60601b16178255565b60808301516001600160401b03165b77ffffffffffffffffffffffffffffffffffffffffffffffff7fffffffffffffffff00000000000000000000000000000000000000000000000083549260c01b169116179055565b6131336002860161310961302c60a08501516001600160601b031690565b61312061306460c08501516001600160601b031690565b60e08301516001600160401b03166130a3565b01516001600160401b031690565b9101906001600160401b03166001600160401b0319825416179055565b815160028110156108ae5760ff801983541691161781556131866020830151612f24816108c0565b604082015191613195836108d7565b60018310156108ae5760a06003916131c161031d9585549062ff00009060101b169062ff000019161790565b84556131d4606082015160018601612cdd565b612f8a608082015160028601612cdd565b9193926001600160401b03906001600160601b0361320d604094606087526060870190610c37565b9616602085015216910152565b6001600160401b03809116908114612a515760010190565b60405162461bcd60e51b815260206004820152605a60248201527f746865206162696c69747920746f20637265617465207375627363726970746960448201527f6f6e73206973206578706c696369746c792064697361626c656420696e20746860648201527f69732076657273696f6e206f662074686520636f6e7472616374000000000000608482015260a490fd5b604051906132d082610299565b601982527f73656e646572202573204c494e4b2062616c616e6365202564000000000000006020830152565b9081602091031261037e5751801515810361037e5790565b6001600160601b0361039e94936001600160a01b036060941683521660208201528160408201520190610911565b6040519061334f826102b4565b602682527f696f6e49643a00000000000000000000000000000000000000000000000000006040837f65786563757465526571756573742063616c6c656420776974682066756e637460208201520152565b9061031d61346060036133b2610310565b946133f26001600160401b0382546133dc6001600160a01b0382168a906001600160a01b03169052565b60a01c1660208801906001600160401b03169052565b60018101546001600160601b038082166040890152606082811c82169089015261260c916134249060c01c60808a0152565b60028301546001600160601b038282161660a08a015290613456908260601c1660c08a01906001600160601b03169052565b60c01c60e0880152565b6001600160401b0316610100840152565b1561347857565b60405162461bcd60e51b815260206004820152601a60248201527f66756e6374696f6e206973206e6f7420726567697374657265640000000000006044820152606490fd5b9081546134c981611af1565b926134d760405194856102cf565b818452600090815260208082208186015b8484106134f6575050505050565b6001838192613504856107ea565b8152019201930192906134e8565b9060405161351f8161025d565b60a06135826003839561355a60ff825461353b828216896128ae565b61354d828260081c1660208a016128ae565b60101c16604087016128c4565b613566600182016107ea565b6060860152613577600282016107ea565b6080860152016134bd565b910152565b6040519061359482610299565b601b82527f636f6c6c656374696e6720616e64206c6f636b696e67206665657300000000006020830152565b60405190608082018281106001600160401b038211176102785760405260006060838281528260208201528260408201520152565b9081602091031261037e575161039e81611a40565b91909160a081526060518060a083015260005b8181106136785750606060c08260008260809587010152601f8019910116840101946001600160401b0381511660208501526001600160a01b03602082015116604085015263ffffffff604082015116828501520151910152565b608081015183820160c0015260200161361d565b9190916001600160601b0380809416911601918211612a5157565b156136ae57565b60405162461bcd60e51b815260206004820152603a60248201527f55736572206973206e6f7420617070726f76656420746f207472616e7366657260448201527f204c494e4b20746f2066756e6374696f6e73206d616e616765720000000000006064820152608490fd5b1561372057565b60405162461bcd60e51b815260206004820152603160248201527f596f7520646f206e6f74206861766520656e6f756768204c494e4b20746f206360448201527f616c6c20746869732066756e6374696f6e0000000000000000000000000000006064820152608490fd5b6040519061379882610299565b601482527f5472616e7366657272696e67202564204c494e4b0000000000000000000000006020830152565b156137cb57565b60405162461bcd60e51b815260206004820152602260248201527f4661696c656420746f20636f6c6c65637420666565732066726f6d2063616c6c60448201526132b960f11b6064820152608490fd5b6040519061382882610299565b601c82527f726573657276656420737562736372697074696f6e20666565202564000000006020830152565b9190916001600160601b0380809416911602918216918203612a5157565b6001600160601b039182169082160391908211612a5157565b6001600160601b03809116908114612a515760010190565b604051906138b082610299565b601982527f73656e64696e672066756e6374696f6e732072657175657374000000000000006020830152565b156138e357565b60405162461bcd60e51b815260206004820152601960248201527f5265717565737420494420616c726561647920657869737473000000000000006044820152606490fd5b604051906139358261027d565b6060610100836000808252806020830152806040830152808483015280608083015260a08201528260c08201528260e08201520152565b600761010061031d9380518455613990612ecc60208301516001600160a01b031690565b604081015160028501556139cb600385016139b861302c60608501516001600160601b031690565b60808301516001600160601b0316612286565b613a016139e260a08301516001600160601b031690565b60048601906001600160601b03166001600160601b0319825416179055565b613a1260c082015160058601612dc1565b613a2360e082015160068601612cdd565b01519101612cdd565b60405190613a3982610299565b601d82527f656d697474696e672046756e6374696f6e43616c6c6564206576656e740000006020830152565b9395929083916001600160a01b0360c087019216865260009760209489868901526001600160601b03928380921660408a015216606088015216608086015260c060a08601525260e083019260e08360051b820101958581925b858410613ad157505050505050505090565b909192939495969760df198282030188528835601e1984360301811215613b3357830186813591016001600160401b038211613b2f578136038113613b2f57613b1f6001938993849361275e565b9a01980196959401929190613abf565b8580fd5b8480fd5b613bf690613b466105f1613342565b613b4f81615a56565b613b666104ff826000526005602052604060002090565b93613b8b6001600160a01b03613b8387516001600160a01b031690565b161515613471565b613ba7613ba2836000526007602052604060002090565b613512565b816140e0575b613bb86105f1613587565b613bc06135c0565b94613bd6610404600b546001600160a01b031690565b95604051809763f1e14a2160e01b825281806020998a956004830161360a565b03915afa95861561078c576000966140b1575b506040870192613c2084516001600160601b031690565b92613c2b848961368c565b94878a0190613c4182516001600160401b031690565b96613c57610404600a546001600160a01b031690565b604051636eb1769f60e11b815233600482015230602482015290918b82604481865afa90811561078c578c92600092614092575b506001600160601b0393613ca4858316809410156136a7565b6040516370a0823160e01b8082523360048301529481602481855afa801561078c578f91613ce492600092614075575b505033613cdf6132c3565b615c00565b6040519384523360048501528d84602481845afa91821561078c57613d2b8f94613d1e81613d63966000998a91614058575b501015613719565b613d2661378b565b615ac6565b6040516323b872dd60e01b81523360048201523060248201526001600160601b03909116604482015293849283919082906064820190565b03925af1801561078c57613d7f9160009161403b575b506137c4565b613d9c886001600160401b03166000526009602052604060002090565b546001600160601b031690613daf61381b565b9116613dba91615ac6565b516001600160601b0316600d5460601c63ffffffff1663ffffffff16613ddf91613854565b60646001600160601b039091160495613e0b906001600160401b03166000526009602052604060002090565b8054613e21908b906001600160601b031661368c565b81546bffffffffffffffffffffffff19166001600160601b03909116179055600d5486906001600160601b031690613e589161368c565b613e78906001600160601b03166001600160601b0319600d541617600d55565b613e828686613872565b60a08b01908151613e99906001600160601b031690565b90613ea39161368c565b6001600160601b0316905260808a0180516001600160401b0316613ec69061321a565b6001600160401b03169052600e546001600160601b0316613ee69061388b565b613f06906001600160601b03166001600160601b0319600e541617600e55565b89613f1b886000526005602052604060002090565b90613f2591612f93565b613f2d6138a3565b613f3690615a98565b516001600160401b0316600d5460801c63ffffffff1690613f5692614cbf565b978896613f6d886000526006602052604060002090565b5415613f78906138dc565b613f80613928565b8781523391810191909152613f9636848661205c565b60c08201526001600160601b03891660808201526001600160601b03851660608201526001600160601b03861660a0820152613fdc886000526006602052604060002090565b90613fe69161396c565b613fee613a2c565b613ff790615a98565b516001600160a01b03169160405194859433996140149587613a65565b037ff874b0680e8c93e38d3d8352564c64b6b6b6e6c1ce8faa98832ed5804980d0e791a490565b61405291508c8d3d10610b9057610b8281836102cf565b38613d79565b61406f9150893d8b116115655761155781836102cf565b38613d16565b61408b9250803d106115655761155781836102cf565b8f80613cd4565b6140aa919250833d85116115655761155781836102cf565b9038613c8b565b6140d2919650853d87116140d9575b6140ca81836102cf565b8101906135f5565b9438613c09565b503d6140c0565b6140f46140ee36848861205c565b82614881565b613bad565b1561410057565b60405162461bcd60e51b815260206004820152604a60248201527f4f6e6c7920746865206f776e6572206f7220616e20617574686f72697a65642060448201527f636f6e73756d6572206f662074686520737562736372697074696f6e2063616e60648201527f20726566696c6c20697400000000000000000000000000000000000000000000608482015260a490fd5b6040519061419e826102b4565b603782527f6c6c20617661696c61626c652062616c616e63652025640000000000000000006040837f526566696c6c696e6720737562736372697074696f6e2025642077697468206160208201520152565b6141f861291f565b9061420d6001600160401b0382168093615ac6565b614222610404600b546001600160a01b031690565b60405163523e3b4b60e11b81526001600160401b038316600482015290926000918281602481885afa90811561078c5783908492614479575b50303314958615614464575b508515614442575b851561442d575b5084156143c0575b509161436a916142dc602094614296614395976140f9565b6142c36142b6856001600160401b03166000526009602052604060002090565b546001600160601b031690565b906001600160601b036142d4614191565b921691615b55565b6142fc6142b6836001600160401b03166000526009602052604060002090565b9061431d6122b5846001600160401b03166000526009602052604060002090565b614332610404600a546001600160a01b031690565b9261437861434b610404600b546001600160a01b031690565b916040519687918983019190916001600160401b036020820193169052565b03601f1981018752866102cf565b604051630200057560e51b81529687958694859360048501613314565b03925af1801561078c576143a65750565b6143bd9060203d8111610b9057610b8281836102cf565b50565b825b815181101561441457336143dc6104046116288486612a56565b146143ef576143ea90612a42565b6143c2565b505061439593509161436a916142dc60209461429660015b975050929450509161427e565b50509161436a916142dc60209461429661439597614407565b6001600160a01b039195501633149338614276565b945061445c610404610404600c546001600160a01b031690565b33149461426f565b6001600160a01b039196501633149438614267565b905061448f91503d8085833e61077c81836102cf565b91503861425b565b604051906144a4826102b4565b603182527f734d616e61676572206f776e65722025730000000000000000000000000000006040837f5769746864726177696e6720616c6c206665657320746f2046756e6374696f6e60208201520152565b156144fd57565b60405162461bcd60e51b815260206004820152603160248201527f6661696c656420746f207472616e73666572206c696e6b20746f2046756e637460448201527f696f6e734d616e61676572206f776e65720000000000000000000000000000006064820152608490fd5b1561456f57565b60405162461bcd60e51b815260206004820152606860248201527f4d7573742062652046756e6374696f6e734d616e616765722c2046756e63746960448201527f6f6e734d616e61676572206f776e65722c206f722066756e6374696f6e206f7760648201527f6e657220746f2077697468647261772070726f66697420746f2066756e63746960848201527f6f6e206f776e657200000000000000000000000000000000000000000000000060a482015260c490fd5b1561462d57565b60405162461bcd60e51b815260206004820152602960248201527f6661696c656420746f207472616e73666572206c696e6b20746f2066756e637460448201527f696f6e206f776e657200000000000000000000000000000000000000000000006064820152608490fd5b60005b815181101561470a576146ae8183612a56565b5190303b1561037e57604091825190630f9acbfd60e11b8252600482015260008160248183305af1801561078c576146f1575b506146ec9150612a42565b61469b565b6001600160401b038111610278576146ec9252386146e1565b5050565b906147d0600761471c610310565b938054855261474861473860018301546001600160a01b031690565b6001600160a01b03166020870152565b6002810154604086015260038101546001600160601b0380821660608801526147819160601c1660808701906001600160601b03169052565b6147a861479860048301546001600160601b031690565b6001600160601b031660a0870152565b6147b4600582016134bd565b60c08601526147c5600682016107ea565b60e0860152016107ea565b610100830152565b60009080825260066020526147f360076040842001546107b0565b61480d5760408260069261039e94528260205220016107ea565b60408260079261039e9452600660205220016107ea565b908351156148495760609261483c61484592846128ae565b604083016128c4565b0152565b6040516322ce3edd60e01b8152600490fd5b81511561486f576001602082015260800152565b60405163e889636f60e01b8152600490fd5b81511561488e5760a00152565b60405163fe936cb760e01b8152600490fd5b6001600160401b036148f694926020946148c56001600160a01b036000541694614aa7565b9463ffffffff6040519889978896879663d227d24560e01b8852166004870152608060248701526084860190610911565b92166044840152606483015203915afa90811561078c57600091614918575090565b61039e915060203d81116140d9576140ca81836102cf565b6040519061493d82610299565b6000602083606081520152565b6040519061495782610299565b6000602083614964614930565b81520152565b6040519061497782610299565b600c82527f636f64654c6f636174696f6e00000000000000000000000000000000000000006020830152565b604051906149b082610299565b600882527f6c616e67756167650000000000000000000000000000000000000000000000006020830152565b604051906149e982610299565b600682527f736f7572636500000000000000000000000000000000000000000000000000006020830152565b60405190614a2282610299565b60048252636172677360e01b6020830152565b60405190614a4282610299565b600f82527f736563726574734c6f636174696f6e00000000000000000000000000000000006020830152565b60405190614a7b82610299565b600782527f73656372657473000000000000000000000000000000000000000000000000006020830152565b614aaf61494a565b90614aba8251615025565b50614acc614ac661496a565b83615717565b614ae98151614ada816108c0565b614ae3816108c0565b836150a4565b614af4614ac66149a3565b614b0e6040820151614b05816108d7565b614ae3816108d7565b614b19614ac66149dc565b614b27606082015183615717565b60a08101805151614bc7575b506080810190815151614b48575b5050515190565b602001908151614b57816108c0565b614b60816108c0565b15614bb557614b96614bae92614b7d614b77614a35565b86615717565b51614b87816108c0565b614b90816108c0565b846150a4565b614ba7614ba1614a6e565b84615717565b5182615665565b3880614b41565b60405163a80d31f760e01b8152600490fd5b92614bd3614ba1614a15565b614bdc8361579b565b60005b84518051821015614c0c5790614c02614bfb82614c0794612a56565b5186615717565b612a42565b614bdf565b50509250614c1982615827565b38614b33565b60405190614c2c826102b4565b602982527f6c69656e74206c696200000000000000000000000000000000000000000000006040837f53656e64696e6720726571756573742066726f6d2066756e6374696f6e73206360208201520152565b916127a063ffffffff916001600160401b03604094979697168552606060208601526060850190610911565b9081602091031261037e575161039e8161230f565b614d139291614ccf6105f1614c1f565b6000938492614cf1614ceb61040486546001600160a01b031690565b91614aa7565b94604051968780948193630a090ac160e21b83526020998a9860048501614c7e565b03925af192831561078c578193614deb575b508082614d3e610404600494546001600160a01b031690565b604051635ab1bd5360e01b815293849182905afa92831561078c5784937f1131472297a800fee664d1d89cfa8f7676ff07189ecc53f80bbb5f4969099db893614db9928492614dbe575b5050614d9e856000526001602052604060002090565b906001600160a01b03166001600160a01b0319825416179055565b80a290565b614ddd9250803d10614de4575b614dd581836102cf565b810190614caa565b3880614d88565b503d614dcb565b6004919350614e0690833d85116115655761155781836102cf565b9290614d25565b15614e1457565b60405162461bcd60e51b815260206004820152603260248201527f4f6e6c7920746865202042696c6c696e672052656769737472792063616e206360448201527f616c6c2066756c66696c6c5265717565737400000000000000000000000000006064820152608490fd5b15614e8657565b60405162461bcd60e51b815260206004820152602560248201527f52657175657374206e6f7420666f756e6420696e2046756e6374696f6e734d6160448201527f6e616765720000000000000000000000000000000000000000000000000000006064820152608490fd5b15614ef857565b60405162461bcd60e51b815260206004820152602660248201527f46756e6374696f6e206e6f7420666f756e6420696e2046756e6374696f6e734d60448201527f616e6167657200000000000000000000000000000000000000000000000000006064820152608490fd5b60405190614f70826102b4565b603b82527f67206966206e6565642066696c6c20737562736372697074696f6e00000000006040837f46696e697368656420756e6c6f636b696e6720666565732c20636865636b696e60208201520152565b9261039e94926001600160a01b03614fed931685526020850152608060408501526080840190610911565b916060818403910152610911565b601f19810191908211612a5157565b9060208201809211612a5157565b91908201809211612a5157565b61502d614930565b50610100602082015260405180825260008152610120810190811061037e5760405290565b9061505b614930565b50601f81168061508a575b508060208301526040519081835260008252810160200190811061037e5760405290565b60200360208111612a51578101809111612a515738615066565b908151916150b0614930565b508251516001810190818111612a51576020850151811015615109575b60c2602061031d9651928301015380518211615101575b5050604051916020830152602082526150fc82610299565b615665565b5238806150e4565b8160011b9482860460021483151715612a515760208161513b61031d9861513460c295519184615052565b50826155ad565b50965050506150cd565b61514d614930565b508051516001810190818111612a51576020830151811015615186575b605b6020845192830101538051821161518257505090565b5290565b8160011b82810460021483151715612a51576151af906151a885519186615052565b50846155ad565b5061516a565b6151bd614930565b508051516001810190818111612a515760208301518110156151f2575b605a6020845192830101538051821161518257505090565b8160011b82810460021483151715612a5157615214906151a885519186615052565b506151da565b615222614930565b508051516001810190818111612a51576020830151811015615257575b60596020845192830101538051821161518257505090565b8160011b82810460021483151715612a5157615279906151a885519186615052565b5061523f565b615287614930565b508051516001810190818111612a515760208301518110156152bc575b60586020845192830101538051821161518257505090565b8160011b82810460021483151715612a51576152de906151a885519186615052565b506152a4565b6152ec614930565b508051516001810190818111612a51576020830151811015615321575b607b6020845192830101538051821161518257505090565b8160011b82810460021483151715612a5157615343906151a885519186615052565b50615309565b615351614930565b508051516001810190818111612a51576020830151811015615386575b607a6020845192830101538051821161518257505090565b8160011b82810460021483151715612a51576153a8906151a885519186615052565b5061536e565b6153b6614930565b508051516001810190818111612a515760208301518110156153eb575b60796020845192830101538051821161518257505090565b8160011b82810460021483151715612a515761540d906151a885519186615052565b506153d3565b61541b614930565b508051516001810190818111612a51576020830151811015615450575b60786020845192830101538051821161518257505090565b8160011b82810460021483151715612a5157615472906151a885519186615052565b50615438565b90615481614930565b508151516001810191828211612a515760208401518210156154b4575b6020845192830101538051821161518257505090565b8260011b83810460021484151715612a51576154dd906154d686519187615052565b50856155ad565b5061549e565b906154f082519183615052565b506154f9614930565b50805190615505614930565b50615513815183111561565e565b825151926155218385615018565b916020928284809401518211615596575b518381519782010196821161558e575b505001915b818110156155685760001991036101000a0190811990511690825116179052565b919261558361557d615589928651815261500a565b9461500a565b92614ffb565b615547565b523880615542565b6155a86155a283612dab565b826154e3565b615532565b906155b6614930565b5080516155c1614930565b506155cf825182111561565e565b825151916155dd8284615018565b6020918291828701518111615647575b86518381519782010196821161563f575b505001915b818110156156255760001991036101000a019081199051169082511617905290565b919261558361557d61563a928651815261500a565b615603565b5238806155fe565b61565961565382612dab565b886154e3565b6155ed565b1561037e57565b81516143bd9291906001600160401b038116906017821161569c576156949150604060ff845192161790615478565b505b516155ad565b5060ff81116156c1576156bb906156b3835161527f565b5082516159f0565b50615696565b61ffff81116156e0576156bb906156d8835161521a565b508251615989565b63ffffffff8111615701576156bb906156f983516151b5565b508251615920565b6156bb9061570f8351615145565b5082516158b4565b81516143bd9291906001600160401b0381169060178211615746576156949150606060ff845192161790615478565b5060ff811161575d576156bb906156b38351615413565b61ffff8111615774576156bb906156d883516153ae565b63ffffffff811161578d576156bb906156f98351615349565b6156bb9061570f83516152e4565b8051906157a6614930565b508151516001810190818111612a515760208401518110156157f4575b609f60208095519283010153805182116157ec575b50500180519060018201809211612a515752565b5238806157d8565b8160011b9382850460021483151715612a515760208161581d8297615134609f95519184615052565b50955050506157c3565b805190615832614930565b508151516001810190818111612a51576020840151811015615881575b60ff6020809551928301015380518211615879575b5050018051600019810191908211612a515752565b523880615864565b8160011b9382850460021483151715612a51576020816158aa829761513460ff95519184615052565b509550505061584f565b906158bd614930565b50815151806008019182600811612a5157602084015183116158ff575b6008845192830101906001600160401b03198251161790528051821161518257505090565b8260011b83810460021484151715612a515761591b90856154e3565b6158da565b90615929614930565b50815151806004019182600411612a515760208401518311615968575b60048451928301019063ffffffff198251161790528051821161518257505090565b8260011b83810460021484151715612a515761598490856154e3565b615946565b90615992614930565b50815151806002019182600211612a5157602084015183116159cf575b60028451928301019061ffff198251161790528051821161518257505090565b8260011b83810460021484151715612a51576159eb90856154e3565b6159af565b906159f9614930565b50815151806001019182600111612a515760208401518311615a35575b60018451928301019060ff198251161790528051821161518257505090565b8260011b83810460021484151715612a5157615a5190856154e3565b615a16565b61031d90604051906327b7cf8560e01b6020830152602482015260248152615a7d816102b4565b600080916020815191016a636f6e736f6c652e6c6f675afa50565b611329615a7d61031d9260405192839163104c13eb60e21b6020840152602060248401526044830190610911565b615a7d615af59161031d93604051938492632d839cb360e21b6020850152604060248501526064840190610911565b90604483015203601f1981018352826102cf565b615a7d615b409161031d936001600160a01b0360405194859363319af33360e01b6020860152604060248601526064850190610911565b9116604483015203601f1981018352826102cf565b615a7d90615b859261031d9460405194859363ca47c4eb60e01b6020860152606060248601526084850190610911565b916044840152606483015203601f1981018352826102cf565b615a7d9061031d936001600160a01b03615beb615bd9956040519687956395ed019560e01b6020880152606060248801526084870190610911565b85810360231901604487015290610911565b9116606483015203601f1981018352826102cf565b615a7d90615c389261031d946001600160a01b03604051958694630d26b92560e01b6020870152606060248701526084860190610911565b92166044840152606483015203601f1981018352826102cf56fea26469706673582212207def674d212cf865b8ec2eb078c57b84d73b123d6f297e09ebc4531913edf23a64736f6c63430008120033",
  "linkReferences": {},
  "deployedLinkReferences": {}
}