{
  "_format": "hh-sol-artifact-1",
  "contractName": "FunctionsConsumer",
  "sourceName": "contracts/functions/FunctionsConsumer.sol",
  "abi": [
    {
      "inputs": [
        {
          "internalType": "address",
          "name": "oracle",
          "type": "address"
        }
      ],
      "stateMutability": "nonpayable",
      "type": "constructor"
    },
    {
      "inputs": [],
      "name": "EmptyArgs",
      "type": "error"
    },
    {
      "inputs": [],
      "name": "EmptySecrets",
      "type": "error"
    },
    {
      "inputs": [],
      "name": "EmptySource",
      "type": "error"
    },
    {
      "inputs": [],
      "name": "NoInlineSecrets",
      "type": "error"
    },
    {
      "inputs": [],
      "name": "RequestIsAlreadyPending",
      "type": "error"
    },
    {
      "inputs": [],
      "name": "RequestIsNotPending",
      "type": "error"
    },
    {
      "inputs": [],
      "name": "SenderIsNotRegistry",
      "type": "error"
    },
    {
      "anonymous": false,
      "inputs": [
        {
          "indexed": false,
          "internalType": "bytes32",
          "name": "requestId",
          "type": "bytes32"
        },
        {
          "indexed": false,
          "internalType": "bytes",
          "name": "response",
          "type": "bytes"
        },
        {
          "indexed": false,
          "internalType": "bytes",
          "name": "err",
          "type": "bytes"
        }
      ],
      "name": "FulfillRequest",
      "type": "event"
    },
    {
      "anonymous": false,
      "inputs": [
        {
          "indexed": true,
          "internalType": "bytes32",
          "name": "requestId",
          "type": "bytes32"
        },
        {
          "indexed": false,
          "internalType": "bytes",
          "name": "result",
          "type": "bytes"
        },
        {
          "indexed": false,
          "internalType": "bytes",
          "name": "err",
          "type": "bytes"
        }
      ],
      "name": "OCRResponse",
      "type": "event"
    },
    {
      "anonymous": false,
      "inputs": [
        {
          "indexed": true,
          "internalType": "address",
          "name": "from",
          "type": "address"
        },
        {
          "indexed": true,
          "internalType": "address",
          "name": "to",
          "type": "address"
        }
      ],
      "name": "OwnershipTransferRequested",
      "type": "event"
    },
    {
      "anonymous": false,
      "inputs": [
        {
          "indexed": true,
          "internalType": "address",
          "name": "from",
          "type": "address"
        },
        {
          "indexed": true,
          "internalType": "address",
          "name": "to",
          "type": "address"
        }
      ],
      "name": "OwnershipTransferred",
      "type": "event"
    },
    {
      "anonymous": false,
      "inputs": [
        {
          "indexed": true,
          "internalType": "bytes32",
          "name": "id",
          "type": "bytes32"
        }
      ],
      "name": "RequestFulfilled",
      "type": "event"
    },
    {
      "anonymous": false,
      "inputs": [
        {
          "indexed": true,
          "internalType": "bytes32",
          "name": "id",
          "type": "bytes32"
        }
      ],
      "name": "RequestSent",
      "type": "event"
    },
    {
      "inputs": [],
      "name": "acceptOwnership",
      "outputs": [],
      "stateMutability": "nonpayable",
      "type": "function"
    },
    {
      "inputs": [
        {
          "internalType": "address",
          "name": "oracleAddress",
          "type": "address"
        },
        {
          "internalType": "bytes32",
          "name": "requestId",
          "type": "bytes32"
        }
      ],
      "name": "addSimulatedRequestId",
      "outputs": [],
      "stateMutability": "nonpayable",
      "type": "function"
    },
    {
      "inputs": [
        {
          "components": [
            {
              "internalType": "enum Functions.Location",
              "name": "codeLocation",
              "type": "uint8"
            },
            {
              "internalType": "enum Functions.Location",
              "name": "secretsLocation",
              "type": "uint8"
            },
            {
              "internalType": "enum Functions.CodeLanguage",
              "name": "language",
              "type": "uint8"
            },
            {
              "internalType": "string",
              "name": "source",
              "type": "string"
            },
            {
              "internalType": "bytes",
              "name": "secrets",
              "type": "bytes"
            },
            {
              "internalType": "string[]",
              "name": "args",
              "type": "string[]"
            }
          ],
          "internalType": "struct Functions.Request",
          "name": "req",
          "type": "tuple"
        },
        {
          "internalType": "uint64",
          "name": "subscriptionId",
          "type": "uint64"
        },
        {
          "internalType": "uint32",
          "name": "gasLimit",
          "type": "uint32"
        },
        {
          "internalType": "uint256",
          "name": "gasPrice",
          "type": "uint256"
        }
      ],
      "name": "estimateCost",
      "outputs": [
        {
          "internalType": "uint96",
          "name": "",
          "type": "uint96"
        }
      ],
      "stateMutability": "view",
      "type": "function"
    },
    {
      "inputs": [
        {
          "internalType": "string",
          "name": "source",
          "type": "string"
        },
        {
          "internalType": "bytes",
          "name": "secrets",
          "type": "bytes"
        },
        {
          "internalType": "string[]",
          "name": "args",
          "type": "string[]"
        },
        {
          "internalType": "uint64",
          "name": "subscriptionId",
          "type": "uint64"
        },
        {
          "internalType": "uint32",
          "name": "gasLimit",
          "type": "uint32"
        }
      ],
      "name": "executeRequest",
      "outputs": [
        {
          "internalType": "bytes32",
          "name": "",
          "type": "bytes32"
        }
      ],
      "stateMutability": "nonpayable",
      "type": "function"
    },
    {
      "inputs": [],
      "name": "getDONPublicKey",
      "outputs": [
        {
          "internalType": "bytes",
          "name": "",
          "type": "bytes"
        }
      ],
      "stateMutability": "view",
      "type": "function"
    },
    {
      "inputs": [
        {
          "internalType": "bytes32",
          "name": "requestId",
          "type": "bytes32"
        },
        {
          "internalType": "bytes",
          "name": "response",
          "type": "bytes"
        },
        {
          "internalType": "bytes",
          "name": "err",
          "type": "bytes"
        }
      ],
      "name": "handleOracleFulfillment",
      "outputs": [],
      "stateMutability": "nonpayable",
      "type": "function"
    },
    {
      "inputs": [],
      "name": "latestError",
      "outputs": [
        {
          "internalType": "bytes",
          "name": "",
          "type": "bytes"
        }
      ],
      "stateMutability": "view",
      "type": "function"
    },
    {
      "inputs": [],
      "name": "latestRequestId",
      "outputs": [
        {
          "internalType": "bytes32",
          "name": "",
          "type": "bytes32"
        }
      ],
      "stateMutability": "view",
      "type": "function"
    },
    {
      "inputs": [],
      "name": "latestResponse",
      "outputs": [
        {
          "internalType": "bytes",
          "name": "",
          "type": "bytes"
        }
      ],
      "stateMutability": "view",
      "type": "function"
    },
    {
      "inputs": [],
      "name": "owner",
      "outputs": [
        {
          "internalType": "address",
          "name": "",
          "type": "address"
        }
      ],
      "stateMutability": "view",
      "type": "function"
    },
    {
      "inputs": [
        {
          "internalType": "address",
          "name": "to",
          "type": "address"
        }
      ],
      "name": "transferOwnership",
      "outputs": [],
      "stateMutability": "nonpayable",
      "type": "function"
    },
    {
      "inputs": [
        {
          "internalType": "address",
          "name": "oracle",
          "type": "address"
        }
      ],
      "name": "updateOracleAddress",
      "outputs": [],
      "stateMutability": "nonpayable",
      "type": "function"
    }
  ],
  "bytecode": "0x6080346100ca57601f61226e38819003918201601f19168301916001600160401b038311848410176100cf578084926020946040528339810103126100ca57516001600160a01b038116908190036100ca57600080546001600160a01b031990811690921790553315610085573390600254161760025560405161218890816100e68239f35b60405162461bcd60e51b815260206004820152601860248201527f43616e6e6f7420736574206f776e657220746f207a65726f00000000000000006044820152606490fd5b600080fd5b634e487b7160e01b600052604160045260246000fdfe6080604052600436101561001257600080fd5b60003560e01c80630ca76175146100d75780631aa46f59146100d257806327714589146100cd57806330bda99d146100c857806379ba5097146100c35780638da5cb5b146100be578063bef3a2f0146100b9578063d328a91e146100b4578063d4b39175146100af578063f2fde38b146100aa578063f7023bb6146100a55763fffeb84e146100a057600080fd5b610acd565b610a89565b6109b6565b6108aa565b610710565b610632565b610578565b6104ae565b610415565b61034d565b6102ad565b6101cb565b634e487b7160e01b600052604160045260246000fd5b6040810190811067ffffffffffffffff82111761010e57604052565b6100dc565b90601f8019910116810190811067ffffffffffffffff82111761010e57604052565b6040519060c0820182811067ffffffffffffffff82111761010e57604052565b67ffffffffffffffff811161010e57601f01601f191660200190565b92919261017d82610155565b9161018b6040519384610113565b8294818452818301116101a8578281602093846000960137010152565b600080fd5b9080601f830112156101a8578160206101c893359101610171565b90565b346101a85760603660031901126101a85767ffffffffffffffff6004356024358281116101a8576102009036906004016101ad565b916044359081116101a8576102199036906004016101ad565b60009282845260016020526001600160a01b03604085205416330361028357826102809385526001602052604085206001600160a01b03198154169055807f85e1543bf2f84fe80c6badbce3648c8539ad1df4d2b3d822938ca0538be727e68680a2611590565b80f35b60046040517fa0c5ec63000000000000000000000000000000000000000000000000000000008152fd5b346101a85760003660031901126101a8576020600454604051908152f35b9181601f840112156101a85782359167ffffffffffffffff83116101a857602083818601950101116101a857565b6064359067ffffffffffffffff821682036101a857565b6024359067ffffffffffffffff821682036101a857565b6084359063ffffffff821682036101a857565b6044359063ffffffff821682036101a857565b346101a85760a03660031901126101a85767ffffffffffffffff6004358181116101a85761037f9036906004016102cb565b91906024358281116101a8576103999036906004016102cb565b939092604435928184116101a857366023850112156101a85783600401359182116101a8573660248360051b860101116101a857610400956103f0956103dd6102f9565b9460246103e8610327565b970193611059565b6040519081529081906020820190565b0390f35b6001600160a01b038116036101a857565b346101a85760403660031901126101a85760043561043281610404565b60243561043d610b74565b60009181835260016020526001600160a01b0360408420541661048457610280918352600160205260408320906001600160a01b03166001600160a01b0319825416179055565b60046040517f8b457ad2000000000000000000000000000000000000000000000000000000008152fd5b346101a857600080600319360112610575576001600160a01b0380600354163303610531576002546001600160a01b0316600280546001600160a01b03191633179055906105076001600160a01b031960035416600355565b3391167f8be0079c531659141344cd1fd0a4f28419497f9722a3daafe3b4186f6b6457e08380a380f35b606460405162461bcd60e51b815260206004820152601660248201527f4d7573742062652070726f706f736564206f776e6572000000000000000000006044820152fd5b80fd5b346101a85760003660031901126101a85760206001600160a01b0360025416604051908152f35b90600182811c921680156105cf575b60208310146105b957565b634e487b7160e01b600052602260045260246000fd5b91607f16916105ae565b60005b8381106105ec5750506000910152565b81810151838201526020016105dc565b90602091610615815180928185528580860191016105d9565b601f01601f1916010190565b9060206101c89281815201906105fc565b346101a8576000806003193601126105755760405190806005546106558161059f565b808552916001918083169081156106e6575060011461068b575b6104008561067f81870382610113565b60405191829182610621565b9250600583527f036b6384b5eca791c62761152d0c79bb0604c104a5fb6f4eb0703f3154bb3db05b8284106106ce57505050810160200161067f8261040061066f565b805460208587018101919091529093019281016106b3565b8695506104009693506020925061067f94915060ff191682840152151560051b820101929361066f565b346101a857600080600319360112610575576004816001600160a01b03815416604051928380927fd328a91e0000000000000000000000000000000000000000000000000000000082525afa9081156107ff578291610778575b604051806104008482610621565b90503d8083833e6107898183610113565b8101906020818303126107f75780519067ffffffffffffffff82116107fb570181601f820112156107f7578051926107c084610155565b926107ce6040519485610113565b848452602085840101116105755750610400926107f191602080850191016105d9565b3861076a565b8280fd5b8380fd5b610bcc565b359060028210156101a857565b359060018210156101a857565b90929167ffffffffffffffff80851161010e578460051b604051936020809561084982850182610113565b8098815201918101938085116101a85781925b85841061086c5750505050505050565b83358581116101a857879161088484849387016101ad565b81520193019261085c565b9080601f830112156101a8578160206101c89335910161081e565b346101a8576003196080368201126101a85760043567ffffffffffffffff918282116101a85760c09082360301126101a8576108e4610135565b6108f082600401610804565b81526108fe60248301610804565b602082015261090f60448301610811565b604082015260648201358381116101a85761093090600436918501016101ad565b606082015260848201358381116101a85761095190600436918501016101ad565b608082015260a48201359283116101a857610978610997926004610400953692010161088f565b60a0820152610985610310565b61098d61033a565b9060643592610bfc565b6040516bffffffffffffffffffffffff90911681529081906020820190565b346101a85760203660031901126101a8576001600160a01b036004356109db81610404565b6109e3610b74565b16338114610a4557806001600160a01b03196003541617600355610a1e610a126002546001600160a01b031690565b6001600160a01b031690565b7fed8889f560326eb138920d842192f0eb3dd22b4f139c87a2c57538e05bae1278600080a3005b606460405162461bcd60e51b815260206004820152601760248201527f43616e6e6f74207472616e7366657220746f2073656c660000000000000000006044820152fd5b346101a85760203660031901126101a8576001600160a01b03600435610aae81610404565b610ab6610b74565b166001600160a01b03196000541617600055600080f35b346101a857600080600319360112610575576040519080600654610af08161059f565b808552916001918083169081156106e65750600114610b19576104008561067f81870382610113565b9250600683527ff652222313e28459528d920b65115c16c04f3efc82aaedc97be59f3f377c0d3f5b828410610b5c57505050810160200161067f8261040061066f565b80546020858701810191909152909301928101610b41565b6001600160a01b03600254163303610b8857565b606460405162461bcd60e51b815260206004820152601660248201527f4f6e6c792063616c6c61626c65206279206f776e6572000000000000000000006044820152fd5b6040513d6000823e3d90fd5b908160209103126101a857516bffffffffffffffffffffffff811681036101a85790565b67ffffffffffffffff610c6c9492602094610c226001600160a01b036000541694610ec9565b9463ffffffff604051988997889687967fd227d2450000000000000000000000000000000000000000000000000000000088521660048701526080602487015260848601906105fc565b92166044840152606483015203915afa9081156107ff57600091610c8e575090565b6101c8915060203d8111610caf575b610ca78183610113565b810190610bd8565b503d610c9d565b60405190610cc3826100f2565b6000602083606081520152565b60405190610cdd826100f2565b6000602083610cea610cb6565b81520152565b60405190610cfd826100f2565b600c82527f636f64654c6f636174696f6e00000000000000000000000000000000000000006020830152565b634e487b7160e01b600052602160045260246000fd5b60021115610d4957565b610d29565b60405190610d5b826100f2565b600882527f6c616e67756167650000000000000000000000000000000000000000000000006020830152565b60011115610d4957565b60405190610d9e826100f2565b600682527f736f7572636500000000000000000000000000000000000000000000000000006020830152565b60405190610dd7826100f2565b600482527f61726773000000000000000000000000000000000000000000000000000000006020830152565b634e487b7160e01b600052601160045260246000fd5b6000198114610e285760010190565b610e03565b8051821015610e415760209160051b010190565b634e487b7160e01b600052603260045260246000fd5b60405190610e64826100f2565b600f82527f736563726574734c6f636174696f6e00000000000000000000000000000000006020830152565b60405190610e9d826100f2565b600782527f73656372657473000000000000000000000000000000000000000000000000006020830152565b610ed1610cd0565b90610edc8251611703565b50610eee610ee8610cf0565b83611e11565b610f0b8151610efc81610d3f565b610f0581610d3f565b83611782565b610f16610ee8610d4e565b610f306040820151610f2781610d87565b610f0581610d87565b610f3b610ee8610d91565b610f49606082015183611e11565b60a08101805151611001575b506080810190815151610f6a575b5050515190565b602001908151610f7981610d3f565b610f8281610d3f565b15610fd757610fb8610fd092610f9f610f99610e57565b86611e11565b51610fa981610d3f565b610fb281610d3f565b84611782565b610fc9610fc3610e90565b84611e11565b5182611d5b565b3880610f63565b60046040517fa80d31f7000000000000000000000000000000000000000000000000000000008152fd5b9261100d610fc3610dca565b61101683611e96565b60005b84518051821015611046579061103c6110358261104194610e2d565b5186611e11565b610e19565b611019565b5050925061105382611f22565b38610f55565b96959491909392611068610b74565b6040519460c0860186811067ffffffffffffffff82111761010e5760405260008652600060208701526110bb604087019960008b52606088019260608452606060808a0152606060a08a01523691610171565b908151156111245760006110e39a818952525280611108575b5050806110ec575b505061121b565b6101c881600455565b611101916110fb91369161081e565b8261118c565b38806110dc565b61111d91611117913691610171565b8461114e565b38806110d4565b60046040517f22ce3edd000000000000000000000000000000000000000000000000000000008152fd5b815115611162576001602082015260800152565b60046040517fe889636f000000000000000000000000000000000000000000000000000000008152fd5b8151156111995760a00152565b60046040517ffe936cb7000000000000000000000000000000000000000000000000000000008152fd5b908160209103126101a8575190565b916111ff63ffffffff9167ffffffffffffffff6040949796971685526060602086015260608501906105fc565b9416910152565b908160209103126101a857516101c881610404565b61127d9291600093849261124261123c610a1286546001600160a01b031690565b91610ec9565b946040519687809481937f28242b040000000000000000000000000000000000000000000000000000000083526020998a98600485016111d2565b03925af19283156107ff57819361136d575b5080826112a8610a12600494546001600160a01b031690565b604051938480927f5ab1bd530000000000000000000000000000000000000000000000000000000082525afa9283156107ff5784937f1131472297a800fee664d1d89cfa8f7676ff07189ecc53f80bbb5f4969099db89361133b928492611340575b5050611320856000526001602052604060002090565b906001600160a01b03166001600160a01b0319825416179055565b80a290565b61135f9250803d10611366575b6113578183610113565b810190611206565b388061130a565b503d61134d565b600491935061139190833d8511611398575b6113898183610113565b8101906111c3565b929061128f565b503d61137f565b601f81116113ab575050565b600090600582527f036b6384b5eca791c62761152d0c79bb0604c104a5fb6f4eb0703f3154bb3db0906020601f850160051c83019410611406575b601f0160051c01915b8281106113fb57505050565b8181556001016113ef565b90925082906113e6565b601f811161141c575050565b600090600682527ff652222313e28459528d920b65115c16c04f3efc82aaedc97be59f3f377c0d3f906020601f850160051c83019410611477575b601f0160051c01915b82811061146c57505050565b818155600101611460565b9092508290611457565b90815167ffffffffffffffff811161010e576114a7816114a260065461059f565b611410565b602080601f83116001146114e357508192936000926114d8575b50508160011b916000199060031b1c191617600655565b0151905038806114c1565b90601f1983169461151660066000527ff652222313e28459528d920b65115c16c04f3efc82aaedc97be59f3f377c0d3f90565b926000905b87821061155357505083600195961061153a575b505050811b01600655565b015160001960f88460031b161c1916905538808061152f565b8060018596829496860151815501950193019061151b565b90916115826101c8936040845260408401906105fc565b9160208184039101526105fc565b9190805167ffffffffffffffff811161010e576115b7816115b260055461059f565b61139f565b602080601f8311600114611631575090807f7bab0ec163b5c132c72b8146ac4d6e067e82ed58f8b131150aa71c9258911562949392600091611626575b508160011b916000199060031b1c1916176005555b61161282611481565b6116216040519283928361156b565b0390a2565b9050820151386115f4565b600560005290601f1983167f036b6384b5eca791c62761152d0c79bb0604c104a5fb6f4eb0703f3154bb3db0926000905b8282106116c15750509183917f7bab0ec163b5c132c72b8146ac4d6e067e82ed58f8b131150aa71c9258911562969594600194106116a8575b5050811b01600555611609565b84015160001960f88460031b161c19169055388061169b565b80600185968294968a01518155019501930190611662565b601f19810191908211610e2857565b9060208201809211610e2857565b91908201809211610e2857565b61170b610cb6565b5061010060208201526040518082526000815261012081019081106101a85760405290565b90611739610cb6565b50601f811680611768575b50806020830152604051908183526000825281016020019081106101a85760405290565b60200360208111610e28578101809111610e285738611744565b9081519161178e610cb6565b508251516001810190818111610e285760208501518110156117e9575b60c260206117df96519283010153805182116117e1575b5050604051916020830152602082526117da826100f2565b611d5b565b565b5238806117c2565b8160011b9482860460021483151715610e285760208161181b6117df9861181460c295519184611730565b5082611ca3565b50965050506117ab565b908160011b9180830460021490151715610e2857565b611843610cb6565b508051516001810190818111610e2857602083015181101561187c575b605b6020845192830101538051821161187857505090565b5290565b8160011b82810460021483151715610e28576118a59061189e85519186611730565b5084611ca3565b50611860565b6118b3610cb6565b508051516001810190818111610e285760208301518110156118e8575b605a6020845192830101538051821161187857505090565b8160011b82810460021483151715610e285761190a9061189e85519186611730565b506118d0565b611918610cb6565b508051516001810190818111610e2857602083015181101561194d575b60596020845192830101538051821161187857505090565b8160011b82810460021483151715610e285761196f9061189e85519186611730565b50611935565b61197d610cb6565b508051516001810190818111610e285760208301518110156119b2575b60586020845192830101538051821161187857505090565b8160011b82810460021483151715610e28576119d49061189e85519186611730565b5061199a565b6119e2610cb6565b508051516001810190818111610e28576020830151811015611a17575b607b6020845192830101538051821161187857505090565b8160011b82810460021483151715610e2857611a399061189e85519186611730565b506119ff565b611a47610cb6565b508051516001810190818111610e28576020830151811015611a7c575b607a6020845192830101538051821161187857505090565b8160011b82810460021483151715610e2857611a9e9061189e85519186611730565b50611a64565b611aac610cb6565b508051516001810190818111610e28576020830151811015611ae1575b60796020845192830101538051821161187857505090565b8160011b82810460021483151715610e2857611b039061189e85519186611730565b50611ac9565b611b11610cb6565b508051516001810190818111610e28576020830151811015611b46575b60786020845192830101538051821161187857505090565b8160011b82810460021483151715610e2857611b689061189e85519186611730565b50611b2e565b90611b77610cb6565b508151516001810191828211610e28576020840151821015611baa575b6020845192830101538051821161187857505090565b8260011b83810460021484151715610e2857611bd390611bcc86519187611730565b5085611ca3565b50611b94565b90611be682519183611730565b50611bef610cb6565b50805190611bfb610cb6565b50611c098151831115611d54565b82515192611c1783856116f6565b916020928284809401518211611c8c575b5183815197820101968211611c84575b505001915b81811015611c5e5760001991036101000a0190811990511690825116179052565b9192611c79611c73611c7f92865181526116e8565b946116e8565b926116d9565b611c3d565b523880611c38565b611c9e611c9883611825565b82611bd9565b611c28565b90611cac610cb6565b508051611cb7610cb6565b50611cc58251821115611d54565b82515191611cd382846116f6565b6020918291828701518111611d3d575b865183815197820101968211611d35575b505001915b81811015611d1b5760001991036101000a019081199051169082511617905290565b9192611c79611c73611d3092865181526116e8565b611cf9565b523880611cf4565b611d4f611d4982611825565b88611bd9565b611ce3565b156101a857565b8151611d9392919067ffffffffffffffff81169060178211611d9657611d8b9150604060ff845192161790611b6e565b505b51611ca3565b50565b5060ff8111611dbb57611db590611dad8351611975565b5082516120ec565b50611d8d565b61ffff8111611dda57611db590611dd28351611910565b508251612085565b63ffffffff8111611dfb57611db590611df383516118ab565b50825161201c565b611db590611e09835161183b565b508251611faf565b8151611d9392919067ffffffffffffffff81169060178211611e4157611d8b9150606060ff845192161790611b6e565b5060ff8111611e5857611db590611dad8351611b09565b61ffff8111611e6f57611db590611dd28351611aa4565b63ffffffff8111611e8857611db590611df38351611a3f565b611db590611e0983516119da565b805190611ea1610cb6565b508151516001810190818111610e28576020840151811015611eef575b609f6020809551928301015380518211611ee7575b50500180519060018201809211610e285752565b523880611ed3565b8160011b9382850460021483151715610e2857602081611f188297611814609f95519184611730565b5095505050611ebe565b805190611f2d610cb6565b508151516001810190818111610e28576020840151811015611f7c575b60ff6020809551928301015380518211611f74575b5050018051600019810191908211610e285752565b523880611f5f565b8160011b9382850460021483151715610e2857602081611fa5829761181460ff95519184611730565b5095505050611f4a565b90611fb8610cb6565b50815151806008019182600811610e285760208401518311611ffb575b60088451928301019067ffffffffffffffff198251161790528051821161187857505090565b8260011b83810460021484151715610e28576120179085611bd9565b611fd5565b90612025610cb6565b50815151806004019182600411610e285760208401518311612064575b60048451928301019063ffffffff198251161790528051821161187857505090565b8260011b83810460021484151715610e28576120809085611bd9565b612042565b9061208e610cb6565b50815151806002019182600211610e2857602084015183116120cb575b60028451928301019061ffff198251161790528051821161187857505090565b8260011b83810460021484151715610e28576120e79085611bd9565b6120ab565b906120f5610cb6565b50815151806001019182600111610e285760208401518311612131575b60018451928301019060ff198251161790528051821161187857505090565b8260011b83810460021484151715610e285761214d9085611bd9565b61211256fea2646970667358221220c5ee2d55335eb91199daf3bc3d23b36f191ccf92ef0c862bc936de65f4936c6e64736f6c63430008120033",
  "linkReferences": {},
  "deployedLinkReferences": {}
}