{
  "_format": "hh-sol-artifact-1",
  "contractName": "FunctionsManager",
  "sourceName": "contracts/FunctionsManager.sol",
  "abi": [
    {
      "inputs": [
        {
          "internalType": "address",
          "name": "link",
          "type": "address"
        },
        {
          "internalType": "address",
          "name": "billingRegistryProxy",
          "type": "address"
        },
        {
          "internalType": "address",
          "name": "oracleProxy",
          "type": "address"
        },
        {
          "internalType": "uint96",
          "name": "_baseFee",
          "type": "uint96"
        },
        {
          "internalType": "uint32",
          "name": "_feeManagerCut",
          "type": "uint32"
        },
        {
          "internalType": "uint96",
          "name": "_minimumSubscriptionDeposit",
          "type": "uint96"
        }
      ],
      "stateMutability": "nonpayable",
      "type": "constructor"
    },
    {
      "inputs": [],
      "name": "EmptyArgs",
      "type": "error"
    },
    {
      "inputs": [],
      "name": "EmptySecrets",
      "type": "error"
    },
    {
      "inputs": [],
      "name": "EmptySource",
      "type": "error"
    },
    {
      "inputs": [],
      "name": "NoInlineSecrets",
      "type": "error"
    },
    {
      "inputs": [],
      "name": "RequestIsAlreadyPending",
      "type": "error"
    },
    {
      "inputs": [],
      "name": "RequestIsNotPending",
      "type": "error"
    },
    {
      "inputs": [],
      "name": "SenderIsNotRegistry",
      "type": "error"
    },
    {
      "anonymous": false,
      "inputs": [
        {
          "indexed": false,
          "internalType": "uint256",
          "name": "newBaseFee",
          "type": "uint256"
        }
      ],
      "name": "BaseFeeUpdated",
      "type": "event"
    },
    {
      "anonymous": false,
      "inputs": [
        {
          "indexed": false,
          "internalType": "uint256",
          "name": "newFeeManagerCut",
          "type": "uint256"
        }
      ],
      "name": "FeeManagerCutUpdated",
      "type": "event"
    },
    {
      "anonymous": false,
      "inputs": [
        {
          "indexed": false,
          "internalType": "bytes32",
          "name": "requestId",
          "type": "bytes32"
        },
        {
          "indexed": false,
          "internalType": "bytes",
          "name": "response",
          "type": "bytes"
        },
        {
          "indexed": false,
          "internalType": "bytes",
          "name": "err",
          "type": "bytes"
        }
      ],
      "name": "FulfillRequest",
      "type": "event"
    },
    {
      "anonymous": false,
      "inputs": [
        {
          "indexed": true,
          "internalType": "bytes32",
          "name": "functionId",
          "type": "bytes32"
        },
        {
          "indexed": true,
          "internalType": "bytes32",
          "name": "requestId",
          "type": "bytes32"
        },
        {
          "indexed": true,
          "internalType": "address",
          "name": "caller",
          "type": "address"
        },
        {
          "indexed": false,
          "internalType": "address",
          "name": "owner",
          "type": "address"
        },
        {
          "indexed": false,
          "internalType": "bytes32",
          "name": "callbackFunction",
          "type": "bytes32"
        },
        {
          "indexed": false,
          "internalType": "uint256",
          "name": "usedGas",
          "type": "uint256"
        },
        {
          "indexed": false,
          "internalType": "bytes",
          "name": "response",
          "type": "bytes"
        },
        {
          "indexed": false,
          "internalType": "bytes",
          "name": "err",
          "type": "bytes"
        }
      ],
      "name": "FunctionCallCompleted",
      "type": "event"
    },
    {
      "anonymous": false,
      "inputs": [
        {
          "indexed": true,
          "internalType": "bytes32",
          "name": "functionId",
          "type": "bytes32"
        },
        {
          "indexed": true,
          "internalType": "bytes32",
          "name": "requestId",
          "type": "bytes32"
        },
        {
          "indexed": true,
          "internalType": "address",
          "name": "caller",
          "type": "address"
        },
        {
          "indexed": false,
          "internalType": "address",
          "name": "owner",
          "type": "address"
        },
        {
          "indexed": false,
          "internalType": "bytes32",
          "name": "callbackFunction",
          "type": "bytes32"
        },
        {
          "indexed": false,
          "internalType": "uint256",
          "name": "gasDeposit",
          "type": "uint256"
        },
        {
          "indexed": false,
          "internalType": "uint96",
          "name": "baseFee",
          "type": "uint96"
        },
        {
          "indexed": false,
          "internalType": "uint96",
          "name": "fee",
          "type": "uint96"
        }
      ],
      "name": "FunctionCalled",
      "type": "event"
    },
    {
      "anonymous": false,
      "inputs": [
        {
          "indexed": true,
          "internalType": "bytes32",
          "name": "functionId",
          "type": "bytes32"
        },
        {
          "indexed": true,
          "internalType": "address",
          "name": "owner",
          "type": "address"
        },
        {
          "indexed": true,
          "internalType": "bytes32",
          "name": "category",
          "type": "bytes32"
        },
        {
          "components": [
            {
              "internalType": "address",
              "name": "owner",
              "type": "address"
            },
            {
              "internalType": "uint64",
              "name": "subId",
              "type": "uint64"
            },
            {
              "internalType": "string",
              "name": "name",
              "type": "string"
            },
            {
              "internalType": "string",
              "name": "desc",
              "type": "string"
            },
            {
              "internalType": "string",
              "name": "imageUrl",
              "type": "string"
            },
            {
              "internalType": "string[]",
              "name": "expectedArgs",
              "type": "string[]"
            },
            {
              "components": [
                {
                  "internalType": "enum Functions.Location",
                  "name": "codeLocation",
                  "type": "uint8"
                },
                {
                  "internalType": "enum Functions.Location",
                  "name": "secretsLocation",
                  "type": "uint8"
                },
                {
                  "internalType": "enum Functions.CodeLanguage",
                  "name": "language",
                  "type": "uint8"
                },
                {
                  "internalType": "string",
                  "name": "source",
                  "type": "string"
                },
                {
                  "internalType": "bytes",
                  "name": "secrets",
                  "type": "bytes"
                },
                {
                  "internalType": "string[]",
                  "name": "args",
                  "type": "string[]"
                }
              ],
              "internalType": "struct Functions.Request",
              "name": "request",
              "type": "tuple"
            },
            {
              "internalType": "bytes32",
              "name": "category",
              "type": "bytes32"
            },
            {
              "internalType": "uint96",
              "name": "fee",
              "type": "uint96"
            },
            {
              "internalType": "uint96",
              "name": "unlockedProfitPool",
              "type": "uint96"
            },
            {
              "internalType": "uint96",
              "name": "lockedProfitPool",
              "type": "uint96"
            }
          ],
          "indexed": false,
          "internalType": "struct FunctionsManager.FunctionMetadata",
          "name": "metadata",
          "type": "tuple"
        }
      ],
      "name": "FunctionRegistered",
      "type": "event"
    },
    {
      "anonymous": false,
      "inputs": [
        {
          "indexed": false,
          "internalType": "uint256",
          "name": "newMinimumDeposit",
          "type": "uint256"
        }
      ],
      "name": "MinimumSubscriptionDepositUpdated",
      "type": "event"
    },
    {
      "anonymous": false,
      "inputs": [
        {
          "indexed": true,
          "internalType": "bytes32",
          "name": "requestId",
          "type": "bytes32"
        },
        {
          "indexed": false,
          "internalType": "bytes",
          "name": "result",
          "type": "bytes"
        },
        {
          "indexed": false,
          "internalType": "bytes",
          "name": "err",
          "type": "bytes"
        }
      ],
      "name": "OCRResponse",
      "type": "event"
    },
    {
      "anonymous": false,
      "inputs": [
        {
          "indexed": true,
          "internalType": "address",
          "name": "from",
          "type": "address"
        },
        {
          "indexed": true,
          "internalType": "address",
          "name": "to",
          "type": "address"
        }
      ],
      "name": "OwnershipTransferRequested",
      "type": "event"
    },
    {
      "anonymous": false,
      "inputs": [
        {
          "indexed": true,
          "internalType": "address",
          "name": "from",
          "type": "address"
        },
        {
          "indexed": true,
          "internalType": "address",
          "name": "to",
          "type": "address"
        }
      ],
      "name": "OwnershipTransferred",
      "type": "event"
    },
    {
      "anonymous": false,
      "inputs": [
        {
          "indexed": true,
          "internalType": "bytes32",
          "name": "id",
          "type": "bytes32"
        }
      ],
      "name": "RequestFulfilled",
      "type": "event"
    },
    {
      "anonymous": false,
      "inputs": [
        {
          "indexed": true,
          "internalType": "bytes32",
          "name": "id",
          "type": "bytes32"
        }
      ],
      "name": "RequestSent",
      "type": "event"
    },
    {
      "inputs": [],
      "name": "acceptOwnership",
      "outputs": [],
      "stateMutability": "nonpayable",
      "type": "function"
    },
    {
      "inputs": [
        {
          "internalType": "address",
          "name": "_spender",
          "type": "address"
        },
        {
          "internalType": "uint256",
          "name": "_value",
          "type": "uint256"
        }
      ],
      "name": "approveTokenSpender",
      "outputs": [],
      "stateMutability": "nonpayable",
      "type": "function"
    },
    {
      "inputs": [
        {
          "internalType": "address",
          "name": "",
          "type": "address"
        }
      ],
      "name": "authorMetadata",
      "outputs": [
        {
          "internalType": "string",
          "name": "name",
          "type": "string"
        },
        {
          "internalType": "string",
          "name": "imageUrl",
          "type": "string"
        },
        {
          "internalType": "string",
          "name": "websiteUrl",
          "type": "string"
        }
      ],
      "stateMutability": "view",
      "type": "function"
    },
    {
      "inputs": [],
      "name": "baseFee",
      "outputs": [
        {
          "internalType": "uint96",
          "name": "",
          "type": "uint96"
        }
      ],
      "stateMutability": "view",
      "type": "function"
    },
    {
      "inputs": [
        {
          "internalType": "uint64",
          "name": "",
          "type": "uint64"
        }
      ],
      "name": "categoryNames",
      "outputs": [
        {
          "internalType": "string",
          "name": "",
          "type": "string"
        }
      ],
      "stateMutability": "view",
      "type": "function"
    },
    {
      "inputs": [
        {
          "components": [
            {
              "internalType": "enum Functions.Location",
              "name": "codeLocation",
              "type": "uint8"
            },
            {
              "internalType": "enum Functions.Location",
              "name": "secretsLocation",
              "type": "uint8"
            },
            {
              "internalType": "enum Functions.CodeLanguage",
              "name": "language",
              "type": "uint8"
            },
            {
              "internalType": "string",
              "name": "source",
              "type": "string"
            },
            {
              "internalType": "bytes",
              "name": "secrets",
              "type": "bytes"
            },
            {
              "internalType": "string[]",
              "name": "args",
              "type": "string[]"
            }
          ],
          "internalType": "struct Functions.Request",
          "name": "req",
          "type": "tuple"
        },
        {
          "internalType": "uint64",
          "name": "subscriptionId",
          "type": "uint64"
        },
        {
          "internalType": "uint32",
          "name": "gasLimit",
          "type": "uint32"
        },
        {
          "internalType": "uint256",
          "name": "gasPrice",
          "type": "uint256"
        }
      ],
      "name": "estimateCost",
      "outputs": [
        {
          "internalType": "uint96",
          "name": "",
          "type": "uint96"
        }
      ],
      "stateMutability": "view",
      "type": "function"
    },
    {
      "inputs": [
        {
          "internalType": "bytes32",
          "name": "functionId",
          "type": "bytes32"
        },
        {
          "internalType": "string[]",
          "name": "args",
          "type": "string[]"
        },
        {
          "internalType": "uint32",
          "name": "gasLimit",
          "type": "uint32"
        }
      ],
      "name": "executeRequest",
      "outputs": [
        {
          "internalType": "bytes32",
          "name": "",
          "type": "bytes32"
        }
      ],
      "stateMutability": "nonpayable",
      "type": "function"
    },
    {
      "inputs": [],
      "name": "feeManagerCut",
      "outputs": [
        {
          "internalType": "uint32",
          "name": "",
          "type": "uint32"
        }
      ],
      "stateMutability": "view",
      "type": "function"
    },
    {
      "inputs": [
        {
          "internalType": "bytes32",
          "name": "functionId",
          "type": "bytes32"
        }
      ],
      "name": "forceUnlockFees",
      "outputs": [],
      "stateMutability": "nonpayable",
      "type": "function"
    },
    {
      "inputs": [],
      "name": "functionManagerProfitPool",
      "outputs": [
        {
          "internalType": "uint96",
          "name": "",
          "type": "uint96"
        }
      ],
      "stateMutability": "view",
      "type": "function"
    },
    {
      "inputs": [
        {
          "internalType": "bytes32",
          "name": "",
          "type": "bytes32"
        }
      ],
      "name": "functionMetadatas",
      "outputs": [
        {
          "internalType": "address",
          "name": "owner",
          "type": "address"
        },
        {
          "internalType": "uint64",
          "name": "subId",
          "type": "uint64"
        },
        {
          "internalType": "string",
          "name": "name",
          "type": "string"
        },
        {
          "internalType": "string",
          "name": "desc",
          "type": "string"
        },
        {
          "internalType": "string",
          "name": "imageUrl",
          "type": "string"
        },
        {
          "components": [
            {
              "internalType": "enum Functions.Location",
              "name": "codeLocation",
              "type": "uint8"
            },
            {
              "internalType": "enum Functions.Location",
              "name": "secretsLocation",
              "type": "uint8"
            },
            {
              "internalType": "enum Functions.CodeLanguage",
              "name": "language",
              "type": "uint8"
            },
            {
              "internalType": "string",
              "name": "source",
              "type": "string"
            },
            {
              "internalType": "bytes",
              "name": "secrets",
              "type": "bytes"
            },
            {
              "internalType": "string[]",
              "name": "args",
              "type": "string[]"
            }
          ],
          "internalType": "struct Functions.Request",
          "name": "request",
          "type": "tuple"
        },
        {
          "internalType": "bytes32",
          "name": "category",
          "type": "bytes32"
        },
        {
          "internalType": "uint96",
          "name": "fee",
          "type": "uint96"
        },
        {
          "internalType": "uint96",
          "name": "unlockedProfitPool",
          "type": "uint96"
        },
        {
          "internalType": "uint96",
          "name": "lockedProfitPool",
          "type": "uint96"
        }
      ],
      "stateMutability": "view",
      "type": "function"
    },
    {
      "inputs": [
        {
          "internalType": "bytes32",
          "name": "",
          "type": "bytes32"
        }
      ],
      "name": "functionResponses",
      "outputs": [
        {
          "internalType": "bytes32",
          "name": "functionId",
          "type": "bytes32"
        },
        {
          "internalType": "address",
          "name": "caller",
          "type": "address"
        },
        {
          "internalType": "bytes32",
          "name": "callbackFunction",
          "type": "bytes32"
        },
        {
          "internalType": "uint256",
          "name": "gasDeposit",
          "type": "uint256"
        },
        {
          "internalType": "bytes",
          "name": "response",
          "type": "bytes"
        },
        {
          "internalType": "bytes",
          "name": "err",
          "type": "bytes"
        }
      ],
      "stateMutability": "view",
      "type": "function"
    },
    {
      "inputs": [],
      "name": "getDONPublicKey",
      "outputs": [
        {
          "internalType": "bytes",
          "name": "",
          "type": "bytes"
        }
      ],
      "stateMutability": "view",
      "type": "function"
    },
    {
      "inputs": [
        {
          "internalType": "bytes32",
          "name": "_functionId",
          "type": "bytes32"
        }
      ],
      "name": "getFunction",
      "outputs": [
        {
          "components": [
            {
              "internalType": "address",
              "name": "owner",
              "type": "address"
            },
            {
              "internalType": "uint64",
              "name": "subId",
              "type": "uint64"
            },
            {
              "internalType": "string",
              "name": "name",
              "type": "string"
            },
            {
              "internalType": "string",
              "name": "desc",
              "type": "string"
            },
            {
              "internalType": "string",
              "name": "imageUrl",
              "type": "string"
            },
            {
              "internalType": "string[]",
              "name": "expectedArgs",
              "type": "string[]"
            },
            {
              "components": [
                {
                  "internalType": "enum Functions.Location",
                  "name": "codeLocation",
                  "type": "uint8"
                },
                {
                  "internalType": "enum Functions.Location",
                  "name": "secretsLocation",
                  "type": "uint8"
                },
                {
                  "internalType": "enum Functions.CodeLanguage",
                  "name": "language",
                  "type": "uint8"
                },
                {
                  "internalType": "string",
                  "name": "source",
                  "type": "string"
                },
                {
                  "internalType": "bytes",
                  "name": "secrets",
                  "type": "bytes"
                },
                {
                  "internalType": "string[]",
                  "name": "args",
                  "type": "string[]"
                }
              ],
              "internalType": "struct Functions.Request",
              "name": "request",
              "type": "tuple"
            },
            {
              "internalType": "bytes32",
              "name": "category",
              "type": "bytes32"
            },
            {
              "internalType": "uint96",
              "name": "fee",
              "type": "uint96"
            },
            {
              "internalType": "uint96",
              "name": "unlockedProfitPool",
              "type": "uint96"
            },
            {
              "internalType": "uint96",
              "name": "lockedProfitPool",
              "type": "uint96"
            }
          ],
          "internalType": "struct FunctionsManager.FunctionMetadata",
          "name": "",
          "type": "tuple"
        }
      ],
      "stateMutability": "view",
      "type": "function"
    },
    {
      "inputs": [
        {
          "internalType": "bytes32",
          "name": "_requestId",
          "type": "bytes32"
        }
      ],
      "name": "getFunctionResponse",
      "outputs": [
        {
          "components": [
            {
              "internalType": "bytes32",
              "name": "functionId",
              "type": "bytes32"
            },
            {
              "internalType": "address",
              "name": "caller",
              "type": "address"
            },
            {
              "internalType": "bytes32",
              "name": "callbackFunction",
              "type": "bytes32"
            },
            {
              "internalType": "uint256",
              "name": "gasDeposit",
              "type": "uint256"
            },
            {
              "internalType": "bytes",
              "name": "response",
              "type": "bytes"
            },
            {
              "internalType": "bytes",
              "name": "err",
              "type": "bytes"
            }
          ],
          "internalType": "struct FunctionsManager.FunctionResponse",
          "name": "",
          "type": "tuple"
        }
      ],
      "stateMutability": "view",
      "type": "function"
    },
    {
      "inputs": [
        {
          "internalType": "uint64",
          "name": "_subscriptionId",
          "type": "uint64"
        }
      ],
      "name": "getSubscriptionBalance",
      "outputs": [
        {
          "internalType": "uint256",
          "name": "",
          "type": "uint256"
        }
      ],
      "stateMutability": "view",
      "type": "function"
    },
    {
      "inputs": [
        {
          "internalType": "bytes32",
          "name": "requestId",
          "type": "bytes32"
        },
        {
          "internalType": "bytes",
          "name": "response",
          "type": "bytes"
        },
        {
          "internalType": "bytes",
          "name": "err",
          "type": "bytes"
        }
      ],
      "name": "handleOracleFulfillment",
      "outputs": [],
      "stateMutability": "nonpayable",
      "type": "function"
    },
    {
      "inputs": [],
      "name": "minimumSubscriptionBalance",
      "outputs": [
        {
          "internalType": "uint96",
          "name": "",
          "type": "uint96"
        }
      ],
      "stateMutability": "view",
      "type": "function"
    },
    {
      "inputs": [],
      "name": "minimumSubscriptionDeposit",
      "outputs": [
        {
          "internalType": "uint96",
          "name": "",
          "type": "uint96"
        }
      ],
      "stateMutability": "view",
      "type": "function"
    },
    {
      "inputs": [],
      "name": "owner",
      "outputs": [
        {
          "internalType": "address",
          "name": "",
          "type": "address"
        }
      ],
      "stateMutability": "view",
      "type": "function"
    },
    {
      "inputs": [
        {
          "internalType": "uint64",
          "name": "_subscriptionId",
          "type": "uint64"
        }
      ],
      "name": "refillSubscription",
      "outputs": [],
      "stateMutability": "nonpayable",
      "type": "function"
    },
    {
      "inputs": [
        {
          "components": [
            {
              "internalType": "uint96",
              "name": "fees",
              "type": "uint96"
            },
            {
              "internalType": "string",
              "name": "functionName",
              "type": "string"
            },
            {
              "internalType": "string",
              "name": "desc",
              "type": "string"
            },
            {
              "internalType": "string",
              "name": "imageUrl",
              "type": "string"
            },
            {
              "internalType": "string[]",
              "name": "expectedArgs",
              "type": "string[]"
            },
            {
              "internalType": "enum Functions.Location",
              "name": "codeLocation",
              "type": "uint8"
            },
            {
              "internalType": "enum Functions.Location",
              "name": "secretsLocation",
              "type": "uint8"
            },
            {
              "internalType": "enum Functions.CodeLanguage",
              "name": "language",
              "type": "uint8"
            },
            {
              "internalType": "bytes32",
              "name": "category",
              "type": "bytes32"
            },
            {
              "internalType": "uint64",
              "name": "subId",
              "type": "uint64"
            },
            {
              "internalType": "string",
              "name": "source",
              "type": "string"
            },
            {
              "internalType": "bytes",
              "name": "secrets",
              "type": "bytes"
            }
          ],
          "internalType": "struct FunctionsManager.FunctionsRegisterRequest",
          "name": "request",
          "type": "tuple"
        }
      ],
      "name": "registerFunction",
      "outputs": [
        {
          "internalType": "bytes32",
          "name": "",
          "type": "bytes32"
        }
      ],
      "stateMutability": "payable",
      "type": "function"
    },
    {
      "inputs": [
        {
          "internalType": "uint96",
          "name": "_baseFee",
          "type": "uint96"
        }
      ],
      "name": "setBaseFee",
      "outputs": [],
      "stateMutability": "nonpayable",
      "type": "function"
    },
    {
      "inputs": [
        {
          "internalType": "uint32",
          "name": "_feeManagerCut",
          "type": "uint32"
        }
      ],
      "name": "setFeeManagerCut",
      "outputs": [],
      "stateMutability": "nonpayable",
      "type": "function"
    },
    {
      "inputs": [
        {
          "internalType": "uint96",
          "name": "_minimumDeposit",
          "type": "uint96"
        }
      ],
      "name": "setMinimumDeposit",
      "outputs": [],
      "stateMutability": "nonpayable",
      "type": "function"
    },
    {
      "inputs": [
        {
          "internalType": "uint64",
          "name": "",
          "type": "uint64"
        }
      ],
      "name": "subscriptionBalances",
      "outputs": [
        {
          "internalType": "uint96",
          "name": "",
          "type": "uint96"
        }
      ],
      "stateMutability": "view",
      "type": "function"
    },
    {
      "inputs": [
        {
          "internalType": "address",
          "name": "to",
          "type": "address"
        }
      ],
      "name": "transferOwnership",
      "outputs": [],
      "stateMutability": "nonpayable",
      "type": "function"
    }
  ],
  "bytecode": "0x6080346200021b57601f620052c638819003918201601f19168301916001600160401b03831184841017620002205780849260c0946040528339810103126200021b576200004d8162000236565b6200005b6020830162000236565b906200006a6040840162000236565b62000078606085016200024b565b9260808501519363ffffffff8516958686036200021b5760a06200009d91016200024b565b600080546001600160a01b039586166001600160a01b0319918216811790925591949091903315620001d657338260025416176002556c01000000000000000000000000600160c01b0319600e5416946064600f549a116200017757816fffffffff000000000000000000000000981683600b541617600b551690600c541617600c556503782dace9d960b21b17600d556c01000000000000000000000000600160c01b039060601b1617600e5560018060601b03169260018060801b0319169160601b161717600f556040516150659081620002618239f35b60405162461bcd60e51b815260206004820152603160248201527f466565206d616e6167657220637574206d757374206265206c6573732074686160448201527006e206f7220657175616c20746f2031303607c1b6064820152608490fd5b60405162461bcd60e51b815260206004820152601860248201527f43616e6e6f7420736574206f776e657220746f207a65726f00000000000000006044820152606490fd5b600080fd5b634e487b7160e01b600052604160045260246000fd5b51906001600160a01b03821682036200021b57565b51906001600160601b03821682036200021b5756fe6080604052600436101561001257600080fd5b60003560e01c80630b562aa9146101c75780630ca76175146101c25780631ac67b34146101bd578063257912f3146101b85780634351077d146101b3578063475a8b46146101ae5780636ef25c3a146101a95780637587b1b2146101a457806379ba50971461019f5780637b0caaa21461019a5780637bcb334d1461019557806385ec38a2146101905780638913aa6d1461018b5780638da5cb5b14610186578063a36df5c214610181578063ba9c513f1461017c578063bdf4710414610177578063be4f00cd14610172578063c8155bcb1461016d578063d328a91e14610168578063d4b3917514610163578063d5549c8a1461015e578063d7e6a96b14610159578063de76f05314610154578063e67950d31461014f578063efb6c1401461014a5763f2fde38b1461014557600080fd5b611dc4565b611d71565b611c06565b611aba565b611a56565b611a2f565b611928565b611784565b61126a565b6111c8565b6111a3565b61110a565b61107f565b611058565b610fc9565b610f5d565b610ed6565b610e9c565b610dd2565b610d8a565b610d41565b610c12565b610b13565b610a8c565b6109da565b610349565b6101dc565b60009103126101d757565b600080fd5b346101d75760003660031901126101d75760206001600160601b03600f5416604051908152f35b634e487b7160e01b600052604160045260246000fd5b60c0810190811067ffffffffffffffff82111761023557604052565b610203565b67ffffffffffffffff811161023557604052565b6040810190811067ffffffffffffffff82111761023557604052565b6060810190811067ffffffffffffffff82111761023557604052565b90601f8019910116810190811067ffffffffffffffff82111761023557604052565b604051906102b582610219565b565b60405190610160820182811067ffffffffffffffff82111761023557604052565b67ffffffffffffffff811161023557601f01601f191660200190565b929192610300826102d8565b9161030e6040519384610286565b8294818452818301116101d7578281602093846000960137010152565b9080601f830112156101d757816020610346933591016102f4565b90565b346101d75760603660031901126101d75767ffffffffffffffff6004356024358281116101d75761037e90369060040161032b565b916044359081116101d75761039790369060040161032b565b916103a86103a3614100565b614de5565b6103bc826000526005602052604060002090565b60018101906001600160a01b03906103e7826103df85546001600160a01b031690565b161515614139565b6103f8336103f3614184565b614e96565b338261041f61041284546000526004602052604060002090565b546001600160a01b031690565b161480156105f4575b80156105cf575b610438906141e3565b610444336103f3614254565b6104518460048301612465565b61045e8660058301612465565b6104696103a3613604565b61047381546136c4565b80546104b46104126104a3610492846000526004602052604060002090565b5460a01c67ffffffffffffffff1690565b926000526004602052604060002090565b966104c06103a361428d565b6104e16104d5600c546001600160a01b031690565b6001600160a01b031690565b60405163523e3b4b60e11b815267ffffffffffffffff841660048201529690600090889060249082905afa80156105ca576105827f6968e95d7bc2605bb814d168859020d6e2f617bc615d1ae5aef0ce68af0d163197610593956002938c9b6000916105a7575b506001600160601b0361056c610560600d5460a01c90565b6001600160601b031690565b911610610598575b50546001600160a01b031690565b9401546040519586951699856142ec565b0390a4005b6105a1906138f3565b38610574565b6105c2913d8091833e6105ba8183610286565b810190612157565b505038610548565b6121fa565b50610438336105ec6104d56104d5600d546001600160a01b031690565b14905061042f565b503361060e6104d56104d5600c546001600160a01b031690565b14610428565b90600182811c92168015610644575b602083101461062e57565b634e487b7160e01b600052602260045260246000fd5b91607f1691610623565b906040519182600082549261066284610614565b9081845260019485811690816000146106cf575060011461068c575b50506102b592500383610286565b9093915060005260209081600020936000915b8183106106b75750506102b59350820101388061067e565b8554888401850152948501948794509183019161069f565b9150506102b594506020925060ff191682840152151560051b820101388061067e565b634e487b7160e01b600052602160045260246000fd5b6002111561071257565b6106f2565b60028210156107125752565b6001111561071257565b60018210156107125752565b67ffffffffffffffff81116102355760051b60200190565b90815461075d81610739565b9261076b6040519485610286565b818452600090815260208082208186015b84841061078a575050505050565b60018381926107988561064e565b81520192019301929061077c565b906040516107b381610219565b60a0610816600383956107ee60ff82546107cf82821689610717565b6107e1828260081c1660208a01610717565b60101c166040870161072d565b6107fa6001820161064e565b606086015261080b6002820161064e565b608086015201610751565b910152565b60005b83811061082e5750506000910152565b818101518382015260200161081e565b906020916108578151809281855285808601910161081b565b601f01601f1916010190565b9060028210156107125752565b908082519081815260208091019281808460051b8301019501936000915b84831061089e5750505050505090565b90919293949584806108bc600193601f198682030187528a5161083e565b980193019301919493929061088e565b6108d7828251610863565b6108e960208201516020840190610863565b60408101519160018310156107125761034692604082015260a061093161091f606085015160c0606086015260c085019061083e565b6080850151848203608086015261083e565b9201519060a0818403910152610870565b98969a9995926109b59461098b610999928c602067ffffffffffffffff6109a7986101209f9c986001600160a01b031684521691015260408d61014091829101528d019061083e565b908b820360608d015261083e565b9089820360808b015261083e565b9087820360a08901526108cc565b9660c08601526001600160601b03928380921660e08701521661010085015216910152565b346101d75760203660031901126101d757600435600052600460205260406000208054610a88610a0c6001840161064e565b91610a196002850161064e565b93610a266003820161064e565b91610a33600583016107a6565b600983015490610a52600b600a8601549501546001600160601b031690565b946040519889986001600160601b03808860601c169716956001600160a01b0367ffffffffffffffff8260a01c1691168b610942565b0390f35b346101d75760003660031901126101d7576020600d5460a01c604051908152f35b906103469160208152815160208201526001600160a01b036020830151166040820152604082015160608201526060820151608082015260a0610afe608084015160c08385015260e084019061083e565b9201519060c0601f198285030191015261083e565b346101d75760203660031901126101d757610a886040808051610b3581610219565b606060a0600092838152836020820152838582015283838201528260808201520152610b948251610b658161024e565b601381527f67657446756e6374696f6e526573706f6e7365000000000000000000000000006020820152614de5565b600435815260056020522090610bf26005825193610bb185610219565b805485526001600160a01b03600182015416602086015260028101548486015260038101546060860152610be76004820161064e565b60808601520161064e565b60a08301525191829182610aad565b6001600160a01b038116036101d757565b346101d75760403660031901126101d757610d086020600435610c3481610c01565b60243590610c40611e8b565b610ca58282604051610c518161026a565b603a81527f617070726f76696e672025732061732061207370656e646572206f66204c494e878201527f4b207769746820612076616c7565206f6620757020746f2025640000000000006040820152614f5d565b610cba6104d5600b546001600160a01b031690565b9060006040518096819582947f095ea7b300000000000000000000000000000000000000000000000000000000845260048401602090939291936001600160a01b0360408201951681520152565b03925af180156105ca57610d1857005b610d389060203d8111610d3a575b610d308183610286565b81019061298c565b005b503d610d26565b346101d75760003660031901126101d75760206001600160601b03600e5460601c16604051908152f35b67ffffffffffffffff8116036101d757565b602435906102b582610d6b565b346101d75760203660031901126101d75767ffffffffffffffff600435610db081610d6b565b16600052600a60205260206001600160601b0360406000205416604051908152f35b346101d757600080600319360112610e99576001600160a01b0380600354163303610e55576002546001600160a01b0316600280546001600160a01b0319163317905590610e2b6001600160a01b031960035416600355565b3391167f8be0079c531659141344cd1fd0a4f28419497f9722a3daafe3b4186f6b6457e08380a380f35b606460405162461bcd60e51b815260206004820152601660248201527f4d7573742062652070726f706f736564206f776e6572000000000000000000006044820152fd5b80fd5b346101d75760003660031901126101d757602063ffffffff600f5460601c16604051908152f35b6044359063ffffffff821682036101d757565b346101d75760603660031901126101d75760243567ffffffffffffffff8082116101d757366023830112156101d75781600401359081116101d7573660248260051b840101116101d757610a8891610f3c916024610f32610ec3565b9201600435612d9d565b6040519081529081906020820190565b6001600160601b038116036101d757565b346101d75760203660031901126101d7577ff310923b17686bb5bfbd2bc7e25960dac092be75769b675fbf4909d7de77916b60206001600160601b03600435610fa581610f4c565b610fad611e8b565b16806001600160601b0319600f541617600f55604051908152a1005b346101d75760203660031901126101d7576001600160a01b03600435610fee81610c01565b16600052600860205261103c6040600020610a8861100b8261064e565b9161104a61102760026110206001850161064e565b930161064e565b9160405195869560608752606087019061083e565b90858203602087015261083e565b90838203604085015261083e565b346101d75760003660031901126101d75760206001600160a01b0360025416604051908152f35b346101d75760203660031901126101d757600435600052600560205260406000208054610a886001600160a01b03600184015416926110fc60028201549160038101546110d360056110206004850161064e565b93604051978897885260208801526040870152606086015260c0608086015260c085019061083e565b9083820360a085015261083e565b346101d75760203660031901126101d75760043563ffffffff8116908181036101d7577f5df6c53187c7cfa2643679f49eee9fc8a62e23a074ed0b12f17b5635c25f721d9160209161115a611e8b565b7fffffffffffffffffffffffffffffffff00000000ffffffffffffffffffffffff6fffffffff000000000000000000000000600f549260601b16911617600f55604051908152a1005b346101d75760203660031901126101d757610d386004356111c381610d6b565b6138f3565b346101d75760203660031901126101d7577f803bee7e92bbc6ae7a1551f9f4ed3e31a8ea8df32e93332f41b0028f1091f9c3602060043561120881610f4c565b611210611e8b565b600e547fffffffffffffffff000000000000000000000000ffffffffffffffffffffffff77ffffffffffffffffffffffff0000000000000000000000008360601b16911617600e556001600160601b0360405191168152a1005b602060031981813601126101d7576004359167ffffffffffffffff918284116101d757610180846004019185360301126101d7576112ec611340926112ae83611ee3565b5060248601926112ca6112c18583611eed565b90501515611f20565b61134d6112d78583611eed565b60409791885196879187830193339185611f6b565b0395611300601f1997888101835282610286565b51902061133061132b611327611320846000526007602052604060002090565b5460ff1690565b1590565b611fa5565b6000526007602052604060002090565b805460ff19166001179055565b61138961138261135b612049565b3381529561137c61136b85611ee3565b6001600160601b0316610100890152565b83611eed565b36916102f4565b8585015261139d6113826044890183611eed565b60608501526113b26113826064890183611eed565b60808501526113ce6113c760848901836120b8565b369161189d565b60a085015260e08401956101048801358752610124880190806113f0836120ee565b166115ff5750506114026103a36122f1565b6114176104d5600b546001600160a01b031690565b85516370a0823160e01b815232600482015297908390899060249082905afa9788156105ca57610a889861146a916000916115d2575b50611463610560600f546001600160601b031690565b1115612339565b6114856114756129c9565b67ffffffffffffffff1686850152565b61148d612016565b916114c161149d60a484016123aa565b6114a960e485016123b4565b6114ba611382610144870186611eed565b9186613a41565b60016114cf60c484016123aa565b6114d881610708565b14806115ba575b611598575b505060c084015261150b845191820192826114ff8686611b00565b03908101835282610286565b519020926115386001600160a01b03611531610412876000526004602052604060002090565b16156123be565b61155582611550866000526004602052604060002090565b6126e3565b5190837f8a23a15f3ff2881778895794d1779641909d65a0e3598e69f9106f6cd88f01a2845180611587339582611b00565b0390a4519081529081906020820190565b6113826115ad916101646115b3940190611eed565b82613a90565b38806114e4565b506115c9610164830182611eed565b905015156114df565b6115f29150853d87116115f8575b6115ea8183610286565b81019061232a565b3861144d565b503d6115e0565b9061162261166e9992611611836120ee565b9061161a6120f8565b911690614e3a565b60006116396104d5600c546001600160a01b031690565b611642836120ee565b90895180809d819463523e3b4b60e11b83526004830191909167ffffffffffffffff6020820193169052565b03915afa80156105ca576000998a91611753575b506001600160a01b0399600091908b16301490815b815184101561173a57306116be6104d56116b18786612230565b516001600160a01b031690565b0361171b57506001925b8380611714575b6116e2576116dc9061221c565b92611697565b5050610a889a509161170261147592611707945b8161170c575b5061225a565b6120ee565b611485565b9050386116fc565b50826116cf565b92338d61172b6116b18486612230565b16036116c857600192506116c8565b610a889c506114759350611702915061170794926116f6565b905061176991993d8091833e6105ba8183610286565b9991509838611682565b90602061034692818152019061083e565b346101d757600080600319360112610e99576004816001600160a01b03815416604051928380927fd328a91e0000000000000000000000000000000000000000000000000000000082525afa9081156105ca5782916117ec575b60405180610a888482611773565b90503d8083833e6117fd8183610286565b81019060208183031261186b5780519067ffffffffffffffff821161186f570181601f8201121561186b57805192611834846102d8565b926118426040519485610286565b84845260208584010111610e995750610a8892611865916020808501910161081b565b386117de565b8280fd5b8380fd5b600211156101d757565b35906102b582611873565b600111156101d757565b35906102b582611888565b929190926118aa84610739565b916118b86040519384610286565b829480845260208094019060051b8301928284116101d75780915b8483106118e257505050505050565b823567ffffffffffffffff81116101d7578691611902868493860161032b565b8152019201916118d3565b9080601f830112156101d7578160206103469335910161189d565b346101d7576003196080368201126101d75760043567ffffffffffffffff918282116101d75760c09082360301126101d7576119626102a8565b61196e8260040161187d565b815261197c6024830161187d565b602082015261198d60448301611892565b604082015260648201358381116101d7576119ae906004369185010161032b565b606082015260848201358381116101d7576119cf906004369185010161032b565b608082015260a48201359283116101d7576119f6611a15926004610a88953692010161190d565b60a0820152611a03610d7d565b611a0b610ec3565b9060643592613b1a565b6040516001600160601b0390911681529081906020820190565b346101d75760003660031901126101d75760206001600160601b03600e5416604051908152f35b346101d75760203660031901126101d75767ffffffffffffffff600435611a7c81610d6b565b610db0604051611a8b8161024e565b601681527f676574537562736372697074696f6e42616c616e6365000000000000000000006020820152614de5565b346101d75760203660031901126101d757610d38600435611ad9611e8b565b806000526004602052611afb6001600160a01b036040600020541615156135b9565b6136c4565b6103469060208152611b1e6020820184516001600160a01b03169052565b602083015167ffffffffffffffff1660408201526040830151611bb1611b526101609283606086015261018085019061083e565b611b9c611b88611b74606089015193601f1994858983030160808a015261083e565b6080890151848883030160a089015261083e565b60a0880151838783030160c0880152610870565b9060c0870151908583030160e08601526108cc565b9360e08101516101009081850152810151611bda61012091828601906001600160601b03169052565b81015190611bf661014092838601906001600160601b03169052565b01516001600160601b0316910152565b346101d75760203660031901126101d757611c1f612049565b50611c5e604051611c2f8161024e565b600b81527f67657446756e6374696f6e0000000000000000000000000000000000000000006020820152614de5565b6004356000526004602052610a886040600020611d65611d54600b611c816102b7565b93611cc367ffffffffffffffff8254611cac6001600160a01b03821689906001600160a01b03169052565b60a01c16602087019067ffffffffffffffff169052565b611ccf6001820161064e565b6040860152611ce06002820161064e565b6060860152611cf16003820161064e565b6080860152611d0260048201610751565b60a0860152611d13600582016107a6565b60c0860152600981015460e0860152600a8101546001600160601b0380821661010088015260609190911c166101208601525b01546001600160601b031690565b6001600160601b0316610140830152565b60405191829182611b00565b346101d75760203660031901126101d75767ffffffffffffffff600435611d9781610d6b565b166000526009602052610a88611db0604060002061064e565b60405191829160208352602083019061083e565b346101d75760203660031901126101d7576001600160a01b03600435611de981610c01565b611df1611e8b565b16338114611e4757806001600160a01b03196003541617600355611e206104d56002546001600160a01b031690565b7fed8889f560326eb138920d842192f0eb3dd22b4f139c87a2c57538e05bae1278600080a3005b606460405162461bcd60e51b815260206004820152601760248201527f43616e6e6f74207472616e7366657220746f2073656c660000000000000000006044820152fd5b6001600160a01b03600254163303611e9f57565b606460405162461bcd60e51b815260206004820152601660248201527f4f6e6c792063616c6c61626c65206279206f776e6572000000000000000000006044820152fd5b3561034681610f4c565b903590601e19813603018212156101d7570180359067ffffffffffffffff82116101d7576020019181360383136101d757565b15611f2757565b606460405162461bcd60e51b815260206004820152601d60248201527f46756e6374696f6e206e616d652063616e6e6f7420626520656d7074790000006044820152fd5b916060816001600160a01b039260209497969760408752816040880152838701376000828287010152601f80199101168401019416910152565b15611fac57565b608460405162461bcd60e51b815260206004820152602b60248201527f46756e6374696f6e206e616d6520616c72656164792065786973747320666f7260448201527f2074686973206f776e65720000000000000000000000000000000000000000006064820152fd5b6040519061202382610219565b606060a08360008152600060208201526000604082015282808201528260808201520152565b60405190610160820182811067ffffffffffffffff82111761023557604052816101406000918281528260208201526060604082015260608082015260606080820152606060a082015261209b612016565b60c08201528260e082015282610100820152826101208201520152565b903590601e19813603018212156101d7570180359067ffffffffffffffff82116101d757602001918160051b360383136101d757565b3561034681610d6b565b604051906121058261026a565b603682527f636865636b696e6720696620617574686f72697a6564000000000000000000006040837f7573696e67206578697374696e6720737562736372697074696f6e2025642c2060208201520152565b90916060828403126101d757815161216e81610f4c565b9260208084015161217e81610c01565b9360408101519067ffffffffffffffff82116101d757019180601f840112156101d75782516121ac81610739565b936121ba6040519586610286565b818552838086019260051b8201019283116101d7578301905b8282106121e1575050505090565b83809183516121ef81610c01565b8152019101906121d3565b6040513d6000823e3d90fd5b634e487b7160e01b600052601160045260246000fd5b600019811461222b5760010190565b612206565b80518210156122445760209160051b010190565b634e487b7160e01b600052603260045260246000fd5b1561226157565b60a460405162461bcd60e51b815260206004820152604f60248201527f46756e6374696f6e734d616e6167657220616e642f6f722063616c6c6572206160448201527f7265206e6f7420617574686f72697a656420636f6e73756d657273206f66207460648201527f686520737562736372697074696f6e00000000000000000000000000000000006084820152fd5b604051906122fe8261024e565b601982527f6372656174696e67206e657720737562736372697074696f6e000000000000006020830152565b908160209103126101d7575190565b1561234057565b608460405162461bcd60e51b815260206004820152602e60248201527f496e73756666696369656e74204c494e4b2062616c616e636520746f2066756e60448201527f6420737562736372697074696f6e0000000000000000000000000000000000006064820152fd5b3561034681611873565b3561034681611888565b156123c557565b606460405162461bcd60e51b815260206004820152601760248201527f46756e6374696f6e20616c7265616479206578697374730000000000000000006044820152fd5b818110612414575050565b60008155600101612409565b9190601f811161242f57505050565b6102b5926000526020600020906020601f840160051c8301931061245b575b601f0160051c0190612409565b909150819061244e565b919091825167ffffffffffffffff81116102355761248d816124878454610614565b84612420565b602080601f83116001146124c95750819293946000926124be575b50508160011b916000199060031b1c1916179055565b0151905038806124a8565b90601f198316956124df85600052602060002090565b926000905b88821061251c57505083600195969710612503575b505050811b019055565b015160001960f88460031b161c191690553880806124f9565b806001859682949686015181550195019301906124e4565b908160011b918083046002149015171561222b57565b8151916801000000000000000083116102355781548383558084106125ad575b5061257f602080920192600052602060002090565b6000925b848410612591575050505050565b600183826125a183945186612465565b01920193019290612583565b6000838152846020822092830192015b8281106125cb57505061256a565b806125d860019254610614565b806125e5575b50016125bd565b601f9081811184146125fd5750508281555b386125de565b8361261f9261261185600052602060002090565b920160051c82019101612409565b600081815260208120818355556125f7565b9060018110156107125762ff000082549160101b169062ff00001916179055565b81519160028310156107125760ff82549316908160ff19851617835560208101519061267d82610708565b6002821015610712576102b59460039361ff0060a09460081b169161ffff1916171784556126b860408201516126b281610723565b85612631565b6126c9606082015160018601612465565b6126da608082015160028601612465565b0151910161254a565b600b6128896101406102b59461271f61270382516001600160a01b031690565b86906001600160a01b03166001600160a01b0319825416179055565b612784612737602083015167ffffffffffffffff1690565b86547fffffffff0000000000000000ffffffffffffffffffffffffffffffffffffffff1660a09190911b7bffffffffffffffff000000000000000000000000000000000000000016178655565b612795604082015160018701612465565b6127a6606082015160028701612465565b6127b7608082015160038701612465565b6127c860a08201516004870161254a565b6127d960c082015160058701612652565b60e0810151600986015561287b600a86016128236128026101008501516001600160601b031690565b82546bffffffffffffffffffffffff19166001600160601b03909116178255565b6101208301516001600160601b03165b7fffffffffffffffff000000000000000000000000ffffffffffffffffffffffff77ffffffffffffffffffffffff00000000000000000000000083549260601b169116179055565b01516001600160601b031690565b9101906001600160601b03166001600160601b0319825416179055565b604051906128b38261026a565b602682527f206f776e657200000000000000000000000000000000000000000000000000006040837f6372656174696e6720737562736372697074696f6e207769746820257320617360208201520152565b908160209103126101d7575161034681610d6b565b604051906129278261024e565b601f82527f6372656174656420737562736372697074696f6e2077697468206964202564006020830152565b604051906129608261024e565b601582527f616464696e6720257320617320636f6e73756d657200000000000000000000006020830152565b908160209103126101d7575180151581036101d75790565b61034693926001600160a01b036060931682526020820152816040820152019061083e565b6129d5326103f36128a6565b6129ea6104d5600c546001600160a01b031690565b604051907fa21a23e40000000000000000000000000000000000000000000000000000000082526020908183600481600080955af19283156105ca578193612bce575b50612a4a612a3961291a565b67ffffffffffffffff851690614e3a565b612a56306103f3612953565b612a6b6104d5600c546001600160a01b031690565b90813b15610e99576040517f7341c10c00000000000000000000000000000000000000000000000000000000815267ffffffffffffffff851660048201523060248201529181908390604490829084905af19081156105ca57612b88928492612bb5575b50612b0d33612af28767ffffffffffffffff166000526006602052604060002090565b906001600160a01b03166001600160a01b0319825416179055565b612b226104d5600b546001600160a01b031690565b612b376104d5600c546001600160a01b031690565b60405192612b6a84612b5c8a88830191909167ffffffffffffffff6020820193169052565b03601f198101865285610286565b604051809681958294630200057560e51b84523490600485016129a4565b03925af180156105ca57612b9b57505090565b81612bb192903d10610d3a57610d308183610286565b5090565b80612bc2612bc89261023a565b806101cc565b38612acf565b612bef919350823d8411612bf6575b612be78183610286565b810190612905565b9138612a2d565b503d612bdd565b60405190612c0a8261026a565b602682527f696f6e49643a00000000000000000000000000000000000000000000000000006040837f65786563757465526571756573742063616c6c656420776974682066756e637460208201520152565b15612c6357565b606460405162461bcd60e51b815260206004820152601a60248201527f66756e6374696f6e206973206e6f7420726567697374657265640000000000006044820152fd5b60405190612cb48261024e565b601b82527f636f6c6c656374696e6720616e64206c6f636b696e67206665657300000000006020830152565b60405190612ced8261024e565b601982527f73656e64696e672066756e6374696f6e732072657175657374000000000000006020830152565b15612d2057565b606460405162461bcd60e51b815260206004820152601960248201527f5265717565737420494420616c726561647920657869737473000000000000006044820152fd5b60405190612d718261024e565b601d82527f656d697474696e672046756e6374696f6e43616c6c6564206576656e740000006020830152565b929091612e1b612e2193612db26103a3612bfd565b612dbb86614d8a565b612dcf866000526004602052604060002090565b90612de7612de06001840154610614565b1515612c5c565b612df3600583016107a6565b9380612f3e575b5050612e076103a3612ca7565b612e10866131f5565b6104926103a3612ce0565b90613f9c565b90612e40612e39836000526005602052604060002090565b5415612d19565b80612e55836000526005602052604060002090565b55612e8c336001612e70856000526005602052604060002090565b01906001600160a01b03166001600160a01b0319825416179055565b612e976103a3612d64565b81612eaf610412836000526004602052604060002090565b917feb98a4358e79cd01f5b134f72406251bd2a7b8667fd337212737d07697d4b9fc612ee7600e546001600160601b039060601c1690565b612f00600a611d46856000526004602052604060002090565b604080516001600160a01b03979097168752600060208801819052908701526001600160601b039182166060870152166080850152339360a090a490565b612f5391612f4d91369161189d565b84613ace565b3880612dfa565b9190916001600160601b038080941691160191821161222b57565b9190916001600160601b038080941691160291821691820361222b57565b60405190612fa08261024e565b601982527f73656e646572202573204c494e4b2062616c616e6365202564000000000000006020830152565b15612fd357565b608460405162461bcd60e51b815260206004820152603160248201527f596f7520646f206e6f74206861766520656e6f756768204c494e4b20746f206360448201527f616c6c20746869732066756e6374696f6e0000000000000000000000000000006064820152fd5b1561304457565b608460405162461bcd60e51b815260206004820152602260248201527f4661696c656420746f20636f6c6c65637420666565732066726f6d2063616c6c60448201527f65720000000000000000000000000000000000000000000000000000000000006064820152fd5b604051906130bb8261024e565b601c82527f726573657276656420737562736372697074696f6e20666565202564000000006020830152565b604051906130f48261026a565b603d82527f7074696f6e20706f6f6c2c20746f74616c20696e20706f6f6c3a2025640000006040837f61646465642062617365466565202564204c494e4b20746f207375627363726960208201520152565b6001600160601b03918216908216039190821161222b57565b604051906080820182811067ffffffffffffffff82111761023557604052605182527f6f74616c20696e20706f6f6c3a202564200000000000000000000000000000006060837f746f6f6b2025642066726f6d20666565206f66202564204c494e4b20616e642060208201527f616464656420746f206665654d616e6167657250726f666974506f6f6c2c207460408201520152565b61320e600a611d46836000526004602052604060002090565b600e5460601c6001600160601b03166132278282612f5a565b5061323f610492846000526004602052604060002090565b61327a61326a61326461325b600f5463ffffffff9060601c1690565b63ffffffff1690565b85612f75565b6001600160601b03606491160490565b916132906104d5600b546001600160a01b031690565b6040516370a0823160e01b80825233600483015260209790939092918881602481865afa80156105ca576132d59160009161359c575b50336132d0612f93565b614f5d565b6040519384523360048501528784602481855afa9182156105ca57613331899361339b936000978892613575575b5061056061332a91613324600a611d468b6000526004602052604060002090565b90612f5a565b1115612fcc565b61334a600a611d46866000526004602052604060002090565b6040517f23b872dd0000000000000000000000000000000000000000000000000000000081523360048201523060248201526001600160601b03909116604482015294859283919082906064820190565b03925af19586156105ca576102b596613535936133c192600092613558575b505061303d565b6134ea6134ce856133f66133e98767ffffffffffffffff16600052600a602052604060002090565b546001600160601b031690565b6133fe6130ae565b966134156001600160601b03988980941690614e3a565b61348961345061343c6133e98467ffffffffffffffff16600052600a602052604060002090565b600e5460601c6001600160601b0316613324565b61346e8367ffffffffffffffff16600052600a602052604060002090565b906001600160601b03166001600160601b0319825416179055565b6134c86134b06133e9600e549367ffffffffffffffff16600052600a602052604060002090565b836134b96130e7565b911690848460601c1690614efb565b16612f5a565b6001600160601b03166001600160601b0319600e541617600e55565b600b6135196104a3866135148961350f86611d46896000526004602052604060002090565b612f5a565b613146565b01906001600160601b03166001600160601b0319825416179055565b600e546001600160601b031690808061354c61315f565b93169416921690614fc8565b61356e9250803d10610d3a57610d308183610286565b38806133ba565b61332a91925061359461056091883d8a116115f8576115ea8183610286565b929150613303565b6135b391508a3d8c116115f8576115ea8183610286565b386132c6565b156135c057565b606460405162461bcd60e51b815260206004820152601760248201527f46756e6374696f6e20646f6573206e6f742065786973740000000000000000006044820152fd5b604051906136118261024e565b600e82527f556e6c6f636b696e6720666565730000000000000000000000000000000000006020830152565b9063ffffffff80921660640391821161222b57565b6040519061365f8261024e565b601c82527f4265666f7265206c6f636b656420256420756e6c6f636b6564202564000000006020830152565b604051906136988261024e565b601b82527f4166746572206c6f636b656420256420756e6c6f636b656420256400000000006020830152565b6102b5906136d36103a3613604565b6136fd6001600160a01b036136f5610412846000526004602052604060002090565b1615156135b9565b61374061326a61371c600a611d46856000526004602052604060002090565b61373a61325b613735600f5463ffffffff9060601c1690565b61363d565b90612f75565b61382061375c600b611d46856000526004602052604060002090565b916137a761378a600a613779876000526004602052604060002090565b015460601c6001600160601b031690565b93613793613652565b6001600160601b0380809716921690614efb565b6137f0600b6137c0866000526004602052604060002090565b016137d68361351483546001600160601b031690565b6001600160601b03166001600160601b0319825416179055565b612833600a613809866000526004602052604060002090565b019161350f83546001600160601b039060601c1690565b613852600a613779613841600b611d46876000526004602052604060002090565b946000526004602052604060002090565b908061385c61368b565b9216921690614efb565b604051906138738261026a565b603782527f6c6c20617661696c61626c652062616c616e63652025640000000000000000006040837f526566696c6c696e6720737562736372697074696f6e2025642077697468206160208201520152565b6001600160601b0361034694936001600160a01b03606094168352166020820152816040820152019061083e565b60206139eb613a16926139446139206133e98367ffffffffffffffff16600052600a602052604060002090565b6001600160601b03613930613866565b91169067ffffffffffffffff841690614efb565b6139656133e98267ffffffffffffffff16600052600a602052604060002090565b61399b6139868367ffffffffffffffff16600052600a602052604060002090565b80546bffffffffffffffffffffffff19169055565b60006139b26104d5600b546001600160a01b031690565b926139f96139cb6104d5600c546001600160a01b031690565b9160405196879189830191909167ffffffffffffffff6020820193169052565b03601f198101875286610286565b60405196879586948593630200057560e51b8552600485016138c5565b03925af180156105ca57613a275750565b613a3e9060203d8111610d3a57610d308183610286565b50565b90835115613a6657606092613a59613a629284610717565b6040830161072d565b0152565b60046040517f22ce3edd000000000000000000000000000000000000000000000000000000008152fd5b815115613aa4576001602082015260800152565b60046040517fe889636f000000000000000000000000000000000000000000000000000000008152fd5b815115613adb5760a00152565b60046040517ffe936cb7000000000000000000000000000000000000000000000000000000008152fd5b908160209103126101d7575161034681610f4c565b67ffffffffffffffff613b8a9492602094613b406001600160a01b036000541694613d64565b9463ffffffff604051988997889687967fd227d24500000000000000000000000000000000000000000000000000000000885216600487015260806024870152608486019061083e565b92166044840152606483015203915afa9081156105ca57600091613bac575090565b610346915060203d8111613bcd575b613bc58183610286565b810190613b05565b503d613bbb565b60405190613be18261024e565b6000602083606081520152565b60405190613bfb8261024e565b6000602083613c08613bd4565b81520152565b60405190613c1b8261024e565b600c82527f636f64654c6f636174696f6e00000000000000000000000000000000000000006020830152565b60405190613c548261024e565b600882527f6c616e67756167650000000000000000000000000000000000000000000000006020830152565b60405190613c8d8261024e565b600682527f736f7572636500000000000000000000000000000000000000000000000000006020830152565b60405190613cc68261024e565b600482527f61726773000000000000000000000000000000000000000000000000000000006020830152565b60405190613cff8261024e565b600f82527f736563726574734c6f636174696f6e00000000000000000000000000000000006020830152565b60405190613d388261024e565b600782527f73656372657473000000000000000000000000000000000000000000000000006020830152565b613d6c613bee565b90613d778251614356565b50613d89613d83613c0e565b83614a49565b613da68151613d9781610708565b613da081610708565b836143d5565b613db1613d83613c47565b613dcb6040820151613dc281610723565b613da081610723565b613dd6613d83613c80565b613de4606082015183614a49565b60a08101805151613e9c575b506080810190815151613e05575b5050515190565b602001908151613e1481610708565b613e1d81610708565b15613e7257613e53613e6b92613e3a613e34613cf2565b86614a49565b51613e4481610708565b613e4d81610708565b846143d5565b613e64613e5e613d2b565b84614a49565b5182614996565b3880613dfe565b60046040517fa80d31f7000000000000000000000000000000000000000000000000000000008152fd5b92613ea8613e5e613cb9565b613eb183614ace565b60005b84518051821015613ee15790613ed7613ed082613edc94612230565b5186614a49565b61221c565b613eb4565b50509250613eee82614b5a565b38613df0565b60405190613f018261026a565b602982527f6c69656e74206c696200000000000000000000000000000000000000000000006040837f53656e64696e6720726571756573742066726f6d2066756e6374696f6e73206360208201520152565b91613f8063ffffffff9167ffffffffffffffff60409497969716855260606020860152606085019061083e565b9416910152565b908160209103126101d7575161034681610c01565b6140099291613fac6103a3613ef4565b6000938492613fce613fc86104d586546001600160a01b031690565b91613d64565b946040519687809481937f28242b040000000000000000000000000000000000000000000000000000000083526020998a9860048501613f53565b03925af19283156105ca5781936140de575b5080826140346104d5600494546001600160a01b031690565b604051938480927f5ab1bd530000000000000000000000000000000000000000000000000000000082525afa9283156105ca5784937f1131472297a800fee664d1d89cfa8f7676ff07189ecc53f80bbb5f4969099db8936140ac9284926140b1575b5050612af2856000526001602052604060002090565b80a290565b6140d09250803d106140d7575b6140c88183610286565b810190613f87565b3880614096565b503d6140be565b60049193506140f990833d85116115f8576115ea8183610286565b929061401b565b6040519061410d8261024e565b601282527f66756c66696c6c696e67207265717565737400000000000000000000000000006020830152565b1561414057565b606460405162461bcd60e51b815260206004820152601260248201527f496e76616c6964207265717565737420494400000000000000000000000000006044820152fd5b604051906141918261026a565b603582527f63616c6c20746869732066756e6374696f6e2e2e2e00000000000000000000006040837f436865636b696e6720697320257320697320617574686f72697a656420746f2060208201520152565b156141ea57565b608460405162461bcd60e51b815260206004820152602e60248201527f4f6e6c79207468652066756e6374696f6e206f776e65722063616e2063616c6c60448201527f20746869732066756e6374696f6e0000000000000000000000000000000000006064820152fd5b604051906142618261024e565b601382527f257320697320617574686f72697a65642e2e2e000000000000000000000000006020830152565b6040519061429a8261026a565b603b82527f67206966206e6565642066696c6c20737562736372697074696f6e00000000006040837f46696e697368656420756e6c6f636b696e6720666565732c20636865636b696e60208201520152565b9261034694926001600160a01b0361431e9316855260208501526000604085015260a0606085015260a084019061083e565b91608081840391015261083e565b601f1981019190821161222b57565b906020820180921161222b57565b9190820180921161222b57565b61435e613bd4565b5061010060208201526040518082526000815261012081019081106101d75760405290565b9061438c613bd4565b50601f8116806143bb575b50806020830152604051908183526000825281016020019081106101d75760405290565b6020036020811161222b57810180911161222b5738614397565b908151916143e1613bd4565b50825151600181019081811161222b57602085015181101561443a575b60c260206102b59651928301015380518211614432575b50506040519160208301526020825261442d8261024e565b614996565b523880614415565b8160011b948286046002148315171561222b5760208161446c6102b59861446560c295519184614383565b50826148de565b50965050506143fe565b61447e613bd4565b50805151600181019081811161222b5760208301518110156144b7575b605b602084519283010153805182116144b357505090565b5290565b8160011b8281046002148315171561222b576144e0906144d985519186614383565b50846148de565b5061449b565b6144ee613bd4565b50805151600181019081811161222b576020830151811015614523575b605a602084519283010153805182116144b357505090565b8160011b8281046002148315171561222b57614545906144d985519186614383565b5061450b565b614553613bd4565b50805151600181019081811161222b576020830151811015614588575b6059602084519283010153805182116144b357505090565b8160011b8281046002148315171561222b576145aa906144d985519186614383565b50614570565b6145b8613bd4565b50805151600181019081811161222b5760208301518110156145ed575b6058602084519283010153805182116144b357505090565b8160011b8281046002148315171561222b5761460f906144d985519186614383565b506145d5565b61461d613bd4565b50805151600181019081811161222b576020830151811015614652575b607b602084519283010153805182116144b357505090565b8160011b8281046002148315171561222b57614674906144d985519186614383565b5061463a565b614682613bd4565b50805151600181019081811161222b5760208301518110156146b7575b607a602084519283010153805182116144b357505090565b8160011b8281046002148315171561222b576146d9906144d985519186614383565b5061469f565b6146e7613bd4565b50805151600181019081811161222b57602083015181101561471c575b6079602084519283010153805182116144b357505090565b8160011b8281046002148315171561222b5761473e906144d985519186614383565b50614704565b61474c613bd4565b50805151600181019081811161222b576020830151811015614781575b6078602084519283010153805182116144b357505090565b8160011b8281046002148315171561222b576147a3906144d985519186614383565b50614769565b906147b2613bd4565b50815151600181019182821161222b5760208401518210156147e5575b602084519283010153805182116144b357505090565b8260011b8381046002148415171561222b5761480e9061480786519187614383565b50856148de565b506147cf565b9061482182519183614383565b5061482a613bd4565b50805190614836613bd4565b50614844815183111561498f565b825151926148528385614349565b9160209282848094015182116148c7575b51838151978201019682116148bf575b505001915b818110156148995760001991036101000a0190811990511690825116179052565b91926148b46148ae6148ba928651815261433b565b9461433b565b9261432c565b614878565b523880614873565b6148d96148d383612534565b82614814565b614863565b906148e7613bd4565b5080516148f2613bd4565b50614900825182111561498f565b8251519161490e8284614349565b6020918291828701518111614978575b865183815197820101968211614970575b505001915b818110156149565760001991036101000a019081199051169082511617905290565b91926148b46148ae61496b928651815261433b565b614934565b52388061492f565b61498a61498482612534565b88614814565b61491e565b156101d757565b8151613a3e92919067ffffffffffffffff811690601782116149ce576149c69150604060ff8451921617906147a9565b505b516148de565b5060ff81116149f3576149ed906149e583516145b0565b508251614d24565b506149c8565b61ffff8111614a12576149ed90614a0a835161454b565b508251614cbd565b63ffffffff8111614a33576149ed90614a2b83516144e6565b508251614c54565b6149ed90614a418351614476565b508251614be7565b8151613a3e92919067ffffffffffffffff81169060178211614a79576149c69150606060ff8451921617906147a9565b5060ff8111614a90576149ed906149e58351614744565b61ffff8111614aa7576149ed90614a0a83516146df565b63ffffffff8111614ac0576149ed90614a2b835161467a565b6149ed90614a418351614615565b805190614ad9613bd4565b50815151600181019081811161222b576020840151811015614b27575b609f6020809551928301015380518211614b1f575b5050018051906001820180921161222b5752565b523880614b0b565b8160011b938285046002148315171561222b57602081614b508297614465609f95519184614383565b5095505050614af6565b805190614b65613bd4565b50815151600181019081811161222b576020840151811015614bb4575b60ff6020809551928301015380518211614bac575b505001805160001981019190821161222b5752565b523880614b97565b8160011b938285046002148315171561222b57602081614bdd829761446560ff95519184614383565b5095505050614b82565b90614bf0613bd4565b5081515180600801918260081161222b5760208401518311614c33575b60088451928301019067ffffffffffffffff19825116179052805182116144b357505090565b8260011b8381046002148415171561222b57614c4f9085614814565b614c0d565b90614c5d613bd4565b5081515180600401918260041161222b5760208401518311614c9c575b60048451928301019063ffffffff19825116179052805182116144b357505090565b8260011b8381046002148415171561222b57614cb89085614814565b614c7a565b90614cc6613bd4565b5081515180600201918260021161222b5760208401518311614d03575b60028451928301019061ffff19825116179052805182116144b357505090565b8260011b8381046002148415171561222b57614d1f9085614814565b614ce3565b90614d2d613bd4565b5081515180600101918260011161222b5760208401518311614d69575b60018451928301019060ff19825116179052805182116144b357505090565b8260011b8381046002148415171561222b57614d859085614814565b614d4a565b6102b590604051907f27b7cf85000000000000000000000000000000000000000000000000000000006020830152602482015260248152614dca8161026a565b600080916020815191016a636f6e736f6c652e6c6f675afa50565b614e2c614dca6102b5926040519283917f41304fac00000000000000000000000000000000000000000000000000000000602084015260206024840152604483019061083e565b03601f198101835282610286565b614dca614e82916102b5936040519384927fb60e72cc00000000000000000000000000000000000000000000000000000000602085015260406024850152606484019061083e565b90604483015203601f198101835282610286565b614dca614ee6916102b5936001600160a01b036040519485937f319af33300000000000000000000000000000000000000000000000000000000602086015260406024860152606485019061083e565b9116604483015203601f198101835282610286565b614dca90614f44926102b5946040519485937fca47c4eb00000000000000000000000000000000000000000000000000000000602086015260606024860152608485019061083e565b916044840152606483015203601f198101835282610286565b614dca90614fae926102b5946001600160a01b036040519586947f0d26b92500000000000000000000000000000000000000000000000000000000602087015260606024870152608486019061083e565b92166044840152606483015203601f198101835282610286565b614dca916102b594615011946040519586947fa7a878530000000000000000000000000000000000000000000000000000000060208701526080602487015260a486019061083e565b9260448501526064840152608483015203601f19810183528261028656fea2646970667358221220237703535045a16b385ed8253252bdadd13f809d3ed61d18722aa193f54bcc8364736f6c63430008120033",
  "linkReferences": {},
  "deployedLinkReferences": {}
}