{
  "_format": "hh-sol-artifact-1",
  "contractName": "FunctionsManager",
  "sourceName": "contracts/FunctionsManager.sol",
  "abi": [
    {
      "inputs": [
        {
          "internalType": "address",
          "name": "link",
          "type": "address"
        },
        {
          "internalType": "address",
          "name": "billingRegistryProxy",
          "type": "address"
        },
        {
          "internalType": "address",
          "name": "oracleProxy",
          "type": "address"
        },
        {
          "internalType": "uint96",
          "name": "_baseFee",
          "type": "uint96"
        },
        {
          "internalType": "uint32",
          "name": "_feeManagerCut",
          "type": "uint32"
        },
        {
          "internalType": "uint96",
          "name": "_minimumSubscriptionBalance",
          "type": "uint96"
        }
      ],
      "stateMutability": "nonpayable",
      "type": "constructor"
    },
    {
      "inputs": [],
      "name": "EmptyArgs",
      "type": "error"
    },
    {
      "inputs": [],
      "name": "EmptySecrets",
      "type": "error"
    },
    {
      "inputs": [],
      "name": "EmptySource",
      "type": "error"
    },
    {
      "inputs": [],
      "name": "NoInlineSecrets",
      "type": "error"
    },
    {
      "inputs": [],
      "name": "RequestIsAlreadyPending",
      "type": "error"
    },
    {
      "inputs": [],
      "name": "RequestIsNotPending",
      "type": "error"
    },
    {
      "inputs": [],
      "name": "SenderIsNotRegistry",
      "type": "error"
    },
    {
      "anonymous": false,
      "inputs": [
        {
          "indexed": false,
          "internalType": "uint256",
          "name": "newBaseFee",
          "type": "uint256"
        }
      ],
      "name": "BaseFeeUpdated",
      "type": "event"
    },
    {
      "anonymous": false,
      "inputs": [
        {
          "indexed": false,
          "internalType": "uint256",
          "name": "newFeeManagerCut",
          "type": "uint256"
        }
      ],
      "name": "FeeManagerCutUpdated",
      "type": "event"
    },
    {
      "anonymous": false,
      "inputs": [
        {
          "indexed": false,
          "internalType": "bytes32",
          "name": "requestId",
          "type": "bytes32"
        },
        {
          "indexed": false,
          "internalType": "bytes",
          "name": "response",
          "type": "bytes"
        },
        {
          "indexed": false,
          "internalType": "bytes",
          "name": "err",
          "type": "bytes"
        }
      ],
      "name": "FulfillRequest",
      "type": "event"
    },
    {
      "anonymous": false,
      "inputs": [
        {
          "indexed": true,
          "internalType": "bytes32",
          "name": "functionId",
          "type": "bytes32"
        },
        {
          "indexed": true,
          "internalType": "bytes32",
          "name": "requestId",
          "type": "bytes32"
        },
        {
          "indexed": true,
          "internalType": "address",
          "name": "caller",
          "type": "address"
        },
        {
          "indexed": false,
          "internalType": "address",
          "name": "owner",
          "type": "address"
        },
        {
          "indexed": false,
          "internalType": "bytes32",
          "name": "callbackFunction",
          "type": "bytes32"
        },
        {
          "indexed": false,
          "internalType": "uint256",
          "name": "usedGas",
          "type": "uint256"
        },
        {
          "indexed": false,
          "internalType": "bytes",
          "name": "response",
          "type": "bytes"
        },
        {
          "indexed": false,
          "internalType": "bytes",
          "name": "err",
          "type": "bytes"
        }
      ],
      "name": "FunctionCallCompleted",
      "type": "event"
    },
    {
      "anonymous": false,
      "inputs": [
        {
          "indexed": true,
          "internalType": "bytes32",
          "name": "functionId",
          "type": "bytes32"
        },
        {
          "indexed": true,
          "internalType": "bytes32",
          "name": "requestId",
          "type": "bytes32"
        },
        {
          "indexed": true,
          "internalType": "address",
          "name": "caller",
          "type": "address"
        },
        {
          "indexed": false,
          "internalType": "address",
          "name": "owner",
          "type": "address"
        },
        {
          "indexed": false,
          "internalType": "bytes32",
          "name": "callbackFunction",
          "type": "bytes32"
        },
        {
          "indexed": false,
          "internalType": "uint256",
          "name": "gasDeposit",
          "type": "uint256"
        },
        {
          "indexed": false,
          "internalType": "uint96",
          "name": "baseFee",
          "type": "uint96"
        },
        {
          "indexed": false,
          "internalType": "uint96",
          "name": "fee",
          "type": "uint96"
        }
      ],
      "name": "FunctionCalled",
      "type": "event"
    },
    {
      "anonymous": false,
      "inputs": [
        {
          "indexed": true,
          "internalType": "bytes32",
          "name": "functionId",
          "type": "bytes32"
        },
        {
          "indexed": true,
          "internalType": "address",
          "name": "owner",
          "type": "address"
        },
        {
          "indexed": true,
          "internalType": "bytes32",
          "name": "category",
          "type": "bytes32"
        },
        {
          "components": [
            {
              "internalType": "address",
              "name": "owner",
              "type": "address"
            },
            {
              "internalType": "string",
              "name": "name",
              "type": "string"
            },
            {
              "internalType": "string",
              "name": "desc",
              "type": "string"
            },
            {
              "internalType": "string",
              "name": "imageUrl",
              "type": "string"
            },
            {
              "internalType": "string[]",
              "name": "expectedArgs",
              "type": "string[]"
            },
            {
              "internalType": "bytes32",
              "name": "category",
              "type": "bytes32"
            }
          ],
          "indexed": false,
          "internalType": "struct FunctionsManager.FunctionMetadata",
          "name": "metadata",
          "type": "tuple"
        }
      ],
      "name": "FunctionRegistered",
      "type": "event"
    },
    {
      "anonymous": false,
      "inputs": [
        {
          "indexed": false,
          "internalType": "uint256",
          "name": "newMinimumDeposit",
          "type": "uint256"
        }
      ],
      "name": "MinimumSubscriptionBalanceUpdated",
      "type": "event"
    },
    {
      "anonymous": false,
      "inputs": [
        {
          "indexed": true,
          "internalType": "bytes32",
          "name": "requestId",
          "type": "bytes32"
        },
        {
          "indexed": false,
          "internalType": "bytes",
          "name": "result",
          "type": "bytes"
        },
        {
          "indexed": false,
          "internalType": "bytes",
          "name": "err",
          "type": "bytes"
        }
      ],
      "name": "OCRResponse",
      "type": "event"
    },
    {
      "anonymous": false,
      "inputs": [
        {
          "indexed": true,
          "internalType": "address",
          "name": "from",
          "type": "address"
        },
        {
          "indexed": true,
          "internalType": "address",
          "name": "to",
          "type": "address"
        }
      ],
      "name": "OwnershipTransferRequested",
      "type": "event"
    },
    {
      "anonymous": false,
      "inputs": [
        {
          "indexed": true,
          "internalType": "address",
          "name": "from",
          "type": "address"
        },
        {
          "indexed": true,
          "internalType": "address",
          "name": "to",
          "type": "address"
        }
      ],
      "name": "OwnershipTransferred",
      "type": "event"
    },
    {
      "anonymous": false,
      "inputs": [
        {
          "indexed": true,
          "internalType": "bytes32",
          "name": "id",
          "type": "bytes32"
        }
      ],
      "name": "RequestFulfilled",
      "type": "event"
    },
    {
      "anonymous": false,
      "inputs": [
        {
          "indexed": true,
          "internalType": "bytes32",
          "name": "id",
          "type": "bytes32"
        }
      ],
      "name": "RequestSent",
      "type": "event"
    },
    {
      "inputs": [],
      "name": "acceptOwnership",
      "outputs": [],
      "stateMutability": "nonpayable",
      "type": "function"
    },
    {
      "inputs": [
        {
          "internalType": "address",
          "name": "_spender",
          "type": "address"
        },
        {
          "internalType": "uint256",
          "name": "_value",
          "type": "uint256"
        }
      ],
      "name": "approveTokenSpender",
      "outputs": [],
      "stateMutability": "nonpayable",
      "type": "function"
    },
    {
      "inputs": [
        {
          "internalType": "address",
          "name": "",
          "type": "address"
        }
      ],
      "name": "authorMetadata",
      "outputs": [
        {
          "internalType": "string",
          "name": "name",
          "type": "string"
        },
        {
          "internalType": "string",
          "name": "imageUrl",
          "type": "string"
        },
        {
          "internalType": "string",
          "name": "websiteUrl",
          "type": "string"
        }
      ],
      "stateMutability": "view",
      "type": "function"
    },
    {
      "inputs": [],
      "name": "baseFee",
      "outputs": [
        {
          "internalType": "uint96",
          "name": "",
          "type": "uint96"
        }
      ],
      "stateMutability": "view",
      "type": "function"
    },
    {
      "inputs": [
        {
          "internalType": "string",
          "name": "functionName",
          "type": "string"
        },
        {
          "internalType": "address",
          "name": "owner",
          "type": "address"
        }
      ],
      "name": "calculateFunctionId",
      "outputs": [
        {
          "internalType": "bytes32",
          "name": "",
          "type": "bytes32"
        }
      ],
      "stateMutability": "pure",
      "type": "function"
    },
    {
      "inputs": [
        {
          "components": [
            {
              "internalType": "uint96",
              "name": "fees",
              "type": "uint96"
            },
            {
              "internalType": "string",
              "name": "functionName",
              "type": "string"
            },
            {
              "internalType": "string",
              "name": "desc",
              "type": "string"
            },
            {
              "internalType": "string",
              "name": "imageUrl",
              "type": "string"
            },
            {
              "internalType": "string",
              "name": "source",
              "type": "string"
            },
            {
              "internalType": "string[]",
              "name": "expectedArgs",
              "type": "string[]"
            },
            {
              "internalType": "enum Functions.Location",
              "name": "codeLocation",
              "type": "uint8"
            },
            {
              "internalType": "enum Functions.Location",
              "name": "secretsLocation",
              "type": "uint8"
            },
            {
              "internalType": "enum Functions.CodeLanguage",
              "name": "language",
              "type": "uint8"
            },
            {
              "internalType": "bytes32",
              "name": "category",
              "type": "bytes32"
            },
            {
              "internalType": "uint64",
              "name": "subId",
              "type": "uint64"
            },
            {
              "internalType": "bytes",
              "name": "secrets",
              "type": "bytes"
            }
          ],
          "internalType": "struct FunctionsManager.FunctionsRegisterRequest",
          "name": "request",
          "type": "tuple"
        },
        {
          "internalType": "address",
          "name": "owner",
          "type": "address"
        }
      ],
      "name": "calculateFunctionIdFromRequest",
      "outputs": [
        {
          "internalType": "bytes32",
          "name": "",
          "type": "bytes32"
        }
      ],
      "stateMutability": "pure",
      "type": "function"
    },
    {
      "inputs": [
        {
          "components": [
            {
              "internalType": "enum Functions.Location",
              "name": "codeLocation",
              "type": "uint8"
            },
            {
              "internalType": "enum Functions.Location",
              "name": "secretsLocation",
              "type": "uint8"
            },
            {
              "internalType": "enum Functions.CodeLanguage",
              "name": "language",
              "type": "uint8"
            },
            {
              "internalType": "string",
              "name": "source",
              "type": "string"
            },
            {
              "internalType": "bytes",
              "name": "secrets",
              "type": "bytes"
            },
            {
              "internalType": "string[]",
              "name": "args",
              "type": "string[]"
            }
          ],
          "internalType": "struct Functions.Request",
          "name": "req",
          "type": "tuple"
        },
        {
          "internalType": "uint64",
          "name": "subscriptionId",
          "type": "uint64"
        },
        {
          "internalType": "uint32",
          "name": "gasLimit",
          "type": "uint32"
        },
        {
          "internalType": "uint256",
          "name": "gasPrice",
          "type": "uint256"
        }
      ],
      "name": "estimateCost",
      "outputs": [
        {
          "internalType": "uint96",
          "name": "",
          "type": "uint96"
        }
      ],
      "stateMutability": "view",
      "type": "function"
    },
    {
      "inputs": [
        {
          "internalType": "bytes32",
          "name": "functionId",
          "type": "bytes32"
        },
        {
          "internalType": "string[]",
          "name": "args",
          "type": "string[]"
        },
        {
          "internalType": "uint32",
          "name": "gasLimit",
          "type": "uint32"
        }
      ],
      "name": "executeRequest",
      "outputs": [
        {
          "internalType": "bytes32",
          "name": "",
          "type": "bytes32"
        }
      ],
      "stateMutability": "nonpayable",
      "type": "function"
    },
    {
      "inputs": [],
      "name": "feeManagerCut",
      "outputs": [
        {
          "internalType": "uint32",
          "name": "",
          "type": "uint32"
        }
      ],
      "stateMutability": "view",
      "type": "function"
    },
    {
      "inputs": [
        {
          "internalType": "bytes32",
          "name": "functionId",
          "type": "bytes32"
        }
      ],
      "name": "forceUnlockFees",
      "outputs": [],
      "stateMutability": "nonpayable",
      "type": "function"
    },
    {
      "inputs": [
        {
          "internalType": "bytes32",
          "name": "",
          "type": "bytes32"
        }
      ],
      "name": "functionExecuteMetadatas",
      "outputs": [
        {
          "internalType": "address",
          "name": "owner",
          "type": "address"
        },
        {
          "internalType": "uint64",
          "name": "subId",
          "type": "uint64"
        },
        {
          "internalType": "uint96",
          "name": "fee",
          "type": "uint96"
        },
        {
          "internalType": "uint96",
          "name": "unlockedProfitPool",
          "type": "uint96"
        },
        {
          "internalType": "uint64",
          "name": "functionsCalledCount",
          "type": "uint64"
        },
        {
          "internalType": "uint96",
          "name": "lockedProfitPool",
          "type": "uint96"
        },
        {
          "internalType": "uint96",
          "name": "totalFeesCollected",
          "type": "uint96"
        },
        {
          "internalType": "uint64",
          "name": "successfulResponseCount",
          "type": "uint64"
        },
        {
          "internalType": "uint64",
          "name": "failedResponseCount",
          "type": "uint64"
        }
      ],
      "stateMutability": "view",
      "type": "function"
    },
    {
      "inputs": [],
      "name": "functionManagerProfitPool",
      "outputs": [
        {
          "internalType": "uint96",
          "name": "",
          "type": "uint96"
        }
      ],
      "stateMutability": "view",
      "type": "function"
    },
    {
      "inputs": [
        {
          "internalType": "bytes32",
          "name": "",
          "type": "bytes32"
        }
      ],
      "name": "functionMetadatas",
      "outputs": [
        {
          "internalType": "address",
          "name": "owner",
          "type": "address"
        },
        {
          "internalType": "string",
          "name": "name",
          "type": "string"
        },
        {
          "internalType": "string",
          "name": "desc",
          "type": "string"
        },
        {
          "internalType": "string",
          "name": "imageUrl",
          "type": "string"
        },
        {
          "internalType": "bytes32",
          "name": "category",
          "type": "bytes32"
        }
      ],
      "stateMutability": "view",
      "type": "function"
    },
    {
      "inputs": [
        {
          "internalType": "bytes32",
          "name": "",
          "type": "bytes32"
        }
      ],
      "name": "functionResponses",
      "outputs": [
        {
          "internalType": "bytes32",
          "name": "functionId",
          "type": "bytes32"
        },
        {
          "internalType": "address",
          "name": "caller",
          "type": "address"
        },
        {
          "internalType": "bytes32",
          "name": "callbackFunction",
          "type": "bytes32"
        },
        {
          "internalType": "bytes",
          "name": "response",
          "type": "bytes"
        },
        {
          "internalType": "bytes",
          "name": "err",
          "type": "bytes"
        }
      ],
      "stateMutability": "view",
      "type": "function"
    },
    {
      "inputs": [],
      "name": "functionsCalledCount",
      "outputs": [
        {
          "internalType": "uint96",
          "name": "",
          "type": "uint96"
        }
      ],
      "stateMutability": "view",
      "type": "function"
    },
    {
      "inputs": [],
      "name": "functionsRegisteredCount",
      "outputs": [
        {
          "internalType": "uint64",
          "name": "",
          "type": "uint64"
        }
      ],
      "stateMutability": "view",
      "type": "function"
    },
    {
      "inputs": [],
      "name": "getDONPublicKey",
      "outputs": [
        {
          "internalType": "bytes",
          "name": "",
          "type": "bytes"
        }
      ],
      "stateMutability": "view",
      "type": "function"
    },
    {
      "inputs": [
        {
          "internalType": "bytes32",
          "name": "_functionId",
          "type": "bytes32"
        }
      ],
      "name": "getFunctionExecuteMetadata",
      "outputs": [
        {
          "components": [
            {
              "internalType": "address",
              "name": "owner",
              "type": "address"
            },
            {
              "internalType": "uint64",
              "name": "subId",
              "type": "uint64"
            },
            {
              "internalType": "uint96",
              "name": "fee",
              "type": "uint96"
            },
            {
              "internalType": "uint96",
              "name": "unlockedProfitPool",
              "type": "uint96"
            },
            {
              "internalType": "uint64",
              "name": "functionsCalledCount",
              "type": "uint64"
            },
            {
              "internalType": "uint96",
              "name": "lockedProfitPool",
              "type": "uint96"
            },
            {
              "internalType": "uint96",
              "name": "totalFeesCollected",
              "type": "uint96"
            },
            {
              "internalType": "uint64",
              "name": "successfulResponseCount",
              "type": "uint64"
            },
            {
              "internalType": "uint64",
              "name": "failedResponseCount",
              "type": "uint64"
            }
          ],
          "internalType": "struct FunctionsManager.FunctionExecuteMetadata",
          "name": "",
          "type": "tuple"
        }
      ],
      "stateMutability": "view",
      "type": "function"
    },
    {
      "inputs": [
        {
          "internalType": "bytes32",
          "name": "_functionId",
          "type": "bytes32"
        }
      ],
      "name": "getFunctionMetadata",
      "outputs": [
        {
          "components": [
            {
              "internalType": "address",
              "name": "owner",
              "type": "address"
            },
            {
              "internalType": "string",
              "name": "name",
              "type": "string"
            },
            {
              "internalType": "string",
              "name": "desc",
              "type": "string"
            },
            {
              "internalType": "string",
              "name": "imageUrl",
              "type": "string"
            },
            {
              "internalType": "string[]",
              "name": "expectedArgs",
              "type": "string[]"
            },
            {
              "internalType": "bytes32",
              "name": "category",
              "type": "bytes32"
            }
          ],
          "internalType": "struct FunctionsManager.FunctionMetadata",
          "name": "",
          "type": "tuple"
        }
      ],
      "stateMutability": "view",
      "type": "function"
    },
    {
      "inputs": [
        {
          "internalType": "bytes32",
          "name": "_requestId",
          "type": "bytes32"
        }
      ],
      "name": "getFunctionResponse",
      "outputs": [
        {
          "components": [
            {
              "internalType": "bytes32",
              "name": "functionId",
              "type": "bytes32"
            },
            {
              "internalType": "address",
              "name": "caller",
              "type": "address"
            },
            {
              "internalType": "bytes32",
              "name": "callbackFunction",
              "type": "bytes32"
            },
            {
              "internalType": "bytes",
              "name": "response",
              "type": "bytes"
            },
            {
              "internalType": "bytes",
              "name": "err",
              "type": "bytes"
            }
          ],
          "internalType": "struct FunctionsManager.FunctionResponse",
          "name": "",
          "type": "tuple"
        }
      ],
      "stateMutability": "view",
      "type": "function"
    },
    {
      "inputs": [
        {
          "internalType": "uint64",
          "name": "_subscriptionId",
          "type": "uint64"
        }
      ],
      "name": "getSubscriptionBalance",
      "outputs": [
        {
          "internalType": "uint256",
          "name": "",
          "type": "uint256"
        }
      ],
      "stateMutability": "view",
      "type": "function"
    },
    {
      "inputs": [
        {
          "internalType": "bytes32",
          "name": "requestId",
          "type": "bytes32"
        },
        {
          "internalType": "bytes",
          "name": "response",
          "type": "bytes"
        },
        {
          "internalType": "bytes",
          "name": "err",
          "type": "bytes"
        }
      ],
      "name": "handleOracleFulfillment",
      "outputs": [],
      "stateMutability": "nonpayable",
      "type": "function"
    },
    {
      "inputs": [],
      "name": "minimumSubscriptionBalance",
      "outputs": [
        {
          "internalType": "uint96",
          "name": "",
          "type": "uint96"
        }
      ],
      "stateMutability": "view",
      "type": "function"
    },
    {
      "inputs": [],
      "name": "owner",
      "outputs": [
        {
          "internalType": "address",
          "name": "",
          "type": "address"
        }
      ],
      "stateMutability": "view",
      "type": "function"
    },
    {
      "inputs": [
        {
          "internalType": "uint64",
          "name": "_subscriptionId",
          "type": "uint64"
        }
      ],
      "name": "refillSubscription",
      "outputs": [],
      "stateMutability": "nonpayable",
      "type": "function"
    },
    {
      "inputs": [
        {
          "components": [
            {
              "internalType": "uint96",
              "name": "fees",
              "type": "uint96"
            },
            {
              "internalType": "string",
              "name": "functionName",
              "type": "string"
            },
            {
              "internalType": "string",
              "name": "desc",
              "type": "string"
            },
            {
              "internalType": "string",
              "name": "imageUrl",
              "type": "string"
            },
            {
              "internalType": "string",
              "name": "source",
              "type": "string"
            },
            {
              "internalType": "string[]",
              "name": "expectedArgs",
              "type": "string[]"
            },
            {
              "internalType": "enum Functions.Location",
              "name": "codeLocation",
              "type": "uint8"
            },
            {
              "internalType": "enum Functions.Location",
              "name": "secretsLocation",
              "type": "uint8"
            },
            {
              "internalType": "enum Functions.CodeLanguage",
              "name": "language",
              "type": "uint8"
            },
            {
              "internalType": "bytes32",
              "name": "category",
              "type": "bytes32"
            },
            {
              "internalType": "uint64",
              "name": "subId",
              "type": "uint64"
            },
            {
              "internalType": "bytes",
              "name": "secrets",
              "type": "bytes"
            }
          ],
          "internalType": "struct FunctionsManager.FunctionsRegisterRequest",
          "name": "request",
          "type": "tuple"
        }
      ],
      "name": "registerFunction",
      "outputs": [
        {
          "internalType": "bytes32",
          "name": "",
          "type": "bytes32"
        }
      ],
      "stateMutability": "payable",
      "type": "function"
    },
    {
      "inputs": [
        {
          "internalType": "uint96",
          "name": "_baseFee",
          "type": "uint96"
        }
      ],
      "name": "setBaseFee",
      "outputs": [],
      "stateMutability": "nonpayable",
      "type": "function"
    },
    {
      "inputs": [
        {
          "internalType": "uint32",
          "name": "_feeManagerCut",
          "type": "uint32"
        }
      ],
      "name": "setFeeManagerCut",
      "outputs": [],
      "stateMutability": "nonpayable",
      "type": "function"
    },
    {
      "inputs": [
        {
          "internalType": "uint96",
          "name": "_minimumSubBalance",
          "type": "uint96"
        }
      ],
      "name": "setMinimumSubscriptionBalance",
      "outputs": [],
      "stateMutability": "nonpayable",
      "type": "function"
    },
    {
      "inputs": [
        {
          "internalType": "uint64",
          "name": "",
          "type": "uint64"
        }
      ],
      "name": "subscriptionBalances",
      "outputs": [
        {
          "internalType": "uint96",
          "name": "",
          "type": "uint96"
        }
      ],
      "stateMutability": "view",
      "type": "function"
    },
    {
      "inputs": [],
      "name": "totalFeesCollected",
      "outputs": [
        {
          "internalType": "uint96",
          "name": "",
          "type": "uint96"
        }
      ],
      "stateMutability": "view",
      "type": "function"
    },
    {
      "inputs": [
        {
          "internalType": "address",
          "name": "to",
          "type": "address"
        }
      ],
      "name": "transferOwnership",
      "outputs": [],
      "stateMutability": "nonpayable",
      "type": "function"
    },
    {
      "inputs": [
        {
          "internalType": "bytes32",
          "name": "functionId",
          "type": "bytes32"
        }
      ],
      "name": "withdrawFunctionProfitToAuthor",
      "outputs": [],
      "stateMutability": "nonpayable",
      "type": "function"
    },
    {
      "inputs": [],
      "name": "withdrawFunctionsManagerProfitToOwner",
      "outputs": [],
      "stateMutability": "nonpayable",
      "type": "function"
    },
    {
      "inputs": [
        {
          "internalType": "bytes32[]",
          "name": "functionIds",
          "type": "bytes32[]"
        }
      ],
      "name": "withdrawMultipleFunctionProfitToAuthor",
      "outputs": [],
      "stateMutability": "nonpayable",
      "type": "function"
    }
  ],
  "bytecode": "0x608034620001f557601f6200606938819003918201601f19168301916001600160401b03831184841017620001fa5780849260c094604052833981010312620001f5576200004d8162000210565b6200005b6020830162000210565b906200006a6040840162000210565b92620000796060820162000225565b60808201519263ffffffff841692838503620001f55760a06200009d910162000225565b600080546001600160a01b039889166001600160a01b03199182168117909255909790969195913315620001b057338860025416176002556064600e5496116200015157816fffffffff000000000000000000000000941688600b541617600b551686600c541617600c5560601b16916c01000000000000000000000000600160e01b03191690600160801b600160e01b039060801b161717600e5560a01b1617600d55604051615e2e90816200023b8239f35b60405162461bcd60e51b815260206004820152603160248201527f466565206d616e6167657220637574206d757374206265206c6573732074686160448201527006e206f7220657175616c20746f2031303607c1b6064820152608490fd5b60405162461bcd60e51b815260206004820152601860248201527f43616e6e6f7420736574206f776e657220746f207a65726f00000000000000006044820152606490fd5b600080fd5b634e487b7160e01b600052604160045260246000fd5b51906001600160a01b0382168203620001f557565b51906001600160601b0382168203620001f55756fe6080604052600436101561001257600080fd5b60003560e01c80630ca76175146102475780631ac67b34146102425780631f3597fa1461023d578063228764b214610238578063257912f3146102335780634351077d1461022e578063475a8b46146102295780634e011def1461022457806356fa1a2a1461021f57806360c6d8ae1461021a5780636ef25c3a146102155780637587b1b21461021057806379ba50971461020b5780637b0caaa2146102065780637bcb334d146102015780638913aa6d146101fc5780638a328420146101f75780638da5cb5b146101f257806396e10261146101ed578063a1901523146101e8578063a36df5c2146101e3578063b6db95e0146101de578063ba9c513f146101d9578063bdf47104146101d4578063be4f00cd146101cf578063c7147f81146101ca578063d328a91e146101c5578063d4b39175146101c0578063d5549c8a146101bb578063d7e6a96b146101b6578063de76f053146101b1578063e58e3650146101ac578063f2fde38b146101a7578063f3ba47eb146101a25763f8454cd81461019d57600080fd5b612422565b612348565b612281565b611d2e565b611c21565b611bbe565b611b97565b611a91565b6119a3565b6118ab565b611805565b6117e5565b61174c565b6115d8565b61149c565b611472565b6113ec565b6113ae565b611335565b61128a565b611225565b6111eb565b611121565b6110da565b611087565b611066565b610ff4565b610f34565b610e3e565b610d5a565b610cdd565b610c23565b6109e2565b610942565b6103cb565b634e487b7160e01b600052604160045260246000fd5b60c081019081106001600160401b0382111761027d57604052565b61024c565b60a081019081106001600160401b0382111761027d57604052565b6001600160401b03811161027d57604052565b604081019081106001600160401b0382111761027d57604052565b606081019081106001600160401b0382111761027d57604052565b90601f801991011681019081106001600160401b0382111761027d57604052565b6040519061018082018281106001600160401b0382111761027d57604052565b6040519061033482610262565b565b6040519061012082018281106001600160401b0382111761027d57604052565b6001600160401b03811161027d57601f01601f191660200190565b92919261037d82610356565b9161038b60405193846102e6565b8294818452818301116103a8578281602093846000960137010152565b600080fd5b9080601f830112156103a8578160206103c893359101610371565b90565b346103a85760603660031901126103a8576001600160401b036004356024358281116103a8576103ff9036906004016103ad565b916044359081116103a8576104189036906004016103ad565b91610429610424614dbb565b615ba8565b61043a33610435614df4565b615c4b565b6001600160a01b0392610470338561046961045d600c546001600160a01b031690565b6001600160a01b031690565b1614614e53565b6104a38461049b600161048d876000526006602052604060002090565b01546001600160a01b031690565b161515614ec4565b6104e86104e161045d6104d46104c3876000526006602052604060002090565b546000526005602052604060002090565b546001600160a01b031690565b1515614f35565b6104f433610435614fa6565b61051061050b846000526006602052604060002090565b614628565b9382606086015281608086015261053a85610535866000526006602052604060002090565b613bec565b61055761055286516000526005602052604060002090565b6136d6565b610562610424615005565b6106566106356105bf6105af61058260408601516001600160601b031690565b6105a96105a061059b600e5463ffffffff9060601c1690565b61503e565b63ffffffff1690565b90613927565b6001600160601b03606491160490565b6105ed60a085016105e0836105db83516001600160601b031690565b613b0a565b6001600160601b03169052565b61060e606085016105e08361060983516001600160601b031690565b61390c565b61062a60c085016105e08361060983516001600160601b031690565b600f5460a01c61390c565b6001600160a01b036001600160a01b0319600f549260a01b16911617600f55565b82516107fb5761068960e0820161067c61067782516001600160401b031690565b61310f565b6001600160401b03169052565b6106a7816106a288516000526005602052604060002090565b612e5b565b6106b2610424615053565b61070f6106ca61045d600c546001600160a01b031690565b93600060208401956106e387516001600160401b031690565b90604051808096819463523e3b4b60e11b8352600483019190916001600160401b036020820193169052565b03915afa9485156107f6577f6968e95d7bc2605bb814d168859020d6e2f617bc615d1ae5aef0ce68af0d1631956107b0936000916107d3575b506001600160601b0361076c610760600d5460a01c90565b6001600160601b031690565b9116106107b5575b50875195604061079f61079160208c01516001600160a01b031690565b95516001600160a01b031690565b9901516040519586951699856150b2565b0390a4005b516107cd906001600160401b0316614342565b614342565b38610774565b6107ee913d8091833e6107e681836102e6565b81019061282e565b505038610748565b6128d0565b610817610100820161067c61067782516001600160401b031690565b610689565b90600182811c9216801561084c575b602083101461083657565b634e487b7160e01b600052602260045260246000fd5b91607f169161082b565b906040519182600082549261086a8461081c565b9081845260019485811690816000146108d75750600114610894575b5050610334925003836102e6565b9093915060005260209081600020936000915b8183106108bf57505061033493508201013880610886565b855488840185015294850194879450918301916108a7565b91505061033494506020925060ff191682840152151560051b8201013880610886565b60005b83811061090d5750506000910152565b81810151838201526020016108fd565b90602091610936815180928185528580860191016108fa565b601f01601f1916010190565b346103a85760203660031901126103a857600435600052600460205260406000206001600160a01b0381541661097a60018301610856565b916109d861098a60028301610856565b916109ca600561099c60038401610856565b920154936109bc604051978897885260a0602089015260a088019061091d565b90868203604088015261091d565b90848203606086015261091d565b9060808301520390f35b346103a85760203660031901126103a857610af16020600435610a1061045d6002546001600160a01b031690565b33148015610b2a575b610a22906144d5565b610a4c6001610a3b836000526005602052604060002090565b015460601c6001600160601b031690565b90610a886001610a66836000526005602052604060002090565b0177ffffffffffffffffffffffff000000000000000000000000198154169055565b610ab46104d4610aa361045d600b546001600160a01b031690565b926000526005602052604060002090565b600060405180968195829463a9059cbb60e01b8452600484019092916001600160601b036020916001600160a01b03604085019616845216910152565b03925af180156107f657610b0157005b610b219060203d8111610b23575b610b1981836102e6565b8101906131e7565b005b503d610b0f565b50610a22610b4861045d6104d4846000526005602052604060002090565b33149050610a19565b6020918282526001600160a01b0381511683830152610b7e8382015160c0604085015260e084019061091d565b610bb1610b9d604084015192601f19938487830301606088015261091d565b60608401518386830301608087015261091d565b608083015194828583030160a086015285519182815281810182808560051b8401019801946000925b858410610bf5575050505050505060a060c091015191015290565b909192939495988580610c12838686600196030188528d5161091d565b9b0194019401929594939190610bda565b346103a85760203660031901126103a857610c3c612706565b50610c486104246145ef565b6004356000526004602052610cce6040600020600560405191610c6a83610262565b6001600160a01b038154168352610c8360018201610856565b6020840152610c9460028201610856565b6040840152610ca560038201610856565b6060840152610cb660048201613809565b6080840152015460a082015260405191829182610b51565b0390f35b60009103126103a857565b346103a85760003660031901126103a8576020600d5460a01c604051908152f35b906103c89160208152815160208201526001600160a01b036020830151166040820152604082015160608201526080610d45606084015160a08385015260c084019061091d565b9201519060a0601f198285030191015261091d565b346103a85760203660031901126103a857610d73613bbf565b50610db2604051610d83816102b0565b601381527f67657446756e6374696f6e526573706f6e7365000000000000000000000000006020820152615ba8565b6004356000526006602052610cce6040600020610e0f600460405192610dd784610282565b805484526001600160a01b03600182015416602085015260028101546040850152610e0460038201610856565b606085015201610856565b608082015260405191829182610cfe565b6001600160a01b038116036103a857565b6024359061033482610e20565b346103a85760403660031901126103a857610af16020600435610e6081610e20565b60243590610e6c612543565b610ed18282604051610e7d816102cb565b603a81527f617070726f76696e672025732061732061207370656e646572206f66204c494e878201527f4b207769746820612076616c7565206f6620757020746f2025640000000000006040820152615d8d565b610ee661045d600b546001600160a01b031690565b9060006040518096819582947f095ea7b300000000000000000000000000000000000000000000000000000000845260048401602090939291936001600160a01b0360408201951681520152565b346103a85760203660031901126103a857600435600052600560205260406000208054610cce6001830154610f78600360028601549501546001600160401b031690565b604080516001600160a01b03861681526001600160401b0360a096871c811660208301526001600160601b0385811693830193909352606085811c84168184015260c095861c6080840152888416978301979097529587901c909116838201529490911c60e08501529091166101008301528190610120820190565b346103a85760403660031901126103a8576004356001600160401b038082116103a857366023830112156103a85781600401359081116103a85736602482840101116103a857610cce9161105691602480359261105084610e20565b01614676565b6040519081529081906020820190565b346103a85760003660031901126103a8576020600f5460a01c604051908152f35b346103a85760003660031901126103a85760206001600160601b03600e5460801c16604051908152f35b6001600160401b038116036103a857565b60243590610334826110b1565b3590610334826110b1565b346103a85760203660031901126103a8576001600160401b036004356110ff816110b1565b16600052600a60205260206001600160601b0360406000205416604051908152f35b346103a8576000806003193601126111e8576001600160a01b03806003541633036111a4576002546001600160a01b0316600280546001600160a01b031916331790559061117a6001600160a01b031960035416600355565b3391167f8be0079c531659141344cd1fd0a4f28419497f9722a3daafe3b4186f6b6457e08380a380f35b606460405162461bcd60e51b815260206004820152601660248201527f4d7573742062652070726f706f736564206f776e6572000000000000000000006044820152fd5b80fd5b346103a85760003660031901126103a857602063ffffffff600e5460601c16604051908152f35b6044359063ffffffff821682036103a857565b346103a85760603660031901126103a8576024356001600160401b038082116103a857366023830112156103a85781600401359081116103a8573660248260051b840101116103a857610cce91611056916024611280611212565b9201600435613d57565b346103a85760203660031901126103a8576001600160a01b036004356112af81610e20565b1660005260096020526112fd6040600020610cce6112cc82610856565b9161130b6112e860026112e160018501610856565b9301610856565b9160405195869560608752606087019061091d565b90858203602087015261091d565b90838203604085015261091d565b6001600160601b038116036103a857565b359061033482611319565b346103a85760203660031901126103a8577fcefd6167f8a328d10167fe2c462697369efecfa6db2373014c0b4489d2854e53602060043561137581611319565b61137d612543565b600d546001600160a01b036001600160a01b03198360a01b16911617600d556001600160601b0360405191168152a1005b346103a85760003660031901126103a85760206001600160a01b0360025416604051908152f35b6001600160401b03811161027d5760051b60200190565b346103a8576020806003193601126103a8576004356001600160401b0381116103a857366023820112156103a857806004013590611429826113d5565b9161143760405193846102e6565b80835260248484019160051b830101913683116103a857602401905b82821061146357610b218461456c565b81358152908401908401611453565b346103a85760003660031901126103a8576020600f546001600160601b036040519160401c168152f35b346103a85760203660031901126103a857600435600052600660205260406000208054610cce6001600160a01b03600184015416926115166002820154916114f260046114eb60038401610856565b9201610856565b9260405196879687526020870152604086015260a0606086015260a085019061091d565b90838203608085015261091d565b92919092611531846113d5565b9161153f60405193846102e6565b829480845260208094019060051b8301928284116103a85780915b84831061156957505050505050565b82356001600160401b0381116103a857869161158886849386016103ad565b81520192019161155a565b9080601f830112156103a8578160206103c893359101611524565b600211156103a857565b3590610334826115ae565b600111156103a857565b3590610334826115c3565b346103a8576003196040368201126103a85760048035916001600160401b03908184116103a8576101809084360301126103a857611614610307565b9061162084840161132a565b825260248401358181116103a85761163d908436918701016103ad565b602083015260448401358181116103a85761165d908436918701016103ad565b604083015260648401358181116103a85761167d908436918701016103ad565b606083015260848401358181116103a85761169d908436918701016103ad565b608083015260a48401358181116103a8576116bd90843691870101611593565b60a08301526116ce60c485016115b8565b60c08301526116df60e485016115b8565b60e08301526116f161010485016115cd565b61010083015261012484013561012083015261171061014485016110cf565b6101408301526101648401359081116103a857610cce936110569361173892369201016103ad565b610160820152611746610e31565b906146b6565b346103a85760203660031901126103a85760043563ffffffff8116908181036103a8577f5df6c53187c7cfa2643679f49eee9fc8a62e23a074ed0b12f17b5635c25f721d9160209161179c612543565b7fffffffffffffffffffffffffffffffff00000000ffffffffffffffffffffffff6fffffffff000000000000000000000000600e549260601b16911617600e55604051908152a1005b346103a85760203660031901126103a857610b216004356107c8816110b1565b346103a85760203660031901126103a8577f803bee7e92bbc6ae7a1551f9f4ed3e31a8ea8df32e93332f41b0028f1091f9c3602060043561184581611319565b61184d612543565b600e547fffffffff000000000000000000000000ffffffffffffffffffffffffffffffff7bffffffffffffffffffffffff000000000000000000000000000000008360801b16911617600e556001600160601b0360405191168152a1005b346103a8576000806003193601126111e8576118c5612543565b6118dc6001600160a01b0360025416610435614476565b61196560206118f3600e546001600160601b031690565b6119086001600160601b0319600e5416600e55565b61191d61045d600b546001600160a01b031690565b6002546001600160a01b03168560405180968195829463a9059cbb60e01b8452600484019092916001600160601b036020916001600160a01b03604085019616845216910152565b03925af180156107f657611977575080f35b61198e9060203d8111610b2357610b1981836102e6565b5080f35b9060206103c892818152019061091d565b346103a8576000806003193601126111e8576004816001600160a01b03815416604051928380927fd328a91e0000000000000000000000000000000000000000000000000000000082525afa9081156107f6578291611a0b575b60405180610cce8482611992565b90503d8083833e611a1c81836102e6565b810190602081830312611a89578051906001600160401b038211611a8d570181601f82011215611a8957805192611a5284610356565b92611a6060405194856102e6565b848452602085840101116111e85750610cce92611a8391602080850191016108fa565b386119fd565b8280fd5b8380fd5b346103a8576003196080368201126103a8576004356001600160401b03918282116103a85760c09082360301126103a857611aca610327565b611ad6826004016115b8565b8152611ae4602483016115b8565b6020820152611af5604483016115cd565b604082015260648201358381116103a857611b1690600436918501016103ad565b606082015260848201358381116103a857611b3790600436918501016103ad565b608082015260a48201359283116103a857611b5e611b7d926004610cce9536920101611593565b60a0820152611b6b6110c2565b611b73611212565b90606435926147d7565b6040516001600160601b0390911681529081906020820190565b346103a85760003660031901126103a85760206001600160601b03600e5416604051908152f35b346103a85760203660031901126103a8576001600160401b03600435611be3816110b1565b6110ff604051611bf2816102b0565b601681527f676574537562736372697074696f6e42616c616e6365000000000000000000006020820152615ba8565b346103a85760203660031901126103a857611c3a612543565b600435600052600560205260406000206001600160a01b0381541615611cea5780611cd56002610b21930191611c946001611c7c85546001600160601b031690565b92019161060983546001600160601b039060601c1690565b77ffffffffffffffffffffffff0000000000000000000000001977ffffffffffffffffffffffff00000000000000000000000083549260601b169116179055565b80546bffffffffffffffffffffffff19169055565b606460405162461bcd60e51b815260206004820152601760248201527f46756e6374696f6e20646f6573206e6f742065786973740000000000000000006044820152fd5b602060031981813601126103a857600435916001600160401b038084116103a857610180846004019385360301126103a857611d698361259b565b506024840190611d85611d7c83866125a5565b905015156125d7565b611dae611d9283866125a5565b90611da8611d9e612622565b9133933691610371565b90615d12565b611db882856125a5565b611dd3611de160409693875192839186830195339187612681565b03601f1981018352826102e6565b519020946001600160a01b0392611e1084611e096104d48a6000526004602052604060002090565b16156126bb565b611e33611e2d61045d6104d48a6000526005602052604060002090565b156126bb565b611e52611e4b611e41612706565b33815296846125a5565b3691610371565b83860152611e66611e4b60448a01846125a5565b86860152611e7a611e4b60648a01846125a5565b6060860152611e96611e8f60a48a018461273a565b3691611524565b608086015260a08501936101248901358552611eb061276f565b33815291611ecf611ec08561259b565b6001600160601b0316848a0152565b6101448a019080611edf836127c5565b166120fe57505050611ef26104246129c7565b611f0761045d600b546001600160a01b031690565b86516370a0823160e01b815233600482015291908490839060249082905afa9889156107f657611f7561202095611f5e610cce9c612007966000916120d1575b50611f57610760600d5460a01c90565b1115612a0f565b611f6661335b565b6001600160401b031690840152565b611f7d612a80565b93611fb1611f8d60c48401612ad8565b611f9a6101048501612aec565b611faa611e4b60848701866125a5565b91886146fe565b6001611fbf60e48401612ad8565b611fc881612ac9565b14806120b9575b612097575b5050611ff386611fee8a6000526004602052604060002090565b612d1d565b6106a2886000526005602052604060002090565b61201b866000526007602052604060002090565b61307e565b5190837f12e4b4be5fe05eb0dff7a431e5ab13f8446aa6cf09a94b595e1d982a7ab02e51845180612052339582610b51565b0390a461208961206d610677600f546001600160401b031690565b6001600160401b03166001600160401b0319600f541617600f55565b519081529081906020820190565b611e4b6120ac916101646120b29401906125a5565b8461474d565b3880611fd4565b506120c86101648301826125a5565b90501515611fcf565b6120f19150833d85116120f7575b6120e981836102e6565b810190612a00565b38611f47565b503d6120df565b61212290612111839c959697949c6127c5565b9061211a6127cf565b911690615bef565b61213761045d600c546001600160a01b031690565b996000612170612146846127c5565b8b5163523e3b4b60e11b81526001600160401b0390911660048201529c8d91829081906024820190565b03915afa9a8b156107f657600090819c612262575b50163081149033146000915b8c51831015612240578c6121b961045d6121ac863094612906565b516001600160a01b031690565b0361221f57506001915b8280612218575b6121dd576121d7906128f2565b91612191565b50610cce9b5092611f66612007959361220661220b946120209a99975b81612210575b50612930565b6127c5565b611f75565b905038612200565b50816121ca565b918c61223261045d6121ac843394612906565b036121c357600191506121c3565b610cce9c5061220b92506120079593612206611f66926120209a9997946121fa565b90612278929c503d8091833e6107e681836102e6565b9b915038612185565b346103a85760203660031901126103a8576001600160a01b036004356122a681610e20565b6122ae612543565b1633811461230457806001600160a01b031960035416176003556122dd61045d6002546001600160a01b031690565b7fed8889f560326eb138920d842192f0eb3dd22b4f139c87a2c57538e05bae1278600080a3005b606460405162461bcd60e51b815260206004820152601760248201527f43616e6e6f74207472616e7366657220746f2073656c660000000000000000006044820152fd5b346103a85760003660031901126103a85760206001600160401b03600f5416604051908152f35b81516001600160a01b031681526020808301516001600160401b0316908201526040808301516001600160601b0316908201526101208101929161033491906060818101516001600160601b0316908301526080818101516001600160401b03169083015260a0818101516001600160601b03169083015260c0818101516001600160601b03169083015260e0818101516001600160401b031690830152610100908101516001600160401b0316910152565b346103a85760203660031901126103a85761243b61276f565b506124476104246145ef565b6004356000526005602052610cce6040600020612537612526600361246a610336565b936124aa6001600160401b0382546124946001600160a01b03821689906001600160a01b03169052565b60a01c1660208701906001600160401b03169052565b60018101546001600160601b038082166040880152606082811c821690880152612518916124dc9060c01c6080890152565b60028301546001600160601b038282161660a08901529061250e908260601c1660c08901906001600160601b03169052565b60c01c60e0870152565b01546001600160401b031690565b6001600160401b0316610100830152565b6040519182918261236f565b6001600160a01b0360025416330361255757565b606460405162461bcd60e51b815260206004820152601660248201527f4f6e6c792063616c6c61626c65206279206f776e6572000000000000000000006044820152fd5b356103c881611319565b903590601e19813603018212156103a857018035906001600160401b0382116103a8576020019181360383136103a857565b156125de57565b606460405162461bcd60e51b815260206004820152601d60248201527f46756e6374696f6e206e616d652063616e6e6f7420626520656d7074790000006044820152fd5b6040519061262f826102cb565b602482527f72202573000000000000000000000000000000000000000000000000000000006040837f726567697374657246756e6374696f6e2c206e616d653a2025732073656e646560208201520152565b916060816001600160a01b039260209497969760408752816040880152838701376000828287010152601f80199101168401019416910152565b156126c257565b606460405162461bcd60e51b815260206004820152601760248201527f46756e6374696f6e20616c7265616479206578697374730000000000000000006044820152fd5b6040519061271382610262565b600060a0838281526060602082015260606040820152606080820152606060808201520152565b903590601e19813603018212156103a857018035906001600160401b0382116103a857602001918160051b360383136103a857565b6040519061012082018281106001600160401b0382111761027d57604052816101006000918281528260208201528260408201528260608201528260808201528260a08201528260c08201528260e08201520152565b356103c8816110b1565b604051906127dc826102cb565b603682527f636865636b696e6720696620617574686f72697a6564000000000000000000006040837f7573696e67206578697374696e6720737562736372697074696f6e2025642c2060208201520152565b90916060828403126103a857815161284581611319565b9260208084015161285581610e20565b936040810151906001600160401b0382116103a857019180601f840112156103a8578251612882816113d5565b9361289060405195866102e6565b818552838086019260051b8201019283116103a8578301905b8282106128b7575050505090565b83809183516128c581610e20565b8152019101906128a9565b6040513d6000823e3d90fd5b634e487b7160e01b600052601160045260246000fd5b60001981146129015760010190565b6128dc565b805182101561291a5760209160051b010190565b634e487b7160e01b600052603260045260246000fd5b1561293757565b60a460405162461bcd60e51b815260206004820152604f60248201527f46756e6374696f6e734d616e6167657220616e642f6f722063616c6c6572206160448201527f7265206e6f7420617574686f72697a656420636f6e73756d657273206f66207460648201527f686520737562736372697074696f6e00000000000000000000000000000000006084820152fd5b604051906129d4826102b0565b601982527f6372656174696e67206e657720737562736372697074696f6e000000000000006020830152565b908160209103126103a8575190565b15612a1657565b608460405162461bcd60e51b815260206004820152602e60248201527f496e73756666696369656e74204c494e4b2062616c616e636520746f2066756e60448201527f6420737562736372697074696f6e0000000000000000000000000000000000006064820152fd5b60405190612a8d82610262565b606060a08360008152600060208201526000604082015282808201528260808201520152565b634e487b7160e01b600052602160045260246000fd5b60021115612ad357565b612ab3565b356103c8816115ae565b60011115612ad357565b356103c8816115c3565b818110612b01575050565b60008155600101612af6565b9190601f8111612b1c57505050565b610334926000526020600020906020601f840160051c83019310612b48575b601f0160051c0190612af6565b9091508190612b3b565b91909182516001600160401b03811161027d57612b7981612b73845461081c565b84612b0d565b602080601f8311600114612bb5575081929394600092612baa575b50508160011b916000199060031b1c1916179055565b015190503880612b94565b90601f19831695612bcb85600052602060002090565b926000905b888210612c0857505083600195969710612bef575b505050811b019055565b015160001960f88460031b161c19169055388080612be5565b80600185968294968601518155019501930190612bd0565b908160011b918083046002149015171561290157565b81519168010000000000000000831161027d578154838355808410612c99575b50612c6b602080920192600052602060002090565b6000925b848410612c7d575050505050565b60018382612c8d83945186612b52565b01920193019290612c6f565b6000838152846020822092830192015b828110612cb7575050612c56565b80612cc46001925461081c565b80612cd1575b5001612ca9565b601f908181118414612ce95750508281555b38612cca565b83612d0b92612cfd85600052602060002090565b920160051c82019101612af6565b60008181526020812081835555612ce3565b815181546001600160a01b0319166001600160a01b039190911617815590600190818301602080830151938451916001600160401b03831161027d57612d6d83612d67865461081c565b86612b0d565b80601f8411600114612de557509180809260a0969594600598600094612dda575b50501b916000199060031b1c19161790555b612db1604082015160028601612b52565b612dc2606082015160038601612b52565b612dd3608082015160048601612c36565b0151910155565b015192503880612d8e565b91939495601f198416612dfd87600052602060002090565b936000905b828210612e44575050916005979593918560a098969410612e2b575b505050811b019055612da0565b015160001960f88460031b161c19169055388080612e1e565b808886978294978701518155019601940190612e02565b600361304061010061033494612e97612e7b82516001600160a01b031690565b86906001600160a01b03166001600160a01b0319825416179055565b612efb612eae60208301516001600160401b031690565b86547fffffffff0000000000000000ffffffffffffffffffffffffffffffffffffffff1660a09190911b7bffffffffffffffff000000000000000000000000000000000000000016178655565b612fea60018601612f3a612f1960408501516001600160601b031690565b82546bffffffffffffffffffffffff19166001600160601b03909116178255565b612f93612f5160608501516001600160601b031690565b825477ffffffffffffffffffffffff000000000000000000000000191660609190911b77ffffffffffffffffffffffff00000000000000000000000016178255565b60808301516001600160401b03165b77ffffffffffffffffffffffffffffffffffffffffffffffff7fffffffffffffffff00000000000000000000000000000000000000000000000083549260c01b169116179055565b61303260028601613008612f1960a08501516001600160601b031690565b61301f612f5160c08501516001600160601b031690565b60e08301516001600160401b0316612fa2565b01516001600160401b031690565b9101906001600160401b03166001600160401b0319825416179055565b906001811015612ad35762ff000082549160101b169062ff00001916179055565b8151916002831015612ad35760ff82549316908160ff1985161783556020810151906130a982612ac9565b6002821015612ad3576103349460039361ff0060a09460081b169161ffff1916171784556130e460408201516130de81612ae2565b8561305d565b6130f5606082015160018601612b52565b613106608082015160028601612b52565b01519101612c36565b6001600160401b038091169081146129015760010190565b908160209103126103a857516103c8816110b1565b60405190613149826102b0565b601f82527f6372656174656420737562736372697074696f6e2077697468206964202564006020830152565b60405190613182826102b0565b601582527f616464696e6720257320617320636f6e73756d657200000000000000000000006020830152565b604051906131bb826102b0565b601982527f73656e646572202573204c494e4b2062616c616e6365202564000000000000006020830152565b908160209103126103a8575180151581036103a85790565b1561320657565b60a460405162461bcd60e51b815260206004820152604860248201527f4661696c656420746f207472616e73666572204c494e4b20746f20746865204660448201527f756e6374696f6e204d616e6167657220746f2066756e6420746865207375627360648201527f6372697074696f6e0000000000000000000000000000000000000000000000006084820152fd5b6001600160601b036103c894936001600160a01b03606094168352166020820152816040820152019061091d565b156132cb57565b60a460405162461bcd60e51b815260206004820152604460248201527f4661696c656420746f207472616e73666572204c494e4b20746f2042696c6c6960448201527f6e6720526567697374727920746f2066756e642074686520737562736372697060648201527f74696f6e000000000000000000000000000000000000000000000000000000006084820152fd5b61337061045d600c546001600160a01b031690565b6040908151917fa21a23e40000000000000000000000000000000000000000000000000000000083526020908184600481600080975af19384156107f6578394613648575b506133d16133c161313c565b6001600160401b03861690615bef565b6133dd30610435613175565b6133f261045d600c546001600160a01b031690565b803b15611a8d5781517f7341c10c0000000000000000000000000000000000000000000000000000000081526001600160401b03861660048201523060248201529084908290604490829084905af180156107f65761362f575b506134893361346e866001600160401b03166000526008602052604060002090565b906001600160a01b03166001600160a01b0319825416179055565b61349e61045d600b546001600160a01b031690565b81516370a0823160e01b81523360048201529091908381602481865afa80156107f65785936134e26135179287948791613612575b50336134dd6131ae565b615d8d565b600d5484516323b872dd60e01b815233600482015230602482015260a09190911c604482015294859283919082906064820190565b03925af19081156107f65761353884926135bc9487916135f5575b506131ff565b61354d61045d600b546001600160a01b031690565b61356261045d600c546001600160a01b031690565b8661356f600d5460a01c90565b918451946135a1866135938d8a83019190916001600160401b036020820193169052565b03601f1981018852876102e6565b5196879586948593630200057560e51b855260048501613296565b03925af19182156107f6576103c893926135d8575b50506132c4565b6135ee9250803d10610b2357610b1981836102e6565b38806135d1565b61360c9150843d8611610b2357610b1981836102e6565b38613532565b6136299150853d87116120f7576120e981836102e6565b386134d3565b8061363c6136429261029d565b80610cd2565b3861344c565b613669919450823d8411613670575b61366181836102e6565b810190613127565b92386133b5565b503d613657565b60405190613684826102cb565b602682527f696f6e49643a00000000000000000000000000000000000000000000000000006040837f65786563757465526571756573742063616c6c656420776974682066756e637460208201520152565b9061033461379560036136e7610336565b946137276001600160401b0382546137116001600160a01b0382168a906001600160a01b03169052565b60a01c1660208801906001600160401b03169052565b60018101546001600160601b038082166040890152606082811c821690890152612518916137599060c01c60808a0152565b60028301546001600160601b038282161660a08a01529061378b908260601c1660c08a01906001600160601b03169052565b60c01c60e0880152565b6001600160401b0316610100840152565b156137ad57565b606460405162461bcd60e51b815260206004820152601a60248201527f66756e6374696f6e206973206e6f7420726567697374657265640000000000006044820152fd5b6002821015612ad35752565b6001821015612ad35752565b908154613815816113d5565b9261382360405194856102e6565b818452600090815260208082208186015b848410613842575050505050565b600183819261385085610856565b815201920193019290613834565b9060405161386b81610262565b60a06138ce600383956138a660ff8254613887828216896137f1565b613899828260081c1660208a016137f1565b60101c16604087016137fd565b6138b260018201610856565b60608601526138c360028201610856565b608086015201613809565b910152565b604051906138e0826102b0565b601b82527f636f6c6c656374696e6720616e64206c6f636b696e67206665657300000000006020830152565b9190916001600160601b038080941691160191821161290157565b9190916001600160601b038080941691160291821691820361290157565b1561394c57565b608460405162461bcd60e51b815260206004820152603a60248201527f55736572206973206e6f7420617070726f76656420746f207472616e7366657260448201527f204c494e4b20746f2066756e6374696f6e73206d616e616765720000000000006064820152fd5b156139bd57565b608460405162461bcd60e51b815260206004820152603160248201527f596f7520646f206e6f74206861766520656e6f756768204c494e4b20746f206360448201527f616c6c20746869732066756e6374696f6e0000000000000000000000000000006064820152fd5b60405190613a34826102b0565b601482527f5472616e7366657272696e67202564204c494e4b0000000000000000000000006020830152565b15613a6757565b608460405162461bcd60e51b815260206004820152602260248201527f4661696c656420746f20636f6c6c65637420666565732066726f6d2063616c6c60448201527f65720000000000000000000000000000000000000000000000000000000000006064820152fd5b60405190613ade826102b0565b601c82527f726573657276656420737562736372697074696f6e20666565202564000000006020830152565b6001600160601b03918216908216039190821161290157565b6001600160601b038091169081146129015760010190565b60405190613b48826102b0565b601982527f73656e64696e672066756e6374696f6e732072657175657374000000000000006020830152565b15613b7b57565b606460405162461bcd60e51b815260206004820152601960248201527f5265717565737420494420616c726561647920657869737473000000000000006044820152fd5b60405190613bcc82610282565b606060808360008152600060208201526000604082015282808201520152565b815181556020916001600160a01b03838201511692613c25600194858501906001600160a01b03166001600160a01b0319825416179055565b6040820151600284015560038301906060830151948551916001600160401b03831161027d57613c5983612d67865461081c565b80601f8411600114613ca3575091808060809593600497956103349a600094613c98575b50501b916000199060031b1c19161790555b01519101612b52565b015192503880613c7d565b9193949596601f198416613cbc87600052602060002090565b936000905b828210613d07575050926080959285926103349a99966004999610613cee575b505050811b019055613c8f565b015160001960f88460031b161c19169055388080613ce1565b808886978294978701518155019601940190613cc1565b60405190613d2b826102b0565b601d82527f656d697474696e672046756e6374696f6e43616c6c6564206576656e740000006020830152565b92919091613d66610424613677565b613d6f84615b4d565b613d86610552856000526005602052604060002090565b92613dab6001600160a01b03613da386516001600160a01b031690565b1615156137a6565b613dc7613dc2866000526007602052604060002090565b61385e565b92806142c7575b5050613ddb6104246138d3565b600e5491613e08613df660408601516001600160601b031690565b6001600160601b038560801c1661390c565b92613e486105af613e2360208801516001600160401b031690565b9263ffffffff613e3d60408a01516001600160601b031690565b9160601c1690613927565b93613e5e61045d600b546001600160a01b031690565b6040517fdd62ed3e0000000000000000000000000000000000000000000000000000000081523360048201523060248201529091602082604481865afa9182156107f6576000926142a6575b50613ec16001600160601b03821680931015613945565b6040516370a0823160e01b8082523360048301529390602081602481855afa80156107f657613efb9160009161428d5750336134dd6131ae565b604051938452336004850152602084602481845afa9182156107f657613f4484613f37602096613f7c966000998a91614270575b5010156139b6565b613f3f613a27565b615bef565b6040516323b872dd60e01b81523360048201523060248201526001600160601b03909116604482015293849283919082906064820190565b03925af19485156107f6576140496140aa93613fa76141639861409195600091614251575b50613a60565b613fe7613fd7613fca836001600160401b0316600052600a602052604060002090565b546001600160601b031690565b6001600160601b0361211a613ad1565b61402f61401d614003600e546001600160601b039060801c1690565b926001600160401b0316600052600a602052604060002090565b9161060983546001600160601b031690565b6001600160601b03166001600160601b0319825416179055565b61407e61406282610609600e546001600160601b031690565b6001600160601b03166001600160601b0319600e541617600e55565b60408701516001600160601b0316613b0a565b6105e060a087019161060983516001600160601b031690565b6140c56080850161067c61067782516001600160401b031690565b61412c6140e66140e1600f546001600160601b039060401c1690565b613b23565b7fffffffffffffffffffffffff000000000000000000000000ffffffffffffffff73ffffffffffffffffffffffff0000000000000000600f549260401b16911617600f55565b614144846106a2876000526005602052604060002090565b61414f610424613b3b565b60208401516001600160401b031690614c57565b809261418361417c836000526006602052604060002090565b5415613b74565b6141ab61418e613bbf565b828152336020820152610535846000526006602052604060002090565b6141b6610424613d1e565b7feb98a4358e79cd01f5b134f72406251bd2a7b8667fd337212737d07697d4b9fc6141e884516001600160a01b031690565b936142136040614204600e546001600160601b039060801c1690565b9201516001600160601b031690565b604080516001600160a01b03979097168752600060208801819052908701526001600160601b039182166060870152166080850152339360a090a490565b61426a915060203d602011610b2357610b1981836102e6565b38613fa1565b6142879150893d8b116120f7576120e981836102e6565b38613f2f565b613629915060203d6020116120f7576120e981836102e6565b6142c091925060203d6020116120f7576120e981836102e6565b9038613eaa565b6142dc916142d6913691611524565b8361478b565b3880613dce565b604051906142f0826102cb565b603782527f6c6c20617661696c61626c652062616c616e63652025640000000000000000006040837f526566696c6c696e6720737562736372697074696f6e2025642077697468206160208201520152565b602061442061444b9261439161436e613fca836001600160401b0316600052600a602052604060002090565b6001600160601b0361437e6142e3565b9116906001600160401b03841690615cb0565b6143b1613fca826001600160401b0316600052600a602052604060002090565b6143d1611cd5836001600160401b0316600052600a602052604060002090565b60006143e861045d600b546001600160a01b031690565b9261442e61440161045d600c546001600160a01b031690565b916040519687918983019190916001600160401b036020820193169052565b03601f1981018752866102e6565b60405196879586948593630200057560e51b855260048501613296565b03925af180156107f65761445c5750565b6144739060203d8111610b2357610b1981836102e6565b50565b60405190614483826102cb565b603182527f734d616e61676572206f776e65722025730000000000000000000000000000006040837f5769746864726177696e6720616c6c206665657320746f2046756e6374696f6e60208201520152565b156144dc57565b60a460405162461bcd60e51b815260206004820152605560248201527f4d7573742062652046756e6374696f6e734d616e61676572206f776e6572206f60448201527f722066756e6374696f6e206f776e657220746f2077697468647261772070726f60648201527f66697420746f2066756e6374696f6e206f776e657200000000000000000000006084820152fd5b60005b81518110156145eb576145828183612906565b5190303b156103a857604051917f1f3597fa000000000000000000000000000000000000000000000000000000008352600483015260008260248183305af19182156107f6576145d7926145dc575b506128f2565b61456f565b6145e59061029d565b386145d1565b5050565b604051906145fc826102b0565b600b82527f67657446756e6374696f6e0000000000000000000000000000000000000000006020830152565b9060405161463581610282565b60806138ce60048395805485526001600160a01b0360018201541660208601526002810154604086015261466b60038201610856565b606086015201610856565b919060346146b09160405193818592602084019788378201906001600160601b03199060601b1660208201520360148101845201826102e6565b51902090565b60200151906146b06034604051809360206146da81840197888151938492016108fa565b8201906001600160601b03199060601b1660208201520360148101845201826102e6565b908351156147235760609261471661471f92846137f1565b604083016137fd565b0152565b60046040517f22ce3edd000000000000000000000000000000000000000000000000000000008152fd5b815115614761576001602082015260800152565b60046040517fe889636f000000000000000000000000000000000000000000000000000000008152fd5b8151156147985760a00152565b60046040517ffe936cb7000000000000000000000000000000000000000000000000000000008152fd5b908160209103126103a857516103c881611319565b6001600160401b0361484694926020946147fc6001600160a01b036000541694614a20565b9463ffffffff604051988997889687967fd227d24500000000000000000000000000000000000000000000000000000000885216600487015260806024870152608486019061091d565b92166044840152606483015203915afa9081156107f657600091614868575090565b6103c8915060203d8111614889575b61488181836102e6565b8101906147c2565b503d614877565b6040519061489d826102b0565b6000602083606081520152565b604051906148b7826102b0565b60006020836148c4614890565b81520152565b604051906148d7826102b0565b600c82527f636f64654c6f636174696f6e00000000000000000000000000000000000000006020830152565b60405190614910826102b0565b600882527f6c616e67756167650000000000000000000000000000000000000000000000006020830152565b60405190614949826102b0565b600682527f736f7572636500000000000000000000000000000000000000000000000000006020830152565b60405190614982826102b0565b600482527f61726773000000000000000000000000000000000000000000000000000000006020830152565b604051906149bb826102b0565b600f82527f736563726574734c6f636174696f6e00000000000000000000000000000000006020830152565b604051906149f4826102b0565b600782527f73656372657473000000000000000000000000000000000000000000000000006020830152565b614a286148aa565b90614a33825161511c565b50614a45614a3f6148ca565b8361580e565b614a628151614a5381612ac9565b614a5c81612ac9565b8361519b565b614a6d614a3f614903565b614a876040820151614a7e81612ae2565b614a5c81612ae2565b614a92614a3f61493c565b614aa060608201518361580e565b60a08101805151614b58575b506080810190815151614ac1575b5050515190565b602001908151614ad081612ac9565b614ad981612ac9565b15614b2e57614b0f614b2792614af6614af06149ae565b8661580e565b51614b0081612ac9565b614b0981612ac9565b8461519b565b614b20614b1a6149e7565b8461580e565b518261575c565b3880614aba565b60046040517fa80d31f7000000000000000000000000000000000000000000000000000000008152fd5b92614b64614b1a614975565b614b6d83615892565b60005b84518051821015614b9d5790614b93614b8c82614b9894612906565b518661580e565b6128f2565b614b70565b50509250614baa8261591e565b38614aac565b60405190614bbd826102cb565b602982527f6c69656e74206c696200000000000000000000000000000000000000000000006040837f53656e64696e6720726571756573742066726f6d2066756e6374696f6e73206360208201520152565b91614c3b63ffffffff916001600160401b0360409497969716855260606020860152606085019061091d565b9416910152565b908160209103126103a857516103c881610e20565b614cc49291614c67610424614bb0565b6000938492614c89614c8361045d86546001600160a01b031690565b91614a20565b946040519687809481937f28242b040000000000000000000000000000000000000000000000000000000083526020998a9860048501614c0f565b03925af19283156107f6578193614d99575b508082614cef61045d600494546001600160a01b031690565b604051938480927f5ab1bd530000000000000000000000000000000000000000000000000000000082525afa9283156107f65784937f1131472297a800fee664d1d89cfa8f7676ff07189ecc53f80bbb5f4969099db893614d67928492614d6c575b505061346e856000526001602052604060002090565b80a290565b614d8b9250803d10614d92575b614d8381836102e6565b810190614c42565b3880614d51565b503d614d79565b6004919350614db490833d85116120f7576120e981836102e6565b9290614cd6565b60405190614dc8826102b0565b601282527f66756c66696c6c696e67207265717565737400000000000000000000000000006020830152565b60405190614e01826102cb565b603382527f63616c6c2066756c66696c6c52657175657374000000000000000000000000006040837f436865636b696e6720696620257320697320617574686f72697a656420746f2060208201520152565b15614e5a57565b608460405162461bcd60e51b815260206004820152603260248201527f4f6e6c7920746865202042696c6c696e672052656769737472792063616e206360448201527f616c6c2066756c66696c6c5265717565737400000000000000000000000000006064820152fd5b15614ecb57565b608460405162461bcd60e51b815260206004820152602560248201527f52657175657374206e6f7420666f756e6420696e2046756e6374696f6e734d6160448201527f6e616765720000000000000000000000000000000000000000000000000000006064820152fd5b15614f3c57565b608460405162461bcd60e51b815260206004820152602660248201527f46756e6374696f6e206e6f7420666f756e6420696e2046756e6374696f6e734d60448201527f616e6167657200000000000000000000000000000000000000000000000000006064820152fd5b60405190614fb3826102cb565b603582527f63616c6c20746869732066756e6374696f6e2e2e2e00000000000000000000006040837f436865636b696e6720697320257320697320617574686f72697a656420746f2060208201520152565b60405190615012826102b0565b600e82527f556e6c6f636b696e6720666565730000000000000000000000000000000000006020830152565b9063ffffffff80921660640391821161290157565b60405190615060826102cb565b603b82527f67206966206e6565642066696c6c20737562736372697074696f6e00000000006040837f46696e697368656420756e6c6f636b696e6720666565732c20636865636b696e60208201520152565b926103c894926001600160a01b036150e49316855260208501526000604085015260a0606085015260a084019061091d565b91608081840391015261091d565b601f1981019190821161290157565b906020820180921161290157565b9190820180921161290157565b615124614890565b5061010060208201526040518082526000815261012081019081106103a85760405290565b90615152614890565b50601f811680615181575b50806020830152604051908183526000825281016020019081106103a85760405290565b60200360208111612901578101809111612901573861515d565b908151916151a7614890565b508251516001810190818111612901576020850151811015615200575b60c2602061033496519283010153805182116151f8575b5050604051916020830152602082526151f3826102b0565b61575c565b5238806151db565b8160011b9482860460021483151715612901576020816152326103349861522b60c295519184615149565b50826156a4565b50965050506151c4565b615244614890565b50805151600181019081811161290157602083015181101561527d575b605b6020845192830101538051821161527957505090565b5290565b8160011b82810460021483151715612901576152a69061529f85519186615149565b50846156a4565b50615261565b6152b4614890565b5080515160018101908181116129015760208301518110156152e9575b605a6020845192830101538051821161527957505090565b8160011b828104600214831517156129015761530b9061529f85519186615149565b506152d1565b615319614890565b50805151600181019081811161290157602083015181101561534e575b60596020845192830101538051821161527957505090565b8160011b82810460021483151715612901576153709061529f85519186615149565b50615336565b61537e614890565b5080515160018101908181116129015760208301518110156153b3575b60586020845192830101538051821161527957505090565b8160011b82810460021483151715612901576153d59061529f85519186615149565b5061539b565b6153e3614890565b508051516001810190818111612901576020830151811015615418575b607b6020845192830101538051821161527957505090565b8160011b828104600214831517156129015761543a9061529f85519186615149565b50615400565b615448614890565b50805151600181019081811161290157602083015181101561547d575b607a6020845192830101538051821161527957505090565b8160011b828104600214831517156129015761549f9061529f85519186615149565b50615465565b6154ad614890565b5080515160018101908181116129015760208301518110156154e2575b60796020845192830101538051821161527957505090565b8160011b82810460021483151715612901576155049061529f85519186615149565b506154ca565b615512614890565b508051516001810190818111612901576020830151811015615547575b60786020845192830101538051821161527957505090565b8160011b82810460021483151715612901576155699061529f85519186615149565b5061552f565b90615578614890565b5081515160018101918282116129015760208401518210156155ab575b6020845192830101538051821161527957505090565b8260011b83810460021484151715612901576155d4906155cd86519187615149565b50856156a4565b50615595565b906155e782519183615149565b506155f0614890565b508051906155fc614890565b5061560a8151831115615755565b82515192615618838561510f565b91602092828480940151821161568d575b5183815197820101968211615685575b505001915b8181101561565f5760001991036101000a0190811990511690825116179052565b919261567a6156746156809286518152615101565b94615101565b926150f2565b61563e565b523880615639565b61569f61569983612c20565b826155da565b615629565b906156ad614890565b5080516156b8614890565b506156c68251821115615755565b825151916156d4828461510f565b602091829182870151811161573e575b865183815197820101968211615736575b505001915b8181101561571c5760001991036101000a019081199051169082511617905290565b919261567a6156746157319286518152615101565b6156fa565b5238806156f5565b61575061574a82612c20565b886155da565b6156e4565b156103a857565b81516144739291906001600160401b03811690601782116157935761578b9150604060ff84519216179061556f565b505b516156a4565b5060ff81116157b8576157b2906157aa8351615376565b508251615ae7565b5061578d565b61ffff81116157d7576157b2906157cf8351615311565b508251615a80565b63ffffffff81116157f8576157b2906157f083516152ac565b508251615a17565b6157b290615806835161523c565b5082516159ab565b81516144739291906001600160401b038116906017821161583d5761578b9150606060ff84519216179061556f565b5060ff8111615854576157b2906157aa835161550a565b61ffff811161586b576157b2906157cf83516154a5565b63ffffffff8111615884576157b2906157f08351615440565b6157b29061580683516153db565b80519061589d614890565b5081515160018101908181116129015760208401518110156158eb575b609f60208095519283010153805182116158e3575b505001805190600182018092116129015752565b5238806158cf565b8160011b938285046002148315171561290157602081615914829761522b609f95519184615149565b50955050506158ba565b805190615929614890565b508151516001810190818111612901576020840151811015615978575b60ff6020809551928301015380518211615970575b50500180516000198101919082116129015752565b52388061595b565b8160011b9382850460021483151715612901576020816159a1829761522b60ff95519184615149565b5095505050615946565b906159b4614890565b5081515180600801918260081161290157602084015183116159f6575b6008845192830101906001600160401b03198251161790528051821161527957505090565b8260011b8381046002148415171561290157615a1290856155da565b6159d1565b90615a20614890565b508151518060040191826004116129015760208401518311615a5f575b60048451928301019063ffffffff198251161790528051821161527957505090565b8260011b8381046002148415171561290157615a7b90856155da565b615a3d565b90615a89614890565b508151518060020191826002116129015760208401518311615ac6575b60028451928301019061ffff198251161790528051821161527957505090565b8260011b8381046002148415171561290157615ae290856155da565b615aa6565b90615af0614890565b508151518060010191826001116129015760208401518311615b2c575b60018451928301019060ff198251161790528051821161527957505090565b8260011b8381046002148415171561290157615b4890856155da565b615b0d565b61033490604051907f27b7cf85000000000000000000000000000000000000000000000000000000006020830152602482015260248152615b8d816102cb565b600080916020815191016a636f6e736f6c652e6c6f675afa50565b611dd3615b8d610334926040519283917f41304fac00000000000000000000000000000000000000000000000000000000602084015260206024840152604483019061091d565b615b8d615c3791610334936040519384927fb60e72cc00000000000000000000000000000000000000000000000000000000602085015260406024850152606484019061091d565b90604483015203601f1981018352826102e6565b615b8d615c9b91610334936001600160a01b036040519485937f319af33300000000000000000000000000000000000000000000000000000000602086015260406024860152606485019061091d565b9116604483015203601f1981018352826102e6565b615b8d90615cf992610334946040519485937fca47c4eb00000000000000000000000000000000000000000000000000000000602086015260606024860152608485019061091d565b916044840152606483015203601f1981018352826102e6565b615b8d90610334936001600160a01b03615d78615d66956040519687957f95ed019500000000000000000000000000000000000000000000000000000000602088015260606024880152608487019061091d565b8581036023190160448701529061091d565b9116606483015203601f1981018352826102e6565b615b8d90615dde92610334946001600160a01b036040519586947f0d26b92500000000000000000000000000000000000000000000000000000000602087015260606024870152608486019061091d565b92166044840152606483015203601f1981018352826102e656fea2646970667358221220737bd00cd21bb43c73fbccff6501e68a5bc09f440fa457dfbe9164c21039b53964736f6c63430008120033",
  "linkReferences": {},
  "deployedLinkReferences": {}
}