{
  "_format": "hh-sol-artifact-1",
  "contractName": "FunctionsOracle",
  "sourceName": "contracts/functions/FunctionsOracle.sol",
  "abi": [
    {
      "inputs": [],
      "name": "AlreadySet",
      "type": "error"
    },
    {
      "inputs": [],
      "name": "CannotSelfTransfer",
      "type": "error"
    },
    {
      "inputs": [],
      "name": "EmptyBillingRegistry",
      "type": "error"
    },
    {
      "inputs": [],
      "name": "EmptyPublicKey",
      "type": "error"
    },
    {
      "inputs": [],
      "name": "EmptyRequestData",
      "type": "error"
    },
    {
      "inputs": [],
      "name": "EmptySendersList",
      "type": "error"
    },
    {
      "inputs": [],
      "name": "InconsistentReportData",
      "type": "error"
    },
    {
      "inputs": [],
      "name": "NotAllowedToSetSenders",
      "type": "error"
    },
    {
      "inputs": [],
      "name": "NotProposedOwner",
      "type": "error"
    },
    {
      "inputs": [],
      "name": "OnlyCallableByOwner",
      "type": "error"
    },
    {
      "inputs": [],
      "name": "OwnerMustBeSet",
      "type": "error"
    },
    {
      "inputs": [],
      "name": "ReportInvalid",
      "type": "error"
    },
    {
      "inputs": [],
      "name": "UnauthorizedPublicKeyChange",
      "type": "error"
    },
    {
      "inputs": [],
      "name": "UnauthorizedSender",
      "type": "error"
    },
    {
      "anonymous": false,
      "inputs": [
        {
          "indexed": false,
          "internalType": "address",
          "name": "account",
          "type": "address"
        }
      ],
      "name": "AuthorizedSendersActive",
      "type": "event"
    },
    {
      "anonymous": false,
      "inputs": [
        {
          "indexed": false,
          "internalType": "address[]",
          "name": "senders",
          "type": "address[]"
        },
        {
          "indexed": false,
          "internalType": "address",
          "name": "changedBy",
          "type": "address"
        }
      ],
      "name": "AuthorizedSendersChanged",
      "type": "event"
    },
    {
      "anonymous": false,
      "inputs": [
        {
          "indexed": false,
          "internalType": "address",
          "name": "account",
          "type": "address"
        }
      ],
      "name": "AuthorizedSendersDeactive",
      "type": "event"
    },
    {
      "anonymous": false,
      "inputs": [
        {
          "indexed": false,
          "internalType": "uint32",
          "name": "previousConfigBlockNumber",
          "type": "uint32"
        },
        {
          "indexed": false,
          "internalType": "bytes32",
          "name": "configDigest",
          "type": "bytes32"
        },
        {
          "indexed": false,
          "internalType": "uint64",
          "name": "configCount",
          "type": "uint64"
        },
        {
          "indexed": false,
          "internalType": "address[]",
          "name": "signers",
          "type": "address[]"
        },
        {
          "indexed": false,
          "internalType": "address[]",
          "name": "transmitters",
          "type": "address[]"
        },
        {
          "indexed": false,
          "internalType": "uint8",
          "name": "f",
          "type": "uint8"
        },
        {
          "indexed": false,
          "internalType": "bytes",
          "name": "onchainConfig",
          "type": "bytes"
        },
        {
          "indexed": false,
          "internalType": "uint64",
          "name": "offchainConfigVersion",
          "type": "uint64"
        },
        {
          "indexed": false,
          "internalType": "bytes",
          "name": "offchainConfig",
          "type": "bytes"
        }
      ],
      "name": "ConfigSet",
      "type": "event"
    },
    {
      "anonymous": false,
      "inputs": [
        {
          "indexed": false,
          "internalType": "uint8",
          "name": "version",
          "type": "uint8"
        }
      ],
      "name": "Initialized",
      "type": "event"
    },
    {
      "anonymous": false,
      "inputs": [
        {
          "indexed": true,
          "internalType": "bytes32",
          "name": "requestId",
          "type": "bytes32"
        }
      ],
      "name": "InvalidRequestID",
      "type": "event"
    },
    {
      "anonymous": false,
      "inputs": [
        {
          "indexed": true,
          "internalType": "bytes32",
          "name": "requestId",
          "type": "bytes32"
        },
        {
          "indexed": false,
          "internalType": "address",
          "name": "requestingContract",
          "type": "address"
        },
        {
          "indexed": false,
          "internalType": "address",
          "name": "requestInitiator",
          "type": "address"
        },
        {
          "indexed": false,
          "internalType": "uint64",
          "name": "subscriptionId",
          "type": "uint64"
        },
        {
          "indexed": false,
          "internalType": "address",
          "name": "subscriptionOwner",
          "type": "address"
        },
        {
          "indexed": false,
          "internalType": "bytes",
          "name": "data",
          "type": "bytes"
        }
      ],
      "name": "OracleRequest",
      "type": "event"
    },
    {
      "anonymous": false,
      "inputs": [
        {
          "indexed": true,
          "internalType": "bytes32",
          "name": "requestId",
          "type": "bytes32"
        }
      ],
      "name": "OracleResponse",
      "type": "event"
    },
    {
      "anonymous": false,
      "inputs": [
        {
          "indexed": true,
          "internalType": "address",
          "name": "from",
          "type": "address"
        },
        {
          "indexed": true,
          "internalType": "address",
          "name": "to",
          "type": "address"
        }
      ],
      "name": "OwnershipTransferRequested",
      "type": "event"
    },
    {
      "anonymous": false,
      "inputs": [
        {
          "indexed": true,
          "internalType": "address",
          "name": "from",
          "type": "address"
        },
        {
          "indexed": true,
          "internalType": "address",
          "name": "to",
          "type": "address"
        }
      ],
      "name": "OwnershipTransferred",
      "type": "event"
    },
    {
      "anonymous": false,
      "inputs": [
        {
          "indexed": false,
          "internalType": "bytes32",
          "name": "configDigest",
          "type": "bytes32"
        },
        {
          "indexed": false,
          "internalType": "uint32",
          "name": "epoch",
          "type": "uint32"
        }
      ],
      "name": "Transmitted",
      "type": "event"
    },
    {
      "anonymous": false,
      "inputs": [
        {
          "indexed": true,
          "internalType": "bytes32",
          "name": "requestId",
          "type": "bytes32"
        },
        {
          "indexed": false,
          "internalType": "string",
          "name": "reason",
          "type": "string"
        }
      ],
      "name": "UserCallbackError",
      "type": "event"
    },
    {
      "anonymous": false,
      "inputs": [
        {
          "indexed": true,
          "internalType": "bytes32",
          "name": "requestId",
          "type": "bytes32"
        },
        {
          "indexed": false,
          "internalType": "bytes",
          "name": "lowLevelData",
          "type": "bytes"
        }
      ],
      "name": "UserCallbackRawError",
      "type": "event"
    },
    {
      "inputs": [],
      "name": "acceptOwnership",
      "outputs": [],
      "stateMutability": "nonpayable",
      "type": "function"
    },
    {
      "inputs": [],
      "name": "activateAuthorizedReceiver",
      "outputs": [],
      "stateMutability": "nonpayable",
      "type": "function"
    },
    {
      "inputs": [
        {
          "internalType": "address[]",
          "name": "senders",
          "type": "address[]"
        }
      ],
      "name": "addAuthorizedSenders",
      "outputs": [],
      "stateMutability": "nonpayable",
      "type": "function"
    },
    {
      "inputs": [],
      "name": "authorizedReceiverActive",
      "outputs": [
        {
          "internalType": "bool",
          "name": "",
          "type": "bool"
        }
      ],
      "stateMutability": "view",
      "type": "function"
    },
    {
      "inputs": [],
      "name": "deactivateAuthorizedReceiver",
      "outputs": [],
      "stateMutability": "nonpayable",
      "type": "function"
    },
    {
      "inputs": [
        {
          "internalType": "address",
          "name": "node",
          "type": "address"
        }
      ],
      "name": "deleteNodePublicKey",
      "outputs": [],
      "stateMutability": "nonpayable",
      "type": "function"
    },
    {
      "inputs": [
        {
          "internalType": "uint64",
          "name": "subscriptionId",
          "type": "uint64"
        },
        {
          "internalType": "bytes",
          "name": "data",
          "type": "bytes"
        },
        {
          "internalType": "uint32",
          "name": "gasLimit",
          "type": "uint32"
        },
        {
          "internalType": "uint256",
          "name": "gasPrice",
          "type": "uint256"
        }
      ],
      "name": "estimateCost",
      "outputs": [
        {
          "internalType": "uint96",
          "name": "",
          "type": "uint96"
        }
      ],
      "stateMutability": "view",
      "type": "function"
    },
    {
      "inputs": [],
      "name": "getAllNodePublicKeys",
      "outputs": [
        {
          "internalType": "address[]",
          "name": "",
          "type": "address[]"
        },
        {
          "internalType": "bytes[]",
          "name": "",
          "type": "bytes[]"
        }
      ],
      "stateMutability": "view",
      "type": "function"
    },
    {
      "inputs": [],
      "name": "getAuthorizedSenders",
      "outputs": [
        {
          "internalType": "address[]",
          "name": "",
          "type": "address[]"
        }
      ],
      "stateMutability": "view",
      "type": "function"
    },
    {
      "inputs": [],
      "name": "getDONPublicKey",
      "outputs": [
        {
          "internalType": "bytes",
          "name": "",
          "type": "bytes"
        }
      ],
      "stateMutability": "view",
      "type": "function"
    },
    {
      "inputs": [],
      "name": "getRegistry",
      "outputs": [
        {
          "internalType": "address",
          "name": "",
          "type": "address"
        }
      ],
      "stateMutability": "view",
      "type": "function"
    },
    {
      "inputs": [
        {
          "internalType": "bytes",
          "name": "",
          "type": "bytes"
        },
        {
          "components": [
            {
              "internalType": "uint64",
              "name": "subscriptionId",
              "type": "uint64"
            },
            {
              "internalType": "address",
              "name": "client",
              "type": "address"
            },
            {
              "internalType": "uint32",
              "name": "gasLimit",
              "type": "uint32"
            },
            {
              "internalType": "uint256",
              "name": "gasPrice",
              "type": "uint256"
            }
          ],
          "internalType": "struct FunctionsBillingRegistryInterface.RequestBilling",
          "name": "",
          "type": "tuple"
        }
      ],
      "name": "getRequiredFee",
      "outputs": [
        {
          "internalType": "uint96",
          "name": "",
          "type": "uint96"
        }
      ],
      "stateMutability": "pure",
      "type": "function"
    },
    {
      "inputs": [],
      "name": "initialize",
      "outputs": [],
      "stateMutability": "nonpayable",
      "type": "function"
    },
    {
      "inputs": [
        {
          "internalType": "address",
          "name": "sender",
          "type": "address"
        }
      ],
      "name": "isAuthorizedSender",
      "outputs": [
        {
          "internalType": "bool",
          "name": "",
          "type": "bool"
        }
      ],
      "stateMutability": "view",
      "type": "function"
    },
    {
      "inputs": [],
      "name": "latestConfigDetails",
      "outputs": [
        {
          "internalType": "uint32",
          "name": "configCount",
          "type": "uint32"
        },
        {
          "internalType": "uint32",
          "name": "blockNumber",
          "type": "uint32"
        },
        {
          "internalType": "bytes32",
          "name": "configDigest",
          "type": "bytes32"
        }
      ],
      "stateMutability": "view",
      "type": "function"
    },
    {
      "inputs": [],
      "name": "latestConfigDigestAndEpoch",
      "outputs": [
        {
          "internalType": "bool",
          "name": "scanLogs",
          "type": "bool"
        },
        {
          "internalType": "bytes32",
          "name": "configDigest",
          "type": "bytes32"
        },
        {
          "internalType": "uint32",
          "name": "epoch",
          "type": "uint32"
        }
      ],
      "stateMutability": "view",
      "type": "function"
    },
    {
      "inputs": [],
      "name": "owner",
      "outputs": [
        {
          "internalType": "address",
          "name": "",
          "type": "address"
        }
      ],
      "stateMutability": "view",
      "type": "function"
    },
    {
      "inputs": [
        {
          "internalType": "address[]",
          "name": "senders",
          "type": "address[]"
        }
      ],
      "name": "removeAuthorizedSenders",
      "outputs": [],
      "stateMutability": "nonpayable",
      "type": "function"
    },
    {
      "inputs": [
        {
          "internalType": "uint64",
          "name": "subscriptionId",
          "type": "uint64"
        },
        {
          "internalType": "bytes",
          "name": "data",
          "type": "bytes"
        },
        {
          "internalType": "uint32",
          "name": "gasLimit",
          "type": "uint32"
        }
      ],
      "name": "sendRequest",
      "outputs": [
        {
          "internalType": "bytes32",
          "name": "",
          "type": "bytes32"
        }
      ],
      "stateMutability": "nonpayable",
      "type": "function"
    },
    {
      "inputs": [
        {
          "internalType": "address[]",
          "name": "_signers",
          "type": "address[]"
        },
        {
          "internalType": "address[]",
          "name": "_transmitters",
          "type": "address[]"
        },
        {
          "internalType": "uint8",
          "name": "_f",
          "type": "uint8"
        },
        {
          "internalType": "bytes",
          "name": "_onchainConfig",
          "type": "bytes"
        },
        {
          "internalType": "uint64",
          "name": "_offchainConfigVersion",
          "type": "uint64"
        },
        {
          "internalType": "bytes",
          "name": "_offchainConfig",
          "type": "bytes"
        }
      ],
      "name": "setConfig",
      "outputs": [],
      "stateMutability": "nonpayable",
      "type": "function"
    },
    {
      "inputs": [
        {
          "internalType": "bytes",
          "name": "donPublicKey",
          "type": "bytes"
        }
      ],
      "name": "setDONPublicKey",
      "outputs": [],
      "stateMutability": "nonpayable",
      "type": "function"
    },
    {
      "inputs": [
        {
          "internalType": "address",
          "name": "node",
          "type": "address"
        },
        {
          "internalType": "bytes",
          "name": "publicKey",
          "type": "bytes"
        }
      ],
      "name": "setNodePublicKey",
      "outputs": [],
      "stateMutability": "nonpayable",
      "type": "function"
    },
    {
      "inputs": [
        {
          "internalType": "address",
          "name": "registryAddress",
          "type": "address"
        }
      ],
      "name": "setRegistry",
      "outputs": [],
      "stateMutability": "nonpayable",
      "type": "function"
    },
    {
      "inputs": [
        {
          "internalType": "address",
          "name": "to",
          "type": "address"
        }
      ],
      "name": "transferOwnership",
      "outputs": [],
      "stateMutability": "nonpayable",
      "type": "function"
    },
    {
      "inputs": [
        {
          "internalType": "bytes32[3]",
          "name": "reportContext",
          "type": "bytes32[3]"
        },
        {
          "internalType": "bytes",
          "name": "report",
          "type": "bytes"
        },
        {
          "internalType": "bytes32[]",
          "name": "rs",
          "type": "bytes32[]"
        },
        {
          "internalType": "bytes32[]",
          "name": "ss",
          "type": "bytes32[]"
        },
        {
          "internalType": "bytes32",
          "name": "rawVs",
          "type": "bytes32"
        }
      ],
      "name": "transmit",
      "outputs": [],
      "stateMutability": "nonpayable",
      "type": "function"
    },
    {
      "inputs": [],
      "name": "transmitters",
      "outputs": [
        {
          "internalType": "address[]",
          "name": "",
          "type": "address[]"
        }
      ],
      "stateMutability": "view",
      "type": "function"
    },
    {
      "inputs": [],
      "name": "typeAndVersion",
      "outputs": [
        {
          "internalType": "string",
          "name": "",
          "type": "string"
        }
      ],
      "stateMutability": "pure",
      "type": "function"
    }
  ],
  "bytecode": "0x60808060405234610016576131ae908161001c8239f35b600080fdfe608080604052600436101561001357600080fd5b60003560e01c90816303e1bf23146127cb57508063110254c814612763578063181f5a77146127055780632408afaa1461268d57806326ceabac146125f557806328242b04146123725780634b4fa0c11461234f5780634dcef4041461227057806353398987146120635780635ab1bd531461203c57806379ba509714611f685780637f15e16614611ddd5780638075603114611c355780638129fc1c14611a1a578063814118341461198557806381ff70481461194d5780638da5cb5b1461192357806391bb64eb14611883578063a91ee0dc14611830578063afcb95d714611806578063b1dc65a414610dea578063d227d24514610c1d578063d328a91e14610b37578063e3d0e712146102c0578063f1e14a2114610225578063f2fde38b1461017a5763fa00763a1461014857600080fd5b3461017557602036600319011261017557602061016b610166612935565b612b8f565b6040519015158152f35b600080fd5b3461017557602036600319011261017557610193612935565b61019b612bbc565b6001600160a01b03809116903382146101fb578173ffffffffffffffffffffffffffffffffffffffff19600154161760015560005460101c167fed8889f560326eb138920d842192f0eb3dd22b4f139c87a2c57538e05bae1278600080a3005b60046040517f282010c3000000000000000000000000000000000000000000000000000000008152fd5b346101755760a03660031901126101755767ffffffffffffffff60043581811161017557610257903690600401612976565b505060803660231901126101755760405190610272826129b7565b60243590811681036101755781526044356001600160a01b038116810361017557602082015260643563ffffffff811681036101755760408201526060608435910152602060405160008152f35b346101755760c03660031901126101755760043567ffffffffffffffff8111610175576102f1903690600401612a29565b60243567ffffffffffffffff811161017557610311903690600401612a29565b906044359160ff831683036101755760643567ffffffffffffffff811161017557610340903690600401612ae2565b6084359067ffffffffffffffff821682036101755760a43567ffffffffffffffff811161017557610375903690600401612ae2565b9380518451601f8211610af35760ff881615610aaf578103610a465760ff8716600302906003820460ff891603610503571115610a02576103b4612bbc565b604051958660c081011067ffffffffffffffff60c0890111176107195767ffffffffffffffff9460ff9260c0890160405288526020880152166040860152606085015216608083015260a08201525b600654801561051957806000198101116105035780600019810110156104ed5760066000526001600160a01b03610463817ff652222313e28459528d920b65115c16c04f3efc82aaedc97be59f3f377c0d3e840154169260001901612e96565b90549060031b1c16906000526005602052600060408120556000526000604081205560065480156104d757600019016104b361049e82612ecd565b6001600160a01b0382549160031b1b19169055565b60065560075480156104d757600019016104cf61049e82612e96565b600755610403565b634e487b7160e01b600052603160045260246000fd5b634e487b7160e01b600052603260045260246000fd5b634e487b7160e01b600052601160045260246000fd5b5060005b815180518210156107b75761053a826001600160a01b0392612d55565b5116600052600560205260ff60406000205460081c1661055981612f3b565b61077357604051610569816129d3565b60ff82168152600160208201526001600160a01b03610589838551612d55565b5116600052600560205260406000209060ff81511661ff00602084549301516105b181612f3b565b6105ba81612f3b565b60081b169161ffff1916171790556001600160a01b036105de826020850151612d55565b5116600052600560205260ff60406000205460081c166105fd81612f3b565b61072f5760405161060d816129d3565b60ff8216815260208101600281526001600160a01b03610631846020870151612d55565b5116600052600560205260ff604060002092511661ff008354925161065581612f3b565b61065e81612f3b565b60081b169161ffff1916171790556001600160a01b0361067f828451612d55565b51166006549068010000000000000000821015610719576106a98260016106c99401600655612ecd565b90919082549060031b916001600160a01b03809116831b921b1916179055565b6001600160a01b036106df826020850151612d55565b51169060079182549068010000000000000000821015610719576106a98261071495600161070f95019055612e96565b612b00565b61051d565b634e487b7160e01b600052604160045260246000fd5b606460405162461bcd60e51b815260206004820152601c60248201527f7265706561746564207472616e736d69747465722061646472657373000000006044820152fd5b606460405162461bcd60e51b815260206004820152601760248201527f7265706561746564207369676e657220616464726573730000000000000000006044820152fd5b60408301516003546004549160ff168563ffffffff808516600101116105035763ffffffff841660010163ffffffff164360201b67ffffffff000000001667ffffffffffffffff19861617176004558051602082015190604083015160ff166060840151608085015167ffffffffffffffff169060a08601519260405195869546602088015230604088015263ffffffff8c1660010163ffffffff166060880152608087016101209052610140870161086f916128f8565b868103601f190160a0880152610884916128f8565b9060c0860152601f198582030160e086015261089f916128b8565b90610100840152601f19838203016101208401526108bc916128b8565b03601f19810182526108ce90826129ef565b805190602001207dffffffffffffffffffffffffffffffffffffffffffffffffffffffffffff167e01000000000000000000000000000000000000000000000000000000000000179283600255815192835160081b61ff00169161ffff191617176003556020810151604082015160ff16606083015191608084015167ffffffffffffffff169360a00151946040519788978160201c63ffffffff168952602089015263ffffffff1660010163ffffffff166040880152606087016101209052610120870161099c916128f8565b86810360808801526109ad916128f8565b9060a086015284810360c08601526109c4916128b8565b9060e08401528281036101008401526109dc916128b8565b037f1591690b8638f5fb2dbec82ac741805ac5da8b45dc5263f4875b0496fdce4e0591a1005b606460405162461bcd60e51b815260206004820152601860248201527f6661756c74792d6f7261636c65206620746f6f206869676800000000000000006044820152fd5b608460405162461bcd60e51b8152602060048201526024808201527f6f7261636c6520616464726573736573206f7574206f6620726567697374726160448201527f74696f6e000000000000000000000000000000000000000000000000000000006064820152fd5b606460405162461bcd60e51b815260206004820152601260248201527f66206d75737420626520706f73697469766500000000000000000000000000006044820152fd5b606460405162461bcd60e51b815260206004820152601060248201527f746f6f206d616e79207369676e657273000000000000000000000000000000006044820152fd5b34610175576000366003190112610175576040516000600b54610b5981612c6e565b80845290600190818116908115610bf65750600114610b9b575b610b9784610b83818603826129ef565b6040519182916020835260208301906128b8565b0390f35b600b600090815292507f0175b7a638427703f0dbe7bb9bbf987a2551717b34e79f33b5b1008d1fa01db95b828410610bde575050508101602001610b8382610b73565b80546020858701810191909152909301928101610bc6565b60ff191660208087019190915292151560051b85019092019250610b839150839050610b73565b3461017557608036600319011261017557610c3661295f565b67ffffffffffffffff9060243582811161017557610c58903690600401612976565b91610c616129a4565b606435906001600160a01b03600c5416948515610dc05763ffffffff9660405194610c8b866129b7565b168452602096879233848701521694856040860152836060860152610cdd60405195869384937ff1e14a2100000000000000000000000000000000000000000000000000000000855260048501612e40565b0381875afa928315610d92578592600094610d9e575b5060849060405195869384927fa1a6d04100000000000000000000000000000000000000000000000000000000845260048401526024830152600060448301526bffffffffffffffffffffffff80961660648301525afa918215610d9257600092610d63575b5060405191168152f35b610d84919250833d8511610d8b575b610d7c81836129ef565b810190612dfb565b9083610d59565b503d610d72565b6040513d6000823e3d90fd5b6084919450610db990843d8611610d8b57610d7c81836129ef565b9390610cf3565b60046040517f9c5fe324000000000000000000000000000000000000000000000000000000008152fd5b346101755760e036600319011261017557366064116101755760643567ffffffffffffffff811161017557610e23903690600401612976565b60843567ffffffffffffffff811161017557610e43903690600401612887565b919060a43567ffffffffffffffff811161017557610e65903690600401612887565b91905a94610e74368689612aab565b507fb04e63db38c49950639fa09d29872f21f5d49d614f3a969d8adf3d4b52e41a6260408051600435815262ffffff60243560081c166020820152a160405180606081011067ffffffffffffffff606083011117610719576060810160405260025480825260ff600354818116602085015260081c166040830152600435036117c257610144868101811161050357828060051b046020148315171561050357610f2490878460051b9101612fff565b8560051b8681046020148715171561050357610f3f91612fff565b360361177e5760015460a01c60ff16156117675760ff602081604084015116920151160160ff811161050357610f7c607f60ff9260011c16612f5b565b165b8103611723578381036116df573360005260056020526040600020600260ff60405192610faa846129d3565b54818116845260081c16610fbd81612f3b565b806020840152610fcc81612f3b565b610fd581612f3b565b1490816116b8575b50156116745760405192836103e081011067ffffffffffffffff6103e086011117610719576103e084016040526103e036853760009461101e36888b612aab565b60208151910120604051906020820152606060046040830137608081528060a081011067ffffffffffffffff60a083011117610719579392919060a08501604052600060c0865160208801209661107760a082016129d3565b8260a082015201526000945b8386106114de575050505050506001600160a01b03600c541615610dc05760608584810103126101755784359267ffffffffffffffff841161017557808601601f858801011215610175576110da84870135612a11565b936110e860405195866129ef565b8681018035808752602080880192858b0160059390931b01011161017557602082890101905b888301803560051b0160200182106114ce57505050602086013567ffffffffffffffff81116101755761114690828801908801612f7e565b95604081013567ffffffffffffffff8111610175576111689282019101612f7e565b835180159081156114c2575b81156114b6575b5061148c575a850394851161050357835180156114765760005b8551811015611474576001600160a01b03600c5416906111b58188612d55565b51916111c1828b612d55565b51926111cd8387612d55565b516112295a916112176040519788957f0739e4f100000000000000000000000000000000000000000000000000000000875260048701526104c060248701526104c48601906128b8565b848103600319016044860152906128b8565b33606484015290868c8b60008c608488015b601f83106114435750505060ff16610464860152046104848401526104a4830152602092908290039082906000905af18092600091611404575b506112f49261130057503d156112f9573d61128f81612a8f565b9061129d60405192836129ef565b81523d6000602083013e5b7fe0b838ffe6ee22a0d3acf19a85db6a41b34a1ab739e2d6c759a2e42d95bdccb26112ec6112d6848b612d55565b51926040519182916020835260208301906128b8565b0390a2612b00565b611195565b60606112a8565b61130981612f3b565b8061134457506113198188612d55565b517f9e9bc7616d42c2835d05ae617e508454e63b30b934be8aa932ebc125e0e58a64600080a2612b00565b61134d81612f3b565b600181036113be57506113608188612d55565b517fb2931868c372fe17a25643458add467d60ec5c51125a99b7309f41f5bcd2da6c606060405160208152601160208201527f6572726f7220696e2063616c6c6261636b0000000000000000000000000000006040820152a2612b00565b806113ca600292612f3b565b0361070f576113d98188612d55565b517fa1c120e327c9ad8b075793878c88d59b8934b97ae37117faa3bb21616237f7be600080a2612b00565b90506020813d60201161143b575b8161141f602093836129ef565b81010312610175575191600383101561017557916112f4611275565b3d9150611412565b90945060209250829195969750600193506001600160a01b03855116815201920192018b8e91899695948b9461123b565b005b634e487b7160e01b600052601260045260246000fd5b60046040517f0be36328000000000000000000000000000000000000000000000000000000008152fd5b9050815114158761117b565b87518114159150611174565b813581526020918201910161110e565b90919293949660208810156104ed5760ff601b60c4358a1a0111610503576020600060808a61150e818a8a612b0f565b3561151a82898d612b0f565b359060ff601b604051948a865260c435901a0116868401526040830152606082015282805260015afa15610d92576001600160a01b036000511690816000526005602052604060002090600160ff60405193611575856129d3565b54818116855260081c1661158881612f3b565b80602085015261159781612f3b565b6115a081612f3b565b03611630576001600160a01b036115bb60ff8451168b612f6d565b51166115ec576115e2926115d660ff6115dc9451168b612f6d565b52612f5b565b97612b00565b9493929190611083565b606460405162461bcd60e51b815260206004820152601460248201527f6e6f6e2d756e69717565207369676e61747572650000000000000000000000006044820152fd5b606460405162461bcd60e51b815260206004820152601e60248201527f61646472657373206e6f7420617574686f72697a656420746f207369676e00006044820152fd5b606460405162461bcd60e51b815260206004820152601860248201527f756e617574686f72697a6564207472616e736d697474657200000000000000006044820152fd5b6001600160a01b03915060ff6116cf915116612e96565b90549060031b1c16331488610fdd565b606460405162461bcd60e51b815260206004820152601e60248201527f7369676e617475726573206f7574206f6620726567697374726174696f6e00006044820152fd5b606460405162461bcd60e51b815260206004820152601a60248201527f77726f6e67206e756d626572206f66207369676e6174757265730000000000006044820152fd5b61177860ff60208193015116612f5b565b16610f7e565b606460405162461bcd60e51b815260206004820152601860248201527f63616c6c64617461206c656e677468206d69736d6174636800000000000000006044820152fd5b606460405162461bcd60e51b815260206004820152601560248201527f636f6e666967446967657374206d69736d6174636800000000000000000000006044820152fd5b34610175576000366003190112610175576060604051600181526000602082015260006040820152f35b34610175576020366003190112610175576001600160a01b03611851612935565b611859612bbc565b168015610dc05773ffffffffffffffffffffffffffffffffffffffff19600c541617600c55600080f35b34610175576000366003190112610175576001600160a01b0360005460101c1633036119125760085460ff8116156118e85760ff19166008557fea3828816a323b8d7ff49d755efd105e7719166d6c76fad97a28eee5eccc3d9a6020604051338152a1005b60046040517fa741a045000000000000000000000000000000000000000000000000000000008152fd5b600460405163ad77f06160e01b8152fd5b346101755760003660031901126101755760206001600160a01b0360005460101c16604051908152f35b346101755760003660031901126101755760606004546002546040519163ffffffff90818116845260201c1660208301526040820152f35b34610175576000366003190112610175576040518060075480825282602080930160076000527fa66cc928b5edb82af9bd49922954155ab7b0942694bea4ce44661d9a8736c6889260005b858282106119fb575050506119e7925003836129ef565b610b976040519282849384528301906128f8565b85546001600160a01b03168452600195860195889550930192016119d0565b346101755760003660031901126101755760005460ff8160081c1615808091611c28575b8015611c11575b15611ba75760ff198281166001176000559181611b95575b5060005490611a7a60ff8360081c16611a7581612bfd565b612bfd565b3315611b6b57600175ffffffffffffffffffffffffffffffffffffffff00003360101b1693611b0a60ff8675ffffffffffffffffffffffffffffffffffffffff00001987161780600055740100000000000000000000000000000000000000007fffffffffffffffffffffff00ffffffffffffffffffffffffffffffffffffffff86541617855560081c16612bfd565b6008541617600855611b1857005b7fffffffffffffffffffff000000000000000000000000000000000000000000ff16176000557f7f26b83ff96e1f2b6a682f133852f6798a09c465da95921460cefb3847402498602060405160018152a1005b60046040517fb6b515fa000000000000000000000000000000000000000000000000000000008152fd5b61ffff19166101011760005582611a5d565b608460405162461bcd60e51b815260206004820152602e60248201527f496e697469616c697a61626c653a20636f6e747261637420697320616c72656160448201527f647920696e697469616c697a65640000000000000000000000000000000000006064820152fd5b50303b158015611a455750600160ff831614611a45565b50600160ff831610611a3e565b3461017557604036600319011261017557611c4e612935565b67ffffffffffffffff60243581811161017557611c6f903690600401612976565b90926001600160a01b03908160005460101c1633148015611dc2575b15611d985716600052602092600d8452604060002092821161071957611cb18354612c6e565b601f8111611d5d575b50600093601f8311600114611cf9575092819293600092611cee575b5050600019600383901b1c191660019190911b179055005b013590508380611cd6565b90601f198316948460005282600020926000905b878210611d45575050836001959610611d2b575b505050811b019055005b0135600019600384901b60f8161c19169055838080611d21565b80600184968294958701358155019501920190611d0d565b611d88908460005285600020601f850160051c810191878610611d8e575b601f0160051c0190612ca8565b84611cba565b9091508190611d7b565b60046040517fed6dd19b000000000000000000000000000000000000000000000000000000008152fd5b50611dcc33612d69565b8015611c8b57508181163314611c8b565b34610175576020806003193601126101755767ffffffffffffffff60043581811161017557611e10903690600401612976565b91611e19612bbc565b8215611f3e57821161071957611e30600b54612c6e565b601f8111611ef5575b50600092601f8311600114611e785750918192600092611e6d575b5050600019600383901b1c191660019190911b17600b55005b013590508280611e54565b601f198316937f0175b7a638427703f0dbe7bb9bbf987a2551717b34e79f33b5b1008d1fa01db992916000905b868210611edd5750508360019510611ec3575b505050811b01600b55005b0135600019600384901b60f8161c19169055828080611eb8565b80600184968294958701358155019501920190611ea5565b611f38907f0175b7a638427703f0dbe7bb9bbf987a2551717b34e79f33b5b1008d1fa01db9601f850160051c810191868610611d8e57601f0160051c0190612ca8565b83611e39565b60046040517f4f42be3d000000000000000000000000000000000000000000000000000000008152fd5b34610175576000366003190112610175576001546001600160a01b0380821633036120125773ffffffffffffffffffffffffffffffffffffffff196000549275ffffffffffffffffffffffffffffffffffffffff00003360101b1675ffffffffffffffffffffffffffffffffffffffff00001985161760005516600155339160101c167f8be0079c531659141344cd1fd0a4f28419497f9722a3daafe3b4186f6b6457e0600080a3005b60046040517f0f22ca5f000000000000000000000000000000000000000000000000000000008152fd5b346101755760003660031901126101755760206001600160a01b03600c5416604051908152f35b3461017557600036600319011261017557604051632050460d60e21b8152600081600481305afa908115610d925760009161224d575b506120c58151916120a983612a11565b926120b760405194856129ef565b808452601f19928391612a11565b0160005b81811061223c57505060005b81518110156121c7576001600160a01b036120f08284612d55565b51166000526020600d815260406000206040519160009180549061211382612c6e565b9081865260019283811690816000146121a25750600114612164575b50505050906121448161215f949303826129ef565b61214e8287612d55565b526121598186612d55565b50612b00565b6120d5565b909192935060005282600020916000925b82841061218f575050508201016121448261215f8961212f565b8054868501860152928401928101612175565b60ff1916858801525050151560051b8401909101915061214490508261215f8961212f565b50826121de604051926040845260408401906128f8565b9260208385038185015282519081865280860181808460051b8901019501936000975b84891061220e5787870388f35b909192939495848061222a838686600196030188528a516128b8565b98019401980197919094939294612201565b8060606020809388010152016120c9565b61226a91503d806000833e61226281836129ef565b810190612cd3565b81612099565b346101755760203660031901126101755760043567ffffffffffffffff8111610175576122a1903690600401612887565b906001600160a01b038060005460101c1633036119125782156123255760005b8381106122ff576040517ff263cfb3e4298332e776194610cf9fdc09ccb3ada8b9aa39764d882e11fbf0a090806122fa33888884612b33565b0390a1005b806121598361231a612315612320958989612b0f565b612b1f565b1661300c565b6122c1565b60046040517f75158c3b000000000000000000000000000000000000000000000000000000008152fd5b3461017557600036600319011261017557602060ff600854166040519015158152f35b346101755760603660031901126101755761238b61295f565b67ffffffffffffffff90602435828111610175576123ad903690600401612976565b91906123b76129a4565b916001600160a01b039081600c5416938415610dc0576123d632612b8f565b156125cb5785156125a25761244c60009563ffffffff98604051946123fa866129b7565b16938481526020998a9433868401521660408201523a60608201526040519788809481937fa9d03c050000000000000000000000000000000000000000000000000000000083528c8b60048501612e40565b03925af1938415610d9257600094612570575b5060249293948683600c5416604051958680927fb2a489ff0000000000000000000000000000000000000000000000000000000082528660048301525afa928315610d9257869460009461250c575b5094612501917fa1ec73989d79578cd6f67d4f593ac3e0a4d1020e5c0164db52108d7ff785406c9596604051958695338752328c880152604087015216606085015260a0608085015260a0840191612e1f565b0390a2604051908152f35b91945092508681813d8111612569575b61252681836129ef565b810103126101755785947fa1ec73989d79578cd6f67d4f593ac3e0a4d1020e5c0164db52108d7ff785406c9461255e61250193612cbf565b9491969550916124ae565b503d61251c565b9293508583813d831161259b575b61258881836129ef565b810103126101755760249251939261245f565b503d61257e565b60046040517ec1cfc0000000000000000000000000000000000000000000000000000000008152fd5b60046040517f08094908000000000000000000000000000000000000000000000000000000008152fd5b346101755760203660031901126101755761260e612935565b6001600160a01b03908160005460101c1633148015612682575b15611d985716600052600d60205260406000206126458154612c6e565b908161264d57005b81601f6000931160011461265f575055005b90808391825261267e601f60208420940160051c840160018501612ca8565b5555005b508181163314612628565b34610175576000366003190112610175576040518060095480825282602080930160096000527f6e1540171b6c0c960b71a7020d9f60077f6af931a8bbf590da0223dacf75c7af9260005b858282106126ef575050506119e7925003836129ef565b85548452600195860195889550930192016126d8565b3461017557600036600319011261017557610b97604051612725816129d3565b601581527f46756e6374696f6e734f7261636c6520302e302e30000000000000000000000060208201526040519182916020835260208301906128b8565b34610175576000366003190112610175576001600160a01b0360005460101c1633036119125760085460ff81166118e85760019060ff1916176008557fae51766a982895b0c444fc99fc1a560762b464d709e6c78376c85617f7eeb5ce6020604051338152a1005b346101755760203660031901126101755760043567ffffffffffffffff8111610175576127fc903690600401612887565b916001600160a01b03908160005460101c163303612878575082156123255760005b838110612857576040517ff263cfb3e4298332e776194610cf9fdc09ccb3ada8b9aa39764d882e11fbf0a090806122fa33888884612b33565b806121598361286d612315612873958989612b0f565b1661308e565b61281e565b8063ad77f06160e01b60049252fd5b9181601f840112156101755782359167ffffffffffffffff8311610175576020808501948460051b01011161017557565b919082519283825260005b8481106128e4575050826000602080949584010152601f8019910116010190565b6020818301810151848301820152016128c3565b90815180825260208080930193019160005b828110612918575050505090565b83516001600160a01b03168552938101939281019260010161290a565b600435906001600160a01b038216820361017557565b35906001600160a01b038216820361017557565b6004359067ffffffffffffffff8216820361017557565b9181601f840112156101755782359167ffffffffffffffff8311610175576020838186019501011161017557565b6044359063ffffffff8216820361017557565b6080810190811067ffffffffffffffff82111761071957604052565b6040810190811067ffffffffffffffff82111761071957604052565b90601f8019910116810190811067ffffffffffffffff82111761071957604052565b67ffffffffffffffff81116107195760051b60200190565b81601f8201121561017557803591612a4083612a11565b92612a4e60405194856129ef565b808452602092838086019260051b820101928311610175578301905b828210612a78575050505090565b838091612a848461294b565b815201910190612a6a565b67ffffffffffffffff811161071957601f01601f191660200190565b929192612ab782612a8f565b91612ac560405193846129ef565b829481845281830111610175578281602093846000960137010152565b9080601f8301121561017557816020612afd93359101612aab565b90565b60001981146105035760010190565b91908110156104ed5760051b0190565b356001600160a01b03811681036101755790565b919392938060408401604085525260608301919060005b818110612b66575050506001600160a01b036020919416910152565b9091926001906001600160a01b03612b7d8661294b565b16815260209081019401929101612b4a565b60ff6008541615612bb6576001600160a01b0316600052600a602052604060002054151590565b50600190565b6001600160a01b0360005460101c163303612bd357565b60046040517f2b5c74de000000000000000000000000000000000000000000000000000000008152fd5b15612c0457565b608460405162461bcd60e51b815260206004820152602b60248201527f496e697469616c697a61626c653a20636f6e7472616374206973206e6f74206960448201527f6e697469616c697a696e670000000000000000000000000000000000000000006064820152fd5b90600182811c92168015612c9e575b6020831014612c8857565b634e487b7160e01b600052602260045260246000fd5b91607f1691612c7d565b818110612cb3575050565b60008155600101612ca8565b51906001600160a01b038216820361017557565b60209081818403126101755780519067ffffffffffffffff821161017557019180601f84011215610175578251612d0981612a11565b93612d1760405195866129ef565b818552838086019260051b820101928311610175578301905b828210612d3e575050505090565b838091612d4a84612cbf565b815201910190612d30565b80518210156104ed5760209160051b010190565b60405190632050460d60e21b82526000918281600481305afa908115612df0578391612dd6575b50825b8151811015612dd0576001600160a01b0380612daf8385612d55565b511690841614612dc757612dc290612b00565b612d93565b50505050600190565b50505090565b612dea91503d8085833e61226281836129ef565b38612d90565b6040513d85823e3d90fd5b9081602091031261017557516bffffffffffffffffffffffff811681036101755790565b908060209392818452848401376000828201840152601f01601f1916010190565b91612e5b60809260609296959660a0865260a0860191612e1f565b9467ffffffffffffffff81511660208501526001600160a01b03602082015116604085015263ffffffff604082015116828501520151910152565b6007548110156104ed5760076000527fa66cc928b5edb82af9bd49922954155ab7b0942694bea4ce44661d9a8736c6880190600090565b6006548110156104ed5760066000527ff652222313e28459528d920b65115c16c04f3efc82aaedc97be59f3f377c0d3f0190600090565b6009548110156104ed5760096000527f6e1540171b6c0c960b71a7020d9f60077f6af931a8bbf590da0223dacf75c7af0190600090565b60031115612f4557565b634e487b7160e01b600052602160045260246000fd5b60ff60019116019060ff821161050357565b90601f8110156104ed5760051b0190565b9080601f8301121561017557813590612f9682612a11565b92612fa460405194856129ef565b828452602092838086019160051b8301019280841161017557848301915b848310612fd25750505050505090565b823567ffffffffffffffff8111610175578691612ff484848094890101612ae2565b815201920191612fc2565b9190820180921161050357565b6000818152600a6020526040812054613089576009546801000000000000000081101561307557908261306161304a84600160409601600955612f04565b819391549060031b91821b91600019901b19161790565b9055600954928152600a6020522055600190565b602482634e487b7160e01b81526041600452fd5b905090565b6000818152600a60205260408120549091908015613173576000199080820181811161315f576009549083820191821161314b57808203613117575b5050506009548015613103578101906130e282612f04565b909182549160031b1b191690556009558152600a6020526040812055600190565b602484634e487b7160e01b81526031600452fd5b61313561312661304a93612f04565b90549060031b1c928392612f04565b90558452600a60205260408420553880806130ca565b602486634e487b7160e01b81526011600452fd5b602485634e487b7160e01b81526011600452fd5b50509056fea2646970667358221220eb1ecdeb9c35d96e0f560e8c410463a4c2f0390346e8a7bf891d38af125462e264736f6c63430008120033",
  "linkReferences": {},
  "deployedLinkReferences": {}
}