{
  "_format": "hh-sol-artifact-1",
  "contractName": "FunctionsManager",
  "sourceName": "contracts/FunctionsManager.sol",
  "abi": [
    {
      "inputs": [
        {
          "internalType": "address",
          "name": "link",
          "type": "address"
        },
        {
          "internalType": "address",
          "name": "billingRegistryProxy",
          "type": "address"
        },
        {
          "internalType": "address",
          "name": "oracleProxy",
          "type": "address"
        },
        {
          "internalType": "uint256",
          "name": "_baseFee",
          "type": "uint256"
        },
        {
          "internalType": "uint32",
          "name": "_feeManagerCut",
          "type": "uint32"
        },
        {
          "internalType": "uint256",
          "name": "_minimumSubscriptionDeposit",
          "type": "uint256"
        }
      ],
      "stateMutability": "nonpayable",
      "type": "constructor"
    },
    {
      "inputs": [],
      "name": "EmptySecrets",
      "type": "error"
    },
    {
      "inputs": [],
      "name": "EmptySource",
      "type": "error"
    },
    {
      "inputs": [],
      "name": "NoInlineSecrets",
      "type": "error"
    },
    {
      "inputs": [],
      "name": "RequestIsAlreadyPending",
      "type": "error"
    },
    {
      "inputs": [],
      "name": "RequestIsNotPending",
      "type": "error"
    },
    {
      "inputs": [],
      "name": "SenderIsNotRegistry",
      "type": "error"
    },
    {
      "anonymous": false,
      "inputs": [
        {
          "indexed": false,
          "internalType": "uint256",
          "name": "newBaseFee",
          "type": "uint256"
        }
      ],
      "name": "BaseFeeUpdated",
      "type": "event"
    },
    {
      "anonymous": false,
      "inputs": [
        {
          "indexed": false,
          "internalType": "uint256",
          "name": "newFeeManagerCut",
          "type": "uint256"
        }
      ],
      "name": "FeeManagerCutUpdated",
      "type": "event"
    },
    {
      "anonymous": false,
      "inputs": [
        {
          "indexed": false,
          "internalType": "bytes32",
          "name": "requestId",
          "type": "bytes32"
        },
        {
          "indexed": false,
          "internalType": "bytes",
          "name": "response",
          "type": "bytes"
        },
        {
          "indexed": false,
          "internalType": "bytes",
          "name": "err",
          "type": "bytes"
        }
      ],
      "name": "FulfillRequest",
      "type": "event"
    },
    {
      "anonymous": false,
      "inputs": [
        {
          "indexed": true,
          "internalType": "bytes32",
          "name": "functionId",
          "type": "bytes32"
        },
        {
          "indexed": true,
          "internalType": "bytes32",
          "name": "requestId",
          "type": "bytes32"
        },
        {
          "indexed": true,
          "internalType": "address",
          "name": "caller",
          "type": "address"
        },
        {
          "indexed": false,
          "internalType": "address",
          "name": "owner",
          "type": "address"
        },
        {
          "indexed": false,
          "internalType": "bytes32",
          "name": "callbackFunction",
          "type": "bytes32"
        },
        {
          "indexed": false,
          "internalType": "uint256",
          "name": "usedGas",
          "type": "uint256"
        },
        {
          "indexed": false,
          "internalType": "bytes",
          "name": "response",
          "type": "bytes"
        },
        {
          "indexed": false,
          "internalType": "bytes",
          "name": "err",
          "type": "bytes"
        }
      ],
      "name": "FunctionCallCompleted",
      "type": "event"
    },
    {
      "anonymous": false,
      "inputs": [
        {
          "indexed": true,
          "internalType": "bytes32",
          "name": "functionId",
          "type": "bytes32"
        },
        {
          "indexed": true,
          "internalType": "bytes32",
          "name": "requestId",
          "type": "bytes32"
        },
        {
          "indexed": true,
          "internalType": "address",
          "name": "caller",
          "type": "address"
        },
        {
          "indexed": false,
          "internalType": "address",
          "name": "owner",
          "type": "address"
        },
        {
          "indexed": false,
          "internalType": "bytes32",
          "name": "callbackFunction",
          "type": "bytes32"
        },
        {
          "indexed": false,
          "internalType": "uint256",
          "name": "gasDeposit",
          "type": "uint256"
        },
        {
          "indexed": false,
          "internalType": "uint256",
          "name": "baseFee",
          "type": "uint256"
        },
        {
          "indexed": false,
          "internalType": "uint256",
          "name": "fee",
          "type": "uint256"
        }
      ],
      "name": "FunctionCalled",
      "type": "event"
    },
    {
      "anonymous": false,
      "inputs": [
        {
          "indexed": true,
          "internalType": "bytes32",
          "name": "functionId",
          "type": "bytes32"
        },
        {
          "indexed": true,
          "internalType": "address",
          "name": "owner",
          "type": "address"
        },
        {
          "indexed": true,
          "internalType": "bytes32",
          "name": "category",
          "type": "bytes32"
        },
        {
          "components": [
            {
              "internalType": "uint256",
              "name": "fee",
              "type": "uint256"
            },
            {
              "internalType": "address",
              "name": "owner",
              "type": "address"
            },
            {
              "internalType": "uint64",
              "name": "subId",
              "type": "uint64"
            },
            {
              "internalType": "string",
              "name": "name",
              "type": "string"
            },
            {
              "internalType": "string",
              "name": "desc",
              "type": "string"
            },
            {
              "internalType": "string",
              "name": "imageUrl",
              "type": "string"
            },
            {
              "internalType": "string[]",
              "name": "expectedArgs",
              "type": "string[]"
            },
            {
              "components": [
                {
                  "internalType": "enum Functions.Location",
                  "name": "codeLocation",
                  "type": "uint8"
                },
                {
                  "internalType": "enum Functions.Location",
                  "name": "secretsLocation",
                  "type": "uint8"
                },
                {
                  "internalType": "enum Functions.CodeLanguage",
                  "name": "language",
                  "type": "uint8"
                },
                {
                  "internalType": "string",
                  "name": "source",
                  "type": "string"
                },
                {
                  "internalType": "bytes",
                  "name": "secrets",
                  "type": "bytes"
                },
                {
                  "internalType": "string[]",
                  "name": "args",
                  "type": "string[]"
                }
              ],
              "internalType": "struct Functions.Request",
              "name": "request",
              "type": "tuple"
            },
            {
              "internalType": "bytes32",
              "name": "category",
              "type": "bytes32"
            },
            {
              "internalType": "uint256",
              "name": "subscriptionPool",
              "type": "uint256"
            },
            {
              "internalType": "uint256",
              "name": "unlockedProfitPool",
              "type": "uint256"
            },
            {
              "internalType": "uint256",
              "name": "lockedProfitPool",
              "type": "uint256"
            }
          ],
          "indexed": false,
          "internalType": "struct FunctionsManager.FunctionMetadata",
          "name": "metadata",
          "type": "tuple"
        }
      ],
      "name": "FunctionRegistered",
      "type": "event"
    },
    {
      "anonymous": false,
      "inputs": [
        {
          "indexed": false,
          "internalType": "uint256",
          "name": "newMinimumDeposit",
          "type": "uint256"
        }
      ],
      "name": "MinimumSubscriptionDepositUpdated",
      "type": "event"
    },
    {
      "anonymous": false,
      "inputs": [
        {
          "indexed": true,
          "internalType": "bytes32",
          "name": "requestId",
          "type": "bytes32"
        },
        {
          "indexed": false,
          "internalType": "bytes",
          "name": "result",
          "type": "bytes"
        },
        {
          "indexed": false,
          "internalType": "bytes",
          "name": "err",
          "type": "bytes"
        }
      ],
      "name": "OCRResponse",
      "type": "event"
    },
    {
      "anonymous": false,
      "inputs": [
        {
          "indexed": true,
          "internalType": "address",
          "name": "from",
          "type": "address"
        },
        {
          "indexed": true,
          "internalType": "address",
          "name": "to",
          "type": "address"
        }
      ],
      "name": "OwnershipTransferRequested",
      "type": "event"
    },
    {
      "anonymous": false,
      "inputs": [
        {
          "indexed": true,
          "internalType": "address",
          "name": "from",
          "type": "address"
        },
        {
          "indexed": true,
          "internalType": "address",
          "name": "to",
          "type": "address"
        }
      ],
      "name": "OwnershipTransferred",
      "type": "event"
    },
    {
      "anonymous": false,
      "inputs": [
        {
          "indexed": true,
          "internalType": "bytes32",
          "name": "id",
          "type": "bytes32"
        }
      ],
      "name": "RequestFulfilled",
      "type": "event"
    },
    {
      "anonymous": false,
      "inputs": [
        {
          "indexed": true,
          "internalType": "bytes32",
          "name": "id",
          "type": "bytes32"
        }
      ],
      "name": "RequestSent",
      "type": "event"
    },
    {
      "inputs": [],
      "name": "acceptOwnership",
      "outputs": [],
      "stateMutability": "nonpayable",
      "type": "function"
    },
    {
      "inputs": [
        {
          "internalType": "address",
          "name": "",
          "type": "address"
        }
      ],
      "name": "authorMetadata",
      "outputs": [
        {
          "internalType": "string",
          "name": "name",
          "type": "string"
        },
        {
          "internalType": "string",
          "name": "imageUrl",
          "type": "string"
        },
        {
          "internalType": "string",
          "name": "websiteUrl",
          "type": "string"
        }
      ],
      "stateMutability": "view",
      "type": "function"
    },
    {
      "inputs": [],
      "name": "baseFee",
      "outputs": [
        {
          "internalType": "uint256",
          "name": "",
          "type": "uint256"
        }
      ],
      "stateMutability": "view",
      "type": "function"
    },
    {
      "inputs": [
        {
          "internalType": "uint64",
          "name": "",
          "type": "uint64"
        }
      ],
      "name": "categoryNames",
      "outputs": [
        {
          "internalType": "string",
          "name": "",
          "type": "string"
        }
      ],
      "stateMutability": "view",
      "type": "function"
    },
    {
      "inputs": [
        {
          "internalType": "bytes32",
          "name": "requestId",
          "type": "bytes32"
        },
        {
          "internalType": "bytes",
          "name": "response",
          "type": "bytes"
        },
        {
          "internalType": "bytes",
          "name": "err",
          "type": "bytes"
        }
      ],
      "name": "dummyFullfill",
      "outputs": [],
      "stateMutability": "nonpayable",
      "type": "function"
    },
    {
      "inputs": [
        {
          "components": [
            {
              "internalType": "enum Functions.Location",
              "name": "codeLocation",
              "type": "uint8"
            },
            {
              "internalType": "enum Functions.Location",
              "name": "secretsLocation",
              "type": "uint8"
            },
            {
              "internalType": "enum Functions.CodeLanguage",
              "name": "language",
              "type": "uint8"
            },
            {
              "internalType": "string",
              "name": "source",
              "type": "string"
            },
            {
              "internalType": "bytes",
              "name": "secrets",
              "type": "bytes"
            },
            {
              "internalType": "string[]",
              "name": "args",
              "type": "string[]"
            }
          ],
          "internalType": "struct Functions.Request",
          "name": "req",
          "type": "tuple"
        },
        {
          "internalType": "uint64",
          "name": "subscriptionId",
          "type": "uint64"
        },
        {
          "internalType": "uint32",
          "name": "gasLimit",
          "type": "uint32"
        },
        {
          "internalType": "uint256",
          "name": "gasPrice",
          "type": "uint256"
        }
      ],
      "name": "estimateCost",
      "outputs": [
        {
          "internalType": "uint96",
          "name": "",
          "type": "uint96"
        }
      ],
      "stateMutability": "view",
      "type": "function"
    },
    {
      "inputs": [
        {
          "internalType": "bytes32",
          "name": "functionId",
          "type": "bytes32"
        },
        {
          "internalType": "uint32",
          "name": "gasLimit",
          "type": "uint32"
        },
        {
          "internalType": "bool",
          "name": "dummy",
          "type": "bool"
        }
      ],
      "name": "executeRequest",
      "outputs": [
        {
          "internalType": "bytes32",
          "name": "",
          "type": "bytes32"
        }
      ],
      "stateMutability": "nonpayable",
      "type": "function"
    },
    {
      "inputs": [],
      "name": "feeManagerCut",
      "outputs": [
        {
          "internalType": "uint32",
          "name": "",
          "type": "uint32"
        }
      ],
      "stateMutability": "view",
      "type": "function"
    },
    {
      "inputs": [
        {
          "internalType": "bytes32",
          "name": "functionId",
          "type": "bytes32"
        }
      ],
      "name": "forceUnlockFees",
      "outputs": [],
      "stateMutability": "nonpayable",
      "type": "function"
    },
    {
      "inputs": [],
      "name": "functionManagerProfitPool",
      "outputs": [
        {
          "internalType": "uint256",
          "name": "",
          "type": "uint256"
        }
      ],
      "stateMutability": "view",
      "type": "function"
    },
    {
      "inputs": [
        {
          "internalType": "bytes32",
          "name": "",
          "type": "bytes32"
        }
      ],
      "name": "functionMetadatas",
      "outputs": [
        {
          "internalType": "uint256",
          "name": "fee",
          "type": "uint256"
        },
        {
          "internalType": "address",
          "name": "owner",
          "type": "address"
        },
        {
          "internalType": "uint64",
          "name": "subId",
          "type": "uint64"
        },
        {
          "internalType": "string",
          "name": "name",
          "type": "string"
        },
        {
          "internalType": "string",
          "name": "desc",
          "type": "string"
        },
        {
          "internalType": "string",
          "name": "imageUrl",
          "type": "string"
        },
        {
          "components": [
            {
              "internalType": "enum Functions.Location",
              "name": "codeLocation",
              "type": "uint8"
            },
            {
              "internalType": "enum Functions.Location",
              "name": "secretsLocation",
              "type": "uint8"
            },
            {
              "internalType": "enum Functions.CodeLanguage",
              "name": "language",
              "type": "uint8"
            },
            {
              "internalType": "string",
              "name": "source",
              "type": "string"
            },
            {
              "internalType": "bytes",
              "name": "secrets",
              "type": "bytes"
            },
            {
              "internalType": "string[]",
              "name": "args",
              "type": "string[]"
            }
          ],
          "internalType": "struct Functions.Request",
          "name": "request",
          "type": "tuple"
        },
        {
          "internalType": "bytes32",
          "name": "category",
          "type": "bytes32"
        },
        {
          "internalType": "uint256",
          "name": "subscriptionPool",
          "type": "uint256"
        },
        {
          "internalType": "uint256",
          "name": "unlockedProfitPool",
          "type": "uint256"
        },
        {
          "internalType": "uint256",
          "name": "lockedProfitPool",
          "type": "uint256"
        }
      ],
      "stateMutability": "view",
      "type": "function"
    },
    {
      "inputs": [
        {
          "internalType": "bytes32",
          "name": "",
          "type": "bytes32"
        }
      ],
      "name": "functionResponses",
      "outputs": [
        {
          "internalType": "bytes32",
          "name": "functionId",
          "type": "bytes32"
        },
        {
          "internalType": "address",
          "name": "caller",
          "type": "address"
        },
        {
          "internalType": "bytes32",
          "name": "callbackFunction",
          "type": "bytes32"
        },
        {
          "internalType": "uint256",
          "name": "gasDeposit",
          "type": "uint256"
        },
        {
          "internalType": "bytes",
          "name": "response",
          "type": "bytes"
        },
        {
          "internalType": "bytes",
          "name": "err",
          "type": "bytes"
        }
      ],
      "stateMutability": "view",
      "type": "function"
    },
    {
      "inputs": [],
      "name": "getDONPublicKey",
      "outputs": [
        {
          "internalType": "bytes",
          "name": "",
          "type": "bytes"
        }
      ],
      "stateMutability": "view",
      "type": "function"
    },
    {
      "inputs": [
        {
          "internalType": "bytes32",
          "name": "_functionId",
          "type": "bytes32"
        }
      ],
      "name": "getFunction",
      "outputs": [
        {
          "components": [
            {
              "internalType": "uint256",
              "name": "fee",
              "type": "uint256"
            },
            {
              "internalType": "address",
              "name": "owner",
              "type": "address"
            },
            {
              "internalType": "uint64",
              "name": "subId",
              "type": "uint64"
            },
            {
              "internalType": "string",
              "name": "name",
              "type": "string"
            },
            {
              "internalType": "string",
              "name": "desc",
              "type": "string"
            },
            {
              "internalType": "string",
              "name": "imageUrl",
              "type": "string"
            },
            {
              "internalType": "string[]",
              "name": "expectedArgs",
              "type": "string[]"
            },
            {
              "components": [
                {
                  "internalType": "enum Functions.Location",
                  "name": "codeLocation",
                  "type": "uint8"
                },
                {
                  "internalType": "enum Functions.Location",
                  "name": "secretsLocation",
                  "type": "uint8"
                },
                {
                  "internalType": "enum Functions.CodeLanguage",
                  "name": "language",
                  "type": "uint8"
                },
                {
                  "internalType": "string",
                  "name": "source",
                  "type": "string"
                },
                {
                  "internalType": "bytes",
                  "name": "secrets",
                  "type": "bytes"
                },
                {
                  "internalType": "string[]",
                  "name": "args",
                  "type": "string[]"
                }
              ],
              "internalType": "struct Functions.Request",
              "name": "request",
              "type": "tuple"
            },
            {
              "internalType": "bytes32",
              "name": "category",
              "type": "bytes32"
            },
            {
              "internalType": "uint256",
              "name": "subscriptionPool",
              "type": "uint256"
            },
            {
              "internalType": "uint256",
              "name": "unlockedProfitPool",
              "type": "uint256"
            },
            {
              "internalType": "uint256",
              "name": "lockedProfitPool",
              "type": "uint256"
            }
          ],
          "internalType": "struct FunctionsManager.FunctionMetadata",
          "name": "",
          "type": "tuple"
        }
      ],
      "stateMutability": "view",
      "type": "function"
    },
    {
      "inputs": [
        {
          "internalType": "bytes32",
          "name": "_requestId",
          "type": "bytes32"
        }
      ],
      "name": "getFunctionResponse",
      "outputs": [
        {
          "components": [
            {
              "internalType": "bytes32",
              "name": "functionId",
              "type": "bytes32"
            },
            {
              "internalType": "address",
              "name": "caller",
              "type": "address"
            },
            {
              "internalType": "bytes32",
              "name": "callbackFunction",
              "type": "bytes32"
            },
            {
              "internalType": "uint256",
              "name": "gasDeposit",
              "type": "uint256"
            },
            {
              "internalType": "bytes",
              "name": "response",
              "type": "bytes"
            },
            {
              "internalType": "bytes",
              "name": "err",
              "type": "bytes"
            }
          ],
          "internalType": "struct FunctionsManager.FunctionResponse",
          "name": "",
          "type": "tuple"
        }
      ],
      "stateMutability": "view",
      "type": "function"
    },
    {
      "inputs": [
        {
          "internalType": "bytes32",
          "name": "requestId",
          "type": "bytes32"
        },
        {
          "internalType": "bytes",
          "name": "response",
          "type": "bytes"
        },
        {
          "internalType": "bytes",
          "name": "err",
          "type": "bytes"
        }
      ],
      "name": "handleOracleFulfillment",
      "outputs": [],
      "stateMutability": "nonpayable",
      "type": "function"
    },
    {
      "inputs": [],
      "name": "minimumSubscriptionDeposit",
      "outputs": [
        {
          "internalType": "uint256",
          "name": "",
          "type": "uint256"
        }
      ],
      "stateMutability": "view",
      "type": "function"
    },
    {
      "inputs": [
        {
          "internalType": "bytes32",
          "name": "functionId",
          "type": "bytes32"
        }
      ],
      "name": "moveSubscriptionToUnlock",
      "outputs": [],
      "stateMutability": "nonpayable",
      "type": "function"
    },
    {
      "inputs": [],
      "name": "owner",
      "outputs": [
        {
          "internalType": "address",
          "name": "",
          "type": "address"
        }
      ],
      "stateMutability": "view",
      "type": "function"
    },
    {
      "inputs": [
        {
          "components": [
            {
              "internalType": "uint256",
              "name": "fees",
              "type": "uint256"
            },
            {
              "internalType": "string",
              "name": "functionName",
              "type": "string"
            },
            {
              "internalType": "string",
              "name": "desc",
              "type": "string"
            },
            {
              "internalType": "string",
              "name": "imageUrl",
              "type": "string"
            },
            {
              "internalType": "string[]",
              "name": "expectedArgs",
              "type": "string[]"
            },
            {
              "internalType": "enum Functions.Location",
              "name": "codeLocation",
              "type": "uint8"
            },
            {
              "internalType": "enum Functions.Location",
              "name": "secretsLocation",
              "type": "uint8"
            },
            {
              "internalType": "enum Functions.CodeLanguage",
              "name": "language",
              "type": "uint8"
            },
            {
              "internalType": "bytes32",
              "name": "category",
              "type": "bytes32"
            },
            {
              "internalType": "uint64",
              "name": "subId",
              "type": "uint64"
            },
            {
              "internalType": "string",
              "name": "source",
              "type": "string"
            },
            {
              "internalType": "bytes",
              "name": "secrets",
              "type": "bytes"
            }
          ],
          "internalType": "struct FunctionsManager.FunctionsRegisterRequest",
          "name": "request",
          "type": "tuple"
        }
      ],
      "name": "registerFunction",
      "outputs": [
        {
          "internalType": "bytes32",
          "name": "",
          "type": "bytes32"
        }
      ],
      "stateMutability": "payable",
      "type": "function"
    },
    {
      "inputs": [
        {
          "internalType": "uint256",
          "name": "_baseFee",
          "type": "uint256"
        }
      ],
      "name": "setBaseFee",
      "outputs": [],
      "stateMutability": "nonpayable",
      "type": "function"
    },
    {
      "inputs": [
        {
          "internalType": "uint32",
          "name": "_feeManagerCut",
          "type": "uint32"
        }
      ],
      "name": "setFeeManagerCut",
      "outputs": [],
      "stateMutability": "nonpayable",
      "type": "function"
    },
    {
      "inputs": [
        {
          "internalType": "uint256",
          "name": "_minimumDeposit",
          "type": "uint256"
        }
      ],
      "name": "setMinimumDeposit",
      "outputs": [],
      "stateMutability": "nonpayable",
      "type": "function"
    },
    {
      "inputs": [
        {
          "internalType": "address",
          "name": "to",
          "type": "address"
        }
      ],
      "name": "transferOwnership",
      "outputs": [],
      "stateMutability": "nonpayable",
      "type": "function"
    }
  ],
  "bytecode": "0x608034620001a557601f620042c038819003918201601f19168301916001600160401b03831184841017620001aa5780849260c094604052833981010312620001a5576200004d81620001c0565b906200005c60208201620001c0565b916200006b60408301620001c0565b60608301519160808401519363ffffffff8516809503620001a55760a00151600080546001600160a01b03199081166001600160a01b039586161790915590959092913315620001605733846002541617600255606486116200010157821683600a541617600a551690600b541617600b55600d5563ffffffff19600f541617600f55600e556040516140ea9081620001d68239f35b60405162461bcd60e51b815260206004820152603160248201527f466565206d616e6167657220637574206d757374206265206c6573732074686160448201527006e206f7220657175616c20746f2031303607c1b6064820152608490fd5b60405162461bcd60e51b815260206004820152601860248201527f43616e6e6f7420736574206f776e657220746f207a65726f00000000000000006044820152606490fd5b600080fd5b634e487b7160e01b600052604160045260246000fd5b51906001600160a01b0382168203620001a55756fe6080604052600436101561001257600080fd5b60003560e01c80630b562aa9146101975780630ca76175146101925780631ac67b341461018d5780634351077d1461018857806346860698146101835780635178d6731461017e57806355a902f6146101795780635d81e33e146101745780636ef25c3a1461016f57806379ba50971461016a5780637b0caaa2146101655780638913aa6d146101605780638da5cb5b1461015b578063a36df5c214610156578063ba9c513f14610151578063d328a91e1461014c578063d4b3917514610147578063d5549c8a14610142578063de76f0531461013d578063e67950d314610138578063e78ec42e14610133578063efb6c1401461012e578063f2fde38b146101295763f99bc9581461012457600080fd5b611b3d565b611a76565b611a23565b6119d7565b61188c565b611715565b6116f7565b6115eb565b611423565b6113ac565b611321565b6112fa565b61126b565b611236565b61116c565b61114e565b610e63565b610c1a565b610b0e565b610ac2565b6109d4565b6108d1565b610357565b6101ac565b60009103126101a757565b600080fd5b346101a75760003660031901126101a7576020600e54604051908152f35b634e487b7160e01b600052604160045260246000fd5b60c0810190811067ffffffffffffffff8211176101fc57604052565b6101ca565b67ffffffffffffffff81116101fc57604052565b6040810190811067ffffffffffffffff8211176101fc57604052565b6060810190811067ffffffffffffffff8211176101fc57604052565b90601f8019910116810190811067ffffffffffffffff8211176101fc57604052565b6040519061027c826101e0565b565b60405190610180820182811067ffffffffffffffff8211176101fc57604052565b67ffffffffffffffff81116101fc57601f01601f191660200190565b9291926102c78261029f565b916102d5604051938461024d565b8294818452818301116101a7578281602093846000960137010152565b9080601f830112156101a75781602061030d933591016102bb565b90565b60606003198201126101a7576004359167ffffffffffffffff6024358181116101a75783610340916004016102f2565b926044359182116101a75761030d916004016102f2565b346101a75761036536610310565b919060009282845260016020526001600160a01b03918260408620541633036104eb577f7bab0ec163b5c132c72b8146ac4d6e067e82ed58f8b131150aa71c9258911562928486526001602052604086206001600160a01b03198154169055847f85e1543bf2f84fe80c6badbce3648c8539ad1df4d2b3d822938ca0538be727e68780a284807f6968e95d7bc2605bb814d168859020d6e2f617bc615d1ae5aef0ce68af0d1631610420826000526005602052604060002090565b9360018501610433828254161515612cc7565b6104408760048801611f2e565b61044d8860058801611f2e565b6104d3888860026104c26104b461046f8c546000526004602052604060002090565b966104a760018901986104a261049b61048f8c546001600160a01b031690565b6001600160a01b031690565b1515612c18565b612c63565b546001600160a01b031690565b95546001600160a01b031690565b990154604051958695169985612d12565b0390a46104e560405192839283612d52565b0390a280f35b60046040517fa0c5ec63000000000000000000000000000000000000000000000000000000008152fd5b90600182811c92168015610545575b602083101461052f57565b634e487b7160e01b600052602260045260246000fd5b91607f1691610524565b906040519182600082549261056384610515565b9081845260019485811690816000146105d0575060011461058d575b505061027c9250038361024d565b9093915060005260209081600020936000915b8183106105b857505061027c9350820101388061057f565b855488840185015294850194879450918301916105a0565b91505061027c94506020925060ff191682840152151560051b820101388061057f565b634e487b7160e01b600052602160045260246000fd5b6002111561061357565b6105f3565b60028210156106135752565b6001111561061357565b60018210156106135752565b67ffffffffffffffff81116101fc5760051b60200190565b90815461065e8161063a565b9261066c604051948561024d565b818452600090815260208082208186015b84841061068b575050505050565b60018381926106998561054f565b81520192019301929061067d565b906040516106b4816101e0565b60a0610717600383956106ef60ff82546106d082821689610618565b6106e2828260081c1660208a01610618565b60101c166040870161062e565b6106fb6001820161054f565b606086015261070c6002820161054f565b608086015201610652565b910152565b60005b83811061072f5750506000910152565b818101518382015260200161071f565b906020916107588151809281855285808601910161071c565b601f01601f1916010190565b9060028210156106135752565b908082519081815260208091019281808460051b8301019501936000915b84831061079f5750505050505090565b90919293949584806107bd600193601f198682030187528a5161073f565b980193019301919493929061078f565b6107d8828251610764565b6107ea60208201516020840190610764565b60408101519160018310156106135761030d92604082015260a0610832610820606085015160c0606086015260c085019061073f565b6080850151848203608086015261073f565b9201519060a0818403910152610771565b979b9a999693946108916108bb9667ffffffffffffffff6108ad968c60206101409f9c986001600160a01b039061089f998452169101521660408c01526101608060608d01528b019061073f565b9089820360808b015261073f565b9087820360a089015261073f565b9085820360c08701526107cd565b9660e08401526101008301526101208201520152565b346101a75760203660031901126101a75760043560005260046020526040600020805461096a6001830154926109096002820161054f565b906109166003820161054f565b6109226004830161054f565b61092e600684016106a7565b600a84015491600b85015493600d600c870154960154966040519a8b9a6001600160a01b0367ffffffffffffffff8360a01c169216908c610843565b0390f35b9061030d9160208152815160208201526001600160a01b036020830151166040820152604082015160608201526060820151608082015260a06109bf608084015160c08385015260e084019061073f565b9201519060c0601f198285030191015261073f565b346101a75760203660031901126101a75761096a60408080516109f6816101e0565b606060a0600092838152836020820152838582015283838201528260808201520152610a558251610a2681610215565b601381527f67657446756e6374696f6e526573706f6e7365000000000000000000000000006020820152613e6f565b600435815260056020522090610ab36005825193610a72856101e0565b805485526001600160a01b03600182015416602086015260028101548486015260038101546060860152610aa86004820161054f565b60808601520161054f565b60a0830152519182918261096e565b346101a75760203660031901126101a7577f803bee7e92bbc6ae7a1551f9f4ed3e31a8ea8df32e93332f41b0028f1091f9c36020600435610b01611b97565b80600d55604051908152a1005b346101a7577f7bab0ec163b5c132c72b8146ac4d6e067e82ed58f8b131150aa71c9258911562610b3d36610310565b90610b49939293611b97565b610b5d846000526005602052604060002090565b84807f6968e95d7bc2605bb814d168859020d6e2f617bc615d1ae5aef0ce68af0d1631600184016001600160a01b0390610baa82610ba283546001600160a01b031690565b161515612cc7565b610bb78760048801611f2e565b610bc48860058801611f2e565b610be6888860026104c26104b461046f8c546000526004602052604060002090565b0390a4610bf860405192839283612d52565b0390a2005b6044359063ffffffff821682036101a757565b801515036101a757565b346101a75760603660031901126101a75760243560043563ffffffff821682036101a75760209160443590610c4e82610c10565b610c56611b97565b610c66610c61612637565b613e6f565b610c6f83613e14565b610c83836000526004602052604060002090565b91610c9b610c946002850154610515565b1515612696565b610ca6610c616126e1565b610caf83612a11565b15610e2f5750506040517f64756d6d790000000000000000000000000000000000000000000000000000008382019081526005810183905242602582015290610d0581604584015b03601f19810183528261024d565b519020905b610d15610c6161271a565b610d1e82613e14565b610d3c610d35836000526005602052604060002090565b5415612753565b80610d51836000526005602052604060002090565b55610d88336001610d6c856000526005602052604060002090565b01906001600160a01b03166001600160a01b0319825416179055565b610d93610c6161279e565b81610dbb6001610dad846000526004602052604060002090565b01546001600160a01b031690565b917fc9720022133669f887636011749fb494b606ffd3a817aab09e90b8a2427dbe08600d54610df4836000526004602052604060002090565b54604080516001600160a01b039790971687526000602088018190529087015260608601919091526080850152339360a090a4604051908152f35b81610e586006610e516001610e5d96015467ffffffffffffffff9060a01c1690565b92016106a7565b613284565b90610d0a565b6003196020368201126101a75767ffffffffffffffff6004358181116101a757610180816004019382360301126101a75761096a92610edd826024610f31940192610eba610eb18583611bef565b90501515611c22565b610f3e610ec78583611bef565b6040979188519687916020830193339185611c6d565b0395610ef1601f199788810183528261024d565b519020610f21610f1c610f18610f11846000526007602052604060002090565b5460ff1690565b1590565b611ca7565b6000526007602052604060002090565b805460ff19166001179055565b610f64610f5d610f4c611d4b565b336020820152958335875283611bef565b36916102bb565b6060850152610f79610f5d6044840183611bef565b6080850152610f8e610f5d6064840183611bef565b60a0850152610faa610fa36084840183611dc1565b3691611541565b60c0850152610100840195610104830135875261012483019080610fcd83611df7565b1661111f575050610fdf610c61611e3a565b610ffa610fea6123ee565b67ffffffffffffffff1685870152565b610164611005611d18565b9261103961101560a48301611e73565b61102160e48401611e7d565b611032610f5d610144860188611bef565b9187612d77565b016110448183611bef565b9050611102575b505060e0830152825161107360208201928261106786866117b0565b0390810183528261024d565b519020926110a26001600160a01b0361109b6001610dad886000526004602052604060002090565b1615611e87565b6110bf826110ba866000526004602052604060002090565b6121d5565b5190837fcb1f2fa95a5c0789716cec3b601c5dd909479353a8ae39ab3e35005df8c8027d8451806110f13395826117b0565b0390a4519081529081906020820190565b610f5d6111129161111893611bef565b82612dc6565b388061104b565b81611144610fea9261113361114995611df7565b9061113c611e01565b911690613eb6565b611df7565b610ffa565b346101a75760003660031901126101a7576020600d54604051908152f35b346101a757600080600319360112611233576001600160a01b03806003541633036111ef576002546001600160a01b0316600280546001600160a01b03191633179055906111c56001600160a01b031960035416600355565b3391167f8be0079c531659141344cd1fd0a4f28419497f9722a3daafe3b4186f6b6457e08380a380f35b606460405162461bcd60e51b815260206004820152601660248201527f4d7573742062652070726f706f736564206f776e6572000000000000000000006044820152fd5b80fd5b346101a75760003660031901126101a757602063ffffffff600f5416604051908152f35b6001600160a01b038116036101a757565b346101a75760203660031901126101a7576001600160a01b036004356112908161125a565b1660005260086020526112de604060002061096a6112ad8261054f565b916112ec6112c960026112c26001850161054f565b930161054f565b9160405195869560608752606087019061073f565b90858203602087015261073f565b90838203604085015261073f565b346101a75760003660031901126101a75760206001600160a01b0360025416604051908152f35b346101a75760203660031901126101a75760043560005260056020526040600020805461096a6001600160a01b036001840154169261139e600282015491600381015461137560056112c26004850161054f565b93604051978897885260208801526040870152606086015260c0608086015260c085019061073f565b9083820360a085015261073f565b346101a75760203660031901126101a75760043563ffffffff81168091036101a75760207f5df6c53187c7cfa2643679f49eee9fc8a62e23a074ed0b12f17b5635c25f721d916113fa611b97565b8063ffffffff19600f541617600f55604051908152a1005b90602061030d92818152019061073f565b346101a757600080600319360112611233576004816001600160a01b03815416604051928380927fd328a91e0000000000000000000000000000000000000000000000000000000082525afa90811561151257829161148b575b6040518061096a8482611412565b90503d8083833e61149c818361024d565b81019060208183031261150a5780519067ffffffffffffffff821161150e570181601f8201121561150a578051926114d38461029f565b926114e1604051948561024d565b84845260208584010111611233575061096a92611504916020808501910161071c565b3861147d565b8280fd5b8380fd5b6123a8565b600211156101a757565b359061027c82611517565b600111156101a757565b359061027c8261152c565b9291909261154e8461063a565b9161155c604051938461024d565b829480845260208094019060051b8301928284116101a75780915b84831061158657505050505050565b823567ffffffffffffffff81116101a75786916115a686849386016102f2565b815201920191611577565b9080601f830112156101a75781602061030d93359101611541565b67ffffffffffffffff8116036101a757565b6024359061027c826115cc565b346101a7576003196080368201126101a75760043567ffffffffffffffff918282116101a75760c09082360301126101a75761162561026f565b61163182600401611521565b815261163f60248301611521565b602082015261165060448301611536565b604082015260648201358381116101a75761167190600436918501016102f2565b606082015260848201358381116101a75761169290600436918501016102f2565b608082015260a48201359283116101a7576116b96116d892600461096a95369201016115b1565b60a08201526116c66115de565b6116ce610bfd565b9060643592612e28565b6040516bffffffffffffffffffffffff90911681529081906020820190565b346101a75760003660031901126101a7576020600c54604051908152f35b346101a75760203660031901126101a75761172e611b97565b600435600052600460205260406000206117566001600160a01b036001830154161515612c18565b61175e611b97565b805463ffffffff9081600f5416606403908282116117ab57606492611784921690612029565b0490600d81019081548381039081116117ab57600c92550180549182018092116117ab5755005b611ffd565b60208082528251828201528201516001600160a01b03166040820152604082015167ffffffffffffffff16606082015260608201516117fd610180918260808501526101a084019061073f565b9261186161184b611837611823608085015197601f1998898983030160a08a015261073f565b60a0850151888883030160c089015261073f565b60c0840151878783030160e0880152610771565b60e08301516101009686830301878701526107cd565b9381015161012090818501528101516101409081850152810151906101609182850152015191015290565b346101a75760203660031901126101a7576118a5611d4b565b506118e46040516118b581610215565b600b81527f67657446756e6374696f6e0000000000000000000000000000000000000000006020820152613e6f565b600435600052600460205261096a6040600020600d61190161027e565b918054835261194d67ffffffffffffffff60018301546119366001600160a01b03821660208801906001600160a01b03169052565b60a01c16604085019067ffffffffffffffff169052565b6119596002820161054f565b606084015261196a6003820161054f565b608084015261197b6004820161054f565b60a084015261198c60058201610652565b60c084015261199d600682016106a7565b60e0840152600a810154610100840152600b810154610120840152600c8101546101408401520154610160820152604051918291826117b0565b346101a75760203660031901126101a7577ff310923b17686bb5bfbd2bc7e25960dac092be75769b675fbf4909d7de77916b6020600435611a16611b97565b80600e55604051908152a1005b346101a75760203660031901126101a75767ffffffffffffffff600435611a49816115cc565b16600052600960205261096a611a62604060002061054f565b60405191829160208352602083019061073f565b346101a75760203660031901126101a7576001600160a01b03600435611a9b8161125a565b611aa3611b97565b16338114611af957806001600160a01b03196003541617600355611ad261048f6002546001600160a01b031690565b7fed8889f560326eb138920d842192f0eb3dd22b4f139c87a2c57538e05bae1278600080a3005b606460405162461bcd60e51b815260206004820152601760248201527f43616e6e6f74207472616e7366657220746f2073656c660000000000000000006044820152fd5b346101a75760203660031901126101a75760043560005260046020526040600020611b766001600160a01b036001830154161515612c18565b600b8101600c815492019182549081018091116117ab576000925555600080f35b6001600160a01b03600254163303611bab57565b606460405162461bcd60e51b815260206004820152601660248201527f4f6e6c792063616c6c61626c65206279206f776e6572000000000000000000006044820152fd5b903590601e19813603018212156101a7570180359067ffffffffffffffff82116101a7576020019181360383136101a757565b15611c2957565b606460405162461bcd60e51b815260206004820152601d60248201527f46756e6374696f6e206e616d652063616e6e6f7420626520656d7074790000006044820152fd5b916060816001600160a01b039260209497969760408752816040880152838701376000828287010152601f80199101168401019416910152565b15611cae57565b608460405162461bcd60e51b815260206004820152602b60248201527f46756e6374696f6e206e616d6520616c72656164792065786973747320666f7260448201527f2074686973206f776e65720000000000000000000000000000000000000000006064820152fd5b60405190611d25826101e0565b606060a08360008152600060208201526000604082015282808201528260808201520152565b60405190610180820182811067ffffffffffffffff8211176101fc576040528161016060009182815282602082015282604082015260608082015260606080820152606060a0820152606060c0820152611da3611d18565b60e08201528261010082015282610120820152826101408201520152565b903590601e19813603018212156101a7570180359067ffffffffffffffff82116101a757602001918160051b360383136101a757565b3561030d816115cc565b60405190611e0e82610215565b601e82527f7573696e67206578697374696e6720737562736372697074696f6e20256400006020830152565b60405190611e4782610215565b601982527f6372656174696e67206e657720737562736372697074696f6e000000000000006020830152565b3561030d81611517565b3561030d8161152c565b15611e8e57565b606460405162461bcd60e51b815260206004820152601760248201527f46756e6374696f6e20616c7265616479206578697374730000000000000000006044820152fd5b818110611edd575050565b60008155600101611ed2565b9190601f8111611ef857505050565b61027c926000526020600020906020601f840160051c83019310611f24575b601f0160051c0190611ed2565b9091508190611f17565b919091825167ffffffffffffffff81116101fc57611f5681611f508454610515565b84611ee9565b602080601f8311600114611f92575081929394600092611f87575b50508160011b916000199060031b1c1916179055565b015190503880611f71565b90601f19831695611fa885600052602060002090565b926000905b888210611fe557505083600195969710611fcc575b505050811b019055565b015160001960f88460031b161c19169055388080611fc2565b80600185968294968601518155019501930190611fad565b634e487b7160e01b600052601160045260246000fd5b908160011b91808304600214901517156117ab57565b818102929181159184041417156117ab57565b8151916801000000000000000083116101fc57815483835580841061209f575b50612071602080920192600052602060002090565b6000925b848410612083575050505050565b6001838261209383945186611f2e565b01920193019290612075565b6000838152846020822092830192015b8281106120bd57505061205c565b806120ca60019254610515565b806120d7575b50016120af565b601f9081811184146120ef5750508281555b386120d0565b836121119261210385600052602060002090565b920160051c82019101611ed2565b600081815260208120818355556120e9565b9060018110156106135762ff000082549160101b169062ff00001916179055565b81519160028310156106135760ff82549316908160ff19851617835560208101519061216f82610609565b60028210156106135761027c9460039361ff0060a09460081b169161ffff1916171784556121aa60408201516121a481610624565b85612123565b6121bb606082015160018601611f2e565b6121cc608082015160028601611f2e565b0151910161203c565b90610160600d918051845561226c6001850161221a6121fe60208501516001600160a01b031690565b82906001600160a01b03166001600160a01b0319825416179055565b604083015181547fffffffff0000000000000000ffffffffffffffffffffffffffffffffffffffff1660a09190911b7bffffffffffffffff000000000000000000000000000000000000000016179055565b61227d606082015160028601611f2e565b61228e608082015160038601611f2e565b61229f60a082015160048601611f2e565b6122b060c08201516005860161203c565b6122c160e082015160068601612144565b610100810151600a850155610120810151600b850155610140810151600c8501550151910155565b156122f057565b606460405162461bcd60e51b815260206004820152601f60248201527f4d696e696d756d206465706f73697420616d6f756e74206e6f742073656e74006044820152fd5b6040519061234182610231565b603b82527f2073656e64657220616e642025732061732074782e6f726967696e00000000006040837f6372656174696e6720737562736372697074696f6e207769746820257320617360208201520152565b908160209103126101a7575161030d816115cc565b6040513d6000823e3d90fd5b908160209103126101a7575161030d81610c10565b61030d93926001600160a01b036060931682526020820152816040820152019061073f565b6123fc600e543410156122e9565b61240e3233612409612334565b613fdf565b61242361048f600b546001600160a01b031690565b604051907fa21a23e40000000000000000000000000000000000000000000000000000000082526020908183600481600080955af1928315611512578193612608575b5061247c61048f600b546001600160a01b031690565b90813b15611233576040517f7341c10c00000000000000000000000000000000000000000000000000000000815267ffffffffffffffff851660048201523060248201529181908390604490829084905af1908115611512576125b29284926125ef575b5061251e336125038767ffffffffffffffff166000526006602052604060002090565b906001600160a01b03166001600160a01b0319825416179055565b61253361048f600a546001600160a01b031690565b61254861048f600b546001600160a01b031690565b6040519261257b8461256d8a88830191909167ffffffffffffffff6020820193169052565b03601f19810186528561024d565b6040518096819582947f4000aea00000000000000000000000000000000000000000000000000000000084523490600485016123c9565b03925af18015611512576125c557505090565b816125e492903d106125e8575b6125dc818361024d565b8101906123b4565b5090565b503d6125d2565b806125fc61260292610201565b8061019c565b386124e0565b612629919350823d8411612630575b612621818361024d565b810190612393565b9138612466565b503d612617565b6040519061264482610231565b602682527f696f6e49643a00000000000000000000000000000000000000000000000000006040837f65786563757465526571756573742063616c6c656420776974682066756e637460208201520152565b1561269d57565b606460405162461bcd60e51b815260206004820152601a60248201527f66756e6374696f6e206973206e6f7420726567697374657265640000000000006044820152fd5b604051906126ee82610215565b601b82527f636f6c6c656374696e6720616e64206c6f636b696e67206665657300000000006020830152565b6040519061272782610215565b600d82527f7265717565737449642069733a000000000000000000000000000000000000006020830152565b1561275a57565b606460405162461bcd60e51b815260206004820152601960248201527f5265717565737420494420616c726561647920657869737473000000000000006044820152fd5b604051906127ab82610215565b601d82527f656d697474696e672046756e6374696f6e43616c6c6564206576656e740000006020830152565b908160209103126101a7575190565b604051906127f382610215565b601982527f73656e646572202573204c494e4b2062616c616e6365202564000000000000006020830152565b90602082018092116117ab57565b919082018092116117ab57565b1561284157565b608460405162461bcd60e51b815260206004820152603160248201527f596f7520646f206e6f74206861766520656e6f756768204c494e4b20746f206360448201527f616c6c20746869732066756e6374696f6e0000000000000000000000000000006064820152fd5b156128b257565b608460405162461bcd60e51b815260206004820152602260248201527f4661696c656420746f20636f6c6c65637420666565732066726f6d2063616c6c60448201527f65720000000000000000000000000000000000000000000000000000000000006064820152fd5b6040519061292982610231565b603d82527f7074696f6e20706f6f6c2c20746f74616c20696e20706f6f6c3a2025640000006040837f61646465642062617365466565202564204c494e4b20746f207375627363726960208201520152565b604051906080820182811067ffffffffffffffff8211176101fc57604052605182527f6f74616c20696e20706f6f6c3a202564200000000000000000000000000000006060837f746f6f6b2025642066726f6d20666565206f66202564204c494e4b20616e642060208201527f616464656420746f206665654d616e6167657250726f666974506f6f6c2c207460408201520152565b612a2661048f600a546001600160a01b031690565b6040517f70a08231000000000000000000000000000000000000000000000000000000008082523360048301529192916020918281602481885afa801561151257612a8291600091612bfb575b5033612a7d6127e6565b613f74565b6040519081523360048201528181602481875afa908115611512576000948392612b11928791612bce575b50612ac8600d5491612ac18854809461282d565b111561283a565b6040517f23b872dd000000000000000000000000000000000000000000000000000000008152336004820152306024820152604481019190915295869283919082906064820190565b03925af180156115125761027c93612b3292600092612bb1575b50506128ab565b612b5a600b8201612b478154600d549061282d565b809155600d54612b5561291c565b613f12565b612b8a612b838254612b7d612b74600f5463ffffffff1690565b63ffffffff1690565b90612029565b6064900490565b90612b9f612b9a83600c5461282d565b600c55565b54600c5491612bac61297b565b61404d565b612bc79250803d106125e8576125dc818361024d565b3880612b2b565b612bee9150843d8611612bf4575b612be6818361024d565b8101906127d7565b38612aad565b503d612bdc565b612c129150843d8611612bf457612be6818361024d565b38612a73565b15612c1f57565b606460405162461bcd60e51b815260206004820152601760248201527f46756e6374696f6e20646f6573206e6f742065786973740000000000000000006044820152fd5b612c6b611b97565b805463ffffffff9081600f5416606403908282116117ab57606492612c91921690612029565b0490600d81019081548381039081116117ab57600c92550180549182018092116117ab5755565b601f198101919082116117ab57565b15612cce57565b606460405162461bcd60e51b815260206004820152601260248201527f496e76616c6964207265717565737420494400000000000000000000000000006044820152fd5b9261030d94926001600160a01b03612d449316855260208501526000604085015260a0606085015260a084019061073f565b91608081840391015261073f565b9091612d6961030d9360408452604084019061073f565b91602081840391015261073f565b90835115612d9c57606092612d8f612d989284610618565b6040830161062e565b0152565b60046040517f22ce3edd000000000000000000000000000000000000000000000000000000008152fd5b815115612dda576001602082015260800152565b60046040517fe889636f000000000000000000000000000000000000000000000000000000008152fd5b908160209103126101a757516bffffffffffffffffffffffff811681036101a75790565b67ffffffffffffffff612e989492602094612e4e6001600160a01b0360005416946130ab565b9463ffffffff604051988997889687967fd227d24500000000000000000000000000000000000000000000000000000000885216600487015260806024870152608486019061073f565b92166044840152606483015203915afa90811561151257600091612eba575090565b61030d915060203d8111612edb575b612ed3818361024d565b810190612e04565b503d612ec9565b60405190612eef82610215565b6000602083606081520152565b60405190612f0982610215565b6000602083612f16612ee2565b81520152565b60405190612f2982610215565b600c82527f636f64654c6f636174696f6e00000000000000000000000000000000000000006020830152565b60405190612f6282610215565b600882527f6c616e67756167650000000000000000000000000000000000000000000000006020830152565b60405190612f9b82610215565b600682527f736f7572636500000000000000000000000000000000000000000000000000006020830152565b60405190612fd482610215565b600482527f61726773000000000000000000000000000000000000000000000000000000006020830152565b60001981146117ab5760010190565b80518210156130235760209160051b010190565b634e487b7160e01b600052603260045260246000fd5b6040519061304682610215565b600f82527f736563726574734c6f636174696f6e00000000000000000000000000000000006020830152565b6040519061307f82610215565b600782527f73656372657473000000000000000000000000000000000000000000000000006020830152565b6130b3612efc565b906130be82516133dd565b506130d06130ca612f1c565b83613ad3565b6130ed81516130de81610609565b6130e781610609565b8361345c565b6130f86130ca612f55565b613112604082015161310981610624565b6130e781610624565b61311d6130ca612f8e565b61312b606082015183613ad3565b60a081018051516131e3575b50608081019081515161314c575b5050515190565b60200190815161315b81610609565b61316481610609565b156131b95761319a6131b29261318161317b613039565b86613ad3565b5161318b81610609565b61319481610609565b8461345c565b6131ab6131a5613072565b84613ad3565b5182613a1d565b3880613145565b60046040517fa80d31f7000000000000000000000000000000000000000000000000000000008152fd5b926131ef6131a5612fc7565b6131f883613b58565b60005b84518051821015613228579061321e613217826132239461300f565b5186613ad3565b613000565b6131fb565b5050925061323582613be4565b38613137565b9161326863ffffffff9167ffffffffffffffff60409497969716855260606020860152606085019061073f565b9416910152565b908160209103126101a7575161030d8161125a565b6132e6929160009384926132ab6132a561048f86546001600160a01b031690565b916130ab565b946040519687809481937f28242b040000000000000000000000000000000000000000000000000000000083526020998a986004850161323b565b03925af19283156115125781936133bb575b50808261331161048f600494546001600160a01b031690565b604051938480927f5ab1bd530000000000000000000000000000000000000000000000000000000082525afa9283156115125784937f1131472297a800fee664d1d89cfa8f7676ff07189ecc53f80bbb5f4969099db89361338992849261338e575b5050612503856000526001602052604060002090565b80a290565b6133ad9250803d106133b4575b6133a5818361024d565b81019061326f565b3880613373565b503d61339b565b60049193506133d690833d8511612bf457612be6818361024d565b92906132f8565b6133e5612ee2565b5061010060208201526040518082526000815261012081019081106101a75760405290565b90613413612ee2565b50601f811680613442575b50806020830152604051908183526000825281016020019081106101a75760405290565b602003602081116117ab5781018091116117ab573861341e565b90815191613468612ee2565b5082515160018101908181116117ab5760208501518110156134c1575b60c2602061027c96519283010153805182116134b9575b5050604051916020830152602082526134b482610215565b613a1d565b52388061349c565b8160011b94828604600214831517156117ab576020816134f361027c986134ec60c29551918461340a565b5082613965565b5096505050613485565b613505612ee2565b5080515160018101908181116117ab57602083015181101561353e575b605b6020845192830101538051821161353a57505090565b5290565b8160011b828104600214831517156117ab57613567906135608551918661340a565b5084613965565b50613522565b613575612ee2565b5080515160018101908181116117ab5760208301518110156135aa575b605a6020845192830101538051821161353a57505090565b8160011b828104600214831517156117ab576135cc906135608551918661340a565b50613592565b6135da612ee2565b5080515160018101908181116117ab57602083015181101561360f575b60596020845192830101538051821161353a57505090565b8160011b828104600214831517156117ab57613631906135608551918661340a565b506135f7565b61363f612ee2565b5080515160018101908181116117ab576020830151811015613674575b60586020845192830101538051821161353a57505090565b8160011b828104600214831517156117ab57613696906135608551918661340a565b5061365c565b6136a4612ee2565b5080515160018101908181116117ab5760208301518110156136d9575b607b6020845192830101538051821161353a57505090565b8160011b828104600214831517156117ab576136fb906135608551918661340a565b506136c1565b613709612ee2565b5080515160018101908181116117ab57602083015181101561373e575b607a6020845192830101538051821161353a57505090565b8160011b828104600214831517156117ab57613760906135608551918661340a565b50613726565b61376e612ee2565b5080515160018101908181116117ab5760208301518110156137a3575b60796020845192830101538051821161353a57505090565b8160011b828104600214831517156117ab576137c5906135608551918661340a565b5061378b565b6137d3612ee2565b5080515160018101908181116117ab576020830151811015613808575b60786020845192830101538051821161353a57505090565b8160011b828104600214831517156117ab5761382a906135608551918661340a565b506137f0565b90613839612ee2565b5081515160018101918282116117ab57602084015182101561386c575b6020845192830101538051821161353a57505090565b8260011b838104600214841517156117ab576138959061388e8651918761340a565b5085613965565b50613856565b906138a88251918361340a565b506138b1612ee2565b508051906138bd612ee2565b506138cb8151831115613a16565b825151926138d9838561282d565b91602092828480940151821161394e575b5183815197820101968211613946575b505001915b818110156139205760001991036101000a0190811990511690825116179052565b919261393b613935613941928651815261281f565b9461281f565b92612cb8565b6138ff565b5238806138fa565b61396061395a83612013565b8261389b565b6138ea565b9061396e612ee2565b508051613979612ee2565b506139878251821115613a16565b82515191613995828461282d565b60209182918287015181116139ff575b8651838151978201019682116139f7575b505001915b818110156139dd5760001991036101000a019081199051169082511617905290565b919261393b6139356139f2928651815261281f565b6139bb565b5238806139b6565b613a11613a0b82612013565b8861389b565b6139a5565b156101a757565b8151613a5592919067ffffffffffffffff81169060178211613a5857613a4d9150604060ff845192161790613830565b505b51613965565b50565b5060ff8111613a7d57613a7790613a6f8351613637565b508251613dae565b50613a4f565b61ffff8111613a9c57613a7790613a9483516135d2565b508251613d47565b63ffffffff8111613abd57613a7790613ab5835161356d565b508251613cde565b613a7790613acb83516134fd565b508251613c71565b8151613a5592919067ffffffffffffffff81169060178211613b0357613a4d9150606060ff845192161790613830565b5060ff8111613b1a57613a7790613a6f83516137cb565b61ffff8111613b3157613a7790613a948351613766565b63ffffffff8111613b4a57613a7790613ab58351613701565b613a7790613acb835161369c565b805190613b63612ee2565b5081515160018101908181116117ab576020840151811015613bb1575b609f6020809551928301015380518211613ba9575b505001805190600182018092116117ab5752565b523880613b95565b8160011b93828504600214831517156117ab57602081613bda82976134ec609f9551918461340a565b5095505050613b80565b805190613bef612ee2565b5081515160018101908181116117ab576020840151811015613c3e575b60ff6020809551928301015380518211613c36575b50500180516000198101919082116117ab5752565b523880613c21565b8160011b93828504600214831517156117ab57602081613c6782976134ec60ff9551918461340a565b5095505050613c0c565b90613c7a612ee2565b508151518060080191826008116117ab5760208401518311613cbd575b60088451928301019067ffffffffffffffff198251161790528051821161353a57505090565b8260011b838104600214841517156117ab57613cd9908561389b565b613c97565b90613ce7612ee2565b508151518060040191826004116117ab5760208401518311613d26575b60048451928301019063ffffffff198251161790528051821161353a57505090565b8260011b838104600214841517156117ab57613d42908561389b565b613d04565b90613d50612ee2565b508151518060020191826002116117ab5760208401518311613d8d575b60028451928301019061ffff198251161790528051821161353a57505090565b8260011b838104600214841517156117ab57613da9908561389b565b613d6d565b90613db7612ee2565b508151518060010191826001116117ab5760208401518311613df3575b60018451928301019060ff198251161790528051821161353a57505090565b8260011b838104600214841517156117ab57613e0f908561389b565b613dd4565b61027c90604051907f27b7cf85000000000000000000000000000000000000000000000000000000006020830152602482015260248152613e5481610231565b600080916020815191016a636f6e736f6c652e6c6f675afa50565b610cf7613e5461027c926040519283917f41304fac00000000000000000000000000000000000000000000000000000000602084015260206024840152604483019061073f565b613e54613efe9161027c936040519384927fb60e72cc00000000000000000000000000000000000000000000000000000000602085015260406024850152606484019061073f565b90604483015203601f19810183528261024d565b613e5490613f5b9261027c946040519485937fca47c4eb00000000000000000000000000000000000000000000000000000000602086015260606024860152608485019061073f565b916044840152606483015203601f19810183528261024d565b613e5490613fc59261027c946001600160a01b036040519586947f0d26b92500000000000000000000000000000000000000000000000000000000602087015260606024870152608486019061073f565b92166044840152606483015203601f19810183528261024d565b613e549061027c93614028936040519485937ffcec75e000000000000000000000000000000000000000000000000000000000602086015260606024860152608485019061073f565b6001600160a01b0391821660448501529116606483015203601f19810183528261024d565b613e549161027c94614096946040519586947fa7a878530000000000000000000000000000000000000000000000000000000060208701526080602487015260a486019061073f565b9260448501526064840152608483015203601f19810183528261024d56fea26469706673582212207440beec250830be043454a0264d55ee386e995a5ca5491439132a04be32607a64736f6c63430008120033",
  "linkReferences": {},
  "deployedLinkReferences": {}
}