{
  "_format": "hh-sol-artifact-1",
  "contractName": "FunctionsManager",
  "sourceName": "contracts/FunctionsManager.sol",
  "abi": [
    {
      "inputs": [
        {
          "internalType": "address",
          "name": "link",
          "type": "address"
        },
        {
          "internalType": "address",
          "name": "billingRegistryProxy",
          "type": "address"
        },
        {
          "internalType": "address",
          "name": "oracleProxy",
          "type": "address"
        },
        {
          "internalType": "uint96",
          "name": "_baseFee",
          "type": "uint96"
        },
        {
          "internalType": "uint32",
          "name": "_feeManagerCut",
          "type": "uint32"
        },
        {
          "internalType": "uint96",
          "name": "_minimumSubscriptionBalance",
          "type": "uint96"
        }
      ],
      "stateMutability": "nonpayable",
      "type": "constructor"
    },
    {
      "inputs": [],
      "name": "EmptyArgs",
      "type": "error"
    },
    {
      "inputs": [],
      "name": "EmptySecrets",
      "type": "error"
    },
    {
      "inputs": [],
      "name": "EmptySource",
      "type": "error"
    },
    {
      "inputs": [],
      "name": "NoInlineSecrets",
      "type": "error"
    },
    {
      "inputs": [],
      "name": "RequestIsAlreadyPending",
      "type": "error"
    },
    {
      "inputs": [],
      "name": "RequestIsNotPending",
      "type": "error"
    },
    {
      "inputs": [],
      "name": "SenderIsNotRegistry",
      "type": "error"
    },
    {
      "anonymous": false,
      "inputs": [
        {
          "indexed": false,
          "internalType": "uint256",
          "name": "newBaseFee",
          "type": "uint256"
        }
      ],
      "name": "BaseFeeUpdated",
      "type": "event"
    },
    {
      "anonymous": false,
      "inputs": [
        {
          "indexed": false,
          "internalType": "uint256",
          "name": "newFeeManagerCut",
          "type": "uint256"
        }
      ],
      "name": "FeeManagerCutUpdated",
      "type": "event"
    },
    {
      "anonymous": false,
      "inputs": [
        {
          "indexed": false,
          "internalType": "bytes32",
          "name": "requestId",
          "type": "bytes32"
        },
        {
          "indexed": false,
          "internalType": "bytes",
          "name": "response",
          "type": "bytes"
        },
        {
          "indexed": false,
          "internalType": "bytes",
          "name": "err",
          "type": "bytes"
        }
      ],
      "name": "FulfillRequest",
      "type": "event"
    },
    {
      "anonymous": false,
      "inputs": [
        {
          "indexed": true,
          "internalType": "bytes32",
          "name": "functionId",
          "type": "bytes32"
        },
        {
          "indexed": true,
          "internalType": "bytes32",
          "name": "requestId",
          "type": "bytes32"
        },
        {
          "indexed": true,
          "internalType": "address",
          "name": "caller",
          "type": "address"
        },
        {
          "indexed": false,
          "internalType": "address",
          "name": "owner",
          "type": "address"
        },
        {
          "indexed": false,
          "internalType": "bytes32",
          "name": "callbackFunction",
          "type": "bytes32"
        },
        {
          "indexed": false,
          "internalType": "uint256",
          "name": "usedGas",
          "type": "uint256"
        },
        {
          "indexed": false,
          "internalType": "bytes",
          "name": "response",
          "type": "bytes"
        },
        {
          "indexed": false,
          "internalType": "bytes",
          "name": "err",
          "type": "bytes"
        }
      ],
      "name": "FunctionCallCompleted",
      "type": "event"
    },
    {
      "anonymous": false,
      "inputs": [
        {
          "indexed": true,
          "internalType": "bytes32",
          "name": "functionId",
          "type": "bytes32"
        },
        {
          "indexed": true,
          "internalType": "bytes32",
          "name": "requestId",
          "type": "bytes32"
        },
        {
          "indexed": true,
          "internalType": "address",
          "name": "caller",
          "type": "address"
        },
        {
          "indexed": false,
          "internalType": "address",
          "name": "owner",
          "type": "address"
        },
        {
          "indexed": false,
          "internalType": "bytes32",
          "name": "callbackFunction",
          "type": "bytes32"
        },
        {
          "indexed": false,
          "internalType": "uint256",
          "name": "gasDeposit",
          "type": "uint256"
        },
        {
          "indexed": false,
          "internalType": "uint96",
          "name": "baseFee",
          "type": "uint96"
        },
        {
          "indexed": false,
          "internalType": "uint96",
          "name": "fee",
          "type": "uint96"
        }
      ],
      "name": "FunctionCalled",
      "type": "event"
    },
    {
      "anonymous": false,
      "inputs": [
        {
          "indexed": true,
          "internalType": "bytes32",
          "name": "functionId",
          "type": "bytes32"
        },
        {
          "indexed": true,
          "internalType": "address",
          "name": "owner",
          "type": "address"
        },
        {
          "indexed": true,
          "internalType": "bytes32",
          "name": "category",
          "type": "bytes32"
        },
        {
          "components": [
            {
              "internalType": "address",
              "name": "owner",
              "type": "address"
            },
            {
              "internalType": "string",
              "name": "name",
              "type": "string"
            },
            {
              "internalType": "string",
              "name": "desc",
              "type": "string"
            },
            {
              "internalType": "string",
              "name": "imageUrl",
              "type": "string"
            },
            {
              "internalType": "string[]",
              "name": "expectedArgs",
              "type": "string[]"
            },
            {
              "internalType": "bytes32",
              "name": "category",
              "type": "bytes32"
            }
          ],
          "indexed": false,
          "internalType": "struct FunctionsManager.FunctionMetadata",
          "name": "metadata",
          "type": "tuple"
        }
      ],
      "name": "FunctionRegistered",
      "type": "event"
    },
    {
      "anonymous": false,
      "inputs": [
        {
          "indexed": false,
          "internalType": "uint256",
          "name": "newMinimumDeposit",
          "type": "uint256"
        }
      ],
      "name": "MinimumSubscriptionBalanceUpdated",
      "type": "event"
    },
    {
      "anonymous": false,
      "inputs": [
        {
          "indexed": true,
          "internalType": "bytes32",
          "name": "requestId",
          "type": "bytes32"
        },
        {
          "indexed": false,
          "internalType": "bytes",
          "name": "result",
          "type": "bytes"
        },
        {
          "indexed": false,
          "internalType": "bytes",
          "name": "err",
          "type": "bytes"
        }
      ],
      "name": "OCRResponse",
      "type": "event"
    },
    {
      "anonymous": false,
      "inputs": [
        {
          "indexed": true,
          "internalType": "address",
          "name": "from",
          "type": "address"
        },
        {
          "indexed": true,
          "internalType": "address",
          "name": "to",
          "type": "address"
        }
      ],
      "name": "OwnershipTransferRequested",
      "type": "event"
    },
    {
      "anonymous": false,
      "inputs": [
        {
          "indexed": true,
          "internalType": "address",
          "name": "from",
          "type": "address"
        },
        {
          "indexed": true,
          "internalType": "address",
          "name": "to",
          "type": "address"
        }
      ],
      "name": "OwnershipTransferred",
      "type": "event"
    },
    {
      "anonymous": false,
      "inputs": [
        {
          "indexed": true,
          "internalType": "bytes32",
          "name": "id",
          "type": "bytes32"
        }
      ],
      "name": "RequestFulfilled",
      "type": "event"
    },
    {
      "anonymous": false,
      "inputs": [
        {
          "indexed": true,
          "internalType": "bytes32",
          "name": "id",
          "type": "bytes32"
        }
      ],
      "name": "RequestSent",
      "type": "event"
    },
    {
      "inputs": [],
      "name": "acceptOwnership",
      "outputs": [],
      "stateMutability": "nonpayable",
      "type": "function"
    },
    {
      "inputs": [
        {
          "internalType": "address",
          "name": "_spender",
          "type": "address"
        },
        {
          "internalType": "uint256",
          "name": "_value",
          "type": "uint256"
        }
      ],
      "name": "approveTokenSpender",
      "outputs": [],
      "stateMutability": "nonpayable",
      "type": "function"
    },
    {
      "inputs": [
        {
          "internalType": "address",
          "name": "",
          "type": "address"
        }
      ],
      "name": "authorMetadata",
      "outputs": [
        {
          "internalType": "string",
          "name": "name",
          "type": "string"
        },
        {
          "internalType": "string",
          "name": "imageUrl",
          "type": "string"
        },
        {
          "internalType": "string",
          "name": "websiteUrl",
          "type": "string"
        }
      ],
      "stateMutability": "view",
      "type": "function"
    },
    {
      "inputs": [],
      "name": "baseFee",
      "outputs": [
        {
          "internalType": "uint96",
          "name": "",
          "type": "uint96"
        }
      ],
      "stateMutability": "view",
      "type": "function"
    },
    {
      "inputs": [
        {
          "internalType": "string",
          "name": "functionName",
          "type": "string"
        },
        {
          "internalType": "address",
          "name": "owner",
          "type": "address"
        }
      ],
      "name": "calculateFunctionId",
      "outputs": [
        {
          "internalType": "bytes32",
          "name": "",
          "type": "bytes32"
        }
      ],
      "stateMutability": "pure",
      "type": "function"
    },
    {
      "inputs": [
        {
          "components": [
            {
              "internalType": "uint96",
              "name": "fees",
              "type": "uint96"
            },
            {
              "internalType": "string",
              "name": "functionName",
              "type": "string"
            },
            {
              "internalType": "string",
              "name": "desc",
              "type": "string"
            },
            {
              "internalType": "string",
              "name": "imageUrl",
              "type": "string"
            },
            {
              "internalType": "string",
              "name": "source",
              "type": "string"
            },
            {
              "internalType": "string[]",
              "name": "expectedArgs",
              "type": "string[]"
            },
            {
              "internalType": "enum Functions.Location",
              "name": "codeLocation",
              "type": "uint8"
            },
            {
              "internalType": "enum Functions.Location",
              "name": "secretsLocation",
              "type": "uint8"
            },
            {
              "internalType": "enum Functions.CodeLanguage",
              "name": "language",
              "type": "uint8"
            },
            {
              "internalType": "bytes32",
              "name": "category",
              "type": "bytes32"
            },
            {
              "internalType": "uint64",
              "name": "subId",
              "type": "uint64"
            },
            {
              "internalType": "bytes",
              "name": "secrets",
              "type": "bytes"
            }
          ],
          "internalType": "struct FunctionsManager.FunctionsRegisterRequest",
          "name": "request",
          "type": "tuple"
        },
        {
          "internalType": "address",
          "name": "owner",
          "type": "address"
        }
      ],
      "name": "calculateFunctionIdFromRequest",
      "outputs": [
        {
          "internalType": "bytes32",
          "name": "",
          "type": "bytes32"
        }
      ],
      "stateMutability": "pure",
      "type": "function"
    },
    {
      "inputs": [
        {
          "components": [
            {
              "internalType": "enum Functions.Location",
              "name": "codeLocation",
              "type": "uint8"
            },
            {
              "internalType": "enum Functions.Location",
              "name": "secretsLocation",
              "type": "uint8"
            },
            {
              "internalType": "enum Functions.CodeLanguage",
              "name": "language",
              "type": "uint8"
            },
            {
              "internalType": "string",
              "name": "source",
              "type": "string"
            },
            {
              "internalType": "bytes",
              "name": "secrets",
              "type": "bytes"
            },
            {
              "internalType": "string[]",
              "name": "args",
              "type": "string[]"
            }
          ],
          "internalType": "struct Functions.Request",
          "name": "req",
          "type": "tuple"
        },
        {
          "internalType": "uint64",
          "name": "subscriptionId",
          "type": "uint64"
        },
        {
          "internalType": "uint32",
          "name": "gasLimit",
          "type": "uint32"
        },
        {
          "internalType": "uint256",
          "name": "gasPrice",
          "type": "uint256"
        }
      ],
      "name": "estimateCost",
      "outputs": [
        {
          "internalType": "uint96",
          "name": "",
          "type": "uint96"
        }
      ],
      "stateMutability": "view",
      "type": "function"
    },
    {
      "inputs": [
        {
          "internalType": "bytes32",
          "name": "functionId",
          "type": "bytes32"
        },
        {
          "internalType": "string[]",
          "name": "args",
          "type": "string[]"
        },
        {
          "internalType": "uint32",
          "name": "gasLimit",
          "type": "uint32"
        }
      ],
      "name": "executeRequest",
      "outputs": [
        {
          "internalType": "bytes32",
          "name": "",
          "type": "bytes32"
        }
      ],
      "stateMutability": "nonpayable",
      "type": "function"
    },
    {
      "inputs": [],
      "name": "feeManagerCut",
      "outputs": [
        {
          "internalType": "uint32",
          "name": "",
          "type": "uint32"
        }
      ],
      "stateMutability": "view",
      "type": "function"
    },
    {
      "inputs": [
        {
          "internalType": "bytes32",
          "name": "functionId",
          "type": "bytes32"
        }
      ],
      "name": "forceUnlockFees",
      "outputs": [],
      "stateMutability": "nonpayable",
      "type": "function"
    },
    {
      "inputs": [
        {
          "internalType": "bytes32",
          "name": "",
          "type": "bytes32"
        }
      ],
      "name": "functionExecuteMetadatas",
      "outputs": [
        {
          "internalType": "address",
          "name": "owner",
          "type": "address"
        },
        {
          "internalType": "uint64",
          "name": "subId",
          "type": "uint64"
        },
        {
          "internalType": "uint96",
          "name": "fee",
          "type": "uint96"
        },
        {
          "internalType": "uint96",
          "name": "unlockedProfitPool",
          "type": "uint96"
        },
        {
          "internalType": "uint64",
          "name": "functionsCalledCount",
          "type": "uint64"
        },
        {
          "internalType": "uint96",
          "name": "lockedProfitPool",
          "type": "uint96"
        },
        {
          "internalType": "uint96",
          "name": "totalFeesCollected",
          "type": "uint96"
        },
        {
          "internalType": "uint64",
          "name": "successfulResponseCount",
          "type": "uint64"
        },
        {
          "internalType": "uint64",
          "name": "failedResponseCount",
          "type": "uint64"
        }
      ],
      "stateMutability": "view",
      "type": "function"
    },
    {
      "inputs": [],
      "name": "functionManagerProfitPool",
      "outputs": [
        {
          "internalType": "uint96",
          "name": "",
          "type": "uint96"
        }
      ],
      "stateMutability": "view",
      "type": "function"
    },
    {
      "inputs": [
        {
          "internalType": "bytes32",
          "name": "",
          "type": "bytes32"
        }
      ],
      "name": "functionMetadatas",
      "outputs": [
        {
          "internalType": "address",
          "name": "owner",
          "type": "address"
        },
        {
          "internalType": "string",
          "name": "name",
          "type": "string"
        },
        {
          "internalType": "string",
          "name": "desc",
          "type": "string"
        },
        {
          "internalType": "string",
          "name": "imageUrl",
          "type": "string"
        },
        {
          "internalType": "bytes32",
          "name": "category",
          "type": "bytes32"
        }
      ],
      "stateMutability": "view",
      "type": "function"
    },
    {
      "inputs": [
        {
          "internalType": "bytes32",
          "name": "",
          "type": "bytes32"
        }
      ],
      "name": "functionResponses",
      "outputs": [
        {
          "internalType": "bytes32",
          "name": "functionId",
          "type": "bytes32"
        },
        {
          "internalType": "address",
          "name": "caller",
          "type": "address"
        },
        {
          "internalType": "bytes32",
          "name": "callbackFunction",
          "type": "bytes32"
        },
        {
          "internalType": "bytes",
          "name": "response",
          "type": "bytes"
        },
        {
          "internalType": "bytes",
          "name": "err",
          "type": "bytes"
        }
      ],
      "stateMutability": "view",
      "type": "function"
    },
    {
      "inputs": [],
      "name": "functionsCalledCount",
      "outputs": [
        {
          "internalType": "uint96",
          "name": "",
          "type": "uint96"
        }
      ],
      "stateMutability": "view",
      "type": "function"
    },
    {
      "inputs": [],
      "name": "functionsRegisteredCount",
      "outputs": [
        {
          "internalType": "uint64",
          "name": "",
          "type": "uint64"
        }
      ],
      "stateMutability": "view",
      "type": "function"
    },
    {
      "inputs": [],
      "name": "getDONPublicKey",
      "outputs": [
        {
          "internalType": "bytes",
          "name": "",
          "type": "bytes"
        }
      ],
      "stateMutability": "view",
      "type": "function"
    },
    {
      "inputs": [
        {
          "internalType": "bytes32",
          "name": "_functionId",
          "type": "bytes32"
        }
      ],
      "name": "getFunctionExecuteMetadata",
      "outputs": [
        {
          "components": [
            {
              "internalType": "address",
              "name": "owner",
              "type": "address"
            },
            {
              "internalType": "uint64",
              "name": "subId",
              "type": "uint64"
            },
            {
              "internalType": "uint96",
              "name": "fee",
              "type": "uint96"
            },
            {
              "internalType": "uint96",
              "name": "unlockedProfitPool",
              "type": "uint96"
            },
            {
              "internalType": "uint64",
              "name": "functionsCalledCount",
              "type": "uint64"
            },
            {
              "internalType": "uint96",
              "name": "lockedProfitPool",
              "type": "uint96"
            },
            {
              "internalType": "uint96",
              "name": "totalFeesCollected",
              "type": "uint96"
            },
            {
              "internalType": "uint64",
              "name": "successfulResponseCount",
              "type": "uint64"
            },
            {
              "internalType": "uint64",
              "name": "failedResponseCount",
              "type": "uint64"
            }
          ],
          "internalType": "struct FunctionsManager.FunctionExecuteMetadata",
          "name": "",
          "type": "tuple"
        }
      ],
      "stateMutability": "view",
      "type": "function"
    },
    {
      "inputs": [
        {
          "internalType": "bytes32",
          "name": "_functionId",
          "type": "bytes32"
        }
      ],
      "name": "getFunctionMetadata",
      "outputs": [
        {
          "components": [
            {
              "internalType": "address",
              "name": "owner",
              "type": "address"
            },
            {
              "internalType": "string",
              "name": "name",
              "type": "string"
            },
            {
              "internalType": "string",
              "name": "desc",
              "type": "string"
            },
            {
              "internalType": "string",
              "name": "imageUrl",
              "type": "string"
            },
            {
              "internalType": "string[]",
              "name": "expectedArgs",
              "type": "string[]"
            },
            {
              "internalType": "bytes32",
              "name": "category",
              "type": "bytes32"
            }
          ],
          "internalType": "struct FunctionsManager.FunctionMetadata",
          "name": "",
          "type": "tuple"
        }
      ],
      "stateMutability": "view",
      "type": "function"
    },
    {
      "inputs": [
        {
          "internalType": "bytes32",
          "name": "_requestId",
          "type": "bytes32"
        }
      ],
      "name": "getFunctionResponse",
      "outputs": [
        {
          "components": [
            {
              "internalType": "bytes32",
              "name": "functionId",
              "type": "bytes32"
            },
            {
              "internalType": "address",
              "name": "caller",
              "type": "address"
            },
            {
              "internalType": "bytes32",
              "name": "callbackFunction",
              "type": "bytes32"
            },
            {
              "internalType": "bytes",
              "name": "response",
              "type": "bytes"
            },
            {
              "internalType": "bytes",
              "name": "err",
              "type": "bytes"
            }
          ],
          "internalType": "struct FunctionsManager.FunctionResponse",
          "name": "",
          "type": "tuple"
        }
      ],
      "stateMutability": "view",
      "type": "function"
    },
    {
      "inputs": [
        {
          "internalType": "uint64",
          "name": "_subscriptionId",
          "type": "uint64"
        }
      ],
      "name": "getSubscriptionBalance",
      "outputs": [
        {
          "internalType": "uint256",
          "name": "",
          "type": "uint256"
        }
      ],
      "stateMutability": "view",
      "type": "function"
    },
    {
      "inputs": [
        {
          "internalType": "bytes32",
          "name": "requestId",
          "type": "bytes32"
        },
        {
          "internalType": "bytes",
          "name": "response",
          "type": "bytes"
        },
        {
          "internalType": "bytes",
          "name": "err",
          "type": "bytes"
        }
      ],
      "name": "handleOracleFulfillment",
      "outputs": [],
      "stateMutability": "nonpayable",
      "type": "function"
    },
    {
      "inputs": [],
      "name": "minimumSubscriptionBalance",
      "outputs": [
        {
          "internalType": "uint96",
          "name": "",
          "type": "uint96"
        }
      ],
      "stateMutability": "view",
      "type": "function"
    },
    {
      "inputs": [],
      "name": "owner",
      "outputs": [
        {
          "internalType": "address",
          "name": "",
          "type": "address"
        }
      ],
      "stateMutability": "view",
      "type": "function"
    },
    {
      "inputs": [
        {
          "internalType": "uint64",
          "name": "_subscriptionId",
          "type": "uint64"
        }
      ],
      "name": "refillSubscription",
      "outputs": [],
      "stateMutability": "nonpayable",
      "type": "function"
    },
    {
      "inputs": [
        {
          "components": [
            {
              "internalType": "uint96",
              "name": "fees",
              "type": "uint96"
            },
            {
              "internalType": "string",
              "name": "functionName",
              "type": "string"
            },
            {
              "internalType": "string",
              "name": "desc",
              "type": "string"
            },
            {
              "internalType": "string",
              "name": "imageUrl",
              "type": "string"
            },
            {
              "internalType": "string",
              "name": "source",
              "type": "string"
            },
            {
              "internalType": "string[]",
              "name": "expectedArgs",
              "type": "string[]"
            },
            {
              "internalType": "enum Functions.Location",
              "name": "codeLocation",
              "type": "uint8"
            },
            {
              "internalType": "enum Functions.Location",
              "name": "secretsLocation",
              "type": "uint8"
            },
            {
              "internalType": "enum Functions.CodeLanguage",
              "name": "language",
              "type": "uint8"
            },
            {
              "internalType": "bytes32",
              "name": "category",
              "type": "bytes32"
            },
            {
              "internalType": "uint64",
              "name": "subId",
              "type": "uint64"
            },
            {
              "internalType": "bytes",
              "name": "secrets",
              "type": "bytes"
            }
          ],
          "internalType": "struct FunctionsManager.FunctionsRegisterRequest",
          "name": "request",
          "type": "tuple"
        }
      ],
      "name": "registerFunction",
      "outputs": [
        {
          "internalType": "bytes32",
          "name": "",
          "type": "bytes32"
        }
      ],
      "stateMutability": "payable",
      "type": "function"
    },
    {
      "inputs": [
        {
          "internalType": "uint96",
          "name": "_baseFee",
          "type": "uint96"
        }
      ],
      "name": "setBaseFee",
      "outputs": [],
      "stateMutability": "nonpayable",
      "type": "function"
    },
    {
      "inputs": [
        {
          "internalType": "uint32",
          "name": "_feeManagerCut",
          "type": "uint32"
        }
      ],
      "name": "setFeeManagerCut",
      "outputs": [],
      "stateMutability": "nonpayable",
      "type": "function"
    },
    {
      "inputs": [
        {
          "internalType": "uint96",
          "name": "_minimumSubBalance",
          "type": "uint96"
        }
      ],
      "name": "setMinimumSubscriptionBalance",
      "outputs": [],
      "stateMutability": "nonpayable",
      "type": "function"
    },
    {
      "inputs": [
        {
          "internalType": "uint64",
          "name": "",
          "type": "uint64"
        }
      ],
      "name": "subscriptionBalances",
      "outputs": [
        {
          "internalType": "uint96",
          "name": "",
          "type": "uint96"
        }
      ],
      "stateMutability": "view",
      "type": "function"
    },
    {
      "inputs": [],
      "name": "totalFeesCollected",
      "outputs": [
        {
          "internalType": "uint96",
          "name": "",
          "type": "uint96"
        }
      ],
      "stateMutability": "view",
      "type": "function"
    },
    {
      "inputs": [
        {
          "internalType": "address",
          "name": "to",
          "type": "address"
        }
      ],
      "name": "transferOwnership",
      "outputs": [],
      "stateMutability": "nonpayable",
      "type": "function"
    }
  ],
  "bytecode": "0x608034620001f557601f62005c2b38819003918201601f19168301916001600160401b03831184841017620001fa5780849260c094604052833981010312620001f5576200004d8162000210565b6200005b6020830162000210565b906200006a6040840162000210565b92620000796060820162000225565b60808201519263ffffffff841692838503620001f55760a06200009d910162000225565b600080546001600160a01b039889166001600160a01b03199182168117909255909790969195913315620001b057338860025416176002556064600e5496116200015157816fffffffff000000000000000000000000941688600b541617600b551686600c541617600c5560601b16916c01000000000000000000000000600160e01b03191690600160801b600160e01b039060801b161717600e5560a01b1617600d556040516159f090816200023b8239f35b60405162461bcd60e51b815260206004820152603160248201527f466565206d616e6167657220637574206d757374206265206c6573732074686160448201527006e206f7220657175616c20746f2031303607c1b6064820152608490fd5b60405162461bcd60e51b815260206004820152601860248201527f43616e6e6f7420736574206f776e657220746f207a65726f00000000000000006044820152606490fd5b600080fd5b634e487b7160e01b600052604160045260246000fd5b51906001600160a01b0382168203620001f557565b51906001600160601b0382168203620001f55756fe6080604052600436101561001257600080fd5b60003560e01c80630ca76175146102175780631ac67b3414610212578063228764b21461020d578063257912f3146102085780634351077d14610203578063475a8b46146101fe5780634e011def146101f957806356fa1a2a146101f457806360c6d8ae146101ef5780636ef25c3a146101ea5780637587b1b2146101e557806379ba5097146101e05780637b0caaa2146101db5780637bcb334d146101d65780638913aa6d146101d15780638a328420146101cc5780638da5cb5b146101c7578063a1901523146101c2578063a36df5c2146101bd578063b6db95e0146101b8578063ba9c513f146101b3578063bdf47104146101ae578063be4f00cd146101a9578063d328a91e146101a4578063d4b391751461019f578063d5549c8a1461019a578063d7e6a96b14610195578063de76f05314610190578063e58e36501461018b578063f2fde38b14610186578063f3ba47eb146101815763f8454cd81461017c57600080fd5b612156565b61207c565b611fb5565b611a62565b61194e565b6118eb565b6118c4565b6117be565b6116d0565b611619565b6115f9565b611560565b6113ec565b611299565b61126f565b611248565b6111cf565b611124565b6110bf565b611085565b610fbb565b610f74565b610f21565b610f00565b610e8e565b610dce565b610c9f565b610bbb565b610b3e565b610a84565b610912565b61039b565b634e487b7160e01b600052604160045260246000fd5b60c081019081106001600160401b0382111761024d57604052565b61021c565b60a081019081106001600160401b0382111761024d57604052565b6001600160401b03811161024d57604052565b604081019081106001600160401b0382111761024d57604052565b606081019081106001600160401b0382111761024d57604052565b90601f801991011681019081106001600160401b0382111761024d57604052565b6040519061018082018281106001600160401b0382111761024d57604052565b6040519061030482610232565b565b6040519061012082018281106001600160401b0382111761024d57604052565b6001600160401b03811161024d57601f01601f191660200190565b92919261034d82610326565b9161035b60405193846102b6565b829481845281830111610378578281602093846000960137010152565b600080fd5b9080601f830112156103785781602061039893359101610341565b90565b34610378576060366003190112610378576001600160401b03600435602435828111610378576103cf90369060040161037d565b91604435908111610378576103e890369060040161037d565b916103f96103f461497d565b61576a565b61040a336104056149b6565b61580d565b6001600160a01b0392610440338561043961042d600c546001600160a01b031690565b6001600160a01b031690565b1614614a15565b6104738461046b600161045d876000526006602052604060002090565b01546001600160a01b031690565b161515614a86565b6104b86104b161042d6104a4610493876000526006602052604060002090565b546000526005602052604060002090565b546001600160a01b031690565b1515614af7565b6104c433610405614b68565b6104e06104db846000526006602052604060002090565b6141ea565b9382606086015281608086015261050a85610505866000526006602052604060002090565b613927565b61052761052286516000526005602052604060002090565b613411565b6105326103f4614bc7565b61062661060561058f61057f61055260408601516001600160601b031690565b61057961057061056b600e5463ffffffff9060601c1690565b614c00565b63ffffffff1690565b90613662565b6001600160601b03606491160490565b6105bd60a085016105b0836105ab83516001600160601b031690565b613845565b6001600160601b03169052565b6105de606085016105b0836105d983516001600160601b031690565b613647565b6105fa60c085016105b0836105d983516001600160601b031690565b600f5460a01c613647565b6001600160a01b036001600160a01b0319600f549260a01b16911617600f55565b82516107cb5761065960e0820161064c61064782516001600160401b031690565b612e4a565b6001600160401b03169052565b6106778161067288516000526005602052604060002090565b612b8f565b6106826103f4614c15565b6106df61069a61042d600c546001600160a01b031690565b93600060208401956106b387516001600160401b031690565b90604051808096819463523e3b4b60e11b8352600483019190916001600160401b036020820193169052565b03915afa9485156107c6577f6968e95d7bc2605bb814d168859020d6e2f617bc615d1ae5aef0ce68af0d163195610780936000916107a3575b506001600160601b0361073c610730600d5460a01c90565b6001600160601b031690565b911610610785575b50875195604061076f61076160208c01516001600160a01b031690565b95516001600160a01b031690565b990151604051958695169985614c74565b0390a4005b5161079d906001600160401b031661407d565b61407d565b38610744565b6107be913d8091833e6107b681836102b6565b810190612562565b505038610718565b612604565b6107e7610100820161064c61064782516001600160401b031690565b610659565b90600182811c9216801561081c575b602083101461080657565b634e487b7160e01b600052602260045260246000fd5b91607f16916107fb565b906040519182600082549261083a846107ec565b9081845260019485811690816000146108a75750600114610864575b5050610304925003836102b6565b9093915060005260209081600020936000915b81831061088f57505061030493508201013880610856565b85548884018501529485019487945091830191610877565b91505061030494506020925060ff191682840152151560051b8201013880610856565b60005b8381106108dd5750506000910152565b81810151838201526020016108cd565b90602091610906815180928185528580860191016108ca565b601f01601f1916010190565b3461037857602036600319011261037857600435600052600460205260406000206001600160a01b0381541661094a60018301610826565b916109a861095a60028301610826565b9161099a600561096c60038401610826565b9201549361098c604051978897885260a0602089015260a08801906108ed565b9086820360408801526108ed565b9084820360608601526108ed565b9060808301520390f35b6020918282526001600160a01b03815116838301526109df8382015160c0604085015260e08401906108ed565b610a126109fe604084015192601f1993848783030160608801526108ed565b6060840151838683030160808701526108ed565b608083015194828583030160a086015285519182815281810182808560051b8401019801946000925b858410610a56575050505050505060a060c091015191015290565b909192939495988580610a73838686600196030188528d516108ed565b9b0194019401929594939190610a3b565b3461037857602036600319011261037857610a9d61243a565b50610aa96103f46141b1565b6004356000526004602052610b2f6040600020600560405191610acb83610232565b6001600160a01b038154168352610ae460018201610826565b6020840152610af560028201610826565b6040840152610b0660038201610826565b6060840152610b1760048201613544565b6080840152015460a0820152604051918291826109b2565b0390f35b600091031261037857565b34610378576000366003190112610378576020600d5460a01c604051908152f35b906103989160208152815160208201526001600160a01b036020830151166040820152604082015160608201526080610ba6606084015160a08385015260c08401906108ed565b9201519060a0601f19828503019101526108ed565b3461037857602036600319011261037857610bd46138fa565b50610c13604051610be481610280565b601381527f67657446756e6374696f6e526573706f6e736500000000000000000000000000602082015261576a565b6004356000526006602052610b2f6040600020610c70600460405192610c3884610252565b805484526001600160a01b03600182015416602085015260028101546040850152610c6560038201610826565b606085015201610826565b608082015260405191829182610b5f565b6001600160a01b0381160361037857565b6024359061030482610c81565b3461037857604036600319011261037857610d956020600435610cc181610c81565b60243590610ccd612277565b610d328282604051610cde8161029b565b603a81527f617070726f76696e672025732061732061207370656e646572206f66204c494e878201527f4b207769746820612076616c7565206f6620757020746f202564000000000000604082015261594f565b610d4761042d600b546001600160a01b031690565b9060006040518096819582947f095ea7b300000000000000000000000000000000000000000000000000000000845260048401602090939291936001600160a01b0360408201951681520152565b03925af180156107c657610da557005b610dc59060203d8111610dc7575b610dbd81836102b6565b810190612f22565b005b503d610db3565b3461037857602036600319011261037857600435600052600560205260406000208054610b2f6001830154610e12600360028601549501546001600160401b031690565b604080516001600160a01b03861681526001600160401b0360a096871c811660208301526001600160601b0385811693830193909352606085811c84168184015260c095861c6080840152888416978301979097529587901c909116838201529490911c60e08501529091166101008301528190610120820190565b34610378576040366003190112610378576004356001600160401b03808211610378573660238301121561037857816004013590811161037857366024828401011161037857610b2f91610ef0916024803592610eea84610c81565b01614238565b6040519081529081906020820190565b34610378576000366003190112610378576020600f5460a01c604051908152f35b346103785760003660031901126103785760206001600160601b03600e5460801c16604051908152f35b6001600160401b0381160361037857565b6024359061030482610f4b565b359061030482610f4b565b34610378576020366003190112610378576001600160401b03600435610f9981610f4b565b16600052600a60205260206001600160601b0360406000205416604051908152f35b3461037857600080600319360112611082576001600160a01b038060035416330361103e576002546001600160a01b0316600280546001600160a01b03191633179055906110146001600160a01b031960035416600355565b3391167f8be0079c531659141344cd1fd0a4f28419497f9722a3daafe3b4186f6b6457e08380a380f35b606460405162461bcd60e51b815260206004820152601660248201527f4d7573742062652070726f706f736564206f776e6572000000000000000000006044820152fd5b80fd5b3461037857600036600319011261037857602063ffffffff600e5460601c16604051908152f35b6044359063ffffffff8216820361037857565b34610378576060366003190112610378576024356001600160401b038082116103785736602383011215610378578160040135908111610378573660248260051b8401011161037857610b2f91610ef091602461111a6110ac565b9201600435613a92565b34610378576020366003190112610378576001600160a01b0360043561114981610c81565b1660005260096020526111976040600020610b2f61116682610826565b916111a5611182600261117b60018501610826565b9301610826565b916040519586956060875260608701906108ed565b9085820360208701526108ed565b9083820360408501526108ed565b6001600160601b0381160361037857565b3590610304826111b3565b34610378576020366003190112610378577fcefd6167f8a328d10167fe2c462697369efecfa6db2373014c0b4489d2854e53602060043561120f816111b3565b611217612277565b600d546001600160a01b036001600160a01b03198360a01b16911617600d556001600160601b0360405191168152a1005b346103785760003660031901126103785760206001600160a01b0360025416604051908152f35b34610378576000366003190112610378576020600f546001600160601b036040519160401c168152f35b3461037857602036600319011261037857600435600052600660205260406000208054610b2f6001600160a01b03600184015416926113136002820154916112ef60046112e860038401610826565b9201610826565b9260405196879687526020870152604086015260a0606086015260a08501906108ed565b9083820360808501526108ed565b6001600160401b03811161024d5760051b60200190565b9291909261134584611321565b9161135360405193846102b6565b829480845260208094019060051b8301928284116103785780915b84831061137d57505050505050565b82356001600160401b03811161037857869161139c868493860161037d565b81520192019161136e565b9080601f830112156103785781602061039893359101611338565b6002111561037857565b3590610304826113c2565b6001111561037857565b3590610304826113d7565b34610378576003196040368201126103785760048035916001600160401b039081841161037857610180908436030112610378576114286102d7565b906114348484016111c4565b82526024840135818111610378576114519084369187010161037d565b60208301526044840135818111610378576114719084369187010161037d565b60408301526064840135818111610378576114919084369187010161037d565b60608301526084840135818111610378576114b19084369187010161037d565b608083015260a4840135818111610378576114d1908436918701016113a7565b60a08301526114e260c485016113cc565b60c08301526114f360e485016113cc565b60e083015261150561010485016113e1565b6101008301526101248401356101208301526115246101448501610f69565b61014083015261016484013590811161037857610b2f93610ef09361154c923692010161037d565b61016082015261155a610c92565b90614278565b346103785760203660031901126103785760043563ffffffff811690818103610378577f5df6c53187c7cfa2643679f49eee9fc8a62e23a074ed0b12f17b5635c25f721d916020916115b0612277565b7fffffffffffffffffffffffffffffffff00000000ffffffffffffffffffffffff6fffffffff000000000000000000000000600e549260601b16911617600e55604051908152a1005b3461037857602036600319011261037857610dc560043561079881610f4b565b34610378576020366003190112610378577f803bee7e92bbc6ae7a1551f9f4ed3e31a8ea8df32e93332f41b0028f1091f9c36020600435611659816111b3565b611661612277565b600e547fffffffff000000000000000000000000ffffffffffffffffffffffffffffffff7bffffffffffffffffffffffff000000000000000000000000000000008360801b16911617600e556001600160601b0360405191168152a1005b9060206103989281815201906108ed565b3461037857600080600319360112611082576004816001600160a01b03815416604051928380927fd328a91e0000000000000000000000000000000000000000000000000000000082525afa9081156107c6578291611738575b60405180610b2f84826116bf565b90503d8083833e61174981836102b6565b8101906020818303126117b6578051906001600160401b0382116117ba570181601f820112156117b65780519261177f84610326565b9261178d60405194856102b6565b848452602085840101116110825750610b2f926117b091602080850191016108ca565b3861172a565b8280fd5b8380fd5b3461037857600319608036820112610378576004356001600160401b03918282116103785760c0908236030112610378576117f76102f7565b611803826004016113cc565b8152611811602483016113cc565b6020820152611822604483016113e1565b6040820152606482013583811161037857611843906004369185010161037d565b6060820152608482013583811161037857611864906004369185010161037d565b608082015260a48201359283116103785761188b6118aa926004610b2f95369201016113a7565b60a0820152611898610f5c565b6118a06110ac565b9060643592614399565b6040516001600160601b0390911681529081906020820190565b346103785760003660031901126103785760206001600160601b03600e5416604051908152f35b34610378576020366003190112610378576001600160401b0360043561191081610f4b565b610f9960405161191f81610280565b601681527f676574537562736372697074696f6e42616c616e636500000000000000000000602082015261576a565b3461037857602036600319011261037857611967612277565b600435600052600560205260406000206001600160a01b0381541615611a1e5780611a096002610dc59301916119c160016119a985546001600160601b031690565b9201916105d983546001600160601b039060601c1690565b7fffffffffffffffff000000000000000000000000ffffffffffffffffffffffff77ffffffffffffffffffffffff00000000000000000000000083549260601b169116179055565b80546bffffffffffffffffffffffff19169055565b606460405162461bcd60e51b815260206004820152601760248201527f46756e6374696f6e20646f6573206e6f742065786973740000000000000000006044820152fd5b6020600319818136011261037857600435916001600160401b03808411610378576101808460040193853603011261037857611a9d836122cf565b506024840190611ab9611ab083866122d9565b9050151561230b565b611ae2611ac683866122d9565b90611adc611ad2612356565b9133933691610341565b906158d4565b611aec82856122d9565b611b07611b15604096938751928391868301953391876123b5565b03601f1981018352826102b6565b519020946001600160a01b0392611b4484611b3d6104a48a6000526004602052604060002090565b16156123ef565b611b67611b6161042d6104a48a6000526005602052604060002090565b156123ef565b611b86611b7f611b7561243a565b33815296846122d9565b3691610341565b83860152611b9a611b7f60448a01846122d9565b86860152611bae611b7f60648a01846122d9565b6060860152611bca611bc360a48a018461246e565b3691611338565b608086015260a08501936101248901358552611be46124a3565b33815291611c03611bf4856122cf565b6001600160601b0316848a0152565b6101448a019080611c13836124f9565b16611e3257505050611c266103f46126fb565b611c3b61042d600b546001600160a01b031690565b86516370a0823160e01b815233600482015291908490839060249082905afa9889156107c657611ca9611d5495611c92610b2f9c611d3b96600091611e05575b50611c8b610730600d5460a01c90565b1115612743565b611c9a613096565b6001600160401b031690840152565b611cb16127b4565b93611ce5611cc160c4840161280c565b611cce6101048501612820565b611cde611b7f60848701866122d9565b91886142c0565b6001611cf360e4840161280c565b611cfc816127fd565b1480611ded575b611dcb575b5050611d2786611d228a6000526004602052604060002090565b612a51565b610672886000526005602052604060002090565b611d4f866000526007602052604060002090565b612db9565b5190837f12e4b4be5fe05eb0dff7a431e5ab13f8446aa6cf09a94b595e1d982a7ab02e51845180611d863395826109b2565b0390a4611dbd611da1610647600f546001600160401b031690565b6001600160401b03166001600160401b0319600f541617600f55565b519081529081906020820190565b611b7f611de091610164611de69401906122d9565b8461430f565b3880611d08565b50611dfc6101648301826122d9565b90501515611d03565b611e259150833d8511611e2b575b611e1d81836102b6565b810190612734565b38611c7b565b503d611e13565b611e5690611e45839c959697949c6124f9565b90611e4e612503565b9116906157b1565b611e6b61042d600c546001600160a01b031690565b996000611ea4611e7a846124f9565b8b5163523e3b4b60e11b81526001600160401b0390911660048201529c8d91829081906024820190565b03915afa9a8b156107c657600090819c611f96575b50163081149033146000915b8c51831015611f74578c611eed61042d611ee086309461263a565b516001600160a01b031690565b03611f5357506001915b8280611f4c575b611f1157611f0b90612626565b91611ec5565b50610b2f9b5092611c9a611d3b9593611f3a611f3f94611d549a99975b81611f44575b50612664565b6124f9565b611ca9565b905038611f34565b5081611efe565b918c611f6661042d611ee084339461263a565b03611ef75760019150611ef7565b610b2f9c50611f3f9250611d3b9593611f3a611c9a92611d549a999794611f2e565b90611fac929c503d8091833e6107b681836102b6565b9b915038611eb9565b34610378576020366003190112610378576001600160a01b03600435611fda81610c81565b611fe2612277565b1633811461203857806001600160a01b0319600354161760035561201161042d6002546001600160a01b031690565b7fed8889f560326eb138920d842192f0eb3dd22b4f139c87a2c57538e05bae1278600080a3005b606460405162461bcd60e51b815260206004820152601760248201527f43616e6e6f74207472616e7366657220746f2073656c660000000000000000006044820152fd5b346103785760003660031901126103785760206001600160401b03600f5416604051908152f35b81516001600160a01b031681526020808301516001600160401b0316908201526040808301516001600160601b0316908201526101208101929161030491906060818101516001600160601b0316908301526080818101516001600160401b03169083015260a0818101516001600160601b03169083015260c0818101516001600160601b03169083015260e0818101516001600160401b031690830152610100908101516001600160401b0316910152565b346103785760203660031901126103785761216f6124a3565b5061217b6103f46141b1565b6004356000526005602052610b2f604060002061226b61225a600361219e610306565b936121de6001600160401b0382546121c86001600160a01b03821689906001600160a01b03169052565b60a01c1660208701906001600160401b03169052565b60018101546001600160601b038082166040880152606082811c82169088015261224c916122109060c01c6080890152565b60028301546001600160601b038282161660a089015290612242908260601c1660c08901906001600160601b03169052565b60c01c60e0870152565b01546001600160401b031690565b6001600160401b0316610100830152565b604051918291826120a3565b6001600160a01b0360025416330361228b57565b606460405162461bcd60e51b815260206004820152601660248201527f4f6e6c792063616c6c61626c65206279206f776e6572000000000000000000006044820152fd5b35610398816111b3565b903590601e198136030182121561037857018035906001600160401b0382116103785760200191813603831361037857565b1561231257565b606460405162461bcd60e51b815260206004820152601d60248201527f46756e6374696f6e206e616d652063616e6e6f7420626520656d7074790000006044820152fd5b604051906123638261029b565b602482527f72202573000000000000000000000000000000000000000000000000000000006040837f726567697374657246756e6374696f6e2c206e616d653a2025732073656e646560208201520152565b916060816001600160a01b039260209497969760408752816040880152838701376000828287010152601f80199101168401019416910152565b156123f657565b606460405162461bcd60e51b815260206004820152601760248201527f46756e6374696f6e20616c7265616479206578697374730000000000000000006044820152fd5b6040519061244782610232565b600060a0838281526060602082015260606040820152606080820152606060808201520152565b903590601e198136030182121561037857018035906001600160401b03821161037857602001918160051b3603831361037857565b6040519061012082018281106001600160401b0382111761024d57604052816101006000918281528260208201528260408201528260608201528260808201528260a08201528260c08201528260e08201520152565b3561039881610f4b565b604051906125108261029b565b603682527f636865636b696e6720696620617574686f72697a6564000000000000000000006040837f7573696e67206578697374696e6720737562736372697074696f6e2025642c2060208201520152565b9091606082840312610378578151612579816111b3565b9260208084015161258981610c81565b936040810151906001600160401b03821161037857019180601f840112156103785782516125b681611321565b936125c460405195866102b6565b818552838086019260051b820101928311610378578301905b8282106125eb575050505090565b83809183516125f981610c81565b8152019101906125dd565b6040513d6000823e3d90fd5b634e487b7160e01b600052601160045260246000fd5b60001981146126355760010190565b612610565b805182101561264e5760209160051b010190565b634e487b7160e01b600052603260045260246000fd5b1561266b57565b60a460405162461bcd60e51b815260206004820152604f60248201527f46756e6374696f6e734d616e6167657220616e642f6f722063616c6c6572206160448201527f7265206e6f7420617574686f72697a656420636f6e73756d657273206f66207460648201527f686520737562736372697074696f6e00000000000000000000000000000000006084820152fd5b6040519061270882610280565b601982527f6372656174696e67206e657720737562736372697074696f6e000000000000006020830152565b90816020910312610378575190565b1561274a57565b608460405162461bcd60e51b815260206004820152602e60248201527f496e73756666696369656e74204c494e4b2062616c616e636520746f2066756e60448201527f6420737562736372697074696f6e0000000000000000000000000000000000006064820152fd5b604051906127c182610232565b606060a08360008152600060208201526000604082015282808201528260808201520152565b634e487b7160e01b600052602160045260246000fd5b6002111561280757565b6127e7565b35610398816113c2565b6001111561280757565b35610398816113d7565b818110612835575050565b6000815560010161282a565b9190601f811161285057505050565b610304926000526020600020906020601f840160051c8301931061287c575b601f0160051c019061282a565b909150819061286f565b91909182516001600160401b03811161024d576128ad816128a784546107ec565b84612841565b602080601f83116001146128e95750819293946000926128de575b50508160011b916000199060031b1c1916179055565b0151905038806128c8565b90601f198316956128ff85600052602060002090565b926000905b88821061293c57505083600195969710612923575b505050811b019055565b015160001960f88460031b161c19169055388080612919565b80600185968294968601518155019501930190612904565b908160011b918083046002149015171561263557565b81519168010000000000000000831161024d5781548383558084106129cd575b5061299f602080920192600052602060002090565b6000925b8484106129b1575050505050565b600183826129c183945186612886565b019201930192906129a3565b6000838152846020822092830192015b8281106129eb57505061298a565b806129f8600192546107ec565b80612a05575b50016129dd565b601f908181118414612a1d5750508281555b386129fe565b83612a3f92612a3185600052602060002090565b920160051c8201910161282a565b60008181526020812081835555612a17565b815181546001600160a01b0319166001600160a01b039190911617815590600190818301602080830151938451916001600160401b03831161024d57612aa183612a9b86546107ec565b86612841565b80601f8411600114612b1957509180809260a0969594600598600094612b0e575b50501b916000199060031b1c19161790555b612ae5604082015160028601612886565b612af6606082015160038601612886565b612b0760808201516004860161296a565b0151910155565b015192503880612ac2565b91939495601f198416612b3187600052602060002090565b936000905b828210612b78575050916005979593918560a098969410612b5f575b505050811b019055612ad4565b015160001960f88460031b161c19169055388080612b52565b808886978294978701518155019601940190612b36565b6003612d7b61010061030494612bcb612baf82516001600160a01b031690565b86906001600160a01b03166001600160a01b0319825416179055565b612c2f612be260208301516001600160401b031690565b86547fffffffff0000000000000000ffffffffffffffffffffffffffffffffffffffff1660a09190911b7bffffffffffffffff000000000000000000000000000000000000000016178655565b612d2560018601612c6e612c4d60408501516001600160601b031690565b82546bffffffffffffffffffffffff19166001600160601b03909116178255565b612cce612c8560608501516001600160601b031690565b82547fffffffffffffffff000000000000000000000000ffffffffffffffffffffffff1660609190911b77ffffffffffffffffffffffff00000000000000000000000016178255565b60808301516001600160401b03165b77ffffffffffffffffffffffffffffffffffffffffffffffff7fffffffffffffffff00000000000000000000000000000000000000000000000083549260c01b169116179055565b612d6d60028601612d43612c4d60a08501516001600160601b031690565b612d5a612c8560c08501516001600160601b031690565b60e08301516001600160401b0316612cdd565b01516001600160401b031690565b9101906001600160401b03166001600160401b0319825416179055565b9060018110156128075762ff000082549160101b169062ff00001916179055565b81519160028310156128075760ff82549316908160ff198516178355602081015190612de4826127fd565b6002821015612807576103049460039361ff0060a09460081b169161ffff191617178455612e1f6040820151612e1981612816565b85612d98565b612e30606082015160018601612886565b612e41608082015160028601612886565b0151910161296a565b6001600160401b038091169081146126355760010190565b90816020910312610378575161039881610f4b565b60405190612e8482610280565b601f82527f6372656174656420737562736372697074696f6e2077697468206964202564006020830152565b60405190612ebd82610280565b601582527f616464696e6720257320617320636f6e73756d657200000000000000000000006020830152565b60405190612ef682610280565b601982527f73656e646572202573204c494e4b2062616c616e6365202564000000000000006020830152565b90816020910312610378575180151581036103785790565b15612f4157565b60a460405162461bcd60e51b815260206004820152604860248201527f4661696c656420746f207472616e73666572204c494e4b20746f20746865204660448201527f756e6374696f6e204d616e6167657220746f2066756e6420746865207375627360648201527f6372697074696f6e0000000000000000000000000000000000000000000000006084820152fd5b6001600160601b0361039894936001600160a01b0360609416835216602082015281604082015201906108ed565b1561300657565b60a460405162461bcd60e51b815260206004820152604460248201527f4661696c656420746f207472616e73666572204c494e4b20746f2042696c6c6960448201527f6e6720526567697374727920746f2066756e642074686520737562736372697060648201527f74696f6e000000000000000000000000000000000000000000000000000000006084820152fd5b6130ab61042d600c546001600160a01b031690565b6040908151917fa21a23e40000000000000000000000000000000000000000000000000000000083526020908184600481600080975af19384156107c6578394613383575b5061310c6130fc612e77565b6001600160401b038616906157b1565b61311830610405612eb0565b61312d61042d600c546001600160a01b031690565b803b156117ba5781517f7341c10c0000000000000000000000000000000000000000000000000000000081526001600160401b03861660048201523060248201529084908290604490829084905af180156107c65761336a575b506131c4336131a9866001600160401b03166000526008602052604060002090565b906001600160a01b03166001600160a01b0319825416179055565b6131d961042d600b546001600160a01b031690565b81516370a0823160e01b81523360048201529091908381602481865afa80156107c657859361321d613252928794879161334d575b5033613218612ee9565b61594f565b600d5484516323b872dd60e01b815233600482015230602482015260a09190911c604482015294859283919082906064820190565b03925af19081156107c65761327384926132f7948791613330575b50612f3a565b61328861042d600b546001600160a01b031690565b61329d61042d600c546001600160a01b031690565b866132aa600d5460a01c90565b918451946132dc866132ce8d8a83019190916001600160401b036020820193169052565b03601f1981018852876102b6565b5196879586948593630200057560e51b855260048501612fd1565b03925af19182156107c6576103989392613313575b5050612fff565b6133299250803d10610dc757610dbd81836102b6565b388061330c565b6133479150843d8611610dc757610dbd81836102b6565b3861326d565b6133649150853d8711611e2b57611e1d81836102b6565b3861320e565b8061337761337d9261026d565b80610b33565b38613187565b6133a4919450823d84116133ab575b61339c81836102b6565b810190612e62565b92386130f0565b503d613392565b604051906133bf8261029b565b602682527f696f6e49643a00000000000000000000000000000000000000000000000000006040837f65786563757465526571756573742063616c6c656420776974682066756e637460208201520152565b906103046134d06003613422610306565b946134626001600160401b03825461344c6001600160a01b0382168a906001600160a01b03169052565b60a01c1660208801906001600160401b03169052565b60018101546001600160601b038082166040890152606082811c82169089015261224c916134949060c01c60808a0152565b60028301546001600160601b038282161660a08a0152906134c6908260601c1660c08a01906001600160601b03169052565b60c01c60e0880152565b6001600160401b0316610100840152565b156134e857565b606460405162461bcd60e51b815260206004820152601a60248201527f66756e6374696f6e206973206e6f7420726567697374657265640000000000006044820152fd5b60028210156128075752565b60018210156128075752565b90815461355081611321565b9261355e60405194856102b6565b818452600090815260208082208186015b84841061357d575050505050565b600183819261358b85610826565b81520192019301929061356f565b906040516135a681610232565b60a0613609600383956135e160ff82546135c28282168961352c565b6135d4828260081c1660208a0161352c565b60101c1660408701613538565b6135ed60018201610826565b60608601526135fe60028201610826565b608086015201613544565b910152565b6040519061361b82610280565b601b82527f636f6c6c656374696e6720616e64206c6f636b696e67206665657300000000006020830152565b9190916001600160601b038080941691160191821161263557565b9190916001600160601b038080941691160291821691820361263557565b1561368757565b608460405162461bcd60e51b815260206004820152603a60248201527f55736572206973206e6f7420617070726f76656420746f207472616e7366657260448201527f204c494e4b20746f2066756e6374696f6e73206d616e616765720000000000006064820152fd5b156136f857565b608460405162461bcd60e51b815260206004820152603160248201527f596f7520646f206e6f74206861766520656e6f756768204c494e4b20746f206360448201527f616c6c20746869732066756e6374696f6e0000000000000000000000000000006064820152fd5b6040519061376f82610280565b601482527f5472616e7366657272696e67202564204c494e4b0000000000000000000000006020830152565b156137a257565b608460405162461bcd60e51b815260206004820152602260248201527f4661696c656420746f20636f6c6c65637420666565732066726f6d2063616c6c60448201527f65720000000000000000000000000000000000000000000000000000000000006064820152fd5b6040519061381982610280565b601c82527f726573657276656420737562736372697074696f6e20666565202564000000006020830152565b6001600160601b03918216908216039190821161263557565b6001600160601b038091169081146126355760010190565b6040519061388382610280565b601982527f73656e64696e672066756e6374696f6e732072657175657374000000000000006020830152565b156138b657565b606460405162461bcd60e51b815260206004820152601960248201527f5265717565737420494420616c726561647920657869737473000000000000006044820152fd5b6040519061390782610252565b606060808360008152600060208201526000604082015282808201520152565b815181556020916001600160a01b03838201511692613960600194858501906001600160a01b03166001600160a01b0319825416179055565b6040820151600284015560038301906060830151948551916001600160401b03831161024d5761399483612a9b86546107ec565b80601f84116001146139de575091808060809593600497956103049a6000946139d3575b50501b916000199060031b1c19161790555b01519101612886565b0151925038806139b8565b9193949596601f1984166139f787600052602060002090565b936000905b828210613a42575050926080959285926103049a99966004999610613a29575b505050811b0190556139ca565b015160001960f88460031b161c19169055388080613a1c565b8088869782949787015181550196019401906139fc565b60405190613a6682610280565b601d82527f656d697474696e672046756e6374696f6e43616c6c6564206576656e740000006020830152565b92919091613aa16103f46133b2565b613aaa8461570f565b613ac1610522856000526005602052604060002090565b92613ae66001600160a01b03613ade86516001600160a01b031690565b1615156134e1565b613b02613afd866000526007602052604060002090565b613599565b9280614002575b5050613b166103f461360e565b600e5491613b43613b3160408601516001600160601b031690565b6001600160601b038560801c16613647565b92613b8361057f613b5e60208801516001600160401b031690565b9263ffffffff613b7860408a01516001600160601b031690565b9160601c1690613662565b93613b9961042d600b546001600160a01b031690565b6040517fdd62ed3e0000000000000000000000000000000000000000000000000000000081523360048201523060248201529091602082604481865afa9182156107c657600092613fe1575b50613bfc6001600160601b03821680931015613680565b6040516370a0823160e01b8082523360048301529390602081602481855afa80156107c657613c3691600091613fc8575033613218612ee9565b604051938452336004850152602084602481845afa9182156107c657613c7f84613c72602096613cb7966000998a91613fab575b5010156136f1565b613c7a613762565b6157b1565b6040516323b872dd60e01b81523360048201523060248201526001600160601b03909116604482015293849283919082906064820190565b03925af19485156107c657613d84613de593613ce2613e9e98613dcc95600091613f8c575b5061379b565b613d22613d12613d05836001600160401b0316600052600a602052604060002090565b546001600160601b031690565b6001600160601b03611e4e61380c565b613d6a613d58613d3e600e546001600160601b039060801c1690565b926001600160401b0316600052600a602052604060002090565b916105d983546001600160601b031690565b6001600160601b03166001600160601b0319825416179055565b613db9613d9d826105d9600e546001600160601b031690565b6001600160601b03166001600160601b0319600e541617600e55565b60408701516001600160601b0316613845565b6105b060a08701916105d983516001600160601b031690565b613e006080850161064c61064782516001600160401b031690565b613e67613e21613e1c600f546001600160601b039060401c1690565b61385e565b7fffffffffffffffffffffffff000000000000000000000000ffffffffffffffff73ffffffffffffffffffffffff0000000000000000600f549260401b16911617600f55565b613e7f84610672876000526005602052604060002090565b613e8a6103f4613876565b60208401516001600160401b031690614819565b8092613ebe613eb7836000526006602052604060002090565b54156138af565b613ee6613ec96138fa565b828152336020820152610505846000526006602052604060002090565b613ef16103f4613a59565b7feb98a4358e79cd01f5b134f72406251bd2a7b8667fd337212737d07697d4b9fc613f2384516001600160a01b031690565b93613f4e6040613f3f600e546001600160601b039060801c1690565b9201516001600160601b031690565b604080516001600160a01b03979097168752600060208801819052908701526001600160601b039182166060870152166080850152339360a090a490565b613fa5915060203d602011610dc757610dbd81836102b6565b38613cdc565b613fc29150893d8b11611e2b57611e1d81836102b6565b38613c6a565b613364915060203d602011611e2b57611e1d81836102b6565b613ffb91925060203d602011611e2b57611e1d81836102b6565b9038613be5565b61401791614011913691611338565b8361434d565b3880613b09565b6040519061402b8261029b565b603782527f6c6c20617661696c61626c652062616c616e63652025640000000000000000006040837f526566696c6c696e6720737562736372697074696f6e2025642077697468206160208201520152565b602061415b614186926140cc6140a9613d05836001600160401b0316600052600a602052604060002090565b6001600160601b036140b961401e565b9116906001600160401b03841690615872565b6140ec613d05826001600160401b0316600052600a602052604060002090565b61410c611a09836001600160401b0316600052600a602052604060002090565b600061412361042d600b546001600160a01b031690565b9261416961413c61042d600c546001600160a01b031690565b916040519687918983019190916001600160401b036020820193169052565b03601f1981018752866102b6565b60405196879586948593630200057560e51b855260048501612fd1565b03925af180156107c6576141975750565b6141ae9060203d8111610dc757610dbd81836102b6565b50565b604051906141be82610280565b600b82527f67657446756e6374696f6e0000000000000000000000000000000000000000006020830152565b906040516141f781610252565b608061360960048395805485526001600160a01b0360018201541660208601526002810154604086015261422d60038201610826565b606086015201610826565b919060346142729160405193818592602084019788378201906001600160601b03199060601b1660208201520360148101845201826102b6565b51902090565b602001519061427260346040518093602061429c81840197888151938492016108ca565b8201906001600160601b03199060601b1660208201520360148101845201826102b6565b908351156142e5576060926142d86142e1928461352c565b60408301613538565b0152565b60046040517f22ce3edd000000000000000000000000000000000000000000000000000000008152fd5b815115614323576001602082015260800152565b60046040517fe889636f000000000000000000000000000000000000000000000000000000008152fd5b81511561435a5760a00152565b60046040517ffe936cb7000000000000000000000000000000000000000000000000000000008152fd5b908160209103126103785751610398816111b3565b6001600160401b0361440894926020946143be6001600160a01b0360005416946145e2565b9463ffffffff604051988997889687967fd227d2450000000000000000000000000000000000000000000000000000000088521660048701526080602487015260848601906108ed565b92166044840152606483015203915afa9081156107c65760009161442a575090565b610398915060203d811161444b575b61444381836102b6565b810190614384565b503d614439565b6040519061445f82610280565b6000602083606081520152565b6040519061447982610280565b6000602083614486614452565b81520152565b6040519061449982610280565b600c82527f636f64654c6f636174696f6e00000000000000000000000000000000000000006020830152565b604051906144d282610280565b600882527f6c616e67756167650000000000000000000000000000000000000000000000006020830152565b6040519061450b82610280565b600682527f736f7572636500000000000000000000000000000000000000000000000000006020830152565b6040519061454482610280565b600482527f61726773000000000000000000000000000000000000000000000000000000006020830152565b6040519061457d82610280565b600f82527f736563726574734c6f636174696f6e00000000000000000000000000000000006020830152565b604051906145b682610280565b600782527f73656372657473000000000000000000000000000000000000000000000000006020830152565b6145ea61446c565b906145f58251614cde565b5061460761460161448c565b836153d0565b6146248151614615816127fd565b61461e816127fd565b83614d5d565b61462f6146016144c5565b614649604082015161464081612816565b61461e81612816565b6146546146016144fe565b6146626060820151836153d0565b60a0810180515161471a575b506080810190815151614683575b5050515190565b602001908151614692816127fd565b61469b816127fd565b156146f0576146d16146e9926146b86146b2614570565b866153d0565b516146c2816127fd565b6146cb816127fd565b84614d5d565b6146e26146dc6145a9565b846153d0565b518261531e565b388061467c565b60046040517fa80d31f7000000000000000000000000000000000000000000000000000000008152fd5b926147266146dc614537565b61472f83615454565b60005b8451805182101561475f579061475561474e8261475a9461263a565b51866153d0565b612626565b614732565b5050925061476c826154e0565b3861466e565b6040519061477f8261029b565b602982527f6c69656e74206c696200000000000000000000000000000000000000000000006040837f53656e64696e6720726571756573742066726f6d2066756e6374696f6e73206360208201520152565b916147fd63ffffffff916001600160401b036040949796971685526060602086015260608501906108ed565b9416910152565b90816020910312610378575161039881610c81565b61488692916148296103f4614772565b600093849261484b61484561042d86546001600160a01b031690565b916145e2565b946040519687809481937f28242b040000000000000000000000000000000000000000000000000000000083526020998a98600485016147d1565b03925af19283156107c657819361495b575b5080826148b161042d600494546001600160a01b031690565b604051938480927f5ab1bd530000000000000000000000000000000000000000000000000000000082525afa9283156107c65784937f1131472297a800fee664d1d89cfa8f7676ff07189ecc53f80bbb5f4969099db89361492992849261492e575b50506131a9856000526001602052604060002090565b80a290565b61494d9250803d10614954575b61494581836102b6565b810190614804565b3880614913565b503d61493b565b600491935061497690833d8511611e2b57611e1d81836102b6565b9290614898565b6040519061498a82610280565b601282527f66756c66696c6c696e67207265717565737400000000000000000000000000006020830152565b604051906149c38261029b565b603382527f63616c6c2066756c66696c6c52657175657374000000000000000000000000006040837f436865636b696e6720696620257320697320617574686f72697a656420746f2060208201520152565b15614a1c57565b608460405162461bcd60e51b815260206004820152603260248201527f4f6e6c7920746865202042696c6c696e672052656769737472792063616e206360448201527f616c6c2066756c66696c6c5265717565737400000000000000000000000000006064820152fd5b15614a8d57565b608460405162461bcd60e51b815260206004820152602560248201527f52657175657374206e6f7420666f756e6420696e2046756e6374696f6e734d6160448201527f6e616765720000000000000000000000000000000000000000000000000000006064820152fd5b15614afe57565b608460405162461bcd60e51b815260206004820152602660248201527f46756e6374696f6e206e6f7420666f756e6420696e2046756e6374696f6e734d60448201527f616e6167657200000000000000000000000000000000000000000000000000006064820152fd5b60405190614b758261029b565b603582527f63616c6c20746869732066756e6374696f6e2e2e2e00000000000000000000006040837f436865636b696e6720697320257320697320617574686f72697a656420746f2060208201520152565b60405190614bd482610280565b600e82527f556e6c6f636b696e6720666565730000000000000000000000000000000000006020830152565b9063ffffffff80921660640391821161263557565b60405190614c228261029b565b603b82527f67206966206e6565642066696c6c20737562736372697074696f6e00000000006040837f46696e697368656420756e6c6f636b696e6720666565732c20636865636b696e60208201520152565b9261039894926001600160a01b03614ca69316855260208501526000604085015260a0606085015260a08401906108ed565b9160808184039101526108ed565b601f1981019190821161263557565b906020820180921161263557565b9190820180921161263557565b614ce6614452565b5061010060208201526040518082526000815261012081019081106103785760405290565b90614d14614452565b50601f811680614d43575b50806020830152604051908183526000825281016020019081106103785760405290565b602003602081116126355781018091116126355738614d1f565b90815191614d69614452565b508251516001810190818111612635576020850151811015614dc2575b60c260206103049651928301015380518211614dba575b505060405191602083015260208252614db582610280565b61531e565b523880614d9d565b8160011b948286046002148315171561263557602081614df461030498614ded60c295519184614d0b565b5082615266565b5096505050614d86565b614e06614452565b508051516001810190818111612635576020830151811015614e3f575b605b60208451928301015380518211614e3b57505090565b5290565b8160011b8281046002148315171561263557614e6890614e6185519186614d0b565b5084615266565b50614e23565b614e76614452565b508051516001810190818111612635576020830151811015614eab575b605a60208451928301015380518211614e3b57505090565b8160011b8281046002148315171561263557614ecd90614e6185519186614d0b565b50614e93565b614edb614452565b508051516001810190818111612635576020830151811015614f10575b605960208451928301015380518211614e3b57505090565b8160011b8281046002148315171561263557614f3290614e6185519186614d0b565b50614ef8565b614f40614452565b508051516001810190818111612635576020830151811015614f75575b605860208451928301015380518211614e3b57505090565b8160011b8281046002148315171561263557614f9790614e6185519186614d0b565b50614f5d565b614fa5614452565b508051516001810190818111612635576020830151811015614fda575b607b60208451928301015380518211614e3b57505090565b8160011b8281046002148315171561263557614ffc90614e6185519186614d0b565b50614fc2565b61500a614452565b50805151600181019081811161263557602083015181101561503f575b607a60208451928301015380518211614e3b57505090565b8160011b828104600214831517156126355761506190614e6185519186614d0b565b50615027565b61506f614452565b5080515160018101908181116126355760208301518110156150a4575b607960208451928301015380518211614e3b57505090565b8160011b82810460021483151715612635576150c690614e6185519186614d0b565b5061508c565b6150d4614452565b508051516001810190818111612635576020830151811015615109575b607860208451928301015380518211614e3b57505090565b8160011b828104600214831517156126355761512b90614e6185519186614d0b565b506150f1565b9061513a614452565b50815151600181019182821161263557602084015182101561516d575b60208451928301015380518211614e3b57505090565b8260011b83810460021484151715612635576151969061518f86519187614d0b565b5085615266565b50615157565b906151a982519183614d0b565b506151b2614452565b508051906151be614452565b506151cc8151831115615317565b825151926151da8385614cd1565b91602092828480940151821161524f575b5183815197820101968211615247575b505001915b818110156152215760001991036101000a0190811990511690825116179052565b919261523c6152366152429286518152614cc3565b94614cc3565b92614cb4565b615200565b5238806151fb565b61526161525b83612954565b8261519c565b6151eb565b9061526f614452565b50805161527a614452565b506152888251821115615317565b825151916152968284614cd1565b6020918291828701518111615300575b8651838151978201019682116152f8575b505001915b818110156152de5760001991036101000a019081199051169082511617905290565b919261523c6152366152f39286518152614cc3565b6152bc565b5238806152b7565b61531261530c82612954565b8861519c565b6152a6565b1561037857565b81516141ae9291906001600160401b03811690601782116153555761534d9150604060ff845192161790615131565b505b51615266565b5060ff811161537a576153749061536c8351614f38565b5082516156a9565b5061534f565b61ffff811161539957615374906153918351614ed3565b508251615642565b63ffffffff81116153ba57615374906153b28351614e6e565b5082516155d9565b615374906153c88351614dfe565b50825161556d565b81516141ae9291906001600160401b03811690601782116153ff5761534d9150606060ff845192161790615131565b5060ff8111615416576153749061536c83516150cc565b61ffff811161542d57615374906153918351615067565b63ffffffff811161544657615374906153b28351615002565b615374906153c88351614f9d565b80519061545f614452565b5081515160018101908181116126355760208401518110156154ad575b609f60208095519283010153805182116154a5575b505001805190600182018092116126355752565b523880615491565b8160011b9382850460021483151715612635576020816154d68297614ded609f95519184614d0b565b509550505061547c565b8051906154eb614452565b50815151600181019081811161263557602084015181101561553a575b60ff6020809551928301015380518211615532575b50500180516000198101919082116126355752565b52388061551d565b8160011b9382850460021483151715612635576020816155638297614ded60ff95519184614d0b565b5095505050615508565b90615576614452565b5081515180600801918260081161263557602084015183116155b8575b6008845192830101906001600160401b031982511617905280518211614e3b57505090565b8260011b83810460021484151715612635576155d4908561519c565b615593565b906155e2614452565b508151518060040191826004116126355760208401518311615621575b60048451928301019063ffffffff1982511617905280518211614e3b57505090565b8260011b838104600214841517156126355761563d908561519c565b6155ff565b9061564b614452565b508151518060020191826002116126355760208401518311615688575b60028451928301019061ffff1982511617905280518211614e3b57505090565b8260011b83810460021484151715612635576156a4908561519c565b615668565b906156b2614452565b5081515180600101918260011161263557602084015183116156ee575b60018451928301019060ff1982511617905280518211614e3b57505090565b8260011b838104600214841517156126355761570a908561519c565b6156cf565b61030490604051907f27b7cf8500000000000000000000000000000000000000000000000000000000602083015260248201526024815261574f8161029b565b600080916020815191016a636f6e736f6c652e6c6f675afa50565b611b0761574f610304926040519283917f41304fac0000000000000000000000000000000000000000000000000000000060208401526020602484015260448301906108ed565b61574f6157f991610304936040519384927fb60e72cc0000000000000000000000000000000000000000000000000000000060208501526040602485015260648401906108ed565b90604483015203601f1981018352826102b6565b61574f61585d91610304936001600160a01b036040519485937f319af3330000000000000000000000000000000000000000000000000000000060208601526040602486015260648501906108ed565b9116604483015203601f1981018352826102b6565b61574f906158bb92610304946040519485937fca47c4eb0000000000000000000000000000000000000000000000000000000060208601526060602486015260848501906108ed565b916044840152606483015203601f1981018352826102b6565b61574f90610304936001600160a01b0361593a615928956040519687957f95ed01950000000000000000000000000000000000000000000000000000000060208801526060602488015260848701906108ed565b858103602319016044870152906108ed565b9116606483015203601f1981018352826102b6565b61574f906159a092610304946001600160a01b036040519586947f0d26b9250000000000000000000000000000000000000000000000000000000060208701526060602487015260848601906108ed565b92166044840152606483015203601f1981018352826102b656fea2646970667358221220ae50bcf443f19083c6febe0b37d3ac87ae016f32e41299d09c350729c705291864736f6c63430008120033",
  "linkReferences": {},
  "deployedLinkReferences": {}
}