{
  "_format": "hh-sol-artifact-1",
  "contractName": "FunctionsManager",
  "sourceName": "contracts/FunctionsManager.sol",
  "abi": [
    {
      "inputs": [
        {
          "internalType": "address",
          "name": "link",
          "type": "address"
        },
        {
          "internalType": "address",
          "name": "billingRegistryProxy",
          "type": "address"
        },
        {
          "internalType": "address",
          "name": "oracleProxy",
          "type": "address"
        },
        {
          "internalType": "uint256",
          "name": "_baseFee",
          "type": "uint256"
        },
        {
          "internalType": "uint32",
          "name": "_feeManagerCut",
          "type": "uint32"
        },
        {
          "internalType": "uint256",
          "name": "_minimumSubscriptionDeposit",
          "type": "uint256"
        }
      ],
      "stateMutability": "nonpayable",
      "type": "constructor"
    },
    {
      "inputs": [],
      "name": "EmptyArgs",
      "type": "error"
    },
    {
      "inputs": [],
      "name": "EmptySecrets",
      "type": "error"
    },
    {
      "inputs": [],
      "name": "EmptySource",
      "type": "error"
    },
    {
      "inputs": [],
      "name": "NoInlineSecrets",
      "type": "error"
    },
    {
      "inputs": [],
      "name": "RequestIsAlreadyPending",
      "type": "error"
    },
    {
      "inputs": [],
      "name": "RequestIsNotPending",
      "type": "error"
    },
    {
      "inputs": [],
      "name": "SenderIsNotRegistry",
      "type": "error"
    },
    {
      "anonymous": false,
      "inputs": [
        {
          "indexed": false,
          "internalType": "uint256",
          "name": "newBaseFee",
          "type": "uint256"
        }
      ],
      "name": "BaseFeeUpdated",
      "type": "event"
    },
    {
      "anonymous": false,
      "inputs": [
        {
          "indexed": false,
          "internalType": "uint256",
          "name": "newFeeManagerCut",
          "type": "uint256"
        }
      ],
      "name": "FeeManagerCutUpdated",
      "type": "event"
    },
    {
      "anonymous": false,
      "inputs": [
        {
          "indexed": false,
          "internalType": "bytes32",
          "name": "requestId",
          "type": "bytes32"
        },
        {
          "indexed": false,
          "internalType": "bytes",
          "name": "response",
          "type": "bytes"
        },
        {
          "indexed": false,
          "internalType": "bytes",
          "name": "err",
          "type": "bytes"
        }
      ],
      "name": "FulfillRequest",
      "type": "event"
    },
    {
      "anonymous": false,
      "inputs": [
        {
          "indexed": true,
          "internalType": "bytes32",
          "name": "functionId",
          "type": "bytes32"
        },
        {
          "indexed": true,
          "internalType": "bytes32",
          "name": "requestId",
          "type": "bytes32"
        },
        {
          "indexed": true,
          "internalType": "address",
          "name": "caller",
          "type": "address"
        },
        {
          "indexed": false,
          "internalType": "address",
          "name": "owner",
          "type": "address"
        },
        {
          "indexed": false,
          "internalType": "bytes32",
          "name": "callbackFunction",
          "type": "bytes32"
        },
        {
          "indexed": false,
          "internalType": "uint256",
          "name": "usedGas",
          "type": "uint256"
        },
        {
          "indexed": false,
          "internalType": "bytes",
          "name": "response",
          "type": "bytes"
        },
        {
          "indexed": false,
          "internalType": "bytes",
          "name": "err",
          "type": "bytes"
        }
      ],
      "name": "FunctionCallCompleted",
      "type": "event"
    },
    {
      "anonymous": false,
      "inputs": [
        {
          "indexed": true,
          "internalType": "bytes32",
          "name": "functionId",
          "type": "bytes32"
        },
        {
          "indexed": true,
          "internalType": "bytes32",
          "name": "requestId",
          "type": "bytes32"
        },
        {
          "indexed": true,
          "internalType": "address",
          "name": "caller",
          "type": "address"
        },
        {
          "indexed": false,
          "internalType": "address",
          "name": "owner",
          "type": "address"
        },
        {
          "indexed": false,
          "internalType": "bytes32",
          "name": "callbackFunction",
          "type": "bytes32"
        },
        {
          "indexed": false,
          "internalType": "uint256",
          "name": "gasDeposit",
          "type": "uint256"
        },
        {
          "indexed": false,
          "internalType": "uint256",
          "name": "baseFee",
          "type": "uint256"
        },
        {
          "indexed": false,
          "internalType": "uint256",
          "name": "fee",
          "type": "uint256"
        }
      ],
      "name": "FunctionCalled",
      "type": "event"
    },
    {
      "anonymous": false,
      "inputs": [
        {
          "indexed": true,
          "internalType": "bytes32",
          "name": "functionId",
          "type": "bytes32"
        },
        {
          "indexed": true,
          "internalType": "address",
          "name": "owner",
          "type": "address"
        },
        {
          "indexed": true,
          "internalType": "bytes32",
          "name": "category",
          "type": "bytes32"
        },
        {
          "components": [
            {
              "internalType": "uint256",
              "name": "fee",
              "type": "uint256"
            },
            {
              "internalType": "address",
              "name": "owner",
              "type": "address"
            },
            {
              "internalType": "uint64",
              "name": "subId",
              "type": "uint64"
            },
            {
              "internalType": "string",
              "name": "name",
              "type": "string"
            },
            {
              "internalType": "string",
              "name": "desc",
              "type": "string"
            },
            {
              "internalType": "string",
              "name": "imageUrl",
              "type": "string"
            },
            {
              "internalType": "string[]",
              "name": "expectedArgs",
              "type": "string[]"
            },
            {
              "components": [
                {
                  "internalType": "enum Functions.Location",
                  "name": "codeLocation",
                  "type": "uint8"
                },
                {
                  "internalType": "enum Functions.Location",
                  "name": "secretsLocation",
                  "type": "uint8"
                },
                {
                  "internalType": "enum Functions.CodeLanguage",
                  "name": "language",
                  "type": "uint8"
                },
                {
                  "internalType": "string",
                  "name": "source",
                  "type": "string"
                },
                {
                  "internalType": "bytes",
                  "name": "secrets",
                  "type": "bytes"
                },
                {
                  "internalType": "string[]",
                  "name": "args",
                  "type": "string[]"
                }
              ],
              "internalType": "struct Functions.Request",
              "name": "request",
              "type": "tuple"
            },
            {
              "internalType": "bytes32",
              "name": "category",
              "type": "bytes32"
            },
            {
              "internalType": "uint256",
              "name": "subscriptionPool",
              "type": "uint256"
            },
            {
              "internalType": "uint256",
              "name": "unlockedProfitPool",
              "type": "uint256"
            },
            {
              "internalType": "uint256",
              "name": "lockedProfitPool",
              "type": "uint256"
            }
          ],
          "indexed": false,
          "internalType": "struct FunctionsManager.FunctionMetadata",
          "name": "metadata",
          "type": "tuple"
        }
      ],
      "name": "FunctionRegistered",
      "type": "event"
    },
    {
      "anonymous": false,
      "inputs": [
        {
          "indexed": false,
          "internalType": "uint256",
          "name": "newMinimumDeposit",
          "type": "uint256"
        }
      ],
      "name": "MinimumSubscriptionDepositUpdated",
      "type": "event"
    },
    {
      "anonymous": false,
      "inputs": [
        {
          "indexed": true,
          "internalType": "bytes32",
          "name": "requestId",
          "type": "bytes32"
        },
        {
          "indexed": false,
          "internalType": "bytes",
          "name": "result",
          "type": "bytes"
        },
        {
          "indexed": false,
          "internalType": "bytes",
          "name": "err",
          "type": "bytes"
        }
      ],
      "name": "OCRResponse",
      "type": "event"
    },
    {
      "anonymous": false,
      "inputs": [
        {
          "indexed": true,
          "internalType": "address",
          "name": "from",
          "type": "address"
        },
        {
          "indexed": true,
          "internalType": "address",
          "name": "to",
          "type": "address"
        }
      ],
      "name": "OwnershipTransferRequested",
      "type": "event"
    },
    {
      "anonymous": false,
      "inputs": [
        {
          "indexed": true,
          "internalType": "address",
          "name": "from",
          "type": "address"
        },
        {
          "indexed": true,
          "internalType": "address",
          "name": "to",
          "type": "address"
        }
      ],
      "name": "OwnershipTransferred",
      "type": "event"
    },
    {
      "anonymous": false,
      "inputs": [
        {
          "indexed": true,
          "internalType": "bytes32",
          "name": "id",
          "type": "bytes32"
        }
      ],
      "name": "RequestFulfilled",
      "type": "event"
    },
    {
      "anonymous": false,
      "inputs": [
        {
          "indexed": true,
          "internalType": "bytes32",
          "name": "id",
          "type": "bytes32"
        }
      ],
      "name": "RequestSent",
      "type": "event"
    },
    {
      "inputs": [],
      "name": "acceptOwnership",
      "outputs": [],
      "stateMutability": "nonpayable",
      "type": "function"
    },
    {
      "inputs": [],
      "name": "approveTokenTransfer",
      "outputs": [],
      "stateMutability": "nonpayable",
      "type": "function"
    },
    {
      "inputs": [
        {
          "internalType": "address",
          "name": "",
          "type": "address"
        }
      ],
      "name": "authorMetadata",
      "outputs": [
        {
          "internalType": "string",
          "name": "name",
          "type": "string"
        },
        {
          "internalType": "string",
          "name": "imageUrl",
          "type": "string"
        },
        {
          "internalType": "string",
          "name": "websiteUrl",
          "type": "string"
        }
      ],
      "stateMutability": "view",
      "type": "function"
    },
    {
      "inputs": [],
      "name": "baseFee",
      "outputs": [
        {
          "internalType": "uint256",
          "name": "",
          "type": "uint256"
        }
      ],
      "stateMutability": "view",
      "type": "function"
    },
    {
      "inputs": [
        {
          "internalType": "uint64",
          "name": "",
          "type": "uint64"
        }
      ],
      "name": "categoryNames",
      "outputs": [
        {
          "internalType": "string",
          "name": "",
          "type": "string"
        }
      ],
      "stateMutability": "view",
      "type": "function"
    },
    {
      "inputs": [
        {
          "internalType": "bytes32",
          "name": "requestId",
          "type": "bytes32"
        },
        {
          "internalType": "bytes",
          "name": "response",
          "type": "bytes"
        },
        {
          "internalType": "bytes",
          "name": "err",
          "type": "bytes"
        }
      ],
      "name": "dummyFullfill",
      "outputs": [],
      "stateMutability": "nonpayable",
      "type": "function"
    },
    {
      "inputs": [],
      "name": "dumpBalanceOf",
      "outputs": [
        {
          "internalType": "uint256",
          "name": "",
          "type": "uint256"
        }
      ],
      "stateMutability": "view",
      "type": "function"
    },
    {
      "inputs": [
        {
          "components": [
            {
              "internalType": "enum Functions.Location",
              "name": "codeLocation",
              "type": "uint8"
            },
            {
              "internalType": "enum Functions.Location",
              "name": "secretsLocation",
              "type": "uint8"
            },
            {
              "internalType": "enum Functions.CodeLanguage",
              "name": "language",
              "type": "uint8"
            },
            {
              "internalType": "string",
              "name": "source",
              "type": "string"
            },
            {
              "internalType": "bytes",
              "name": "secrets",
              "type": "bytes"
            },
            {
              "internalType": "string[]",
              "name": "args",
              "type": "string[]"
            }
          ],
          "internalType": "struct Functions.Request",
          "name": "req",
          "type": "tuple"
        },
        {
          "internalType": "uint64",
          "name": "subscriptionId",
          "type": "uint64"
        },
        {
          "internalType": "uint32",
          "name": "gasLimit",
          "type": "uint32"
        },
        {
          "internalType": "uint256",
          "name": "gasPrice",
          "type": "uint256"
        }
      ],
      "name": "estimateCost",
      "outputs": [
        {
          "internalType": "uint96",
          "name": "",
          "type": "uint96"
        }
      ],
      "stateMutability": "view",
      "type": "function"
    },
    {
      "inputs": [
        {
          "internalType": "bytes32",
          "name": "functionId",
          "type": "bytes32"
        },
        {
          "internalType": "string[]",
          "name": "args",
          "type": "string[]"
        },
        {
          "internalType": "uint32",
          "name": "gasLimit",
          "type": "uint32"
        }
      ],
      "name": "executeRequest",
      "outputs": [
        {
          "internalType": "bytes32",
          "name": "",
          "type": "bytes32"
        }
      ],
      "stateMutability": "nonpayable",
      "type": "function"
    },
    {
      "inputs": [],
      "name": "feeManagerCut",
      "outputs": [
        {
          "internalType": "uint32",
          "name": "",
          "type": "uint32"
        }
      ],
      "stateMutability": "view",
      "type": "function"
    },
    {
      "inputs": [
        {
          "internalType": "bytes32",
          "name": "functionId",
          "type": "bytes32"
        }
      ],
      "name": "forceUnlockFees",
      "outputs": [],
      "stateMutability": "nonpayable",
      "type": "function"
    },
    {
      "inputs": [],
      "name": "functionManagerProfitPool",
      "outputs": [
        {
          "internalType": "uint256",
          "name": "",
          "type": "uint256"
        }
      ],
      "stateMutability": "view",
      "type": "function"
    },
    {
      "inputs": [
        {
          "internalType": "bytes32",
          "name": "",
          "type": "bytes32"
        }
      ],
      "name": "functionMetadatas",
      "outputs": [
        {
          "internalType": "uint256",
          "name": "fee",
          "type": "uint256"
        },
        {
          "internalType": "address",
          "name": "owner",
          "type": "address"
        },
        {
          "internalType": "uint64",
          "name": "subId",
          "type": "uint64"
        },
        {
          "internalType": "string",
          "name": "name",
          "type": "string"
        },
        {
          "internalType": "string",
          "name": "desc",
          "type": "string"
        },
        {
          "internalType": "string",
          "name": "imageUrl",
          "type": "string"
        },
        {
          "components": [
            {
              "internalType": "enum Functions.Location",
              "name": "codeLocation",
              "type": "uint8"
            },
            {
              "internalType": "enum Functions.Location",
              "name": "secretsLocation",
              "type": "uint8"
            },
            {
              "internalType": "enum Functions.CodeLanguage",
              "name": "language",
              "type": "uint8"
            },
            {
              "internalType": "string",
              "name": "source",
              "type": "string"
            },
            {
              "internalType": "bytes",
              "name": "secrets",
              "type": "bytes"
            },
            {
              "internalType": "string[]",
              "name": "args",
              "type": "string[]"
            }
          ],
          "internalType": "struct Functions.Request",
          "name": "request",
          "type": "tuple"
        },
        {
          "internalType": "bytes32",
          "name": "category",
          "type": "bytes32"
        },
        {
          "internalType": "uint256",
          "name": "subscriptionPool",
          "type": "uint256"
        },
        {
          "internalType": "uint256",
          "name": "unlockedProfitPool",
          "type": "uint256"
        },
        {
          "internalType": "uint256",
          "name": "lockedProfitPool",
          "type": "uint256"
        }
      ],
      "stateMutability": "view",
      "type": "function"
    },
    {
      "inputs": [
        {
          "internalType": "bytes32",
          "name": "",
          "type": "bytes32"
        }
      ],
      "name": "functionResponses",
      "outputs": [
        {
          "internalType": "bytes32",
          "name": "functionId",
          "type": "bytes32"
        },
        {
          "internalType": "address",
          "name": "caller",
          "type": "address"
        },
        {
          "internalType": "bytes32",
          "name": "callbackFunction",
          "type": "bytes32"
        },
        {
          "internalType": "uint256",
          "name": "gasDeposit",
          "type": "uint256"
        },
        {
          "internalType": "bytes",
          "name": "response",
          "type": "bytes"
        },
        {
          "internalType": "bytes",
          "name": "err",
          "type": "bytes"
        }
      ],
      "stateMutability": "view",
      "type": "function"
    },
    {
      "inputs": [],
      "name": "getDONPublicKey",
      "outputs": [
        {
          "internalType": "bytes",
          "name": "",
          "type": "bytes"
        }
      ],
      "stateMutability": "view",
      "type": "function"
    },
    {
      "inputs": [
        {
          "internalType": "bytes32",
          "name": "_functionId",
          "type": "bytes32"
        }
      ],
      "name": "getFunction",
      "outputs": [
        {
          "components": [
            {
              "internalType": "uint256",
              "name": "fee",
              "type": "uint256"
            },
            {
              "internalType": "address",
              "name": "owner",
              "type": "address"
            },
            {
              "internalType": "uint64",
              "name": "subId",
              "type": "uint64"
            },
            {
              "internalType": "string",
              "name": "name",
              "type": "string"
            },
            {
              "internalType": "string",
              "name": "desc",
              "type": "string"
            },
            {
              "internalType": "string",
              "name": "imageUrl",
              "type": "string"
            },
            {
              "internalType": "string[]",
              "name": "expectedArgs",
              "type": "string[]"
            },
            {
              "components": [
                {
                  "internalType": "enum Functions.Location",
                  "name": "codeLocation",
                  "type": "uint8"
                },
                {
                  "internalType": "enum Functions.Location",
                  "name": "secretsLocation",
                  "type": "uint8"
                },
                {
                  "internalType": "enum Functions.CodeLanguage",
                  "name": "language",
                  "type": "uint8"
                },
                {
                  "internalType": "string",
                  "name": "source",
                  "type": "string"
                },
                {
                  "internalType": "bytes",
                  "name": "secrets",
                  "type": "bytes"
                },
                {
                  "internalType": "string[]",
                  "name": "args",
                  "type": "string[]"
                }
              ],
              "internalType": "struct Functions.Request",
              "name": "request",
              "type": "tuple"
            },
            {
              "internalType": "bytes32",
              "name": "category",
              "type": "bytes32"
            },
            {
              "internalType": "uint256",
              "name": "subscriptionPool",
              "type": "uint256"
            },
            {
              "internalType": "uint256",
              "name": "unlockedProfitPool",
              "type": "uint256"
            },
            {
              "internalType": "uint256",
              "name": "lockedProfitPool",
              "type": "uint256"
            }
          ],
          "internalType": "struct FunctionsManager.FunctionMetadata",
          "name": "",
          "type": "tuple"
        }
      ],
      "stateMutability": "view",
      "type": "function"
    },
    {
      "inputs": [
        {
          "internalType": "bytes32",
          "name": "_requestId",
          "type": "bytes32"
        }
      ],
      "name": "getFunctionResponse",
      "outputs": [
        {
          "components": [
            {
              "internalType": "bytes32",
              "name": "functionId",
              "type": "bytes32"
            },
            {
              "internalType": "address",
              "name": "caller",
              "type": "address"
            },
            {
              "internalType": "bytes32",
              "name": "callbackFunction",
              "type": "bytes32"
            },
            {
              "internalType": "uint256",
              "name": "gasDeposit",
              "type": "uint256"
            },
            {
              "internalType": "bytes",
              "name": "response",
              "type": "bytes"
            },
            {
              "internalType": "bytes",
              "name": "err",
              "type": "bytes"
            }
          ],
          "internalType": "struct FunctionsManager.FunctionResponse",
          "name": "",
          "type": "tuple"
        }
      ],
      "stateMutability": "view",
      "type": "function"
    },
    {
      "inputs": [
        {
          "internalType": "bytes32",
          "name": "requestId",
          "type": "bytes32"
        },
        {
          "internalType": "bytes",
          "name": "response",
          "type": "bytes"
        },
        {
          "internalType": "bytes",
          "name": "err",
          "type": "bytes"
        }
      ],
      "name": "handleOracleFulfillment",
      "outputs": [],
      "stateMutability": "nonpayable",
      "type": "function"
    },
    {
      "inputs": [],
      "name": "minimumSubscriptionDeposit",
      "outputs": [
        {
          "internalType": "uint256",
          "name": "",
          "type": "uint256"
        }
      ],
      "stateMutability": "view",
      "type": "function"
    },
    {
      "inputs": [
        {
          "internalType": "bytes32",
          "name": "functionId",
          "type": "bytes32"
        }
      ],
      "name": "moveSubscriptionToUnlock",
      "outputs": [],
      "stateMutability": "nonpayable",
      "type": "function"
    },
    {
      "inputs": [],
      "name": "owner",
      "outputs": [
        {
          "internalType": "address",
          "name": "",
          "type": "address"
        }
      ],
      "stateMutability": "view",
      "type": "function"
    },
    {
      "inputs": [
        {
          "components": [
            {
              "internalType": "uint256",
              "name": "fees",
              "type": "uint256"
            },
            {
              "internalType": "string",
              "name": "functionName",
              "type": "string"
            },
            {
              "internalType": "string",
              "name": "desc",
              "type": "string"
            },
            {
              "internalType": "string",
              "name": "imageUrl",
              "type": "string"
            },
            {
              "internalType": "string[]",
              "name": "expectedArgs",
              "type": "string[]"
            },
            {
              "internalType": "enum Functions.Location",
              "name": "codeLocation",
              "type": "uint8"
            },
            {
              "internalType": "enum Functions.Location",
              "name": "secretsLocation",
              "type": "uint8"
            },
            {
              "internalType": "enum Functions.CodeLanguage",
              "name": "language",
              "type": "uint8"
            },
            {
              "internalType": "bytes32",
              "name": "category",
              "type": "bytes32"
            },
            {
              "internalType": "uint64",
              "name": "subId",
              "type": "uint64"
            },
            {
              "internalType": "string",
              "name": "source",
              "type": "string"
            },
            {
              "internalType": "bytes",
              "name": "secrets",
              "type": "bytes"
            }
          ],
          "internalType": "struct FunctionsManager.FunctionsRegisterRequest",
          "name": "request",
          "type": "tuple"
        }
      ],
      "name": "registerFunction",
      "outputs": [
        {
          "internalType": "bytes32",
          "name": "",
          "type": "bytes32"
        }
      ],
      "stateMutability": "payable",
      "type": "function"
    },
    {
      "inputs": [
        {
          "internalType": "uint256",
          "name": "_baseFee",
          "type": "uint256"
        }
      ],
      "name": "setBaseFee",
      "outputs": [],
      "stateMutability": "nonpayable",
      "type": "function"
    },
    {
      "inputs": [
        {
          "internalType": "uint32",
          "name": "_feeManagerCut",
          "type": "uint32"
        }
      ],
      "name": "setFeeManagerCut",
      "outputs": [],
      "stateMutability": "nonpayable",
      "type": "function"
    },
    {
      "inputs": [
        {
          "internalType": "uint256",
          "name": "_minimumDeposit",
          "type": "uint256"
        }
      ],
      "name": "setMinimumDeposit",
      "outputs": [],
      "stateMutability": "nonpayable",
      "type": "function"
    },
    {
      "inputs": [
        {
          "internalType": "address",
          "name": "to",
          "type": "address"
        }
      ],
      "name": "transferOwnership",
      "outputs": [],
      "stateMutability": "nonpayable",
      "type": "function"
    }
  ],
  "bytecode": "0x608060409080825234620002345760c08162004684803803809162000025828562000239565b83398101031262000234576200003b8162000273565b906020916200004c83830162000273565b906200005a85840162000273565b9360608401519260808501519463ffffffff8616809603620002345760a00151600080546001600160a01b03199081166001600160a01b03998a1617825591979194919390913315620001f057338660025416176002556702c68af0bb140000600d556729a2241af62c0000600e556064881162000192579080858493168088600a541617600a5560448c518095819363095ea7b360e01b8352306004840152683635c9adc5dea0000060248401525af18015620001885762000147575b5050501690600b541617600b55600d5563ffffffff19600f541617600f55600e55516143fb9081620002898239f35b81813d831162000180575b6200015e818362000239565b810103126200017c5751801515036200017957808062000118565b80fd5b5080fd5b503d62000152565b8a513d85823e3d90fd5b895162461bcd60e51b815260048101839052603160248201527f466565206d616e6167657220637574206d757374206265206c6573732074686160448201527006e206f7220657175616c20746f2031303607c1b6064820152608490fd5b895162461bcd60e51b815260048101839052601860248201527f43616e6e6f7420736574206f776e657220746f207a65726f00000000000000006044820152606490fd5b600080fd5b601f909101601f19168101906001600160401b038211908210176200025d57604052565b634e487b7160e01b600052604160045260246000fd5b51906001600160a01b0382168203620002345756fe6080604052600436101561001257600080fd5b60003560e01c80630b562aa9146101b75780630ca76175146101b25780631ac67b34146101ad5780634351077d146101a857806346860698146101a35780635178d6731461019e5780635d81e33e146101995780636ef25c3a1461019457806379ba50971461018f5780637b0caaa21461018a5780637bcb334d146101855780638913aa6d146101805780638a5fa21c1461017b5780638da5cb5b14610176578063a36df5c214610171578063ba9c513f1461016c578063d328a91e14610167578063d4b3917514610162578063d5549c8a1461015d578063de76f05314610158578063df51822014610153578063e67950d31461014e578063e78ec42e14610149578063efb6c14014610144578063f2fde38b1461013f5763f99bc9581461013a57600080fd5b611b87565b611ac0565b611a6d565b611a21565b6118d6565b61172c565b611691565b611673565b611567565b6113a4565b61132d565b6112a2565b61127b565b61117d565b6110ee565b611067565b611030565b610f66565b610f48565b610c1d565b610b2e565b610ae2565b6109f4565b6108f1565b610377565b6101cc565b60009103126101c757565b600080fd5b346101c75760003660031901126101c7576020600e54604051908152f35b634e487b7160e01b600052604160045260246000fd5b60c0810190811067ffffffffffffffff82111761021c57604052565b6101ea565b67ffffffffffffffff811161021c57604052565b6040810190811067ffffffffffffffff82111761021c57604052565b6060810190811067ffffffffffffffff82111761021c57604052565b90601f8019910116810190811067ffffffffffffffff82111761021c57604052565b6040519061029c82610200565b565b60405190610180820182811067ffffffffffffffff82111761021c57604052565b67ffffffffffffffff811161021c57601f01601f191660200190565b9291926102e7826102bf565b916102f5604051938461026d565b8294818452818301116101c7578281602093846000960137010152565b9080601f830112156101c75781602061032d933591016102db565b90565b60606003198201126101c7576004359167ffffffffffffffff6024358181116101c7578361036091600401610312565b926044359182116101c75761032d91600401610312565b346101c75761038536610330565b919060009282845260016020526001600160a01b039182604086205416330361050b577f7bab0ec163b5c132c72b8146ac4d6e067e82ed58f8b131150aa71c9258911562928486526001602052604086206001600160a01b03198154169055847f85e1543bf2f84fe80c6badbce3648c8539ad1df4d2b3d822938ca0538be727e68780a284807f6968e95d7bc2605bb814d168859020d6e2f617bc615d1ae5aef0ce68af0d1631610440826000526005602052604060002090565b9360018501610453828254161515612f2e565b6104608760048801611f78565b61046d8860058801611f78565b6104f3888860026104e26104d461048f8c546000526004602052604060002090565b966104c760018901986104c26104bb6104af8c546001600160a01b031690565b6001600160a01b031690565b1515612e7f565b612eca565b546001600160a01b031690565b95546001600160a01b031690565b990154604051958695169985612f79565b0390a461050560405192839283612fb9565b0390a280f35b60046040517fa0c5ec63000000000000000000000000000000000000000000000000000000008152fd5b90600182811c92168015610565575b602083101461054f57565b634e487b7160e01b600052602260045260246000fd5b91607f1691610544565b906040519182600082549261058384610535565b9081845260019485811690816000146105f057506001146105ad575b505061029c9250038361026d565b9093915060005260209081600020936000915b8183106105d857505061029c9350820101388061059f565b855488840185015294850194879450918301916105c0565b91505061029c94506020925060ff191682840152151560051b820101388061059f565b634e487b7160e01b600052602160045260246000fd5b6002111561063357565b610613565b60028210156106335752565b6001111561063357565b60018210156106335752565b67ffffffffffffffff811161021c5760051b60200190565b90815461067e8161065a565b9261068c604051948561026d565b818452600090815260208082208186015b8484106106ab575050505050565b60018381926106b98561056f565b81520192019301929061069d565b906040516106d481610200565b60a06107376003839561070f60ff82546106f082821689610638565b610702828260081c1660208a01610638565b60101c166040870161064e565b61071b6001820161056f565b606086015261072c6002820161056f565b608086015201610672565b910152565b60005b83811061074f5750506000910152565b818101518382015260200161073f565b906020916107788151809281855285808601910161073c565b601f01601f1916010190565b9060028210156106335752565b908082519081815260208091019281808460051b8301019501936000915b8483106107bf5750505050505090565b90919293949584806107dd600193601f198682030187528a5161075f565b98019301930191949392906107af565b6107f8828251610784565b61080a60208201516020840190610784565b60408101519160018310156106335761032d92604082015260a0610852610840606085015160c0606086015260c085019061075f565b6080850151848203608086015261075f565b9201519060a0818403910152610791565b979b9a999693946108b16108db9667ffffffffffffffff6108cd968c60206101409f9c986001600160a01b03906108bf998452169101521660408c01526101608060608d01528b019061075f565b9089820360808b015261075f565b9087820360a089015261075f565b9085820360c08701526107ed565b9660e08401526101008301526101208201520152565b346101c75760203660031901126101c75760043560005260046020526040600020805461098a6001830154926109296002820161056f565b906109366003820161056f565b6109426004830161056f565b61094e600684016106c7565b600a84015491600b85015493600d600c870154960154966040519a8b9a6001600160a01b0367ffffffffffffffff8360a01c169216908c610863565b0390f35b9061032d9160208152815160208201526001600160a01b036020830151166040820152604082015160608201526060820151608082015260a06109df608084015160c08385015260e084019061075f565b9201519060c0601f198285030191015261075f565b346101c75760203660031901126101c75761098a6040808051610a1681610200565b606060a0600092838152836020820152838582015283838201528260808201520152610a758251610a4681610235565b601381527f67657446756e6374696f6e526573706f6e736500000000000000000000000000602082015261410d565b600435815260056020522090610ad36005825193610a9285610200565b805485526001600160a01b03600182015416602086015260028101548486015260038101546060860152610ac86004820161056f565b60808601520161056f565b60a0830152519182918261098e565b346101c75760203660031901126101c7577f803bee7e92bbc6ae7a1551f9f4ed3e31a8ea8df32e93332f41b0028f1091f9c36020600435610b21611be1565b80600d55604051908152a1005b346101c7577f7bab0ec163b5c132c72b8146ac4d6e067e82ed58f8b131150aa71c9258911562610b5d36610330565b90610b69939293611be1565b610b7d846000526005602052604060002090565b84807f6968e95d7bc2605bb814d168859020d6e2f617bc615d1ae5aef0ce68af0d1631600184016001600160a01b0390610bca82610bc283546001600160a01b031690565b161515612f2e565b610bd78760048801611f78565b610be48860058801611f78565b610c06888860026104e26104d461048f8c546000526004602052604060002090565b0390a4610c1860405192839283612fb9565b0390a2005b6003196020368201126101c7576004359067ffffffffffffffff908183116101c757610180836004019184360301126101c75782610c99610ced92602461098a960192610c76610c6d8584611c39565b90501515611c6c565b610cfa610c838584611c39565b6040979188519687916020830193339185611cb7565b0395610cad601f199788810183528261026d565b519020610cdd610cd8610cd4610ccd846000526007602052604060002090565b5460ff1690565b1590565b611cf1565b6000526007602052604060002090565b805460ff19166001179055565b610d20610d19610d08611d95565b336020820152958435875284611c39565b36916102db565b6060850152610d35610d196044830184611c39565b6080850152610d4a610d196064830184611c39565b60a0850152610d66610d5f6084830184611e0b565b36916114bd565b60c0850152610100840195610104820135875261012482019080610d8983611e41565b16610f19575050610da0610d9b611e84565b61410d565b610dbb610dab61243b565b67ffffffffffffffff1685870152565b610dc3611d62565b91610df7610dd360a48401611ebd565b610ddf60e48501611ec7565b610df0610d19610144870186611c39565b9186612fde565b6001610e0560c48401611ebd565b610e0e81610629565b1480610f01575b610edf575b505060e08301528251610e42602082019282610e3686866117fa565b0390810183528261026d565b51902092610e7f6001600160a01b03610e786001610e6a886000526004602052604060002090565b01546001600160a01b031690565b1615611ed1565b610e9c82610e97866000526004602052604060002090565b61221f565b5190837fcb1f2fa95a5c0789716cec3b601c5dd909479353a8ae39ab3e35005df8c8027d845180610ece3395826117fa565b0390a4519081529081906020820190565b610d19610ef491610164610efa940190611c39565b8261302d565b3880610e1a565b50610f10610164830182611c39565b90501515610e15565b81610f3e610dab92610f2d610f4395611e41565b90610f36611e4b565b911690614162565b611e41565b610dbb565b346101c75760003660031901126101c7576020600d54604051908152f35b346101c75760008060031936011261102d576001600160a01b0380600354163303610fe9576002546001600160a01b0316600280546001600160a01b0319163317905590610fbf6001600160a01b031960035416600355565b3391167f8be0079c531659141344cd1fd0a4f28419497f9722a3daafe3b4186f6b6457e08380a380f35b606460405162461bcd60e51b815260206004820152601660248201527f4d7573742062652070726f706f736564206f776e6572000000000000000000006044820152fd5b80fd5b346101c75760003660031901126101c757602063ffffffff600f5416604051908152f35b6044359063ffffffff821682036101c757565b346101c75760603660031901126101c75760243567ffffffffffffffff8082116101c757366023830112156101c75781600401359081116101c7573660248260051b840101116101c75761098a916110cd9160246110c3611054565b9201600435612674565b6040519081529081906020820190565b6001600160a01b038116036101c757565b346101c75760203660031901126101c7576001600160a01b03600435611113816110dd565b166000526008602052611161604060002061098a6111308261056f565b9161116f61114c60026111456001850161056f565b930161056f565b9160405195869560608752606087019061075f565b90858203602087015261075f565b90838203604085015261075f565b346101c75760008060031936011261102d576111cf60405161119e81610235565b601981527f417070726f76696e67207472616e7366657220666f7220257300000000000000602082015233906141be565b6111e46104af600a546001600160a01b031690565b6040517f095ea7b3000000000000000000000000000000000000000000000000000000008152336004820152683635c9adc5dea000006024820152906020908290604490829086905af1801561127657611245918391611248575b50612a2b565b80f35b611269915060203d811161126f575b611261818361026d565b8101906123fe565b3861123f565b503d611257565b6123f2565b346101c75760003660031901126101c75760206001600160a01b0360025416604051908152f35b346101c75760203660031901126101c75760043560005260056020526040600020805461098a6001600160a01b036001840154169261131f60028201549160038101546112f660056111456004850161056f565b93604051978897885260208801526040870152606086015260c0608086015260c085019061075f565b9083820360a085015261075f565b346101c75760203660031901126101c75760043563ffffffff81168091036101c75760207f5df6c53187c7cfa2643679f49eee9fc8a62e23a074ed0b12f17b5635c25f721d9161137b611be1565b8063ffffffff19600f541617600f55604051908152a1005b90602061032d92818152019061075f565b346101c75760008060031936011261102d576004816001600160a01b03815416604051928380927fd328a91e0000000000000000000000000000000000000000000000000000000082525afa90811561127657829161140c575b6040518061098a8482611393565b90503d8083833e61141d818361026d565b81019060208183031261148b5780519067ffffffffffffffff821161148f570181601f8201121561148b57805192611454846102bf565b92611462604051948561026d565b8484526020858401011161102d575061098a92611485916020808501910161073c565b386113fe565b8280fd5b8380fd5b600211156101c757565b359061029c82611493565b600111156101c757565b359061029c826114a8565b929190926114ca8461065a565b916114d8604051938461026d565b829480845260208094019060051b8301928284116101c75780915b84831061150257505050505050565b823567ffffffffffffffff81116101c75786916115228684938601610312565b8152019201916114f3565b9080601f830112156101c75781602061032d933591016114bd565b67ffffffffffffffff8116036101c757565b6024359061029c82611548565b346101c7576003196080368201126101c75760043567ffffffffffffffff918282116101c75760c09082360301126101c7576115a161028f565b6115ad8260040161149d565b81526115bb6024830161149d565b60208201526115cc604483016114b2565b604082015260648201358381116101c7576115ed9060043691850101610312565b606082015260848201358381116101c75761160e9060043691850101610312565b608082015260a48201359283116101c75761163561165492600461098a953692010161152d565b60a082015261164261155a565b61164a611054565b90606435926130c6565b6040516bffffffffffffffffffffffff90911681529081906020820190565b346101c75760003660031901126101c7576020600c54604051908152f35b346101c75760203660031901126101c7576116aa611be1565b600435600052600460205260406000206116d26001600160a01b036001830154161515612e7f565b6116da611be1565b805463ffffffff9081600f54166064039082821161172757606492611700921690612073565b0490600d810190815483810390811161172757600c92550180549182018092116117275755005b612047565b346101c75760003660031901126101c75761177d60405161174c81610235565b601681527f47657474696e672062616c616e636520666f7220257300000000000000000000602082015233906141be565b600a546040516370a0823160e01b815233600482015290602090829060249082906001600160a01b03165afa80156112765761098a916000916117cc575b506040519081529081906020820190565b6117ed915060203d81116117f3575b6117e5818361026d565b810190612a1c565b386117bb565b503d6117db565b60208082528251828201528201516001600160a01b03166040820152604082015167ffffffffffffffff1660608201526060820151611847610180918260808501526101a084019061075f565b926118ab61189561188161186d608085015197601f1998898983030160a08a015261075f565b60a0850151888883030160c089015261075f565b60c0840151878783030160e0880152610791565b60e08301516101009686830301878701526107ed565b9381015161012090818501528101516101409081850152810151906101609182850152015191015290565b346101c75760203660031901126101c7576118ef611d95565b5061192e6040516118ff81610235565b600b81527f67657446756e6374696f6e000000000000000000000000000000000000000000602082015261410d565b600435600052600460205261098a6040600020600d61194b61029e565b918054835261199767ffffffffffffffff60018301546119806001600160a01b03821660208801906001600160a01b03169052565b60a01c16604085019067ffffffffffffffff169052565b6119a36002820161056f565b60608401526119b46003820161056f565b60808401526119c56004820161056f565b60a08401526119d660058201610672565b60c08401526119e7600682016106c7565b60e0840152600a810154610100840152600b810154610120840152600c8101546101408401520154610160820152604051918291826117fa565b346101c75760203660031901126101c7577ff310923b17686bb5bfbd2bc7e25960dac092be75769b675fbf4909d7de77916b6020600435611a60611be1565b80600e55604051908152a1005b346101c75760203660031901126101c75767ffffffffffffffff600435611a9381611548565b16600052600960205261098a611aac604060002061056f565b60405191829160208352602083019061075f565b346101c75760203660031901126101c7576001600160a01b03600435611ae5816110dd565b611aed611be1565b16338114611b4357806001600160a01b03196003541617600355611b1c6104af6002546001600160a01b031690565b7fed8889f560326eb138920d842192f0eb3dd22b4f139c87a2c57538e05bae1278600080a3005b606460405162461bcd60e51b815260206004820152601760248201527f43616e6e6f74207472616e7366657220746f2073656c660000000000000000006044820152fd5b346101c75760203660031901126101c75760043560005260046020526040600020611bc06001600160a01b036001830154161515612e7f565b600b8101600c81549201918254908101809111611727576000925555600080f35b6001600160a01b03600254163303611bf557565b606460405162461bcd60e51b815260206004820152601660248201527f4f6e6c792063616c6c61626c65206279206f776e6572000000000000000000006044820152fd5b903590601e19813603018212156101c7570180359067ffffffffffffffff82116101c7576020019181360383136101c757565b15611c7357565b606460405162461bcd60e51b815260206004820152601d60248201527f46756e6374696f6e206e616d652063616e6e6f7420626520656d7074790000006044820152fd5b916060816001600160a01b039260209497969760408752816040880152838701376000828287010152601f80199101168401019416910152565b15611cf857565b608460405162461bcd60e51b815260206004820152602b60248201527f46756e6374696f6e206e616d6520616c72656164792065786973747320666f7260448201527f2074686973206f776e65720000000000000000000000000000000000000000006064820152fd5b60405190611d6f82610200565b606060a08360008152600060208201526000604082015282808201528260808201520152565b60405190610180820182811067ffffffffffffffff82111761021c576040528161016060009182815282602082015282604082015260608082015260606080820152606060a0820152606060c0820152611ded611d62565b60e08201528261010082015282610120820152826101408201520152565b903590601e19813603018212156101c7570180359067ffffffffffffffff82116101c757602001918160051b360383136101c757565b3561032d81611548565b60405190611e5882610235565b601e82527f7573696e67206578697374696e6720737562736372697074696f6e20256400006020830152565b60405190611e9182610235565b601982527f6372656174696e67206e657720737562736372697074696f6e000000000000006020830152565b3561032d81611493565b3561032d816114a8565b15611ed857565b606460405162461bcd60e51b815260206004820152601760248201527f46756e6374696f6e20616c7265616479206578697374730000000000000000006044820152fd5b818110611f27575050565b60008155600101611f1c565b9190601f8111611f4257505050565b61029c926000526020600020906020601f840160051c83019310611f6e575b601f0160051c0190611f1c565b9091508190611f61565b919091825167ffffffffffffffff811161021c57611fa081611f9a8454610535565b84611f33565b602080601f8311600114611fdc575081929394600092611fd1575b50508160011b916000199060031b1c1916179055565b015190503880611fbb565b90601f19831695611ff285600052602060002090565b926000905b88821061202f57505083600195969710612016575b505050811b019055565b015160001960f88460031b161c1916905538808061200c565b80600185968294968601518155019501930190611ff7565b634e487b7160e01b600052601160045260246000fd5b908160011b918083046002149015171561172757565b8181029291811591840414171561172757565b81519168010000000000000000831161021c5781548383558084106120e9575b506120bb602080920192600052602060002090565b6000925b8484106120cd575050505050565b600183826120dd83945186611f78565b019201930192906120bf565b6000838152846020822092830192015b8281106121075750506120a6565b8061211460019254610535565b80612121575b50016120f9565b601f9081811184146121395750508281555b3861211a565b8361215b9261214d85600052602060002090565b920160051c82019101611f1c565b60008181526020812081835555612133565b9060018110156106335762ff000082549160101b169062ff00001916179055565b81519160028310156106335760ff82549316908160ff1985161783556020810151906121b982610629565b60028210156106335761029c9460039361ff0060a09460081b169161ffff1916171784556121f460408201516121ee81610644565b8561216d565b612205606082015160018601611f78565b612216608082015160028601611f78565b01519101612086565b90610160600d91805184556122b66001850161226461224860208501516001600160a01b031690565b82906001600160a01b03166001600160a01b0319825416179055565b604083015181547fffffffff0000000000000000ffffffffffffffffffffffffffffffffffffffff1660a09190911b7bffffffffffffffff000000000000000000000000000000000000000016179055565b6122c7606082015160028601611f78565b6122d8608082015160038601611f78565b6122e960a082015160048601611f78565b6122fa60c082015160058601612086565b61230b60e08201516006860161218e565b610100810151600a850155610120810151600b850155610140810151600c8501550151910155565b1561233a57565b606460405162461bcd60e51b815260206004820152601f60248201527f4d696e696d756d206465706f73697420616d6f756e74206e6f742073656e74006044820152fd5b6040519061238b82610251565b603b82527f2073656e64657220616e642025732061732074782e6f726967696e00000000006040837f6372656174696e6720737562736372697074696f6e207769746820257320617360208201520152565b908160209103126101c7575161032d81611548565b6040513d6000823e3d90fd5b908160209103126101c7575180151581036101c75790565b61032d93926001600160a01b036060931682526020820152816040820152019061075f565b612449600e54341015612333565b61245b323361245661237e565b6142f0565b6124706104af600b546001600160a01b031690565b604051907fa21a23e40000000000000000000000000000000000000000000000000000000082526020908183600481600080955af1928315611276578193612645575b506124c96104af600b546001600160a01b031690565b90813b1561102d576040517f7341c10c00000000000000000000000000000000000000000000000000000000815267ffffffffffffffff851660048201523060248201529181908390604490829084905af1908115611276576125ff92849261262c575b5061256b336125508767ffffffffffffffff166000526006602052604060002090565b906001600160a01b03166001600160a01b0319825416179055565b6125806104af600a546001600160a01b031690565b6125956104af600b546001600160a01b031690565b604051926125c8846125ba8a88830191909167ffffffffffffffff6020820193169052565b03601f19810186528561026d565b6040518096819582947f4000aea0000000000000000000000000000000000000000000000000000000008452349060048501612416565b03925af180156112765761261257505090565b8161262892903d1061126f57611261818361026d565b5090565b8061263961263f92610221565b806101bc565b3861252d565b612666919350823d841161266d575b61265e818361026d565b8101906123dd565b91386124b3565b503d612654565b92909161270e600161271494612688611be1565b612693610d9b612843565b61269c876140b2565b6126b0876000526004602052604060002090565b906126c86126c16002840154610535565b15156128a2565b6126d4600683016106c7565b9480612827575b50506126e8610d9b6128ed565b6126f181612ca1565b6126fc610d9b612926565b015460a01c67ffffffffffffffff1690565b90613522565b90612720610d9b61295f565b612729826140b2565b612747612740836000526005602052604060002090565b5415612998565b8061275c836000526005602052604060002090565b55612793336001612777856000526005602052604060002090565b01906001600160a01b03166001600160a01b0319825416179055565b61279e610d9b6129e3565b816127b86001610e6a846000526004602052604060002090565b917fc9720022133669f887636011749fb494b606ffd3a817aab09e90b8a2427dbe08600d546127f1836000526004602052604060002090565b54604080516001600160a01b039790971687526000602088018190529087015260608601919091526080850152339360a090a490565b61283c916128369136916114bd565b8561306b565b38806126db565b6040519061285082610251565b602682527f696f6e49643a00000000000000000000000000000000000000000000000000006040837f65786563757465526571756573742063616c6c656420776974682066756e637460208201520152565b156128a957565b606460405162461bcd60e51b815260206004820152601a60248201527f66756e6374696f6e206973206e6f7420726567697374657265640000000000006044820152fd5b604051906128fa82610235565b601b82527f636f6c6c656374696e6720616e64206c6f636b696e67206665657300000000006020830152565b6040519061293382610235565b601982527f73656e64696e672066756e6374696f6e732072657175657374000000000000006020830152565b6040519061296c82610235565b600d82527f7265717565737449642069733a000000000000000000000000000000000000006020830152565b1561299f57565b606460405162461bcd60e51b815260206004820152601960248201527f5265717565737420494420616c726561647920657869737473000000000000006044820152fd5b604051906129f082610235565b601d82527f656d697474696e672046756e6374696f6e43616c6c6564206576656e740000006020830152565b908160209103126101c7575190565b15612a3257565b606460405162461bcd60e51b815260206004820152600f60248201527f417070726f76616c206661696c656400000000000000000000000000000000006044820152fd5b60405190612a8382610235565b601982527f73656e646572202573204c494e4b2062616c616e6365202564000000000000006020830152565b906020820180921161172757565b9190820180921161172757565b15612ad157565b608460405162461bcd60e51b815260206004820152603160248201527f596f7520646f206e6f74206861766520656e6f756768204c494e4b20746f206360448201527f616c6c20746869732066756e6374696f6e0000000000000000000000000000006064820152fd5b15612b4257565b608460405162461bcd60e51b815260206004820152602260248201527f4661696c656420746f20636f6c6c65637420666565732066726f6d2063616c6c60448201527f65720000000000000000000000000000000000000000000000000000000000006064820152fd5b60405190612bb982610251565b603d82527f7074696f6e20706f6f6c2c20746f74616c20696e20706f6f6c3a2025640000006040837f61646465642062617365466565202564204c494e4b20746f207375627363726960208201520152565b604051906080820182811067ffffffffffffffff82111761021c57604052605182527f6f74616c20696e20706f6f6c3a202564200000000000000000000000000000006060837f746f6f6b2025642066726f6d20666565206f66202564204c494e4b20616e642060208201527f616464656420746f206665654d616e6167657250726f666974506f6f6c2c207460408201520152565b612cb66104af600a546001600160a01b031690565b6040516370a0823160e01b8082523360048301529192916020918281602481885afa801561127657612cf991600091612e62575b5033612cf4612a76565b614285565b6040519081523360048201528181602481875afa908115611276576000948392612d88928791612e45575b50612d3f600d5491612d3888548094612abd565b1115612aca565b6040517f23b872dd000000000000000000000000000000000000000000000000000000008152336004820152306024820152604481019190915295869283919082906064820190565b03925af180156112765761029c93612da992600092612e28575b5050612b3b565b612dd1600b8201612dbe8154600d5490612abd565b809155600d54612dcc612bac565b614223565b612e01612dfa8254612df4612deb600f5463ffffffff1690565b63ffffffff1690565b90612073565b6064900490565b90612e16612e1183600c54612abd565b600c55565b54600c5491612e23612c0b565b61435e565b612e3e9250803d1061126f57611261818361026d565b3880612da2565b612e5c9150843d86116117f3576117e5818361026d565b38612d24565b612e799150843d86116117f3576117e5818361026d565b38612cea565b15612e8657565b606460405162461bcd60e51b815260206004820152601760248201527f46756e6374696f6e20646f6573206e6f742065786973740000000000000000006044820152fd5b612ed2611be1565b805463ffffffff9081600f54166064039082821161172757606492612ef8921690612073565b0490600d810190815483810390811161172757600c92550180549182018092116117275755565b601f1981019190821161172757565b15612f3557565b606460405162461bcd60e51b815260206004820152601260248201527f496e76616c6964207265717565737420494400000000000000000000000000006044820152fd5b9261032d94926001600160a01b03612fab9316855260208501526000604085015260a0606085015260a084019061075f565b91608081840391015261075f565b9091612fd061032d9360408452604084019061075f565b91602081840391015261075f565b9083511561300357606092612ff6612fff9284610638565b6040830161064e565b0152565b60046040517f22ce3edd000000000000000000000000000000000000000000000000000000008152fd5b815115613041576001602082015260800152565b60046040517fe889636f000000000000000000000000000000000000000000000000000000008152fd5b8151156130785760a00152565b60046040517ffe936cb7000000000000000000000000000000000000000000000000000000008152fd5b908160209103126101c757516bffffffffffffffffffffffff811681036101c75790565b67ffffffffffffffff61313694926020946130ec6001600160a01b036000541694613349565b9463ffffffff604051988997889687967fd227d24500000000000000000000000000000000000000000000000000000000885216600487015260806024870152608486019061075f565b92166044840152606483015203915afa90811561127657600091613158575090565b61032d915060203d8111613179575b613171818361026d565b8101906130a2565b503d613167565b6040519061318d82610235565b6000602083606081520152565b604051906131a782610235565b60006020836131b4613180565b81520152565b604051906131c782610235565b600c82527f636f64654c6f636174696f6e00000000000000000000000000000000000000006020830152565b6040519061320082610235565b600882527f6c616e67756167650000000000000000000000000000000000000000000000006020830152565b6040519061323982610235565b600682527f736f7572636500000000000000000000000000000000000000000000000000006020830152565b6040519061327282610235565b600482527f61726773000000000000000000000000000000000000000000000000000000006020830152565b60001981146117275760010190565b80518210156132c15760209160051b010190565b634e487b7160e01b600052603260045260246000fd5b604051906132e482610235565b600f82527f736563726574734c6f636174696f6e00000000000000000000000000000000006020830152565b6040519061331d82610235565b600782527f73656372657473000000000000000000000000000000000000000000000000006020830152565b61335161319a565b9061335c825161367b565b5061336e6133686131ba565b83613d71565b61338b815161337c81610629565b61338581610629565b836136fa565b6133966133686131f3565b6133b060408201516133a781610644565b61338581610644565b6133bb61336861322c565b6133c9606082015183613d71565b60a08101805151613481575b5060808101908151516133ea575b5050515190565b6020019081516133f981610629565b61340281610629565b15613457576134386134509261341f6134196132d7565b86613d71565b5161342981610629565b61343281610629565b846136fa565b613449613443613310565b84613d71565b5182613cbb565b38806133e3565b60046040517fa80d31f7000000000000000000000000000000000000000000000000000000008152fd5b9261348d613443613265565b61349683613df6565b60005b845180518210156134c657906134bc6134b5826134c1946132ad565b5186613d71565b61329e565b613499565b505092506134d382613e82565b386133d5565b9161350663ffffffff9167ffffffffffffffff60409497969716855260606020860152606085019061075f565b9416910152565b908160209103126101c7575161032d816110dd565b613584929160009384926135496135436104af86546001600160a01b031690565b91613349565b946040519687809481937f28242b040000000000000000000000000000000000000000000000000000000083526020998a98600485016134d9565b03925af1928315611276578193613659575b5080826135af6104af600494546001600160a01b031690565b604051938480927f5ab1bd530000000000000000000000000000000000000000000000000000000082525afa9283156112765784937f1131472297a800fee664d1d89cfa8f7676ff07189ecc53f80bbb5f4969099db89361362792849261362c575b5050612550856000526001602052604060002090565b80a290565b61364b9250803d10613652575b613643818361026d565b81019061350d565b3880613611565b503d613639565b600491935061367490833d85116117f3576117e5818361026d565b9290613596565b613683613180565b5061010060208201526040518082526000815261012081019081106101c75760405290565b906136b1613180565b50601f8116806136e0575b50806020830152604051908183526000825281016020019081106101c75760405290565b6020036020811161172757810180911161172757386136bc565b90815191613706613180565b50825151600181019081811161172757602085015181101561375f575b60c2602061029c9651928301015380518211613757575b50506040519160208301526020825261375282610235565b613cbb565b52388061373a565b8160011b94828604600214831517156117275760208161379161029c9861378a60c2955191846136a8565b5082613c03565b5096505050613723565b6137a3613180565b5080515160018101908181116117275760208301518110156137dc575b605b602084519283010153805182116137d857505090565b5290565b8160011b8281046002148315171561172757613805906137fe855191866136a8565b5084613c03565b506137c0565b613813613180565b508051516001810190818111611727576020830151811015613848575b605a602084519283010153805182116137d857505090565b8160011b828104600214831517156117275761386a906137fe855191866136a8565b50613830565b613878613180565b5080515160018101908181116117275760208301518110156138ad575b6059602084519283010153805182116137d857505090565b8160011b82810460021483151715611727576138cf906137fe855191866136a8565b50613895565b6138dd613180565b508051516001810190818111611727576020830151811015613912575b6058602084519283010153805182116137d857505090565b8160011b8281046002148315171561172757613934906137fe855191866136a8565b506138fa565b613942613180565b508051516001810190818111611727576020830151811015613977575b607b602084519283010153805182116137d857505090565b8160011b8281046002148315171561172757613999906137fe855191866136a8565b5061395f565b6139a7613180565b5080515160018101908181116117275760208301518110156139dc575b607a602084519283010153805182116137d857505090565b8160011b82810460021483151715611727576139fe906137fe855191866136a8565b506139c4565b613a0c613180565b508051516001810190818111611727576020830151811015613a41575b6079602084519283010153805182116137d857505090565b8160011b8281046002148315171561172757613a63906137fe855191866136a8565b50613a29565b613a71613180565b508051516001810190818111611727576020830151811015613aa6575b6078602084519283010153805182116137d857505090565b8160011b8281046002148315171561172757613ac8906137fe855191866136a8565b50613a8e565b90613ad7613180565b508151516001810191828211611727576020840151821015613b0a575b602084519283010153805182116137d857505090565b8260011b8381046002148415171561172757613b3390613b2c865191876136a8565b5085613c03565b50613af4565b90613b46825191836136a8565b50613b4f613180565b50805190613b5b613180565b50613b698151831115613cb4565b82515192613b778385612abd565b916020928284809401518211613bec575b5183815197820101968211613be4575b505001915b81811015613bbe5760001991036101000a0190811990511690825116179052565b9192613bd9613bd3613bdf9286518152612aaf565b94612aaf565b92612f1f565b613b9d565b523880613b98565b613bfe613bf88361205d565b82613b39565b613b88565b90613c0c613180565b508051613c17613180565b50613c258251821115613cb4565b82515191613c338284612abd565b6020918291828701518111613c9d575b865183815197820101968211613c95575b505001915b81811015613c7b5760001991036101000a019081199051169082511617905290565b9192613bd9613bd3613c909286518152612aaf565b613c59565b523880613c54565b613caf613ca98261205d565b88613b39565b613c43565b156101c757565b8151613cf392919067ffffffffffffffff81169060178211613cf657613ceb9150604060ff845192161790613ace565b505b51613c03565b50565b5060ff8111613d1b57613d1590613d0d83516138d5565b50825161404c565b50613ced565b61ffff8111613d3a57613d1590613d328351613870565b508251613fe5565b63ffffffff8111613d5b57613d1590613d53835161380b565b508251613f7c565b613d1590613d69835161379b565b508251613f0f565b8151613cf392919067ffffffffffffffff81169060178211613da157613ceb9150606060ff845192161790613ace565b5060ff8111613db857613d1590613d0d8351613a69565b61ffff8111613dcf57613d1590613d328351613a04565b63ffffffff8111613de857613d1590613d53835161399f565b613d1590613d69835161393a565b805190613e01613180565b508151516001810190818111611727576020840151811015613e4f575b609f6020809551928301015380518211613e47575b505001805190600182018092116117275752565b523880613e33565b8160011b938285046002148315171561172757602081613e78829761378a609f955191846136a8565b5095505050613e1e565b805190613e8d613180565b508151516001810190818111611727576020840151811015613edc575b60ff6020809551928301015380518211613ed4575b50500180516000198101919082116117275752565b523880613ebf565b8160011b938285046002148315171561172757602081613f05829761378a60ff955191846136a8565b5095505050613eaa565b90613f18613180565b508151518060080191826008116117275760208401518311613f5b575b60088451928301019067ffffffffffffffff19825116179052805182116137d857505090565b8260011b8381046002148415171561172757613f779085613b39565b613f35565b90613f85613180565b508151518060040191826004116117275760208401518311613fc4575b60048451928301019063ffffffff19825116179052805182116137d857505090565b8260011b8381046002148415171561172757613fe09085613b39565b613fa2565b90613fee613180565b50815151806002019182600211611727576020840151831161402b575b60028451928301019061ffff19825116179052805182116137d857505090565b8260011b83810460021484151715611727576140479085613b39565b61400b565b90614055613180565b508151518060010191826001116117275760208401518311614091575b60018451928301019060ff19825116179052805182116137d857505090565b8260011b83810460021484151715611727576140ad9085613b39565b614072565b61029c90604051907f27b7cf850000000000000000000000000000000000000000000000000000000060208301526024820152602481526140f281610251565b600080916020815191016a636f6e736f6c652e6c6f675afa50565b6141546140f261029c926040519283917f41304fac00000000000000000000000000000000000000000000000000000000602084015260206024840152604483019061075f565b03601f19810183528261026d565b6140f26141aa9161029c936040519384927fb60e72cc00000000000000000000000000000000000000000000000000000000602085015260406024850152606484019061075f565b90604483015203601f19810183528261026d565b6140f261420e9161029c936001600160a01b036040519485937f319af33300000000000000000000000000000000000000000000000000000000602086015260406024860152606485019061075f565b9116604483015203601f19810183528261026d565b6140f29061426c9261029c946040519485937fca47c4eb00000000000000000000000000000000000000000000000000000000602086015260606024860152608485019061075f565b916044840152606483015203601f19810183528261026d565b6140f2906142d69261029c946001600160a01b036040519586947f0d26b92500000000000000000000000000000000000000000000000000000000602087015260606024870152608486019061075f565b92166044840152606483015203601f19810183528261026d565b6140f29061029c93614339936040519485937ffcec75e000000000000000000000000000000000000000000000000000000000602086015260606024860152608485019061075f565b6001600160a01b0391821660448501529116606483015203601f19810183528261026d565b6140f29161029c946143a7946040519586947fa7a878530000000000000000000000000000000000000000000000000000000060208701526080602487015260a486019061075f565b9260448501526064840152608483015203601f19810183528261026d56fea2646970667358221220fdbedaece2d921b529ca97d15364e8f85f7c12378a69f9a9ad05203a8bfcff3564736f6c63430008120033",
  "linkReferences": {},
  "deployedLinkReferences": {}
}