{
  "_format": "hh-sol-artifact-1",
  "contractName": "FunctionsManager",
  "sourceName": "contracts/FunctionsManager.sol",
  "abi": [
    {
      "inputs": [
        {
          "internalType": "address",
          "name": "link",
          "type": "address"
        },
        {
          "internalType": "address",
          "name": "billingRegistryProxy",
          "type": "address"
        },
        {
          "internalType": "address",
          "name": "oracleProxy",
          "type": "address"
        },
        {
          "internalType": "uint96",
          "name": "_baseFee",
          "type": "uint96"
        },
        {
          "internalType": "uint32",
          "name": "_feeManagerCut",
          "type": "uint32"
        },
        {
          "internalType": "uint96",
          "name": "_minimumSubscriptionDeposit",
          "type": "uint96"
        }
      ],
      "stateMutability": "nonpayable",
      "type": "constructor"
    },
    {
      "inputs": [],
      "name": "EmptyArgs",
      "type": "error"
    },
    {
      "inputs": [],
      "name": "EmptySecrets",
      "type": "error"
    },
    {
      "inputs": [],
      "name": "EmptySource",
      "type": "error"
    },
    {
      "inputs": [],
      "name": "NoInlineSecrets",
      "type": "error"
    },
    {
      "inputs": [],
      "name": "RequestIsAlreadyPending",
      "type": "error"
    },
    {
      "inputs": [],
      "name": "RequestIsNotPending",
      "type": "error"
    },
    {
      "inputs": [],
      "name": "SenderIsNotRegistry",
      "type": "error"
    },
    {
      "anonymous": false,
      "inputs": [
        {
          "indexed": false,
          "internalType": "uint256",
          "name": "newBaseFee",
          "type": "uint256"
        }
      ],
      "name": "BaseFeeUpdated",
      "type": "event"
    },
    {
      "anonymous": false,
      "inputs": [
        {
          "indexed": false,
          "internalType": "bytes32",
          "name": "functionId",
          "type": "bytes32"
        }
      ],
      "name": "Debug1",
      "type": "event"
    },
    {
      "anonymous": false,
      "inputs": [
        {
          "indexed": false,
          "internalType": "bytes32",
          "name": "requestId",
          "type": "bytes32"
        }
      ],
      "name": "Debug2",
      "type": "event"
    },
    {
      "anonymous": false,
      "inputs": [
        {
          "indexed": false,
          "internalType": "uint256",
          "name": "newFeeManagerCut",
          "type": "uint256"
        }
      ],
      "name": "FeeManagerCutUpdated",
      "type": "event"
    },
    {
      "anonymous": false,
      "inputs": [
        {
          "indexed": false,
          "internalType": "bytes32",
          "name": "requestId",
          "type": "bytes32"
        },
        {
          "indexed": false,
          "internalType": "bytes",
          "name": "response",
          "type": "bytes"
        },
        {
          "indexed": false,
          "internalType": "bytes",
          "name": "err",
          "type": "bytes"
        }
      ],
      "name": "FulfillRequest",
      "type": "event"
    },
    {
      "anonymous": false,
      "inputs": [
        {
          "indexed": true,
          "internalType": "bytes32",
          "name": "functionId",
          "type": "bytes32"
        },
        {
          "indexed": true,
          "internalType": "bytes32",
          "name": "requestId",
          "type": "bytes32"
        },
        {
          "indexed": true,
          "internalType": "address",
          "name": "caller",
          "type": "address"
        },
        {
          "indexed": false,
          "internalType": "address",
          "name": "owner",
          "type": "address"
        },
        {
          "indexed": false,
          "internalType": "bytes32",
          "name": "callbackFunction",
          "type": "bytes32"
        },
        {
          "indexed": false,
          "internalType": "bytes",
          "name": "response",
          "type": "bytes"
        },
        {
          "indexed": false,
          "internalType": "bytes",
          "name": "err",
          "type": "bytes"
        }
      ],
      "name": "FunctionCallCompleted",
      "type": "event"
    },
    {
      "anonymous": false,
      "inputs": [
        {
          "indexed": true,
          "internalType": "bytes32",
          "name": "functionId",
          "type": "bytes32"
        },
        {
          "indexed": true,
          "internalType": "bytes32",
          "name": "requestId",
          "type": "bytes32"
        },
        {
          "indexed": true,
          "internalType": "address",
          "name": "caller",
          "type": "address"
        },
        {
          "indexed": false,
          "internalType": "address",
          "name": "owner",
          "type": "address"
        },
        {
          "indexed": false,
          "internalType": "bytes32",
          "name": "callbackFunction",
          "type": "bytes32"
        },
        {
          "indexed": false,
          "internalType": "uint96",
          "name": "baseFee",
          "type": "uint96"
        },
        {
          "indexed": false,
          "internalType": "uint96",
          "name": "fee",
          "type": "uint96"
        }
      ],
      "name": "FunctionCalled",
      "type": "event"
    },
    {
      "anonymous": false,
      "inputs": [
        {
          "indexed": true,
          "internalType": "bytes32",
          "name": "functionId",
          "type": "bytes32"
        },
        {
          "indexed": true,
          "internalType": "address",
          "name": "owner",
          "type": "address"
        },
        {
          "indexed": true,
          "internalType": "bytes32",
          "name": "category",
          "type": "bytes32"
        },
        {
          "components": [
            {
              "internalType": "address",
              "name": "owner",
              "type": "address"
            },
            {
              "internalType": "uint64",
              "name": "subId",
              "type": "uint64"
            },
            {
              "internalType": "string",
              "name": "name",
              "type": "string"
            },
            {
              "internalType": "string",
              "name": "desc",
              "type": "string"
            },
            {
              "internalType": "string",
              "name": "imageUrl",
              "type": "string"
            },
            {
              "internalType": "string[]",
              "name": "expectedArgs",
              "type": "string[]"
            },
            {
              "components": [
                {
                  "internalType": "enum Functions.Location",
                  "name": "codeLocation",
                  "type": "uint8"
                },
                {
                  "internalType": "enum Functions.Location",
                  "name": "secretsLocation",
                  "type": "uint8"
                },
                {
                  "internalType": "enum Functions.CodeLanguage",
                  "name": "language",
                  "type": "uint8"
                },
                {
                  "internalType": "string",
                  "name": "source",
                  "type": "string"
                },
                {
                  "internalType": "bytes",
                  "name": "secrets",
                  "type": "bytes"
                },
                {
                  "internalType": "string[]",
                  "name": "args",
                  "type": "string[]"
                }
              ],
              "internalType": "struct Functions.Request",
              "name": "request",
              "type": "tuple"
            },
            {
              "internalType": "bytes32",
              "name": "category",
              "type": "bytes32"
            },
            {
              "internalType": "uint96",
              "name": "fee",
              "type": "uint96"
            }
          ],
          "indexed": false,
          "internalType": "struct FunctionsManager.FunctionMetadata",
          "name": "metadata",
          "type": "tuple"
        }
      ],
      "name": "FunctionRegistered",
      "type": "event"
    },
    {
      "anonymous": false,
      "inputs": [
        {
          "indexed": false,
          "internalType": "uint256",
          "name": "newMinimumDeposit",
          "type": "uint256"
        }
      ],
      "name": "MinimumSubscriptionDepositUpdated",
      "type": "event"
    },
    {
      "anonymous": false,
      "inputs": [
        {
          "indexed": true,
          "internalType": "bytes32",
          "name": "requestId",
          "type": "bytes32"
        },
        {
          "indexed": false,
          "internalType": "bytes",
          "name": "result",
          "type": "bytes"
        },
        {
          "indexed": false,
          "internalType": "bytes",
          "name": "err",
          "type": "bytes"
        }
      ],
      "name": "OCRResponse",
      "type": "event"
    },
    {
      "anonymous": false,
      "inputs": [
        {
          "indexed": true,
          "internalType": "address",
          "name": "from",
          "type": "address"
        },
        {
          "indexed": true,
          "internalType": "address",
          "name": "to",
          "type": "address"
        }
      ],
      "name": "OwnershipTransferRequested",
      "type": "event"
    },
    {
      "anonymous": false,
      "inputs": [
        {
          "indexed": true,
          "internalType": "address",
          "name": "from",
          "type": "address"
        },
        {
          "indexed": true,
          "internalType": "address",
          "name": "to",
          "type": "address"
        }
      ],
      "name": "OwnershipTransferred",
      "type": "event"
    },
    {
      "anonymous": false,
      "inputs": [
        {
          "indexed": true,
          "internalType": "bytes32",
          "name": "id",
          "type": "bytes32"
        }
      ],
      "name": "RequestFulfilled",
      "type": "event"
    },
    {
      "anonymous": false,
      "inputs": [
        {
          "indexed": true,
          "internalType": "bytes32",
          "name": "id",
          "type": "bytes32"
        }
      ],
      "name": "RequestSent",
      "type": "event"
    },
    {
      "inputs": [],
      "name": "acceptOwnership",
      "outputs": [],
      "stateMutability": "nonpayable",
      "type": "function"
    },
    {
      "inputs": [
        {
          "internalType": "address",
          "name": "_spender",
          "type": "address"
        },
        {
          "internalType": "uint256",
          "name": "_value",
          "type": "uint256"
        }
      ],
      "name": "approveTokenSpender",
      "outputs": [],
      "stateMutability": "nonpayable",
      "type": "function"
    },
    {
      "inputs": [
        {
          "internalType": "address",
          "name": "",
          "type": "address"
        }
      ],
      "name": "authorMetadata",
      "outputs": [
        {
          "internalType": "string",
          "name": "name",
          "type": "string"
        },
        {
          "internalType": "string",
          "name": "imageUrl",
          "type": "string"
        },
        {
          "internalType": "string",
          "name": "websiteUrl",
          "type": "string"
        }
      ],
      "stateMutability": "view",
      "type": "function"
    },
    {
      "inputs": [],
      "name": "baseFee",
      "outputs": [
        {
          "internalType": "uint96",
          "name": "",
          "type": "uint96"
        }
      ],
      "stateMutability": "view",
      "type": "function"
    },
    {
      "inputs": [
        {
          "internalType": "string",
          "name": "functionName",
          "type": "string"
        },
        {
          "internalType": "address",
          "name": "owner",
          "type": "address"
        }
      ],
      "name": "calculateFunctionId",
      "outputs": [
        {
          "internalType": "bytes32",
          "name": "",
          "type": "bytes32"
        }
      ],
      "stateMutability": "pure",
      "type": "function"
    },
    {
      "inputs": [
        {
          "internalType": "uint64",
          "name": "",
          "type": "uint64"
        }
      ],
      "name": "categoryNames",
      "outputs": [
        {
          "internalType": "string",
          "name": "",
          "type": "string"
        }
      ],
      "stateMutability": "view",
      "type": "function"
    },
    {
      "inputs": [
        {
          "components": [
            {
              "internalType": "enum Functions.Location",
              "name": "codeLocation",
              "type": "uint8"
            },
            {
              "internalType": "enum Functions.Location",
              "name": "secretsLocation",
              "type": "uint8"
            },
            {
              "internalType": "enum Functions.CodeLanguage",
              "name": "language",
              "type": "uint8"
            },
            {
              "internalType": "string",
              "name": "source",
              "type": "string"
            },
            {
              "internalType": "bytes",
              "name": "secrets",
              "type": "bytes"
            },
            {
              "internalType": "string[]",
              "name": "args",
              "type": "string[]"
            }
          ],
          "internalType": "struct Functions.Request",
          "name": "req",
          "type": "tuple"
        },
        {
          "internalType": "uint64",
          "name": "subscriptionId",
          "type": "uint64"
        },
        {
          "internalType": "uint32",
          "name": "gasLimit",
          "type": "uint32"
        },
        {
          "internalType": "uint256",
          "name": "gasPrice",
          "type": "uint256"
        }
      ],
      "name": "estimateCost",
      "outputs": [
        {
          "internalType": "uint96",
          "name": "",
          "type": "uint96"
        }
      ],
      "stateMutability": "view",
      "type": "function"
    },
    {
      "inputs": [
        {
          "internalType": "bytes32",
          "name": "functionId",
          "type": "bytes32"
        },
        {
          "internalType": "string[]",
          "name": "args",
          "type": "string[]"
        },
        {
          "internalType": "uint32",
          "name": "gasLimit",
          "type": "uint32"
        }
      ],
      "name": "executeRequest",
      "outputs": [
        {
          "internalType": "bytes32",
          "name": "",
          "type": "bytes32"
        }
      ],
      "stateMutability": "nonpayable",
      "type": "function"
    },
    {
      "inputs": [],
      "name": "feeManagerCut",
      "outputs": [
        {
          "internalType": "uint32",
          "name": "",
          "type": "uint32"
        }
      ],
      "stateMutability": "view",
      "type": "function"
    },
    {
      "inputs": [
        {
          "internalType": "bytes32",
          "name": "functionId",
          "type": "bytes32"
        }
      ],
      "name": "forceUnlockFees",
      "outputs": [],
      "stateMutability": "nonpayable",
      "type": "function"
    },
    {
      "inputs": [],
      "name": "functionManagerProfitPool",
      "outputs": [
        {
          "internalType": "uint96",
          "name": "",
          "type": "uint96"
        }
      ],
      "stateMutability": "view",
      "type": "function"
    },
    {
      "inputs": [
        {
          "internalType": "bytes32",
          "name": "",
          "type": "bytes32"
        }
      ],
      "name": "functionMetadatas",
      "outputs": [
        {
          "internalType": "address",
          "name": "owner",
          "type": "address"
        },
        {
          "internalType": "uint64",
          "name": "subId",
          "type": "uint64"
        },
        {
          "internalType": "string",
          "name": "name",
          "type": "string"
        },
        {
          "internalType": "string",
          "name": "desc",
          "type": "string"
        },
        {
          "internalType": "string",
          "name": "imageUrl",
          "type": "string"
        },
        {
          "components": [
            {
              "internalType": "enum Functions.Location",
              "name": "codeLocation",
              "type": "uint8"
            },
            {
              "internalType": "enum Functions.Location",
              "name": "secretsLocation",
              "type": "uint8"
            },
            {
              "internalType": "enum Functions.CodeLanguage",
              "name": "language",
              "type": "uint8"
            },
            {
              "internalType": "string",
              "name": "source",
              "type": "string"
            },
            {
              "internalType": "bytes",
              "name": "secrets",
              "type": "bytes"
            },
            {
              "internalType": "string[]",
              "name": "args",
              "type": "string[]"
            }
          ],
          "internalType": "struct Functions.Request",
          "name": "request",
          "type": "tuple"
        },
        {
          "internalType": "bytes32",
          "name": "category",
          "type": "bytes32"
        },
        {
          "internalType": "uint96",
          "name": "fee",
          "type": "uint96"
        }
      ],
      "stateMutability": "view",
      "type": "function"
    },
    {
      "inputs": [
        {
          "internalType": "bytes32",
          "name": "",
          "type": "bytes32"
        }
      ],
      "name": "functionResponses",
      "outputs": [
        {
          "internalType": "bytes32",
          "name": "functionId",
          "type": "bytes32"
        },
        {
          "internalType": "address",
          "name": "caller",
          "type": "address"
        },
        {
          "internalType": "bytes32",
          "name": "callbackFunction",
          "type": "bytes32"
        },
        {
          "internalType": "bytes",
          "name": "response",
          "type": "bytes"
        },
        {
          "internalType": "bytes",
          "name": "err",
          "type": "bytes"
        }
      ],
      "stateMutability": "view",
      "type": "function"
    },
    {
      "inputs": [],
      "name": "getDONPublicKey",
      "outputs": [
        {
          "internalType": "bytes",
          "name": "",
          "type": "bytes"
        }
      ],
      "stateMutability": "view",
      "type": "function"
    },
    {
      "inputs": [
        {
          "internalType": "bytes32",
          "name": "_functionId",
          "type": "bytes32"
        }
      ],
      "name": "getFunction",
      "outputs": [
        {
          "components": [
            {
              "internalType": "address",
              "name": "owner",
              "type": "address"
            },
            {
              "internalType": "uint64",
              "name": "subId",
              "type": "uint64"
            },
            {
              "internalType": "string",
              "name": "name",
              "type": "string"
            },
            {
              "internalType": "string",
              "name": "desc",
              "type": "string"
            },
            {
              "internalType": "string",
              "name": "imageUrl",
              "type": "string"
            },
            {
              "internalType": "string[]",
              "name": "expectedArgs",
              "type": "string[]"
            },
            {
              "components": [
                {
                  "internalType": "enum Functions.Location",
                  "name": "codeLocation",
                  "type": "uint8"
                },
                {
                  "internalType": "enum Functions.Location",
                  "name": "secretsLocation",
                  "type": "uint8"
                },
                {
                  "internalType": "enum Functions.CodeLanguage",
                  "name": "language",
                  "type": "uint8"
                },
                {
                  "internalType": "string",
                  "name": "source",
                  "type": "string"
                },
                {
                  "internalType": "bytes",
                  "name": "secrets",
                  "type": "bytes"
                },
                {
                  "internalType": "string[]",
                  "name": "args",
                  "type": "string[]"
                }
              ],
              "internalType": "struct Functions.Request",
              "name": "request",
              "type": "tuple"
            },
            {
              "internalType": "bytes32",
              "name": "category",
              "type": "bytes32"
            },
            {
              "internalType": "uint96",
              "name": "fee",
              "type": "uint96"
            }
          ],
          "internalType": "struct FunctionsManager.FunctionMetadata",
          "name": "",
          "type": "tuple"
        }
      ],
      "stateMutability": "view",
      "type": "function"
    },
    {
      "inputs": [
        {
          "internalType": "bytes32",
          "name": "_functionId",
          "type": "bytes32"
        }
      ],
      "name": "getFunctionLockedBal",
      "outputs": [
        {
          "internalType": "uint96",
          "name": "",
          "type": "uint96"
        }
      ],
      "stateMutability": "view",
      "type": "function"
    },
    {
      "inputs": [
        {
          "internalType": "bytes32",
          "name": "_requestId",
          "type": "bytes32"
        }
      ],
      "name": "getFunctionResponse",
      "outputs": [
        {
          "components": [
            {
              "internalType": "bytes32",
              "name": "functionId",
              "type": "bytes32"
            },
            {
              "internalType": "address",
              "name": "caller",
              "type": "address"
            },
            {
              "internalType": "bytes32",
              "name": "callbackFunction",
              "type": "bytes32"
            },
            {
              "internalType": "bytes",
              "name": "response",
              "type": "bytes"
            },
            {
              "internalType": "bytes",
              "name": "err",
              "type": "bytes"
            }
          ],
          "internalType": "struct FunctionsManager.FunctionResponse",
          "name": "",
          "type": "tuple"
        }
      ],
      "stateMutability": "view",
      "type": "function"
    },
    {
      "inputs": [
        {
          "internalType": "bytes32",
          "name": "_functionId",
          "type": "bytes32"
        }
      ],
      "name": "getFunctionUnlockedBal",
      "outputs": [
        {
          "internalType": "uint96",
          "name": "",
          "type": "uint96"
        }
      ],
      "stateMutability": "view",
      "type": "function"
    },
    {
      "inputs": [
        {
          "internalType": "uint64",
          "name": "_subscriptionId",
          "type": "uint64"
        }
      ],
      "name": "getSubscriptionBalance",
      "outputs": [
        {
          "internalType": "uint256",
          "name": "",
          "type": "uint256"
        }
      ],
      "stateMutability": "view",
      "type": "function"
    },
    {
      "inputs": [
        {
          "internalType": "bytes32",
          "name": "requestId",
          "type": "bytes32"
        },
        {
          "internalType": "bytes",
          "name": "response",
          "type": "bytes"
        },
        {
          "internalType": "bytes",
          "name": "err",
          "type": "bytes"
        }
      ],
      "name": "handleOracleFulfillment",
      "outputs": [],
      "stateMutability": "nonpayable",
      "type": "function"
    },
    {
      "inputs": [
        {
          "internalType": "bytes32",
          "name": "",
          "type": "bytes32"
        }
      ],
      "name": "lockedProfitPools",
      "outputs": [
        {
          "internalType": "uint96",
          "name": "",
          "type": "uint96"
        }
      ],
      "stateMutability": "view",
      "type": "function"
    },
    {
      "inputs": [],
      "name": "minimumSubscriptionBalance",
      "outputs": [
        {
          "internalType": "uint96",
          "name": "",
          "type": "uint96"
        }
      ],
      "stateMutability": "view",
      "type": "function"
    },
    {
      "inputs": [],
      "name": "minimumSubscriptionDeposit",
      "outputs": [
        {
          "internalType": "uint96",
          "name": "",
          "type": "uint96"
        }
      ],
      "stateMutability": "view",
      "type": "function"
    },
    {
      "inputs": [],
      "name": "owner",
      "outputs": [
        {
          "internalType": "address",
          "name": "",
          "type": "address"
        }
      ],
      "stateMutability": "view",
      "type": "function"
    },
    {
      "inputs": [
        {
          "internalType": "uint64",
          "name": "_subscriptionId",
          "type": "uint64"
        }
      ],
      "name": "refillSubscription",
      "outputs": [],
      "stateMutability": "nonpayable",
      "type": "function"
    },
    {
      "inputs": [
        {
          "components": [
            {
              "internalType": "uint96",
              "name": "fees",
              "type": "uint96"
            },
            {
              "internalType": "string",
              "name": "functionName",
              "type": "string"
            },
            {
              "internalType": "string",
              "name": "desc",
              "type": "string"
            },
            {
              "internalType": "string",
              "name": "imageUrl",
              "type": "string"
            },
            {
              "internalType": "string[]",
              "name": "expectedArgs",
              "type": "string[]"
            },
            {
              "internalType": "enum Functions.Location",
              "name": "codeLocation",
              "type": "uint8"
            },
            {
              "internalType": "enum Functions.Location",
              "name": "secretsLocation",
              "type": "uint8"
            },
            {
              "internalType": "enum Functions.CodeLanguage",
              "name": "language",
              "type": "uint8"
            },
            {
              "internalType": "bytes32",
              "name": "category",
              "type": "bytes32"
            },
            {
              "internalType": "uint64",
              "name": "subId",
              "type": "uint64"
            },
            {
              "internalType": "string",
              "name": "source",
              "type": "string"
            },
            {
              "internalType": "bytes",
              "name": "secrets",
              "type": "bytes"
            }
          ],
          "internalType": "struct FunctionsManager.FunctionsRegisterRequest",
          "name": "request",
          "type": "tuple"
        }
      ],
      "name": "registerFunction",
      "outputs": [
        {
          "internalType": "bytes32",
          "name": "",
          "type": "bytes32"
        }
      ],
      "stateMutability": "payable",
      "type": "function"
    },
    {
      "inputs": [
        {
          "internalType": "uint96",
          "name": "_baseFee",
          "type": "uint96"
        }
      ],
      "name": "setBaseFee",
      "outputs": [],
      "stateMutability": "nonpayable",
      "type": "function"
    },
    {
      "inputs": [
        {
          "internalType": "uint32",
          "name": "_feeManagerCut",
          "type": "uint32"
        }
      ],
      "name": "setFeeManagerCut",
      "outputs": [],
      "stateMutability": "nonpayable",
      "type": "function"
    },
    {
      "inputs": [
        {
          "internalType": "uint96",
          "name": "_minimumDeposit",
          "type": "uint96"
        }
      ],
      "name": "setMinimumDeposit",
      "outputs": [],
      "stateMutability": "nonpayable",
      "type": "function"
    },
    {
      "inputs": [
        {
          "internalType": "uint64",
          "name": "",
          "type": "uint64"
        }
      ],
      "name": "subscriptionBalances",
      "outputs": [
        {
          "internalType": "uint96",
          "name": "",
          "type": "uint96"
        }
      ],
      "stateMutability": "view",
      "type": "function"
    },
    {
      "inputs": [
        {
          "internalType": "address",
          "name": "to",
          "type": "address"
        }
      ],
      "name": "transferOwnership",
      "outputs": [],
      "stateMutability": "nonpayable",
      "type": "function"
    },
    {
      "inputs": [
        {
          "internalType": "bytes32",
          "name": "",
          "type": "bytes32"
        }
      ],
      "name": "unlockedProfitPools",
      "outputs": [
        {
          "internalType": "uint96",
          "name": "",
          "type": "uint96"
        }
      ],
      "stateMutability": "view",
      "type": "function"
    }
  ],
  "bytecode": "0x6080346200021b57601f62004fe738819003918201601f19168301916001600160401b03831184841017620002205780849260c0946040528339810103126200021b576200004d8162000236565b6200005b6020830162000236565b906200006a6040840162000236565b62000078606085016200024b565b9260808501519363ffffffff8516958686036200021b5760a06200009d91016200024b565b600080546001600160a01b039586166001600160a01b0319918216811790925591949091903315620001d657338260025416176002556c01000000000000000000000000600160c01b0319601054169460646011549a116200017757816fffffffff000000000000000000000000981683600d541617600d551690600e541617600e556503782dace9d960b21b17600f556c01000000000000000000000000600160c01b039060601b161760105560018060601b03169260018060801b0319169160601b161717601155604051614d869081620002618239f35b60405162461bcd60e51b815260206004820152603160248201527f466565206d616e6167657220637574206d757374206265206c6573732074686160448201527006e206f7220657175616c20746f2031303607c1b6064820152608490fd5b60405162461bcd60e51b815260206004820152601860248201527f43616e6e6f7420736574206f776e657220746f207a65726f00000000000000006044820152606490fd5b600080fd5b634e487b7160e01b600052604160045260246000fd5b51906001600160a01b03821682036200021b57565b51906001600160601b03821682036200021b5756fe6080604052600436101561001257600080fd5b60003560e01c80630b562aa9146102175780630ca76175146102125780631ac67b341461020d578063257912f3146102085780634351077d14610203578063475a8b46146101fe57806356fa1a2a146101f95780636ef25c3a146101f45780637587b1b2146101ef57806379ba5097146101ea5780637b0caaa2146101e55780637bcb334d146101e057806385ec38a2146101db5780638913aa6d146101d65780638da5cb5b146101d15780639bab5816146101cc578063a36df5c2146101c7578063ba9c513f146101c2578063bdf47104146101bd578063be4f00cd146101b8578063c8155bcb146101b3578063cd28d487146101ae578063d328a91e146101a9578063d4b39175146101a4578063d5549c8a1461019f578063d7e6a96b1461019a578063de76f05314610195578063e67950d314610190578063eb7676891461018b578063ecc8c24c14610186578063efb6c140146101815763f2fde38b1461017c57600080fd5b61204a565b611ff7565b611fc2565b611f8d565b611e46565b611c23565b611bbf565b611b98565b611a91565b6118ed565b611869565b61140b565b611369565b611344565b6112ab565b611223565b6111b0565b611189565b6110fa565b61108e565b611017565b610fdd565b610f13565b610ecb565b610e82565b610e0f565b610ce0565b610bee565b610b71565b610adc565b6103b5565b61022c565b600091031261022757565b600080fd5b346102275760003660031901126102275760206001600160601b0360115416604051908152f35b634e487b7160e01b600052604160045260246000fd5b60c0810190811067ffffffffffffffff82111761028557604052565b610253565b60a0810190811067ffffffffffffffff82111761028557604052565b67ffffffffffffffff811161028557604052565b6040810190811067ffffffffffffffff82111761028557604052565b6060810190811067ffffffffffffffff82111761028557604052565b90601f8019910116810190811067ffffffffffffffff82111761028557604052565b6040519061032182610269565b565b60405190610120820182811067ffffffffffffffff82111761028557604052565b67ffffffffffffffff811161028557601f01601f191660200190565b92919261036c82610344565b9161037a60405193846102f2565b829481845281830111610227578281602093846000960137010152565b9080601f83011215610227578160206103b293359101610360565b90565b346102275760603660031901126102275767ffffffffffffffff600435602435828111610227576103ea903690600401610397565b9160443590811161022757610403903690600401610397565b6104143361040f613e33565b614c1e565b6001600160a01b039061044a3383610443610437600e546001600160a01b031690565b6001600160a01b031690565b1614613e92565b61045a610455613f29565b614b60565b61046e836000526007602052604060002090565b9182549260018101926104948361048c86546001600160a01b031690565b161515613f62565b6104c56104be6104376104b1886000526004602052604060002090565b546001600160a01b031690565b1515613fad565b6104d13361040f613ff8565b6104de87600384016125fa565b6104eb81600484016125fa565b6104f6610455614031565b6105dc610563610553610526600a6105188a6000526004602052604060002090565b01546001600160601b031690565b61054d61054461053f60115463ffffffff9060601c1690565b613584565b63ffffffff1690565b90612e5c565b6001600160601b03606491160490565b6105ae61057a886000526005602052604060002090565b6105948361058f83546001600160601b031690565b612fce565b6001600160601b03166001600160601b0319825416179055565b6105946105c5886000526006602052604060002090565b916105d783546001600160601b031690565b612e41565b6106046105f3866000526004602052604060002090565b5460a01c67ffffffffffffffff1690565b9061061c6104b1876000526004602052604060002090565b9761062861045561406a565b61063d610437600e546001600160a01b031690565b60405163523e3b4b60e11b815267ffffffffffffffff8516600482015290600090829060249082905afa908115610725577f46179aadb72bd1ccbb0e9ebc270c28ff7763288a733eba4fb65169a441dbf87e976106ee956002936106dd93600091610702575b506001600160601b036106c76106bb600f5460a01c90565b6001600160601b031690565b9116106106f3575b50546001600160a01b031690565b9401546040519586951699856140c9565b0390a4005b6106fc90613631565b386106cf565b61071d913d8091833e61071581836102f2565b8101906123ce565b5050386106a3565b612471565b90600182811c9216801561075a575b602083101461074457565b634e487b7160e01b600052602260045260246000fd5b91607f1691610739565b90604051918260008254926107788461072a565b9081845260019485811690816000146107e557506001146107a2575b5050610321925003836102f2565b9093915060005260209081600020936000915b8183106107cd57505061032193508201013880610794565b855488840185015294850194879450918301916107b5565b91505061032194506020925060ff191682840152151560051b8201013880610794565b634e487b7160e01b600052602160045260246000fd5b6002111561082857565b610808565b60028210156108285752565b6001111561082857565b60018210156108285752565b67ffffffffffffffff81116102855760051b60200190565b9081546108738161084f565b9261088160405194856102f2565b818452600090815260208082208186015b8484106108a0575050505050565b60018381926108ae85610764565b815201920193019290610892565b906040516108c981610269565b60a061092c6003839561090460ff82546108e58282168961082d565b6108f7828260081c1660208a0161082d565b60101c1660408701610843565b61091060018201610764565b606086015261092160028201610764565b608086015201610867565b910152565b60005b8381106109445750506000910152565b8181015183820152602001610934565b9060209161096d81518092818552858086019101610931565b601f01601f1916010190565b9060028210156108285752565b908082519081815260208091019281808460051b8301019501936000915b8483106109b45750505050505090565b90919293949584806109d2600193601f198682030187528a51610954565b98019301930191949392906109a4565b6109ed828251610979565b6109ff60208201516020840190610979565b6040810151916001831015610828576103b292604082015260a0610a47610a35606085015160c0606086015260c0850190610954565b60808501518482036080860152610954565b9201519060a0818403910152610986565b9698979394610ab46001600160601b0396610aa6610ad09667ffffffffffffffff60e09b978d6001600160a01b03610ac2991690521660208d015260408c61010091829101528c0190610954565b908a820360608c0152610954565b9088820360808a0152610954565b9086820360a08801526109e2565b9560c085015216910152565b3461022757602036600319011261022757600435600052600460205260406000208054610b6d610b0e60018401610764565b92610b1b60028201610764565b90610b2860038201610764565b610b34600583016108bc565b906001600160601b03600a6009850154940154169360405197876001600160a01b0367ffffffffffffffff8b9a60a01c16911689610a58565b0390f35b34610227576000366003190112610227576020600f5460a01c604051908152f35b906103b29160208152815160208201526001600160a01b036020830151166040820152604082015160608201526080610bd9606084015160a08385015260c0840190610954565b9201519060a0601f1982850301910152610954565b3461022757602036600319011261022757610b6d6040606060808251610c138161028a565b600081526000602082015260008482015282808201520152610c688151610c39816102ba565b601381527f67657446756e6374696f6e526573706f6e7365000000000000000000000000006020820152614b60565b60043560005260076020528060002090610cc06004825193610c898561028a565b805485526001600160a01b036001820154166020860152600281015484860152610cb560038201610764565b606086015201610764565b60808301525191829182610b92565b6001600160a01b0381160361022757565b3461022757604036600319011261022757610dd66020600435610d0281610ccf565b60243590610d0e612111565b610d738282604051610d1f816102d6565b603a81527f617070726f76696e672025732061732061207370656e646572206f66204c494e878201527f4b207769746820612076616c7565206f6620757020746f2025640000000000006040820152614ce5565b610d88610437600d546001600160a01b031690565b9060006040518096819582947f095ea7b300000000000000000000000000000000000000000000000000000000845260048401602090939291936001600160a01b0360408201951681520152565b03925af1801561072557610de657005b610e069060203d8111610e08575b610dfe81836102f2565b810190612a63565b005b503d610df4565b346102275760403660031901126102275760043567ffffffffffffffff808211610227573660238301121561022757816004013590811161022757366024828401011161022757610b6d91610e72916024803592610e6c84610ccf565b01613754565b6040519081529081906020820190565b346102275760003660031901126102275760206001600160601b0360105460601c16604051908152f35b67ffffffffffffffff81160361022757565b6024359061032182610eac565b346102275760203660031901126102275767ffffffffffffffff600435610ef181610eac565b16600052600c60205260206001600160601b0360406000205416604051908152f35b3461022757600080600319360112610fda576001600160a01b0380600354163303610f96576002546001600160a01b0316600280546001600160a01b0319163317905590610f6c6001600160a01b031960035416600355565b3391167f8be0079c531659141344cd1fd0a4f28419497f9722a3daafe3b4186f6b6457e08380a380f35b606460405162461bcd60e51b815260206004820152601660248201527f4d7573742062652070726f706f736564206f776e6572000000000000000000006044820152fd5b80fd5b3461022757600036600319011261022757602063ffffffff60115460601c16604051908152f35b6044359063ffffffff8216820361022757565b346102275760603660031901126102275760243567ffffffffffffffff8082116102275736602383011215610227578160040135908111610227573660248260051b8401011161022757610b6d91610e72916024611073611004565b920160043561306b565b6001600160601b0381160361022757565b34610227576020366003190112610227577ff310923b17686bb5bfbd2bc7e25960dac092be75769b675fbf4909d7de77916b60206001600160601b036004356110d68161107d565b6110de612111565b16806001600160601b03196011541617601155604051908152a1005b34610227576020366003190112610227576001600160a01b0360043561111f81610ccf565b16600052600a60205261116d6040600020610b6d61113c82610764565b9161117b611158600261115160018501610764565b9301610764565b91604051958695606087526060870190610954565b908582036020870152610954565b908382036040850152610954565b346102275760003660031901126102275760206001600160a01b0360025416604051908152f35b34610227576020366003190112610227576111ff6040516111d0816102ba565b601681527f67657446756e6374696f6e556e6c6f636b656442616c000000000000000000006020820152614b60565b600435600052600660205260206001600160601b0360406000205416604051908152f35b3461022757602036600319011261022757600435600052600760205260406000208054610b6d6001600160a01b036001840154169261129d600282015491611279600461127260038401610764565b9201610764565b9260405196879687526020870152604086015260a0606086015260a0850190610954565b908382036080850152610954565b346102275760203660031901126102275760043563ffffffff811690818103610227577f5df6c53187c7cfa2643679f49eee9fc8a62e23a074ed0b12f17b5635c25f721d916020916112fb612111565b7fffffffffffffffffffffffffffffffff00000000ffffffffffffffffffffffff6fffffffff0000000000000000000000006011549260601b16911617601155604051908152a1005b3461022757602036600319011261022757610e0660043561136481610eac565b613631565b34610227576020366003190112610227577f803bee7e92bbc6ae7a1551f9f4ed3e31a8ea8df32e93332f41b0028f1091f9c360206004356113a98161107d565b6113b1612111565b6010547fffffffffffffffff000000000000000000000000ffffffffffffffffffffffff77ffffffffffffffffffffffff0000000000000000000000008360601b169116176010556001600160601b0360405191168152a1005b60206003198181360112610227576004359067ffffffffffffffff80831161022757610180836004019284360301126102275761144782612169565b50602483019061146361145a8385612173565b905015156121a6565b61146d8284612173565b6114886114966040969387519283918b8301953391876121f1565b03601f1981018352826102f2565b519020946001600160a01b03926114c5846114be6104b18a6000526004602052604060002090565b161561222b565b6115016114fa6114d36122cf565b338152966114f46114e387612169565b6001600160601b03166101008a0152565b85612173565b3691610360565b868601526115156114fa6044840185612173565b606086015261152a6114fa6064840185612173565b608086015261154661153f608484018561232f565b3691611a06565b60a086015260e085019361010483013585526101248301918061156884612365565b1661172b5750505061157b6104556124d1565b611590610437600d546001600160a01b031690565b85516370a0823160e01b815233600482015297908190899060249082905afa908115610725576115e66115fe92610b6d9a6000916116fe575b506115df6106bb6011546001600160601b031690565b1115612519565b6115ee612b40565b67ffffffffffffffff1690860152565b61160661229c565b9161163a61161660a4840161258a565b61162260e48501612594565b6116336114fa610144870186612173565b9186613774565b600161164860c4840161258a565b6116518161081e565b14806116e6575b6116c4575b505060c08301526116818261167c866000526004602052604060002090565b612878565b5190837f70d75df944fabc6d47f17dafdd665f5d0653d8754364d614dcb1374e56a7effd8451806116b3339582611d74565b0390a4519081529081906020820190565b6114fa6116d9916101646116df940190612173565b826137c3565b388061165d565b506116f5610164830182612173565b90501515611658565b61171e9150833d8511611724575b61171681836102f2565b81019061250a565b386115c9565b503d61170c565b9061174f839261173e61179b9c95612365565b9061174761236f565b911690614bc2565b6000611766610437600e546001600160a01b031690565b61176f84612365565b908a5180809e819463523e3b4b60e11b83526004830191909167ffffffffffffffff6020820193169052565b03915afa998a1561072557600090819b61184a575b50163081149033146000915b8b51831015611808578b6117e46104376117d78630946124a7565b516001600160a01b031690565b0361182957506001915b8280611822575b6118085761180290612493565b916117bc565b505050610b6d9850906115ee61181d92612365565b6115fe565b50816117f5565b918b61183c6104376117d78433946124a7565b036117ee57600191506117ee565b90611860929b503d8091833e61071581836102f2565b9a9150386117b0565b34610227576020366003190112610227576118b8604051611889816102ba565b601481527f67657446756e6374696f6e4c6f636b656442616c0000000000000000000000006020820152614b60565b600435600052600560205260206001600160601b0360406000205416604051908152f35b9060206103b2928181520190610954565b3461022757600080600319360112610fda576004816001600160a01b03815416604051928380927fd328a91e0000000000000000000000000000000000000000000000000000000082525afa908115610725578291611955575b60405180610b6d84826118dc565b90503d8083833e61196681836102f2565b8101906020818303126119d45780519067ffffffffffffffff82116119d8570181601f820112156119d45780519261199d84610344565b926119ab60405194856102f2565b84845260208584010111610fda5750610b6d926119ce9160208085019101610931565b38611947565b8280fd5b8380fd5b6002111561022757565b3590610321826119dc565b6001111561022757565b3590610321826119f1565b92919092611a138461084f565b91611a2160405193846102f2565b829480845260208094019060051b8301928284116102275780915b848310611a4b57505050505050565b823567ffffffffffffffff8111610227578691611a6b8684938601610397565b815201920191611a3c565b9080601f83011215610227578160206103b293359101611a06565b34610227576003196080368201126102275760043567ffffffffffffffff918282116102275760c090823603011261022757611acb610314565b611ad7826004016119e6565b8152611ae5602483016119e6565b6020820152611af6604483016119fb565b6040820152606482013583811161022757611b179060043691850101610397565b6060820152608482013583811161022757611b389060043691850101610397565b608082015260a482013592831161022757611b5f611b7e926004610b6d9536920101611a76565b60a0820152611b6c610ebe565b611b74611004565b906064359261384d565b6040516001600160601b0390911681529081906020820190565b346102275760003660031901126102275760206001600160601b0360105416604051908152f35b346102275760203660031901126102275767ffffffffffffffff600435611be581610eac565b610ef1604051611bf4816102ba565b601681527f676574537562736372697074696f6e42616c616e6365000000000000000000006020820152614b60565b3461022757602036600319011261022757610e06600435611c42612111565b806000526004602052611c876001600160a01b03611c6881604060002054161515613500565b611c7f6104b1846000526004602052604060002090565b161515613500565b611cab611c9e826000526005602052604060002090565b546001600160601b031690565b611ce2611cc5611c9e846000526006602052604060002090565b91611cce61354b565b6001600160601b0380809516921690614c83565b611d32611d04610553610526600a610518876000526004602052604060002090565b611d1b61057a856000526005602052604060002090565b6105946105c5856000526006602052604060002090565b611d60611c9e611d4f611c9e856000526005602052604060002090565b936000526006602052604060002090565b9080611d6a613599565b9216921690614c83565b6103b29060208152611d926020820184516001600160a01b03169052565b602083015167ffffffffffffffff1660408201526040830151611e25611dc661012092836060860152610140850190610954565b611e10611dfc611de8606089015193601f1994858983030160808a0152610954565b6080890151848883030160a0890152610954565b60a0880151838783030160c0880152610986565b9060c0870151908583030160e08601526109e2565b9360e081015190610100918285015201519101906001600160601b03169052565b3461022757602036600319011261022757611e5f6122cf565b50611e9e604051611e6f816102ba565b600b81527f67657446756e6374696f6e0000000000000000000000000000000000000000006020820152614b60565b6004356000526004602052610b6d6040600020611f81611f70600a611ec1610323565b93611f0367ffffffffffffffff8254611eec6001600160a01b03821689906001600160a01b03169052565b60a01c16602087019067ffffffffffffffff169052565b611f0f60018201610764565b6040860152611f2060028201610764565b6060860152611f3160038201610764565b6080860152611f4260048201610867565b60a0860152611f53600582016108bc565b60c0860152600981015460e086015201546001600160601b031690565b6001600160601b0316610100830152565b60405191829182611d74565b3461022757602036600319011261022757600435600052600660205260206001600160601b0360406000205416604051908152f35b3461022757602036600319011261022757600435600052600560205260206001600160601b0360406000205416604051908152f35b346102275760203660031901126102275767ffffffffffffffff60043561201d81610eac565b16600052600b602052610b6d6120366040600020610764565b604051918291602083526020830190610954565b34610227576020366003190112610227576001600160a01b0360043561206f81610ccf565b612077612111565b163381146120cd57806001600160a01b031960035416176003556120a66104376002546001600160a01b031690565b7fed8889f560326eb138920d842192f0eb3dd22b4f139c87a2c57538e05bae1278600080a3005b606460405162461bcd60e51b815260206004820152601760248201527f43616e6e6f74207472616e7366657220746f2073656c660000000000000000006044820152fd5b6001600160a01b0360025416330361212557565b606460405162461bcd60e51b815260206004820152601660248201527f4f6e6c792063616c6c61626c65206279206f776e6572000000000000000000006044820152fd5b356103b28161107d565b903590601e1981360301821215610227570180359067ffffffffffffffff82116102275760200191813603831361022757565b156121ad57565b606460405162461bcd60e51b815260206004820152601d60248201527f46756e6374696f6e206e616d652063616e6e6f7420626520656d7074790000006044820152fd5b916060816001600160a01b039260209497969760408752816040880152838701376000828287010152601f80199101168401019416910152565b1561223257565b608460405162461bcd60e51b815260206004820152603660248201527f4f776e657220616c72656164792068617320612066756e6374696f6e2077697460448201527f682074686973206e616d652072656769737465726564000000000000000000006064820152fd5b604051906122a982610269565b606060a08360008152600060208201526000604082015282808201528260808201520152565b60405190610120820182811067ffffffffffffffff821117610285576040526000610100838281528260208201526060604082015260608082015260606080820152606060a082015261232061229c565b60c08201528260e08201520152565b903590601e1981360301821215610227570180359067ffffffffffffffff821161022757602001918160051b3603831361022757565b356103b281610eac565b6040519061237c826102d6565b603682527f636865636b696e6720696620617574686f72697a6564000000000000000000006040837f7573696e67206578697374696e6720737562736372697074696f6e2025642c2060208201520152565b90916060828403126102275781516123e58161107d565b926020808401516123f581610ccf565b9360408101519067ffffffffffffffff821161022757019180601f840112156102275782516124238161084f565b9361243160405195866102f2565b818552838086019260051b820101928311610227578301905b828210612458575050505090565b838091835161246681610ccf565b81520191019061244a565b6040513d6000823e3d90fd5b634e487b7160e01b600052601160045260246000fd5b60001981146124a25760010190565b61247d565b80518210156124bb5760209160051b010190565b634e487b7160e01b600052603260045260246000fd5b604051906124de826102ba565b601982527f6372656174696e67206e657720737562736372697074696f6e000000000000006020830152565b90816020910312610227575190565b1561252057565b608460405162461bcd60e51b815260206004820152602e60248201527f496e73756666696369656e74204c494e4b2062616c616e636520746f2066756e60448201527f6420737562736372697074696f6e0000000000000000000000000000000000006064820152fd5b356103b2816119dc565b356103b2816119f1565b8181106125a9575050565b6000815560010161259e565b9190601f81116125c457505050565b610321926000526020600020906020601f840160051c830193106125f0575b601f0160051c019061259e565b90915081906125e3565b919091825167ffffffffffffffff8111610285576126228161261c845461072a565b846125b5565b602080601f831160011461265e575081929394600092612653575b50508160011b916000199060031b1c1916179055565b01519050388061263d565b90601f1983169561267485600052602060002090565b926000905b8882106126b157505083600195969710612698575b505050811b019055565b015160001960f88460031b161c1916905538808061268e565b80600185968294968601518155019501930190612679565b908160011b91808304600214901517156124a257565b815191680100000000000000008311610285578154838355808410612742575b50612714602080920192600052602060002090565b6000925b848410612726575050505050565b60018382612736839451866125fa565b01920193019290612718565b6000838152846020822092830192015b8281106127605750506126ff565b8061276d6001925461072a565b8061277a575b5001612752565b601f9081811184146127925750508281555b38612773565b836127b4926127a685600052602060002090565b920160051c8201910161259e565b6000818152602081208183555561278c565b9060018110156108285762ff000082549160101b169062ff00001916179055565b81519160028310156108285760ff82549316908160ff1985161783556020810151906128128261081e565b6002821015610828576103219460039361ff0060a09460081b169161ffff19161717845561284d604082015161284781610839565b856127c6565b61285e6060820151600186016125fa565b61286f6080820151600286016125fa565b015191016126df565b600a612986610100610321946128b461289882516001600160a01b031690565b86906001600160a01b03166001600160a01b0319825416179055565b6129196128cc602083015167ffffffffffffffff1690565b86547fffffffff0000000000000000ffffffffffffffffffffffffffffffffffffffff1660a09190911b7bffffffffffffffff000000000000000000000000000000000000000016178655565b61292a6040820151600187016125fa565b61293b6060820151600287016125fa565b61294c6080820151600387016125fa565b61295d60a0820151600487016126df565b61296e60c0820151600587016127e7565b60e0810151600986015501516001600160601b031690565b9101906001600160601b03166001600160601b0319825416179055565b9081602091031261022757516103b281610eac565b604051906129c5826102ba565b601f82527f6372656174656420737562736372697074696f6e2077697468206964202564006020830152565b604051906129fe826102ba565b601582527f616464696e6720257320617320636f6e73756d657200000000000000000000006020830152565b60405190612a37826102ba565b601982527f73656e646572202573204c494e4b2062616c616e6365202564000000000000006020830152565b90816020910312610227575180151581036102275790565b6001600160601b036103b294936001600160a01b036060941683521660208201528160408201520190610954565b15612ab057565b60a460405162461bcd60e51b815260206004820152604460248201527f4661696c656420746f207472616e73666572204c494e4b20746f2042696c6c6960448201527f6e6720526567697374727920746f2066756e642074686520737562736372697060648201527f74696f6e000000000000000000000000000000000000000000000000000000006084820152fd5b612b55610437600e546001600160a01b031690565b604051907fa21a23e400000000000000000000000000000000000000000000000000000000825260208083600481600080965af1928315610725578293612dc7575b50612bb4612ba36129b8565b67ffffffffffffffff851690614bc2565b612bc03061040f6129f1565b612bd5610437600e546001600160a01b031690565b803b156119d4576040517f7341c10c00000000000000000000000000000000000000000000000000000000815267ffffffffffffffff851660048201523060248201529083908290604490829084905af1801561072557612dae575b50612c6f33612c548567ffffffffffffffff166000526008602052604060002090565b906001600160a01b03166001600160a01b0319825416179055565b612c84610437600d546001600160a01b031690565b6040516370a0823160e01b8152336004820152908282602481845afa90811561072557612cc68492612d58948791612d91575b5033612cc1612a2a565b614ce5565b612cdb610437600e546001600160a01b031690565b90612cee6011546001600160601b031690565b8660405193612d2285612d148c89830191909167ffffffffffffffff6020820193169052565b03601f1981018752866102f2565b604051968795869485937f4000aea000000000000000000000000000000000000000000000000000000000855260048501612a7b565b03925af1918215610725576103b29392612d74575b5050612aa9565b612d8a9250803d10610e0857610dfe81836102f2565b3880612d6d565b612da89150843d86116117245761171681836102f2565b38612cb7565b80612dbb612dc1926102a6565b8061021c565b38612c31565b81612de89294503d8511612def575b612de081836102f2565b8101906129a3565b9138612b97565b503d612dd6565b15612dfd57565b606460405162461bcd60e51b815260206004820152601a60248201527f66756e6374696f6e206973206e6f7420726567697374657265640000000000006044820152fd5b9190916001600160601b03808094169116019182116124a257565b9190916001600160601b03808094169116029182169182036124a257565b15612e8157565b608460405162461bcd60e51b815260206004820152603160248201527f596f7520646f206e6f74206861766520656e6f756768204c494e4b20746f206360448201527f616c6c20746869732066756e6374696f6e0000000000000000000000000000006064820152fd5b60405190612ef8826102ba565b601482527f5472616e7366657272696e67202564204c494e4b0000000000000000000000006020830152565b15612f2b57565b608460405162461bcd60e51b815260206004820152602260248201527f4661696c656420746f20636f6c6c65637420666565732066726f6d2063616c6c60448201527f65720000000000000000000000000000000000000000000000000000000000006064820152fd5b60405190612fa2826102ba565b601c82527f726573657276656420737562736372697074696f6e20666565202564000000006020830152565b6001600160601b0391821690821603919082116124a257565b15612fee57565b606460405162461bcd60e51b815260206004820152601960248201527f5265717565737420494420616c726561647920657869737473000000000000006044820152fd5b6040519061303f826102ba565b601d82527f656d697474696e672046756e6374696f6e43616c6c6564206576656e740000006020830152565b92906130976001600160a01b0361308f6104b1876000526004602052604060002090565b161515612df6565b6130b0600a610518866000526004602052604060002090565b926130c86105f3866000526004602052604060002090565b916130e3856105d76010546001600160601b039060601c1690565b9461310661055361310061054460115463ffffffff9060601c1690565b83612e5c565b9561311c610437600d546001600160a01b031690565b6040516370a0823160e01b80825233600483015291986020949092909185816024818e5afa80156107255761315c916000916134e9575033612cc1612a2a565b60405190815233600482015284816024818d5afa8015610725576131a39a6000956131b061320193899589916134cc575b506001600160601b039e8f841680921015612e7a565b6131ab612eeb565b614bc2565b6040517f23b872dd0000000000000000000000000000000000000000000000000000000081523360048201523060248201526001600160601b03909116604482015295869283919082906064820190565b03925af1928315610725576133469961322e6133029561325893613319986000926134af575b5050612f24565b61324f611c9e8a67ffffffffffffffff16600052600c602052604060002090565b90611747612f95565b6132cd61329461327f611c9e8a67ffffffffffffffff16600052600c602052604060002090565b60105460601c6001600160601b031690612e41565b6132b28967ffffffffffffffff16600052600c602052604060002090565b906001600160601b03166001600160601b0319825416179055565b61058f6132e6836105d76010546001600160601b031690565b6001600160601b03166001600160601b03196010541617601055565b6105946105c5896000526005602052604060002090565b6133386005613332886000526004602052604060002090565b016108bc565b9180613493575b5050613ccf565b907fb6bbc09e48a45d15c4f573e21671285a2c20d8e28934eaba14b328066487e6556040518061337b85829190602083019252565b0390a161339c613395836000526007602052604060002090565b5415612fe7565b806133b1836000526007602052604060002090565b556133e83360016133cc856000526007602052604060002090565b01906001600160a01b03166001600160a01b0319825416179055565b6133f3610455613032565b8161340b6104b1836000526004602052604060002090565b917fbe998d126f0e9063785bb9730961a2b950e3068b6d4ed3102e7d6fcab88e2abd6134436010546001600160601b039060601c1690565b61345c600a610518856000526004602052604060002090565b604080516001600160a01b03979097168752600060208801526001600160601b03928316908701521660608501523393608090a490565b6134a8916134a2913691611a06565b82613801565b388061333f565b6134c59250803d10610e0857610dfe81836102f2565b3880613227565b6134e39150863d88116117245761171681836102f2565b3861318d565b612da89150873d89116117245761171681836102f2565b1561350757565b606460405162461bcd60e51b815260206004820152601760248201527f46756e6374696f6e20646f6573206e6f742065786973740000000000000000006044820152fd5b60405190613558826102ba565b601c82527f4265666f7265206c6f636b656420256420756e6c6f636b6564202564000000006020830152565b9063ffffffff8092166064039182116124a257565b604051906135a6826102ba565b601b82527f4166746572206c6f636b656420256420756e6c6f636b656420256400000000006020830152565b604051906135df826102d6565b603782527f6c6c20617661696c61626c652062616c616e63652025640000000000000000006040837f526566696c6c696e6720737562736372697074696f6e2025642077697468206160208201520152565b6020612d146137299261368261365e611c9e8367ffffffffffffffff16600052600c602052604060002090565b6001600160601b0361366e6135d2565b91169067ffffffffffffffff841690614c83565b6136a3611c9e8267ffffffffffffffff16600052600c602052604060002090565b6136d96136c48367ffffffffffffffff16600052600c602052604060002090565b80546bffffffffffffffffffffffff19169055565b60006136f0610437600d546001600160a01b031690565b92612d22613709610437600e546001600160a01b031690565b9160405196879189830191909167ffffffffffffffff6020820193169052565b03925af180156107255761373a5750565b6137519060203d8111610e0857610dfe81836102f2565b50565b919061376e906114886040519384926020840196876121f1565b51902090565b908351156137995760609261378c613795928461082d565b60408301610843565b0152565b60046040517f22ce3edd000000000000000000000000000000000000000000000000000000008152fd5b8151156137d7576001602082015260800152565b60046040517fe889636f000000000000000000000000000000000000000000000000000000008152fd5b81511561380e5760a00152565b60046040517ffe936cb7000000000000000000000000000000000000000000000000000000008152fd5b9081602091031261022757516103b28161107d565b67ffffffffffffffff6138bd94926020946138736001600160a01b036000541694613a97565b9463ffffffff604051988997889687967fd227d245000000000000000000000000000000000000000000000000000000008852166004870152608060248701526084860190610954565b92166044840152606483015203915afa908115610725576000916138df575090565b6103b2915060203d8111613900575b6138f881836102f2565b810190613838565b503d6138ee565b60405190613914826102ba565b6000602083606081520152565b6040519061392e826102ba565b600060208361393b613907565b81520152565b6040519061394e826102ba565b600c82527f636f64654c6f636174696f6e00000000000000000000000000000000000000006020830152565b60405190613987826102ba565b600882527f6c616e67756167650000000000000000000000000000000000000000000000006020830152565b604051906139c0826102ba565b600682527f736f7572636500000000000000000000000000000000000000000000000000006020830152565b604051906139f9826102ba565b600482527f61726773000000000000000000000000000000000000000000000000000000006020830152565b60405190613a32826102ba565b600f82527f736563726574734c6f636174696f6e00000000000000000000000000000000006020830152565b60405190613a6b826102ba565b600782527f73656372657473000000000000000000000000000000000000000000000000006020830152565b613a9f613921565b90613aaa825161412c565b50613abc613ab6613941565b8361481f565b613ad98151613aca8161081e565b613ad38161081e565b836141ab565b613ae4613ab661397a565b613afe6040820151613af581610839565b613ad381610839565b613b09613ab66139b3565b613b1760608201518361481f565b60a08101805151613bcf575b506080810190815151613b38575b5050515190565b602001908151613b478161081e565b613b508161081e565b15613ba557613b86613b9e92613b6d613b67613a25565b8661481f565b51613b778161081e565b613b808161081e565b846141ab565b613b97613b91613a5e565b8461481f565b518261476c565b3880613b31565b60046040517fa80d31f7000000000000000000000000000000000000000000000000000000008152fd5b92613bdb613b916139ec565b613be4836148a4565b60005b84518051821015613c145790613c0a613c0382613c0f946124a7565b518661481f565b612493565b613be7565b50509250613c2182614930565b38613b23565b60405190613c34826102d6565b602982527f6c69656e74206c696200000000000000000000000000000000000000000000006040837f53656e64696e6720726571756573742066726f6d2066756e6374696f6e73206360208201520152565b91613cb363ffffffff9167ffffffffffffffff604094979697168552606060208601526060850190610954565b9416910152565b9081602091031261022757516103b281610ccf565b613d3c9291613cdf610455613c27565b6000938492613d01613cfb61043786546001600160a01b031690565b91613a97565b946040519687809481937f28242b040000000000000000000000000000000000000000000000000000000083526020998a9860048501613c86565b03925af1928315610725578193613e11575b508082613d67610437600494546001600160a01b031690565b604051938480927f5ab1bd530000000000000000000000000000000000000000000000000000000082525afa9283156107255784937f1131472297a800fee664d1d89cfa8f7676ff07189ecc53f80bbb5f4969099db893613ddf928492613de4575b5050612c54856000526001602052604060002090565b80a290565b613e039250803d10613e0a575b613dfb81836102f2565b810190613cba565b3880613dc9565b503d613df1565b6004919350613e2c90833d85116117245761171681836102f2565b9290613d4e565b60405190613e40826102d6565b603582527f63616c6c20746869732066756e6374696f6e2e2e2e00000000000000000000006040837f436865636b696e6720697320257320697320617574686f72697a656420746f2060208201520152565b15613e9957565b60a460405162461bcd60e51b815260206004820152604260248201527f4f6e6c79207468652066756e6374696f6e206f776e6572206f722042696c6c6960448201527f6e672052656769737472792063616e2063616c6c20746869732066756e63746960648201527f6f6e0000000000000000000000000000000000000000000000000000000000006084820152fd5b60405190613f36826102ba565b601282527f66756c66696c6c696e67207265717565737400000000000000000000000000006020830152565b15613f6957565b606460405162461bcd60e51b815260206004820152601260248201527f496e76616c6964207265717565737420494400000000000000000000000000006044820152fd5b15613fb457565b606460405162461bcd60e51b815260206004820152601a60248201527f46756e6374696f6e206973206e6f7420726567697374657265640000000000006044820152fd5b60405190614005826102ba565b601382527f257320697320617574686f72697a65642e2e2e000000000000000000000000006020830152565b6040519061403e826102ba565b600e82527f556e6c6f636b696e6720666565730000000000000000000000000000000000006020830152565b60405190614077826102d6565b603b82527f67206966206e6565642066696c6c20737562736372697074696f6e00000000006040837f46696e697368656420756e6c6f636b696e6720666565732c20636865636b696e60208201520152565b926103b294926001600160a01b036140f4931685526020850152608060408501526080840190610954565b916060818403910152610954565b601f198101919082116124a257565b90602082018092116124a257565b919082018092116124a257565b614134613907565b5061010060208201526040518082526000815261012081019081106102275760405290565b90614162613907565b50601f811680614191575b50806020830152604051908183526000825281016020019081106102275760405290565b602003602081116124a25781018091116124a2573861416d565b908151916141b7613907565b5082515160018101908181116124a2576020850151811015614210575b60c260206103219651928301015380518211614208575b505060405191602083015260208252614203826102ba565b61476c565b5238806141eb565b8160011b94828604600214831517156124a2576020816142426103219861423b60c295519184614159565b50826146b4565b50965050506141d4565b614254613907565b5080515160018101908181116124a257602083015181101561428d575b605b6020845192830101538051821161428957505090565b5290565b8160011b828104600214831517156124a2576142b6906142af85519186614159565b50846146b4565b50614271565b6142c4613907565b5080515160018101908181116124a25760208301518110156142f9575b605a6020845192830101538051821161428957505090565b8160011b828104600214831517156124a25761431b906142af85519186614159565b506142e1565b614329613907565b5080515160018101908181116124a257602083015181101561435e575b60596020845192830101538051821161428957505090565b8160011b828104600214831517156124a257614380906142af85519186614159565b50614346565b61438e613907565b5080515160018101908181116124a25760208301518110156143c3575b60586020845192830101538051821161428957505090565b8160011b828104600214831517156124a2576143e5906142af85519186614159565b506143ab565b6143f3613907565b5080515160018101908181116124a2576020830151811015614428575b607b6020845192830101538051821161428957505090565b8160011b828104600214831517156124a25761444a906142af85519186614159565b50614410565b614458613907565b5080515160018101908181116124a257602083015181101561448d575b607a6020845192830101538051821161428957505090565b8160011b828104600214831517156124a2576144af906142af85519186614159565b50614475565b6144bd613907565b5080515160018101908181116124a25760208301518110156144f2575b60796020845192830101538051821161428957505090565b8160011b828104600214831517156124a257614514906142af85519186614159565b506144da565b614522613907565b5080515160018101908181116124a2576020830151811015614557575b60786020845192830101538051821161428957505090565b8160011b828104600214831517156124a257614579906142af85519186614159565b5061453f565b90614588613907565b5081515160018101918282116124a25760208401518210156145bb575b6020845192830101538051821161428957505090565b8260011b838104600214841517156124a2576145e4906145dd86519187614159565b50856146b4565b506145a5565b906145f782519183614159565b50614600613907565b5080519061460c613907565b5061461a8151831115614765565b82515192614628838561411f565b91602092828480940151821161469d575b5183815197820101968211614695575b505001915b8181101561466f5760001991036101000a0190811990511690825116179052565b919261468a6146846146909286518152614111565b94614111565b92614102565b61464e565b523880614649565b6146af6146a9836126c9565b826145ea565b614639565b906146bd613907565b5080516146c8613907565b506146d68251821115614765565b825151916146e4828461411f565b602091829182870151811161474e575b865183815197820101968211614746575b505001915b8181101561472c5760001991036101000a019081199051169082511617905290565b919261468a6146846147419286518152614111565b61470a565b523880614705565b61476061475a826126c9565b886145ea565b6146f4565b1561022757565b815161375192919067ffffffffffffffff811690601782116147a45761479c9150604060ff84519216179061457f565b505b516146b4565b5060ff81116147c9576147c3906147bb8351614386565b508251614afa565b5061479e565b61ffff81116147e8576147c3906147e08351614321565b508251614a93565b63ffffffff8111614809576147c39061480183516142bc565b508251614a2a565b6147c390614817835161424c565b5082516149bd565b815161375192919067ffffffffffffffff8116906017821161484f5761479c9150606060ff84519216179061457f565b5060ff8111614866576147c3906147bb835161451a565b61ffff811161487d576147c3906147e083516144b5565b63ffffffff8111614896576147c3906148018351614450565b6147c39061481783516143eb565b8051906148af613907565b5081515160018101908181116124a25760208401518110156148fd575b609f60208095519283010153805182116148f5575b505001805190600182018092116124a25752565b5238806148e1565b8160011b93828504600214831517156124a257602081614926829761423b609f95519184614159565b50955050506148cc565b80519061493b613907565b5081515160018101908181116124a257602084015181101561498a575b60ff6020809551928301015380518211614982575b50500180516000198101919082116124a25752565b52388061496d565b8160011b93828504600214831517156124a2576020816149b3829761423b60ff95519184614159565b5095505050614958565b906149c6613907565b508151518060080191826008116124a25760208401518311614a09575b60088451928301019067ffffffffffffffff198251161790528051821161428957505090565b8260011b838104600214841517156124a257614a2590856145ea565b6149e3565b90614a33613907565b508151518060040191826004116124a25760208401518311614a72575b60048451928301019063ffffffff198251161790528051821161428957505090565b8260011b838104600214841517156124a257614a8e90856145ea565b614a50565b90614a9c613907565b508151518060020191826002116124a25760208401518311614ad9575b60028451928301019061ffff198251161790528051821161428957505090565b8260011b838104600214841517156124a257614af590856145ea565b614ab9565b90614b03613907565b508151518060010191826001116124a25760208401518311614b3f575b60018451928301019060ff198251161790528051821161428957505090565b8260011b838104600214841517156124a257614b5b90856145ea565b614b20565b611488614ba7610321926040519283917f41304fac000000000000000000000000000000000000000000000000000000006020840152602060248401526044830190610954565b600080916020815191016a636f6e736f6c652e6c6f675afa50565b614ba7614c0a91610321936040519384927fb60e72cc000000000000000000000000000000000000000000000000000000006020850152604060248501526064840190610954565b90604483015203601f1981018352826102f2565b614ba7614c6e91610321936001600160a01b036040519485937f319af333000000000000000000000000000000000000000000000000000000006020860152604060248601526064850190610954565b9116604483015203601f1981018352826102f2565b614ba790614ccc92610321946040519485937fca47c4eb000000000000000000000000000000000000000000000000000000006020860152606060248601526084850190610954565b916044840152606483015203601f1981018352826102f2565b614ba790614d3692610321946001600160a01b036040519586947f0d26b925000000000000000000000000000000000000000000000000000000006020870152606060248701526084860190610954565b92166044840152606483015203601f1981018352826102f256fea2646970667358221220273b870e1ffc99712041adebdc9223ec2011bfaf96100defdc5ea56d0063751d64736f6c63430008120033",
  "linkReferences": {},
  "deployedLinkReferences": {}
}