{
  "_format": "hh-sol-artifact-1",
  "contractName": "FunctionsManager",
  "sourceName": "contracts/FunctionsManager.sol",
  "abi": [
    {
      "inputs": [
        {
          "internalType": "address",
          "name": "link",
          "type": "address"
        },
        {
          "internalType": "address",
          "name": "billingRegistryProxy",
          "type": "address"
        },
        {
          "internalType": "address",
          "name": "oracleProxy",
          "type": "address"
        },
        {
          "internalType": "uint96",
          "name": "_baseFee",
          "type": "uint96"
        },
        {
          "internalType": "uint32",
          "name": "_feeManagerCut",
          "type": "uint32"
        },
        {
          "internalType": "uint96",
          "name": "_minimumSubscriptionBalance",
          "type": "uint96"
        }
      ],
      "stateMutability": "nonpayable",
      "type": "constructor"
    },
    {
      "inputs": [],
      "name": "EmptyArgs",
      "type": "error"
    },
    {
      "inputs": [],
      "name": "EmptySecrets",
      "type": "error"
    },
    {
      "inputs": [],
      "name": "EmptySource",
      "type": "error"
    },
    {
      "inputs": [],
      "name": "NoInlineSecrets",
      "type": "error"
    },
    {
      "inputs": [],
      "name": "RequestIsAlreadyPending",
      "type": "error"
    },
    {
      "inputs": [],
      "name": "RequestIsNotPending",
      "type": "error"
    },
    {
      "inputs": [],
      "name": "SenderIsNotRegistry",
      "type": "error"
    },
    {
      "anonymous": false,
      "inputs": [
        {
          "indexed": false,
          "internalType": "uint256",
          "name": "newBaseFee",
          "type": "uint256"
        }
      ],
      "name": "BaseFeeUpdated",
      "type": "event"
    },
    {
      "anonymous": false,
      "inputs": [
        {
          "indexed": false,
          "internalType": "uint256",
          "name": "newFeeManagerCut",
          "type": "uint256"
        }
      ],
      "name": "FeeManagerCutUpdated",
      "type": "event"
    },
    {
      "anonymous": false,
      "inputs": [
        {
          "indexed": false,
          "internalType": "bytes32",
          "name": "requestId",
          "type": "bytes32"
        },
        {
          "indexed": false,
          "internalType": "bytes",
          "name": "response",
          "type": "bytes"
        },
        {
          "indexed": false,
          "internalType": "bytes",
          "name": "err",
          "type": "bytes"
        }
      ],
      "name": "FulfillRequest",
      "type": "event"
    },
    {
      "anonymous": false,
      "inputs": [
        {
          "indexed": true,
          "internalType": "bytes32",
          "name": "functionId",
          "type": "bytes32"
        },
        {
          "indexed": true,
          "internalType": "bytes32",
          "name": "requestId",
          "type": "bytes32"
        },
        {
          "indexed": true,
          "internalType": "address",
          "name": "caller",
          "type": "address"
        },
        {
          "indexed": false,
          "internalType": "address",
          "name": "owner",
          "type": "address"
        },
        {
          "indexed": false,
          "internalType": "bytes32",
          "name": "callbackFunction",
          "type": "bytes32"
        },
        {
          "indexed": false,
          "internalType": "uint256",
          "name": "usedGas",
          "type": "uint256"
        },
        {
          "indexed": false,
          "internalType": "bytes",
          "name": "response",
          "type": "bytes"
        },
        {
          "indexed": false,
          "internalType": "bytes",
          "name": "err",
          "type": "bytes"
        }
      ],
      "name": "FunctionCallCompleted",
      "type": "event"
    },
    {
      "anonymous": false,
      "inputs": [
        {
          "indexed": true,
          "internalType": "bytes32",
          "name": "functionId",
          "type": "bytes32"
        },
        {
          "indexed": true,
          "internalType": "bytes32",
          "name": "requestId",
          "type": "bytes32"
        },
        {
          "indexed": true,
          "internalType": "address",
          "name": "caller",
          "type": "address"
        },
        {
          "indexed": false,
          "internalType": "address",
          "name": "owner",
          "type": "address"
        },
        {
          "indexed": false,
          "internalType": "bytes32",
          "name": "callbackFunction",
          "type": "bytes32"
        },
        {
          "indexed": false,
          "internalType": "uint256",
          "name": "gasDeposit",
          "type": "uint256"
        },
        {
          "indexed": false,
          "internalType": "uint96",
          "name": "baseFee",
          "type": "uint96"
        },
        {
          "indexed": false,
          "internalType": "uint96",
          "name": "fee",
          "type": "uint96"
        }
      ],
      "name": "FunctionCalled",
      "type": "event"
    },
    {
      "anonymous": false,
      "inputs": [
        {
          "indexed": true,
          "internalType": "bytes32",
          "name": "functionId",
          "type": "bytes32"
        },
        {
          "indexed": true,
          "internalType": "address",
          "name": "owner",
          "type": "address"
        },
        {
          "indexed": true,
          "internalType": "bytes32",
          "name": "category",
          "type": "bytes32"
        },
        {
          "components": [
            {
              "internalType": "address",
              "name": "owner",
              "type": "address"
            },
            {
              "internalType": "string",
              "name": "name",
              "type": "string"
            },
            {
              "internalType": "string",
              "name": "desc",
              "type": "string"
            },
            {
              "internalType": "string",
              "name": "imageUrl",
              "type": "string"
            },
            {
              "internalType": "string[]",
              "name": "expectedArgs",
              "type": "string[]"
            },
            {
              "internalType": "bytes32",
              "name": "category",
              "type": "bytes32"
            }
          ],
          "indexed": false,
          "internalType": "struct FunctionsManager.FunctionMetadata",
          "name": "metadata",
          "type": "tuple"
        }
      ],
      "name": "FunctionRegistered",
      "type": "event"
    },
    {
      "anonymous": false,
      "inputs": [
        {
          "indexed": false,
          "internalType": "uint256",
          "name": "newMinimumDeposit",
          "type": "uint256"
        }
      ],
      "name": "MinimumSubscriptionBalanceUpdated",
      "type": "event"
    },
    {
      "anonymous": false,
      "inputs": [
        {
          "indexed": true,
          "internalType": "bytes32",
          "name": "requestId",
          "type": "bytes32"
        },
        {
          "indexed": false,
          "internalType": "bytes",
          "name": "result",
          "type": "bytes"
        },
        {
          "indexed": false,
          "internalType": "bytes",
          "name": "err",
          "type": "bytes"
        }
      ],
      "name": "OCRResponse",
      "type": "event"
    },
    {
      "anonymous": false,
      "inputs": [
        {
          "indexed": true,
          "internalType": "address",
          "name": "from",
          "type": "address"
        },
        {
          "indexed": true,
          "internalType": "address",
          "name": "to",
          "type": "address"
        }
      ],
      "name": "OwnershipTransferRequested",
      "type": "event"
    },
    {
      "anonymous": false,
      "inputs": [
        {
          "indexed": true,
          "internalType": "address",
          "name": "from",
          "type": "address"
        },
        {
          "indexed": true,
          "internalType": "address",
          "name": "to",
          "type": "address"
        }
      ],
      "name": "OwnershipTransferred",
      "type": "event"
    },
    {
      "anonymous": false,
      "inputs": [
        {
          "indexed": true,
          "internalType": "bytes32",
          "name": "id",
          "type": "bytes32"
        }
      ],
      "name": "RequestFulfilled",
      "type": "event"
    },
    {
      "anonymous": false,
      "inputs": [
        {
          "indexed": true,
          "internalType": "bytes32",
          "name": "id",
          "type": "bytes32"
        }
      ],
      "name": "RequestSent",
      "type": "event"
    },
    {
      "inputs": [],
      "name": "acceptOwnership",
      "outputs": [],
      "stateMutability": "nonpayable",
      "type": "function"
    },
    {
      "inputs": [
        {
          "internalType": "address",
          "name": "_spender",
          "type": "address"
        },
        {
          "internalType": "uint256",
          "name": "_value",
          "type": "uint256"
        }
      ],
      "name": "approveTokenSpender",
      "outputs": [],
      "stateMutability": "nonpayable",
      "type": "function"
    },
    {
      "inputs": [
        {
          "internalType": "address",
          "name": "",
          "type": "address"
        }
      ],
      "name": "authorMetadata",
      "outputs": [
        {
          "internalType": "string",
          "name": "name",
          "type": "string"
        },
        {
          "internalType": "string",
          "name": "imageUrl",
          "type": "string"
        },
        {
          "internalType": "string",
          "name": "websiteUrl",
          "type": "string"
        }
      ],
      "stateMutability": "view",
      "type": "function"
    },
    {
      "inputs": [],
      "name": "baseFee",
      "outputs": [
        {
          "internalType": "uint96",
          "name": "",
          "type": "uint96"
        }
      ],
      "stateMutability": "view",
      "type": "function"
    },
    {
      "inputs": [
        {
          "internalType": "string",
          "name": "functionName",
          "type": "string"
        },
        {
          "internalType": "address",
          "name": "owner",
          "type": "address"
        }
      ],
      "name": "calculateFunctionId",
      "outputs": [
        {
          "internalType": "bytes32",
          "name": "",
          "type": "bytes32"
        }
      ],
      "stateMutability": "pure",
      "type": "function"
    },
    {
      "inputs": [
        {
          "components": [
            {
              "internalType": "uint96",
              "name": "fees",
              "type": "uint96"
            },
            {
              "internalType": "string",
              "name": "functionName",
              "type": "string"
            },
            {
              "internalType": "string",
              "name": "desc",
              "type": "string"
            },
            {
              "internalType": "string",
              "name": "imageUrl",
              "type": "string"
            },
            {
              "internalType": "string",
              "name": "source",
              "type": "string"
            },
            {
              "internalType": "string[]",
              "name": "expectedArgs",
              "type": "string[]"
            },
            {
              "internalType": "enum Functions.Location",
              "name": "codeLocation",
              "type": "uint8"
            },
            {
              "internalType": "enum Functions.Location",
              "name": "secretsLocation",
              "type": "uint8"
            },
            {
              "internalType": "enum Functions.CodeLanguage",
              "name": "language",
              "type": "uint8"
            },
            {
              "internalType": "bytes32",
              "name": "category",
              "type": "bytes32"
            },
            {
              "internalType": "uint64",
              "name": "subId",
              "type": "uint64"
            },
            {
              "internalType": "bytes",
              "name": "secrets",
              "type": "bytes"
            }
          ],
          "internalType": "struct FunctionsManager.FunctionsRegisterRequest",
          "name": "request",
          "type": "tuple"
        },
        {
          "internalType": "address",
          "name": "owner",
          "type": "address"
        }
      ],
      "name": "calculateFunctionIdFromRequest",
      "outputs": [
        {
          "internalType": "bytes32",
          "name": "",
          "type": "bytes32"
        }
      ],
      "stateMutability": "pure",
      "type": "function"
    },
    {
      "inputs": [
        {
          "components": [
            {
              "internalType": "enum Functions.Location",
              "name": "codeLocation",
              "type": "uint8"
            },
            {
              "internalType": "enum Functions.Location",
              "name": "secretsLocation",
              "type": "uint8"
            },
            {
              "internalType": "enum Functions.CodeLanguage",
              "name": "language",
              "type": "uint8"
            },
            {
              "internalType": "string",
              "name": "source",
              "type": "string"
            },
            {
              "internalType": "bytes",
              "name": "secrets",
              "type": "bytes"
            },
            {
              "internalType": "string[]",
              "name": "args",
              "type": "string[]"
            }
          ],
          "internalType": "struct Functions.Request",
          "name": "req",
          "type": "tuple"
        },
        {
          "internalType": "uint64",
          "name": "subscriptionId",
          "type": "uint64"
        },
        {
          "internalType": "uint32",
          "name": "gasLimit",
          "type": "uint32"
        },
        {
          "internalType": "uint256",
          "name": "gasPrice",
          "type": "uint256"
        }
      ],
      "name": "estimateCost",
      "outputs": [
        {
          "internalType": "uint96",
          "name": "",
          "type": "uint96"
        }
      ],
      "stateMutability": "view",
      "type": "function"
    },
    {
      "inputs": [
        {
          "internalType": "bytes32",
          "name": "functionId",
          "type": "bytes32"
        },
        {
          "internalType": "string[]",
          "name": "args",
          "type": "string[]"
        },
        {
          "internalType": "uint32",
          "name": "gasLimit",
          "type": "uint32"
        }
      ],
      "name": "executeRequest",
      "outputs": [
        {
          "internalType": "bytes32",
          "name": "",
          "type": "bytes32"
        }
      ],
      "stateMutability": "nonpayable",
      "type": "function"
    },
    {
      "inputs": [],
      "name": "feeManagerCut",
      "outputs": [
        {
          "internalType": "uint32",
          "name": "",
          "type": "uint32"
        }
      ],
      "stateMutability": "view",
      "type": "function"
    },
    {
      "inputs": [
        {
          "internalType": "bytes32",
          "name": "functionId",
          "type": "bytes32"
        }
      ],
      "name": "forceUnlockFees",
      "outputs": [],
      "stateMutability": "nonpayable",
      "type": "function"
    },
    {
      "inputs": [
        {
          "internalType": "bytes32",
          "name": "",
          "type": "bytes32"
        }
      ],
      "name": "functionExecuteMetadatas",
      "outputs": [
        {
          "internalType": "address",
          "name": "owner",
          "type": "address"
        },
        {
          "internalType": "uint64",
          "name": "subId",
          "type": "uint64"
        },
        {
          "internalType": "uint96",
          "name": "fee",
          "type": "uint96"
        },
        {
          "internalType": "uint96",
          "name": "unlockedProfitPool",
          "type": "uint96"
        },
        {
          "internalType": "uint64",
          "name": "functionsCalledCount",
          "type": "uint64"
        },
        {
          "internalType": "uint96",
          "name": "lockedProfitPool",
          "type": "uint96"
        },
        {
          "internalType": "uint96",
          "name": "totalFeesCollected",
          "type": "uint96"
        },
        {
          "internalType": "uint64",
          "name": "successfulResponseCount",
          "type": "uint64"
        },
        {
          "internalType": "uint64",
          "name": "failedResponseCount",
          "type": "uint64"
        }
      ],
      "stateMutability": "view",
      "type": "function"
    },
    {
      "inputs": [],
      "name": "functionManagerProfitPool",
      "outputs": [
        {
          "internalType": "uint96",
          "name": "",
          "type": "uint96"
        }
      ],
      "stateMutability": "view",
      "type": "function"
    },
    {
      "inputs": [
        {
          "internalType": "bytes32",
          "name": "",
          "type": "bytes32"
        }
      ],
      "name": "functionMetadatas",
      "outputs": [
        {
          "internalType": "address",
          "name": "owner",
          "type": "address"
        },
        {
          "internalType": "string",
          "name": "name",
          "type": "string"
        },
        {
          "internalType": "string",
          "name": "desc",
          "type": "string"
        },
        {
          "internalType": "string",
          "name": "imageUrl",
          "type": "string"
        },
        {
          "internalType": "bytes32",
          "name": "category",
          "type": "bytes32"
        }
      ],
      "stateMutability": "view",
      "type": "function"
    },
    {
      "inputs": [
        {
          "internalType": "bytes32",
          "name": "",
          "type": "bytes32"
        }
      ],
      "name": "functionResponses",
      "outputs": [
        {
          "internalType": "bytes32",
          "name": "functionId",
          "type": "bytes32"
        },
        {
          "internalType": "address",
          "name": "caller",
          "type": "address"
        },
        {
          "internalType": "bytes32",
          "name": "callbackFunction",
          "type": "bytes32"
        },
        {
          "internalType": "bytes",
          "name": "response",
          "type": "bytes"
        },
        {
          "internalType": "bytes",
          "name": "err",
          "type": "bytes"
        }
      ],
      "stateMutability": "view",
      "type": "function"
    },
    {
      "inputs": [],
      "name": "functionsCalledCount",
      "outputs": [
        {
          "internalType": "uint96",
          "name": "",
          "type": "uint96"
        }
      ],
      "stateMutability": "view",
      "type": "function"
    },
    {
      "inputs": [],
      "name": "functionsRegisteredCount",
      "outputs": [
        {
          "internalType": "uint64",
          "name": "",
          "type": "uint64"
        }
      ],
      "stateMutability": "view",
      "type": "function"
    },
    {
      "inputs": [],
      "name": "getDONPublicKey",
      "outputs": [
        {
          "internalType": "bytes",
          "name": "",
          "type": "bytes"
        }
      ],
      "stateMutability": "view",
      "type": "function"
    },
    {
      "inputs": [
        {
          "internalType": "bytes32",
          "name": "_functionId",
          "type": "bytes32"
        }
      ],
      "name": "getFunctionExecuteMetadata",
      "outputs": [
        {
          "components": [
            {
              "internalType": "address",
              "name": "owner",
              "type": "address"
            },
            {
              "internalType": "uint64",
              "name": "subId",
              "type": "uint64"
            },
            {
              "internalType": "uint96",
              "name": "fee",
              "type": "uint96"
            },
            {
              "internalType": "uint96",
              "name": "unlockedProfitPool",
              "type": "uint96"
            },
            {
              "internalType": "uint64",
              "name": "functionsCalledCount",
              "type": "uint64"
            },
            {
              "internalType": "uint96",
              "name": "lockedProfitPool",
              "type": "uint96"
            },
            {
              "internalType": "uint96",
              "name": "totalFeesCollected",
              "type": "uint96"
            },
            {
              "internalType": "uint64",
              "name": "successfulResponseCount",
              "type": "uint64"
            },
            {
              "internalType": "uint64",
              "name": "failedResponseCount",
              "type": "uint64"
            }
          ],
          "internalType": "struct FunctionsManager.FunctionExecuteMetadata",
          "name": "",
          "type": "tuple"
        }
      ],
      "stateMutability": "view",
      "type": "function"
    },
    {
      "inputs": [
        {
          "internalType": "bytes32",
          "name": "_functionId",
          "type": "bytes32"
        }
      ],
      "name": "getFunctionMetadata",
      "outputs": [
        {
          "components": [
            {
              "internalType": "address",
              "name": "owner",
              "type": "address"
            },
            {
              "internalType": "string",
              "name": "name",
              "type": "string"
            },
            {
              "internalType": "string",
              "name": "desc",
              "type": "string"
            },
            {
              "internalType": "string",
              "name": "imageUrl",
              "type": "string"
            },
            {
              "internalType": "string[]",
              "name": "expectedArgs",
              "type": "string[]"
            },
            {
              "internalType": "bytes32",
              "name": "category",
              "type": "bytes32"
            }
          ],
          "internalType": "struct FunctionsManager.FunctionMetadata",
          "name": "",
          "type": "tuple"
        }
      ],
      "stateMutability": "view",
      "type": "function"
    },
    {
      "inputs": [
        {
          "internalType": "bytes32",
          "name": "_requestId",
          "type": "bytes32"
        }
      ],
      "name": "getFunctionResponse",
      "outputs": [
        {
          "components": [
            {
              "internalType": "bytes32",
              "name": "functionId",
              "type": "bytes32"
            },
            {
              "internalType": "address",
              "name": "caller",
              "type": "address"
            },
            {
              "internalType": "bytes32",
              "name": "callbackFunction",
              "type": "bytes32"
            },
            {
              "internalType": "bytes",
              "name": "response",
              "type": "bytes"
            },
            {
              "internalType": "bytes",
              "name": "err",
              "type": "bytes"
            }
          ],
          "internalType": "struct FunctionsManager.FunctionResponse",
          "name": "",
          "type": "tuple"
        }
      ],
      "stateMutability": "view",
      "type": "function"
    },
    {
      "inputs": [
        {
          "internalType": "uint64",
          "name": "_subscriptionId",
          "type": "uint64"
        }
      ],
      "name": "getSubscriptionBalance",
      "outputs": [
        {
          "internalType": "uint256",
          "name": "",
          "type": "uint256"
        }
      ],
      "stateMutability": "view",
      "type": "function"
    },
    {
      "inputs": [
        {
          "internalType": "bytes32",
          "name": "requestId",
          "type": "bytes32"
        },
        {
          "internalType": "bytes",
          "name": "response",
          "type": "bytes"
        },
        {
          "internalType": "bytes",
          "name": "err",
          "type": "bytes"
        }
      ],
      "name": "handleOracleFulfillment",
      "outputs": [],
      "stateMutability": "nonpayable",
      "type": "function"
    },
    {
      "inputs": [],
      "name": "minimumSubscriptionBalance",
      "outputs": [
        {
          "internalType": "uint96",
          "name": "",
          "type": "uint96"
        }
      ],
      "stateMutability": "view",
      "type": "function"
    },
    {
      "inputs": [],
      "name": "owner",
      "outputs": [
        {
          "internalType": "address",
          "name": "",
          "type": "address"
        }
      ],
      "stateMutability": "view",
      "type": "function"
    },
    {
      "inputs": [
        {
          "internalType": "uint64",
          "name": "_subscriptionId",
          "type": "uint64"
        }
      ],
      "name": "refillSubscription",
      "outputs": [],
      "stateMutability": "nonpayable",
      "type": "function"
    },
    {
      "inputs": [
        {
          "components": [
            {
              "internalType": "uint96",
              "name": "fees",
              "type": "uint96"
            },
            {
              "internalType": "string",
              "name": "functionName",
              "type": "string"
            },
            {
              "internalType": "string",
              "name": "desc",
              "type": "string"
            },
            {
              "internalType": "string",
              "name": "imageUrl",
              "type": "string"
            },
            {
              "internalType": "string",
              "name": "source",
              "type": "string"
            },
            {
              "internalType": "string[]",
              "name": "expectedArgs",
              "type": "string[]"
            },
            {
              "internalType": "enum Functions.Location",
              "name": "codeLocation",
              "type": "uint8"
            },
            {
              "internalType": "enum Functions.Location",
              "name": "secretsLocation",
              "type": "uint8"
            },
            {
              "internalType": "enum Functions.CodeLanguage",
              "name": "language",
              "type": "uint8"
            },
            {
              "internalType": "bytes32",
              "name": "category",
              "type": "bytes32"
            },
            {
              "internalType": "uint64",
              "name": "subId",
              "type": "uint64"
            },
            {
              "internalType": "bytes",
              "name": "secrets",
              "type": "bytes"
            }
          ],
          "internalType": "struct FunctionsManager.FunctionsRegisterRequest",
          "name": "request",
          "type": "tuple"
        }
      ],
      "name": "registerFunction",
      "outputs": [
        {
          "internalType": "bytes32",
          "name": "",
          "type": "bytes32"
        }
      ],
      "stateMutability": "payable",
      "type": "function"
    },
    {
      "inputs": [
        {
          "internalType": "uint96",
          "name": "_baseFee",
          "type": "uint96"
        }
      ],
      "name": "setBaseFee",
      "outputs": [],
      "stateMutability": "nonpayable",
      "type": "function"
    },
    {
      "inputs": [
        {
          "internalType": "uint32",
          "name": "_feeManagerCut",
          "type": "uint32"
        }
      ],
      "name": "setFeeManagerCut",
      "outputs": [],
      "stateMutability": "nonpayable",
      "type": "function"
    },
    {
      "inputs": [
        {
          "internalType": "uint96",
          "name": "_minimumSubBalance",
          "type": "uint96"
        }
      ],
      "name": "setMinimumSubscriptionBalance",
      "outputs": [],
      "stateMutability": "nonpayable",
      "type": "function"
    },
    {
      "inputs": [
        {
          "internalType": "uint64",
          "name": "",
          "type": "uint64"
        }
      ],
      "name": "subscriptionBalances",
      "outputs": [
        {
          "internalType": "uint96",
          "name": "",
          "type": "uint96"
        }
      ],
      "stateMutability": "view",
      "type": "function"
    },
    {
      "inputs": [],
      "name": "totalFeesCollected",
      "outputs": [
        {
          "internalType": "uint96",
          "name": "",
          "type": "uint96"
        }
      ],
      "stateMutability": "view",
      "type": "function"
    },
    {
      "inputs": [
        {
          "internalType": "address",
          "name": "to",
          "type": "address"
        }
      ],
      "name": "transferOwnership",
      "outputs": [],
      "stateMutability": "nonpayable",
      "type": "function"
    },
    {
      "inputs": [
        {
          "internalType": "bytes32",
          "name": "functionId",
          "type": "bytes32"
        }
      ],
      "name": "withdrawFunctionProfitToAuthor",
      "outputs": [],
      "stateMutability": "nonpayable",
      "type": "function"
    },
    {
      "inputs": [],
      "name": "withdrawFunctionsManagerProfitToOwner",
      "outputs": [],
      "stateMutability": "nonpayable",
      "type": "function"
    },
    {
      "inputs": [
        {
          "internalType": "bytes32[]",
          "name": "functionIds",
          "type": "bytes32[]"
        }
      ],
      "name": "withdrawMultipleFunctionProfitToAuthor",
      "outputs": [],
      "stateMutability": "nonpayable",
      "type": "function"
    }
  ],
  "bytecode": "0x6080604090808252346200026b5760c08162006062803803809162000025828562000270565b8339810103126200026b576200003b81620002aa565b906020906200004c828201620002aa565b906200005a858201620002aa565b6200006860608301620002bf565b60808301519263ffffffff8416908185036200026b5760a06200008c9101620002bf565b9160018060a01b038094169460018060a01b03199460009987878c5416178b5533156200022757338760025416176002556064600e549511620001c9578998969492828c9b999795936fffffffff0000000000000000000000009316988988600b541617600b551686600c541617600c5560601b16916c01000000000000000000000000600160e01b03191690600160801b600160e01b039060801b161717600e5560a01b1617600d55604486518095819363095ea7b360e01b83523060048401526b033b2e3c9fd0803ce800000060248401525af18015620001bf576200017e575b8351615d8d9081620002d58239f35b81813d8311620001b7575b62000195818362000270565b81010312620001b3575180151503620001b05780806200016f565b80fd5b5080fd5b503d62000189565b84513d85823e3d90fd5b8b5162461bcd60e51b8152600481018b9052603160248201527f466565206d616e6167657220637574206d757374206265206c6573732074686160448201527006e206f7220657175616c20746f2031303607c1b6064820152608490fd5b8b5162461bcd60e51b8152600481018b9052601860248201527f43616e6e6f7420736574206f776e657220746f207a65726f00000000000000006044820152606490fd5b600080fd5b601f909101601f19168101906001600160401b038211908210176200029457604052565b634e487b7160e01b600052604160045260246000fd5b51906001600160a01b03821682036200026b57565b51906001600160601b03821682036200026b5756fe6080604052600436101561001257600080fd5b60003560e01c80630ca76175146102475780631ac67b34146102425780631f3597fa1461023d578063228764b214610238578063257912f3146102335780634351077d1461022e578063475a8b46146102295780634e011def1461022457806356fa1a2a1461021f57806360c6d8ae1461021a5780636ef25c3a146102155780637587b1b21461021057806379ba50971461020b5780637b0caaa2146102065780637bcb334d146102015780638913aa6d146101fc5780638a328420146101f75780638da5cb5b146101f257806396e10261146101ed578063a1901523146101e8578063a36df5c2146101e3578063b6db95e0146101de578063ba9c513f146101d9578063bdf47104146101d4578063be4f00cd146101cf578063c7147f81146101ca578063d328a91e146101c5578063d4b39175146101c0578063d5549c8a146101bb578063d7e6a96b146101b6578063de76f053146101b1578063e58e3650146101ac578063f2fde38b146101a7578063f3ba47eb146101a25763f8454cd81461019d57600080fd5b6123df565b612305565b61223e565b611ceb565b611bde565b611b7b565b611b54565b611a4e565b611960565b611868565b6117c2565b6117a2565b611709565b611595565b611459565b61142f565b6113a9565b61136b565b6112f2565b611247565b6111e2565b6111a8565b6110de565b611097565b611044565b611023565b610fb1565b610ef1565b610dfb565b610d17565b610c9a565b610be0565b6109e2565b610942565b6103cb565b634e487b7160e01b600052604160045260246000fd5b60c081019081106001600160401b0382111761027d57604052565b61024c565b60a081019081106001600160401b0382111761027d57604052565b6001600160401b03811161027d57604052565b604081019081106001600160401b0382111761027d57604052565b606081019081106001600160401b0382111761027d57604052565b90601f801991011681019081106001600160401b0382111761027d57604052565b6040519061018082018281106001600160401b0382111761027d57604052565b6040519061033482610262565b565b6040519061012082018281106001600160401b0382111761027d57604052565b6001600160401b03811161027d57601f01601f191660200190565b92919261037d82610356565b9161038b60405193846102e6565b8294818452818301116103a8578281602093846000960137010152565b600080fd5b9080601f830112156103a8578160206103c893359101610371565b90565b346103a85760603660031901126103a8576001600160401b036004356024358281116103a8576103ff9036906004016103ad565b916044359081116103a8576104189036906004016103ad565b91610429610424614d1a565b615b07565b61043a33610435614d53565b615baa565b6001600160a01b0392610470338561046961045d600c546001600160a01b031690565b6001600160a01b031690565b1614614db2565b6104a38461049b600161048d876000526006602052604060002090565b01546001600160a01b031690565b161515614e23565b6104e86104e161045d6104d46104c3876000526006602052604060002090565b546000526005602052604060002090565b546001600160a01b031690565b1515614e94565b6104f433610435614f05565b61051061050b846000526006602052604060002090565b614587565b9382606086015281608086015261053a85610535866000526006602052604060002090565b613ba9565b61055761055286516000526005602052604060002090565b613693565b610562610424614f64565b6106566106356105bf6105af61058260408601516001600160601b031690565b6105a96105a061059b600e5463ffffffff9060601c1690565b614f9d565b63ffffffff1690565b906138e4565b6001600160601b03606491160490565b6105ed60a085016105e0836105db83516001600160601b031690565b613ac7565b6001600160601b03169052565b61060e606085016105e08361060983516001600160601b031690565b6138c9565b61062a60c085016105e08361060983516001600160601b031690565b600f5460a01c6138c9565b6001600160a01b036001600160a01b0319600f549260a01b16911617600f55565b82516107fb5761068960e0820161067c61067782516001600160401b031690565b6130cc565b6001600160401b03169052565b6106a7816106a288516000526005602052604060002090565b612e18565b6106b2610424614fb2565b61070f6106ca61045d600c546001600160a01b031690565b93600060208401956106e387516001600160401b031690565b90604051808096819463523e3b4b60e11b8352600483019190916001600160401b036020820193169052565b03915afa9485156107f6577f6968e95d7bc2605bb814d168859020d6e2f617bc615d1ae5aef0ce68af0d1631956107b0936000916107d3575b506001600160601b0361076c610760600d5460a01c90565b6001600160601b031690565b9116106107b5575b50875195604061079f61079160208c01516001600160a01b031690565b95516001600160a01b031690565b990151604051958695169985615011565b0390a4005b516107cd906001600160401b03166142ff565b6142ff565b38610774565b6107ee913d8091833e6107e681836102e6565b8101906127eb565b505038610748565b61288d565b610817610100820161067c61067782516001600160401b031690565b610689565b90600182811c9216801561084c575b602083101461083657565b634e487b7160e01b600052602260045260246000fd5b91607f169161082b565b906040519182600082549261086a8461081c565b9081845260019485811690816000146108d75750600114610894575b5050610334925003836102e6565b9093915060005260209081600020936000915b8183106108bf57505061033493508201013880610886565b855488840185015294850194879450918301916108a7565b91505061033494506020925060ff191682840152151560051b8201013880610886565b60005b83811061090d5750506000910152565b81810151838201526020016108fd565b90602091610936815180928185528580860191016108fa565b601f01601f1916010190565b346103a85760203660031901126103a857600435600052600460205260406000206001600160a01b0381541661097a60018301610856565b916109d861098a60028301610856565b916109ca600561099c60038401610856565b920154936109bc604051978897885260a0602089015260a088019061091d565b90868203604088015261091d565b90848203606086015261091d565b9060808301520390f35b346103a85760203660031901126103a857610ad56020600435610a06610424614492565b610a306001610a1f836000526005602052604060002090565b015460601c6001600160601b031690565b90610a6c6001610a4a836000526005602052604060002090565b0177ffffffffffffffffffffffff000000000000000000000000198154169055565b610a986104d4610a8761045d600b546001600160a01b031690565b926000526005602052604060002090565b600060405180968195829463a9059cbb60e01b8452600484019092916001600160601b036020916001600160a01b03604085019616845216910152565b03925af180156107f657610ae557005b610b059060203d8111610b07575b610afd81836102e6565b8101906131a4565b005b503d610af3565b6020918282526001600160a01b0381511683830152610b3b8382015160c0604085015260e084019061091d565b610b6e610b5a604084015192601f19938487830301606088015261091d565b60608401518386830301608087015261091d565b608083015194828583030160a086015285519182815281810182808560051b8401019801946000925b858410610bb2575050505050505060a060c091015191015290565b909192939495988580610bcf838686600196030188528d5161091d565b9b0194019401929594939190610b97565b346103a85760203660031901126103a857610bf96126c3565b50610c0561042461454e565b6004356000526004602052610c8b6040600020600560405191610c2783610262565b6001600160a01b038154168352610c4060018201610856565b6020840152610c5160028201610856565b6040840152610c6260038201610856565b6060840152610c73600482016137c6565b6080840152015460a082015260405191829182610b0e565b0390f35b60009103126103a857565b346103a85760003660031901126103a8576020600d5460a01c604051908152f35b906103c89160208152815160208201526001600160a01b036020830151166040820152604082015160608201526080610d02606084015160a08385015260c084019061091d565b9201519060a0601f198285030191015261091d565b346103a85760203660031901126103a857610d30613b7c565b50610d6f604051610d40816102b0565b601381527f67657446756e6374696f6e526573706f6e7365000000000000000000000000006020820152615b07565b6004356000526006602052610c8b6040600020610dcc600460405192610d9484610282565b805484526001600160a01b03600182015416602085015260028101546040850152610dc160038201610856565b606085015201610856565b608082015260405191829182610cbb565b6001600160a01b038116036103a857565b6024359061033482610ddd565b346103a85760403660031901126103a857610ad56020600435610e1d81610ddd565b60243590610e29612500565b610e8e8282604051610e3a816102cb565b603a81527f617070726f76696e672025732061732061207370656e646572206f66204c494e878201527f4b207769746820612076616c7565206f6620757020746f2025640000000000006040820152615cec565b610ea361045d600b546001600160a01b031690565b9060006040518096819582947f095ea7b300000000000000000000000000000000000000000000000000000000845260048401602090939291936001600160a01b0360408201951681520152565b346103a85760203660031901126103a857600435600052600560205260406000208054610c8b6001830154610f35600360028601549501546001600160401b031690565b604080516001600160a01b03861681526001600160401b0360a096871c811660208301526001600160601b0385811693830193909352606085811c84168184015260c095861c6080840152888416978301979097529587901c909116838201529490911c60e08501529091166101008301528190610120820190565b346103a85760403660031901126103a8576004356001600160401b038082116103a857366023830112156103a85781600401359081116103a85736602482840101116103a857610c8b9161101391602480359261100d84610ddd565b016145d5565b6040519081529081906020820190565b346103a85760003660031901126103a8576020600f5460a01c604051908152f35b346103a85760003660031901126103a85760206001600160601b03600e5460801c16604051908152f35b6001600160401b038116036103a857565b602435906103348261106e565b35906103348261106e565b346103a85760203660031901126103a8576001600160401b036004356110bc8161106e565b16600052600a60205260206001600160601b0360406000205416604051908152f35b346103a8576000806003193601126111a5576001600160a01b0380600354163303611161576002546001600160a01b0316600280546001600160a01b03191633179055906111376001600160a01b031960035416600355565b3391167f8be0079c531659141344cd1fd0a4f28419497f9722a3daafe3b4186f6b6457e08380a380f35b606460405162461bcd60e51b815260206004820152601660248201527f4d7573742062652070726f706f736564206f776e6572000000000000000000006044820152fd5b80fd5b346103a85760003660031901126103a857602063ffffffff600e5460601c16604051908152f35b6044359063ffffffff821682036103a857565b346103a85760603660031901126103a8576024356001600160401b038082116103a857366023830112156103a85781600401359081116103a8573660248260051b840101116103a857610c8b9161101391602461123d6111cf565b9201600435613d14565b346103a85760203660031901126103a8576001600160a01b0360043561126c81610ddd565b1660005260096020526112ba6040600020610c8b61128982610856565b916112c86112a5600261129e60018501610856565b9301610856565b9160405195869560608752606087019061091d565b90858203602087015261091d565b90838203604085015261091d565b6001600160601b038116036103a857565b3590610334826112d6565b346103a85760203660031901126103a8577fcefd6167f8a328d10167fe2c462697369efecfa6db2373014c0b4489d2854e536020600435611332816112d6565b61133a612500565b600d546001600160a01b036001600160a01b03198360a01b16911617600d556001600160601b0360405191168152a1005b346103a85760003660031901126103a85760206001600160a01b0360025416604051908152f35b6001600160401b03811161027d5760051b60200190565b346103a8576020806003193601126103a8576004356001600160401b0381116103a857366023820112156103a8578060040135906113e682611392565b916113f460405193846102e6565b80835260248484019160051b830101913683116103a857602401905b82821061142057610b05846144cb565b81358152908401908401611410565b346103a85760003660031901126103a8576020600f546001600160601b036040519160401c168152f35b346103a85760203660031901126103a857600435600052600660205260406000208054610c8b6001600160a01b03600184015416926114d36002820154916114af60046114a860038401610856565b9201610856565b9260405196879687526020870152604086015260a0606086015260a085019061091d565b90838203608085015261091d565b929190926114ee84611392565b916114fc60405193846102e6565b829480845260208094019060051b8301928284116103a85780915b84831061152657505050505050565b82356001600160401b0381116103a857869161154586849386016103ad565b815201920191611517565b9080601f830112156103a8578160206103c8933591016114e1565b600211156103a857565b35906103348261156b565b600111156103a857565b359061033482611580565b346103a8576003196040368201126103a85760048035916001600160401b03908184116103a8576101809084360301126103a8576115d1610307565b906115dd8484016112e7565b825260248401358181116103a8576115fa908436918701016103ad565b602083015260448401358181116103a85761161a908436918701016103ad565b604083015260648401358181116103a85761163a908436918701016103ad565b606083015260848401358181116103a85761165a908436918701016103ad565b608083015260a48401358181116103a85761167a90843691870101611550565b60a083015261168b60c48501611575565b60c083015261169c60e48501611575565b60e08301526116ae610104850161158a565b6101008301526101248401356101208301526116cd610144850161108c565b6101408301526101648401359081116103a857610c8b93611013936116f592369201016103ad565b610160820152611703610dee565b90614615565b346103a85760203660031901126103a85760043563ffffffff8116908181036103a8577f5df6c53187c7cfa2643679f49eee9fc8a62e23a074ed0b12f17b5635c25f721d91602091611759612500565b7fffffffffffffffffffffffffffffffff00000000ffffffffffffffffffffffff6fffffffff000000000000000000000000600e549260601b16911617600e55604051908152a1005b346103a85760203660031901126103a857610b056004356107c88161106e565b346103a85760203660031901126103a8577f803bee7e92bbc6ae7a1551f9f4ed3e31a8ea8df32e93332f41b0028f1091f9c36020600435611802816112d6565b61180a612500565b600e547fffffffff000000000000000000000000ffffffffffffffffffffffffffffffff7bffffffffffffffffffffffff000000000000000000000000000000008360801b16911617600e556001600160601b0360405191168152a1005b346103a8576000806003193601126111a557611882612500565b6118996001600160a01b0360025416610435614433565b61192260206118b0600e546001600160601b031690565b6118c56001600160601b0319600e5416600e55565b6118da61045d600b546001600160a01b031690565b6002546001600160a01b03168560405180968195829463a9059cbb60e01b8452600484019092916001600160601b036020916001600160a01b03604085019616845216910152565b03925af180156107f657611934575080f35b61194b9060203d8111610b0757610afd81836102e6565b5080f35b9060206103c892818152019061091d565b346103a8576000806003193601126111a5576004816001600160a01b03815416604051928380927fd328a91e0000000000000000000000000000000000000000000000000000000082525afa9081156107f65782916119c8575b60405180610c8b848261194f565b90503d8083833e6119d981836102e6565b810190602081830312611a46578051906001600160401b038211611a4a570181601f82011215611a4657805192611a0f84610356565b92611a1d60405194856102e6565b848452602085840101116111a55750610c8b92611a4091602080850191016108fa565b386119ba565b8280fd5b8380fd5b346103a8576003196080368201126103a8576004356001600160401b03918282116103a85760c09082360301126103a857611a87610327565b611a9382600401611575565b8152611aa160248301611575565b6020820152611ab26044830161158a565b604082015260648201358381116103a857611ad390600436918501016103ad565b606082015260848201358381116103a857611af490600436918501016103ad565b608082015260a48201359283116103a857611b1b611b3a926004610c8b9536920101611550565b60a0820152611b2861107f565b611b306111cf565b9060643592614736565b6040516001600160601b0390911681529081906020820190565b346103a85760003660031901126103a85760206001600160601b03600e5416604051908152f35b346103a85760203660031901126103a8576001600160401b03600435611ba08161106e565b6110bc604051611baf816102b0565b601681527f676574537562736372697074696f6e42616c616e6365000000000000000000006020820152615b07565b346103a85760203660031901126103a857611bf7612500565b600435600052600560205260406000206001600160a01b0381541615611ca75780611c926002610b05930191611c516001611c3985546001600160601b031690565b92019161060983546001600160601b039060601c1690565b77ffffffffffffffffffffffff0000000000000000000000001977ffffffffffffffffffffffff00000000000000000000000083549260601b169116179055565b80546bffffffffffffffffffffffff19169055565b606460405162461bcd60e51b815260206004820152601760248201527f46756e6374696f6e20646f6573206e6f742065786973740000000000000000006044820152fd5b602060031981813601126103a857600435916001600160401b038084116103a857610180846004019385360301126103a857611d2683612558565b506024840190611d42611d398386612562565b90501515612594565b611d6b611d4f8386612562565b90611d65611d5b6125df565b9133933691610371565b90615c71565b611d758285612562565b611d90611d9e6040969387519283918683019533918761263e565b03601f1981018352826102e6565b519020946001600160a01b0392611dcd84611dc66104d48a6000526004602052604060002090565b1615612678565b611df0611dea61045d6104d48a6000526005602052604060002090565b15612678565b611e0f611e08611dfe6126c3565b3381529684612562565b3691610371565b83860152611e23611e0860448a0184612562565b86860152611e37611e0860648a0184612562565b6060860152611e53611e4c60a48a01846126f7565b36916114e1565b608086015260a08501936101248901358552611e6d61272c565b33815291611e8c611e7d85612558565b6001600160601b0316848a0152565b6101448a019080611e9c83612782565b166120bb57505050611eaf610424612984565b611ec461045d600b546001600160a01b031690565b86516370a0823160e01b815233600482015291908490839060249082905afa9889156107f657611f32611fdd95611f1b610c8b9c611fc49660009161208e575b50611f14610760600d5460a01c90565b11156129cc565b611f23613318565b6001600160401b031690840152565b611f3a612a3d565b93611f6e611f4a60c48401612a95565b611f576101048501612aa9565b611f67611e086084870186612562565b918861465d565b6001611f7c60e48401612a95565b611f8581612a86565b1480612076575b612054575b5050611fb086611fab8a6000526004602052604060002090565b612cda565b6106a2886000526005602052604060002090565b611fd8866000526007602052604060002090565b61303b565b5190837f12e4b4be5fe05eb0dff7a431e5ab13f8446aa6cf09a94b595e1d982a7ab02e5184518061200f339582610b0e565b0390a461204661202a610677600f546001600160401b031690565b6001600160401b03166001600160401b0319600f541617600f55565b519081529081906020820190565b611e086120699161016461206f940190612562565b846146ac565b3880611f91565b50612085610164830182612562565b90501515611f8c565b6120ae9150833d85116120b4575b6120a681836102e6565b8101906129bd565b38611f04565b503d61209c565b6120df906120ce839c959697949c612782565b906120d761278c565b911690615b4e565b6120f461045d600c546001600160a01b031690565b99600061212d61210384612782565b8b5163523e3b4b60e11b81526001600160401b0390911660048201529c8d91829081906024820190565b03915afa9a8b156107f657600090819c61221f575b50163081149033146000915b8c518310156121fd578c61217661045d6121698630946128c3565b516001600160a01b031690565b036121dc57506001915b82806121d5575b61219a57612194906128af565b9161214e565b50610c8b9b5092611f23611fc495936121c36121c894611fdd9a99975b816121cd575b506128ed565b612782565b611f32565b9050386121bd565b5081612187565b918c6121ef61045d6121698433946128c3565b036121805760019150612180565b610c8b9c506121c89250611fc495936121c3611f2392611fdd9a9997946121b7565b90612235929c503d8091833e6107e681836102e6565b9b915038612142565b346103a85760203660031901126103a8576001600160a01b0360043561226381610ddd565b61226b612500565b163381146122c157806001600160a01b0319600354161760035561229a61045d6002546001600160a01b031690565b7fed8889f560326eb138920d842192f0eb3dd22b4f139c87a2c57538e05bae1278600080a3005b606460405162461bcd60e51b815260206004820152601760248201527f43616e6e6f74207472616e7366657220746f2073656c660000000000000000006044820152fd5b346103a85760003660031901126103a85760206001600160401b03600f5416604051908152f35b81516001600160a01b031681526020808301516001600160401b0316908201526040808301516001600160601b0316908201526101208101929161033491906060818101516001600160601b0316908301526080818101516001600160401b03169083015260a0818101516001600160601b03169083015260c0818101516001600160601b03169083015260e0818101516001600160401b031690830152610100908101516001600160401b0316910152565b346103a85760203660031901126103a8576123f861272c565b5061240461042461454e565b6004356000526005602052610c8b60406000206124f46124e36003612427610336565b936124676001600160401b0382546124516001600160a01b03821689906001600160a01b03169052565b60a01c1660208701906001600160401b03169052565b60018101546001600160601b038082166040880152606082811c8216908801526124d5916124999060c01c6080890152565b60028301546001600160601b038282161660a0890152906124cb908260601c1660c08901906001600160601b03169052565b60c01c60e0870152565b01546001600160401b031690565b6001600160401b0316610100830152565b6040519182918261232c565b6001600160a01b0360025416330361251457565b606460405162461bcd60e51b815260206004820152601660248201527f4f6e6c792063616c6c61626c65206279206f776e6572000000000000000000006044820152fd5b356103c8816112d6565b903590601e19813603018212156103a857018035906001600160401b0382116103a8576020019181360383136103a857565b1561259b57565b606460405162461bcd60e51b815260206004820152601d60248201527f46756e6374696f6e206e616d652063616e6e6f7420626520656d7074790000006044820152fd5b604051906125ec826102cb565b602482527f72202573000000000000000000000000000000000000000000000000000000006040837f726567697374657246756e6374696f6e2c206e616d653a2025732073656e646560208201520152565b916060816001600160a01b039260209497969760408752816040880152838701376000828287010152601f80199101168401019416910152565b1561267f57565b606460405162461bcd60e51b815260206004820152601760248201527f46756e6374696f6e20616c7265616479206578697374730000000000000000006044820152fd5b604051906126d082610262565b600060a0838281526060602082015260606040820152606080820152606060808201520152565b903590601e19813603018212156103a857018035906001600160401b0382116103a857602001918160051b360383136103a857565b6040519061012082018281106001600160401b0382111761027d57604052816101006000918281528260208201528260408201528260608201528260808201528260a08201528260c08201528260e08201520152565b356103c88161106e565b60405190612799826102cb565b603682527f636865636b696e6720696620617574686f72697a6564000000000000000000006040837f7573696e67206578697374696e6720737562736372697074696f6e2025642c2060208201520152565b90916060828403126103a8578151612802816112d6565b9260208084015161281281610ddd565b936040810151906001600160401b0382116103a857019180601f840112156103a857825161283f81611392565b9361284d60405195866102e6565b818552838086019260051b8201019283116103a8578301905b828210612874575050505090565b838091835161288281610ddd565b815201910190612866565b6040513d6000823e3d90fd5b634e487b7160e01b600052601160045260246000fd5b60001981146128be5760010190565b612899565b80518210156128d75760209160051b010190565b634e487b7160e01b600052603260045260246000fd5b156128f457565b60a460405162461bcd60e51b815260206004820152604f60248201527f46756e6374696f6e734d616e6167657220616e642f6f722063616c6c6572206160448201527f7265206e6f7420617574686f72697a656420636f6e73756d657273206f66207460648201527f686520737562736372697074696f6e00000000000000000000000000000000006084820152fd5b60405190612991826102b0565b601982527f6372656174696e67206e657720737562736372697074696f6e000000000000006020830152565b908160209103126103a8575190565b156129d357565b608460405162461bcd60e51b815260206004820152602e60248201527f496e73756666696369656e74204c494e4b2062616c616e636520746f2066756e60448201527f6420737562736372697074696f6e0000000000000000000000000000000000006064820152fd5b60405190612a4a82610262565b606060a08360008152600060208201526000604082015282808201528260808201520152565b634e487b7160e01b600052602160045260246000fd5b60021115612a9057565b612a70565b356103c88161156b565b60011115612a9057565b356103c881611580565b818110612abe575050565b60008155600101612ab3565b9190601f8111612ad957505050565b610334926000526020600020906020601f840160051c83019310612b05575b601f0160051c0190612ab3565b9091508190612af8565b91909182516001600160401b03811161027d57612b3681612b30845461081c565b84612aca565b602080601f8311600114612b72575081929394600092612b67575b50508160011b916000199060031b1c1916179055565b015190503880612b51565b90601f19831695612b8885600052602060002090565b926000905b888210612bc557505083600195969710612bac575b505050811b019055565b015160001960f88460031b161c19169055388080612ba2565b80600185968294968601518155019501930190612b8d565b908160011b91808304600214901517156128be57565b81519168010000000000000000831161027d578154838355808410612c56575b50612c28602080920192600052602060002090565b6000925b848410612c3a575050505050565b60018382612c4a83945186612b0f565b01920193019290612c2c565b6000838152846020822092830192015b828110612c74575050612c13565b80612c816001925461081c565b80612c8e575b5001612c66565b601f908181118414612ca65750508281555b38612c87565b83612cc892612cba85600052602060002090565b920160051c82019101612ab3565b60008181526020812081835555612ca0565b815181546001600160a01b0319166001600160a01b039190911617815590600190818301602080830151938451916001600160401b03831161027d57612d2a83612d24865461081c565b86612aca565b80601f8411600114612da257509180809260a0969594600598600094612d97575b50501b916000199060031b1c19161790555b612d6e604082015160028601612b0f565b612d7f606082015160038601612b0f565b612d90608082015160048601612bf3565b0151910155565b015192503880612d4b565b91939495601f198416612dba87600052602060002090565b936000905b828210612e01575050916005979593918560a098969410612de8575b505050811b019055612d5d565b015160001960f88460031b161c19169055388080612ddb565b808886978294978701518155019601940190612dbf565b6003612ffd61010061033494612e54612e3882516001600160a01b031690565b86906001600160a01b03166001600160a01b0319825416179055565b612eb8612e6b60208301516001600160401b031690565b86547fffffffff0000000000000000ffffffffffffffffffffffffffffffffffffffff1660a09190911b7bffffffffffffffff000000000000000000000000000000000000000016178655565b612fa760018601612ef7612ed660408501516001600160601b031690565b82546bffffffffffffffffffffffff19166001600160601b03909116178255565b612f50612f0e60608501516001600160601b031690565b825477ffffffffffffffffffffffff000000000000000000000000191660609190911b77ffffffffffffffffffffffff00000000000000000000000016178255565b60808301516001600160401b03165b77ffffffffffffffffffffffffffffffffffffffffffffffff7fffffffffffffffff00000000000000000000000000000000000000000000000083549260c01b169116179055565b612fef60028601612fc5612ed660a08501516001600160601b031690565b612fdc612f0e60c08501516001600160601b031690565b60e08301516001600160401b0316612f5f565b01516001600160401b031690565b9101906001600160401b03166001600160401b0319825416179055565b906001811015612a905762ff000082549160101b169062ff00001916179055565b8151916002831015612a905760ff82549316908160ff19851617835560208101519061306682612a86565b6002821015612a90576103349460039361ff0060a09460081b169161ffff1916171784556130a1604082015161309b81612a9f565b8561301a565b6130b2606082015160018601612b0f565b6130c3608082015160028601612b0f565b01519101612bf3565b6001600160401b038091169081146128be5760010190565b908160209103126103a857516103c88161106e565b60405190613106826102b0565b601f82527f6372656174656420737562736372697074696f6e2077697468206964202564006020830152565b6040519061313f826102b0565b601582527f616464696e6720257320617320636f6e73756d657200000000000000000000006020830152565b60405190613178826102b0565b601982527f73656e646572202573204c494e4b2062616c616e6365202564000000000000006020830152565b908160209103126103a8575180151581036103a85790565b156131c357565b60a460405162461bcd60e51b815260206004820152604860248201527f4661696c656420746f207472616e73666572204c494e4b20746f20746865204660448201527f756e6374696f6e204d616e6167657220746f2066756e6420746865207375627360648201527f6372697074696f6e0000000000000000000000000000000000000000000000006084820152fd5b6001600160601b036103c894936001600160a01b03606094168352166020820152816040820152019061091d565b1561328857565b60a460405162461bcd60e51b815260206004820152604460248201527f4661696c656420746f207472616e73666572204c494e4b20746f2042696c6c6960448201527f6e6720526567697374727920746f2066756e642074686520737562736372697060648201527f74696f6e000000000000000000000000000000000000000000000000000000006084820152fd5b61332d61045d600c546001600160a01b031690565b6040908151917fa21a23e40000000000000000000000000000000000000000000000000000000083526020908184600481600080975af19384156107f6578394613605575b5061338e61337e6130f9565b6001600160401b03861690615b4e565b61339a30610435613132565b6133af61045d600c546001600160a01b031690565b803b15611a4a5781517f7341c10c0000000000000000000000000000000000000000000000000000000081526001600160401b03861660048201523060248201529084908290604490829084905af180156107f6576135ec575b506134463361342b866001600160401b03166000526008602052604060002090565b906001600160a01b03166001600160a01b0319825416179055565b61345b61045d600b546001600160a01b031690565b81516370a0823160e01b81523360048201529091908381602481865afa80156107f657859361349f6134d492879487916135cf575b503361349a61316b565b615cec565b600d5484516323b872dd60e01b815233600482015230602482015260a09190911c604482015294859283919082906064820190565b03925af19081156107f6576134f584926135799487916135b2575b506131bc565b61350a61045d600b546001600160a01b031690565b61351f61045d600c546001600160a01b031690565b8661352c600d5460a01c90565b9184519461355e866135508d8a83019190916001600160401b036020820193169052565b03601f1981018852876102e6565b5196879586948593630200057560e51b855260048501613253565b03925af19182156107f6576103c89392613595575b5050613281565b6135ab9250803d10610b0757610afd81836102e6565b388061358e565b6135c99150843d8611610b0757610afd81836102e6565b386134ef565b6135e69150853d87116120b4576120a681836102e6565b38613490565b806135f96135ff9261029d565b80610c8f565b38613409565b613626919450823d841161362d575b61361e81836102e6565b8101906130e4565b9238613372565b503d613614565b60405190613641826102cb565b602682527f696f6e49643a00000000000000000000000000000000000000000000000000006040837f65786563757465526571756573742063616c6c656420776974682066756e637460208201520152565b9061033461375260036136a4610336565b946136e46001600160401b0382546136ce6001600160a01b0382168a906001600160a01b03169052565b60a01c1660208801906001600160401b03169052565b60018101546001600160601b038082166040890152606082811c8216908901526124d5916137169060c01c60808a0152565b60028301546001600160601b038282161660a08a015290613748908260601c1660c08a01906001600160601b03169052565b60c01c60e0880152565b6001600160401b0316610100840152565b1561376a57565b606460405162461bcd60e51b815260206004820152601a60248201527f66756e6374696f6e206973206e6f7420726567697374657265640000000000006044820152fd5b6002821015612a905752565b6001821015612a905752565b9081546137d281611392565b926137e060405194856102e6565b818452600090815260208082208186015b8484106137ff575050505050565b600183819261380d85610856565b8152019201930192906137f1565b9060405161382881610262565b60a061388b6003839561386360ff8254613844828216896137ae565b613856828260081c1660208a016137ae565b60101c16604087016137ba565b61386f60018201610856565b606086015261388060028201610856565b6080860152016137c6565b910152565b6040519061389d826102b0565b601b82527f636f6c6c656374696e6720616e64206c6f636b696e67206665657300000000006020830152565b9190916001600160601b03808094169116019182116128be57565b9190916001600160601b03808094169116029182169182036128be57565b1561390957565b608460405162461bcd60e51b815260206004820152603a60248201527f55736572206973206e6f7420617070726f76656420746f207472616e7366657260448201527f204c494e4b20746f2066756e6374696f6e73206d616e616765720000000000006064820152fd5b1561397a57565b608460405162461bcd60e51b815260206004820152603160248201527f596f7520646f206e6f74206861766520656e6f756768204c494e4b20746f206360448201527f616c6c20746869732066756e6374696f6e0000000000000000000000000000006064820152fd5b604051906139f1826102b0565b601482527f5472616e7366657272696e67202564204c494e4b0000000000000000000000006020830152565b15613a2457565b608460405162461bcd60e51b815260206004820152602260248201527f4661696c656420746f20636f6c6c65637420666565732066726f6d2063616c6c60448201527f65720000000000000000000000000000000000000000000000000000000000006064820152fd5b60405190613a9b826102b0565b601c82527f726573657276656420737562736372697074696f6e20666565202564000000006020830152565b6001600160601b0391821690821603919082116128be57565b6001600160601b038091169081146128be5760010190565b60405190613b05826102b0565b601982527f73656e64696e672066756e6374696f6e732072657175657374000000000000006020830152565b15613b3857565b606460405162461bcd60e51b815260206004820152601960248201527f5265717565737420494420616c726561647920657869737473000000000000006044820152fd5b60405190613b8982610282565b606060808360008152600060208201526000604082015282808201520152565b815181556020916001600160a01b03838201511692613be2600194858501906001600160a01b03166001600160a01b0319825416179055565b6040820151600284015560038301906060830151948551916001600160401b03831161027d57613c1683612d24865461081c565b80601f8411600114613c60575091808060809593600497956103349a600094613c55575b50501b916000199060031b1c19161790555b01519101612b0f565b015192503880613c3a565b9193949596601f198416613c7987600052602060002090565b936000905b828210613cc4575050926080959285926103349a99966004999610613cab575b505050811b019055613c4c565b015160001960f88460031b161c19169055388080613c9e565b808886978294978701518155019601940190613c7e565b60405190613ce8826102b0565b601d82527f656d697474696e672046756e6374696f6e43616c6c6564206576656e740000006020830152565b92919091613d23610424613634565b613d2c84615aac565b613d43610552856000526005602052604060002090565b92613d686001600160a01b03613d6086516001600160a01b031690565b161515613763565b613d84613d7f866000526007602052604060002090565b61381b565b9280614284575b5050613d98610424613890565b600e5491613dc5613db360408601516001600160601b031690565b6001600160601b038560801c166138c9565b92613e056105af613de060208801516001600160401b031690565b9263ffffffff613dfa60408a01516001600160601b031690565b9160601c16906138e4565b93613e1b61045d600b546001600160a01b031690565b6040517fdd62ed3e0000000000000000000000000000000000000000000000000000000081523360048201523060248201529091602082604481865afa9182156107f657600092614263575b50613e7e6001600160601b03821680931015613902565b6040516370a0823160e01b8082523360048301529390602081602481855afa80156107f657613eb89160009161424a57503361349a61316b565b604051938452336004850152602084602481845afa9182156107f657613f0184613ef4602096613f39966000998a9161422d575b501015613973565b613efc6139e4565b615b4e565b6040516323b872dd60e01b81523360048201523060248201526001600160601b03909116604482015293849283919082906064820190565b03925af19485156107f65761400661406793613f646141209861404e9560009161420e575b50613a1d565b613fa4613f94613f87836001600160401b0316600052600a602052604060002090565b546001600160601b031690565b6001600160601b036120d7613a8e565b613fec613fda613fc0600e546001600160601b039060801c1690565b926001600160401b0316600052600a602052604060002090565b9161060983546001600160601b031690565b6001600160601b03166001600160601b0319825416179055565b61403b61401f82610609600e546001600160601b031690565b6001600160601b03166001600160601b0319600e541617600e55565b60408701516001600160601b0316613ac7565b6105e060a087019161060983516001600160601b031690565b6140826080850161067c61067782516001600160401b031690565b6140e96140a361409e600f546001600160601b039060401c1690565b613ae0565b7fffffffffffffffffffffffff000000000000000000000000ffffffffffffffff73ffffffffffffffffffffffff0000000000000000600f549260401b16911617600f55565b614101846106a2876000526005602052604060002090565b61410c610424613af8565b60208401516001600160401b031690614bb6565b8092614140614139836000526006602052604060002090565b5415613b31565b61416861414b613b7c565b828152336020820152610535846000526006602052604060002090565b614173610424613cdb565b7feb98a4358e79cd01f5b134f72406251bd2a7b8667fd337212737d07697d4b9fc6141a584516001600160a01b031690565b936141d060406141c1600e546001600160601b039060801c1690565b9201516001600160601b031690565b604080516001600160a01b03979097168752600060208801819052908701526001600160601b039182166060870152166080850152339360a090a490565b614227915060203d602011610b0757610afd81836102e6565b38613f5e565b6142449150893d8b116120b4576120a681836102e6565b38613eec565b6135e6915060203d6020116120b4576120a681836102e6565b61427d91925060203d6020116120b4576120a681836102e6565b9038613e67565b614299916142939136916114e1565b836146ea565b3880613d8b565b604051906142ad826102cb565b603782527f6c6c20617661696c61626c652062616c616e63652025640000000000000000006040837f526566696c6c696e6720737562736372697074696f6e2025642077697468206160208201520152565b60206143dd6144089261434e61432b613f87836001600160401b0316600052600a602052604060002090565b6001600160601b0361433b6142a0565b9116906001600160401b03841690615c0f565b61436e613f87826001600160401b0316600052600a602052604060002090565b61438e611c92836001600160401b0316600052600a602052604060002090565b60006143a561045d600b546001600160a01b031690565b926143eb6143be61045d600c546001600160a01b031690565b916040519687918983019190916001600160401b036020820193169052565b03601f1981018752866102e6565b60405196879586948593630200057560e51b855260048501613253565b03925af180156107f6576144195750565b6144309060203d8111610b0757610afd81836102e6565b50565b60405190614440826102cb565b603182527f734d616e61676572206f776e65722025730000000000000000000000000000006040837f5769746864726177696e6720616c6c206665657320746f2046756e6374696f6e60208201520152565b6040519061449f826102b0565b601482527f5769746864726177696e6720616c6c20666565730000000000000000000000006020830152565b60005b815181101561454a576144e181836128c3565b5190303b156103a857604051917f1f3597fa000000000000000000000000000000000000000000000000000000008352600483015260008260248183305af19182156107f6576145369261453b575b506128af565b6144ce565b6145449061029d565b38614530565b5050565b6040519061455b826102b0565b600b82527f67657446756e6374696f6e0000000000000000000000000000000000000000006020830152565b9060405161459481610282565b608061388b60048395805485526001600160a01b036001820154166020860152600281015460408601526145ca60038201610856565b606086015201610856565b9190603461460f9160405193818592602084019788378201906001600160601b03199060601b1660208201520360148101845201826102e6565b51902090565b602001519061460f60346040518093602061463981840197888151938492016108fa565b8201906001600160601b03199060601b1660208201520360148101845201826102e6565b908351156146825760609261467561467e92846137ae565b604083016137ba565b0152565b60046040517f22ce3edd000000000000000000000000000000000000000000000000000000008152fd5b8151156146c0576001602082015260800152565b60046040517fe889636f000000000000000000000000000000000000000000000000000000008152fd5b8151156146f75760a00152565b60046040517ffe936cb7000000000000000000000000000000000000000000000000000000008152fd5b908160209103126103a857516103c8816112d6565b6001600160401b036147a5949260209461475b6001600160a01b03600054169461497f565b9463ffffffff604051988997889687967fd227d24500000000000000000000000000000000000000000000000000000000885216600487015260806024870152608486019061091d565b92166044840152606483015203915afa9081156107f6576000916147c7575090565b6103c8915060203d81116147e8575b6147e081836102e6565b810190614721565b503d6147d6565b604051906147fc826102b0565b6000602083606081520152565b60405190614816826102b0565b60006020836148236147ef565b81520152565b60405190614836826102b0565b600c82527f636f64654c6f636174696f6e00000000000000000000000000000000000000006020830152565b6040519061486f826102b0565b600882527f6c616e67756167650000000000000000000000000000000000000000000000006020830152565b604051906148a8826102b0565b600682527f736f7572636500000000000000000000000000000000000000000000000000006020830152565b604051906148e1826102b0565b600482527f61726773000000000000000000000000000000000000000000000000000000006020830152565b6040519061491a826102b0565b600f82527f736563726574734c6f636174696f6e00000000000000000000000000000000006020830152565b60405190614953826102b0565b600782527f73656372657473000000000000000000000000000000000000000000000000006020830152565b614987614809565b90614992825161507b565b506149a461499e614829565b8361576d565b6149c181516149b281612a86565b6149bb81612a86565b836150fa565b6149cc61499e614862565b6149e660408201516149dd81612a9f565b6149bb81612a9f565b6149f161499e61489b565b6149ff60608201518361576d565b60a08101805151614ab7575b506080810190815151614a20575b5050515190565b602001908151614a2f81612a86565b614a3881612a86565b15614a8d57614a6e614a8692614a55614a4f61490d565b8661576d565b51614a5f81612a86565b614a6881612a86565b846150fa565b614a7f614a79614946565b8461576d565b51826156bb565b3880614a19565b60046040517fa80d31f7000000000000000000000000000000000000000000000000000000008152fd5b92614ac3614a796148d4565b614acc836157f1565b60005b84518051821015614afc5790614af2614aeb82614af7946128c3565b518661576d565b6128af565b614acf565b50509250614b098261587d565b38614a0b565b60405190614b1c826102cb565b602982527f6c69656e74206c696200000000000000000000000000000000000000000000006040837f53656e64696e6720726571756573742066726f6d2066756e6374696f6e73206360208201520152565b91614b9a63ffffffff916001600160401b0360409497969716855260606020860152606085019061091d565b9416910152565b908160209103126103a857516103c881610ddd565b614c239291614bc6610424614b0f565b6000938492614be8614be261045d86546001600160a01b031690565b9161497f565b946040519687809481937f28242b040000000000000000000000000000000000000000000000000000000083526020998a9860048501614b6e565b03925af19283156107f6578193614cf8575b508082614c4e61045d600494546001600160a01b031690565b604051938480927f5ab1bd530000000000000000000000000000000000000000000000000000000082525afa9283156107f65784937f1131472297a800fee664d1d89cfa8f7676ff07189ecc53f80bbb5f4969099db893614cc6928492614ccb575b505061342b856000526001602052604060002090565b80a290565b614cea9250803d10614cf1575b614ce281836102e6565b810190614ba1565b3880614cb0565b503d614cd8565b6004919350614d1390833d85116120b4576120a681836102e6565b9290614c35565b60405190614d27826102b0565b601282527f66756c66696c6c696e67207265717565737400000000000000000000000000006020830152565b60405190614d60826102cb565b603382527f63616c6c2066756c66696c6c52657175657374000000000000000000000000006040837f436865636b696e6720696620257320697320617574686f72697a656420746f2060208201520152565b15614db957565b608460405162461bcd60e51b815260206004820152603260248201527f4f6e6c7920746865202042696c6c696e672052656769737472792063616e206360448201527f616c6c2066756c66696c6c5265717565737400000000000000000000000000006064820152fd5b15614e2a57565b608460405162461bcd60e51b815260206004820152602560248201527f52657175657374206e6f7420666f756e6420696e2046756e6374696f6e734d6160448201527f6e616765720000000000000000000000000000000000000000000000000000006064820152fd5b15614e9b57565b608460405162461bcd60e51b815260206004820152602660248201527f46756e6374696f6e206e6f7420666f756e6420696e2046756e6374696f6e734d60448201527f616e6167657200000000000000000000000000000000000000000000000000006064820152fd5b60405190614f12826102cb565b603582527f63616c6c20746869732066756e6374696f6e2e2e2e00000000000000000000006040837f436865636b696e6720697320257320697320617574686f72697a656420746f2060208201520152565b60405190614f71826102b0565b600e82527f556e6c6f636b696e6720666565730000000000000000000000000000000000006020830152565b9063ffffffff8092166064039182116128be57565b60405190614fbf826102cb565b603b82527f67206966206e6565642066696c6c20737562736372697074696f6e00000000006040837f46696e697368656420756e6c6f636b696e6720666565732c20636865636b696e60208201520152565b926103c894926001600160a01b036150439316855260208501526000604085015260a0606085015260a084019061091d565b91608081840391015261091d565b601f198101919082116128be57565b90602082018092116128be57565b919082018092116128be57565b6150836147ef565b5061010060208201526040518082526000815261012081019081106103a85760405290565b906150b16147ef565b50601f8116806150e0575b50806020830152604051908183526000825281016020019081106103a85760405290565b602003602081116128be5781018091116128be57386150bc565b908151916151066147ef565b5082515160018101908181116128be57602085015181101561515f575b60c260206103349651928301015380518211615157575b505060405191602083015260208252615152826102b0565b6156bb565b52388061513a565b8160011b94828604600214831517156128be576020816151916103349861518a60c2955191846150a8565b5082615603565b5096505050615123565b6151a36147ef565b5080515160018101908181116128be5760208301518110156151dc575b605b602084519283010153805182116151d857505090565b5290565b8160011b828104600214831517156128be57615205906151fe855191866150a8565b5084615603565b506151c0565b6152136147ef565b5080515160018101908181116128be576020830151811015615248575b605a602084519283010153805182116151d857505090565b8160011b828104600214831517156128be5761526a906151fe855191866150a8565b50615230565b6152786147ef565b5080515160018101908181116128be5760208301518110156152ad575b6059602084519283010153805182116151d857505090565b8160011b828104600214831517156128be576152cf906151fe855191866150a8565b50615295565b6152dd6147ef565b5080515160018101908181116128be576020830151811015615312575b6058602084519283010153805182116151d857505090565b8160011b828104600214831517156128be57615334906151fe855191866150a8565b506152fa565b6153426147ef565b5080515160018101908181116128be576020830151811015615377575b607b602084519283010153805182116151d857505090565b8160011b828104600214831517156128be57615399906151fe855191866150a8565b5061535f565b6153a76147ef565b5080515160018101908181116128be5760208301518110156153dc575b607a602084519283010153805182116151d857505090565b8160011b828104600214831517156128be576153fe906151fe855191866150a8565b506153c4565b61540c6147ef565b5080515160018101908181116128be576020830151811015615441575b6079602084519283010153805182116151d857505090565b8160011b828104600214831517156128be57615463906151fe855191866150a8565b50615429565b6154716147ef565b5080515160018101908181116128be5760208301518110156154a6575b6078602084519283010153805182116151d857505090565b8160011b828104600214831517156128be576154c8906151fe855191866150a8565b5061548e565b906154d76147ef565b5081515160018101918282116128be57602084015182101561550a575b602084519283010153805182116151d857505090565b8260011b838104600214841517156128be576155339061552c865191876150a8565b5085615603565b506154f4565b90615546825191836150a8565b5061554f6147ef565b5080519061555b6147ef565b5061556981518311156156b4565b82515192615577838561506e565b9160209282848094015182116155ec575b51838151978201019682116155e4575b505001915b818110156155be5760001991036101000a0190811990511690825116179052565b91926155d96155d36155df9286518152615060565b94615060565b92615051565b61559d565b523880615598565b6155fe6155f883612bdd565b82615539565b615588565b9061560c6147ef565b5080516156176147ef565b5061562582518211156156b4565b82515191615633828461506e565b602091829182870151811161569d575b865183815197820101968211615695575b505001915b8181101561567b5760001991036101000a019081199051169082511617905290565b91926155d96155d36156909286518152615060565b615659565b523880615654565b6156af6156a982612bdd565b88615539565b615643565b156103a857565b81516144309291906001600160401b03811690601782116156f2576156ea9150604060ff8451921617906154ce565b505b51615603565b5060ff8111615717576157119061570983516152d5565b508251615a46565b506156ec565b61ffff8111615736576157119061572e8351615270565b5082516159df565b63ffffffff8111615757576157119061574f835161520b565b508251615976565b61571190615765835161519b565b50825161590a565b81516144309291906001600160401b038116906017821161579c576156ea9150606060ff8451921617906154ce565b5060ff81116157b357615711906157098351615469565b61ffff81116157ca576157119061572e8351615404565b63ffffffff81116157e3576157119061574f835161539f565b61571190615765835161533a565b8051906157fc6147ef565b5081515160018101908181116128be57602084015181101561584a575b609f6020809551928301015380518211615842575b505001805190600182018092116128be5752565b52388061582e565b8160011b93828504600214831517156128be57602081615873829761518a609f955191846150a8565b5095505050615819565b8051906158886147ef565b5081515160018101908181116128be5760208401518110156158d7575b60ff60208095519283010153805182116158cf575b50500180516000198101919082116128be5752565b5238806158ba565b8160011b93828504600214831517156128be57602081615900829761518a60ff955191846150a8565b50955050506158a5565b906159136147ef565b508151518060080191826008116128be5760208401518311615955575b6008845192830101906001600160401b0319825116179052805182116151d857505090565b8260011b838104600214841517156128be576159719085615539565b615930565b9061597f6147ef565b508151518060040191826004116128be57602084015183116159be575b60048451928301019063ffffffff19825116179052805182116151d857505090565b8260011b838104600214841517156128be576159da9085615539565b61599c565b906159e86147ef565b508151518060020191826002116128be5760208401518311615a25575b60028451928301019061ffff19825116179052805182116151d857505090565b8260011b838104600214841517156128be57615a419085615539565b615a05565b90615a4f6147ef565b508151518060010191826001116128be5760208401518311615a8b575b60018451928301019060ff19825116179052805182116151d857505090565b8260011b838104600214841517156128be57615aa79085615539565b615a6c565b61033490604051907f27b7cf85000000000000000000000000000000000000000000000000000000006020830152602482015260248152615aec816102cb565b600080916020815191016a636f6e736f6c652e6c6f675afa50565b611d90615aec610334926040519283917f41304fac00000000000000000000000000000000000000000000000000000000602084015260206024840152604483019061091d565b615aec615b9691610334936040519384927fb60e72cc00000000000000000000000000000000000000000000000000000000602085015260406024850152606484019061091d565b90604483015203601f1981018352826102e6565b615aec615bfa91610334936001600160a01b036040519485937f319af33300000000000000000000000000000000000000000000000000000000602086015260406024860152606485019061091d565b9116604483015203601f1981018352826102e6565b615aec90615c5892610334946040519485937fca47c4eb00000000000000000000000000000000000000000000000000000000602086015260606024860152608485019061091d565b916044840152606483015203601f1981018352826102e6565b615aec90610334936001600160a01b03615cd7615cc5956040519687957f95ed019500000000000000000000000000000000000000000000000000000000602088015260606024880152608487019061091d565b8581036023190160448701529061091d565b9116606483015203601f1981018352826102e6565b615aec90615d3d92610334946001600160a01b036040519586947f0d26b92500000000000000000000000000000000000000000000000000000000602087015260606024870152608486019061091d565b92166044840152606483015203601f1981018352826102e656fea2646970667358221220c7bd943eb4e72f9a6f2237df1ba2efae39e19295823424c55323889cac55b58064736f6c63430008120033",
  "linkReferences": {},
  "deployedLinkReferences": {}
}