{
  "_format": "hh-sol-artifact-1",
  "contractName": "FunctionsManager",
  "sourceName": "contracts/FunctionsManager.sol",
  "abi": [
    {
      "inputs": [
        {
          "internalType": "address",
          "name": "link",
          "type": "address"
        },
        {
          "internalType": "address",
          "name": "billingRegistryProxy",
          "type": "address"
        },
        {
          "internalType": "address",
          "name": "oracleProxy",
          "type": "address"
        },
        {
          "internalType": "uint96",
          "name": "_baseFee",
          "type": "uint96"
        },
        {
          "internalType": "uint32",
          "name": "_feeManagerCut",
          "type": "uint32"
        },
        {
          "internalType": "uint96",
          "name": "_minimumSubscriptionDeposit",
          "type": "uint96"
        }
      ],
      "stateMutability": "nonpayable",
      "type": "constructor"
    },
    {
      "inputs": [],
      "name": "EmptyArgs",
      "type": "error"
    },
    {
      "inputs": [],
      "name": "EmptySecrets",
      "type": "error"
    },
    {
      "inputs": [],
      "name": "EmptySource",
      "type": "error"
    },
    {
      "inputs": [],
      "name": "NoInlineSecrets",
      "type": "error"
    },
    {
      "inputs": [],
      "name": "RequestIsAlreadyPending",
      "type": "error"
    },
    {
      "inputs": [],
      "name": "RequestIsNotPending",
      "type": "error"
    },
    {
      "inputs": [],
      "name": "SenderIsNotRegistry",
      "type": "error"
    },
    {
      "anonymous": false,
      "inputs": [
        {
          "indexed": false,
          "internalType": "uint256",
          "name": "newBaseFee",
          "type": "uint256"
        }
      ],
      "name": "BaseFeeUpdated",
      "type": "event"
    },
    {
      "anonymous": false,
      "inputs": [
        {
          "indexed": true,
          "internalType": "bytes32",
          "name": "functionId",
          "type": "bytes32"
        },
        {
          "indexed": true,
          "internalType": "bytes32",
          "name": "requestId",
          "type": "bytes32"
        },
        {
          "indexed": true,
          "internalType": "address",
          "name": "caller",
          "type": "address"
        }
      ],
      "name": "FMSendRequestComplete",
      "type": "event"
    },
    {
      "anonymous": false,
      "inputs": [
        {
          "indexed": true,
          "internalType": "bytes32",
          "name": "functionId",
          "type": "bytes32"
        },
        {
          "indexed": true,
          "internalType": "address",
          "name": "caller",
          "type": "address"
        }
      ],
      "name": "FMSendRequestStart",
      "type": "event"
    },
    {
      "anonymous": false,
      "inputs": [
        {
          "indexed": false,
          "internalType": "uint256",
          "name": "newFeeManagerCut",
          "type": "uint256"
        }
      ],
      "name": "FeeManagerCutUpdated",
      "type": "event"
    },
    {
      "anonymous": false,
      "inputs": [
        {
          "indexed": true,
          "internalType": "bytes32",
          "name": "functionId",
          "type": "bytes32"
        },
        {
          "indexed": true,
          "internalType": "address",
          "name": "caller",
          "type": "address"
        },
        {
          "indexed": true,
          "internalType": "uint64",
          "name": "subId",
          "type": "uint64"
        },
        {
          "indexed": false,
          "internalType": "uint256",
          "name": "amount",
          "type": "uint256"
        }
      ],
      "name": "FeePaymentComplete",
      "type": "event"
    },
    {
      "anonymous": false,
      "inputs": [
        {
          "indexed": true,
          "internalType": "bytes32",
          "name": "functionId",
          "type": "bytes32"
        },
        {
          "indexed": true,
          "internalType": "address",
          "name": "caller",
          "type": "address"
        },
        {
          "indexed": true,
          "internalType": "uint64",
          "name": "subId",
          "type": "uint64"
        },
        {
          "indexed": false,
          "internalType": "uint256",
          "name": "amount",
          "type": "uint256"
        }
      ],
      "name": "FeePaymentStart",
      "type": "event"
    },
    {
      "anonymous": false,
      "inputs": [
        {
          "indexed": false,
          "internalType": "bytes32",
          "name": "requestId",
          "type": "bytes32"
        },
        {
          "indexed": false,
          "internalType": "bytes",
          "name": "response",
          "type": "bytes"
        },
        {
          "indexed": false,
          "internalType": "bytes",
          "name": "err",
          "type": "bytes"
        }
      ],
      "name": "FulfillRequest",
      "type": "event"
    },
    {
      "anonymous": false,
      "inputs": [
        {
          "indexed": true,
          "internalType": "bytes32",
          "name": "functionId",
          "type": "bytes32"
        },
        {
          "indexed": true,
          "internalType": "bytes32",
          "name": "requestId",
          "type": "bytes32"
        },
        {
          "indexed": true,
          "internalType": "address",
          "name": "caller",
          "type": "address"
        },
        {
          "indexed": false,
          "internalType": "address",
          "name": "owner",
          "type": "address"
        },
        {
          "indexed": false,
          "internalType": "bytes32",
          "name": "callbackFunction",
          "type": "bytes32"
        },
        {
          "indexed": false,
          "internalType": "uint256",
          "name": "usedGas",
          "type": "uint256"
        },
        {
          "indexed": false,
          "internalType": "bytes",
          "name": "response",
          "type": "bytes"
        },
        {
          "indexed": false,
          "internalType": "bytes",
          "name": "err",
          "type": "bytes"
        }
      ],
      "name": "FunctionCallCompleted",
      "type": "event"
    },
    {
      "anonymous": false,
      "inputs": [
        {
          "indexed": true,
          "internalType": "bytes32",
          "name": "functionId",
          "type": "bytes32"
        },
        {
          "indexed": true,
          "internalType": "bytes32",
          "name": "requestId",
          "type": "bytes32"
        },
        {
          "indexed": true,
          "internalType": "address",
          "name": "caller",
          "type": "address"
        },
        {
          "indexed": false,
          "internalType": "address",
          "name": "owner",
          "type": "address"
        },
        {
          "indexed": false,
          "internalType": "bytes32",
          "name": "callbackFunction",
          "type": "bytes32"
        },
        {
          "indexed": false,
          "internalType": "uint256",
          "name": "gasDeposit",
          "type": "uint256"
        },
        {
          "indexed": false,
          "internalType": "uint96",
          "name": "baseFee",
          "type": "uint96"
        },
        {
          "indexed": false,
          "internalType": "uint96",
          "name": "fee",
          "type": "uint96"
        }
      ],
      "name": "FunctionCalled",
      "type": "event"
    },
    {
      "anonymous": false,
      "inputs": [
        {
          "indexed": true,
          "internalType": "bytes32",
          "name": "functionId",
          "type": "bytes32"
        },
        {
          "indexed": true,
          "internalType": "address",
          "name": "owner",
          "type": "address"
        },
        {
          "indexed": true,
          "internalType": "bytes32",
          "name": "category",
          "type": "bytes32"
        },
        {
          "components": [
            {
              "internalType": "address",
              "name": "owner",
              "type": "address"
            },
            {
              "internalType": "uint64",
              "name": "subId",
              "type": "uint64"
            },
            {
              "internalType": "string",
              "name": "name",
              "type": "string"
            },
            {
              "internalType": "string",
              "name": "desc",
              "type": "string"
            },
            {
              "internalType": "string",
              "name": "imageUrl",
              "type": "string"
            },
            {
              "internalType": "string[]",
              "name": "expectedArgs",
              "type": "string[]"
            },
            {
              "components": [
                {
                  "internalType": "enum Functions.Location",
                  "name": "codeLocation",
                  "type": "uint8"
                },
                {
                  "internalType": "enum Functions.Location",
                  "name": "secretsLocation",
                  "type": "uint8"
                },
                {
                  "internalType": "enum Functions.CodeLanguage",
                  "name": "language",
                  "type": "uint8"
                },
                {
                  "internalType": "string",
                  "name": "source",
                  "type": "string"
                },
                {
                  "internalType": "bytes",
                  "name": "secrets",
                  "type": "bytes"
                },
                {
                  "internalType": "string[]",
                  "name": "args",
                  "type": "string[]"
                }
              ],
              "internalType": "struct Functions.Request",
              "name": "request",
              "type": "tuple"
            },
            {
              "internalType": "bytes32",
              "name": "category",
              "type": "bytes32"
            },
            {
              "internalType": "uint96",
              "name": "fee",
              "type": "uint96"
            },
            {
              "internalType": "uint96",
              "name": "unlockedProfitPool",
              "type": "uint96"
            },
            {
              "internalType": "uint96",
              "name": "lockedProfitPool",
              "type": "uint96"
            },
            {
              "internalType": "uint256",
              "name": "functionsCalledCount",
              "type": "uint256"
            },
            {
              "internalType": "uint256",
              "name": "totalFeesCollected",
              "type": "uint256"
            },
            {
              "internalType": "uint256",
              "name": "successfulResponseCount",
              "type": "uint256"
            },
            {
              "internalType": "uint256",
              "name": "failedResponseCount",
              "type": "uint256"
            }
          ],
          "indexed": false,
          "internalType": "struct FunctionsManager.FunctionMetadata",
          "name": "metadata",
          "type": "tuple"
        }
      ],
      "name": "FunctionRegistered",
      "type": "event"
    },
    {
      "anonymous": false,
      "inputs": [
        {
          "indexed": false,
          "internalType": "uint256",
          "name": "newMinimumDeposit",
          "type": "uint256"
        }
      ],
      "name": "MinimumSubscriptionDepositUpdated",
      "type": "event"
    },
    {
      "anonymous": false,
      "inputs": [
        {
          "indexed": true,
          "internalType": "bytes32",
          "name": "requestId",
          "type": "bytes32"
        },
        {
          "indexed": false,
          "internalType": "bytes",
          "name": "result",
          "type": "bytes"
        },
        {
          "indexed": false,
          "internalType": "bytes",
          "name": "err",
          "type": "bytes"
        }
      ],
      "name": "OCRResponse",
      "type": "event"
    },
    {
      "anonymous": false,
      "inputs": [
        {
          "indexed": true,
          "internalType": "address",
          "name": "from",
          "type": "address"
        },
        {
          "indexed": true,
          "internalType": "address",
          "name": "to",
          "type": "address"
        }
      ],
      "name": "OwnershipTransferRequested",
      "type": "event"
    },
    {
      "anonymous": false,
      "inputs": [
        {
          "indexed": true,
          "internalType": "address",
          "name": "from",
          "type": "address"
        },
        {
          "indexed": true,
          "internalType": "address",
          "name": "to",
          "type": "address"
        }
      ],
      "name": "OwnershipTransferred",
      "type": "event"
    },
    {
      "anonymous": false,
      "inputs": [
        {
          "indexed": true,
          "internalType": "bytes32",
          "name": "id",
          "type": "bytes32"
        }
      ],
      "name": "RequestFulfilled",
      "type": "event"
    },
    {
      "anonymous": false,
      "inputs": [
        {
          "indexed": true,
          "internalType": "bytes32",
          "name": "id",
          "type": "bytes32"
        }
      ],
      "name": "RequestSent",
      "type": "event"
    },
    {
      "inputs": [],
      "name": "acceptOwnership",
      "outputs": [],
      "stateMutability": "nonpayable",
      "type": "function"
    },
    {
      "inputs": [
        {
          "internalType": "address",
          "name": "_spender",
          "type": "address"
        },
        {
          "internalType": "uint256",
          "name": "_value",
          "type": "uint256"
        }
      ],
      "name": "approveTokenSpender",
      "outputs": [],
      "stateMutability": "nonpayable",
      "type": "function"
    },
    {
      "inputs": [
        {
          "internalType": "address",
          "name": "",
          "type": "address"
        }
      ],
      "name": "authorMetadata",
      "outputs": [
        {
          "internalType": "string",
          "name": "name",
          "type": "string"
        },
        {
          "internalType": "string",
          "name": "imageUrl",
          "type": "string"
        },
        {
          "internalType": "string",
          "name": "websiteUrl",
          "type": "string"
        }
      ],
      "stateMutability": "view",
      "type": "function"
    },
    {
      "inputs": [],
      "name": "baseFee",
      "outputs": [
        {
          "internalType": "uint96",
          "name": "",
          "type": "uint96"
        }
      ],
      "stateMutability": "view",
      "type": "function"
    },
    {
      "inputs": [
        {
          "internalType": "string",
          "name": "functionName",
          "type": "string"
        },
        {
          "internalType": "address",
          "name": "owner",
          "type": "address"
        }
      ],
      "name": "calculateFunctionId",
      "outputs": [
        {
          "internalType": "bytes32",
          "name": "",
          "type": "bytes32"
        }
      ],
      "stateMutability": "pure",
      "type": "function"
    },
    {
      "inputs": [
        {
          "components": [
            {
              "internalType": "uint96",
              "name": "fees",
              "type": "uint96"
            },
            {
              "internalType": "string",
              "name": "functionName",
              "type": "string"
            },
            {
              "internalType": "string",
              "name": "desc",
              "type": "string"
            },
            {
              "internalType": "string",
              "name": "imageUrl",
              "type": "string"
            },
            {
              "internalType": "string[]",
              "name": "expectedArgs",
              "type": "string[]"
            },
            {
              "internalType": "enum Functions.Location",
              "name": "codeLocation",
              "type": "uint8"
            },
            {
              "internalType": "enum Functions.Location",
              "name": "secretsLocation",
              "type": "uint8"
            },
            {
              "internalType": "enum Functions.CodeLanguage",
              "name": "language",
              "type": "uint8"
            },
            {
              "internalType": "bytes32",
              "name": "category",
              "type": "bytes32"
            },
            {
              "internalType": "uint64",
              "name": "subId",
              "type": "uint64"
            },
            {
              "internalType": "string",
              "name": "source",
              "type": "string"
            },
            {
              "internalType": "bytes",
              "name": "secrets",
              "type": "bytes"
            }
          ],
          "internalType": "struct FunctionsManager.FunctionsRegisterRequest",
          "name": "request",
          "type": "tuple"
        },
        {
          "internalType": "address",
          "name": "owner",
          "type": "address"
        }
      ],
      "name": "calculateFunctionIdFromRequest",
      "outputs": [
        {
          "internalType": "bytes32",
          "name": "",
          "type": "bytes32"
        }
      ],
      "stateMutability": "pure",
      "type": "function"
    },
    {
      "inputs": [
        {
          "components": [
            {
              "internalType": "enum Functions.Location",
              "name": "codeLocation",
              "type": "uint8"
            },
            {
              "internalType": "enum Functions.Location",
              "name": "secretsLocation",
              "type": "uint8"
            },
            {
              "internalType": "enum Functions.CodeLanguage",
              "name": "language",
              "type": "uint8"
            },
            {
              "internalType": "string",
              "name": "source",
              "type": "string"
            },
            {
              "internalType": "bytes",
              "name": "secrets",
              "type": "bytes"
            },
            {
              "internalType": "string[]",
              "name": "args",
              "type": "string[]"
            }
          ],
          "internalType": "struct Functions.Request",
          "name": "req",
          "type": "tuple"
        },
        {
          "internalType": "uint64",
          "name": "subscriptionId",
          "type": "uint64"
        },
        {
          "internalType": "uint32",
          "name": "gasLimit",
          "type": "uint32"
        },
        {
          "internalType": "uint256",
          "name": "gasPrice",
          "type": "uint256"
        }
      ],
      "name": "estimateCost",
      "outputs": [
        {
          "internalType": "uint96",
          "name": "",
          "type": "uint96"
        }
      ],
      "stateMutability": "view",
      "type": "function"
    },
    {
      "inputs": [
        {
          "internalType": "bytes32",
          "name": "functionId",
          "type": "bytes32"
        },
        {
          "internalType": "string[]",
          "name": "args",
          "type": "string[]"
        },
        {
          "internalType": "uint32",
          "name": "gasLimit",
          "type": "uint32"
        }
      ],
      "name": "executeRequest",
      "outputs": [
        {
          "internalType": "bytes32",
          "name": "",
          "type": "bytes32"
        }
      ],
      "stateMutability": "nonpayable",
      "type": "function"
    },
    {
      "inputs": [],
      "name": "feeManagerCut",
      "outputs": [
        {
          "internalType": "uint32",
          "name": "",
          "type": "uint32"
        }
      ],
      "stateMutability": "view",
      "type": "function"
    },
    {
      "inputs": [
        {
          "internalType": "bytes32",
          "name": "functionId",
          "type": "bytes32"
        }
      ],
      "name": "forceUnlockFees",
      "outputs": [],
      "stateMutability": "nonpayable",
      "type": "function"
    },
    {
      "inputs": [
        {
          "internalType": "uint256",
          "name": "",
          "type": "uint256"
        }
      ],
      "name": "functionIds",
      "outputs": [
        {
          "internalType": "bytes32",
          "name": "",
          "type": "bytes32"
        }
      ],
      "stateMutability": "view",
      "type": "function"
    },
    {
      "inputs": [],
      "name": "functionManagerProfitPool",
      "outputs": [
        {
          "internalType": "uint96",
          "name": "",
          "type": "uint96"
        }
      ],
      "stateMutability": "view",
      "type": "function"
    },
    {
      "inputs": [
        {
          "internalType": "bytes32",
          "name": "",
          "type": "bytes32"
        }
      ],
      "name": "functionMetadatas",
      "outputs": [
        {
          "internalType": "address",
          "name": "owner",
          "type": "address"
        },
        {
          "internalType": "uint64",
          "name": "subId",
          "type": "uint64"
        },
        {
          "internalType": "string",
          "name": "name",
          "type": "string"
        },
        {
          "internalType": "string",
          "name": "desc",
          "type": "string"
        },
        {
          "internalType": "string",
          "name": "imageUrl",
          "type": "string"
        },
        {
          "components": [
            {
              "internalType": "enum Functions.Location",
              "name": "codeLocation",
              "type": "uint8"
            },
            {
              "internalType": "enum Functions.Location",
              "name": "secretsLocation",
              "type": "uint8"
            },
            {
              "internalType": "enum Functions.CodeLanguage",
              "name": "language",
              "type": "uint8"
            },
            {
              "internalType": "string",
              "name": "source",
              "type": "string"
            },
            {
              "internalType": "bytes",
              "name": "secrets",
              "type": "bytes"
            },
            {
              "internalType": "string[]",
              "name": "args",
              "type": "string[]"
            }
          ],
          "internalType": "struct Functions.Request",
          "name": "request",
          "type": "tuple"
        },
        {
          "internalType": "bytes32",
          "name": "category",
          "type": "bytes32"
        },
        {
          "internalType": "uint96",
          "name": "fee",
          "type": "uint96"
        },
        {
          "internalType": "uint96",
          "name": "unlockedProfitPool",
          "type": "uint96"
        },
        {
          "internalType": "uint96",
          "name": "lockedProfitPool",
          "type": "uint96"
        },
        {
          "internalType": "uint256",
          "name": "functionsCalledCount",
          "type": "uint256"
        },
        {
          "internalType": "uint256",
          "name": "totalFeesCollected",
          "type": "uint256"
        },
        {
          "internalType": "uint256",
          "name": "successfulResponseCount",
          "type": "uint256"
        },
        {
          "internalType": "uint256",
          "name": "failedResponseCount",
          "type": "uint256"
        }
      ],
      "stateMutability": "view",
      "type": "function"
    },
    {
      "inputs": [
        {
          "internalType": "bytes32",
          "name": "",
          "type": "bytes32"
        }
      ],
      "name": "functionResponses",
      "outputs": [
        {
          "internalType": "bytes32",
          "name": "functionId",
          "type": "bytes32"
        },
        {
          "internalType": "address",
          "name": "caller",
          "type": "address"
        },
        {
          "internalType": "bytes32",
          "name": "callbackFunction",
          "type": "bytes32"
        },
        {
          "internalType": "uint256",
          "name": "gasDeposit",
          "type": "uint256"
        },
        {
          "internalType": "bytes",
          "name": "response",
          "type": "bytes"
        },
        {
          "internalType": "bytes",
          "name": "err",
          "type": "bytes"
        }
      ],
      "stateMutability": "view",
      "type": "function"
    },
    {
      "inputs": [],
      "name": "functionsCalledCount",
      "outputs": [
        {
          "internalType": "uint256",
          "name": "",
          "type": "uint256"
        }
      ],
      "stateMutability": "view",
      "type": "function"
    },
    {
      "inputs": [],
      "name": "functionsRegisteredCount",
      "outputs": [
        {
          "internalType": "uint256",
          "name": "",
          "type": "uint256"
        }
      ],
      "stateMutability": "view",
      "type": "function"
    },
    {
      "inputs": [],
      "name": "getDONPublicKey",
      "outputs": [
        {
          "internalType": "bytes",
          "name": "",
          "type": "bytes"
        }
      ],
      "stateMutability": "view",
      "type": "function"
    },
    {
      "inputs": [
        {
          "internalType": "bytes32",
          "name": "_functionId",
          "type": "bytes32"
        }
      ],
      "name": "getFunction",
      "outputs": [
        {
          "components": [
            {
              "internalType": "address",
              "name": "owner",
              "type": "address"
            },
            {
              "internalType": "uint64",
              "name": "subId",
              "type": "uint64"
            },
            {
              "internalType": "string",
              "name": "name",
              "type": "string"
            },
            {
              "internalType": "string",
              "name": "desc",
              "type": "string"
            },
            {
              "internalType": "string",
              "name": "imageUrl",
              "type": "string"
            },
            {
              "internalType": "string[]",
              "name": "expectedArgs",
              "type": "string[]"
            },
            {
              "components": [
                {
                  "internalType": "enum Functions.Location",
                  "name": "codeLocation",
                  "type": "uint8"
                },
                {
                  "internalType": "enum Functions.Location",
                  "name": "secretsLocation",
                  "type": "uint8"
                },
                {
                  "internalType": "enum Functions.CodeLanguage",
                  "name": "language",
                  "type": "uint8"
                },
                {
                  "internalType": "string",
                  "name": "source",
                  "type": "string"
                },
                {
                  "internalType": "bytes",
                  "name": "secrets",
                  "type": "bytes"
                },
                {
                  "internalType": "string[]",
                  "name": "args",
                  "type": "string[]"
                }
              ],
              "internalType": "struct Functions.Request",
              "name": "request",
              "type": "tuple"
            },
            {
              "internalType": "bytes32",
              "name": "category",
              "type": "bytes32"
            },
            {
              "internalType": "uint96",
              "name": "fee",
              "type": "uint96"
            },
            {
              "internalType": "uint96",
              "name": "unlockedProfitPool",
              "type": "uint96"
            },
            {
              "internalType": "uint96",
              "name": "lockedProfitPool",
              "type": "uint96"
            },
            {
              "internalType": "uint256",
              "name": "functionsCalledCount",
              "type": "uint256"
            },
            {
              "internalType": "uint256",
              "name": "totalFeesCollected",
              "type": "uint256"
            },
            {
              "internalType": "uint256",
              "name": "successfulResponseCount",
              "type": "uint256"
            },
            {
              "internalType": "uint256",
              "name": "failedResponseCount",
              "type": "uint256"
            }
          ],
          "internalType": "struct FunctionsManager.FunctionMetadata",
          "name": "",
          "type": "tuple"
        }
      ],
      "stateMutability": "view",
      "type": "function"
    },
    {
      "inputs": [],
      "name": "getFunctionIds",
      "outputs": [
        {
          "internalType": "bytes32[]",
          "name": "",
          "type": "bytes32[]"
        }
      ],
      "stateMutability": "view",
      "type": "function"
    },
    {
      "inputs": [
        {
          "internalType": "bytes32",
          "name": "_requestId",
          "type": "bytes32"
        }
      ],
      "name": "getFunctionResponse",
      "outputs": [
        {
          "components": [
            {
              "internalType": "bytes32",
              "name": "functionId",
              "type": "bytes32"
            },
            {
              "internalType": "address",
              "name": "caller",
              "type": "address"
            },
            {
              "internalType": "bytes32",
              "name": "callbackFunction",
              "type": "bytes32"
            },
            {
              "internalType": "uint256",
              "name": "gasDeposit",
              "type": "uint256"
            },
            {
              "internalType": "bytes",
              "name": "response",
              "type": "bytes"
            },
            {
              "internalType": "bytes",
              "name": "err",
              "type": "bytes"
            }
          ],
          "internalType": "struct FunctionsManager.FunctionResponse",
          "name": "",
          "type": "tuple"
        }
      ],
      "stateMutability": "view",
      "type": "function"
    },
    {
      "inputs": [
        {
          "internalType": "uint64",
          "name": "_subscriptionId",
          "type": "uint64"
        }
      ],
      "name": "getSubscriptionBalance",
      "outputs": [
        {
          "internalType": "uint256",
          "name": "",
          "type": "uint256"
        }
      ],
      "stateMutability": "view",
      "type": "function"
    },
    {
      "inputs": [
        {
          "internalType": "bytes32",
          "name": "requestId",
          "type": "bytes32"
        },
        {
          "internalType": "bytes",
          "name": "response",
          "type": "bytes"
        },
        {
          "internalType": "bytes",
          "name": "err",
          "type": "bytes"
        }
      ],
      "name": "handleOracleFulfillment",
      "outputs": [],
      "stateMutability": "nonpayable",
      "type": "function"
    },
    {
      "inputs": [],
      "name": "minimumSubscriptionBalance",
      "outputs": [
        {
          "internalType": "uint96",
          "name": "",
          "type": "uint96"
        }
      ],
      "stateMutability": "view",
      "type": "function"
    },
    {
      "inputs": [],
      "name": "minimumSubscriptionDeposit",
      "outputs": [
        {
          "internalType": "uint96",
          "name": "",
          "type": "uint96"
        }
      ],
      "stateMutability": "view",
      "type": "function"
    },
    {
      "inputs": [],
      "name": "owner",
      "outputs": [
        {
          "internalType": "address",
          "name": "",
          "type": "address"
        }
      ],
      "stateMutability": "view",
      "type": "function"
    },
    {
      "inputs": [
        {
          "internalType": "uint64",
          "name": "_subscriptionId",
          "type": "uint64"
        }
      ],
      "name": "refillSubscription",
      "outputs": [],
      "stateMutability": "nonpayable",
      "type": "function"
    },
    {
      "inputs": [
        {
          "components": [
            {
              "internalType": "uint96",
              "name": "fees",
              "type": "uint96"
            },
            {
              "internalType": "string",
              "name": "functionName",
              "type": "string"
            },
            {
              "internalType": "string",
              "name": "desc",
              "type": "string"
            },
            {
              "internalType": "string",
              "name": "imageUrl",
              "type": "string"
            },
            {
              "internalType": "string[]",
              "name": "expectedArgs",
              "type": "string[]"
            },
            {
              "internalType": "enum Functions.Location",
              "name": "codeLocation",
              "type": "uint8"
            },
            {
              "internalType": "enum Functions.Location",
              "name": "secretsLocation",
              "type": "uint8"
            },
            {
              "internalType": "enum Functions.CodeLanguage",
              "name": "language",
              "type": "uint8"
            },
            {
              "internalType": "bytes32",
              "name": "category",
              "type": "bytes32"
            },
            {
              "internalType": "uint64",
              "name": "subId",
              "type": "uint64"
            },
            {
              "internalType": "string",
              "name": "source",
              "type": "string"
            },
            {
              "internalType": "bytes",
              "name": "secrets",
              "type": "bytes"
            }
          ],
          "internalType": "struct FunctionsManager.FunctionsRegisterRequest",
          "name": "request",
          "type": "tuple"
        }
      ],
      "name": "registerFunction",
      "outputs": [
        {
          "internalType": "bytes32",
          "name": "",
          "type": "bytes32"
        }
      ],
      "stateMutability": "payable",
      "type": "function"
    },
    {
      "inputs": [
        {
          "internalType": "uint96",
          "name": "_baseFee",
          "type": "uint96"
        }
      ],
      "name": "setBaseFee",
      "outputs": [],
      "stateMutability": "nonpayable",
      "type": "function"
    },
    {
      "inputs": [
        {
          "internalType": "uint32",
          "name": "_feeManagerCut",
          "type": "uint32"
        }
      ],
      "name": "setFeeManagerCut",
      "outputs": [],
      "stateMutability": "nonpayable",
      "type": "function"
    },
    {
      "inputs": [
        {
          "internalType": "uint96",
          "name": "_minimumDeposit",
          "type": "uint96"
        }
      ],
      "name": "setMinimumDeposit",
      "outputs": [],
      "stateMutability": "nonpayable",
      "type": "function"
    },
    {
      "inputs": [
        {
          "internalType": "uint64",
          "name": "",
          "type": "uint64"
        }
      ],
      "name": "subscriptionBalances",
      "outputs": [
        {
          "internalType": "uint96",
          "name": "",
          "type": "uint96"
        }
      ],
      "stateMutability": "view",
      "type": "function"
    },
    {
      "inputs": [],
      "name": "totalFeesCollected",
      "outputs": [
        {
          "internalType": "uint256",
          "name": "",
          "type": "uint256"
        }
      ],
      "stateMutability": "view",
      "type": "function"
    },
    {
      "inputs": [
        {
          "internalType": "address",
          "name": "to",
          "type": "address"
        }
      ],
      "name": "transferOwnership",
      "outputs": [],
      "stateMutability": "nonpayable",
      "type": "function"
    }
  ],
  "bytecode": "0x6080346200021b57601f620059ee38819003918201601f19168301916001600160401b03831184841017620002205780849260c0946040528339810103126200021b576200004d8162000236565b6200005b6020830162000236565b906200006a6040840162000236565b62000078606085016200024b565b9260808501519363ffffffff8516958686036200021b5760a06200009d91016200024b565b600080546001600160a01b039586166001600160a01b0319918216811790925591949091903315620001d657338260025416176002556c01000000000000000000000000600160c01b0319600d5416946064600e549a116200017757816fffffffff000000000000000000000000981683600a541617600a551690600b541617600b556503782dace9d960b21b17600c556c01000000000000000000000000600160c01b039060601b1617600d5560018060601b03169260018060801b0319169160601b161717600e5560405161578d9081620002618239f35b60405162461bcd60e51b815260206004820152603160248201527f466565206d616e6167657220637574206d757374206265206c6573732074686160448201527006e206f7220657175616c20746f2031303607c1b6064820152608490fd5b60405162461bcd60e51b815260206004820152601860248201527f43616e6e6f7420736574206f776e657220746f207a65726f00000000000000006044820152606490fd5b600080fd5b634e487b7160e01b600052604160045260246000fd5b51906001600160a01b03821682036200021b57565b51906001600160601b03821682036200021b5756fe6080604052600436101561001257600080fd5b60003560e01c80630b562aa9146102275780630ca76175146102225780631ac67b341461021d578063257912f3146102185780634351077d14610213578063475a8b461461020e57806356fa1a2a1461020957806360c6d8ae14610204578063695c75b6146101ff5780636ef25c3a146101fa5780637587b1b2146101f557806379ba5097146101f05780637b0caaa2146101eb5780637bcb334d146101e657806385ec38a2146101e15780638913aa6d146101dc5780638da5cb5b146101d757806397df111c146101d25780639e4ad468146101cd578063a1901523146101c8578063a36df5c2146101c3578063ba9c513f146101be578063bdf47104146101b9578063be4f00cd146101b4578063c8155bcb146101af578063d328a91e146101aa578063d4b39175146101a5578063d5549c8a146101a0578063d7e6a96b1461019b578063de76f05314610196578063e67950d314610191578063f2fde38b1461018c5763f3ba47eb1461018757600080fd5b612335565b61226e565b6120d8565b611f5c565b611ef8565b611ed1565b611dca565b611cdb565b6117f7565b611755565b611730565b611697565b61160c565b6115ee565b61159d565b611412565b611336565b6112a7565b61123b565b6111b9565b61117f565b6110b5565b61106d565b611019565b610f57565b610efe565b610e8b565b610d5c565b610c50565b610bc9565b610afd565b6103d3565b61023c565b600091031261023757565b600080fd5b346102375760003660031901126102375760206001600160601b03600e5416604051908152f35b634e487b7160e01b600052604160045260246000fd5b60c0810190811067ffffffffffffffff82111761029557604052565b610263565b67ffffffffffffffff811161029557604052565b6040810190811067ffffffffffffffff82111761029557604052565b6101e0810190811067ffffffffffffffff82111761029557604052565b6060810190811067ffffffffffffffff82111761029557604052565b90601f8019910116810190811067ffffffffffffffff82111761029557604052565b60405190610180820182811067ffffffffffffffff82111761029557604052565b6040519061035382610279565b565b60405190610353826102ca565b67ffffffffffffffff811161029557601f01601f191660200190565b92919261038a82610362565b916103986040519384610303565b829481845281830111610237578281602093846000960137010152565b9080601f83011215610237578160206103d09335910161037e565b90565b346102375760603660031901126102375760043567ffffffffffffffff602435818111610237576104089036906004016103b5565b90604435908111610237576104219036906004016103b5565b610442610436600b546001600160a01b031690565b6001600160a01b031690565b6001600160a01b03908116331493610459856147d2565b610469610464614869565b615525565b61047d816000526005602052604060002090565b9460018601906104a08461049884546001600160a01b031690565b1615156148a2565b6104b1336104ac6148ed565b615625565b336104da6104366104cd8a546000526004602052604060002090565b546001600160a01b031690565b149081156106ec575b5080156106c7575b6104f49061494c565b610500336104ac6149bd565b61050d85600488016128ee565b61051a84600588016128ee565b610525610464613c33565b61052f8654613d0e565b8554946105716104cd61056061054f896000526004602052604060002090565b5460a01c67ffffffffffffffff1690565b976000526004602052604060002090565b9361057d6104646149f6565b610592610436600b546001600160a01b031690565b60405163523e3b4b60e11b815267ffffffffffffffff891660048201529290600090849060249082905afa9788156106c257610635987f6968e95d7bc2605bb814d168859020d6e2f617bc615d1ae5aef0ce68af0d16319460009161069f575b506001600160601b0361061661060a600c5460a01c90565b6001600160601b031690565b911610610690575b50610649878a54998a96546001600160a01b031690565b9260028c0154604051958695169985614a55565b0390a4516106785750610669600e91546000526004602052604060002090565b016106748154612701565b9055005b600f9150610669906000526004602052604060002090565b61069990613f3d565b3861061e565b6106ba913d8091833e6106b28183610303565b81019061263c565b5050386105f2565b6126df565b506104f4336106e4610436610436600c546001600160a01b031690565b1490506104eb565b9050386104e3565b90600182811c92168015610724575b602083101461070e57565b634e487b7160e01b600052602260045260246000fd5b91607f1691610703565b9060405191826000825492610742846106f4565b9081845260019485811690816000146107af575060011461076c575b505061035392500383610303565b9093915060005260209081600020936000915b8183106107975750506103539350820101388061075e565b8554888401850152948501948794509183019161077f565b91505061035394506020925060ff191682840152151560051b820101388061075e565b634e487b7160e01b600052602160045260246000fd5b600211156107f257565b6107d2565b60028210156107f25752565b600111156107f257565b60018210156107f25752565b67ffffffffffffffff81116102955760051b60200190565b90815461083d81610819565b9261084b6040519485610303565b818452600090815260208082208186015b84841061086a575050505050565b60018381926108788561072e565b81520192019301929061085c565b9060405161089381610279565b60a06108f6600383956108ce60ff82546108af828216896107f7565b6108c1828260081c1660208a016107f7565b60101c166040870161080d565b6108da6001820161072e565b60608601526108eb6002820161072e565b608086015201610831565b910152565b60005b83811061090e5750506000910152565b81810151838201526020016108fe565b90602091610937815180928185528580860191016108fb565b601f01601f1916010190565b9060028210156107f25752565b908082519081815260208091019281808460051b8301019501936000915b84831061097e5750505050505090565b909192939495848061099c600193601f198682030187528a5161091e565b980193019301919493929061096e565b6109b7828251610943565b6109c960208201516020840190610943565b60408101519160018310156107f2576103d092604082015260a0610a116109ff606085015160c0606086015260c085019061091e565b6080850151848203608086015261091e565b9201519060a0818403910152610950565b9a979195610ae7979f9e9d9a968c610ad6976101a09f9c97610a9190610a83610ac599610a72610a9f97610a6188610aad9c6001600160a01b03169052565b67ffffffffffffffff166020880152565b6101c080604088015286019061091e565b90848203606086015261091e565b91608081840391015261091e565b8c810360a08e0152906109ac565b9d60c08b015260e08a01906001600160601b03169052565b6001600160601b0316610100880152565b6001600160601b0316610120860152565b6101408401526101608301526101808201520152565b3461023757602036600319011261023757600435600052600460205260406000208054610bc5610b2f6001840161072e565b91610b3c6002850161072e565b93610b496003820161072e565b91610b5660058301610886565b90600983015490600a840154610b76600b8601546001600160601b031690565b91600c86015493600d87015495600f600e890154980154986040519c8d9c8d956001600160601b03808960601c169816966001600160a01b0367ffffffffffffffff8360a01c16921690610a22565b0390f35b34610237576000366003190112610237576020600c5460a01c604051908152f35b906103d09160208152815160208201526001600160a01b036020830151166040820152604082015160608201526060820151608082015260a0610c3b608084015160c08385015260e084019061091e565b9201519060c0601f198285030191015261091e565b3461023757602036600319011261023757610bc56040808051610c7281610279565b606060a0600092838152836020820152838582015283838201528260808201520152610cd18251610ca2816102ae565b601381527f67657446756e6374696f6e526573706f6e7365000000000000000000000000006020820152615525565b600435815260056020522090610d2f6005825193610cee85610279565b805485526001600160a01b03600182015416602086015260028101548486015260038101546060860152610d246004820161072e565b60808601520161072e565b60a08301525191829182610bea565b6001600160a01b0381160361023757565b6024359061035382610d3e565b3461023757604036600319011261023757610e526020600435610d7e81610d3e565b60243590610d8a612353565b610def8282604051610d9b816102e7565b603a81527f617070726f76696e672025732061732061207370656e646572206f66204c494e878201527f4b207769746820612076616c7565206f6620757020746f20256400000000000060408201526156ec565b610e04610436600a546001600160a01b031690565b9060006040518096819582947f095ea7b300000000000000000000000000000000000000000000000000000000845260048401602090939291936001600160a01b0360408201951681520152565b03925af180156106c257610e6257005b610e829060203d8111610e84575b610e7a8183610303565b810190612e6b565b005b503d610e70565b346102375760403660031901126102375760043567ffffffffffffffff808211610237573660238301121561023757816004013590811161023757366024828401011161023757610bc591610eee916024803592610ee884610d3e565b0161408b565b6040519081529081906020820190565b34610237576000366003190112610237576020601154604051908152f35b6020908160408183019282815285518094520193019160005b828110610f43575050505090565b835185529381019392810192600101610f35565b3461023757600036600319011261023757604051610f74816102ae565b600e8152610fa86020917f67657446756e6374696f6e49647300000000000000000000000000000000000083820152615525565b604051600980548083526000918252838301937f6e1540171b6c0c960b71a7020d9f60077f6af931a8bbf590da0223dacf75c7af92905b82821061100257610bc585610ff681890382610303565b60405191829182610f1c565b835486529485019460019384019390910190610fdf565b346102375760003660031901126102375760206001600160601b03600d5460601c16604051908152f35b67ffffffffffffffff81160361023757565b6024359061035382611043565b359061035382611043565b346102375760203660031901126102375767ffffffffffffffff60043561109381611043565b16600052600860205260206001600160601b0360406000205416604051908152f35b346102375760008060031936011261117c576001600160a01b0380600354163303611138576002546001600160a01b0316600280546001600160a01b031916331790559061110e6001600160a01b031960035416600355565b3391167f8be0079c531659141344cd1fd0a4f28419497f9722a3daafe3b4186f6b6457e08380a380f35b606460405162461bcd60e51b815260206004820152601660248201527f4d7573742062652070726f706f736564206f776e6572000000000000000000006044820152fd5b80fd5b3461023757600036600319011261023757602063ffffffff600e5460601c16604051908152f35b6044359063ffffffff8216820361023757565b346102375760603660031901126102375760243567ffffffffffffffff8082116102375736602383011215610237578160040135908111610237573660248260051b8401011161023757610bc591610eee9160246112156111a6565b9201600435613650565b6001600160601b0381160361023757565b35906103538261121f565b34610237576020366003190112610237577ff310923b17686bb5bfbd2bc7e25960dac092be75769b675fbf4909d7de77916b60206001600160601b036004356112838161121f565b61128b612353565b16806001600160601b0319600e541617600e55604051908152a1005b34610237576020366003190112610237576001600160a01b036004356112cc81610d3e565b16600052600760205261131a6040600020610bc56112e98261072e565b9161132861130560026112fe6001850161072e565b930161072e565b9160405195869560608752606087019061091e565b90858203602087015261091e565b90838203604085015261091e565b346102375760003660031901126102375760206001600160a01b0360025416604051908152f35b9291909261136a84610819565b916113786040519384610303565b829480845260208094019060051b8301928284116102375780915b8483106113a257505050505050565b823567ffffffffffffffff81116102375786916113c286849386016103b5565b815201920191611393565b9080601f83011215610237578160206103d09335910161135d565b6002111561023757565b3590610353826113e8565b6001111561023757565b3590610353826113fd565b346102375760031960403682011261023757600480359167ffffffffffffffff90818411610237576101809084360301126102375761144f610325565b9061145b848401611230565b8252602484013581811161023757611478908436918701016103b5565b6020830152604484013581811161023757611498908436918701016103b5565b60408301526064840135818111610237576114b8908436918701016103b5565b60608301526084840135818111610237576114d8908436918701016113cd565b60808301526114e960a485016113f2565b60a08301526114fa60c485016113f2565b60c083015261150b60e48501611407565b60e08301526101048401356101008301526115296101248501611062565b6101208301526101448401358181116102375761154b908436918701016103b5565b61014083015261016484013590811161023757610bc593610eee9361157392369201016103b5565b610160820152611581610d4f565b906140cb565b634e487b7160e01b600052603260045260246000fd5b34610237576020366003190112610237576004356009548110156102375760209060096000527f6e1540171b6c0c960b71a7020d9f60077f6af931a8bbf590da0223dacf75c7af0154604051908152f35b34610237576000366003190112610237576020601054604051908152f35b3461023757602036600319011261023757600435600052600560205260406000208054610bc56001600160a01b0360018401541692611689600282015491600381015461166060056112fe6004850161072e565b93604051978897885260208801526040870152606086015260c0608086015260c085019061091e565b9083820360a085015261091e565b346102375760203660031901126102375760043563ffffffff811690818103610237577f5df6c53187c7cfa2643679f49eee9fc8a62e23a074ed0b12f17b5635c25f721d916020916116e7612353565b7fffffffffffffffffffffffffffffffff00000000ffffffffffffffffffffffff6fffffffff000000000000000000000000600e549260601b16911617600e55604051908152a1005b3461023757602036600319011261023757610e8260043561175081611043565b613f3d565b34610237576020366003190112610237577f803bee7e92bbc6ae7a1551f9f4ed3e31a8ea8df32e93332f41b0028f1091f9c360206004356117958161121f565b61179d612353565b600d547fffffffffffffffff000000000000000000000000ffffffffffffffffffffffff77ffffffffffffffffffffffff0000000000000000000000008360601b16911617600d556001600160601b0360405191168152a1005b60206003198181360112610237576004359067ffffffffffffffff808311610237576101808360040192843603011261023757611833826123ab565b50602483019061184f61184683856123b5565b905015156123e8565b61187761187161185f84866123b5565b9190611869612433565b92369161037e565b906155c8565b61188182846123b5565b61189c6118aa6040969387519283918b83019533918761246c565b03601f198101835282610303565b519020946001600160a01b03926118d9846118d26104cd8a6000526004602052604060002090565b16156124a6565b61191561190e6118e7612524565b338152966119086118f7876123ab565b6001600160601b03166101008a0152565b856123b5565b369161037e565b8686015261192961190e60448401856123b5565b606086015261193e61190e60648401856123b5565b608086015261195a611953608484018561259d565b369161135d565b60a086015260e085019361010483013585526101248301918061197c846125d3565b16611b5b5750505061198f6104646127c5565b6119a4610436600a546001600160a01b031690565b85516370a0823160e01b815233600482015297908190899060249082905afa9081156106c2576119fa611a1292610bc59a600091611b2e575b506119f361060a600e546001600160601b031690565b111561280d565b611a02612fdf565b67ffffffffffffffff1690860152565b611a1a6124f1565b91611a4e611a2a60a4840161287e565b611a3660e48501612888565b611a4761190e6101448701866123b5565b9186614113565b6001611a5c60c4840161287e565b611a65816107e8565b1480611b16575b611af4575b505060c0830152611a9582611a90866000526004602052604060002090565b612b6c565b611a9e84612d5e565b5190837f927297d6eaa27cb1a10143906c29a395a10111aa38c4825beedd19666719453e845180611ad0339582611fa2565b0390a4611ae6611ae1600f54612701565b600f55565b519081529081906020820190565b61190e611b0991610164611b0f9401906123b5565b82614162565b3880611a71565b50611b256101648301826123b5565b90501515611a6c565b611b4e9150833d8511611b54575b611b468183610303565b8101906127fe565b386119dd565b503d611b3c565b90611b7f8392611b6e611bcb9c956125d3565b90611b776125dd565b91169061556c565b6000611b96610436600b546001600160a01b031690565b611b9f846125d3565b908a5180809e819463523e3b4b60e11b83526004830191909167ffffffffffffffff6020820193169052565b03915afa998a156106c257600090819b611cab575b50163081149033146000915b8b51831015611c92578b611c14610436611c07863094612715565b516001600160a01b031690565b03611c7157506001915b8280611c6a575b611c3857611c3290612701565b91611bec565b50610bc59a5091611c58611a0292611c5d95945b81611c62575b5061272e565b6125d3565b611a12565b905038611c52565b5081611c25565b918b611c84610436611c07843394612715565b03611c1e5760019150611c1e565b610bc59b50611a029250611c5890611c5d959492611c4c565b90611cc1929b503d8091833e6106b28183610303565b9a915038611be0565b9060206103d092818152019061091e565b346102375760008060031936011261117c576004816001600160a01b03815416604051928380927fd328a91e0000000000000000000000000000000000000000000000000000000082525afa9081156106c2578291611d43575b60405180610bc58482611cca565b90503d8083833e611d548183610303565b810190602081830312611dc25780519067ffffffffffffffff8211611dc6570181601f82011215611dc257805192611d8b84610362565b92611d996040519485610303565b8484526020858401011161117c5750610bc592611dbc91602080850191016108fb565b38611d35565b8280fd5b8380fd5b34610237576003196080368201126102375760043567ffffffffffffffff918282116102375760c090823603011261023757611e04610346565b611e10826004016113f2565b8152611e1e602483016113f2565b6020820152611e2f60448301611407565b6040820152606482013583811161023757611e5090600436918501016103b5565b6060820152608482013583811161023757611e7190600436918501016103b5565b608082015260a482013592831161023757611e98611eb7926004610bc595369201016113cd565b60a0820152611ea5611055565b611ead6111a6565b90606435926141ec565b6040516001600160601b0390911681529081906020820190565b346102375760003660031901126102375760206001600160601b03600d5416604051908152f35b346102375760203660031901126102375767ffffffffffffffff600435611f1e81611043565b611093604051611f2d816102ae565b601681527f676574537562736372697074696f6e42616c616e6365000000000000000000006020820152615525565b3461023757602036600319011261023757610e82600435611f7b612353565b806000526004602052611f9d6001600160a01b03604060002054161515613be8565b613d0e565b60208152611fbc6020820183516001600160a01b03169052565b602082015167ffffffffffffffff166040820152604082015161204f611ff06101e09283606086015261020085019061091e565b61203a612026612012606088015193601f1994858983030160808a015261091e565b6080880151848883030160a089015261091e565b60a0870151838783030160c0880152610950565b9060c0860151908583030160e08601526109ac565b9260e0810151610100908185015281015161207861012091828601906001600160601b03169052565b81015161209361014091828601906001600160601b03169052565b8101516120ae61016091828601906001600160601b03169052565b81015161018090818501528101516101a09081850152810151906101c09182850152015191015290565b34610237576020366003190112610237576120f1612524565b50612130604051612101816102ae565b600b81527f67657446756e6374696f6e0000000000000000000000000000000000000000006020820152615525565b6004356000526004602052610bc56040600020600f61214d610355565b9161218f67ffffffffffffffff82546121786001600160a01b03821687906001600160a01b03169052565b60a01c16602085019067ffffffffffffffff169052565b61219b6001820161072e565b60408401526121ac6002820161072e565b60608401526121bd6003820161072e565b60808401526121ce60048201610831565b60a08401526121df60058201610886565b60c0840152600981015460e0840152600a8101546001600160601b0380821661010086015260609190911c16610120840152612239612228600b8301546001600160601b031690565b6001600160601b0316610140850152565b600c810154610160840152600d810154610180840152600e8101546101a084015201546101c082015260405191829182611fa2565b34610237576020366003190112610237576001600160a01b0360043561229381610d3e565b61229b612353565b163381146122f157806001600160a01b031960035416176003556122ca6104366002546001600160a01b031690565b7fed8889f560326eb138920d842192f0eb3dd22b4f139c87a2c57538e05bae1278600080a3005b606460405162461bcd60e51b815260206004820152601760248201527f43616e6e6f74207472616e7366657220746f2073656c660000000000000000006044820152fd5b34610237576000366003190112610237576020600f54604051908152f35b6001600160a01b0360025416330361236757565b606460405162461bcd60e51b815260206004820152601660248201527f4f6e6c792063616c6c61626c65206279206f776e6572000000000000000000006044820152fd5b356103d08161121f565b903590601e1981360301821215610237570180359067ffffffffffffffff82116102375760200191813603831361023757565b156123ef57565b606460405162461bcd60e51b815260206004820152601d60248201527f46756e6374696f6e206e616d652063616e6e6f7420626520656d7074790000006044820152fd5b60405190612440826102ae565b601482527f726567697374657246756e6374696f6e3a2025730000000000000000000000006020830152565b916060816001600160a01b039260209497969760408752816040880152838701376000828287010152601f80199101168401019416910152565b156124ad57565b606460405162461bcd60e51b815260206004820152601760248201527f46756e6374696f6e20616c7265616479206578697374730000000000000000006044820152fd5b604051906124fe82610279565b606060a08360008152600060208201526000604082015282808201528260808201520152565b60405190612531826102ca565b816101c06000918281528260208201526060604082015260608082015260606080820152606060a08201526125646124f1565b60c08201528260e08201528261010082015282610120820152826101408201528261016082015282610180820152826101a08201520152565b903590601e1981360301821215610237570180359067ffffffffffffffff821161023757602001918160051b3603831361023757565b356103d081611043565b604051906125ea826102e7565b603682527f636865636b696e6720696620617574686f72697a6564000000000000000000006040837f7573696e67206578697374696e6720737562736372697074696f6e2025642c2060208201520152565b90916060828403126102375781516126538161121f565b9260208084015161266381610d3e565b9360408101519067ffffffffffffffff821161023757019180601f8401121561023757825161269181610819565b9361269f6040519586610303565b818552838086019260051b820101928311610237578301905b8282106126c6575050505090565b83809183516126d481610d3e565b8152019101906126b8565b6040513d6000823e3d90fd5b634e487b7160e01b600052601160045260246000fd5b60001981146127105760010190565b6126eb565b80518210156127295760209160051b010190565b611587565b1561273557565b60a460405162461bcd60e51b815260206004820152604f60248201527f46756e6374696f6e734d616e6167657220616e642f6f722063616c6c6572206160448201527f7265206e6f7420617574686f72697a656420636f6e73756d657273206f66207460648201527f686520737562736372697074696f6e00000000000000000000000000000000006084820152fd5b604051906127d2826102ae565b601982527f6372656174696e67206e657720737562736372697074696f6e000000000000006020830152565b90816020910312610237575190565b1561281457565b608460405162461bcd60e51b815260206004820152602e60248201527f496e73756666696369656e74204c494e4b2062616c616e636520746f2066756e60448201527f6420737562736372697074696f6e0000000000000000000000000000000000006064820152fd5b356103d0816113e8565b356103d0816113fd565b81811061289d575050565b60008155600101612892565b9190601f81116128b857505050565b610353926000526020600020906020601f840160051c830193106128e4575b601f0160051c0190612892565b90915081906128d7565b919091825167ffffffffffffffff8111610295576129168161291084546106f4565b846128a9565b602080601f8311600114612952575081929394600092612947575b50508160011b916000199060031b1c1916179055565b015190503880612931565b90601f1983169561296885600052602060002090565b926000905b8882106129a55750508360019596971061298c575b505050811b019055565b015160001960f88460031b161c19169055388080612982565b8060018596829496860151815501950193019061296d565b908160011b918083046002149015171561271057565b815191680100000000000000008311610295578154838355808410612a36575b50612a08602080920192600052602060002090565b6000925b848410612a1a575050505050565b60018382612a2a839451866128ee565b01920193019290612a0c565b6000838152846020822092830192015b828110612a545750506129f3565b80612a61600192546106f4565b80612a6e575b5001612a46565b601f908181118414612a865750508281555b38612a67565b83612aa892612a9a85600052602060002090565b920160051c82019101612892565b60008181526020812081835555612a80565b9060018110156107f25762ff000082549160101b169062ff00001916179055565b81519160028310156107f25760ff82549316908160ff198516178355602081015190612b06826107e8565b60028210156107f2576103539460039361ff0060a09460081b169161ffff191617178455612b416040820151612b3b81610803565b85612aba565b612b526060820151600186016128ee565b612b636080820151600286016128ee565b015191016129d3565b906101c0600f91612ba3612b8782516001600160a01b031690565b85906001600160a01b03166001600160a01b0319825416179055565b612c08612bbb602083015167ffffffffffffffff1690565b85547fffffffff0000000000000000ffffffffffffffffffffffffffffffffffffffff1660a09190911b7bffffffffffffffff000000000000000000000000000000000000000016178555565b612c196040820151600186016128ee565b612c2a6060820151600286016128ee565b612c3b6080820151600386016128ee565b612c4c60a0820151600486016129d3565b612c5d60c082015160058601612adb565b60e08101516009850155612cff600a8501612ca7612c866101008501516001600160601b031690565b82546bffffffffffffffffffffffff19166001600160601b03909116178255565b6101208301516001600160601b03165b7fffffffffffffffff000000000000000000000000ffffffffffffffffffffffff77ffffffffffffffffffffffff00000000000000000000000083549260601b169116179055565b612d36612d176101408301516001600160601b031690565b600b8601906001600160601b03166001600160601b0319825416179055565b610160810151600c850155610180810151600d8501556101a0810151600e8501550151910155565b600954680100000000000000008110156102955760018101806009558110156127295760096000527f6e1540171b6c0c960b71a7020d9f60077f6af931a8bbf590da0223dacf75c7af0155565b9081602091031261023757516103d081611043565b60405190612dcd826102ae565b601f82527f6372656174656420737562736372697074696f6e2077697468206964202564006020830152565b60405190612e06826102ae565b601582527f616464696e6720257320617320636f6e73756d657200000000000000000000006020830152565b60405190612e3f826102ae565b601982527f73656e646572202573204c494e4b2062616c616e6365202564000000000000006020830152565b90816020910312610237575180151581036102375790565b15612e8a57565b60a460405162461bcd60e51b815260206004820152604860248201527f4661696c656420746f207472616e73666572204c494e4b20746f20746865204660448201527f756e6374696f6e204d616e6167657220746f2066756e6420746865207375627360648201527f6372697074696f6e0000000000000000000000000000000000000000000000006084820152fd5b6001600160601b036103d094936001600160a01b03606094168352166020820152816040820152019061091e565b15612f4f57565b60a460405162461bcd60e51b815260206004820152604460248201527f4661696c656420746f207472616e73666572204c494e4b20746f2042696c6c6960448201527f6e6720526567697374727920746f2066756e642074686520737562736372697060648201527f74696f6e000000000000000000000000000000000000000000000000000000006084820152fd5b612ff4610436600b546001600160a01b031690565b6040908151917fa21a23e40000000000000000000000000000000000000000000000000000000083526020908184600481600080975af19384156106c25783946132db575b50613056613045612dc0565b67ffffffffffffffff86169061556c565b613062306104ac612df9565b613077610436600b546001600160a01b031690565b803b15611dc65781517f7341c10c00000000000000000000000000000000000000000000000000000000815267ffffffffffffffff861660048201523060248201529084908290604490829084905af180156106c2576132c2575b50613110336130f58667ffffffffffffffff166000526006602052604060002090565b906001600160a01b03166001600160a01b0319825416179055565b613125610436600a546001600160a01b031690565b81516370a0823160e01b81523360048201529091908381602481865afa80156106c25785936131696131a392879487916132a5575b5033613164612e32565b6156ec565b600e5484516323b872dd60e01b81523360048201523060248201526001600160601b03909116604482015294859283919082906064820190565b03925af19081156106c2576131c4849261324f948791613288575b50612e83565b6131d9610436600a546001600160a01b031690565b6131ee610436600b546001600160a01b031690565b86613201600e546001600160601b031690565b91845194613234866132268d8a830191909167ffffffffffffffff6020820193169052565b03601f198101885287610303565b5196879586948593630200057560e51b855260048501612f1a565b03925af19182156106c2576103d0939261326b575b5050612f48565b6132819250803d10610e8457610e7a8183610303565b3880613264565b61329f9150843d8611610e8457610e7a8183610303565b386131be565b6132bc9150853d8711611b5457611b468183610303565b3861315a565b806132cf6132d59261029a565b8061022c565b386130d2565b6132fc919450823d8411613303575b6132f48183610303565b810190612dab565b9238613039565b503d6132ea565b60405190613317826102e7565b602682527f696f6e49643a00000000000000000000000000000000000000000000000000006040837f65786563757465526571756573742063616c6c656420776974682066756e637460208201520152565b1561337057565b606460405162461bcd60e51b815260206004820152601a60248201527f66756e6374696f6e206973206e6f7420726567697374657265640000000000006044820152fd5b604051906133c1826102ae565b601b82527f636f6c6c656374696e6720616e64206c6f636b696e67206665657300000000006020830152565b9190916001600160601b038080941691160191821161271057565b9190916001600160601b038080941691160291821691820361271057565b1561342d57565b608460405162461bcd60e51b815260206004820152603160248201527f596f7520646f206e6f74206861766520656e6f756768204c494e4b20746f206360448201527f616c6c20746869732066756e6374696f6e0000000000000000000000000000006064820152fd5b604051906134a4826102ae565b601482527f5472616e7366657272696e67202564204c494e4b0000000000000000000000006020830152565b156134d757565b608460405162461bcd60e51b815260206004820152602260248201527f4661696c656420746f20636f6c6c65637420666565732066726f6d2063616c6c60448201527f65720000000000000000000000000000000000000000000000000000000000006064820152fd5b6040519061354e826102ae565b601c82527f726573657276656420737562736372697074696f6e20666565202564000000006020830152565b6001600160601b03918216908216039190821161271057565b604051906135a0826102ae565b601982527f73656e64696e672066756e6374696f6e732072657175657374000000000000006020830152565b156135d357565b606460405162461bcd60e51b815260206004820152601960248201527f5265717565737420494420616c726561647920657869737473000000000000006044820152fd5b60405190613624826102ae565b601d82527f656d697474696e672046756e6374696f6e43616c6c6564206576656e740000006020830152565b61365b61046461330a565b613664816154ca565b613678816000526004602052604060002090565b918254906136906001600160a01b0383161515613369565b61369c60058501610886565b9480613bcc575b50506136b06104646133b4565b600a8301916136c683546001600160601b031690565b9467ffffffffffffffff6136ef876136ea600d546001600160601b039060601c1690565b6133ed565b9360a01c169661373061372061371a613711600e5463ffffffff9060601c1690565b63ffffffff1690565b89613408565b6001600160601b03606491160490565b91604094898651867f28a3d38460bbcddfc8f400bf6eab5beece2088625ffccd8de8214fb9fe140d3833928061377687829190916001600160601b036020820193169052565b0390a461378e610436600a546001600160a01b031690565b86516370a0823160e01b808252336004830152919a91956020939184818e81806024810103915afa80156106c2576137d191600091613bb5575033613164612e32565b885196875233600488015283876024818f5afa9687156106c257600097613b96575b5061381c6001600160601b039761380f89851680921015613426565b613817613497565b61556c565b88516323b872dd60e01b81523360048201523060248201526001600160601b03831660448201529b84908d9060649082906000905af19384156106c2578d6139177feb98a4358e79cd01f5b134f72406251bd2a7b8667fd337212737d07697d4b9fc9f99600c9f9a6139dc968d8f7f7f4647318d5ba9a5c6eb666df7c449400bf2d50cbd9a4d0d288d434145c13ef890613a3d9f6139f69d6138cb916139899b600092613b79575b50506134d0565b516001600160601b039390931683523392602090a461390e6139018467ffffffffffffffff166000526008602052604060002090565b546001600160601b031690565b90611b77613541565b61396e61395361393e6139018467ffffffffffffffff166000526008602052604060002090565b600d5460601c6001600160601b0316906133ed565b9167ffffffffffffffff166000526008602052604060002090565b906001600160601b03166001600160601b0319825416179055565b6139be6139a2826136ea600d546001600160601b031690565b6001600160601b03166001600160601b0319600d541617600d55565b6139d7600b8c01936136ea85546001600160601b031690565b61357a565b6001600160601b03166001600160601b0319825416179055565b613a01610464613593565b33847fd5a402ac444d37e8141516adc5b5801964b7c1777fb991a5051f0d88ad3d84e5600080a3865460a01c67ffffffffffffffff169061466e565b9586923384847f497d36ab89c4d7f11436b8711a9d4b2861052ed38ede94471ce7dc6357526e65600080a4613a86613a7f856000526005602052604060002090565b54156135cc565b82613a9b856000526005602052604060002090565b55613ad2336001613ab6876000526005602052604060002090565b01906001600160a01b03166001600160a01b0319825416179055565b613add610464613617565b85546001600160a01b031694613b53613b13613b05600d546001600160601b039060601c1690565b92546001600160601b031690565b92516001600160a01b03909716875260006020880181905260408801526001600160601b03918216606088015291166080860152339490819060a0820190565b0390a4613b69613b64601054612701565b601055565b01613b748154612701565b905590565b613b8f9250803d10610e8457610e7a8183610303565b38806138c4565b613bae919750843d8611611b5457611b468183610303565b95386137f3565b6132bc9150863d8811611b5457611b468183610303565b613be191613bdb91369161135d565b856141a0565b38806136a3565b15613bef57565b606460405162461bcd60e51b815260206004820152601760248201527f46756e6374696f6e20646f6573206e6f742065786973740000000000000000006044820152fd5b60405190613c40826102ae565b600e82527f556e6c6f636b696e6720666565730000000000000000000000000000000000006020830152565b9063ffffffff80921660640391821161271057565b60405190613c8e826102ae565b601c82527f4265666f7265206c6f636b656420256420756e6c6f636b6564202564000000006020830152565b60405190613cc7826102ae565b601b82527f4166746572206c6f636b656420256420756e6c6f636b656420256400000000006020830152565b906020820180921161271057565b9190820180921161271057565b613d19610464613c33565b613d436001600160a01b03613d3b6104cd846000526004602052604060002090565b161515613be8565b613eda600d613ed1613d9c613720613d78600a613d6a886000526004602052604060002090565b01546001600160601b031690565b613d96613711613d91600e5463ffffffff9060601c1690565b613c6c565b90613408565b613db5600b613d6a876000526004602052604060002090565b90613e00613de3600a613dd2896000526004602052604060002090565b015460601c6001600160601b031690565b92613dec613c81565b6001600160601b038080961692169061568a565b613e2f600b613e19886000526004602052604060002090565b016139dc836139d783546001600160601b031690565b613e62600a613e48886000526004602052604060002090565b01612cb7836136ea83546001600160601b039060601c1690565b613eab613e7e600b613d6a896000526004602052604060002090565b613e97600a613dd28a6000526004602052604060002090565b8480613ea1613cba565b921692169061568a565b1693613ec1613ebc86601154613d01565b601155565b6000526004602052604060002090565b01918254613d01565b9055565b60405190613eeb826102e7565b603782527f6c6c20617661696c61626c652062616c616e63652025640000000000000000006040837f526566696c6c696e6720737562736372697074696f6e2025642077697468206160208201520152565b602061403561406092613f8e613f6a6139018367ffffffffffffffff166000526008602052604060002090565b6001600160601b03613f7a613ede565b91169067ffffffffffffffff84169061568a565b613faf6139018267ffffffffffffffff166000526008602052604060002090565b613fe5613fd08367ffffffffffffffff166000526008602052604060002090565b80546bffffffffffffffffffffffff19169055565b6000613ffc610436600a546001600160a01b031690565b92614043614015610436600b546001600160a01b031690565b9160405196879189830191909167ffffffffffffffff6020820193169052565b03601f198101875286610303565b60405196879586948593630200057560e51b855260048501612f1a565b03925af180156106c2576140715750565b6140889060203d8111610e8457610e7a8183610303565b50565b919060346140c59160405193818592602084019788378201906001600160601b03199060601b166020820152036014810184520182610303565b51902090565b60200151906140c56034604051809360206140ef81840197888151938492016108fb565b8201906001600160601b03199060601b166020820152036014810184520182610303565b908351156141385760609261412b61413492846107f7565b6040830161080d565b0152565b60046040517f22ce3edd000000000000000000000000000000000000000000000000000000008152fd5b815115614176576001602082015260800152565b60046040517fe889636f000000000000000000000000000000000000000000000000000000008152fd5b8151156141ad5760a00152565b60046040517ffe936cb7000000000000000000000000000000000000000000000000000000008152fd5b9081602091031261023757516103d08161121f565b67ffffffffffffffff61425c94926020946142126001600160a01b036000541694614436565b9463ffffffff604051988997889687967fd227d24500000000000000000000000000000000000000000000000000000000885216600487015260806024870152608486019061091e565b92166044840152606483015203915afa9081156106c25760009161427e575090565b6103d0915060203d811161429f575b6142978183610303565b8101906141d7565b503d61428d565b604051906142b3826102ae565b6000602083606081520152565b604051906142cd826102ae565b60006020836142da6142a6565b81520152565b604051906142ed826102ae565b600c82527f636f64654c6f636174696f6e00000000000000000000000000000000000000006020830152565b60405190614326826102ae565b600882527f6c616e67756167650000000000000000000000000000000000000000000000006020830152565b6040519061435f826102ae565b600682527f736f7572636500000000000000000000000000000000000000000000000000006020830152565b60405190614398826102ae565b600482527f61726773000000000000000000000000000000000000000000000000000000006020830152565b604051906143d1826102ae565b600f82527f736563726574734c6f636174696f6e00000000000000000000000000000000006020830152565b6040519061440a826102ae565b600782527f73656372657473000000000000000000000000000000000000000000000000006020830152565b61443e6142c0565b906144498251614a96565b5061445b6144556142e0565b83615189565b6144788151614469816107e8565b614472816107e8565b83614b15565b614483614455614319565b61449d604082015161449481610803565b61447281610803565b6144a8614455614352565b6144b6606082015183615189565b60a0810180515161456e575b5060808101908151516144d7575b5050515190565b6020019081516144e6816107e8565b6144ef816107e8565b156145445761452561453d9261450c6145066143c4565b86615189565b51614516816107e8565b61451f816107e8565b84614b15565b6145366145306143fd565b84615189565b51826150d6565b38806144d0565b60046040517fa80d31f7000000000000000000000000000000000000000000000000000000008152fd5b9261457a61453061438b565b6145838361520e565b60005b845180518210156145b357906145a96145a2826145ae94612715565b5186615189565b612701565b614586565b505092506145c08261529a565b386144c2565b604051906145d3826102e7565b602982527f6c69656e74206c696200000000000000000000000000000000000000000000006040837f53656e64696e6720726571756573742066726f6d2066756e6374696f6e73206360208201520152565b9161465263ffffffff9167ffffffffffffffff60409497969716855260606020860152606085019061091e565b9416910152565b9081602091031261023757516103d081610d3e565b6146db929161467e6104646145c6565b60009384926146a061469a61043686546001600160a01b031690565b91614436565b946040519687809481937f28242b040000000000000000000000000000000000000000000000000000000083526020998a9860048501614625565b03925af19283156106c25781936147b0575b508082614706610436600494546001600160a01b031690565b604051938480927f5ab1bd530000000000000000000000000000000000000000000000000000000082525afa9283156106c25784937f1131472297a800fee664d1d89cfa8f7676ff07189ecc53f80bbb5f4969099db89361477e928492614783575b50506130f5856000526001602052604060002090565b80a290565b6147a29250803d106147a9575b61479a8183610303565b810190614659565b3880614768565b503d614790565b60049193506147cb90833d8511611b5457611b468183610303565b92906146ed565b156147d957565b60a460405162461bcd60e51b815260206004820152604260248201527f4f6e6c79207468652066756e6374696f6e206f776e6572206f722042696c6c6960448201527f6e672052656769737472792063616e2063616c6c20746869732066756e63746960648201527f6f6e0000000000000000000000000000000000000000000000000000000000006084820152fd5b60405190614876826102ae565b601282527f66756c66696c6c696e67207265717565737400000000000000000000000000006020830152565b156148a957565b606460405162461bcd60e51b815260206004820152601260248201527f496e76616c6964207265717565737420494400000000000000000000000000006044820152fd5b604051906148fa826102e7565b603582527f63616c6c20746869732066756e6374696f6e2e2e2e00000000000000000000006040837f436865636b696e6720697320257320697320617574686f72697a656420746f2060208201520152565b1561495357565b608460405162461bcd60e51b815260206004820152602e60248201527f4f6e6c79207468652066756e6374696f6e206f776e65722063616e2063616c6c60448201527f20746869732066756e6374696f6e0000000000000000000000000000000000006064820152fd5b604051906149ca826102ae565b601382527f257320697320617574686f72697a65642e2e2e000000000000000000000000006020830152565b60405190614a03826102e7565b603b82527f67206966206e6565642066696c6c20737562736372697074696f6e00000000006040837f46696e697368656420756e6c6f636b696e6720666565732c20636865636b696e60208201520152565b926103d094926001600160a01b03610a919316855260208501526000604085015260a0606085015260a084019061091e565b601f1981019190821161271057565b614a9e6142a6565b5061010060208201526040518082526000815261012081019081106102375760405290565b90614acc6142a6565b50601f811680614afb575b50806020830152604051908183526000825281016020019081106102375760405290565b602003602081116127105781018091116127105738614ad7565b90815191614b216142a6565b508251516001810190818111612710576020850151811015614b7a575b60c260206103539651928301015380518211614b72575b505060405191602083015260208252614b6d826102ae565b6150d6565b523880614b55565b8160011b948286046002148315171561271057602081614bac61035398614ba560c295519184614ac3565b508261501e565b5096505050614b3e565b614bbe6142a6565b508051516001810190818111612710576020830151811015614bf7575b605b60208451928301015380518211614bf357505090565b5290565b8160011b8281046002148315171561271057614c2090614c1985519186614ac3565b508461501e565b50614bdb565b614c2e6142a6565b508051516001810190818111612710576020830151811015614c63575b605a60208451928301015380518211614bf357505090565b8160011b8281046002148315171561271057614c8590614c1985519186614ac3565b50614c4b565b614c936142a6565b508051516001810190818111612710576020830151811015614cc8575b605960208451928301015380518211614bf357505090565b8160011b8281046002148315171561271057614cea90614c1985519186614ac3565b50614cb0565b614cf86142a6565b508051516001810190818111612710576020830151811015614d2d575b605860208451928301015380518211614bf357505090565b8160011b8281046002148315171561271057614d4f90614c1985519186614ac3565b50614d15565b614d5d6142a6565b508051516001810190818111612710576020830151811015614d92575b607b60208451928301015380518211614bf357505090565b8160011b8281046002148315171561271057614db490614c1985519186614ac3565b50614d7a565b614dc26142a6565b508051516001810190818111612710576020830151811015614df7575b607a60208451928301015380518211614bf357505090565b8160011b8281046002148315171561271057614e1990614c1985519186614ac3565b50614ddf565b614e276142a6565b508051516001810190818111612710576020830151811015614e5c575b607960208451928301015380518211614bf357505090565b8160011b8281046002148315171561271057614e7e90614c1985519186614ac3565b50614e44565b614e8c6142a6565b508051516001810190818111612710576020830151811015614ec1575b607860208451928301015380518211614bf357505090565b8160011b8281046002148315171561271057614ee390614c1985519186614ac3565b50614ea9565b90614ef26142a6565b508151516001810191828211612710576020840151821015614f25575b60208451928301015380518211614bf357505090565b8260011b8381046002148415171561271057614f4e90614f4786519187614ac3565b508561501e565b50614f0f565b90614f6182519183614ac3565b50614f6a6142a6565b50805190614f766142a6565b50614f8481518311156150cf565b82515192614f928385613d01565b916020928284809401518211615007575b5183815197820101968211614fff575b505001915b81811015614fd95760001991036101000a0190811990511690825116179052565b9192614ff4614fee614ffa9286518152613cf3565b94613cf3565b92614a87565b614fb8565b523880614fb3565b615019615013836129bd565b82614f54565b614fa3565b906150276142a6565b5080516150326142a6565b5061504082518211156150cf565b8251519161504e8284613d01565b60209182918287015181116150b8575b8651838151978201019682116150b0575b505001915b818110156150965760001991036101000a019081199051169082511617905290565b9192614ff4614fee6150ab9286518152613cf3565b615074565b52388061506f565b6150ca6150c4826129bd565b88614f54565b61505e565b1561023757565b815161408892919067ffffffffffffffff8116906017821161510e576151069150604060ff845192161790614ee9565b505b5161501e565b5060ff81116151335761512d906151258351614cf0565b508251615464565b50615108565b61ffff81116151525761512d9061514a8351614c8b565b5082516153fd565b63ffffffff81116151735761512d9061516b8351614c26565b508251615394565b61512d906151818351614bb6565b508251615327565b815161408892919067ffffffffffffffff811690601782116151b9576151069150606060ff845192161790614ee9565b5060ff81116151d05761512d906151258351614e84565b61ffff81116151e75761512d9061514a8351614e1f565b63ffffffff81116152005761512d9061516b8351614dba565b61512d906151818351614d55565b8051906152196142a6565b508151516001810190818111612710576020840151811015615267575b609f602080955192830101538051821161525f575b505001805190600182018092116127105752565b52388061524b565b8160011b9382850460021483151715612710576020816152908297614ba5609f95519184614ac3565b5095505050615236565b8051906152a56142a6565b5081515160018101908181116127105760208401518110156152f4575b60ff60208095519283010153805182116152ec575b50500180516000198101919082116127105752565b5238806152d7565b8160011b93828504600214831517156127105760208161531d8297614ba560ff95519184614ac3565b50955050506152c2565b906153306142a6565b508151518060080191826008116127105760208401518311615373575b60088451928301019067ffffffffffffffff1982511617905280518211614bf357505090565b8260011b838104600214841517156127105761538f9085614f54565b61534d565b9061539d6142a6565b5081515180600401918260041161271057602084015183116153dc575b60048451928301019063ffffffff1982511617905280518211614bf357505090565b8260011b83810460021484151715612710576153f89085614f54565b6153ba565b906154066142a6565b508151518060020191826002116127105760208401518311615443575b60028451928301019061ffff1982511617905280518211614bf357505090565b8260011b838104600214841517156127105761545f9085614f54565b615423565b9061546d6142a6565b5081515180600101918260011161271057602084015183116154a9575b60018451928301019060ff1982511617905280518211614bf357505090565b8260011b83810460021484151715612710576154c59085614f54565b61548a565b61035390604051907f27b7cf8500000000000000000000000000000000000000000000000000000000602083015260248201526024815261550a816102e7565b600080916020815191016a636f6e736f6c652e6c6f675afa50565b61189c61550a610353926040519283917f41304fac00000000000000000000000000000000000000000000000000000000602084015260206024840152604483019061091e565b61550a6155b491610353936040519384927fb60e72cc00000000000000000000000000000000000000000000000000000000602085015260406024850152606484019061091e565b90604483015203601f198101835282610303565b61550a6156139161189c610353946040519485937f4b5c427700000000000000000000000000000000000000000000000000000000602086015260406024860152606485019061091e565b8381036023190160448501529061091e565b61550a61567591610353936001600160a01b036040519485937f319af33300000000000000000000000000000000000000000000000000000000602086015260406024860152606485019061091e565b9116604483015203601f198101835282610303565b61550a906156d392610353946040519485937fca47c4eb00000000000000000000000000000000000000000000000000000000602086015260606024860152608485019061091e565b916044840152606483015203601f198101835282610303565b61550a9061573d92610353946001600160a01b036040519586947f0d26b92500000000000000000000000000000000000000000000000000000000602087015260606024870152608486019061091e565b92166044840152606483015203601f19810183528261030356fea26469706673582212209b99c382594f4687bbbc36409a2629713f522702bc2292b3ac1a7b61c07e7cc464736f6c63430008120033",
  "linkReferences": {},
  "deployedLinkReferences": {}
}