{
  "_format": "hh-sol-artifact-1",
  "contractName": "FunctionsBillingRegistry",
  "sourceName": "contracts/functions/FunctionsBillingRegistry.sol",
  "abi": [
    {
      "inputs": [
        {
          "internalType": "uint256",
          "name": "internalBalance",
          "type": "uint256"
        },
        {
          "internalType": "uint256",
          "name": "externalBalance",
          "type": "uint256"
        }
      ],
      "name": "BalanceInvariantViolated",
      "type": "error"
    },
    {
      "inputs": [],
      "name": "CannotSelfTransfer",
      "type": "error"
    },
    {
      "inputs": [],
      "name": "EmptySendersList",
      "type": "error"
    },
    {
      "inputs": [
        {
          "internalType": "uint32",
          "name": "have",
          "type": "uint32"
        },
        {
          "internalType": "uint32",
          "name": "want",
          "type": "uint32"
        }
      ],
      "name": "GasLimitTooBig",
      "type": "error"
    },
    {
      "inputs": [],
      "name": "InsufficientBalance",
      "type": "error"
    },
    {
      "inputs": [],
      "name": "InvalidCalldata",
      "type": "error"
    },
    {
      "inputs": [
        {
          "internalType": "uint64",
          "name": "subscriptionId",
          "type": "uint64"
        },
        {
          "internalType": "address",
          "name": "consumer",
          "type": "address"
        }
      ],
      "name": "InvalidConsumer",
      "type": "error"
    },
    {
      "inputs": [
        {
          "internalType": "int256",
          "name": "linkWei",
          "type": "int256"
        }
      ],
      "name": "InvalidLinkWeiPrice",
      "type": "error"
    },
    {
      "inputs": [],
      "name": "InvalidSubscription",
      "type": "error"
    },
    {
      "inputs": [
        {
          "internalType": "address",
          "name": "proposedOwner",
          "type": "address"
        }
      ],
      "name": "MustBeRequestedOwner",
      "type": "error"
    },
    {
      "inputs": [
        {
          "internalType": "address",
          "name": "owner",
          "type": "address"
        }
      ],
      "name": "MustBeSubOwner",
      "type": "error"
    },
    {
      "inputs": [],
      "name": "NotAllowedToSetSenders",
      "type": "error"
    },
    {
      "inputs": [],
      "name": "NotProposedOwner",
      "type": "error"
    },
    {
      "inputs": [],
      "name": "OnlyCallableByOwner",
      "type": "error"
    },
    {
      "inputs": [],
      "name": "OnlyCallableFromLink",
      "type": "error"
    },
    {
      "inputs": [],
      "name": "OwnerMustBeSet",
      "type": "error"
    },
    {
      "inputs": [],
      "name": "PaymentTooLarge",
      "type": "error"
    },
    {
      "inputs": [],
      "name": "PendingRequestExists",
      "type": "error"
    },
    {
      "inputs": [],
      "name": "Reentrant",
      "type": "error"
    },
    {
      "inputs": [],
      "name": "TooManyConsumers",
      "type": "error"
    },
    {
      "inputs": [],
      "name": "UnauthorizedSender",
      "type": "error"
    },
    {
      "anonymous": false,
      "inputs": [
        {
          "indexed": false,
          "internalType": "address[]",
          "name": "senders",
          "type": "address[]"
        },
        {
          "indexed": false,
          "internalType": "address",
          "name": "changedBy",
          "type": "address"
        }
      ],
      "name": "AuthorizedSendersChanged",
      "type": "event"
    },
    {
      "anonymous": false,
      "inputs": [
        {
          "indexed": true,
          "internalType": "bytes32",
          "name": "requestId",
          "type": "bytes32"
        },
        {
          "indexed": false,
          "internalType": "uint64",
          "name": "subscriptionId",
          "type": "uint64"
        },
        {
          "indexed": false,
          "internalType": "uint96",
          "name": "signerPayment",
          "type": "uint96"
        },
        {
          "indexed": false,
          "internalType": "uint96",
          "name": "transmitterPayment",
          "type": "uint96"
        },
        {
          "indexed": false,
          "internalType": "uint96",
          "name": "totalCost",
          "type": "uint96"
        },
        {
          "indexed": false,
          "internalType": "bool",
          "name": "success",
          "type": "bool"
        }
      ],
      "name": "BillingEnd",
      "type": "event"
    },
    {
      "anonymous": false,
      "inputs": [
        {
          "indexed": true,
          "internalType": "bytes32",
          "name": "requestId",
          "type": "bytes32"
        },
        {
          "components": [
            {
              "internalType": "uint64",
              "name": "subscriptionId",
              "type": "uint64"
            },
            {
              "internalType": "address",
              "name": "client",
              "type": "address"
            },
            {
              "internalType": "uint32",
              "name": "gasLimit",
              "type": "uint32"
            },
            {
              "internalType": "uint256",
              "name": "gasPrice",
              "type": "uint256"
            },
            {
              "internalType": "address",
              "name": "don",
              "type": "address"
            },
            {
              "internalType": "uint96",
              "name": "donFee",
              "type": "uint96"
            },
            {
              "internalType": "uint96",
              "name": "registryFee",
              "type": "uint96"
            },
            {
              "internalType": "uint96",
              "name": "estimatedCost",
              "type": "uint96"
            },
            {
              "internalType": "uint256",
              "name": "timestamp",
              "type": "uint256"
            }
          ],
          "indexed": false,
          "internalType": "struct FunctionsBillingRegistry.Commitment",
          "name": "commitment",
          "type": "tuple"
        }
      ],
      "name": "BillingStart",
      "type": "event"
    },
    {
      "anonymous": false,
      "inputs": [
        {
          "indexed": false,
          "internalType": "uint32",
          "name": "maxGasLimit",
          "type": "uint32"
        },
        {
          "indexed": false,
          "internalType": "uint32",
          "name": "stalenessSeconds",
          "type": "uint32"
        },
        {
          "indexed": false,
          "internalType": "uint256",
          "name": "gasAfterPaymentCalculation",
          "type": "uint256"
        },
        {
          "indexed": false,
          "internalType": "int256",
          "name": "fallbackWeiPerUnitLink",
          "type": "int256"
        },
        {
          "indexed": false,
          "internalType": "uint32",
          "name": "gasOverhead",
          "type": "uint32"
        }
      ],
      "name": "ConfigSet",
      "type": "event"
    },
    {
      "anonymous": false,
      "inputs": [
        {
          "indexed": false,
          "internalType": "address",
          "name": "to",
          "type": "address"
        },
        {
          "indexed": false,
          "internalType": "uint256",
          "name": "amount",
          "type": "uint256"
        }
      ],
      "name": "FundsRecovered",
      "type": "event"
    },
    {
      "anonymous": false,
      "inputs": [
        {
          "indexed": false,
          "internalType": "uint8",
          "name": "version",
          "type": "uint8"
        }
      ],
      "name": "Initialized",
      "type": "event"
    },
    {
      "anonymous": false,
      "inputs": [
        {
          "indexed": true,
          "internalType": "address",
          "name": "from",
          "type": "address"
        },
        {
          "indexed": true,
          "internalType": "address",
          "name": "to",
          "type": "address"
        }
      ],
      "name": "OwnershipTransferRequested",
      "type": "event"
    },
    {
      "anonymous": false,
      "inputs": [
        {
          "indexed": true,
          "internalType": "address",
          "name": "from",
          "type": "address"
        },
        {
          "indexed": true,
          "internalType": "address",
          "name": "to",
          "type": "address"
        }
      ],
      "name": "OwnershipTransferred",
      "type": "event"
    },
    {
      "anonymous": false,
      "inputs": [
        {
          "indexed": false,
          "internalType": "address",
          "name": "account",
          "type": "address"
        }
      ],
      "name": "Paused",
      "type": "event"
    },
    {
      "anonymous": false,
      "inputs": [
        {
          "indexed": true,
          "internalType": "bytes32",
          "name": "requestId",
          "type": "bytes32"
        }
      ],
      "name": "RequestTimedOut",
      "type": "event"
    },
    {
      "anonymous": false,
      "inputs": [
        {
          "indexed": true,
          "internalType": "uint64",
          "name": "subscriptionId",
          "type": "uint64"
        },
        {
          "indexed": false,
          "internalType": "address",
          "name": "to",
          "type": "address"
        },
        {
          "indexed": false,
          "internalType": "uint256",
          "name": "amount",
          "type": "uint256"
        }
      ],
      "name": "SubscriptionCanceled",
      "type": "event"
    },
    {
      "anonymous": false,
      "inputs": [
        {
          "indexed": true,
          "internalType": "uint64",
          "name": "subscriptionId",
          "type": "uint64"
        },
        {
          "indexed": false,
          "internalType": "address",
          "name": "consumer",
          "type": "address"
        }
      ],
      "name": "SubscriptionConsumerAdded",
      "type": "event"
    },
    {
      "anonymous": false,
      "inputs": [
        {
          "indexed": true,
          "internalType": "uint64",
          "name": "subscriptionId",
          "type": "uint64"
        },
        {
          "indexed": false,
          "internalType": "address",
          "name": "consumer",
          "type": "address"
        }
      ],
      "name": "SubscriptionConsumerRemoved",
      "type": "event"
    },
    {
      "anonymous": false,
      "inputs": [
        {
          "indexed": true,
          "internalType": "uint64",
          "name": "subscriptionId",
          "type": "uint64"
        },
        {
          "indexed": false,
          "internalType": "address",
          "name": "owner",
          "type": "address"
        }
      ],
      "name": "SubscriptionCreated",
      "type": "event"
    },
    {
      "anonymous": false,
      "inputs": [
        {
          "indexed": true,
          "internalType": "uint64",
          "name": "subscriptionId",
          "type": "uint64"
        },
        {
          "indexed": false,
          "internalType": "uint256",
          "name": "oldBalance",
          "type": "uint256"
        },
        {
          "indexed": false,
          "internalType": "uint256",
          "name": "newBalance",
          "type": "uint256"
        }
      ],
      "name": "SubscriptionFunded",
      "type": "event"
    },
    {
      "anonymous": false,
      "inputs": [
        {
          "indexed": true,
          "internalType": "uint64",
          "name": "subscriptionId",
          "type": "uint64"
        },
        {
          "indexed": false,
          "internalType": "address",
          "name": "from",
          "type": "address"
        },
        {
          "indexed": false,
          "internalType": "address",
          "name": "to",
          "type": "address"
        }
      ],
      "name": "SubscriptionOwnerTransferRequested",
      "type": "event"
    },
    {
      "anonymous": false,
      "inputs": [
        {
          "indexed": true,
          "internalType": "uint64",
          "name": "subscriptionId",
          "type": "uint64"
        },
        {
          "indexed": false,
          "internalType": "address",
          "name": "from",
          "type": "address"
        },
        {
          "indexed": false,
          "internalType": "address",
          "name": "to",
          "type": "address"
        }
      ],
      "name": "SubscriptionOwnerTransferred",
      "type": "event"
    },
    {
      "anonymous": false,
      "inputs": [
        {
          "indexed": false,
          "internalType": "address",
          "name": "account",
          "type": "address"
        }
      ],
      "name": "Unpaused",
      "type": "event"
    },
    {
      "inputs": [],
      "name": "MAX_CONSUMERS",
      "outputs": [
        {
          "internalType": "uint16",
          "name": "",
          "type": "uint16"
        }
      ],
      "stateMutability": "view",
      "type": "function"
    },
    {
      "inputs": [],
      "name": "acceptOwnership",
      "outputs": [],
      "stateMutability": "nonpayable",
      "type": "function"
    },
    {
      "inputs": [
        {
          "internalType": "uint64",
          "name": "subscriptionId",
          "type": "uint64"
        }
      ],
      "name": "acceptSubscriptionOwnerTransfer",
      "outputs": [],
      "stateMutability": "nonpayable",
      "type": "function"
    },
    {
      "inputs": [
        {
          "internalType": "uint64",
          "name": "subscriptionId",
          "type": "uint64"
        },
        {
          "internalType": "address",
          "name": "consumer",
          "type": "address"
        }
      ],
      "name": "addConsumer",
      "outputs": [],
      "stateMutability": "nonpayable",
      "type": "function"
    },
    {
      "inputs": [
        {
          "internalType": "uint64",
          "name": "subscriptionId",
          "type": "uint64"
        },
        {
          "internalType": "address",
          "name": "to",
          "type": "address"
        }
      ],
      "name": "cancelSubscription",
      "outputs": [],
      "stateMutability": "nonpayable",
      "type": "function"
    },
    {
      "inputs": [],
      "name": "createSubscription",
      "outputs": [
        {
          "internalType": "uint64",
          "name": "",
          "type": "uint64"
        }
      ],
      "stateMutability": "nonpayable",
      "type": "function"
    },
    {
      "inputs": [
        {
          "internalType": "uint32",
          "name": "gasLimit",
          "type": "uint32"
        },
        {
          "internalType": "uint256",
          "name": "gasPrice",
          "type": "uint256"
        },
        {
          "internalType": "uint96",
          "name": "donFee",
          "type": "uint96"
        },
        {
          "internalType": "uint96",
          "name": "registryFee",
          "type": "uint96"
        }
      ],
      "name": "estimateCost",
      "outputs": [
        {
          "internalType": "uint96",
          "name": "",
          "type": "uint96"
        }
      ],
      "stateMutability": "view",
      "type": "function"
    },
    {
      "inputs": [
        {
          "internalType": "bytes32",
          "name": "requestId",
          "type": "bytes32"
        },
        {
          "internalType": "bytes",
          "name": "response",
          "type": "bytes"
        },
        {
          "internalType": "bytes",
          "name": "err",
          "type": "bytes"
        },
        {
          "internalType": "address",
          "name": "transmitter",
          "type": "address"
        },
        {
          "internalType": "address[31]",
          "name": "signers",
          "type": "address[31]"
        },
        {
          "internalType": "uint8",
          "name": "signerCount",
          "type": "uint8"
        },
        {
          "internalType": "uint256",
          "name": "reportValidationGas",
          "type": "uint256"
        },
        {
          "internalType": "uint256",
          "name": "initialGas",
          "type": "uint256"
        }
      ],
      "name": "fulfillAndBill",
      "outputs": [
        {
          "internalType": "enum FunctionsBillingRegistryInterface.FulfillResult",
          "name": "",
          "type": "uint8"
        }
      ],
      "stateMutability": "nonpayable",
      "type": "function"
    },
    {
      "inputs": [],
      "name": "getAuthorizedSenders",
      "outputs": [
        {
          "internalType": "address[]",
          "name": "",
          "type": "address[]"
        }
      ],
      "stateMutability": "view",
      "type": "function"
    },
    {
      "inputs": [],
      "name": "getConfig",
      "outputs": [
        {
          "internalType": "uint32",
          "name": "maxGasLimit",
          "type": "uint32"
        },
        {
          "internalType": "uint32",
          "name": "stalenessSeconds",
          "type": "uint32"
        },
        {
          "internalType": "uint256",
          "name": "gasAfterPaymentCalculation",
          "type": "uint256"
        },
        {
          "internalType": "int256",
          "name": "fallbackWeiPerUnitLink",
          "type": "int256"
        },
        {
          "internalType": "uint32",
          "name": "gasOverhead",
          "type": "uint32"
        },
        {
          "internalType": "address",
          "name": "linkAddress",
          "type": "address"
        },
        {
          "internalType": "address",
          "name": "linkPriceFeed",
          "type": "address"
        }
      ],
      "stateMutability": "view",
      "type": "function"
    },
    {
      "inputs": [],
      "name": "getCurrentsubscriptionId",
      "outputs": [
        {
          "internalType": "uint64",
          "name": "",
          "type": "uint64"
        }
      ],
      "stateMutability": "view",
      "type": "function"
    },
    {
      "inputs": [],
      "name": "getRequestConfig",
      "outputs": [
        {
          "internalType": "uint32",
          "name": "",
          "type": "uint32"
        },
        {
          "internalType": "address[]",
          "name": "",
          "type": "address[]"
        }
      ],
      "stateMutability": "view",
      "type": "function"
    },
    {
      "inputs": [
        {
          "internalType": "bytes",
          "name": "",
          "type": "bytes"
        },
        {
          "components": [
            {
              "internalType": "uint64",
              "name": "subscriptionId",
              "type": "uint64"
            },
            {
              "internalType": "address",
              "name": "client",
              "type": "address"
            },
            {
              "internalType": "uint32",
              "name": "gasLimit",
              "type": "uint32"
            },
            {
              "internalType": "uint256",
              "name": "gasPrice",
              "type": "uint256"
            }
          ],
          "internalType": "struct FunctionsBillingRegistryInterface.RequestBilling",
          "name": "",
          "type": "tuple"
        }
      ],
      "name": "getRequiredFee",
      "outputs": [
        {
          "internalType": "uint96",
          "name": "",
          "type": "uint96"
        }
      ],
      "stateMutability": "pure",
      "type": "function"
    },
    {
      "inputs": [
        {
          "internalType": "uint64",
          "name": "subscriptionId",
          "type": "uint64"
        }
      ],
      "name": "getSubscription",
      "outputs": [
        {
          "internalType": "uint96",
          "name": "balance",
          "type": "uint96"
        },
        {
          "internalType": "address",
          "name": "owner",
          "type": "address"
        },
        {
          "internalType": "address[]",
          "name": "consumers",
          "type": "address[]"
        }
      ],
      "stateMutability": "view",
      "type": "function"
    },
    {
      "inputs": [
        {
          "internalType": "uint64",
          "name": "subscriptionId",
          "type": "uint64"
        }
      ],
      "name": "getSubscriptionOwner",
      "outputs": [
        {
          "internalType": "address",
          "name": "owner",
          "type": "address"
        }
      ],
      "stateMutability": "view",
      "type": "function"
    },
    {
      "inputs": [],
      "name": "getTotalBalance",
      "outputs": [
        {
          "internalType": "uint256",
          "name": "",
          "type": "uint256"
        }
      ],
      "stateMutability": "view",
      "type": "function"
    },
    {
      "inputs": [
        {
          "internalType": "address",
          "name": "link",
          "type": "address"
        },
        {
          "internalType": "address",
          "name": "linkEthFeed",
          "type": "address"
        },
        {
          "internalType": "address",
          "name": "oracle",
          "type": "address"
        }
      ],
      "name": "initialize",
      "outputs": [],
      "stateMutability": "nonpayable",
      "type": "function"
    },
    {
      "inputs": [
        {
          "internalType": "address",
          "name": "sender",
          "type": "address"
        }
      ],
      "name": "isAuthorizedSender",
      "outputs": [
        {
          "internalType": "bool",
          "name": "",
          "type": "bool"
        }
      ],
      "stateMutability": "view",
      "type": "function"
    },
    {
      "inputs": [
        {
          "internalType": "address",
          "name": "",
          "type": "address"
        },
        {
          "internalType": "uint256",
          "name": "amount",
          "type": "uint256"
        },
        {
          "internalType": "bytes",
          "name": "data",
          "type": "bytes"
        }
      ],
      "name": "onTokenTransfer",
      "outputs": [],
      "stateMutability": "nonpayable",
      "type": "function"
    },
    {
      "inputs": [
        {
          "internalType": "address",
          "name": "recipient",
          "type": "address"
        },
        {
          "internalType": "uint96",
          "name": "amount",
          "type": "uint96"
        }
      ],
      "name": "oracleWithdraw",
      "outputs": [],
      "stateMutability": "nonpayable",
      "type": "function"
    },
    {
      "inputs": [],
      "name": "owner",
      "outputs": [
        {
          "internalType": "address",
          "name": "",
          "type": "address"
        }
      ],
      "stateMutability": "view",
      "type": "function"
    },
    {
      "inputs": [
        {
          "internalType": "uint64",
          "name": "subscriptionId",
          "type": "uint64"
        }
      ],
      "name": "ownerCancelSubscription",
      "outputs": [],
      "stateMutability": "nonpayable",
      "type": "function"
    },
    {
      "inputs": [],
      "name": "pause",
      "outputs": [],
      "stateMutability": "nonpayable",
      "type": "function"
    },
    {
      "inputs": [],
      "name": "paused",
      "outputs": [
        {
          "internalType": "bool",
          "name": "",
          "type": "bool"
        }
      ],
      "stateMutability": "view",
      "type": "function"
    },
    {
      "inputs": [
        {
          "internalType": "uint64",
          "name": "subscriptionId",
          "type": "uint64"
        }
      ],
      "name": "pendingRequestExists",
      "outputs": [
        {
          "internalType": "bool",
          "name": "",
          "type": "bool"
        }
      ],
      "stateMutability": "view",
      "type": "function"
    },
    {
      "inputs": [
        {
          "internalType": "address",
          "name": "to",
          "type": "address"
        }
      ],
      "name": "recoverFunds",
      "outputs": [],
      "stateMutability": "nonpayable",
      "type": "function"
    },
    {
      "inputs": [
        {
          "internalType": "uint64",
          "name": "subscriptionId",
          "type": "uint64"
        },
        {
          "internalType": "address",
          "name": "consumer",
          "type": "address"
        }
      ],
      "name": "removeConsumer",
      "outputs": [],
      "stateMutability": "nonpayable",
      "type": "function"
    },
    {
      "inputs": [
        {
          "internalType": "uint64",
          "name": "subscriptionId",
          "type": "uint64"
        },
        {
          "internalType": "address",
          "name": "newOwner",
          "type": "address"
        }
      ],
      "name": "requestSubscriptionOwnerTransfer",
      "outputs": [],
      "stateMutability": "nonpayable",
      "type": "function"
    },
    {
      "inputs": [
        {
          "internalType": "address[]",
          "name": "senders",
          "type": "address[]"
        }
      ],
      "name": "setAuthorizedSenders",
      "outputs": [],
      "stateMutability": "nonpayable",
      "type": "function"
    },
    {
      "inputs": [
        {
          "internalType": "uint32",
          "name": "maxGasLimit",
          "type": "uint32"
        },
        {
          "internalType": "uint32",
          "name": "stalenessSeconds",
          "type": "uint32"
        },
        {
          "internalType": "uint256",
          "name": "gasAfterPaymentCalculation",
          "type": "uint256"
        },
        {
          "internalType": "int256",
          "name": "fallbackWeiPerUnitLink",
          "type": "int256"
        },
        {
          "internalType": "uint32",
          "name": "gasOverhead",
          "type": "uint32"
        },
        {
          "internalType": "uint32",
          "name": "requestTimeoutSeconds",
          "type": "uint32"
        }
      ],
      "name": "setConfig",
      "outputs": [],
      "stateMutability": "nonpayable",
      "type": "function"
    },
    {
      "inputs": [
        {
          "internalType": "bytes",
          "name": "data",
          "type": "bytes"
        },
        {
          "components": [
            {
              "internalType": "uint64",
              "name": "subscriptionId",
              "type": "uint64"
            },
            {
              "internalType": "address",
              "name": "client",
              "type": "address"
            },
            {
              "internalType": "uint32",
              "name": "gasLimit",
              "type": "uint32"
            },
            {
              "internalType": "uint256",
              "name": "gasPrice",
              "type": "uint256"
            }
          ],
          "internalType": "struct FunctionsBillingRegistryInterface.RequestBilling",
          "name": "billing",
          "type": "tuple"
        }
      ],
      "name": "startBilling",
      "outputs": [
        {
          "internalType": "bytes32",
          "name": "",
          "type": "bytes32"
        }
      ],
      "stateMutability": "nonpayable",
      "type": "function"
    },
    {
      "inputs": [
        {
          "internalType": "bytes32[]",
          "name": "requestIdsToTimeout",
          "type": "bytes32[]"
        }
      ],
      "name": "timeoutRequests",
      "outputs": [],
      "stateMutability": "nonpayable",
      "type": "function"
    },
    {
      "inputs": [
        {
          "internalType": "address",
          "name": "to",
          "type": "address"
        }
      ],
      "name": "transferOwnership",
      "outputs": [],
      "stateMutability": "nonpayable",
      "type": "function"
    },
    {
      "inputs": [],
      "name": "unpause",
      "outputs": [],
      "stateMutability": "nonpayable",
      "type": "function"
    }
  ],
  "bytecode": "0x6080806040523461001657613ff9908161001c8239f35b600080fdfe6080604052600436101561001257600080fd5b60003560e01c80620122911461023657806302bcc5b61461023157806304c357cb1461022c5780630739e4f11461022757806312b58349146102225780632408afaa1461021d57806327923e411461021857806333652e3e146102135780633f4ba83a1461020e5780635c975abb1461020957806364d51a2a1461020457806366316d8d146101ff578063665871ec146101fa5780637341c10c146101f557806379ba5097146101f057806382359740146101eb5780638456cb59146101e65780638da5cb5b146101e15780639f87fad7146101dc578063a1a6d041146101d7578063a21a23e4146101d2578063a47c7696146101cd578063a4c0ed36146101c8578063a9d03c05146101c3578063b2a489ff146101be578063c0c53b8b146101b9578063c3f909d4146101b4578063d7ae1d30146101af578063e72f6e30146101aa578063e82ad7d4146101a5578063ee56997b146101a0578063f1e14a211461019b578063f2fde38b146101965763fa00763a1461019157600080fd5b612557565b6124cd565b61247f565b61233c565b61230b565b61217b565b611f83565b611f19565b611e0f565b611db2565b6119fb565b611836565b611783565b61164a565b611549565b6112dc565b6112b2565b611258565b61114c565b611090565b611009565b610dff565b610bed565b610bc0565b610b9d565b610b00565b610ad9565b6109ae565b610970565b610946565b6108b5565b610625565b6102e9565b610278565b90815180825260208080930193019160005b82811061025b575050505090565b83516001600160a01b03168552938101939281019260010161024d565b346102bb5760003660031901126102bb5763ffffffff6073541661029a6127ca565b906102b7604051928392835260406020840152604083019061023b565b0390f35b600080fd5b6001600160401b038116036102bb57565b908160209103126102bb57356102e6816102c0565b90565b346102bb576020806003193601126102bb5760043590610308826102c0565b610310612898565b6001600160401b038216906000828152606d82526040906001600160a01b0382822054169384156105de5760ff607354851c166105cd5761036c610367876001600160401b0316600052606d602052604060002090565b613c64565b9461039a61038d886001600160401b0316600052606e602052604060002090565b546001600160601b031690565b9084849701965b8751805182101561042057906104166104058b6103ed6103d46103c78661041b98613ae1565b516001600160a01b031690565b6001600160a01b0316600052606c602052604060002090565b906001600160401b0316600052602052604060002090565b805467ffffffffffffffff19169055565b6125ab565b6103a1565b505085846104668a61044d610448826001600160401b0316600052606d602052604060002090565b613c9e565b6001600160401b0316600052606e602052604060002090565b556104cf61048984610484606f546001600160601b039060401c1690565b612d3b565b7fffffffffffffffffffffffff000000000000000000000000ffffffffffffffff73ffffffffffffffffffffffff0000000000000000606f549260401b16911617606f55565b6104f06104e46069546001600160a01b031690565b6001600160a01b031690565b865163a9059cbb60e01b81526001600160a01b03841660048201526001600160601b0385166024820152908290829060449082908a905af19182156105c857869261059b575b50501561058a5793516001600160a01b0390941684526001600160601b0316602084015290917fe8ed5b475a5b5987aa9165e8731bb78043f39eee32ec5a1169a89e27fcd498159080604081015b0390a280f35b8451631e9acf1760e31b8152600490fd5b6105ba9250803d106105c1575b6105b281836107af565b810190612b96565b8680610536565b503d6105a8565b612b54565b825163769dd35360e11b8152600490fd5b8251630fb532db60e11b8152600490fd5b6001600160a01b038116036102bb57565b60409060031901126102bb57600435610618816102c0565b906024356102e6816105ef565b346102bb576001600160401b0361063b36610600565b9116600091818352606d6020526001600160a01b03604091818386205416801561072057803303610709575060ff60735460201c166105cd5761067c612af4565b838552606d60205260018386200191808354169082160361069b578480f35b7f69436ea6df009049404f564eff6622cd00522b0bd6a89efd9e52a355c4a879be926106e0826106fe94906001600160a01b03166001600160a01b0319825416179055565b513381526001600160a01b0390911660208201529081906040820190565b0390a2388080808480f35b602490845190636c51fda960e11b82526004820152fd5b8351630fb532db60e11b8152600490fd5b9181601f840112156102bb578235916001600160401b0383116102bb57602083818601950101116102bb57565b634e487b7160e01b600052604160045260246000fd5b60c081019081106001600160401b0382111761078f57604052565b61075e565b606081019081106001600160401b0382111761078f57604052565b90601f801991011681019081106001600160401b0382111761078f57604052565b6040519061012082018281106001600160401b0382111761078f57604052565b604051906107fd82610794565b565b60405190604082018281106001600160401b0382111761078f57604052565b8060a312156102bb57604051906103e082018281106001600160401b0382111761078f57604052816104649182116102bb576084905b8282106108615750505090565b602080918335610870816105ef565b815201910190610854565b610464359060ff821682036102bb57565b91906020830192600382101561089f5752565b634e487b7160e01b600052602160045260246000fd5b346102bb576104c03660031901126102bb576001600160401b036024358181116102bb576108e7903690600401610731565b6044929192359182116102bb576102b79261090961093a933690600401610731565b606435610915816105ef565b61091e3661081e565b9161092761087b565b936104a435966104843596600435613056565b6040519182918261088c565b346102bb5760003660031901126102bb576020606f546001600160601b036040519160401c168152f35b346102bb5760003660031901126102bb576102b761098c6127ca565b60405191829160208352602083019061023b565b63ffffffff8116036102bb57565b346102bb5760c03660031901126102bb576004356109cb816109a0565b6024356109d7816109a0565b606435916084356044356109ea826109a0565b60a4356109f6816109a0565b6109fe612898565b6000861315610ac05794610abb9291610a837f24d3d934adfef9b9029d6ffa463c07d0139ed47d26ee23506f85ece2879d2bd497610a7e60405191610a4283610774565b63ffffffff891683526000602084015263ffffffff8a1660408401526060830185905263ffffffff8716608084015263ffffffff1660a0830152565b612a5c565b610a8c82607255565b6040805163ffffffff9687168152968616602088015286015260608501529091166080830152819060a0820190565b0390a1005b6040516321ea67b360e11b815260048101879052602490fd5b346102bb5760003660031901126102bb5760206001600160401b03606f5416604051908152f35b346102bb5760003660031901126102bb57610b19612898565b60345460ff811615610b585760ff19166034557f5db9ee0a495bf2e6ff9c91a7834c1ba4fdd244a5e8aa4e537bd38aeae4b073aa6020604051338152a1005b60405162461bcd60e51b815260206004820152601460248201527f5061757361626c653a206e6f74207061757365640000000000000000000000006044820152606490fd5b346102bb5760003660031901126102bb57602060ff603454166040519015158152f35b346102bb5760003660031901126102bb57602060405160648152f35b6001600160601b038116036102bb57565b346102bb5760403660031901126102bb57600435610c0a816105ef565b60243590610c1782610bdc565b60ff60735460201c16610da157610c2c612af4565b6001600160601b0380831615610d79575b610c5d61038d336001600160a01b03166000526070602052604060002090565b838216911610610d4957610d2e91602091610cbd610c8e336001600160a01b03166000526070602052604060002090565b610ca38461048483546001600160601b031690565b6001600160601b03166001600160601b0319825416179055565b610cda61048983610484606f546001600160601b039060401c1690565b610cef6104e46069546001600160a01b031690565b60405163a9059cbb60e01b81526001600160a01b0390921660048301526001600160601b03909216602482015292839190829060009082906044820190565b03925af19081156105c857600091610d5b575b5015610d4957005b604051631e9acf1760e31b8152600490fd5b610d73915060203d81116105c1576105b281836107af565b38610d41565b9150610d9b61038d336001600160a01b03166000526070602052604060002090565b91610c3d565b60405163769dd35360e11b8152600490fd5b9060206003198301126102bb576004356001600160401b03928382116102bb57806023830112156102bb5781600401359384116102bb5760248460051b830101116102bb576024019190565b346102bb57610e0d36610db3565b90610e16612af4565b6000915b808310610e2357005b610e2e83828461265b565b3592610e4c610e47856000526071602052604060002090565b613085565b93610e8d6104e4610e80610e6788516001600160401b031690565b6001600160401b0316600052606d602052604060002090565b546001600160a01b031690565b3303610fc45784610100610ed69495960151610ec94291610ec3610eba60755463ffffffff9060201c1690565b63ffffffff1690565b90612bc3565b11610edd575b50506125ab565b9190610e1a565b80610f22610f0c61044d610efe60e0610f639601516001600160601b031690565b93516001600160401b031690565b9161048483546001600160601b039060601c1690565b77ffffffffffffffffffffffff0000000000000000000000001977ffffffffffffffffffffffff00000000000000000000000083549260601b169116179055565b610f98610f7a826000526071602052604060002090565b60046000918281558260018201558260028201558260038201550155565b7ff1ca1e9147be737b04a2b018a79405f687a97de8dd8a2559bbe62357343af414600080a23880610ecf565b611005610fde610e80610e6788516001600160401b031690565b604051636c51fda960e11b81526001600160a01b0390911660048201529081906024820190565b0390fd5b346102bb5761101736610600565b6001600160401b038216600052606d6020526001600160a01b0360406000205416801561107e57803303611066575060ff60735460201c16610da1576110649161105f612af4565b613b3d565b005b60249060405190636c51fda960e11b82526004820152fd5b604051630fb532db60e11b8152600490fd5b346102bb57600080600319360112611149576001600160a01b038060015416330361113757815460101c166110fe3375ffffffffffffffffffffffffffffffffffffffff00001975ffffffffffffffffffffffffffffffffffffffff00006000549260101b16911617600055565b6001600160a01b03196001541660015533907f8be0079c531659141344cd1fd0a4f28419497f9722a3daafe3b4186f6b6457e08380a380f35b604051630f22ca5f60e01b8152600490fd5b80fd5b346102bb576020806003193601126102bb576004359061116b826102c0565b60ff607354821c16610da15761117f612af4565b6111946104e4606b546001600160a01b031690565b604051634b4fa0c160e01b815291908183600481845afa9283156105c857600093611239575b50826111e2575b50506111d05761106490613950565b604051630101292160e31b8152600490fd5b604051637d003b1d60e11b81523360048201529192508290829060249082905afa9182156105c85760009261121c575b50501538806111c1565b6112329250803d106105c1576105b281836107af565b3880611212565b611251919350823d84116105c1576105b281836107af565b91386111ba565b346102bb5760003660031901126102bb57611271612898565b611279612af4565b600160ff1960345416176034557f62e78cea01bee320cd4e420270b5ea74000d11b0c9f74754ebdbfc544b05a2586020604051338152a1005b346102bb5760003660031901126102bb5760206001600160a01b0360005460101c16604051908152f35b346102bb576112ea36610600565b6001600160401b03908183169081600052606d6020526001600160a01b03926040908482600020541680156105de57803303611532575060ff60735460201c1661152157611336612af4565b61136761135a876103ed866001600160a01b0316600052606c602052604060002090565b546001600160401b031690565b16156114f157600261139681611390886001600160401b0316600052606d602052604060002090565b01612840565b6113a08151612b7a565b9060005b81518110156114ba576113ba6103c78284613ae1565b8816868916146113d2576113cd906125ab565b6113a4565b7f182bff9831466789164ca77075fffd84916d35a8180ba73c27e45634549b445b975061149d9361145d6114809261143d6114186103c7610405986114b59d9f98613ae1565b9184611437886001600160401b0316600052606d602052604060002090565b01612643565b90919082549060031b916001600160a01b03809116831b921b1916179055565b61147a836001600160401b0316600052606d602052604060002090565b01613b0b565b6103ed856001600160a01b0316600052606c602052604060002090565b516001600160a01b0390911681529081906020820190565b0390a2005b505050507f182bff9831466789164ca77075fffd84916d35a8180ba73c27e45634549b445b935061149d6104056114b59496611480565b51637800cff360e11b81526001600160401b03851660048201526001600160a01b03919091166024820152604490fd5b815163769dd35360e11b8152600490fd5b602490835190636c51fda960e11b82526004820152fd5b346102bb5760803660031901126102bb57600435611566816109a0565b6044359061157382610bdc565b6064359061158082610bdc565b611588613655565b60008113156116325763ffffffff90816075541691607454830180931161162d576115bf6115d4936115cf926115e8961690612bc3565b6115ca602435612681565b612699565b612be6565b926001600160601b03808094169116612bc3565b6115f181612b60565b831161161b5761160661161291602094612bc3565b6001600160601b031690565b60405191168152f35b60405163e80fa38160e01b8152600490fd5b612595565b602490604051906321ea67b360e11b82526004820152fd5b346102bb5760003660031901126102bb5760735460ff602091821c16610da157611672612af4565b6116876104e4606b546001600160a01b031690565b604051634b4fa0c160e01b815291908183600481845afa9283156105c857600093611736575b50826116df575b50506111d0576102b76116c5613864565b6040516001600160401b0390911681529081906020820190565b604051637d003b1d60e11b81523360048201529192508290829060249082905afa9182156105c857600092611719575b50501538806116b4565b61172f9250803d106105c1576105b281836107af565b388061170f565b61174e919350823d84116105c1576105b281836107af565b91386116ad565b6001600160a01b036102e694936001600160601b03606094168352166020820152816040820152019061023b565b346102bb5760203660031901126102bb576004356117a0816102c0565b6001600160401b03811680600052606d6020526001600160a01b03604060002054161561107e57600052606e6020526117e560406000206001600160601b0390541690565b6102b761182a6002611390611810610e80876001600160401b0316600052606d602052604060002090565b956001600160401b0316600052606d602052604060002090565b60405193849384611755565b346102bb5760603660031901126102bb57600461185381356105ef565b6024356001600160401b036044358181116102bb576118759036908501610731565b9060ff60735460201c166119ea5761188b612af4565b6118a36104e46104e46069546001600160a01b031690565b33036119d957602082036119c8576118bd918101906102d1565b6001600160a01b036118e5610e80836001600160401b0316600052606d602052604060002090565b16156119b75790816114b561199c61193761160661038d7fd39ec07f4e209f627a4c427971473820dc129761ba28de8906bd56f57101d4f8976001600160401b0316600052606e602052604060002090565b956119966104896001600160601b038316611982611968886001600160401b0316600052606e602052604060002090565b610ca38361197d83546001600160601b031690565b612f28565b606f5460401c6001600160601b0316612f28565b86612bc3565b60405193849316958360209093929193604081019481520152565b604051630fb532db60e11b81528490fd5b604051638129bbcd60e01b81528590fd5b6040516344b0e3c360e01b81528590fd5b60405163769dd35360e11b81528590fd5b346102bb5760a03660031901126102bb576001600160401b03600480358281116102bb57611a2c9036908301610731565b929060803660231901126102bb57611a42612fe3565b60735460ff8160201c16611da157611a58612af4565b6001600160a01b03611a6e610e80610e67612c82565b16156119b757611aa461135a611a856103d461266b565b611a8d612c82565b6001600160401b0316600052602052604060002090565b92831615611d5757611ab4612c8e565b63ffffffff8092169182911611611d20575060405163f1e14a2160e01b8152929360209184918291611ae99190838901612cd0565b0381335afa9182156105c857600092611cf0575b50611b073661241b565b50611b10612c8e565b90611b1f836084358094612bf5565b93611b55611b3161038d61044d612c82565b611b4f611b3f61044d612c82565b5460601c6001600160601b031690565b90612d3b565b6001600160601b03808716911610611ce1576102b7611c34611cd187877f99f7f4e65b4b9fbabd4e357c47ed3099b36e57ecd3a43e84662f34c207d0ebe4611ca589611c99611ba38b612d54565b95611bbf87611bb061266b565b611bb8612c82565b9033613001565b988996611bca612c82565b94611c19611bd661266b565b611c0c611be1612c8e565b91611bfc611bed6107d0565b6001600160401b03909b168b52565b6001600160a01b031660208a0152565b63ffffffff166040880152565b60608601523360808601526001600160601b031660a0850152565b6702c68af0bb14000060c08401526001600160601b03811660e084015242610100840152611c7583611c70886000526071602052604060002090565b612d6c565b610f22611c8361044d612c82565b9161197d83546001600160601b039060601c1690565b60405191829182612f43565b0390a2611cb6611a856103d461266b565b906001600160401b03166001600160401b0319825416179055565b6040519081529081906020820190565b604051631e9acf1760e31b8152fd5b611d1291925060203d8111611d19575b611d0a81836107af565b810190612c9a565b9038611afd565b503d611d00565b83611005611d2c612c8e565b60408051637aebf00f60e11b815263ffffffff92831694810194855294909116602084015283920190565b83611d60612c82565b90611005611d6c61266b565b60408051637800cff360e11b81526001600160401b039095169385019384526001600160a01b03909116602084015283920190565b60405163769dd35360e11b81528490fd5b346102bb5760203660031901126102bb576001600160401b03600435611dd7816102c0565b1680600052606d6020526001600160a01b0380604060002054161561107e57602091600052606d825260406000205416604051908152f35b346102bb5760603660031901126102bb57600435611e2c816105ef565b611e89602435611e3b816105ef565b60443590611e48826105ef565b60005493611e6d60ff8660081c161580968197611f0b575b8115611eeb575b506128c1565b84611e80600160ff196000541617600055565b611ed257612933565b611e8f57005b611e9f61ff001960005416600055565b604051600181527f7f26b83ff96e1f2b6a682f133852f6798a09c465da95921460cefb3847402498908060208101610abb565b611ee661010061ff00196000541617600055565b612933565b303b15915081611efd575b5038611e67565b6001915060ff161438611ef6565b600160ff8216109150611e60565b346102bb5760003660031901126102bb5760e06073546074546072549063ffffffff918260755416906001600160a01b0392836069541693606a54169460405196818116885260281c16602087015260408601526060850152608084015260a083015260c0820152f35b346102bb57611f9136610600565b906001600160401b038116906000828152606d6020526040906001600160a01b03828220541680156105de57803303611532575060ff60735460201c1661152157611fda612af4565b611fe383613cde565b61216a57612007610367846001600160401b0316600052606d602052604060002090565b9361202861038d856001600160401b0316600052606e602052604060002090565b83839601955b865180518210156120595790610416610405886103ed6103d46103c78661205498613ae1565b61202e565b505086836120818761044d610448826001600160401b0316600052606d602052604060002090565b5561209f61048983610484606f546001600160601b039060401c1690565b6120b46104e46069546001600160a01b031690565b855163a9059cbb60e01b81526001600160a01b03831660048201526001600160601b0384166024820152906020908290604490829089905af19081156105c857859161214c575b501561058a5793516001600160a01b0390941684526001600160601b0316602084015290917fe8ed5b475a5b5987aa9165e8731bb78043f39eee32ec5a1169a89e27fcd49815908060408101610584565b612164915060203d81116105c1576105b281836107af565b866120fb565b8151631685ecdd60e31b8152600490fd5b346102bb576020806003193601126102bb576004359061219a826105ef565b6121a2612898565b6121b76104e46069546001600160a01b031690565b6040516370a0823160e01b81523060048201529092908281602481875afa9081156105c8576000916122de575b50606f546121fd9060401c6001600160601b0316611606565b8181116122bc5781811061220d57005b61221691612b89565b60405163a9059cbb60e01b81526001600160a01b038316600482015260248101829052939092908190859060449082906000905af19384156105c8577f59bfc682b673f8cbf945f1e454df9334834abf7dfe7f92237ca29ecb9b4366009461229e575b5050604080516001600160a01b03909216825260208201929092529081908101610abb565b816122b492903d106105c1576105b281836107af565b503880612279565b6040516354ced18160e11b815260048101919091526024810191909152604490fd5b6122fe9150833d8511612304575b6122f681836107af565b810190612b45565b386121e4565b503d6122ec565b346102bb5760203660031901126102bb57602061233260043561232d816102c0565b613cde565b6040519015158152f35b346102bb5761234a36610db3565b90612353612898565b81156124095760005b60685481101561239c578061239161238c612379612397946125d0565b90546001600160a01b039160031b1c1690565b613ebf565b506125ab565b61235c565b5060005b8281106123e55750816123d47ff263cfb3e4298332e776194610cf9fdc09ccb3ada8b9aa39764d882e11fbf0a093836126ac565b610abb60405192839233918461276c565b806123916123ff6123fa61240494878761265b565b612677565b613e36565b6123a0565b6040516375158c3b60e01b8152600490fd5b60809060231901126102bb5760405190608082018281106001600160401b0382111761078f5760405281602435612451816102c0565b815260443561245f816105ef565b6020820152606435612470816109a0565b60408201526060608435910152565b346102bb5760a03660031901126102bb576004356001600160401b0381116102bb576124af903690600401610731565b50506124ba3661241b565b5060206040516702c68af0bb1400008152f35b346102bb5760203660031901126102bb576004356124ea816105ef565b6124f2612898565b6001600160a01b038091169033821461254557816001600160a01b0319600154161760015560005460101c167fed8889f560326eb138920d842192f0eb3dd22b4f139c87a2c57538e05bae1278600080a3005b60405163282010c360e01b8152600490fd5b346102bb5760203660031901126102bb5760206123326001600160a01b03600435612581816105ef565b166000526067602052604060002054151590565b634e487b7160e01b600052601160045260246000fd5b600019811461162d5760010190565b634e487b7160e01b600052603260045260246000fd5b6068548110156126075760686000527fa2153420d844928b4421650203c77babc8b33d7f2e7b450e2966db0c220977530190600090565b6125ba565b6066548110156126075760666000527f46501879b8ca8525e8c2fd519e2fbfcfa2ebea26501294aa02cbfcfb12e943540190600090565b80548210156126075760005260206000200190600090565b91908110156126075760051b0190565b6044356102e6816105ef565b356102e6816105ef565b90670de0b6b3a7640000918083029283040361162d57565b8181029291811591840414171561162d57565b6001600160401b03821161078f5768010000000000000000821161078f576068548260685580831061272b575b50606860005260005b8281106126ee57505050565b60019060208335936126ff856105ef565b0192817fa2153420d844928b4421650203c77babc8b33d7f2e7b450e2966db0c220977530155016126e2565b827fa2153420d844928b4421650203c77babc8b33d7f2e7b450e2966db0c2209775391820191015b81811061276057506126d9565b60008155600101612753565b919392938060408401604085525260608301919060005b81811061279f575050506001600160a01b036020919416910152565b9091926001906001600160a01b0385356127b8816105ef565b16815260209081019401929101612783565b60405190606854808352826020918282019060686000527fa2153420d844928b4421650203c77babc8b33d7f2e7b450e2966db0c22097753936000905b82821061281d575050506107fd925003836107af565b85546001600160a01b031684526001958601958895509381019390910190612807565b9060405191828154918282526020928383019160005283600020936000905b828210612875575050506107fd925003836107af565b85546001600160a01b03168452600195860195889550938101939091019061285f565b6001600160a01b0360005460101c1633036128af57565b6040516315ae3a6f60e11b8152600490fd5b156128c857565b60405162461bcd60e51b815260206004820152602e60248201527f496e697469616c697a61626c653a20636f6e747261637420697320616c72656160448201527f647920696e697469616c697a65640000000000000000000000000000000000006064820152608490fd5b9161296160ff60005460081c16612949816129ea565b612952816129ea565b60ff19603454166034556129ea565b33156129d8576000805475ffffffffffffffffffffffffffffffffffffffff000019163360101b75ffffffffffffffffffffffffffffffffffffffff0000161790556001600160a01b038092816001600160a01b031995168560695416176069551683606a541617606a551690606b541617606b55565b604051635b5a8afd60e11b8152600490fd5b156129f157565b60405162461bcd60e51b815260206004820152602b60248201527f496e697469616c697a61626c653a20636f6e7472616374206973206e6f74206960448201527f6e697469616c697a696e670000000000000000000000000000000000000000006064820152608490fd5b612ad160a06107fd9263ffffffff808251166073549064ff000000006020850151151560201b169068ffffffff0000000000604086015160281b169268ffffffffffffffffff1916171717607355606082015160745560808201511663ffffffff196075541617607555015163ffffffff1690565b67ffffffff000000006075549160201b169067ffffffff00000000191617607555565b60ff60345416612b0057565b60405162461bcd60e51b815260206004820152601060248201527f5061757361626c653a20706175736564000000000000000000000000000000006044820152606490fd5b908160209103126102bb575190565b6040513d6000823e3d90fd5b906b033b2e3c9fd0803ce800000091820391821161162d57565b60001981019190821161162d57565b9190820391821161162d57565b908160209103126102bb575180151581036102bb5790565b906702c68af0bb140000820180921161162d57565b9190820180921161162d57565b634e487b7160e01b600052601260045260246000fd5b8115612bf0570490565b612bd0565b90612bfe613655565b916000831315612c695763ffffffff806075541691607454830180931161162d5716810180911161162d57612c4c926115cf612c45926115ca6001600160601b0395612681565b9216612bae565b90612c5682612b60565b811161161b576102e69161160691612bc3565b6040516321ea67b360e11b815260048101849052602490fd5b6024356102e6816102c0565b6064356102e6816109a0565b908160209103126102bb57516102e681610bdc565b908060209392818452848401376000828201840152601f01601f1916010190565b929190612ce59160a0855260a0850191612caf565b916001600160401b03602435612cfa816102c0565b1660208201526001600160a01b03604435612d14816105ef565b16604082015263ffffffff606435612d2b816109a0565b1660608201526080608435910152565b6001600160601b03918216908216039190821161162d57565b9060016001600160401b038093160191821161162d57565b90610100600491612da4612d8782516001600160401b031690565b855467ffffffffffffffff19166001600160401b03909116178555565b612e08612dbb60208301516001600160a01b031690565b85547fffffffff0000000000000000000000000000000000000000ffffffffffffffff1660409190911b7bffffffffffffffffffffffffffffffffffffffff000000000000000016178555565b612e69612e1c604083015163ffffffff1690565b85547bffffffffffffffffffffffffffffffffffffffffffffffffffffffff1660e09190911b7fffffffff0000000000000000000000000000000000000000000000000000000016178555565b60608101516001850155612ecf60028501612ead612e9160808501516001600160a01b031690565b82906001600160a01b03166001600160a01b0319825416179055565b60a08381015182546001600160a01b0316911b6001600160a01b031916179055565b612f2160038501612f0e612eed60c08501516001600160601b031690565b82546bffffffffffffffffffffffff19166001600160601b03909116178255565b60e08301516001600160601b0316610f22565b0151910155565b9190916001600160601b038080941691160191821161162d57565b81516001600160401b031681526020808301516001600160a01b03169082015260408083015163ffffffff16908201526101208101929160608101516060830152612f9e608082015160808401906001600160a01b03169052565b60a0818101516001600160601b03169083015260c0818101516001600160601b03169083015260e0818101516001600160601b03169083015261010080910151910152565b612ffa336000526067602052604060002054151590565b156111d057565b919290926040519260208401946001600160a01b0380921686521660408401526001600160401b03918280921660608501521660808301526080825260a08201908282109082111761078f5760405251902090565b989796959493929190613067612fe3565b60ff60735460201c16610da1576102e699613080612af4565b613162565b9060046130906107d0565b83546001600160401b03811682529093906130fa906001600160a01b03604082901c81166020880152906130c89060e01c6040880152565b600183015460608701526130ef600284015491821660808801906001600160a01b03169052565b60a090811c90860152565b60038101546001600160601b0380821660c087015260609190911c1660e08501520154610100830152565b93916102e69593613143928652606060208701526060860191612caf565b926040818503910152612caf565b90601f8110156126075760051b0190565b9699989795949293909193613184610e47896000526071602052604060002090565b946001600160a01b036131a160808801516001600160a01b031690565b16156134c757886131eb61323e9461328a96946131f9946131cf610f7a866000526071602052604060002090565b604051630ca7617560e01b602082015296879560248701613125565b03601f1981018352826107af565b61321364010000000064ff00000000196073541617607355565b604085015163ffffffff1663ffffffff61323760208801516001600160a01b031690565b91166134d7565b9661325264ff000000001960735416607355565b6074549561326a60a08601516001600160601b031690565b968b60c08701986132828a516001600160601b031690565b923a95613546565b936132a261038d61044d85516001600160401b031690565b9360408601946001600160601b036132c461160688516001600160601b031690565b911610610d49576133086132df86516001600160601b031690565b610ca36132f661044d88516001600160401b031690565b9161048483546001600160601b031690565b60005b60ff8b168110613493575050869798509261343c61342e613420613420613481966133e57fc8dc973332de19a5f71b6026983110e9c2e04b0c98b87eb771ccb78607fd114f9b9c976133b261336b6133cb9d9c516001600160601b031690565b610ca36133a06133876000546001600160a01b039060101c1690565b6001600160a01b03166000526070602052604060002090565b9161197d83546001600160601b031690565b610ca36133a060208d019d8e516001600160601b031690565b926001600160a01b03166000526070602052604060002090565b6134136133fc60e08301516001600160601b031690565b610f22610f0c61044d85516001600160401b031690565b516001600160401b031690565b96516001600160601b031690565b91516001600160601b031690565b906040519586958693608093919695926001600160401b0360a08701981686526001600160601b03928380921660208801521660408601521660608401521515910152565b0390a21561348e57600090565b600190565b6134c060ff916104166134ad8a516001600160601b031690565b610ca36133a06133876103c7868a613151565b905061330b565b5060029a50505050505050505050565b915a61138881106102bb576113871980820160061c909103018310156102bb57813b156102bb5760009283809360208451940192f190565b6040519061351c82610794565b60006040838281528260208201520152565b906001600160601b03809116918215612bf057160490565b9095929491939561355561350f565b5061355e613655565b9360008513156136255761358f6115cf9361358a61359c97969461358461359695612681565b95612bc3565b612bc3565b5a90612b89565b90612699565b906135b36001600160601b03809516858316612bc3565b936135bd85612b60565b831161161b576135e96135e46135dd6136159460ff6102e698169061352e565b9685612bc3565b613db7565b926136046135f56107f0565b6001600160601b039097168752565b166001600160601b03166020850152565b6001600160601b03166040830152565b6040516321ea67b360e11b815260048101869052602490fd5b519069ffffffffffffffffffff821682036102bb57565b600463ffffffff60735460281c168015159060a06001600160a01b03606a541660405194858092633fabe5a360e21b82525afa9283156105c85760009081946136c5575b5092826136b1575b50506136aa5790565b5060725490565b6136bd91925042612b89565b1138806136a1565b935060a0843d821161370f575b816136df60a093836107af565b8101031261114957506136f18361363e565b50602083015161370860806060860151950161363e565b5038613699565b3d91506136d2565b815181546bffffffffffffffffffffffff19166001600160601b039182161782556107fd9260200151825477ffffffffffffffffffffffff0000000000000000000000001916911660601b77ffffffffffffffffffffffff00000000000000000000000016179055565b815181546001600160a01b0319166001600160a01b03918216178255909160209160406002828585015116956137d1600197888301906001600160a01b03166001600160a01b0319825416179055565b01920151928351936001600160401b03851161078f5768010000000000000000851161078f5781908454868655808710613837575b500192600052806000209160005b8581106138245750505050505050565b8451821684820155938201938601613814565b6000868152888885832093840193015b83811061385657505050613806565b8281558695508a9101613847565b606f546001600160401b0380821681811461162d5760018291011680926001600160401b03191617606f5560405160208101918183109083111761078f5761391f91604052600081526138e56138b86107ff565b60008152600060208201526138e0856001600160401b0316600052606e602052604060002090565b613717565b6138ed6107f0565b3381529060006020830152604082015261391a836001600160401b0316600052606d602052604060002090565b613781565b60405133815281907f464722b4166576d3dcbba877b999bc35cf911f4eaf434b7eba68fa113951d0bf90602090a290565b6001600160a01b0380613979610e80846001600160401b0316600052606d602052604060002090565b161561107e576139af60016139a1846001600160401b0316600052606d602052604060002090565b01546001600160a01b031690565b33911603613a95577f6f1dc65165ffffedfd8e507b4a0f1fcfdada045ed11f6c26ba27cedfe87802f06001600160401b03613a00610e80846001600160401b0316600052606d602052604060002090565b92613a3d33613a22836001600160401b0316600052606d602052604060002090565b906001600160a01b03166001600160a01b0319825416179055565b613a706001613a5f836001600160401b0316600052606d602052604060002090565b016001600160a01b03198154169055565b604080516001600160a01b03909516855233602086015291169290819081015b0390a2565b613aba60016139a1611005936001600160401b0316600052606d602052604060002090565b60405163d084e97560e01b81526001600160a01b0390911660048201529081906024820190565b80518210156126075760209160051b010190565b634e487b7160e01b600052603160045260246000fd5b80548015613b38576000190190613b228282612643565b6001600160a01b0382549160031b1b1916905555565b613af5565b60646002613b5e836001600160401b0316600052606d602052604060002090565b015414613c52576001600160401b0380613b8f836103ed866001600160a01b0316600052606c602052604060002090565b5416613c4d57613bb6826103ed856001600160a01b0316600052606c602052604060002090565b60016001600160401b03198254161790556002613be6836001600160401b0316600052606d602052604060002090565b01918254926801000000000000000084101561078f578461143d85613c319360017f43dc749a04ac8fb825cbd514f7c0e13f13bc6f2ee66043b76629d51776cff8e098018155612643565b6040516001600160a01b03909416845216918060208101613a90565b505050565b6040516305a48e0f60e01b8152600490fd5b90604051613c7181610794565b6040613c99600283956001600160a01b03808254168652600182015416602086015201612840565b910152565b600080825560026001928284820155019081549181815582613cc1575b50505050565b815260208120918201915b82811015613cbb578181558301613ccc565b6002613d0181611390846001600160401b0316600052606d602052604060002090565b613d096127ca565b926000915b8051831015613dad5760005b84868051831015613d9a57613d7d916139a1613d6d888888613d6761135a836103ed6103d46103c7613d538f6103c7906104e49f613ae1565b98613d616103c7828a613ae1565b97613ae1565b92613001565b6000526071602052604060002090565b613d8f57613d8a906125ab565b613d1a565b505050505050600190565b50505091613da7906125ab565b91613d0e565b5050505050600090565b6001600160601b0390818111613dcb571690565b60405162461bcd60e51b815260206004820152602660248201527f53616665436173743a2076616c756520646f65736e27742066697420696e203960448201527f36206269747300000000000000000000000000000000000000000000000000006064820152608490fd5b6001600160a01b036102e6911680600052606760205260406000205415600014613eb9576066546801000000000000000081101561078f5760018101806066558110156126075781907f46501879b8ca8525e8c2fd519e2fbfcfa2ebea26501294aa02cbfcfb12e943540155606654906000526067602052604060002055600190565b50600090565b6001600160a01b036102e69116613f17565b6066548015613b385760001981019080821015612607577f46501879b8ca8525e8c2fd519e2fbfcfa2ebea26501294aa02cbfcfb12e94353600091606683520155606655565b6000818152606760205260409020548015613fbc57600019918183019180831161162d5760665493840193841161162d578383613f729460009603613f78575b505050613f62613ed1565b6000526067602052604060002090565b55600190565b613f62613f9a91613f8b613fb39461260c565b90549060031b1c92839161260c565b90919082549060031b91821b91600019901b1916179055565b55388080613f57565b505060009056fea26469706673582212203ed76c85b850a75a0d7aa72d4c79e6beef8b8749e92982e1421a6b0e2ecac46f64736f6c63430008120033",
  "linkReferences": {},
  "deployedLinkReferences": {}
}