{
  "_format": "hh-sol-artifact-1",
  "contractName": "FunctionsManager",
  "sourceName": "contracts/FunctionsManager.sol",
  "abi": [
    {
      "inputs": [
        {
          "internalType": "address",
          "name": "_link",
          "type": "address"
        },
        {
          "internalType": "address",
          "name": "_billingRegistryProxy",
          "type": "address"
        },
        {
          "internalType": "address",
          "name": "_oracleProxy",
          "type": "address"
        },
        {
          "internalType": "uint32",
          "name": "_feeManagerCut",
          "type": "uint32"
        },
        {
          "internalType": "uint96",
          "name": "_minimumSubscriptionBalance",
          "type": "uint96"
        },
        {
          "internalType": "uint32",
          "name": "_maxGasLimit",
          "type": "uint32"
        }
      ],
      "stateMutability": "nonpayable",
      "type": "constructor"
    },
    {
      "inputs": [],
      "name": "EmptyArgs",
      "type": "error"
    },
    {
      "inputs": [],
      "name": "EmptySecrets",
      "type": "error"
    },
    {
      "inputs": [],
      "name": "EmptySource",
      "type": "error"
    },
    {
      "inputs": [],
      "name": "NoInlineSecrets",
      "type": "error"
    },
    {
      "inputs": [],
      "name": "RequestIsAlreadyPending",
      "type": "error"
    },
    {
      "inputs": [],
      "name": "RequestIsNotPending",
      "type": "error"
    },
    {
      "inputs": [],
      "name": "SenderIsNotRegistry",
      "type": "error"
    },
    {
      "anonymous": false,
      "inputs": [
        {
          "indexed": false,
          "internalType": "uint32",
          "name": "newFeeManagerCut",
          "type": "uint32"
        }
      ],
      "name": "FeeManagerCutUpdated",
      "type": "event"
    },
    {
      "anonymous": false,
      "inputs": [
        {
          "indexed": false,
          "internalType": "bytes32",
          "name": "requestId",
          "type": "bytes32"
        },
        {
          "indexed": false,
          "internalType": "bytes",
          "name": "response",
          "type": "bytes"
        },
        {
          "indexed": false,
          "internalType": "bytes",
          "name": "err",
          "type": "bytes"
        }
      ],
      "name": "FulfillRequest",
      "type": "event"
    },
    {
      "anonymous": false,
      "inputs": [
        {
          "indexed": true,
          "internalType": "bytes32",
          "name": "functionId",
          "type": "bytes32"
        },
        {
          "indexed": true,
          "internalType": "bytes32",
          "name": "requestId",
          "type": "bytes32"
        },
        {
          "indexed": true,
          "internalType": "address",
          "name": "caller",
          "type": "address"
        },
        {
          "indexed": false,
          "internalType": "address",
          "name": "owner",
          "type": "address"
        },
        {
          "indexed": false,
          "internalType": "bytes32",
          "name": "callbackFunction",
          "type": "bytes32"
        },
        {
          "indexed": false,
          "internalType": "bytes",
          "name": "response",
          "type": "bytes"
        },
        {
          "indexed": false,
          "internalType": "bytes",
          "name": "err",
          "type": "bytes"
        }
      ],
      "name": "FunctionCallCompleted",
      "type": "event"
    },
    {
      "anonymous": false,
      "inputs": [
        {
          "indexed": true,
          "internalType": "bytes32",
          "name": "functionId",
          "type": "bytes32"
        },
        {
          "indexed": true,
          "internalType": "bytes32",
          "name": "requestId",
          "type": "bytes32"
        },
        {
          "indexed": true,
          "internalType": "address",
          "name": "caller",
          "type": "address"
        },
        {
          "indexed": false,
          "internalType": "address",
          "name": "owner",
          "type": "address"
        },
        {
          "indexed": false,
          "internalType": "bytes32",
          "name": "callbackFunction",
          "type": "bytes32"
        },
        {
          "indexed": false,
          "internalType": "uint96",
          "name": "baseFee",
          "type": "uint96"
        },
        {
          "indexed": false,
          "internalType": "uint96",
          "name": "fee",
          "type": "uint96"
        },
        {
          "indexed": false,
          "internalType": "uint96",
          "name": "functionsManagerCut",
          "type": "uint96"
        },
        {
          "indexed": false,
          "internalType": "string[]",
          "name": "args",
          "type": "string[]"
        }
      ],
      "name": "FunctionCalled",
      "type": "event"
    },
    {
      "anonymous": false,
      "inputs": [
        {
          "indexed": true,
          "internalType": "bytes32",
          "name": "functionId",
          "type": "bytes32"
        },
        {
          "indexed": true,
          "internalType": "address",
          "name": "owner",
          "type": "address"
        },
        {
          "indexed": true,
          "internalType": "bytes32",
          "name": "category",
          "type": "bytes32"
        },
        {
          "components": [
            {
              "internalType": "bytes32",
              "name": "functionId",
              "type": "bytes32"
            },
            {
              "internalType": "address",
              "name": "owner",
              "type": "address"
            },
            {
              "internalType": "bytes32",
              "name": "category",
              "type": "bytes32"
            },
            {
              "internalType": "enum FunctionsManager.ReturnTypes",
              "name": "expectedReturnType",
              "type": "uint8"
            },
            {
              "internalType": "enum Functions.Location",
              "name": "codeLocation",
              "type": "uint8"
            },
            {
              "internalType": "enum Functions.Location",
              "name": "secretsLocation",
              "type": "uint8"
            },
            {
              "internalType": "enum Functions.CodeLanguage",
              "name": "language",
              "type": "uint8"
            },
            {
              "internalType": "string",
              "name": "name",
              "type": "string"
            },
            {
              "internalType": "string",
              "name": "desc",
              "type": "string"
            },
            {
              "internalType": "string",
              "name": "imageUrl",
              "type": "string"
            },
            {
              "internalType": "string[]",
              "name": "expectedArgs",
              "type": "string[]"
            }
          ],
          "indexed": false,
          "internalType": "struct FunctionsManager.FunctionMetadata",
          "name": "metadata",
          "type": "tuple"
        },
        {
          "indexed": false,
          "internalType": "uint96",
          "name": "fee",
          "type": "uint96"
        },
        {
          "indexed": false,
          "internalType": "uint64",
          "name": "subId",
          "type": "uint64"
        }
      ],
      "name": "FunctionRegistered",
      "type": "event"
    },
    {
      "anonymous": false,
      "inputs": [
        {
          "indexed": false,
          "internalType": "uint32",
          "name": "newMaxGasLimit",
          "type": "uint32"
        }
      ],
      "name": "MaxGasLimitUpdated",
      "type": "event"
    },
    {
      "anonymous": false,
      "inputs": [
        {
          "indexed": false,
          "internalType": "uint96",
          "name": "newMinimumSubscriptionBalance",
          "type": "uint96"
        }
      ],
      "name": "MinimumSubscriptionBalanceUpdated",
      "type": "event"
    },
    {
      "anonymous": false,
      "inputs": [
        {
          "indexed": true,
          "internalType": "address",
          "name": "from",
          "type": "address"
        },
        {
          "indexed": true,
          "internalType": "address",
          "name": "to",
          "type": "address"
        }
      ],
      "name": "OwnershipTransferRequested",
      "type": "event"
    },
    {
      "anonymous": false,
      "inputs": [
        {
          "indexed": true,
          "internalType": "address",
          "name": "from",
          "type": "address"
        },
        {
          "indexed": true,
          "internalType": "address",
          "name": "to",
          "type": "address"
        }
      ],
      "name": "OwnershipTransferred",
      "type": "event"
    },
    {
      "anonymous": false,
      "inputs": [
        {
          "indexed": true,
          "internalType": "bytes32",
          "name": "id",
          "type": "bytes32"
        }
      ],
      "name": "RequestFulfilled",
      "type": "event"
    },
    {
      "anonymous": false,
      "inputs": [
        {
          "indexed": true,
          "internalType": "bytes32",
          "name": "id",
          "type": "bytes32"
        }
      ],
      "name": "RequestSent",
      "type": "event"
    },
    {
      "inputs": [],
      "name": "acceptOwnership",
      "outputs": [],
      "stateMutability": "nonpayable",
      "type": "function"
    },
    {
      "inputs": [
        {
          "components": [
            {
              "internalType": "enum Functions.Location",
              "name": "codeLocation",
              "type": "uint8"
            },
            {
              "internalType": "enum Functions.Location",
              "name": "secretsLocation",
              "type": "uint8"
            },
            {
              "internalType": "enum Functions.CodeLanguage",
              "name": "language",
              "type": "uint8"
            },
            {
              "internalType": "string",
              "name": "source",
              "type": "string"
            },
            {
              "internalType": "bytes",
              "name": "secrets",
              "type": "bytes"
            },
            {
              "internalType": "string[]",
              "name": "args",
              "type": "string[]"
            }
          ],
          "internalType": "struct Functions.Request",
          "name": "req",
          "type": "tuple"
        },
        {
          "internalType": "uint64",
          "name": "subscriptionId",
          "type": "uint64"
        },
        {
          "internalType": "uint32",
          "name": "gasLimit",
          "type": "uint32"
        },
        {
          "internalType": "uint256",
          "name": "gasPrice",
          "type": "uint256"
        }
      ],
      "name": "estimateCost",
      "outputs": [
        {
          "internalType": "uint96",
          "name": "",
          "type": "uint96"
        }
      ],
      "stateMutability": "view",
      "type": "function"
    },
    {
      "inputs": [
        {
          "internalType": "bytes32",
          "name": "functionId",
          "type": "bytes32"
        },
        {
          "internalType": "string[]",
          "name": "args",
          "type": "string[]"
        }
      ],
      "name": "executeRequest",
      "outputs": [
        {
          "internalType": "bytes32",
          "name": "",
          "type": "bytes32"
        }
      ],
      "stateMutability": "nonpayable",
      "type": "function"
    },
    {
      "inputs": [],
      "name": "feeManagerCut",
      "outputs": [
        {
          "internalType": "uint32",
          "name": "",
          "type": "uint32"
        }
      ],
      "stateMutability": "view",
      "type": "function"
    },
    {
      "inputs": [
        {
          "internalType": "bytes32",
          "name": "functionId",
          "type": "bytes32"
        }
      ],
      "name": "forceUnlockFees",
      "outputs": [],
      "stateMutability": "nonpayable",
      "type": "function"
    },
    {
      "inputs": [
        {
          "internalType": "bytes32",
          "name": "",
          "type": "bytes32"
        }
      ],
      "name": "functionExecuteMetadatas",
      "outputs": [
        {
          "internalType": "address",
          "name": "owner",
          "type": "address"
        },
        {
          "internalType": "uint64",
          "name": "subId",
          "type": "uint64"
        },
        {
          "internalType": "uint96",
          "name": "fee",
          "type": "uint96"
        },
        {
          "internalType": "uint96",
          "name": "unlockedProfitPool",
          "type": "uint96"
        },
        {
          "internalType": "uint64",
          "name": "functionsCalledCount",
          "type": "uint64"
        },
        {
          "internalType": "uint96",
          "name": "lockedProfitPool",
          "type": "uint96"
        },
        {
          "internalType": "uint96",
          "name": "totalFeesCollected",
          "type": "uint96"
        },
        {
          "internalType": "uint64",
          "name": "successfulResponseCount",
          "type": "uint64"
        },
        {
          "internalType": "uint64",
          "name": "failedResponseCount",
          "type": "uint64"
        }
      ],
      "stateMutability": "view",
      "type": "function"
    },
    {
      "inputs": [],
      "name": "functionManagerProfitPool",
      "outputs": [
        {
          "internalType": "uint96",
          "name": "",
          "type": "uint96"
        }
      ],
      "stateMutability": "view",
      "type": "function"
    },
    {
      "inputs": [
        {
          "internalType": "bytes32",
          "name": "",
          "type": "bytes32"
        }
      ],
      "name": "functionMetadatas",
      "outputs": [
        {
          "internalType": "bytes32",
          "name": "functionId",
          "type": "bytes32"
        },
        {
          "internalType": "address",
          "name": "owner",
          "type": "address"
        },
        {
          "internalType": "bytes32",
          "name": "category",
          "type": "bytes32"
        },
        {
          "internalType": "enum FunctionsManager.ReturnTypes",
          "name": "expectedReturnType",
          "type": "uint8"
        },
        {
          "internalType": "enum Functions.Location",
          "name": "codeLocation",
          "type": "uint8"
        },
        {
          "internalType": "enum Functions.Location",
          "name": "secretsLocation",
          "type": "uint8"
        },
        {
          "internalType": "enum Functions.CodeLanguage",
          "name": "language",
          "type": "uint8"
        },
        {
          "internalType": "string",
          "name": "name",
          "type": "string"
        },
        {
          "internalType": "string",
          "name": "desc",
          "type": "string"
        },
        {
          "internalType": "string",
          "name": "imageUrl",
          "type": "string"
        }
      ],
      "stateMutability": "view",
      "type": "function"
    },
    {
      "inputs": [
        {
          "internalType": "bytes32",
          "name": "",
          "type": "bytes32"
        }
      ],
      "name": "functionResponses",
      "outputs": [
        {
          "internalType": "bytes32",
          "name": "functionId",
          "type": "bytes32"
        },
        {
          "internalType": "address",
          "name": "caller",
          "type": "address"
        },
        {
          "internalType": "bytes32",
          "name": "callbackFunction",
          "type": "bytes32"
        },
        {
          "internalType": "uint96",
          "name": "premiumFee",
          "type": "uint96"
        },
        {
          "internalType": "uint96",
          "name": "baseFee",
          "type": "uint96"
        },
        {
          "internalType": "uint96",
          "name": "functionsManagerCut",
          "type": "uint96"
        },
        {
          "internalType": "bytes",
          "name": "response",
          "type": "bytes"
        },
        {
          "internalType": "bytes",
          "name": "err",
          "type": "bytes"
        }
      ],
      "stateMutability": "view",
      "type": "function"
    },
    {
      "inputs": [],
      "name": "functionsCalledCount",
      "outputs": [
        {
          "internalType": "uint96",
          "name": "",
          "type": "uint96"
        }
      ],
      "stateMutability": "view",
      "type": "function"
    },
    {
      "inputs": [],
      "name": "functionsRegisteredCount",
      "outputs": [
        {
          "internalType": "uint64",
          "name": "",
          "type": "uint64"
        }
      ],
      "stateMutability": "view",
      "type": "function"
    },
    {
      "inputs": [],
      "name": "getDONPublicKey",
      "outputs": [
        {
          "internalType": "bytes",
          "name": "",
          "type": "bytes"
        }
      ],
      "stateMutability": "view",
      "type": "function"
    },
    {
      "inputs": [
        {
          "internalType": "bytes32",
          "name": "_functionId",
          "type": "bytes32"
        }
      ],
      "name": "getFunctionExecuteMetadata",
      "outputs": [
        {
          "components": [
            {
              "internalType": "address",
              "name": "owner",
              "type": "address"
            },
            {
              "internalType": "uint64",
              "name": "subId",
              "type": "uint64"
            },
            {
              "internalType": "uint96",
              "name": "fee",
              "type": "uint96"
            },
            {
              "internalType": "uint96",
              "name": "unlockedProfitPool",
              "type": "uint96"
            },
            {
              "internalType": "uint64",
              "name": "functionsCalledCount",
              "type": "uint64"
            },
            {
              "internalType": "uint96",
              "name": "lockedProfitPool",
              "type": "uint96"
            },
            {
              "internalType": "uint96",
              "name": "totalFeesCollected",
              "type": "uint96"
            },
            {
              "internalType": "uint64",
              "name": "successfulResponseCount",
              "type": "uint64"
            },
            {
              "internalType": "uint64",
              "name": "failedResponseCount",
              "type": "uint64"
            }
          ],
          "internalType": "struct FunctionsManager.FunctionExecuteMetadata",
          "name": "",
          "type": "tuple"
        }
      ],
      "stateMutability": "view",
      "type": "function"
    },
    {
      "inputs": [
        {
          "internalType": "bytes32",
          "name": "_functionId",
          "type": "bytes32"
        }
      ],
      "name": "getFunctionMetadata",
      "outputs": [
        {
          "components": [
            {
              "internalType": "bytes32",
              "name": "functionId",
              "type": "bytes32"
            },
            {
              "internalType": "address",
              "name": "owner",
              "type": "address"
            },
            {
              "internalType": "bytes32",
              "name": "category",
              "type": "bytes32"
            },
            {
              "internalType": "enum FunctionsManager.ReturnTypes",
              "name": "expectedReturnType",
              "type": "uint8"
            },
            {
              "internalType": "enum Functions.Location",
              "name": "codeLocation",
              "type": "uint8"
            },
            {
              "internalType": "enum Functions.Location",
              "name": "secretsLocation",
              "type": "uint8"
            },
            {
              "internalType": "enum Functions.CodeLanguage",
              "name": "language",
              "type": "uint8"
            },
            {
              "internalType": "string",
              "name": "name",
              "type": "string"
            },
            {
              "internalType": "string",
              "name": "desc",
              "type": "string"
            },
            {
              "internalType": "string",
              "name": "imageUrl",
              "type": "string"
            },
            {
              "internalType": "string[]",
              "name": "expectedArgs",
              "type": "string[]"
            }
          ],
          "internalType": "struct FunctionsManager.FunctionMetadata",
          "name": "",
          "type": "tuple"
        }
      ],
      "stateMutability": "view",
      "type": "function"
    },
    {
      "inputs": [
        {
          "internalType": "bytes32",
          "name": "_requestId",
          "type": "bytes32"
        }
      ],
      "name": "getFunctionResponse",
      "outputs": [
        {
          "components": [
            {
              "internalType": "bytes32",
              "name": "functionId",
              "type": "bytes32"
            },
            {
              "internalType": "address",
              "name": "caller",
              "type": "address"
            },
            {
              "internalType": "bytes32",
              "name": "callbackFunction",
              "type": "bytes32"
            },
            {
              "internalType": "uint96",
              "name": "premiumFee",
              "type": "uint96"
            },
            {
              "internalType": "uint96",
              "name": "baseFee",
              "type": "uint96"
            },
            {
              "internalType": "uint96",
              "name": "functionsManagerCut",
              "type": "uint96"
            },
            {
              "internalType": "string[]",
              "name": "args",
              "type": "string[]"
            },
            {
              "internalType": "bytes",
              "name": "response",
              "type": "bytes"
            },
            {
              "internalType": "bytes",
              "name": "err",
              "type": "bytes"
            }
          ],
          "internalType": "struct FunctionsManager.FunctionResponse",
          "name": "",
          "type": "tuple"
        }
      ],
      "stateMutability": "view",
      "type": "function"
    },
    {
      "inputs": [
        {
          "internalType": "bytes32",
          "name": "_requestId",
          "type": "bytes32"
        }
      ],
      "name": "getFunctionResponseValue",
      "outputs": [
        {
          "internalType": "bytes",
          "name": "",
          "type": "bytes"
        }
      ],
      "stateMutability": "view",
      "type": "function"
    },
    {
      "inputs": [],
      "name": "getGasPrice",
      "outputs": [
        {
          "internalType": "uint256",
          "name": "",
          "type": "uint256"
        }
      ],
      "stateMutability": "view",
      "type": "function"
    },
    {
      "inputs": [
        {
          "internalType": "uint64",
          "name": "_subscriptionId",
          "type": "uint64"
        }
      ],
      "name": "getSubscriptionBalance",
      "outputs": [
        {
          "internalType": "uint256",
          "name": "",
          "type": "uint256"
        }
      ],
      "stateMutability": "view",
      "type": "function"
    },
    {
      "inputs": [
        {
          "internalType": "bytes32",
          "name": "requestId",
          "type": "bytes32"
        },
        {
          "internalType": "bytes",
          "name": "response",
          "type": "bytes"
        },
        {
          "internalType": "bytes",
          "name": "err",
          "type": "bytes"
        }
      ],
      "name": "handleOracleFulfillment",
      "outputs": [],
      "stateMutability": "nonpayable",
      "type": "function"
    },
    {
      "inputs": [],
      "name": "maxGasLimit",
      "outputs": [
        {
          "internalType": "uint32",
          "name": "",
          "type": "uint32"
        }
      ],
      "stateMutability": "view",
      "type": "function"
    },
    {
      "inputs": [],
      "name": "minimumSubscriptionBalance",
      "outputs": [
        {
          "internalType": "uint96",
          "name": "",
          "type": "uint96"
        }
      ],
      "stateMutability": "view",
      "type": "function"
    },
    {
      "inputs": [],
      "name": "owner",
      "outputs": [
        {
          "internalType": "address",
          "name": "",
          "type": "address"
        }
      ],
      "stateMutability": "view",
      "type": "function"
    },
    {
      "inputs": [
        {
          "internalType": "uint64",
          "name": "_subscriptionId",
          "type": "uint64"
        }
      ],
      "name": "refillSubscription",
      "outputs": [],
      "stateMutability": "nonpayable",
      "type": "function"
    },
    {
      "inputs": [
        {
          "components": [
            {
              "internalType": "uint96",
              "name": "fees",
              "type": "uint96"
            },
            {
              "internalType": "string",
              "name": "functionName",
              "type": "string"
            },
            {
              "internalType": "string",
              "name": "desc",
              "type": "string"
            },
            {
              "internalType": "string",
              "name": "imageUrl",
              "type": "string"
            },
            {
              "internalType": "string",
              "name": "source",
              "type": "string"
            },
            {
              "internalType": "string[]",
              "name": "expectedArgs",
              "type": "string[]"
            },
            {
              "internalType": "enum Functions.Location",
              "name": "codeLocation",
              "type": "uint8"
            },
            {
              "internalType": "enum Functions.Location",
              "name": "secretsLocation",
              "type": "uint8"
            },
            {
              "internalType": "enum Functions.CodeLanguage",
              "name": "language",
              "type": "uint8"
            },
            {
              "internalType": "bytes32",
              "name": "category",
              "type": "bytes32"
            },
            {
              "internalType": "uint64",
              "name": "subId",
              "type": "uint64"
            },
            {
              "internalType": "enum FunctionsManager.ReturnTypes",
              "name": "expectedReturnType",
              "type": "uint8"
            },
            {
              "internalType": "bytes",
              "name": "secrets",
              "type": "bytes"
            }
          ],
          "internalType": "struct FunctionsManager.FunctionsRegisterRequest",
          "name": "request",
          "type": "tuple"
        }
      ],
      "name": "registerFunction",
      "outputs": [
        {
          "internalType": "bytes32",
          "name": "",
          "type": "bytes32"
        }
      ],
      "stateMutability": "payable",
      "type": "function"
    },
    {
      "inputs": [
        {
          "internalType": "uint32",
          "name": "_feeManagerCut",
          "type": "uint32"
        }
      ],
      "name": "setFeeManagerCut",
      "outputs": [],
      "stateMutability": "nonpayable",
      "type": "function"
    },
    {
      "inputs": [
        {
          "internalType": "uint32",
          "name": "_maxGasLimit",
          "type": "uint32"
        }
      ],
      "name": "setMaxGasLimit",
      "outputs": [],
      "stateMutability": "nonpayable",
      "type": "function"
    },
    {
      "inputs": [
        {
          "internalType": "uint96",
          "name": "_minimumSubBalance",
          "type": "uint96"
        }
      ],
      "name": "setMinimumSubscriptionBalance",
      "outputs": [],
      "stateMutability": "nonpayable",
      "type": "function"
    },
    {
      "inputs": [
        {
          "internalType": "uint64",
          "name": "",
          "type": "uint64"
        }
      ],
      "name": "subscriptionBalances",
      "outputs": [
        {
          "internalType": "uint96",
          "name": "",
          "type": "uint96"
        }
      ],
      "stateMutability": "view",
      "type": "function"
    },
    {
      "inputs": [],
      "name": "totalFeesCollected",
      "outputs": [
        {
          "internalType": "uint96",
          "name": "",
          "type": "uint96"
        }
      ],
      "stateMutability": "view",
      "type": "function"
    },
    {
      "inputs": [
        {
          "internalType": "address",
          "name": "to",
          "type": "address"
        }
      ],
      "name": "transferOwnership",
      "outputs": [],
      "stateMutability": "nonpayable",
      "type": "function"
    },
    {
      "inputs": [
        {
          "internalType": "bytes32",
          "name": "functionId",
          "type": "bytes32"
        }
      ],
      "name": "withdrawFunctionProfitToAuthor",
      "outputs": [],
      "stateMutability": "nonpayable",
      "type": "function"
    },
    {
      "inputs": [],
      "name": "withdrawFunctionsManagerProfitToOwner",
      "outputs": [],
      "stateMutability": "nonpayable",
      "type": "function"
    },
    {
      "inputs": [
        {
          "internalType": "bytes32[]",
          "name": "functionIds",
          "type": "bytes32[]"
        }
      ],
      "name": "withdrawMultipleFunctionProfitToAuthor",
      "outputs": [],
      "stateMutability": "nonpayable",
      "type": "function"
    }
  ],
  "bytecode": "0x608034620001ff57601f62005cfa38819003918201601f19168301916001600160401b03831184841017620002045780849260c094604052833981010312620001ff576200004d816200021a565b6200005b602083016200021a565b906200006a604084016200021a565b9262000079606082016200022f565b6080820151916001600160601b0383168303620001ff5760a06200009e91016200022f565b9460018060a01b038091169460018060a01b031994868660005416176000553315620001ba5733866002541617600255606463ffffffff8516116200015b57821685600a541617600a551683600b541617600b556fffffffff000000000000000000000000600d549160601b16906fffffffff000000000000000000000000191617600d5560a01b1617600c55600e549063ffffffff60c01b9060c01b169063ffffffff60c01b191617600e55604051615ab89081620002428239f35b60405162461bcd60e51b815260206004820152603160248201527f466565206d616e6167657220637574206d757374206265206c6573732074686160448201527006e206f7220657175616c20746f2031303607c1b6064820152608490fd5b60405162461bcd60e51b815260206004820152601860248201527f43616e6e6f7420736574206f776e657220746f207a65726f00000000000000006044820152606490fd5b600080fd5b634e487b7160e01b600052604160045260246000fd5b51906001600160a01b0382168203620001ff57565b519063ffffffff82168203620001ff5756fe6080604052600436101561001257600080fd5b60003560e01c80630ca76175146102225780631ac67b341461021d5780631f3597fa14610218578063228764b214610213578063257912f31461020e5780634351077d14610209578063455259cb146102045780634b5de5c4146101ff5780634e011def146101fa578063509f4a3a146101f55780635e45da23146101f057806360c6d8ae146101eb5780637587b1b2146101a0578063769748c3146101e657806379ba5097146101e15780637b0caaa2146101dc5780638a328420146101d75780638da5cb5b146101d257806396e10261146101cd578063a1901523146101c8578063a36df5c2146101c3578063ba9c513f146101be578063bdf47104146101b9578063c7147f81146101b4578063d328a91e146101af578063d4b39175146101aa578063d5549c8a146101a5578063d7e6a96b146101a0578063de76f0531461019b578063f2fde38b14610196578063f3ba47eb14610191578063f83128411461018c5763f8454cd81461018757600080fd5b612354565b612245565b61221b565b612153565b612046565b61121b565b61201f565b611f19565b611d90565b611caf565b611c8f565b611c0b565b611b8b565b611b03565b611a7d565b611a3f565b6119c6565b61198e565b6118c3565b611262565b6111d3565b6111ac565b611179565b6110a8565b611009565b610fc8565b610ed8565b610dff565b610cf8565b610a4c565b6109bb565b610381565b634e487b7160e01b600052604160045260246000fd5b61012081019081106001600160401b0382111761025957604052565b610227565b60c081019081106001600160401b0382111761025957604052565b604081019081106001600160401b0382111761025957604052565b606081019081106001600160401b0382111761025957604052565b90601f801991011681019081106001600160401b0382111761025957604052565b6040519061016082018281106001600160401b0382111761025957604052565b604051906102fd8261023d565b565b604051906102fd8261025e565b6001600160401b03811161025957601f01601f191660200190565b9291926103338261030c565b9161034160405193846102af565b82948184528183011161035e578281602093846000960137010152565b600080fd5b9080601f8301121561035e5781602061037e93359101610327565b90565b3461035e57606036600319011261035e576001600160401b0360043560243582811161035e576103b5903690600401610363565b9160443590811161035e576103ce903690600401610363565b916103df6103da614ba5565b6158c8565b6103f0336103eb614bde565b615939565b6001600160a01b0392610426338561041f610413600b546001600160a01b031690565b6001600160a01b031690565b1614614c3d565b610459846104516001610443876000526006602052604060002090565b01546001600160a01b031690565b161515614caf565b61049e61049761041361048a610479876000526006602052604060002090565b546000526005602052604060002090565b546001600160a01b031690565b1515614d21565b6104ba6104b5846000526006602052604060002090565b6144a6565b938260e086015261010082818701526104e6866104e1876000526006602052604060002090565b6137c4565b6105036104fe87516000526005602052604060002090565b6131f9565b906105e56105b461053561052160608b01516001600160601b031690565b60a08b01516001600160601b0316906136ca565b61056360a086016105568361055183516001600160601b031690565b6136ca565b6001600160601b03169052565b610584606086016105568361057f83516001600160601b031690565b6134e4565b6105a060c086016105568361057f83516001600160601b031690565b600e5460601c6001600160601b03166134e4565b6bffffffffffffffffffffffff60601b196bffffffffffffffffffffffff60601b600e549260601b16911617600e55565b6105f06103da614d93565b835161078b575061062460e0820161061761061282516001600160401b031690565b613072565b6001600160401b03169052565b6106428161063d88516000526005602052604060002090565b612dc6565b61069f61065a610413600b546001600160a01b031690565b936000602084019561067387516001600160401b031690565b60405163523e3b4b60e11b81526001600160401b03909116600482015293849190829081906024820190565b03915afa948515610786577f46179aadb72bd1ccbb0e9ebc270c28ff7763288a733eba4fb65169a441dbf87e9561074093600091610763575b506001600160601b036106fc6106f0600c5460a01c90565b6001600160601b031690565b911610610745575b50875195604061072f61072160208c01516001600160a01b031690565b95516001600160a01b031690565b990151604051958695169985614df2565b0390a4005b5161075d906001600160401b031661406c565b61406c565b38610704565b61077e913d8091833e61077681836102af565b8101906127b1565b5050386106d8565b612853565b6107a590820161061761061282516001600160401b031690565b610624565b90600182811c921680156107da575b60208310146107c457565b634e487b7160e01b600052602260045260246000fd5b91607f16916107b9565b90604051918260008254926107f8846107aa565b9081845260019485811690816000146108655750600114610822575b50506102fd925003836102af565b9093915060005260209081600020936000915b81831061084d5750506102fd93508201013880610814565b85548884018501529485019487945091830191610835565b9150506102fd94506020925060ff191682840152151560051b8201013880610814565b634e487b7160e01b600052602160045260246000fd5b600411156108a857565b610888565b9060048210156108a85752565b600211156108a857565b9060028210156108a85752565b600111156108a857565b9060018210156108a85752565b60005b8381106108fb5750506000910152565b81810151838201526020016108eb565b90602091610924815180928185528580860191016108e8565b601f01601f1916010190565b989561097861099d9661096e61037e9d9b9760608e61098c996001600160a01b036109ac9f9a6109829a8452166020830152604082015201906108ad565b60808c01906108c4565b60a08a01906108c4565b60c08801906108db565b6101408060e088015286019061090b565b9084820361010086015261090b565b9161012081840391015261090b565b3461035e57602036600319011261035e57600435600052600460205260406000208054610a486001600160a01b03600184015416600284015493600381015494610a07600483016107e4565b90610a206006610a19600586016107e4565b94016107e4565b9360405197889760ff8260181c169360ff8360101c169360ff808560081c169416928b610930565b0390f35b3461035e57602036600319011261035e57610b4560206004353033148015610ba5575b8015610b7e575b610a7f90614372565b610aa96001610a98836000526005602052604060002090565b015460601c6001600160601b031690565b90610adc6001610ac3836000526005602052604060002090565b016bffffffffffffffffffffffff60601b198154169055565b610b0861048a610af7610413600a546001600160a01b031690565b926000526005602052604060002090565b600060405180968195829463a9059cbb60e01b8452600484019092916001600160601b036020916001600160a01b03604085019616845216910152565b03925af1801561078657610b5557005b610b759060203d8111610b77575b610b6d81836102af565b810190613154565b005b503d610b63565b50610a7f610b9c61041361048a846000526005602052604060002090565b33149050610a76565b50610bbb6104136002546001600160a01b031690565b3314610a6f565b908082519081815260208091019281808460051b8301019501936000915b848310610bf05750505050505090565b9091929394958480610c0e600193601f198682030187528a5161090b565b9801930193019194939290610be0565b805182526020808201516001600160a01b03169083015261037e919060408101516040830152610c56606082015160608401906108ad565b610c68608082015160808401906108c4565b610c7a60a082015160a08401906108c4565b610c8c60c082015160c08401906108db565b610cd3610cbf610cab60e08401516101608060e088015286019061090b565b61010080850151908683039087015261090b565b61012080840151908583039086015261090b565b916101408092015191818403910152610bc2565b90602061037e928181520190610c1e565b3461035e57602036600319011261035e57610d11612626565b506004356000526004602052610a486040600020610ded6007610d326102d0565b9280548452610d5e610d4e60018301546001600160a01b031690565b6001600160a01b03166020860152565b60028101546040850152610db260ff6003830154610d81828216606089016126cb565b610d93828260081c16608089016126e1565b610da5828260101c1660a089016126e1565b60181c1660c086016126f7565b610dbe600482016107e4565b60e0850152610dcf600582016107e4565b610100850152610de1600682016107e4565b61012085015201613315565b61014082015260405191829182610ce7565b3461035e57600036600319011261035e576020600c5460a01c604051908152f35b60208082528251818301528201516001600160a01b0316604082015261037e919060408201516060820152610e65606083015160808301906001600160601b03169052565b60808201516001600160601b031660a082015260a08201516001600160601b031660c082015260c082015190610ea9610120928360e0840152610140830190610bc2565b9160e0840151610ec8601f19946101009286868303018487015261090b565b940151928285030191015261090b565b3461035e57602036600319011261035e57610ef1613780565b506004356000526006602052610a486040600020610fb66007610f126102f0565b9280548452610f2e610d4e60018301546001600160a01b031690565b6002810154604085015260038101546001600160601b038082166060870152610f679160601c1660808601906001600160601b03169052565b610f8e610f7e60048301546001600160601b031690565b6001600160601b031660a0860152565b610f9a60058201613315565b60c0850152610fab600682016107e4565b60e0850152016107e4565b61010082015260405191829182610e20565b3461035e57600036600319011261035e5760206040513a8152f35b6004359063ffffffff8216820361035e57565b6044359063ffffffff8216820361035e57565b3461035e57602036600319011261035e577fea75a541fdea902fd9286e55cc7a68149b042e7a85dcdd3304df35bf9b7d6da96020611045610fe3565b61104d61246a565b600e547fffffffff00000000ffffffffffffffffffffffffffffffffffffffffffffffff7bffffffff0000000000000000000000000000000000000000000000008360c01b16911617600e5563ffffffff60405191168152a1005b3461035e57602036600319011261035e57600435600052600560205260406000208054610a4860018301546110ec600360028601549501546001600160401b031690565b604080516001600160a01b03861681526001600160401b0360a096871c811660208301526001600160601b0385811693830193909352606085811c84168184015260c095861c6080840152888416978301979097529587901c909116838201529490911c60e08501529091166101008301528190610120820190565b90602061037e92818152019061090b565b3461035e57602036600319011261035e57610a48611198600435614570565b60405191829160208352602083019061090b565b3461035e57600036600319011261035e57602063ffffffff600e5460c01c16604051908152f35b3461035e57600036600319011261035e5760206001600160601b03600e5460601c16604051908152f35b6001600160401b0381160361035e57565b602435906102fd826111fd565b3461035e57602036600319011261035e576001600160401b03600435611240816111fd565b16600052600960205260206001600160601b0360406000205416604051908152f35b60031960203682011261035e576001600160401b0390816004351161035e576101a0906004353603011261035e5761129e6004356004016124c3565b506024600435016112c06112b7826004356004016124cd565b905015156124ff565b6112ee6112d2826004356004016124cd565b906112e86112de61254b565b9133933691610327565b906159ce565b611326611318611303836004356004016124cd565b929060405192839160208301953391876125b2565b03601f1981018352826102af565b519020906113556001600160a01b0361134e6001610443866000526004602052604060002090565b16156125da565b61137861137261041361048a856000526005602052604060002090565b156125da565b6113a261139b611386612626565b848152336020820152926004356004016124cd565b3691610327565b60e08201526113be61139b6044600435016004356004016124cd565b6101008201526113db61139b6064600435016004356004016124cd565b6101208201526113ff6113f860a460043501600435600401612689565b3691611e8f565b6101408201526101246004350135604082015261142d611424610164600435016126be565b606083016126cb565b61144761143e60c4600435016126d7565b608083016126e1565b61146161145860e4600435016126d7565b60a083016126e1565b61147c611473610104600435016126ed565b60c083016126f7565b611484612703565b338152906114a96114996004356004016124c3565b6001600160601b03166040840152565b836114b961014460043501612748565b1661155b576114c96103da61294b565b6114de610413600a546001600160a01b031690565b6040516370a0823160e01b815233600482015290602090829060249082905afa8015610786576115279160009161152c575b506115206106f0600c5460a01c90565b1115612993565b61308a565b61154e915060203d602011611554575b61154681836102af565b810190612984565b82611510565b503d61153c565b6115826115d49461157161014460043501612748565b9061157a612752565b9116906158f6565b6000611599610413600b546001600160a01b031690565b6115a861014460043501612748565b60405163523e3b4b60e11b81526001600160401b03909116600482015295869190829081906024820190565b03915afa93841561078657600090819561189d575b506001600160a01b03163081149033146000915b865183101561188d5730611624610413611617868b612889565b516001600160a01b031690565b0361186d57506001915b8280611866575b6116485761164290612875565b916115fd565b50610a48955090611660915b8161185e575b506128b3565b61168261167261014460043501612748565b6001600160401b03166020840152565b61173e61168d612a05565b6116cb61169e60c4600435016126d7565b6116ad610104600435016126ed565b6116c461139b6084600435016004356004016124cd565b91846145bc565b60016116db60e4600435016126d7565b6116e4816108ba565b148061183f575b611819575b61170d83611708876000526004602052604060002090565b612cdb565b6117258461063d876000526005602052604060002090565b611739856000526007602052604060002090565b612fb6565b827f21813596c09ceb4b0982d4768204369a8a4102e8bb57faa68abeb17f905aa6af60408301519361178e602061177f60408401516001600160601b031690565b9201516001600160401b031690565b906117a060405192839233978461303d565b0390a46118096117bf610612600d546001600160401b039060801c1690565b7fffffffffffffffff0000000000000000ffffffffffffffffffffffffffffffff77ffffffffffffffff00000000000000000000000000000000600d549260801b16911617600d55565b6040519081529081906020820190565b61183a61183461139b610184600435016004356004016124cd565b826145f3565b6116f0565b50611855610184600435016004356004016124cd565b905015156116eb565b90503861165a565b5081611635565b913361187f610413611617848b612889565b0361162e576001915061162e565b90610a4896506116609250611654565b6001600160a01b0395506118ba913d8091833e61077681836102af565b959150906115e9565b3461035e5760008060031936011261198b576001600160a01b0380600354163303611946576002546001600160a01b0316600280546001600160a01b031916331790559061191c6001600160a01b031960035416600355565b3391167f8be0079c531659141344cd1fd0a4f28419497f9722a3daafe3b4186f6b6457e08380a380f35b60405162461bcd60e51b815260206004820152601660248201527f4d7573742062652070726f706f736564206f776e6572000000000000000000006044820152606490fd5b80fd5b3461035e57600036600319011261035e57602063ffffffff600d5460601c16604051908152f35b6001600160601b0381160361035e57565b3461035e57602036600319011261035e577ff93ca41ce15e716948ecea40b2fdd7db09875e09fa15a0f7b9d86e030bc138fc6020600435611a06816119b5565b611a0e61246a565b600c546001600160a01b036001600160a01b03198360a01b16911617600c556001600160601b0360405191168152a1005b3461035e57600036600319011261035e5760206001600160a01b0360025416604051908152f35b6001600160401b0381116102595760051b60200190565b3461035e5760208060031936011261035e576004356001600160401b03811161035e573660238201121561035e57806004013590611aba82611a66565b91611ac860405193846102af565b80835260248484019160051b8301019136831161035e57602401905b828210611af457610b7584614430565b81358152908401908401611ae4565b3461035e57600036600319011261035e5760206001600160601b03600e5416604051908152f35b969390926001600160a01b0361037e999793611b7d97958a5216602089015260408801526001600160601b03928380921660608901521660808701521660a08501526101008060c086015284019061090b565b9160e081840391015261090b565b3461035e57602036600319011261035e57600435600052600660205260406000208054610a486001600160a01b03600184015416926002810154906003810154936001600160601b03948560048401541691611bf56007611bee600687016107e4565b95016107e4565b9460405198888a998560601c1694169289611b2a565b3461035e57602036600319011261035e577f46c1366d39ebca435b59ead94f7c3af0b9adebd337dd0b02d786ef47abaf68696020611c47610fe3565b611c4f61246a565b600d546fffffffff0000000000000000000000008260601b16906fffffffff000000000000000000000000191617600d5563ffffffff60405191168152a1005b3461035e57602036600319011261035e57610b75600435610758816111fd565b3461035e5760008060031936011261198b57611cc961246a565b611ce06001600160a01b03600254166103eb614313565b611d636020611cf7600d546001600160601b031690565b611d0c6001600160601b0319600d5416600d55565b611d21610413600a546001600160a01b031690565b60025460405163a9059cbb60e01b81526001600160a01b0390911660048201526001600160601b03909216602483015290928391908290869082906044820190565b03925af1801561078657611d75575080f35b611d8c9060203d8111610b7757610b6d81836102af565b5080f35b3461035e5760008060031936011261198b576004816001600160a01b0381541660405192838092636994548f60e11b82525afa908115610786578291611ddf575b60405180610a488482611168565b90503d8083833e611df081836102af565b810190602081830312611e5d578051906001600160401b038211611e61570181601f82011215611e5d57805192611e268461030c565b92611e3460405194856102af565b8484526020858401011161198b5750610a4892611e5791602080850191016108e8565b38611dd1565b8280fd5b8380fd5b6002111561035e57565b35906102fd82611e65565b6001111561035e57565b35906102fd82611e7a565b92919092611e9c84611a66565b91611eaa60405193846102af565b829480845260208094019060051b83019282841161035e5780915b848310611ed457505050505050565b82356001600160401b03811161035e578691611ef38684938601610363565b815201920191611ec5565b9080601f8301121561035e5781602061037e93359101611e8f565b3461035e5760031960803682011261035e576004356001600160401b039182821161035e5760c090823603011261035e57611f526102ff565b611f5e82600401611e6f565b8152611f6c60248301611e6f565b6020820152611f7d60448301611e84565b6040820152606482013583811161035e57611f9e9060043691850101610363565b6060820152608482013583811161035e57611fbf9060043691850101610363565b608082015260a482013592831161035e57611fe6612005926004610a489536920101611efe565b60a0820152611ff361120e565b611ffb610ff6565b9060643592614638565b6040516001600160601b0390911681529081906020820190565b3461035e57600036600319011261035e5760206001600160601b03600d5416604051908152f35b3461035e57602036600319011261035e5761205f61246a565b600435600052600560205260406000206001600160a01b03815416156120fd57806120e86002610b759301916120b960016120a185546001600160601b031690565b92019161057f83546001600160601b039060601c1690565b6bffffffffffffffffffffffff60601b196bffffffffffffffffffffffff60601b83549260601b169116179055565b80546bffffffffffffffffffffffff19169055565b60405162461bcd60e51b815260206004820152601760248201527f46756e6374696f6e20646f6573206e6f742065786973740000000000000000006044820152606490fd5b6001600160a01b0381160361035e57565b3461035e57602036600319011261035e576001600160a01b0360043561217881612142565b61218061246a565b163381146121d657806001600160a01b031960035416176003556121af6104136002546001600160a01b031690565b7fed8889f560326eb138920d842192f0eb3dd22b4f139c87a2c57538e05bae1278600080a3005b60405162461bcd60e51b815260206004820152601760248201527f43616e6e6f74207472616e7366657220746f2073656c660000000000000000006044820152606490fd5b3461035e57600036600319011261035e5760206001600160401b03600d5460801c16604051908152f35b3461035e57604036600319011261035e576001600160401b0360243581811161035e573660238201121561035e57806004013591821161035e573660248360051b8301011161035e57610a48916024611809920160043561398f565b81516001600160a01b031681526020808301516001600160401b0316908201526040808301516001600160601b031690820152610120810192916102fd91906060818101516001600160601b0316908301526080818101516001600160401b03169083015260a0818101516001600160601b03169083015260c0818101516001600160601b03169083015260e0818101516001600160401b031690830152610100908101516001600160401b0316910152565b3461035e57602036600319011261035e5761236d612703565b506004356000526005602052610a48604060002061245e61244d60036123916102f0565b936123d16001600160401b0382546123bb6001600160a01b03821689906001600160a01b03169052565b60a01c1660208701906001600160401b03169052565b60018101546001600160601b038082166040880152606082811c82169088015261243f916124039060c01c6080890152565b60028301546001600160601b038282161660a089015290612435908260601c1660c08901906001600160601b03169052565b60c01c60e0870152565b01546001600160401b031690565b6001600160401b0316610100830152565b604051918291826122a1565b6001600160a01b0360025416330361247e57565b60405162461bcd60e51b815260206004820152601660248201527f4f6e6c792063616c6c61626c65206279206f776e6572000000000000000000006044820152606490fd5b3561037e816119b5565b903590601e198136030182121561035e57018035906001600160401b03821161035e5760200191813603831361035e57565b1561250657565b60405162461bcd60e51b815260206004820152601d60248201527f46756e6374696f6e206e616d652063616e6e6f7420626520656d7074790000006044820152606490fd5b6040519061255882610294565b60248252637220257360e01b6040837f726567697374657246756e6374696f6e2c206e616d653a2025732073656e646560208201520152565b908060209392818452848401376000828201840152601f01601f1916010190565b916125d36020926001600160a01b0392969596604086526040860191612591565b9416910152565b156125e157565b60405162461bcd60e51b815260206004820152601760248201527f46756e6374696f6e20616c7265616479206578697374730000000000000000006044820152606490fd5b6040519061016082018281106001600160401b0382111761025957604052606061014083600080825280602083015280604083015280848301528060808301528060a083015260c08201528260e082015282610100820152826101208201520152565b903590601e198136030182121561035e57018035906001600160401b03821161035e57602001918160051b3603831361035e57565b35600481101561035e5790565b60048210156108a85752565b3561037e81611e65565b60028210156108a85752565b3561037e81611e7a565b60018210156108a85752565b604051906127108261023d565b816101006000918281528260208201528260408201528260608201528260808201528260a08201528260c08201528260e08201520152565b3561037e816111fd565b6040519061275f82610294565b603682527f636865636b696e6720696620617574686f72697a6564000000000000000000006040837f7573696e67206578697374696e6720737562736372697074696f6e2025642c2060208201520152565b909160608284031261035e5781516127c8816119b5565b926020808401516127d881612142565b936040810151906001600160401b03821161035e57019180601f8401121561035e57825161280581611a66565b9361281360405195866102af565b818552838086019260051b82010192831161035e578301905b82821061283a575050505090565b838091835161284881612142565b81520191019061282c565b6040513d6000823e3d90fd5b634e487b7160e01b600052601160045260246000fd5b60001981146128845760010190565b61285f565b805182101561289d5760209160051b010190565b634e487b7160e01b600052603260045260246000fd5b156128ba57565b60405162461bcd60e51b815260206004820152604f60248201527f46756e6374696f6e734d616e6167657220616e642f6f722063616c6c6572206160448201527f7265206e6f7420617574686f72697a656420636f6e73756d657273206f66207460648201527f686520737562736372697074696f6e0000000000000000000000000000000000608482015260a490fd5b6040519061295882610279565b601982527f6372656174696e67206e657720737562736372697074696f6e000000000000006020830152565b9081602091031261035e575190565b1561299a57565b60405162461bcd60e51b815260206004820152602e60248201527f496e73756666696369656e74204c494e4b2062616c616e636520746f2066756e60448201527f6420737562736372697074696f6e0000000000000000000000000000000000006064820152608490fd5b60405190612a128261025e565b606060a08360008152600060208201526000604082015282808201528260808201520152565b9060048110156108a85760ff80198354169116179055565b9060028110156108a85761ff0082549160081b169061ff001916179055565b9060028110156108a857815462ff0000191660109190911b62ff000016179055565b9060018110156108a85763ff00000082549160181b169063ff0000001916179055565b818110612abf575050565b60008155600101612ab4565b9190601f8111612ada57505050565b6102fd926000526020600020906020601f840160051c83019310612b06575b601f0160051c0190612ab4565b9091508190612af9565b91909182516001600160401b03811161025957612b3781612b3184546107aa565b84612acb565b602080601f8311600114612b73575081929394600092612b68575b50508160011b916000199060031b1c1916179055565b015190503880612b52565b90601f19831695612b8985600052602060002090565b926000905b888210612bc657505083600195969710612bad575b505050811b019055565b015160001960f88460031b161c19169055388080612ba3565b80600185968294968601518155019501930190612b8e565b908160011b918083046002149015171561288457565b815191680100000000000000008311610259578154838355808410612c57575b50612c29602080920192600052602060002090565b6000925b848410612c3b575050505050565b60018382612c4b83945186612b10565b01920193019290612c2d565b6000838152846020822092830192015b828110612c75575050612c14565b80612c82600192546107aa565b80612c8f575b5001612c67565b601f908181118414612ca75750508281555b38612c88565b83612cc992612cbb85600052602060002090565b920160051c82019101612ab4565b60008181526020812081835555612ca1565b60076101406102fd9380518455612d1e612cff60208301516001600160a01b031690565b60018601906001600160a01b03166001600160a01b0319825416179055565b60408101516002850155612d8860038501612d466060840151612d408161089e565b82612a38565b612d5d6080840151612d57816108ba565b82612a50565b612d7460a0840151612d6e816108ba565b82612a6f565b60c083015190612d83826108d1565b612a91565b612d9960e082015160048601612b10565b612dab61010082015160058601612b10565b612dbd61012082015160068601612b10565b01519101612bf4565b6003612f996101006102fd94612e02612de682516001600160a01b031690565b86906001600160a01b03166001600160a01b0319825416179055565b612e66612e1960208301516001600160401b031690565b86547fffffffff0000000000000000ffffffffffffffffffffffffffffffffffffffff1660a09190911b7bffffffffffffffff000000000000000000000000000000000000000016178655565b612f4360018601612ea5612e8460408501516001600160601b031690565b82546bffffffffffffffffffffffff19166001600160601b03909116178255565b612eec612ebc60608501516001600160601b031690565b82546bffffffffffffffffffffffff60601b191660609190911b6bffffffffffffffffffffffff60601b16178255565b60808301516001600160401b03165b77ffffffffffffffffffffffffffffffffffffffffffffffff7fffffffffffffffff00000000000000000000000000000000000000000000000083549260c01b169116179055565b612f8b60028601612f61612e8460a08501516001600160601b031690565b612f78612ebc60c08501516001600160601b031690565b60e08301516001600160401b0316612efb565b01516001600160401b031690565b9101906001600160401b03166001600160401b0319825416179055565b815160028110156108a85760ff80198354169116178155612fde6020830151612d57816108ba565b604082015191612fed836108d1565b60018310156108a85760a06003916130196102fd9585549062ff00009060101b169062ff000019161790565b845561302c606082015160018601612b10565b612dbd608082015160028601612b10565b9193926001600160401b03906001600160601b03613065604094606087526060870190610c1e565b9616602085015216910152565b6001600160401b038091169081146128845760010190565b60405162461bcd60e51b815260206004820152605a60248201527f746865206162696c69747920746f20637265617465207375627363726970746960448201527f6f6e73206973206578706c696369746c792064697361626c656420696e20746860648201527f69732076657273696f6e206f662074686520636f6e7472616374000000000000608482015260a490fd5b6040519061312882610279565b601982527f73656e646572202573204c494e4b2062616c616e6365202564000000000000006020830152565b9081602091031261035e5751801515810361035e5790565b6001600160601b0361037e94936001600160a01b03606094168352166020820152816040820152019061090b565b604051906131a782610294565b602682527f696f6e49643a00000000000000000000000000000000000000000000000000006040837f65786563757465526571756573742063616c6c656420776974682066756e637460208201520152565b906102fd6132b8600361320a6102f0565b9461324a6001600160401b0382546132346001600160a01b0382168a906001600160a01b03169052565b60a01c1660208801906001600160401b03169052565b60018101546001600160601b038082166040890152606082811c82169089015261243f9161327c9060c01c60808a0152565b60028301546001600160601b038282161660a08a0152906132ae908260601c1660c08a01906001600160601b03169052565b60c01c60e0880152565b6001600160401b0316610100840152565b156132d057565b60405162461bcd60e51b815260206004820152601a60248201527f66756e6374696f6e206973206e6f7420726567697374657265640000000000006044820152606490fd5b90815461332181611a66565b9261332f60405194856102af565b818452600090815260208082208186015b84841061334e575050505050565b600183819261335c856107e4565b815201920193019290613340565b906040516133778161025e565b60a06133da600383956133b260ff8254613393828216896126e1565b6133a5828260081c1660208a016126e1565b60101c16604087016126f7565b6133be600182016107e4565b60608601526133cf600282016107e4565b608086015201613315565b910152565b604051906133ec82610279565b601b82527f636f6c6c656374696e6720616e64206c6f636b696e67206665657300000000006020830152565b60405190608082018281106001600160401b038211176102595760405260006060838281528260208201528260408201520152565b9081602091031261035e575161037e816119b5565b91909160a081526060518060a083015260005b8181106134d05750606060c08260008260809587010152601f8019910116840101946001600160401b0381511660208501526001600160a01b03602082015116604085015263ffffffff604082015116828501520151910152565b608081015183820160c00152602001613475565b9190916001600160601b038080941691160191821161288457565b1561350657565b60405162461bcd60e51b815260206004820152603a60248201527f55736572206973206e6f7420617070726f76656420746f207472616e7366657260448201527f204c494e4b20746f2066756e6374696f6e73206d616e616765720000000000006064820152608490fd5b1561357857565b60405162461bcd60e51b815260206004820152603160248201527f596f7520646f206e6f74206861766520656e6f756768204c494e4b20746f206360448201527f616c6c20746869732066756e6374696f6e0000000000000000000000000000006064820152608490fd5b604051906135f082610279565b601482527f5472616e7366657272696e67202564204c494e4b0000000000000000000000006020830152565b1561362357565b60405162461bcd60e51b815260206004820152602260248201527f4661696c656420746f20636f6c6c65637420666565732066726f6d2063616c6c60448201526132b960f11b6064820152608490fd5b6040519061368082610279565b601c82527f726573657276656420737562736372697074696f6e20666565202564000000006020830152565b9190916001600160601b038080941691160291821691820361288457565b6001600160601b03918216908216039190821161288457565b6001600160601b038091169081146128845760010190565b6040519061370882610279565b601982527f73656e64696e672066756e6374696f6e732072657175657374000000000000006020830152565b1561373b57565b60405162461bcd60e51b815260206004820152601960248201527f5265717565737420494420616c726561647920657869737473000000000000006044820152606490fd5b6040519061378d8261023d565b6060610100836000808252806020830152806040830152808483015280608083015260a08201528260c08201528260e08201520152565b60076101006102fd93805184556137e8612cff60208301516001600160a01b031690565b6040810151600285015561382360038501613810612e8460608501516001600160601b031690565b60808301516001600160601b03166120b9565b61385961383a60a08301516001600160601b031690565b60048601906001600160601b03166001600160601b0319825416179055565b61386a60c082015160058601612bf4565b61387b60e082015160068601612b10565b01519101612b10565b6040519061389182610279565b601d82527f656d697474696e672046756e6374696f6e43616c6c6564206576656e740000006020830152565b9395929083916001600160a01b0360c087019216865260009760209489868901526001600160601b03928380921660408a015216606088015216608086015260c060a08601525260e083019260e08360051b820101958581925b85841061392957505050505050505090565b909192939495969760df198282030188528835601e198436030181121561398b57830186813591016001600160401b0382116139875781360381136139875761397760019389938493612591565b9a01980196959401929190613917565b8580fd5b8480fd5b613a4e9061399e6103da61319a565b6139a781615886565b6139be6104fe826000526005602052604060002090565b936139e36001600160a01b036139db87516001600160a01b031690565b1615156132c9565b6139ff6139fa836000526007602052604060002090565b61336a565b81613f5c575b613a106103da6133df565b613a18613418565b94613a2e610413600b546001600160a01b031690565b95604051809763f1e14a2160e01b825281806020998a9560048301613462565b03915afa95861561078657600096613f2d575b506040870192613a7884516001600160601b031690565b92613a8d6104138a516001600160a01b031690565b3314613f24575b613a9e84896134e4565b94878a0190613ab482516001600160401b031690565b96613aca610413600a546001600160a01b031690565b604051636eb1769f60e11b815233600482015230602482015290918b82604481865afa908115610786578c92600092613f05575b506001600160601b0393613b17858316809410156134ff565b6040516370a0823160e01b8082523360048301529481602481855afa8015610786578f91613b5792600092613ee8575b505033613b5261311b565b615a30565b6040519384523360048501528d84602481845afa91821561078657613b9e8f94613b9181613bd6966000998a91613ecb575b501015613571565b613b996135e3565b6158f6565b6040516323b872dd60e01b81523360048201523060248201526001600160601b03909116604482015293849283919082906064820190565b03925af1801561078657613bf291600091613eae575b5061361c565b613c0f886001600160401b03166000526009602052604060002090565b546001600160601b031690613c22613673565b9116613c2d916158f6565b516001600160601b0316600d5460601c63ffffffff1663ffffffff16613c52916136ac565b60646001600160601b039091160495613c7e906001600160401b03166000526009602052604060002090565b8054613c94908b906001600160601b03166134e4565b81546bffffffffffffffffffffffff19166001600160601b03909116179055600d5486906001600160601b031690613ccb916134e4565b613ceb906001600160601b03166001600160601b0319600d541617600d55565b613cf586866136ca565b60a08b01908151613d0c906001600160601b031690565b90613d16916134e4565b6001600160601b0316905260808a0180516001600160401b0316613d3990613072565b6001600160401b03169052600e546001600160601b0316613d59906136e3565b613d79906001600160601b03166001600160601b0319600e541617600e55565b89613d8e886000526005602052604060002090565b90613d9891612dc6565b613da06136fb565b613da9906158c8565b516001600160401b0316600e5460c01c63ffffffff1690613dc992614a57565b978896613de0886000526006602052604060002090565b5415613deb90613734565b613df3613780565b8781523391810191909152613e09368486611e8f565b60c08201526001600160601b03891660808201526001600160601b03851660608201526001600160601b03861660a0820152613e4f886000526006602052604060002090565b90613e59916137c4565b613e61613884565b613e6a906158c8565b516001600160a01b0316916040519485943399613e8795876138bd565b037ff874b0680e8c93e38d3d8352564c64b6b6b6e6c1ce8faa98832ed5804980d0e791a490565b613ec591508c8d3d10610b7757610b6d81836102af565b38613bec565b613ee29150893d8b116115545761154681836102af565b38613b89565b613efe9250803d106115545761154681836102af565b8f80613b47565b613f1d919250833d85116115545761154681836102af565b9038613afe565b60009350613a94565b613f4e919650853d8711613f55575b613f4681836102af565b81019061344d565b9438613a61565b503d613f3c565b613f70613f6a368488611e8f565b82614619565b613a05565b15613f7c57565b60405162461bcd60e51b815260206004820152604a60248201527f4f6e6c7920746865206f776e6572206f7220616e20617574686f72697a65642060448201527f636f6e73756d6572206f662074686520737562736372697074696f6e2063616e60648201527f20726566696c6c20697400000000000000000000000000000000000000000000608482015260a490fd5b6040519061401a82610294565b603782527f6c6c20617661696c61626c652062616c616e63652025640000000000000000006040837f526566696c6c696e6720737562736372697074696f6e2025642077697468206160208201520152565b614074612752565b906140896001600160401b03821680936158f6565b61409e610413600b546001600160a01b031690565b60405163523e3b4b60e11b81526001600160401b038316600482015290926000918281602481885afa90811561078657839084926142f5575b503033149586156142e0575b5085156142be575b85156142a9575b50841561423c575b50916141e69161415860209461411261421197613f75565b61413f614132856001600160401b03166000526009602052604060002090565b546001600160601b031690565b906001600160601b0361415061400d565b921691615985565b614178614132836001600160401b03166000526009602052604060002090565b906141996120e8846001600160401b03166000526009602052604060002090565b6141ae610413600a546001600160a01b031690565b926141f46141c7610413600b546001600160a01b031690565b916040519687918983019190916001600160401b036020820193169052565b03601f1981018752866102af565b604051630200057560e51b8152968795869485936004850161316c565b03925af18015610786576142225750565b6142399060203d8111610b7757610b6d81836102af565b50565b825b815181101561429057336142586104136116178486612889565b1461426b5761426690612875565b61423e565b50506142119350916141e69161415860209461411260015b97505092945050916140fa565b5050916141e69161415860209461411261421197614283565b6001600160a01b0391955016331493386140f2565b94506142d8610413610413600c546001600160a01b031690565b3314946140eb565b6001600160a01b0391965016331494386140e3565b905061430b91503d8085833e61077681836102af565b9150386140d7565b6040519061432082610294565b603182527f734d616e61676572206f776e65722025730000000000000000000000000000006040837f5769746864726177696e6720616c6c206665657320746f2046756e6374696f6e60208201520152565b1561437957565b60405162461bcd60e51b815260206004820152606860248201527f4d7573742062652046756e6374696f6e734d616e616765722c2046756e63746960448201527f6f6e734d616e61676572206f776e65722c206f722066756e6374696f6e206f7760648201527f6e657220746f2077697468647261772070726f66697420746f2066756e63746960848201527f6f6e206f776e657200000000000000000000000000000000000000000000000060a482015260c490fd5b60005b81518110156144a2576144468183612889565b5190303b1561035e57604091825190630f9acbfd60e11b8252600482015260008160248183305af1801561078657614489575b506144849150612875565b614433565b6001600160401b03811161025957614484925238614479565b5050565b9061456860076144b46102f0565b93805485526144e06144d060018301546001600160a01b031690565b6001600160a01b03166020870152565b6002810154604086015260038101546001600160601b0380821660608801526145199160601c1660808701906001600160601b03169052565b61454061453060048301546001600160601b031690565b6001600160601b031660a0870152565b61454c60058201613315565b60c086015261455d600682016107e4565b60e0860152016107e4565b610100830152565b600090808252600660205261458b60076040842001546107aa565b6145a55760408260069261037e94528260205220016107e4565b60408260079261037e9452600660205220016107e4565b908351156145e1576060926145d46145dd92846126e1565b604083016126f7565b0152565b6040516322ce3edd60e01b8152600490fd5b815115614607576001602082015260800152565b60405163e889636f60e01b8152600490fd5b8151156146265760a00152565b60405163fe936cb760e01b8152600490fd5b6001600160401b0361468e949260209461465d6001600160a01b03600054169461483f565b9463ffffffff6040519889978896879663d227d24560e01b885216600487015260806024870152608486019061090b565b92166044840152606483015203915afa908115610786576000916146b0575090565b61037e915060203d8111613f5557613f4681836102af565b604051906146d582610279565b6000602083606081520152565b604051906146ef82610279565b60006020836146fc6146c8565b81520152565b6040519061470f82610279565b600c82527f636f64654c6f636174696f6e00000000000000000000000000000000000000006020830152565b6040519061474882610279565b600882527f6c616e67756167650000000000000000000000000000000000000000000000006020830152565b6040519061478182610279565b600682527f736f7572636500000000000000000000000000000000000000000000000000006020830152565b604051906147ba82610279565b60048252636172677360e01b6020830152565b604051906147da82610279565b600f82527f736563726574734c6f636174696f6e00000000000000000000000000000000006020830152565b6040519061481382610279565b600782527f73656372657473000000000000000000000000000000000000000000000000006020830152565b6148476146e2565b906148528251614e55565b5061486461485e614702565b83615547565b6148818151614872816108ba565b61487b816108ba565b83614ed4565b61488c61485e61473b565b6148a6604082015161489d816108d1565b61487b816108d1565b6148b161485e614774565b6148bf606082015183615547565b60a0810180515161495f575b5060808101908151516148e0575b5050515190565b6020019081516148ef816108ba565b6148f8816108ba565b1561494d5761492e6149469261491561490f6147cd565b86615547565b5161491f816108ba565b614928816108ba565b84614ed4565b61493f614939614806565b84615547565b5182615495565b38806148d9565b60405163a80d31f760e01b8152600490fd5b9261496b6149396147ad565b614974836155cb565b60005b845180518210156149a4579061499a6149938261499f94612889565b5186615547565b612875565b614977565b505092506149b182615657565b386148cb565b604051906149c482610294565b602982527f6c69656e74206c696200000000000000000000000000000000000000000000006040837f53656e64696e6720726571756573742066726f6d2066756e6374696f6e73206360208201520152565b916125d363ffffffff916001600160401b0360409497969716855260606020860152606085019061090b565b9081602091031261035e575161037e81612142565b614aab9291614a676103da6149b7565b6000938492614a89614a8361041386546001600160a01b031690565b9161483f565b94604051968780948193630a090ac160e21b83526020998a9860048501614a16565b03925af1928315610786578193614b83575b508082614ad6610413600494546001600160a01b031690565b604051635ab1bd5360e01b815293849182905afa9283156107865784937f1131472297a800fee664d1d89cfa8f7676ff07189ecc53f80bbb5f4969099db893614b51928492614b56575b5050614b36856000526001602052604060002090565b906001600160a01b03166001600160a01b0319825416179055565b80a290565b614b759250803d10614b7c575b614b6d81836102af565b810190614a42565b3880614b20565b503d614b63565b6004919350614b9e90833d85116115545761154681836102af565b9290614abd565b60405190614bb282610279565b601282527f66756c66696c6c696e67207265717565737400000000000000000000000000006020830152565b60405190614beb82610294565b603382527f63616c6c2066756c66696c6c52657175657374000000000000000000000000006040837f436865636b696e6720696620257320697320617574686f72697a656420746f2060208201520152565b15614c4457565b60405162461bcd60e51b815260206004820152603260248201527f4f6e6c7920746865202042696c6c696e672052656769737472792063616e206360448201527f616c6c2066756c66696c6c5265717565737400000000000000000000000000006064820152608490fd5b15614cb657565b60405162461bcd60e51b815260206004820152602560248201527f52657175657374206e6f7420666f756e6420696e2046756e6374696f6e734d6160448201527f6e616765720000000000000000000000000000000000000000000000000000006064820152608490fd5b15614d2857565b60405162461bcd60e51b815260206004820152602660248201527f46756e6374696f6e206e6f7420666f756e6420696e2046756e6374696f6e734d60448201527f616e6167657200000000000000000000000000000000000000000000000000006064820152608490fd5b60405190614da082610294565b603b82527f67206966206e6565642066696c6c20737562736372697074696f6e00000000006040837f46696e697368656420756e6c6f636b696e6720666565732c20636865636b696e60208201520152565b9261037e94926001600160a01b03614e1d93168552602085015260806040850152608084019061090b565b91606081840391015261090b565b601f1981019190821161288457565b906020820180921161288457565b9190820180921161288457565b614e5d6146c8565b50610100602082015260405180825260008152610120810190811061035e5760405290565b90614e8b6146c8565b50601f811680614eba575b508060208301526040519081835260008252810160200190811061035e5760405290565b602003602081116128845781018091116128845738614e96565b90815191614ee06146c8565b508251516001810190818111612884576020850151811015614f39575b60c260206102fd9651928301015380518211614f31575b505060405191602083015260208252614f2c82610279565b615495565b523880614f14565b8160011b948286046002148315171561288457602081614f6b6102fd98614f6460c295519184614e82565b50826153dd565b5096505050614efd565b614f7d6146c8565b508051516001810190818111612884576020830151811015614fb6575b605b60208451928301015380518211614fb257505090565b5290565b8160011b8281046002148315171561288457614fdf90614fd885519186614e82565b50846153dd565b50614f9a565b614fed6146c8565b508051516001810190818111612884576020830151811015615022575b605a60208451928301015380518211614fb257505090565b8160011b828104600214831517156128845761504490614fd885519186614e82565b5061500a565b6150526146c8565b508051516001810190818111612884576020830151811015615087575b605960208451928301015380518211614fb257505090565b8160011b82810460021483151715612884576150a990614fd885519186614e82565b5061506f565b6150b76146c8565b5080515160018101908181116128845760208301518110156150ec575b605860208451928301015380518211614fb257505090565b8160011b828104600214831517156128845761510e90614fd885519186614e82565b506150d4565b61511c6146c8565b508051516001810190818111612884576020830151811015615151575b607b60208451928301015380518211614fb257505090565b8160011b828104600214831517156128845761517390614fd885519186614e82565b50615139565b6151816146c8565b5080515160018101908181116128845760208301518110156151b6575b607a60208451928301015380518211614fb257505090565b8160011b82810460021483151715612884576151d890614fd885519186614e82565b5061519e565b6151e66146c8565b50805151600181019081811161288457602083015181101561521b575b607960208451928301015380518211614fb257505090565b8160011b828104600214831517156128845761523d90614fd885519186614e82565b50615203565b61524b6146c8565b508051516001810190818111612884576020830151811015615280575b607860208451928301015380518211614fb257505090565b8160011b82810460021483151715612884576152a290614fd885519186614e82565b50615268565b906152b16146c8565b5081515160018101918282116128845760208401518210156152e4575b60208451928301015380518211614fb257505090565b8260011b838104600214841517156128845761530d9061530686519187614e82565b50856153dd565b506152ce565b9061532082519183614e82565b506153296146c8565b508051906153356146c8565b50615343815183111561548e565b825151926153518385614e48565b9160209282848094015182116153c6575b51838151978201019682116153be575b505001915b818110156153985760001991036101000a0190811990511690825116179052565b91926153b36153ad6153b99286518152614e3a565b94614e3a565b92614e2b565b615377565b523880615372565b6153d86153d283612bde565b82615313565b615362565b906153e66146c8565b5080516153f16146c8565b506153ff825182111561548e565b8251519161540d8284614e48565b6020918291828701518111615477575b86518381519782010196821161546f575b505001915b818110156154555760001991036101000a019081199051169082511617905290565b91926153b36153ad61546a9286518152614e3a565b615433565b52388061542e565b61548961548382612bde565b88615313565b61541d565b1561035e57565b81516142399291906001600160401b03811690601782116154cc576154c49150604060ff8451921617906152a8565b505b516153dd565b5060ff81116154f1576154eb906154e383516150af565b508251615820565b506154c6565b61ffff8111615510576154eb90615508835161504a565b5082516157b9565b63ffffffff8111615531576154eb906155298351614fe5565b508251615750565b6154eb9061553f8351614f75565b5082516156e4565b81516142399291906001600160401b0381169060178211615576576154c49150606060ff8451921617906152a8565b5060ff811161558d576154eb906154e38351615243565b61ffff81116155a4576154eb9061550883516151de565b63ffffffff81116155bd576154eb906155298351615179565b6154eb9061553f8351615114565b8051906155d66146c8565b508151516001810190818111612884576020840151811015615624575b609f602080955192830101538051821161561c575b505001805190600182018092116128845752565b523880615608565b8160011b93828504600214831517156128845760208161564d8297614f64609f95519184614e82565b50955050506155f3565b8051906156626146c8565b5081515160018101908181116128845760208401518110156156b1575b60ff60208095519283010153805182116156a9575b50500180516000198101919082116128845752565b523880615694565b8160011b9382850460021483151715612884576020816156da8297614f6460ff95519184614e82565b509550505061567f565b906156ed6146c8565b50815151806008019182600811612884576020840151831161572f575b6008845192830101906001600160401b031982511617905280518211614fb257505090565b8260011b838104600214841517156128845761574b9085615313565b61570a565b906157596146c8565b508151518060040191826004116128845760208401518311615798575b60048451928301019063ffffffff1982511617905280518211614fb257505090565b8260011b83810460021484151715612884576157b49085615313565b615776565b906157c26146c8565b5081515180600201918260021161288457602084015183116157ff575b60028451928301019061ffff1982511617905280518211614fb257505090565b8260011b838104600214841517156128845761581b9085615313565b6157df565b906158296146c8565b508151518060010191826001116128845760208401518311615865575b60018451928301019060ff1982511617905280518211614fb257505090565b8260011b83810460021484151715612884576158819085615313565b615846565b6102fd90604051906327b7cf8560e01b60208301526024820152602481526158ad81610294565b600080916020815191016a636f6e736f6c652e6c6f675afa50565b6113186158ad6102fd9260405192839163104c13eb60e21b602084015260206024840152604483019061090b565b6158ad615925916102fd93604051938492632d839cb360e21b602085015260406024850152606484019061090b565b90604483015203601f1981018352826102af565b6158ad615970916102fd936001600160a01b0360405194859363319af33360e01b602086015260406024860152606485019061090b565b9116604483015203601f1981018352826102af565b6158ad906159b5926102fd9460405194859363ca47c4eb60e01b602086015260606024860152608485019061090b565b916044840152606483015203601f1981018352826102af565b6158ad906102fd936001600160a01b03615a1b615a09956040519687956395ed019560e01b602088015260606024880152608487019061090b565b8581036023190160448701529061090b565b9116606483015203601f1981018352826102af565b6158ad90615a68926102fd946001600160a01b03604051958694630d26b92560e01b602087015260606024870152608486019061090b565b92166044840152606483015203601f1981018352826102af56fea264697066735822122019115e332ab600eefe31c2c53437684cb2670caaeb82bbf76a94a8699ae5b81b64736f6c63430008120033",
  "linkReferences": {},
  "deployedLinkReferences": {}
}