{
  "_format": "hh-sol-artifact-1",
  "contractName": "FunctionsManager",
  "sourceName": "contracts/FunctionsManager.sol",
  "abi": [
    {
      "inputs": [
        {
          "internalType": "address",
          "name": "link",
          "type": "address"
        },
        {
          "internalType": "address",
          "name": "billingRegistryProxy",
          "type": "address"
        },
        {
          "internalType": "address",
          "name": "oracleProxy",
          "type": "address"
        },
        {
          "internalType": "uint96",
          "name": "_baseFee",
          "type": "uint96"
        },
        {
          "internalType": "uint32",
          "name": "_feeManagerCut",
          "type": "uint32"
        },
        {
          "internalType": "uint96",
          "name": "_minimumSubscriptionBalance",
          "type": "uint96"
        },
        {
          "internalType": "uint32",
          "name": "_maxGasLimit",
          "type": "uint32"
        }
      ],
      "stateMutability": "nonpayable",
      "type": "constructor"
    },
    {
      "inputs": [],
      "name": "EmptyArgs",
      "type": "error"
    },
    {
      "inputs": [],
      "name": "EmptySecrets",
      "type": "error"
    },
    {
      "inputs": [],
      "name": "EmptySource",
      "type": "error"
    },
    {
      "inputs": [],
      "name": "NoInlineSecrets",
      "type": "error"
    },
    {
      "inputs": [],
      "name": "RequestIsAlreadyPending",
      "type": "error"
    },
    {
      "inputs": [],
      "name": "RequestIsNotPending",
      "type": "error"
    },
    {
      "inputs": [],
      "name": "SenderIsNotRegistry",
      "type": "error"
    },
    {
      "anonymous": false,
      "inputs": [
        {
          "indexed": false,
          "internalType": "uint96",
          "name": "newBaseFee",
          "type": "uint96"
        }
      ],
      "name": "BaseFeeUpdated",
      "type": "event"
    },
    {
      "anonymous": false,
      "inputs": [
        {
          "indexed": false,
          "internalType": "uint32",
          "name": "newFeeManagerCut",
          "type": "uint32"
        }
      ],
      "name": "FeeManagerCutUpdated",
      "type": "event"
    },
    {
      "anonymous": false,
      "inputs": [
        {
          "indexed": false,
          "internalType": "bytes32",
          "name": "requestId",
          "type": "bytes32"
        },
        {
          "indexed": false,
          "internalType": "bytes",
          "name": "response",
          "type": "bytes"
        },
        {
          "indexed": false,
          "internalType": "bytes",
          "name": "err",
          "type": "bytes"
        }
      ],
      "name": "FulfillRequest",
      "type": "event"
    },
    {
      "anonymous": false,
      "inputs": [
        {
          "indexed": true,
          "internalType": "bytes32",
          "name": "functionId",
          "type": "bytes32"
        },
        {
          "indexed": true,
          "internalType": "bytes32",
          "name": "requestId",
          "type": "bytes32"
        },
        {
          "indexed": true,
          "internalType": "address",
          "name": "caller",
          "type": "address"
        },
        {
          "indexed": false,
          "internalType": "address",
          "name": "owner",
          "type": "address"
        },
        {
          "indexed": false,
          "internalType": "bytes32",
          "name": "callbackFunction",
          "type": "bytes32"
        },
        {
          "indexed": false,
          "internalType": "bytes",
          "name": "response",
          "type": "bytes"
        },
        {
          "indexed": false,
          "internalType": "bytes",
          "name": "err",
          "type": "bytes"
        }
      ],
      "name": "FunctionCallCompleted",
      "type": "event"
    },
    {
      "anonymous": false,
      "inputs": [
        {
          "indexed": true,
          "internalType": "bytes32",
          "name": "functionId",
          "type": "bytes32"
        },
        {
          "indexed": true,
          "internalType": "bytes32",
          "name": "requestId",
          "type": "bytes32"
        },
        {
          "indexed": true,
          "internalType": "address",
          "name": "caller",
          "type": "address"
        },
        {
          "indexed": false,
          "internalType": "address",
          "name": "owner",
          "type": "address"
        },
        {
          "indexed": false,
          "internalType": "bytes32",
          "name": "callbackFunction",
          "type": "bytes32"
        },
        {
          "indexed": false,
          "internalType": "uint96",
          "name": "baseFee",
          "type": "uint96"
        },
        {
          "indexed": false,
          "internalType": "uint96",
          "name": "fee",
          "type": "uint96"
        }
      ],
      "name": "FunctionCalled",
      "type": "event"
    },
    {
      "anonymous": false,
      "inputs": [
        {
          "indexed": true,
          "internalType": "bytes32",
          "name": "functionId",
          "type": "bytes32"
        },
        {
          "indexed": true,
          "internalType": "address",
          "name": "owner",
          "type": "address"
        },
        {
          "indexed": true,
          "internalType": "bytes32",
          "name": "category",
          "type": "bytes32"
        },
        {
          "components": [
            {
              "internalType": "address",
              "name": "owner",
              "type": "address"
            },
            {
              "internalType": "bytes32",
              "name": "category",
              "type": "bytes32"
            },
            {
              "internalType": "enum FunctionsManager.ReturnTypes",
              "name": "expectedReturnType",
              "type": "uint8"
            },
            {
              "internalType": "string",
              "name": "name",
              "type": "string"
            },
            {
              "internalType": "string",
              "name": "desc",
              "type": "string"
            },
            {
              "internalType": "string",
              "name": "imageUrl",
              "type": "string"
            },
            {
              "internalType": "string[]",
              "name": "expectedArgs",
              "type": "string[]"
            }
          ],
          "indexed": false,
          "internalType": "struct FunctionsManager.FunctionMetadata",
          "name": "metadata",
          "type": "tuple"
        }
      ],
      "name": "FunctionRegistered",
      "type": "event"
    },
    {
      "anonymous": false,
      "inputs": [
        {
          "indexed": false,
          "internalType": "uint32",
          "name": "newMaxGasLimit",
          "type": "uint32"
        }
      ],
      "name": "MaxGasLimitUpdated",
      "type": "event"
    },
    {
      "anonymous": false,
      "inputs": [
        {
          "indexed": false,
          "internalType": "uint96",
          "name": "newMinimumSubscriptionBalance",
          "type": "uint96"
        }
      ],
      "name": "MinimumSubscriptionBalanceUpdated",
      "type": "event"
    },
    {
      "anonymous": false,
      "inputs": [
        {
          "indexed": true,
          "internalType": "address",
          "name": "from",
          "type": "address"
        },
        {
          "indexed": true,
          "internalType": "address",
          "name": "to",
          "type": "address"
        }
      ],
      "name": "OwnershipTransferRequested",
      "type": "event"
    },
    {
      "anonymous": false,
      "inputs": [
        {
          "indexed": true,
          "internalType": "address",
          "name": "from",
          "type": "address"
        },
        {
          "indexed": true,
          "internalType": "address",
          "name": "to",
          "type": "address"
        }
      ],
      "name": "OwnershipTransferred",
      "type": "event"
    },
    {
      "anonymous": false,
      "inputs": [
        {
          "indexed": true,
          "internalType": "bytes32",
          "name": "id",
          "type": "bytes32"
        }
      ],
      "name": "RequestFulfilled",
      "type": "event"
    },
    {
      "anonymous": false,
      "inputs": [
        {
          "indexed": true,
          "internalType": "bytes32",
          "name": "id",
          "type": "bytes32"
        }
      ],
      "name": "RequestSent",
      "type": "event"
    },
    {
      "inputs": [],
      "name": "acceptOwnership",
      "outputs": [],
      "stateMutability": "nonpayable",
      "type": "function"
    },
    {
      "inputs": [
        {
          "internalType": "address",
          "name": "_spender",
          "type": "address"
        },
        {
          "internalType": "uint256",
          "name": "_value",
          "type": "uint256"
        }
      ],
      "name": "approveTokenSpender",
      "outputs": [],
      "stateMutability": "nonpayable",
      "type": "function"
    },
    {
      "inputs": [
        {
          "internalType": "address",
          "name": "",
          "type": "address"
        }
      ],
      "name": "authorMetadata",
      "outputs": [
        {
          "internalType": "string",
          "name": "name",
          "type": "string"
        },
        {
          "internalType": "string",
          "name": "imageUrl",
          "type": "string"
        },
        {
          "internalType": "string",
          "name": "websiteUrl",
          "type": "string"
        }
      ],
      "stateMutability": "view",
      "type": "function"
    },
    {
      "inputs": [],
      "name": "baseFee",
      "outputs": [
        {
          "internalType": "uint96",
          "name": "",
          "type": "uint96"
        }
      ],
      "stateMutability": "view",
      "type": "function"
    },
    {
      "inputs": [
        {
          "internalType": "string",
          "name": "functionName",
          "type": "string"
        },
        {
          "internalType": "address",
          "name": "owner",
          "type": "address"
        }
      ],
      "name": "calculateFunctionId",
      "outputs": [
        {
          "internalType": "bytes32",
          "name": "",
          "type": "bytes32"
        }
      ],
      "stateMutability": "pure",
      "type": "function"
    },
    {
      "inputs": [
        {
          "components": [
            {
              "internalType": "uint96",
              "name": "fees",
              "type": "uint96"
            },
            {
              "internalType": "string",
              "name": "functionName",
              "type": "string"
            },
            {
              "internalType": "string",
              "name": "desc",
              "type": "string"
            },
            {
              "internalType": "string",
              "name": "imageUrl",
              "type": "string"
            },
            {
              "internalType": "string",
              "name": "source",
              "type": "string"
            },
            {
              "internalType": "string[]",
              "name": "expectedArgs",
              "type": "string[]"
            },
            {
              "internalType": "enum Functions.Location",
              "name": "codeLocation",
              "type": "uint8"
            },
            {
              "internalType": "enum Functions.Location",
              "name": "secretsLocation",
              "type": "uint8"
            },
            {
              "internalType": "enum Functions.CodeLanguage",
              "name": "language",
              "type": "uint8"
            },
            {
              "internalType": "bytes32",
              "name": "category",
              "type": "bytes32"
            },
            {
              "internalType": "uint64",
              "name": "subId",
              "type": "uint64"
            },
            {
              "internalType": "enum FunctionsManager.ReturnTypes",
              "name": "expectedReturnType",
              "type": "uint8"
            },
            {
              "internalType": "bytes",
              "name": "secrets",
              "type": "bytes"
            }
          ],
          "internalType": "struct FunctionsManager.FunctionsRegisterRequest",
          "name": "request",
          "type": "tuple"
        },
        {
          "internalType": "address",
          "name": "owner",
          "type": "address"
        }
      ],
      "name": "calculateFunctionIdFromRequest",
      "outputs": [
        {
          "internalType": "bytes32",
          "name": "",
          "type": "bytes32"
        }
      ],
      "stateMutability": "pure",
      "type": "function"
    },
    {
      "inputs": [
        {
          "components": [
            {
              "internalType": "enum Functions.Location",
              "name": "codeLocation",
              "type": "uint8"
            },
            {
              "internalType": "enum Functions.Location",
              "name": "secretsLocation",
              "type": "uint8"
            },
            {
              "internalType": "enum Functions.CodeLanguage",
              "name": "language",
              "type": "uint8"
            },
            {
              "internalType": "string",
              "name": "source",
              "type": "string"
            },
            {
              "internalType": "bytes",
              "name": "secrets",
              "type": "bytes"
            },
            {
              "internalType": "string[]",
              "name": "args",
              "type": "string[]"
            }
          ],
          "internalType": "struct Functions.Request",
          "name": "req",
          "type": "tuple"
        },
        {
          "internalType": "uint64",
          "name": "subscriptionId",
          "type": "uint64"
        },
        {
          "internalType": "uint32",
          "name": "gasLimit",
          "type": "uint32"
        },
        {
          "internalType": "uint256",
          "name": "gasPrice",
          "type": "uint256"
        }
      ],
      "name": "estimateCost",
      "outputs": [
        {
          "internalType": "uint96",
          "name": "",
          "type": "uint96"
        }
      ],
      "stateMutability": "view",
      "type": "function"
    },
    {
      "inputs": [
        {
          "internalType": "bytes32",
          "name": "functionId",
          "type": "bytes32"
        },
        {
          "internalType": "string[]",
          "name": "args",
          "type": "string[]"
        }
      ],
      "name": "executeRequest",
      "outputs": [
        {
          "internalType": "bytes32",
          "name": "",
          "type": "bytes32"
        }
      ],
      "stateMutability": "nonpayable",
      "type": "function"
    },
    {
      "inputs": [],
      "name": "feeManagerCut",
      "outputs": [
        {
          "internalType": "uint32",
          "name": "",
          "type": "uint32"
        }
      ],
      "stateMutability": "view",
      "type": "function"
    },
    {
      "inputs": [
        {
          "internalType": "bytes32",
          "name": "functionId",
          "type": "bytes32"
        }
      ],
      "name": "forceUnlockFees",
      "outputs": [],
      "stateMutability": "nonpayable",
      "type": "function"
    },
    {
      "inputs": [
        {
          "internalType": "bytes32",
          "name": "",
          "type": "bytes32"
        }
      ],
      "name": "functionExecuteMetadatas",
      "outputs": [
        {
          "internalType": "address",
          "name": "owner",
          "type": "address"
        },
        {
          "internalType": "uint64",
          "name": "subId",
          "type": "uint64"
        },
        {
          "internalType": "uint96",
          "name": "fee",
          "type": "uint96"
        },
        {
          "internalType": "uint96",
          "name": "unlockedProfitPool",
          "type": "uint96"
        },
        {
          "internalType": "uint64",
          "name": "functionsCalledCount",
          "type": "uint64"
        },
        {
          "internalType": "uint96",
          "name": "lockedProfitPool",
          "type": "uint96"
        },
        {
          "internalType": "uint96",
          "name": "totalFeesCollected",
          "type": "uint96"
        },
        {
          "internalType": "uint64",
          "name": "successfulResponseCount",
          "type": "uint64"
        },
        {
          "internalType": "uint64",
          "name": "failedResponseCount",
          "type": "uint64"
        }
      ],
      "stateMutability": "view",
      "type": "function"
    },
    {
      "inputs": [],
      "name": "functionManagerProfitPool",
      "outputs": [
        {
          "internalType": "uint96",
          "name": "",
          "type": "uint96"
        }
      ],
      "stateMutability": "view",
      "type": "function"
    },
    {
      "inputs": [
        {
          "internalType": "bytes32",
          "name": "",
          "type": "bytes32"
        }
      ],
      "name": "functionMetadatas",
      "outputs": [
        {
          "internalType": "address",
          "name": "owner",
          "type": "address"
        },
        {
          "internalType": "bytes32",
          "name": "category",
          "type": "bytes32"
        },
        {
          "internalType": "enum FunctionsManager.ReturnTypes",
          "name": "expectedReturnType",
          "type": "uint8"
        },
        {
          "internalType": "string",
          "name": "name",
          "type": "string"
        },
        {
          "internalType": "string",
          "name": "desc",
          "type": "string"
        },
        {
          "internalType": "string",
          "name": "imageUrl",
          "type": "string"
        }
      ],
      "stateMutability": "view",
      "type": "function"
    },
    {
      "inputs": [
        {
          "internalType": "bytes32",
          "name": "",
          "type": "bytes32"
        }
      ],
      "name": "functionResponses",
      "outputs": [
        {
          "internalType": "bytes32",
          "name": "functionId",
          "type": "bytes32"
        },
        {
          "internalType": "address",
          "name": "caller",
          "type": "address"
        },
        {
          "internalType": "bytes32",
          "name": "callbackFunction",
          "type": "bytes32"
        },
        {
          "internalType": "bytes",
          "name": "response",
          "type": "bytes"
        },
        {
          "internalType": "bytes",
          "name": "err",
          "type": "bytes"
        }
      ],
      "stateMutability": "view",
      "type": "function"
    },
    {
      "inputs": [],
      "name": "functionsCalledCount",
      "outputs": [
        {
          "internalType": "uint96",
          "name": "",
          "type": "uint96"
        }
      ],
      "stateMutability": "view",
      "type": "function"
    },
    {
      "inputs": [],
      "name": "functionsRegisteredCount",
      "outputs": [
        {
          "internalType": "uint64",
          "name": "",
          "type": "uint64"
        }
      ],
      "stateMutability": "view",
      "type": "function"
    },
    {
      "inputs": [],
      "name": "getDONPublicKey",
      "outputs": [
        {
          "internalType": "bytes",
          "name": "",
          "type": "bytes"
        }
      ],
      "stateMutability": "view",
      "type": "function"
    },
    {
      "inputs": [
        {
          "internalType": "bytes32",
          "name": "_functionId",
          "type": "bytes32"
        }
      ],
      "name": "getFunctionExecuteMetadata",
      "outputs": [
        {
          "components": [
            {
              "internalType": "address",
              "name": "owner",
              "type": "address"
            },
            {
              "internalType": "uint64",
              "name": "subId",
              "type": "uint64"
            },
            {
              "internalType": "uint96",
              "name": "fee",
              "type": "uint96"
            },
            {
              "internalType": "uint96",
              "name": "unlockedProfitPool",
              "type": "uint96"
            },
            {
              "internalType": "uint64",
              "name": "functionsCalledCount",
              "type": "uint64"
            },
            {
              "internalType": "uint96",
              "name": "lockedProfitPool",
              "type": "uint96"
            },
            {
              "internalType": "uint96",
              "name": "totalFeesCollected",
              "type": "uint96"
            },
            {
              "internalType": "uint64",
              "name": "successfulResponseCount",
              "type": "uint64"
            },
            {
              "internalType": "uint64",
              "name": "failedResponseCount",
              "type": "uint64"
            }
          ],
          "internalType": "struct FunctionsManager.FunctionExecuteMetadata",
          "name": "",
          "type": "tuple"
        }
      ],
      "stateMutability": "view",
      "type": "function"
    },
    {
      "inputs": [
        {
          "internalType": "bytes32",
          "name": "_functionId",
          "type": "bytes32"
        }
      ],
      "name": "getFunctionMetadata",
      "outputs": [
        {
          "components": [
            {
              "internalType": "address",
              "name": "owner",
              "type": "address"
            },
            {
              "internalType": "bytes32",
              "name": "category",
              "type": "bytes32"
            },
            {
              "internalType": "enum FunctionsManager.ReturnTypes",
              "name": "expectedReturnType",
              "type": "uint8"
            },
            {
              "internalType": "string",
              "name": "name",
              "type": "string"
            },
            {
              "internalType": "string",
              "name": "desc",
              "type": "string"
            },
            {
              "internalType": "string",
              "name": "imageUrl",
              "type": "string"
            },
            {
              "internalType": "string[]",
              "name": "expectedArgs",
              "type": "string[]"
            }
          ],
          "internalType": "struct FunctionsManager.FunctionMetadata",
          "name": "",
          "type": "tuple"
        }
      ],
      "stateMutability": "view",
      "type": "function"
    },
    {
      "inputs": [
        {
          "internalType": "bytes32",
          "name": "_requestId",
          "type": "bytes32"
        }
      ],
      "name": "getFunctionResponse",
      "outputs": [
        {
          "components": [
            {
              "internalType": "bytes32",
              "name": "functionId",
              "type": "bytes32"
            },
            {
              "internalType": "address",
              "name": "caller",
              "type": "address"
            },
            {
              "internalType": "bytes32",
              "name": "callbackFunction",
              "type": "bytes32"
            },
            {
              "internalType": "bytes",
              "name": "response",
              "type": "bytes"
            },
            {
              "internalType": "bytes",
              "name": "err",
              "type": "bytes"
            }
          ],
          "internalType": "struct FunctionsManager.FunctionResponse",
          "name": "",
          "type": "tuple"
        }
      ],
      "stateMutability": "view",
      "type": "function"
    },
    {
      "inputs": [
        {
          "internalType": "uint64",
          "name": "_subscriptionId",
          "type": "uint64"
        }
      ],
      "name": "getSubscriptionBalance",
      "outputs": [
        {
          "internalType": "uint256",
          "name": "",
          "type": "uint256"
        }
      ],
      "stateMutability": "view",
      "type": "function"
    },
    {
      "inputs": [
        {
          "internalType": "bytes32",
          "name": "requestId",
          "type": "bytes32"
        },
        {
          "internalType": "bytes",
          "name": "response",
          "type": "bytes"
        },
        {
          "internalType": "bytes",
          "name": "err",
          "type": "bytes"
        }
      ],
      "name": "handleOracleFulfillment",
      "outputs": [],
      "stateMutability": "nonpayable",
      "type": "function"
    },
    {
      "inputs": [],
      "name": "maxGasLimit",
      "outputs": [
        {
          "internalType": "uint32",
          "name": "",
          "type": "uint32"
        }
      ],
      "stateMutability": "view",
      "type": "function"
    },
    {
      "inputs": [],
      "name": "minimumSubscriptionBalance",
      "outputs": [
        {
          "internalType": "uint96",
          "name": "",
          "type": "uint96"
        }
      ],
      "stateMutability": "view",
      "type": "function"
    },
    {
      "inputs": [],
      "name": "owner",
      "outputs": [
        {
          "internalType": "address",
          "name": "",
          "type": "address"
        }
      ],
      "stateMutability": "view",
      "type": "function"
    },
    {
      "inputs": [
        {
          "internalType": "uint64",
          "name": "_subscriptionId",
          "type": "uint64"
        }
      ],
      "name": "refillSubscription",
      "outputs": [],
      "stateMutability": "nonpayable",
      "type": "function"
    },
    {
      "inputs": [
        {
          "components": [
            {
              "internalType": "uint96",
              "name": "fees",
              "type": "uint96"
            },
            {
              "internalType": "string",
              "name": "functionName",
              "type": "string"
            },
            {
              "internalType": "string",
              "name": "desc",
              "type": "string"
            },
            {
              "internalType": "string",
              "name": "imageUrl",
              "type": "string"
            },
            {
              "internalType": "string",
              "name": "source",
              "type": "string"
            },
            {
              "internalType": "string[]",
              "name": "expectedArgs",
              "type": "string[]"
            },
            {
              "internalType": "enum Functions.Location",
              "name": "codeLocation",
              "type": "uint8"
            },
            {
              "internalType": "enum Functions.Location",
              "name": "secretsLocation",
              "type": "uint8"
            },
            {
              "internalType": "enum Functions.CodeLanguage",
              "name": "language",
              "type": "uint8"
            },
            {
              "internalType": "bytes32",
              "name": "category",
              "type": "bytes32"
            },
            {
              "internalType": "uint64",
              "name": "subId",
              "type": "uint64"
            },
            {
              "internalType": "enum FunctionsManager.ReturnTypes",
              "name": "expectedReturnType",
              "type": "uint8"
            },
            {
              "internalType": "bytes",
              "name": "secrets",
              "type": "bytes"
            }
          ],
          "internalType": "struct FunctionsManager.FunctionsRegisterRequest",
          "name": "request",
          "type": "tuple"
        }
      ],
      "name": "registerFunction",
      "outputs": [
        {
          "internalType": "bytes32",
          "name": "",
          "type": "bytes32"
        }
      ],
      "stateMutability": "payable",
      "type": "function"
    },
    {
      "inputs": [
        {
          "internalType": "uint96",
          "name": "_baseFee",
          "type": "uint96"
        }
      ],
      "name": "setBaseFee",
      "outputs": [],
      "stateMutability": "nonpayable",
      "type": "function"
    },
    {
      "inputs": [
        {
          "internalType": "uint32",
          "name": "_feeManagerCut",
          "type": "uint32"
        }
      ],
      "name": "setFeeManagerCut",
      "outputs": [],
      "stateMutability": "nonpayable",
      "type": "function"
    },
    {
      "inputs": [
        {
          "internalType": "uint32",
          "name": "_maxGasLimit",
          "type": "uint32"
        }
      ],
      "name": "setMaxGasLimit",
      "outputs": [],
      "stateMutability": "nonpayable",
      "type": "function"
    },
    {
      "inputs": [
        {
          "internalType": "uint96",
          "name": "_minimumSubBalance",
          "type": "uint96"
        }
      ],
      "name": "setMinimumSubscriptionBalance",
      "outputs": [],
      "stateMutability": "nonpayable",
      "type": "function"
    },
    {
      "inputs": [
        {
          "internalType": "uint64",
          "name": "",
          "type": "uint64"
        }
      ],
      "name": "subscriptionBalances",
      "outputs": [
        {
          "internalType": "uint96",
          "name": "",
          "type": "uint96"
        }
      ],
      "stateMutability": "view",
      "type": "function"
    },
    {
      "inputs": [],
      "name": "totalFeesCollected",
      "outputs": [
        {
          "internalType": "uint96",
          "name": "",
          "type": "uint96"
        }
      ],
      "stateMutability": "view",
      "type": "function"
    },
    {
      "inputs": [
        {
          "internalType": "address",
          "name": "to",
          "type": "address"
        }
      ],
      "name": "transferOwnership",
      "outputs": [],
      "stateMutability": "nonpayable",
      "type": "function"
    },
    {
      "inputs": [
        {
          "internalType": "bytes32",
          "name": "functionId",
          "type": "bytes32"
        }
      ],
      "name": "withdrawFunctionProfitToAuthor",
      "outputs": [],
      "stateMutability": "nonpayable",
      "type": "function"
    },
    {
      "inputs": [],
      "name": "withdrawFunctionsManagerProfitToOwner",
      "outputs": [],
      "stateMutability": "nonpayable",
      "type": "function"
    },
    {
      "inputs": [
        {
          "internalType": "bytes32[]",
          "name": "functionIds",
          "type": "bytes32[]"
        }
      ],
      "name": "withdrawMultipleFunctionProfitToAuthor",
      "outputs": [],
      "stateMutability": "nonpayable",
      "type": "function"
    }
  ],
  "bytecode": "0x6080346200020f57601f6200614f38819003918201601f19168301916001600160401b03831184841017620002145780849260e0946040528339810103126200020f576200004d816200022a565b906200005c602082016200022a565b906200006b604082016200022a565b926200007a606083016200023f565b90620000896080840162000254565b92620000a660c06200009e60a084016200023f565b920162000254565b9360018060a01b038097169360018060a01b031993858560005416176000553315620001ca5733856002541617600255600e549263ffffffff19601054169963ffffffff9960648b8416116200016b57816fffffffff000000000000000000000000941688600b541617600b551686600c541617600c5560601b16916c01000000000000000000000000600160e01b03191690600160801b600160e01b039060801b161717600e5560a01b1617600d551617601055604051615ee89081620002678239f35b60405162461bcd60e51b815260206004820152603160248201527f466565206d616e6167657220637574206d757374206265206c6573732074686160448201527006e206f7220657175616c20746f2031303607c1b6064820152608490fd5b60405162461bcd60e51b815260206004820152601860248201527f43616e6e6f7420736574206f776e657220746f207a65726f00000000000000006044820152606490fd5b600080fd5b634e487b7160e01b600052604160045260246000fd5b51906001600160a01b03821682036200020f57565b51906001600160601b03821682036200020f57565b519063ffffffff821682036200020f5756fe6080604052600436101561001257600080fd5b60003560e01c80630ca76175146102675780631ac67b34146102625780631f3597fa1461025d578063228764b214610258578063257912f3146102535780634351077d1461024e578063475a8b46146102495780634b5de5c4146102445780634e011def1461023f57806356fa1a2a1461023a5780635e45da231461023557806360c6d8ae146102305780636ef25c3a1461022b5780637587b1b214610226578063769748c31461022157806379ba50971461021c5780637b0caaa2146102175780638913aa6d146102125780638a3284201461020d5780638da5cb5b1461020857806396e1026114610203578063a1901523146101fe578063a350a998146101f9578063a36df5c2146101f4578063ba9c513f146101ef578063bdf47104146101ea578063be4f00cd146101e5578063c7147f81146101e0578063d328a91e146101db578063d4b39175146101d6578063d5549c8a146101d1578063d7e6a96b146101cc578063de76f053146101c7578063f2fde38b146101c2578063f3ba47eb146101bd578063f8312841146101b85763f8454cd8146101b357600080fd5b61259a565b61248b565b612464565b61239d565b612290565b61222d565b612206565b612100565b612012565b611f1a565b611e74565b611e54565b611dc1565b611d39565b611bb2565b611abf565b611a39565b6119fb565b611982565b6118d7565b6118b0565b6117e6565b61127a565b611233565b6111e0565b6111bf565b61119b565b611129565b611069565b611007565b610eeb565b610e07565b610d8a565b610cba565b610a59565b6109a5565b610406565b634e487b7160e01b600052604160045260246000fd5b60e081019081106001600160401b0382111761029d57604052565b61026c565b60a081019081106001600160401b0382111761029d57604052565b60c081019081106001600160401b0382111761029d57604052565b6001600160401b03811161029d57604052565b604081019081106001600160401b0382111761029d57604052565b606081019081106001600160401b0382111761029d57604052565b90601f801991011681019081106001600160401b0382111761029d57604052565b604051906101a082018281106001600160401b0382111761029d57604052565b6040519061036f826102bd565b565b6040519061012082018281106001600160401b0382111761029d57604052565b6001600160401b03811161029d57601f01601f191660200190565b9291926103b882610391565b916103c66040519384610321565b8294818452818301116103e3578281602093846000960137010152565b600080fd5b9080601f830112156103e357816020610403933591016103ac565b90565b346103e35760603660031901126103e3576001600160401b036004356024358281116103e35761043a9036906004016103e8565b916044359081116103e3576104539036906004016103e8565b9161046461045f614e7c565b615c62565b61047533610470614eb5565b615d05565b6001600160a01b03926104ab33856104a4610498600c546001600160a01b031690565b6001600160a01b031690565b1614614f14565b6104de846104d660016104c8876000526006602052604060002090565b01546001600160a01b031690565b161515614f85565b61052361051c61049861050f6104fe876000526006602052604060002090565b546000526005602052604060002090565b546001600160a01b031690565b1515614ff6565b61052f33610470615067565b61054b610546846000526006602052604060002090565b6146e9565b9382606086015281608086015261057585610570866000526006602052604060002090565b613ca8565b61059261058d86516000526005602052604060002090565b613792565b61059d61045f6150c6565b6106916106706105fa6105ea6105bd60408601516001600160601b031690565b6105e46105db6105d6600e5463ffffffff9060601c1690565b6150ff565b63ffffffff1690565b906139e3565b6001600160601b03606491160490565b61062860a0850161061b8361061683516001600160601b031690565b613bc6565b6001600160601b03169052565b6106496060850161061b8361064483516001600160601b031690565b6139c8565b61066560c0850161061b8361064483516001600160601b031690565b600f5460a01c6139c8565b6001600160a01b036001600160a01b0319600f549260a01b16911617600f55565b8251610836576106c460e082016106b76106b282516001600160401b031690565b6131cb565b6001600160401b03169052565b6106e2816106dd88516000526005602052604060002090565b612f20565b6106ed61045f615114565b61074a610705610498600c546001600160a01b031690565b936000602084019561071e87516001600160401b031690565b90604051808096819463523e3b4b60e11b8352600483019190916001600160401b036020820193169052565b03915afa948515610831577f46179aadb72bd1ccbb0e9ebc270c28ff7763288a733eba4fb65169a441dbf87e956107eb9360009161080e575b506001600160601b036107a761079b600d5460a01c90565b6001600160601b031690565b9116106107f0575b5087519560406107da6107cc60208c01516001600160a01b031690565b95516001600160a01b031690565b990151604051958695169985615173565b0390a4005b51610808906001600160401b0316614403565b614403565b386107af565b610829913d8091833e6108218183610321565b8101906129c1565b505038610783565b612a63565b61085261010082016106b76106b282516001600160401b031690565b6106c4565b90600182811c92168015610887575b602083101461087157565b634e487b7160e01b600052602260045260246000fd5b91607f1691610866565b90604051918260008254926108a584610857565b90818452600194858116908160001461091257506001146108cf575b505061036f92500383610321565b9093915060005260209081600020936000915b8183106108fa57505061036f935082010138806108c1565b855488840185015294850194879450918301916108e2565b91505061036f94506020925060ff191682840152151560051b82010138806108c1565b634e487b7160e01b600052602160045260246000fd5b9060048210156109585752565b610935565b60005b8381106109705750506000910152565b8181015183820152602001610960565b906020916109998151809281855285808601910161095d565b601f01601f1916010190565b346103e35760203660031901126103e357600435600052600460205260406000206001600160a01b03815416610a55600183015492610a4760ff60028301541691610a396109f560038301610891565b610a28610a106005610a0960048701610891565b9501610891565b95604051998a998a5260208a0152604089019061094b565b60c0606088015260c0870190610980565b908582036080870152610980565b9083820360a0850152610980565b0390f35b346103e35760203660031901126103e357610b686020600435610a876104986002546001600160a01b031690565b33148015610ba1575b610a9990614596565b610ac36001610ab2836000526005602052604060002090565b015460601c6001600160601b031690565b90610aff6001610add836000526005602052604060002090565b0177ffffffffffffffffffffffff000000000000000000000000198154169055565b610b2b61050f610b1a610498600b546001600160a01b031690565b926000526005602052604060002090565b600060405180968195829463a9059cbb60e01b8452600484019092916001600160601b036020916001600160a01b03604085019616845216910152565b03925af1801561083157610b7857005b610b989060203d8111610b9a575b610b908183610321565b8101906132a3565b005b503d610b86565b50610a99610bbf61049861050f846000526005602052604060002090565b33149050610a90565b908082519081815260208091019281808460051b8301019501936000915b848310610bf65750505050505090565b9091929394958480610c14600193601f198682030187528a51610980565b9801930193019194939290610be6565b9061040391602081526001600160a01b03825116602082015260208201516040820152610c596040830151606083019061094b565b610c73606083015160e06080840152610100830190610980565b9060e060c0610caa610c97608087015195601f1996878783030160a0880152610980565b60a0870151868683030184870152610980565b9401519282850301910152610bc8565b346103e35760203660031901126103e357610cd361287e565b50610cdf61045f6146b0565b6004356000526004602052610a556040600020610d6e600660405192610d0484610282565b80546001600160a01b0316845260018101546020850152610d35610d2c600283015460ff1690565b604086016128f6565b610d4160038201610891565b6060850152610d5260048201610891565b6080850152610d6360058201610891565b60a0850152016138c5565b60c082015260405191829182610c24565b60009103126103e357565b346103e35760003660031901126103e3576020600d5460a01c604051908152f35b906104039160208152815160208201526001600160a01b036020830151166040820152604082015160608201526080610df2606084015160a08385015260c0840190610980565b9201519060a0601f1982850301910152610980565b346103e35760203660031901126103e357610e20613c7b565b50610e5f604051610e30816102eb565b601381527f67657446756e6374696f6e526573706f6e7365000000000000000000000000006020820152615c62565b6004356000526006602052610a556040600020610ebc600460405192610e84846102a2565b805484526001600160a01b03600182015416602085015260028101546040850152610eb160038201610891565b606085015201610891565b608082015260405191829182610dab565b6001600160a01b038116036103e357565b6024359061036f82610ecd565b346103e35760403660031901126103e357610b686020600435610f0d81610ecd565b60243590610f196126bb565b610f7e8282604051610f2a81610306565b603a81527f617070726f76696e672025732061732061207370656e646572206f66204c494e878201527f4b207769746820612076616c7565206f6620757020746f2025640000000000006040820152615e47565b610f93610498600b546001600160a01b031690565b9060006040518096819582947f095ea7b300000000000000000000000000000000000000000000000000000000845260048401602090939291936001600160a01b0360408201951681520152565b6004359063ffffffff821682036103e357565b6044359063ffffffff821682036103e357565b346103e35760203660031901126103e3577fea75a541fdea902fd9286e55cc7a68149b042e7a85dcdd3304df35bf9b7d6da9602063ffffffff611048610fe1565b6110506126bb565b168063ffffffff196010541617601055604051908152a1005b346103e35760203660031901126103e357600435600052600560205260406000208054610a5560018301546110ad600360028601549501546001600160401b031690565b604080516001600160a01b03861681526001600160401b0360a096871c811660208301526001600160601b0385811693830193909352606085811c84168184015260c095861c6080840152888416978301979097529587901c909116838201529490911c60e08501529091166101008301528190610120820190565b346103e35760403660031901126103e3576004356001600160401b038082116103e357366023830112156103e35781600401359081116103e35736602482840101116103e357610a559161118b91602480359261118584610ecd565b01614737565b6040519081529081906020820190565b346103e35760003660031901126103e357602063ffffffff60105416604051908152f35b346103e35760003660031901126103e3576020600f5460a01c604051908152f35b346103e35760003660031901126103e35760206001600160601b03600e5460801c16604051908152f35b6001600160401b038116036103e357565b6024359061036f8261120a565b359061036f8261120a565b346103e35760203660031901126103e3576001600160401b036004356112588161120a565b16600052600a60205260206001600160601b0360406000205416604051908152f35b602060031981813601126103e357600435916001600160401b038084116103e3576101a0846004019385360301126103e3576112b583612713565b5060248401906112d16112c8838661271d565b9050151561274f565b6112fa6112de838661271d565b906112f46112ea61279a565b91339336916103ac565b90615dcc565b611304828561271d565b61131f61132d604096938751928391868301953391876127f9565b03601f198101835282610321565b519020946001600160a01b039261135c8461135561050f8a6000526004602052604060002090565b1615612833565b61137f61137961049861050f8a6000526005602052604060002090565b15612833565b61139e61139761138d61287e565b338152968461271d565b36916103ac565b60608601526113b361139760448a018461271d565b60808601526113c861139760648a018461271d565b60a08601526113e46113dd60a48a01846128b7565b3691611ae9565b60c086015282850193610124890135855261140d6114056101648b016128ec565b8888016128f6565b611415612902565b3381529161143461142585612713565b6001600160601b0316848a0152565b6101448a01908061144483612958565b166116635750505061145761045f612b5a565b61146c610498600b546001600160a01b031690565b86516370a0823160e01b815233600482015291908490839060249082905afa988915610831576114da611585956114c3610a559c61156c96600091611636575b506114bc61079b600d5460a01c90565b1115612ba2565b6114cb613417565b6001600160401b031690840152565b6114e2612c13565b936115166114f260c48401612c50565b6114ff6101048501612c64565b61150f611397608487018661271d565b91886147bf565b600161152460e48401612c50565b61152d81612c46565b148061161e575b6115fc575b5050611558866115538a6000526004602052604060002090565b612e95565b6106dd886000526005602052604060002090565b611580866000526007602052604060002090565b613143565b5190837fe8663ad629e19236ee4d1f66baf64813ba05243df621221fe54ba0e141ead1fb8451806115b7339582610c24565b0390a46115ee6115d26106b2600f546001600160401b031690565b6001600160401b03166001600160401b0319600f541617600f55565b519081529081906020820190565b6113976116119161018461161794019061271d565b8461480e565b3880611539565b5061162d61018483018261271d565b90501515611534565b6116569150833d851161165c575b61164e8183610321565b810190612b93565b386114ac565b503d611644565b61168790611676839c959697949c612958565b9061167f612962565b911690615ca9565b61169c610498600c546001600160a01b031690565b9960006116d56116ab84612958565b8b5163523e3b4b60e11b81526001600160401b0390911660048201529c8d91829081906024820190565b03915afa9a8b1561083157600090819c6117c7575b50163081149033146000915b8c518310156117a5578c61171e610498611711863094612a99565b516001600160a01b031690565b0361178457506001915b828061177d575b6117425761173c90612a85565b916116f6565b50610a559b50926114cb61156c959361176b611770946115859a99975b81611775575b50612ac3565b612958565b6114da565b905038611765565b508161172f565b918c611797610498611711843394612a99565b036117285760019150611728565b610a559c50611770925061156c959361176b6114cb926115859a99979461175f565b906117dd929c503d8091833e6108218183610321565b9b9150386116ea565b346103e3576000806003193601126118ad576001600160a01b0380600354163303611869576002546001600160a01b0316600280546001600160a01b031916331790559061183f6001600160a01b031960035416600355565b3391167f8be0079c531659141344cd1fd0a4f28419497f9722a3daafe3b4186f6b6457e08380a380f35b606460405162461bcd60e51b815260206004820152601660248201527f4d7573742062652070726f706f736564206f776e6572000000000000000000006044820152fd5b80fd5b346103e35760003660031901126103e357602063ffffffff600e5460601c16604051908152f35b346103e35760203660031901126103e3576001600160a01b036004356118fc81610ecd565b16600052600960205261194a6040600020610a5561191982610891565b91611958611935600261192e60018501610891565b9301610891565b91604051958695606087526060870190610980565b908582036020870152610980565b908382036040850152610980565b6001600160601b038116036103e357565b359061036f82611966565b346103e35760203660031901126103e3577ff93ca41ce15e716948ecea40b2fdd7db09875e09fa15a0f7b9d86e030bc138fc60206004356119c281611966565b6119ca6126bb565b600d546001600160a01b036001600160a01b03198360a01b16911617600d556001600160601b0360405191168152a1005b346103e35760003660031901126103e35760206001600160a01b0360025416604051908152f35b6001600160401b03811161029d5760051b60200190565b346103e3576020806003193601126103e3576004356001600160401b0381116103e357366023820112156103e357806004013590611a7682611a22565b91611a846040519384610321565b80835260248484019160051b830101913683116103e357602401905b828210611ab057610b988461462d565b81358152908401908401611aa0565b346103e35760003660031901126103e3576020600f546001600160601b036040519160401c168152f35b92919092611af684611a22565b91611b046040519384610321565b829480845260208094019060051b8301928284116103e35780915b848310611b2e57505050505050565b82356001600160401b0381116103e3578691611b4d86849386016103e8565b815201920191611b1f565b9080601f830112156103e35781602061040393359101611ae9565b600211156103e357565b359061036f82611b73565b600111156103e357565b359061036f82611b88565b600411156103e357565b359061036f82611b9d565b346103e3576003196040368201126103e35760048035916001600160401b03908184116103e3576101a09084360301126103e357611bee610342565b90611bfa848401611977565b825260248401358181116103e357611c17908436918701016103e8565b602083015260448401358181116103e357611c37908436918701016103e8565b604083015260648401358181116103e357611c57908436918701016103e8565b606083015260848401358181116103e357611c77908436918701016103e8565b608083015260a48401358181116103e357611c9790843691870101611b58565b60a0830152611ca860c48501611b7d565b60c0830152611cb960e48501611b7d565b60e0830152611ccb6101048501611b92565b610100830152610124840135610120830152611cea6101448501611228565b610140830152611cfd6101648501611ba7565b6101608301526101848401359081116103e357610a559361118b93611d2592369201016103e8565b610180820152611d33610ede565b90614777565b346103e35760203660031901126103e357600435600052600660205260406000208054610a556001600160a01b0360018401541692611db3600282015491611d8f6004611d8860038401610891565b9201610891565b9260405196879687526020870152604086015260a0606086015260a0850190610980565b908382036080850152610980565b346103e35760203660031901126103e3577f46c1366d39ebca435b59ead94f7c3af0b9adebd337dd0b02d786ef47abaf68696020611dfd610fe1565b611e056126bb565b600e547fffffffffffffffffffffffffffffffff00000000ffffffffffffffffffffffff6fffffffff0000000000000000000000008360601b16911617600e5563ffffffff60405191168152a1005b346103e35760203660031901126103e357610b986004356108038161120a565b346103e35760203660031901126103e3577fdf570173ac403ecd6a68c567a009ce17f38c112770695fb0741868ca56994a046020600435611eb481611966565b611ebc6126bb565b600e547fffffffff000000000000000000000000ffffffffffffffffffffffffffffffff7bffffffffffffffffffffffff000000000000000000000000000000008360801b16911617600e556001600160601b0360405191168152a1005b346103e3576000806003193601126118ad57611f346126bb565b611f4b6001600160a01b0360025416610470614537565b611fd46020611f62600e546001600160601b031690565b611f776001600160601b0319600e5416600e55565b611f8c610498600b546001600160a01b031690565b6002546001600160a01b03168560405180968195829463a9059cbb60e01b8452600484019092916001600160601b036020916001600160a01b03604085019616845216910152565b03925af1801561083157611fe6575080f35b611ffd9060203d8111610b9a57610b908183610321565b5080f35b906020610403928181520190610980565b346103e3576000806003193601126118ad576004816001600160a01b03815416604051928380927fd328a91e0000000000000000000000000000000000000000000000000000000082525afa90811561083157829161207a575b60405180610a558482612001565b90503d8083833e61208b8183610321565b8101906020818303126120f8578051906001600160401b0382116120fc570181601f820112156120f8578051926120c184610391565b926120cf6040519485610321565b848452602085840101116118ad5750610a55926120f2916020808501910161095d565b3861206c565b8280fd5b8380fd5b346103e3576003196080368201126103e3576004356001600160401b03918282116103e35760c09082360301126103e357612139610362565b61214582600401611b7d565b815261215360248301611b7d565b602082015261216460448301611b92565b604082015260648201358381116103e35761218590600436918501016103e8565b606082015260848201358381116103e3576121a690600436918501016103e8565b608082015260a48201359283116103e3576121cd6121ec926004610a559536920101611b58565b60a08201526121da61121b565b6121e2610ff4565b9060643592614898565b6040516001600160601b0390911681529081906020820190565b346103e35760003660031901126103e35760206001600160601b03600e5416604051908152f35b346103e35760203660031901126103e3576001600160401b036004356122528161120a565b611258604051612261816102eb565b601681527f676574537562736372697074696f6e42616c616e6365000000000000000000006020820152615c62565b346103e35760203660031901126103e3576122a96126bb565b600435600052600560205260406000206001600160a01b038154161561235957806123446002610b9893019161230360016122eb85546001600160601b031690565b92019161064483546001600160601b039060601c1690565b77ffffffffffffffffffffffff0000000000000000000000001977ffffffffffffffffffffffff00000000000000000000000083549260601b169116179055565b80546bffffffffffffffffffffffff19169055565b606460405162461bcd60e51b815260206004820152601760248201527f46756e6374696f6e20646f6573206e6f742065786973740000000000000000006044820152fd5b346103e35760203660031901126103e3576001600160a01b036004356123c281610ecd565b6123ca6126bb565b1633811461242057806001600160a01b031960035416176003556123f96104986002546001600160a01b031690565b7fed8889f560326eb138920d842192f0eb3dd22b4f139c87a2c57538e05bae1278600080a3005b606460405162461bcd60e51b815260206004820152601760248201527f43616e6e6f74207472616e7366657220746f2073656c660000000000000000006044820152fd5b346103e35760003660031901126103e35760206001600160401b03600f5416604051908152f35b346103e35760403660031901126103e3576001600160401b036024358181116103e357366023820112156103e35780600401359182116103e3573660248360051b830101116103e357610a5591602461118b9201600435613e19565b81516001600160a01b031681526020808301516001600160401b0316908201526040808301516001600160601b0316908201526101208101929161036f91906060818101516001600160601b0316908301526080818101516001600160401b03169083015260a0818101516001600160601b03169083015260c0818101516001600160601b03169083015260e0818101516001600160401b031690830152610100908101516001600160401b0316910152565b346103e35760203660031901126103e3576125b3612902565b506125bf61045f6146b0565b6004356000526005602052610a5560406000206126af61269e60036125e2610371565b936126226001600160401b03825461260c6001600160a01b03821689906001600160a01b03169052565b60a01c1660208701906001600160401b03169052565b60018101546001600160601b038082166040880152606082811c821690880152612690916126549060c01c6080890152565b60028301546001600160601b038282161660a089015290612686908260601c1660c08901906001600160601b03169052565b60c01c60e0870152565b01546001600160401b031690565b6001600160401b0316610100830152565b604051918291826124e7565b6001600160a01b036002541633036126cf57565b606460405162461bcd60e51b815260206004820152601660248201527f4f6e6c792063616c6c61626c65206279206f776e6572000000000000000000006044820152fd5b3561040381611966565b903590601e19813603018212156103e357018035906001600160401b0382116103e3576020019181360383136103e357565b1561275657565b606460405162461bcd60e51b815260206004820152601d60248201527f46756e6374696f6e206e616d652063616e6e6f7420626520656d7074790000006044820152fd5b604051906127a782610306565b602482527f72202573000000000000000000000000000000000000000000000000000000006040837f726567697374657246756e6374696f6e2c206e616d653a2025732073656e646560208201520152565b916060816001600160a01b039260209497969760408752816040880152838701376000828287010152601f80199101168401019416910152565b1561283a57565b606460405162461bcd60e51b815260206004820152601760248201527f46756e6374696f6e20616c7265616479206578697374730000000000000000006044820152fd5b6040519061288b82610282565b606060c08360008152600060208201526000604082015282808201528260808201528260a08201520152565b903590601e19813603018212156103e357018035906001600160401b0382116103e357602001918160051b360383136103e357565b3561040381611b9d565b60048210156109585752565b6040519061012082018281106001600160401b0382111761029d57604052816101006000918281528260208201528260408201528260608201528260808201528260a08201528260c08201528260e08201520152565b356104038161120a565b6040519061296f82610306565b603682527f636865636b696e6720696620617574686f72697a6564000000000000000000006040837f7573696e67206578697374696e6720737562736372697074696f6e2025642c2060208201520152565b90916060828403126103e35781516129d881611966565b926020808401516129e881610ecd565b936040810151906001600160401b0382116103e357019180601f840112156103e3578251612a1581611a22565b93612a236040519586610321565b818552838086019260051b8201019283116103e3578301905b828210612a4a575050505090565b8380918351612a5881610ecd565b815201910190612a3c565b6040513d6000823e3d90fd5b634e487b7160e01b600052601160045260246000fd5b6000198114612a945760010190565b612a6f565b8051821015612aad5760209160051b010190565b634e487b7160e01b600052603260045260246000fd5b15612aca57565b60a460405162461bcd60e51b815260206004820152604f60248201527f46756e6374696f6e734d616e6167657220616e642f6f722063616c6c6572206160448201527f7265206e6f7420617574686f72697a656420636f6e73756d657273206f66207460648201527f686520737562736372697074696f6e00000000000000000000000000000000006084820152fd5b60405190612b67826102eb565b601982527f6372656174696e67206e657720737562736372697074696f6e000000000000006020830152565b908160209103126103e3575190565b15612ba957565b608460405162461bcd60e51b815260206004820152602e60248201527f496e73756666696369656e74204c494e4b2062616c616e636520746f2066756e60448201527f6420737562736372697074696f6e0000000000000000000000000000000000006064820152fd5b60405190612c20826102bd565b606060a08360008152600060208201526000604082015282808201528260808201520152565b6002111561095857565b3561040381611b73565b6001111561095857565b3561040381611b88565b818110612c79575050565b60008155600101612c6e565b9190601f8111612c9457505050565b61036f926000526020600020906020601f840160051c83019310612cc0575b601f0160051c0190612c6e565b9091508190612cb3565b91909182516001600160401b03811161029d57612cf181612ceb8454610857565b84612c85565b602080601f8311600114612d2d575081929394600092612d22575b50508160011b916000199060031b1c1916179055565b015190503880612d0c565b90601f19831695612d4385600052602060002090565b926000905b888210612d8057505083600195969710612d67575b505050811b019055565b015160001960f88460031b161c19169055388080612d5d565b80600185968294968601518155019501930190612d48565b908160011b9180830460021490151715612a9457565b81519168010000000000000000831161029d578154838355808410612e11575b50612de3602080920192600052602060002090565b6000925b848410612df5575050505050565b60018382612e0583945186612cca565b01920193019290612de7565b6000838152846020822092830192015b828110612e2f575050612dce565b80612e3c60019254610857565b80612e49575b5001612e21565b601f908181118414612e615750508281555b38612e42565b83612e8392612e7585600052602060002090565b920160051c82019101612c6e565b60008181526020812081835555612e5b565b815181546001600160a01b0319166001600160a01b03919091161781556020820151600182015560028101604083015160048110156109585761036f9360069260c09260ff80198354169116179055612ef5606082015160038601612cca565b612f06608082015160048601612cca565b612f1760a082015160058601612cca565b01519101612dae565b600361310561010061036f94612f5c612f4082516001600160a01b031690565b86906001600160a01b03166001600160a01b0319825416179055565b612fc0612f7360208301516001600160401b031690565b86547fffffffff0000000000000000ffffffffffffffffffffffffffffffffffffffff1660a09190911b7bffffffffffffffff000000000000000000000000000000000000000016178655565b6130af60018601612fff612fde60408501516001600160601b031690565b82546bffffffffffffffffffffffff19166001600160601b03909116178255565b61305861301660608501516001600160601b031690565b825477ffffffffffffffffffffffff000000000000000000000000191660609190911b77ffffffffffffffffffffffff00000000000000000000000016178255565b60808301516001600160401b03165b77ffffffffffffffffffffffffffffffffffffffffffffffff7fffffffffffffffff00000000000000000000000000000000000000000000000083549260c01b169116179055565b6130f7600286016130cd612fde60a08501516001600160601b031690565b6130e461301660c08501516001600160601b031690565b60e08301516001600160401b0316613067565b01516001600160401b031690565b9101906001600160401b03166001600160401b0319825416179055565b9060018110156109585762ff000082549160101b169062ff00001916179055565b81519160028310156109585760ff82549316908160ff19851617835560208101519061316e82612c46565b60028210156109585761036f9460039361ff0060a09460081b169161ffff1916171784556131a960408201516131a381612c5a565b85613122565b6131ba606082015160018601612cca565b612f17608082015160028601612cca565b6001600160401b03809116908114612a945760010190565b908160209103126103e357516104038161120a565b60405190613205826102eb565b601f82527f6372656174656420737562736372697074696f6e2077697468206964202564006020830152565b6040519061323e826102eb565b601582527f616464696e6720257320617320636f6e73756d657200000000000000000000006020830152565b60405190613277826102eb565b601982527f73656e646572202573204c494e4b2062616c616e6365202564000000000000006020830152565b908160209103126103e3575180151581036103e35790565b156132c257565b60a460405162461bcd60e51b815260206004820152604860248201527f4661696c656420746f207472616e73666572204c494e4b20746f20746865204660448201527f756e6374696f6e204d616e6167657220746f2066756e6420746865207375627360648201527f6372697074696f6e0000000000000000000000000000000000000000000000006084820152fd5b6001600160601b0361040394936001600160a01b036060941683521660208201528160408201520190610980565b1561338757565b60a460405162461bcd60e51b815260206004820152604460248201527f4661696c656420746f207472616e73666572204c494e4b20746f2042696c6c6960448201527f6e6720526567697374727920746f2066756e642074686520737562736372697060648201527f74696f6e000000000000000000000000000000000000000000000000000000006084820152fd5b61342c610498600c546001600160a01b031690565b6040908151917fa21a23e40000000000000000000000000000000000000000000000000000000083526020908184600481600080975af1938415610831578394613704575b5061348d61347d6131f8565b6001600160401b03861690615ca9565b61349930610470613231565b6134ae610498600c546001600160a01b031690565b803b156120fc5781517f7341c10c0000000000000000000000000000000000000000000000000000000081526001600160401b03861660048201523060248201529084908290604490829084905af18015610831576136eb575b506135453361352a866001600160401b03166000526008602052604060002090565b906001600160a01b03166001600160a01b0319825416179055565b61355a610498600b546001600160a01b031690565b81516370a0823160e01b81523360048201529091908381602481865afa801561083157859361359e6135d392879487916136ce575b503361359961326a565b615e47565b600d5484516323b872dd60e01b815233600482015230602482015260a09190911c604482015294859283919082906064820190565b03925af1908115610831576135f484926136789487916136b1575b506132bb565b613609610498600b546001600160a01b031690565b61361e610498600c546001600160a01b031690565b8661362b600d5460a01c90565b9184519461365d8661364f8d8a83019190916001600160401b036020820193169052565b03601f198101885287610321565b5196879586948593630200057560e51b855260048501613352565b03925af1918215610831576104039392613694575b5050613380565b6136aa9250803d10610b9a57610b908183610321565b388061368d565b6136c89150843d8611610b9a57610b908183610321565b386135ee565b6136e59150853d871161165c5761164e8183610321565b3861358f565b806136f86136fe926102d8565b80610d7f565b38613508565b613725919450823d841161372c575b61371d8183610321565b8101906131e3565b9238613471565b503d613713565b6040519061374082610306565b602682527f696f6e49643a00000000000000000000000000000000000000000000000000006040837f65786563757465526571756573742063616c6c656420776974682066756e637460208201520152565b9061036f61385160036137a3610371565b946137e36001600160401b0382546137cd6001600160a01b0382168a906001600160a01b03169052565b60a01c1660208801906001600160401b03169052565b60018101546001600160601b038082166040890152606082811c821690890152612690916138159060c01c60808a0152565b60028301546001600160601b038282161660a08a015290613847908260601c1660c08a01906001600160601b03169052565b60c01c60e0880152565b6001600160401b0316610100840152565b1561386957565b606460405162461bcd60e51b815260206004820152601a60248201527f66756e6374696f6e206973206e6f7420726567697374657265640000000000006044820152fd5b60028210156109585752565b60018210156109585752565b9081546138d181611a22565b926138df6040519485610321565b818452600090815260208082208186015b8484106138fe575050505050565b600183819261390c85610891565b8152019201930192906138f0565b90604051613927816102bd565b60a061398a6003839561396260ff8254613943828216896138ad565b613955828260081c1660208a016138ad565b60101c16604087016138b9565b61396e60018201610891565b606086015261397f60028201610891565b6080860152016138c5565b910152565b6040519061399c826102eb565b601b82527f636f6c6c656374696e6720616e64206c6f636b696e67206665657300000000006020830152565b9190916001600160601b0380809416911601918211612a9457565b9190916001600160601b0380809416911602918216918203612a9457565b15613a0857565b608460405162461bcd60e51b815260206004820152603a60248201527f55736572206973206e6f7420617070726f76656420746f207472616e7366657260448201527f204c494e4b20746f2066756e6374696f6e73206d616e616765720000000000006064820152fd5b15613a7957565b608460405162461bcd60e51b815260206004820152603160248201527f596f7520646f206e6f74206861766520656e6f756768204c494e4b20746f206360448201527f616c6c20746869732066756e6374696f6e0000000000000000000000000000006064820152fd5b60405190613af0826102eb565b601482527f5472616e7366657272696e67202564204c494e4b0000000000000000000000006020830152565b15613b2357565b608460405162461bcd60e51b815260206004820152602260248201527f4661696c656420746f20636f6c6c65637420666565732066726f6d2063616c6c60448201527f65720000000000000000000000000000000000000000000000000000000000006064820152fd5b60405190613b9a826102eb565b601c82527f726573657276656420737562736372697074696f6e20666565202564000000006020830152565b6001600160601b039182169082160391908211612a9457565b6001600160601b03809116908114612a945760010190565b60405190613c04826102eb565b601982527f73656e64696e672066756e6374696f6e732072657175657374000000000000006020830152565b15613c3757565b606460405162461bcd60e51b815260206004820152601960248201527f5265717565737420494420616c726561647920657869737473000000000000006044820152fd5b60405190613c88826102a2565b606060808360008152600060208201526000604082015282808201520152565b815181556020916001600160a01b03838201511692613ce1600194858501906001600160a01b03166001600160a01b0319825416179055565b6040820151600284015560038301906060830151948551916001600160401b03831161029d57613d1b83613d158654610857565b86612c85565b80601f8411600114613d655750918080608095936004979561036f9a600094613d5a575b50501b916000199060031b1c19161790555b01519101612cca565b015192503880613d3f565b9193949596601f198416613d7e87600052602060002090565b936000905b828210613dc95750509260809592859261036f9a99966004999610613db0575b505050811b019055613d51565b015160001960f88460031b161c19169055388080613da3565b808886978294978701518155019601940190613d83565b60405190613ded826102eb565b601d82527f656d697474696e672046756e6374696f6e43616c6c6564206576656e740000006020830152565b91613e2561045f613733565b613e2e83615c07565b613e4561058d846000526005602052604060002090565b91613e6a6001600160a01b03613e6285516001600160a01b031690565b161515613862565b613e86613e81856000526007602052604060002090565b61391a565b9180614388575b5050613e9a61045f61398f565b600e5490613ec7613eb560408501516001600160601b031690565b6001600160601b038460801c166139c8565b91613f076105ea613ee260208701516001600160401b031690565b9263ffffffff613efc60408901516001600160601b031690565b9160601c16906139e3565b92613f1d610498600b546001600160a01b031690565b6040517fdd62ed3e0000000000000000000000000000000000000000000000000000000081523360048201523060248201529091602082604481865afa91821561083157600092614367575b50613f806001600160601b03821680931015613a01565b6040516370a0823160e01b8082523360048301529390602081602481855afa801561083157613fba9160009161434e57503361359961326a565b604051938452336004850152602084602481845afa9182156108315761400384613ff660209661403b966000998a91614331575b501015613a72565b613ffe613ae3565b615ca9565b6040516323b872dd60e01b81523360048201523060248201526001600160601b03909116604482015293849283919082906064820190565b03925af1938415610831576141086141699361406661422b9761415095600091614312575b50613b1c565b6140a6614096614089836001600160401b0316600052600a602052604060002090565b546001600160601b031690565b6001600160601b0361167f613b8d565b6140ee6140dc6140c2600e546001600160601b039060801c1690565b926001600160401b0316600052600a602052604060002090565b9161064483546001600160601b031690565b6001600160601b03166001600160601b0319825416179055565b61413d61412182610644600e546001600160601b031690565b6001600160601b03166001600160601b0319600e541617600e55565b60408601516001600160601b0316613bc6565b61061b60a086019161064483516001600160601b031690565b614184608084016106b76106b282516001600160401b031690565b6141eb6141a56141a0600f546001600160601b039060401c1690565b613bdf565b7fffffffffffffffffffffffff000000000000000000000000ffffffffffffffff73ffffffffffffffffffffffff0000000000000000600f549260401b16911617600f55565b614203836106dd866000526005602052604060002090565b61420e61045f613bf7565b60208301516001600160401b031660105463ffffffff1691614d18565b809261424b614244836000526006602052604060002090565b5415613c30565b614273614256613c7b565b828152336020820152610570846000526006602052604060002090565b61427e61045f613de0565b7fbe998d126f0e9063785bb9730961a2b950e3068b6d4ed3102e7d6fcab88e2abd6142b084516001600160a01b031690565b936142db60406142cc600e546001600160601b039060801c1690565b9201516001600160601b031690565b604080516001600160a01b03979097168752600060208801526001600160601b03928316908701521660608501523393608090a490565b61432b915060203d602011610b9a57610b908183610321565b38614060565b6143489150893d8b1161165c5761164e8183610321565b38613fee565b6136e5915060203d60201161165c5761164e8183610321565b61438191925060203d60201161165c5761164e8183610321565b9038613f69565b61439d91614397913691611ae9565b8261484c565b3880613e8d565b604051906143b182610306565b603782527f6c6c20617661696c61626c652062616c616e63652025640000000000000000006040837f526566696c6c696e6720737562736372697074696f6e2025642077697468206160208201520152565b60206144e161450c9261445261442f614089836001600160401b0316600052600a602052604060002090565b6001600160601b0361443f6143a4565b9116906001600160401b03841690615d6a565b614472614089826001600160401b0316600052600a602052604060002090565b614492612344836001600160401b0316600052600a602052604060002090565b60006144a9610498600b546001600160a01b031690565b926144ef6144c2610498600c546001600160a01b031690565b916040519687918983019190916001600160401b036020820193169052565b03601f198101875286610321565b60405196879586948593630200057560e51b855260048501613352565b03925af180156108315761451d5750565b6145349060203d8111610b9a57610b908183610321565b50565b6040519061454482610306565b603182527f734d616e61676572206f776e65722025730000000000000000000000000000006040837f5769746864726177696e6720616c6c206665657320746f2046756e6374696f6e60208201520152565b1561459d57565b60a460405162461bcd60e51b815260206004820152605560248201527f4d7573742062652046756e6374696f6e734d616e61676572206f776e6572206f60448201527f722066756e6374696f6e206f776e657220746f2077697468647261772070726f60648201527f66697420746f2066756e6374696f6e206f776e657200000000000000000000006084820152fd5b60005b81518110156146ac576146438183612a99565b5190303b156103e357604051917f1f3597fa000000000000000000000000000000000000000000000000000000008352600483015260008260248183305af1918215610831576146989261469d575b50612a85565b614630565b6146a6906102d8565b38614692565b5050565b604051906146bd826102eb565b600b82527f67657446756e6374696f6e0000000000000000000000000000000000000000006020830152565b906040516146f6816102a2565b608061398a60048395805485526001600160a01b0360018201541660208601526002810154604086015261472c60038201610891565b606086015201610891565b919060346147719160405193818592602084019788378201906001600160601b03199060601b166020820152036014810184520182610321565b51902090565b602001519061477160346040518093602061479b818401978881519384920161095d565b8201906001600160601b03199060601b166020820152036014810184520182610321565b908351156147e4576060926147d76147e092846138ad565b604083016138b9565b0152565b60046040517f22ce3edd000000000000000000000000000000000000000000000000000000008152fd5b815115614822576001602082015260800152565b60046040517fe889636f000000000000000000000000000000000000000000000000000000008152fd5b8151156148595760a00152565b60046040517ffe936cb7000000000000000000000000000000000000000000000000000000008152fd5b908160209103126103e3575161040381611966565b6001600160401b0361490794926020946148bd6001600160a01b036000541694614ae1565b9463ffffffff604051988997889687967fd227d245000000000000000000000000000000000000000000000000000000008852166004870152608060248701526084860190610980565b92166044840152606483015203915afa90811561083157600091614929575090565b610403915060203d811161494a575b6149428183610321565b810190614883565b503d614938565b6040519061495e826102eb565b6000602083606081520152565b60405190614978826102eb565b6000602083614985614951565b81520152565b60405190614998826102eb565b600c82527f636f64654c6f636174696f6e00000000000000000000000000000000000000006020830152565b604051906149d1826102eb565b600882527f6c616e67756167650000000000000000000000000000000000000000000000006020830152565b60405190614a0a826102eb565b600682527f736f7572636500000000000000000000000000000000000000000000000000006020830152565b60405190614a43826102eb565b600482527f61726773000000000000000000000000000000000000000000000000000000006020830152565b60405190614a7c826102eb565b600f82527f736563726574734c6f636174696f6e00000000000000000000000000000000006020830152565b60405190614ab5826102eb565b600782527f73656372657473000000000000000000000000000000000000000000000000006020830152565b614ae961496b565b90614af482516151d6565b50614b06614b0061498b565b836158c8565b614b238151614b1481612c46565b614b1d81612c46565b83615255565b614b2e614b006149c4565b614b486040820151614b3f81612c5a565b614b1d81612c5a565b614b53614b006149fd565b614b616060820151836158c8565b60a08101805151614c19575b506080810190815151614b82575b5050515190565b602001908151614b9181612c46565b614b9a81612c46565b15614bef57614bd0614be892614bb7614bb1614a6f565b866158c8565b51614bc181612c46565b614bca81612c46565b84615255565b614be1614bdb614aa8565b846158c8565b5182615816565b3880614b7b565b60046040517fa80d31f7000000000000000000000000000000000000000000000000000000008152fd5b92614c25614bdb614a36565b614c2e8361594c565b60005b84518051821015614c5e5790614c54614c4d82614c5994612a99565b51866158c8565b612a85565b614c31565b50509250614c6b826159d8565b38614b6d565b60405190614c7e82610306565b602982527f6c69656e74206c696200000000000000000000000000000000000000000000006040837f53656e64696e6720726571756573742066726f6d2066756e6374696f6e73206360208201520152565b91614cfc63ffffffff916001600160401b03604094979697168552606060208601526060850190610980565b9416910152565b908160209103126103e3575161040381610ecd565b614d859291614d2861045f614c71565b6000938492614d4a614d4461049886546001600160a01b031690565b91614ae1565b946040519687809481937f28242b040000000000000000000000000000000000000000000000000000000083526020998a9860048501614cd0565b03925af1928315610831578193614e5a575b508082614db0610498600494546001600160a01b031690565b604051938480927f5ab1bd530000000000000000000000000000000000000000000000000000000082525afa9283156108315784937f1131472297a800fee664d1d89cfa8f7676ff07189ecc53f80bbb5f4969099db893614e28928492614e2d575b505061352a856000526001602052604060002090565b80a290565b614e4c9250803d10614e53575b614e448183610321565b810190614d03565b3880614e12565b503d614e3a565b6004919350614e7590833d851161165c5761164e8183610321565b9290614d97565b60405190614e89826102eb565b601282527f66756c66696c6c696e67207265717565737400000000000000000000000000006020830152565b60405190614ec282610306565b603382527f63616c6c2066756c66696c6c52657175657374000000000000000000000000006040837f436865636b696e6720696620257320697320617574686f72697a656420746f2060208201520152565b15614f1b57565b608460405162461bcd60e51b815260206004820152603260248201527f4f6e6c7920746865202042696c6c696e672052656769737472792063616e206360448201527f616c6c2066756c66696c6c5265717565737400000000000000000000000000006064820152fd5b15614f8c57565b608460405162461bcd60e51b815260206004820152602560248201527f52657175657374206e6f7420666f756e6420696e2046756e6374696f6e734d6160448201527f6e616765720000000000000000000000000000000000000000000000000000006064820152fd5b15614ffd57565b608460405162461bcd60e51b815260206004820152602660248201527f46756e6374696f6e206e6f7420666f756e6420696e2046756e6374696f6e734d60448201527f616e6167657200000000000000000000000000000000000000000000000000006064820152fd5b6040519061507482610306565b603582527f63616c6c20746869732066756e6374696f6e2e2e2e00000000000000000000006040837f436865636b696e6720697320257320697320617574686f72697a656420746f2060208201520152565b604051906150d3826102eb565b600e82527f556e6c6f636b696e6720666565730000000000000000000000000000000000006020830152565b9063ffffffff809216606403918211612a9457565b6040519061512182610306565b603b82527f67206966206e6565642066696c6c20737562736372697074696f6e00000000006040837f46696e697368656420756e6c6f636b696e6720666565732c20636865636b696e60208201520152565b9261040394926001600160a01b0361519e931685526020850152608060408501526080840190610980565b916060818403910152610980565b601f19810191908211612a9457565b9060208201809211612a9457565b91908201809211612a9457565b6151de614951565b5061010060208201526040518082526000815261012081019081106103e35760405290565b9061520c614951565b50601f81168061523b575b50806020830152604051908183526000825281016020019081106103e35760405290565b60200360208111612a94578101809111612a945738615217565b90815191615261614951565b508251516001810190818111612a945760208501518110156152ba575b60c2602061036f96519283010153805182116152b2575b5050604051916020830152602082526152ad826102eb565b615816565b523880615295565b8160011b9482860460021483151715612a94576020816152ec61036f986152e560c295519184615203565b508261575e565b509650505061527e565b6152fe614951565b508051516001810190818111612a94576020830151811015615337575b605b6020845192830101538051821161533357505090565b5290565b8160011b82810460021483151715612a94576153609061535985519186615203565b508461575e565b5061531b565b61536e614951565b508051516001810190818111612a945760208301518110156153a3575b605a6020845192830101538051821161533357505090565b8160011b82810460021483151715612a94576153c59061535985519186615203565b5061538b565b6153d3614951565b508051516001810190818111612a94576020830151811015615408575b60596020845192830101538051821161533357505090565b8160011b82810460021483151715612a945761542a9061535985519186615203565b506153f0565b615438614951565b508051516001810190818111612a9457602083015181101561546d575b60586020845192830101538051821161533357505090565b8160011b82810460021483151715612a945761548f9061535985519186615203565b50615455565b61549d614951565b508051516001810190818111612a945760208301518110156154d2575b607b6020845192830101538051821161533357505090565b8160011b82810460021483151715612a94576154f49061535985519186615203565b506154ba565b615502614951565b508051516001810190818111612a94576020830151811015615537575b607a6020845192830101538051821161533357505090565b8160011b82810460021483151715612a94576155599061535985519186615203565b5061551f565b615567614951565b508051516001810190818111612a9457602083015181101561559c575b60796020845192830101538051821161533357505090565b8160011b82810460021483151715612a94576155be9061535985519186615203565b50615584565b6155cc614951565b508051516001810190818111612a94576020830151811015615601575b60786020845192830101538051821161533357505090565b8160011b82810460021483151715612a94576156239061535985519186615203565b506155e9565b90615632614951565b508151516001810191828211612a94576020840151821015615665575b6020845192830101538051821161533357505090565b8260011b83810460021484151715612a945761568e9061568786519187615203565b508561575e565b5061564f565b906156a182519183615203565b506156aa614951565b508051906156b6614951565b506156c4815183111561580f565b825151926156d283856151c9565b916020928284809401518211615747575b518381519782010196821161573f575b505001915b818110156157195760001991036101000a0190811990511690825116179052565b919261573461572e61573a92865181526151bb565b946151bb565b926151ac565b6156f8565b5238806156f3565b61575961575383612d98565b82615694565b6156e3565b90615767614951565b508051615772614951565b50615780825182111561580f565b8251519161578e82846151c9565b60209182918287015181116157f8575b8651838151978201019682116157f0575b505001915b818110156157d65760001991036101000a019081199051169082511617905290565b919261573461572e6157eb92865181526151bb565b6157b4565b5238806157af565b61580a61580482612d98565b88615694565b61579e565b156103e357565b81516145349291906001600160401b038116906017821161584d576158459150604060ff845192161790615629565b505b5161575e565b5060ff81116158725761586c906158648351615430565b508251615ba1565b50615847565b61ffff81116158915761586c9061588983516153cb565b508251615b3a565b63ffffffff81116158b25761586c906158aa8351615366565b508251615ad1565b61586c906158c083516152f6565b508251615a65565b81516145349291906001600160401b03811690601782116158f7576158459150606060ff845192161790615629565b5060ff811161590e5761586c9061586483516155c4565b61ffff81116159255761586c90615889835161555f565b63ffffffff811161593e5761586c906158aa83516154fa565b61586c906158c08351615495565b805190615957614951565b508151516001810190818111612a945760208401518110156159a5575b609f602080955192830101538051821161599d575b50500180519060018201809211612a945752565b523880615989565b8160011b9382850460021483151715612a94576020816159ce82976152e5609f95519184615203565b5095505050615974565b8051906159e3614951565b508151516001810190818111612a94576020840151811015615a32575b60ff6020809551928301015380518211615a2a575b5050018051600019810191908211612a945752565b523880615a15565b8160011b9382850460021483151715612a9457602081615a5b82976152e560ff95519184615203565b5095505050615a00565b90615a6e614951565b50815151806008019182600811612a945760208401518311615ab0575b6008845192830101906001600160401b03198251161790528051821161533357505090565b8260011b83810460021484151715612a9457615acc9085615694565b615a8b565b90615ada614951565b50815151806004019182600411612a945760208401518311615b19575b60048451928301019063ffffffff198251161790528051821161533357505090565b8260011b83810460021484151715612a9457615b359085615694565b615af7565b90615b43614951565b50815151806002019182600211612a945760208401518311615b80575b60028451928301019061ffff198251161790528051821161533357505090565b8260011b83810460021484151715612a9457615b9c9085615694565b615b60565b90615baa614951565b50815151806001019182600111612a945760208401518311615be6575b60018451928301019060ff198251161790528051821161533357505090565b8260011b83810460021484151715612a9457615c029085615694565b615bc7565b61036f90604051907f27b7cf85000000000000000000000000000000000000000000000000000000006020830152602482015260248152615c4781610306565b600080916020815191016a636f6e736f6c652e6c6f675afa50565b61131f615c4761036f926040519283917f41304fac000000000000000000000000000000000000000000000000000000006020840152602060248401526044830190610980565b615c47615cf19161036f936040519384927fb60e72cc000000000000000000000000000000000000000000000000000000006020850152604060248501526064840190610980565b90604483015203601f198101835282610321565b615c47615d559161036f936001600160a01b036040519485937f319af333000000000000000000000000000000000000000000000000000000006020860152604060248601526064850190610980565b9116604483015203601f198101835282610321565b615c4790615db39261036f946040519485937fca47c4eb000000000000000000000000000000000000000000000000000000006020860152606060248601526084850190610980565b916044840152606483015203601f198101835282610321565b615c479061036f936001600160a01b03615e32615e20956040519687957f95ed0195000000000000000000000000000000000000000000000000000000006020880152606060248801526084870190610980565b85810360231901604487015290610980565b9116606483015203601f198101835282610321565b615c4790615e989261036f946001600160a01b036040519586947f0d26b925000000000000000000000000000000000000000000000000000000006020870152606060248701526084860190610980565b92166044840152606483015203601f19810183528261032156fea26469706673582212209e61986cbff58152ad405d45d4d98fb68d0bccc53b20fe8f8d39847ddb8fa86c64736f6c63430008120033",
  "linkReferences": {},
  "deployedLinkReferences": {}
}