{
  "_format": "hh-sol-artifact-1",
  "contractName": "MockLinkToken",
  "sourceName": "contracts/mocks/MockLinkToken.sol",
  "abi": [
    {
      "inputs": [
        {
          "internalType": "address",
          "name": "owner",
          "type": "address"
        },
        {
          "internalType": "address",
          "name": "spender",
          "type": "address"
        }
      ],
      "name": "allowance",
      "outputs": [
        {
          "internalType": "uint256",
          "name": "remaining",
          "type": "uint256"
        }
      ],
      "stateMutability": "view",
      "type": "function"
    },
    {
      "inputs": [
        {
          "internalType": "address",
          "name": "spender",
          "type": "address"
        },
        {
          "internalType": "uint256",
          "name": "value",
          "type": "uint256"
        }
      ],
      "name": "approve",
      "outputs": [
        {
          "internalType": "bool",
          "name": "success",
          "type": "bool"
        }
      ],
      "stateMutability": "nonpayable",
      "type": "function"
    },
    {
      "inputs": [
        {
          "internalType": "address",
          "name": "owner",
          "type": "address"
        }
      ],
      "name": "balanceOf",
      "outputs": [
        {
          "internalType": "uint256",
          "name": "balance",
          "type": "uint256"
        }
      ],
      "stateMutability": "view",
      "type": "function"
    },
    {
      "inputs": [],
      "name": "decimals",
      "outputs": [
        {
          "internalType": "uint8",
          "name": "decimalPlaces",
          "type": "uint8"
        }
      ],
      "stateMutability": "view",
      "type": "function"
    },
    {
      "inputs": [
        {
          "internalType": "address",
          "name": "spender",
          "type": "address"
        },
        {
          "internalType": "uint256",
          "name": "addedValue",
          "type": "uint256"
        }
      ],
      "name": "decreaseApproval",
      "outputs": [
        {
          "internalType": "bool",
          "name": "success",
          "type": "bool"
        }
      ],
      "stateMutability": "nonpayable",
      "type": "function"
    },
    {
      "inputs": [
        {
          "internalType": "address",
          "name": "spender",
          "type": "address"
        },
        {
          "internalType": "uint256",
          "name": "subtractedValue",
          "type": "uint256"
        }
      ],
      "name": "increaseApproval",
      "outputs": [],
      "stateMutability": "nonpayable",
      "type": "function"
    },
    {
      "inputs": [],
      "name": "name",
      "outputs": [
        {
          "internalType": "string",
          "name": "tokenName",
          "type": "string"
        }
      ],
      "stateMutability": "view",
      "type": "function"
    },
    {
      "inputs": [],
      "name": "symbol",
      "outputs": [
        {
          "internalType": "string",
          "name": "tokenSymbol",
          "type": "string"
        }
      ],
      "stateMutability": "view",
      "type": "function"
    },
    {
      "inputs": [],
      "name": "totalSupply",
      "outputs": [
        {
          "internalType": "uint256",
          "name": "totalTokensIssued",
          "type": "uint256"
        }
      ],
      "stateMutability": "view",
      "type": "function"
    },
    {
      "inputs": [
        {
          "internalType": "address",
          "name": "to",
          "type": "address"
        },
        {
          "internalType": "uint256",
          "name": "value",
          "type": "uint256"
        }
      ],
      "name": "transfer",
      "outputs": [
        {
          "internalType": "bool",
          "name": "success",
          "type": "bool"
        }
      ],
      "stateMutability": "nonpayable",
      "type": "function"
    },
    {
      "inputs": [
        {
          "internalType": "address",
          "name": "to",
          "type": "address"
        },
        {
          "internalType": "uint256",
          "name": "value",
          "type": "uint256"
        },
        {
          "internalType": "bytes",
          "name": "data",
          "type": "bytes"
        }
      ],
      "name": "transferAndCall",
      "outputs": [
        {
          "internalType": "bool",
          "name": "success",
          "type": "bool"
        }
      ],
      "stateMutability": "nonpayable",
      "type": "function"
    },
    {
      "inputs": [
        {
          "internalType": "address",
          "name": "from",
          "type": "address"
        },
        {
          "internalType": "address",
          "name": "to",
          "type": "address"
        },
        {
          "internalType": "uint256",
          "name": "value",
          "type": "uint256"
        }
      ],
      "name": "transferFrom",
      "outputs": [
        {
          "internalType": "bool",
          "name": "success",
          "type": "bool"
        }
      ],
      "stateMutability": "nonpayable",
      "type": "function"
    }
  ],
  "bytecode": "0x6080806040523461001657610448908161001c8239f35b600080fdfe604060808152600436101561001357600080fd5b600090813560e01c806306fdde03146102cf578063095ea7b31461024457806318160ddd1461021e57806323b872dd146101f0578063313ce567146101d55780634000aea014610177578063661884631461014057806370a082311461014a57806395d89b4114610145578063a9059cbb14610140578063d73dd623146101215763dd62ed3e146100a357600080fd5b3461011d578060031936011261011d57806020926100bf61036f565b6100fe61010c6100cd610392565b85519283918983019586906028926bffffffffffffffffffffffff19809260601b16835260601b1660148201520190565b03601f1981018352826103da565b519020815280845220549051908152f35b5080fd5b503461011d5736600319011261013d5761013961036f565b5080f35b80fd5b6103b5565b6102cf565b503461011d57602036600319011261011d5760209061016761036f565b5051683635c9adc5dea000008152f35b503461011d57606036600319011261011d5761019161036f565b5060443567ffffffffffffffff8082116101d157366023830112156101d15781600401359081116101d1573691016024011161011d576020905160018152f35b8380fd5b503461011d578160031936011261011d576020905160128152f35b503461011d57606036600319011261011d5760209061020d61036f565b50610216610392565b505160018152f35b503461011d578160031936011261011d57602090516b033b2e3c9fd0803ce80000008152f35b503461011d578060031936011261011d5761025d61036f565b8151610294816100fe60208201943286906028926bffffffffffffffffffffffff19809260601b16835260601b1660148201520190565b51902082528160205280822080549060243582018092116102bb5760209350555160018152f35b634e487b7160e01b84526011600452602484fd5b3461036a5760008060031936011261013d576040805181810181811067ffffffffffffffff82111761035657825260048152602090634c4f4e4b60e01b8282015282519382859384528251928382860152825b84811061034057505050828201840152601f01601f19168101030190f35b8181018301518882018801528795508201610322565b634e487b7160e01b84526041600452602484fd5b600080fd5b6004359073ffffffffffffffffffffffffffffffffffffffff8216820361036a57565b6024359073ffffffffffffffffffffffffffffffffffffffff8216820361036a57565b3461036a57604036600319011261036a576103ce61036f565b50602060405160018152f35b90601f8019910116810190811067ffffffffffffffff8211176103fc57604052565b634e487b7160e01b600052604160045260246000fdfea264697066735822122036795f10fd79ab885fef902cae9db37480d12e5ee4ee331a10577bb57382ffe064736f6c63430008120033",
  "linkReferences": {},
  "deployedLinkReferences": {}
}