{
  "_format": "hh-sol-artifact-1",
  "contractName": "MockBillingRegistry",
  "sourceName": "contracts/MockBillingRegistry.sol",
  "abi": [
    {
      "inputs": [
        {
          "internalType": "uint256",
          "name": "internalBalance",
          "type": "uint256"
        },
        {
          "internalType": "uint256",
          "name": "externalBalance",
          "type": "uint256"
        }
      ],
      "name": "BalanceInvariantViolated",
      "type": "error"
    },
    {
      "inputs": [],
      "name": "InsufficientBalance",
      "type": "error"
    },
    {
      "inputs": [],
      "name": "InvalidCalldata",
      "type": "error"
    },
    {
      "inputs": [
        {
          "internalType": "uint64",
          "name": "subscriptionId",
          "type": "uint64"
        },
        {
          "internalType": "address",
          "name": "consumer",
          "type": "address"
        }
      ],
      "name": "InvalidConsumer",
      "type": "error"
    },
    {
      "inputs": [],
      "name": "InvalidSubscription",
      "type": "error"
    },
    {
      "inputs": [
        {
          "internalType": "address",
          "name": "proposedOwner",
          "type": "address"
        }
      ],
      "name": "MustBeRequestedOwner",
      "type": "error"
    },
    {
      "inputs": [
        {
          "internalType": "address",
          "name": "owner",
          "type": "address"
        }
      ],
      "name": "MustBeSubOwner",
      "type": "error"
    },
    {
      "inputs": [],
      "name": "OnlyCallableFromLink",
      "type": "error"
    },
    {
      "inputs": [],
      "name": "PendingRequestExists",
      "type": "error"
    },
    {
      "inputs": [],
      "name": "TooManyConsumers",
      "type": "error"
    },
    {
      "anonymous": false,
      "inputs": [
        {
          "indexed": true,
          "internalType": "bytes32",
          "name": "requestId",
          "type": "bytes32"
        },
        {
          "indexed": true,
          "internalType": "uint64",
          "name": "subscriptionId",
          "type": "uint64"
        },
        {
          "indexed": false,
          "internalType": "bytes",
          "name": "res",
          "type": "bytes"
        },
        {
          "indexed": false,
          "internalType": "bytes",
          "name": "err",
          "type": "bytes"
        },
        {
          "indexed": false,
          "internalType": "bool",
          "name": "success",
          "type": "bool"
        }
      ],
      "name": "FulfillAndBillLog",
      "type": "event"
    },
    {
      "anonymous": false,
      "inputs": [
        {
          "indexed": true,
          "internalType": "uint64",
          "name": "subscriptionId",
          "type": "uint64"
        },
        {
          "indexed": false,
          "internalType": "address",
          "name": "to",
          "type": "address"
        },
        {
          "indexed": false,
          "internalType": "uint256",
          "name": "amount",
          "type": "uint256"
        }
      ],
      "name": "SubscriptionCanceled",
      "type": "event"
    },
    {
      "anonymous": false,
      "inputs": [
        {
          "indexed": true,
          "internalType": "uint64",
          "name": "subscriptionId",
          "type": "uint64"
        },
        {
          "indexed": false,
          "internalType": "address",
          "name": "consumer",
          "type": "address"
        }
      ],
      "name": "SubscriptionConsumerAdded",
      "type": "event"
    },
    {
      "anonymous": false,
      "inputs": [
        {
          "indexed": true,
          "internalType": "uint64",
          "name": "subscriptionId",
          "type": "uint64"
        },
        {
          "indexed": false,
          "internalType": "address",
          "name": "consumer",
          "type": "address"
        }
      ],
      "name": "SubscriptionConsumerRemoved",
      "type": "event"
    },
    {
      "anonymous": false,
      "inputs": [
        {
          "indexed": true,
          "internalType": "uint64",
          "name": "subscriptionId",
          "type": "uint64"
        },
        {
          "indexed": false,
          "internalType": "address",
          "name": "owner",
          "type": "address"
        }
      ],
      "name": "SubscriptionCreated",
      "type": "event"
    },
    {
      "anonymous": false,
      "inputs": [
        {
          "indexed": true,
          "internalType": "uint64",
          "name": "subscriptionId",
          "type": "uint64"
        },
        {
          "indexed": false,
          "internalType": "uint256",
          "name": "oldBalance",
          "type": "uint256"
        },
        {
          "indexed": false,
          "internalType": "uint256",
          "name": "newBalance",
          "type": "uint256"
        }
      ],
      "name": "SubscriptionFunded",
      "type": "event"
    },
    {
      "anonymous": false,
      "inputs": [
        {
          "indexed": true,
          "internalType": "uint64",
          "name": "subscriptionId",
          "type": "uint64"
        },
        {
          "indexed": false,
          "internalType": "address",
          "name": "from",
          "type": "address"
        },
        {
          "indexed": false,
          "internalType": "address",
          "name": "to",
          "type": "address"
        }
      ],
      "name": "SubscriptionOwnerTransferRequested",
      "type": "event"
    },
    {
      "anonymous": false,
      "inputs": [
        {
          "indexed": true,
          "internalType": "uint64",
          "name": "subscriptionId",
          "type": "uint64"
        },
        {
          "indexed": false,
          "internalType": "address",
          "name": "from",
          "type": "address"
        },
        {
          "indexed": false,
          "internalType": "address",
          "name": "to",
          "type": "address"
        }
      ],
      "name": "SubscriptionOwnerTransferred",
      "type": "event"
    },
    {
      "inputs": [],
      "name": "BASE_FEE",
      "outputs": [
        {
          "internalType": "uint96",
          "name": "",
          "type": "uint96"
        }
      ],
      "stateMutability": "view",
      "type": "function"
    },
    {
      "inputs": [],
      "name": "MAX_CONSUMERS",
      "outputs": [
        {
          "internalType": "uint16",
          "name": "",
          "type": "uint16"
        }
      ],
      "stateMutability": "view",
      "type": "function"
    },
    {
      "inputs": [
        {
          "internalType": "uint64",
          "name": "subscriptionId",
          "type": "uint64"
        },
        {
          "internalType": "address",
          "name": "consumer",
          "type": "address"
        }
      ],
      "name": "addConsumer",
      "outputs": [],
      "stateMutability": "nonpayable",
      "type": "function"
    },
    {
      "inputs": [],
      "name": "createSubscription",
      "outputs": [
        {
          "internalType": "uint64",
          "name": "",
          "type": "uint64"
        }
      ],
      "stateMutability": "nonpayable",
      "type": "function"
    },
    {
      "inputs": [
        {
          "internalType": "uint64",
          "name": "subscriptionId",
          "type": "uint64"
        },
        {
          "internalType": "uint96",
          "name": "balance",
          "type": "uint96"
        }
      ],
      "name": "forceBalance",
      "outputs": [],
      "stateMutability": "nonpayable",
      "type": "function"
    },
    {
      "inputs": [
        {
          "internalType": "bytes32",
          "name": "requestId",
          "type": "bytes32"
        },
        {
          "internalType": "bytes",
          "name": "response",
          "type": "bytes"
        },
        {
          "internalType": "bytes",
          "name": "err",
          "type": "bytes"
        }
      ],
      "name": "fulfillAndBill",
      "outputs": [
        {
          "internalType": "bool",
          "name": "",
          "type": "bool"
        }
      ],
      "stateMutability": "nonpayable",
      "type": "function"
    },
    {
      "inputs": [
        {
          "internalType": "uint64",
          "name": "subscriptionId",
          "type": "uint64"
        }
      ],
      "name": "getSubscription",
      "outputs": [
        {
          "internalType": "uint96",
          "name": "balance",
          "type": "uint96"
        },
        {
          "internalType": "address",
          "name": "owner",
          "type": "address"
        },
        {
          "internalType": "address[]",
          "name": "consumers",
          "type": "address[]"
        }
      ],
      "stateMutability": "view",
      "type": "function"
    },
    {
      "inputs": [
        {
          "internalType": "address",
          "name": "_functionsManager",
          "type": "address"
        }
      ],
      "name": "setFunctionsManager",
      "outputs": [],
      "stateMutability": "nonpayable",
      "type": "function"
    },
    {
      "inputs": [
        {
          "internalType": "bytes",
          "name": "data",
          "type": "bytes"
        },
        {
          "components": [
            {
              "internalType": "uint64",
              "name": "subscriptionId",
              "type": "uint64"
            },
            {
              "internalType": "address",
              "name": "client",
              "type": "address"
            },
            {
              "internalType": "uint32",
              "name": "gasLimit",
              "type": "uint32"
            },
            {
              "internalType": "uint256",
              "name": "gasPrice",
              "type": "uint256"
            }
          ],
          "internalType": "struct FunctionsBillingRegistryInterface.RequestBilling",
          "name": "billing",
          "type": "tuple"
        }
      ],
      "name": "startBilling",
      "outputs": [
        {
          "internalType": "bytes32",
          "name": "",
          "type": "bytes32"
        }
      ],
      "stateMutability": "nonpayable",
      "type": "function"
    }
  ],
  "bytecode": "0x6080806040523461001657611529908161001c8239f35b600080fdfe6080604052600436101561001257600080fd5b6000803560e01c90816323cdb670146100aa5750806326392e70146100a55780633d18651e146100a057806358091e991461009b57806364d51a2a146100965780637341c10c14610091578063a21a23e41461008c578063a47c7696146100875763a9d03c051461008257600080fd5b6108d4565b61080d565b610634565b610526565b61050a565b6101ef565b61019e565b610155565b34610114576040366003190112610114576101116004356100ca81610117565b67ffffffffffffffff602435916100e08361012e565b168352600260205260408320906bffffffffffffffffffffffff166bffffffffffffffffffffffff19825416179055565b80f35b80fd5b67ffffffffffffffff81160361012957565b600080fd5b6bffffffffffffffffffffffff81160361012957565b6001600160a01b0381160361012957565b34610129576020366003190112610129576001600160a01b0360043561017a81610144565b1673ffffffffffffffffffffffffffffffffffffffff196004541617600455600080f35b346101295760003660031901126101295760206040516702c68af0bb1400008152f35b9181601f840112156101295782359167ffffffffffffffff8311610129576020838186019501011161012957565b346101295760603660031901126101295767ffffffffffffffff600480356024358381116101295761022490369084016101c1565b916044358581116101295761023c90369086016101c1565b61024f61024a959295610f9f565b6113b0565b6040948551927f0ca7617500000000000000000000000000000000000000000000000000000000602085015261029e846102908585858b8b60248701610ff9565b03601f198101865285610ad1565b6102be6102b289546001600160a01b031690565b6001600160a01b031690565b87517f4351077d000000000000000000000000000000000000000000000000000000008152808a01878152919591600090829081906020010381895afa9081156104e4576000916104e9575b50519088517ff8454cd80000000000000000000000000000000000000000000000000000000081528a818061034a61012096879483019190602083019252565b03818a5afa9283156104e4576103809361037a926020926000926104b7575b5050015167ffffffffffffffff1690565b9561134e565b976702c68af0bb1400006bffffffffffffffffffffffff6103ca6103b88867ffffffffffffffff166000526002602052604060002090565b546bffffffffffffffffffffffff1690565b161061049057508761048c9993859361046e9361046161041f7fe78a9d260916838466aae25ad88054a6ad04e8883bec99bea8212698cdc78fb49967ffffffffffffffff166000526002602052604060002090565b61043d61043882546bffffffffffffffffffffffff1690565b6112bd565b6bffffffffffffffffffffffff166bffffffffffffffffffffffff19825416179055565b8a519687961699866112e2565b0390a361047c61024a611315565b5190151581529081906020820190565b0390f35b87517ff4d678b8000000000000000000000000000000000000000000000000000000008152fd5b6104d69250803d106104dd575b6104ce8183610ad1565b810190611211565b3880610369565b503d6104c4565b6111ef565b610504913d8091833e6104fc8183610ad1565b810190611145565b3861030a565b3461012957600036600319011261012957602060405160648152f35b346101295760403660031901126101295760043561054381610117565b60243561054f81610144565b67ffffffffffffffff82169182600052600160205261058e61057d60406000206001600160a01b0390541690565b93843391610589610d2e565b611480565b6001600160a01b038316801561060a5733036105b0576105ae9250610dc6565b005b610606836105c681336105c1610d8d565b611412565b6040517fd8a3fb520000000000000000000000000000000000000000000000000000000081526001600160a01b0390911660048201529081906024820190565b0390fd5b60046040517f1f6a65b6000000000000000000000000000000000000000000000000000000008152fd5b34610129576000806003193601126101145761048c9061075e6003549167ffffffffffffffff610665818516610b63565b16809367ffffffffffffffff19161760035561067f610bf4565b61072561068a610b81565b8381528360208201526106b18667ffffffffffffffff166000526002602052604060002090565b815181546bffffffffffffffffffffffff19166bffffffffffffffffffffffff9190911617815590602001517fffffffffffffffff000000000000000000000000ffffffffffffffffffffffff77ffffffffffffffffffffffff00000000000000000000000083549260601b169116179055565b61072d610b8e565b33815291602083015260408201526107598367ffffffffffffffff166000526001602052604060002090565b610c1d565b60405133815281907f464722b4166576d3dcbba877b999bc35cf911f4eaf434b7eba68fa113951d0bf90602090a260405167ffffffffffffffff90911681529081906020820190565b906080926bffffffffffffffffffffffff60608401921683526001600160a01b03938493602094859316838201526060604082015286518094520194019160005b8281106107f757505050505090565b83518516865294810194928101926001016107e8565b346101295760203660031901126101295760043561082a81610117565b67ffffffffffffffff81168060005260016020526001600160a01b03604060002054161561060a5760005260026020526bffffffffffffffffffffffff6040600020541661048c6108c860026108c26108a761089a8767ffffffffffffffff166000526001602052604060002090565b546001600160a01b031690565b9567ffffffffffffffff166000526001602052604060002090565b01610af3565b604051938493846107a7565b346101295760a03660031901126101295767ffffffffffffffff600435818111610129576109069036906004016101c1565b50506080366023190112610129576001600160a01b0361094461089a61092a610f6b565b67ffffffffffffffff166000526001602052604060002090565b161561060a576109a261099461097461095b610f7a565b6001600160a01b03166000526000602052604060002090565b61097c610f6b565b67ffffffffffffffff16600052602052604060002090565b5467ffffffffffffffff1690565b90811615610a23576109b661048c91610f86565b610a02610a106109c4610f6b565b926109ce81610b63565b50604051928391602083019542908791939290604091606084019567ffffffffffffffff8093168552602085015216910152565b03601f198101835282610ad1565b5190206040519081529081906020820190565b610a2b610f6b565b610a33610f7a565b6040517ff0019fe600000000000000000000000000000000000000000000000000000000815267ffffffffffffffff9290921660048301526001600160a01b03166024820152604490fd5b634e487b7160e01b600052604160045260246000fd5b6040810190811067ffffffffffffffff821117610ab057604052565b610a7e565b6060810190811067ffffffffffffffff821117610ab057604052565b90601f8019910116810190811067ffffffffffffffff821117610ab057604052565b9060405191828154918282526020928383019160005283600020936000905b828210610b2a57505050610b2892500383610ad1565b565b85546001600160a01b031684526001958601958895509381019390910190610b12565b634e487b7160e01b600052601160045260246000fd5b67ffffffffffffffff809116908114610b7c5760010190565b610b4d565b60405190610b2882610a94565b60405190610b2882610ab5565b6040519060c0820182811067ffffffffffffffff821117610ab057604052565b60405190610120820182811067ffffffffffffffff821117610ab057604052565b67ffffffffffffffff8111610ab05760051b60200190565b6040516020810181811067ffffffffffffffff821117610ab05760405260008152906000368137565b8151815473ffffffffffffffffffffffffffffffffffffffff19166001600160a01b03918216178255909160406002602093848401511694610c86600196878301906001600160a01b031673ffffffffffffffffffffffffffffffffffffffff19825416179055565b019101519182519267ffffffffffffffff8411610ab057680100000000000000008411610ab057818354858555808610610d01575b50610ccd910192600052602060002090565b9060005b848110610ce057505050505050565b859082610cf486516001600160a01b031690565b9501948185015501610cd1565b6000858152878784832093840193015b838110610d2057505050610cbb565b828155869450899101610d11565b60405190610d3b82610ab5565b602c82527f672e73656e6465723a20257300000000000000000000000000000000000000006040837f6f776e6572206f6620737562736372697074696f6e2025643a2025732c206d7360208201520152565b60405190610d9a82610a94565b601d82527f6d73672e73656e646572202573206973206e6f74206f776e65722025730000006020830152565b60646002610de88367ffffffffffffffff166000526001602052604060002090565b015414610f415767ffffffffffffffff80610e3383610e1a866001600160a01b03166000526000602052604060002090565b9067ffffffffffffffff16600052602052604060002090565b5416610f3c57610e5a82610e1a856001600160a01b03166000526000602052604060002090565b600167ffffffffffffffff198254161790556002610e8c8367ffffffffffffffff166000526001602052604060002090565b0191825468010000000000000000811015610ab05760018101808555811015610f26577f43dc749a04ac8fb825cbd514f7c0e13f13bc6f2ee66043b76629d51776cff8e0936000526020600020016001600160a01b03851673ffffffffffffffffffffffffffffffffffffffff19825416179055610f216040519283921694829190916001600160a01b036020820193169052565b0390a2565b634e487b7160e01b600052603260045260246000fd5b505050565b60046040517f05a48e0f000000000000000000000000000000000000000000000000000000008152fd5b602435610f7781610117565b90565b604435610f7781610144565b90600167ffffffffffffffff80931601918211610b7c57565b60405190610fac82610a94565b601182527f496e2066756c66696c6c416e6442696c6c0000000000000000000000000000006020830152565b908060209392818452848401376000828201840152601f01601f1916010190565b9391610f779593611017928652606060208701526060860191610fd8565b926040818503910152610fd8565b5190610b2882610144565b60005b8381106110435750506000910152565b8181015183820152602001611033565b9092919267ffffffffffffffff8111610ab0576040519161107e601f8301601f191660200184610ad1565b829482845282820111610129576020610b28930190611030565b81601f82011215610129578051906110af82610bdc565b926040926110bf84519586610ad1565b808552602093848087019260051b8501019383851161012957858101925b8584106110ee575050505050505090565b835167ffffffffffffffff811161012957820185603f8201121561012957879161112087838786809601519101611053565b8152019301926110dd565b9080601f83011215610129578151610f7792602001611053565b9060208282031261012957815167ffffffffffffffff9283821161012957019060c08282031261012957611177610b9b565b928251845261118860208401611025565b602085015260408301516040850152606083015181811161012957826111af918501611098565b6060850152608083015181811161012957826111cc91850161112b565b608085015260a0830151908111610129576111e7920161112b565b60a082015290565b6040513d6000823e3d90fd5b5190610b2882610117565b5190610b288261012e565b908161012091031261012957611225610bbb565b9061122f81611025565b825261123d602082016111fb565b602083015261124e60408201611206565b604083015261125f60608201611206565b6060830152611270608082016111fb565b608083015261128160a08201611206565b60a083015261129260c08201611206565b60c08301526112a360e082016111fb565b60e08301526112b66101008092016111fb565b9082015290565b6bffffffffffffffffffffffff9081166702c68af0bb13ffff190191908211610b7c57565b936112ff6040949261130d94989798606088526060880191610fd8565b918583036020870152610fd8565b931515910152565b6040519061132282610a94565b601f82527f46696e69736865642063616c6c696e672066756c66696c6c416e6442696c6c006020830152565b5a91611388831061012957622dc6c08093611387199081810160061c900301111561012957813b156101295760009283809360208451940192f190565b906020916113a481518092818552858086019101611030565b601f01601f1916010190565b610a026113f7610b28926040519283917f41304fac00000000000000000000000000000000000000000000000000000000602084015260206024840152604483019061138b565b600080916020815191016a636f6e736f6c652e6c6f675afa50565b6113f790610b289361145b936040519485937ffcec75e000000000000000000000000000000000000000000000000000000000602086015260606024860152608485019061138b565b6001600160a01b0391821660448501529116606483015203601f198101835282610ad1565b6113f7916114c993610b28956040519586947f5ea2b7ae0000000000000000000000000000000000000000000000000000000060208701526080602487015260a486019061138b565b9260448501526001600160a01b03809216606485015216608483015203601f198101835282610ad156fea2646970667358221220a4e0e3f406e48dcca36cf439ea7f6c54942350629fe1148b631a9adfb861327164736f6c63430008120033",
  "linkReferences": {},
  "deployedLinkReferences": {}
}