{
  "_format": "hh-sol-artifact-1",
  "contractName": "MockBillingRegistry",
  "sourceName": "contracts/MockBillingRegistry.sol",
  "abi": [
    {
      "inputs": [
        {
          "internalType": "uint256",
          "name": "internalBalance",
          "type": "uint256"
        },
        {
          "internalType": "uint256",
          "name": "externalBalance",
          "type": "uint256"
        }
      ],
      "name": "BalanceInvariantViolated",
      "type": "error"
    },
    {
      "inputs": [],
      "name": "InsufficientBalance",
      "type": "error"
    },
    {
      "inputs": [],
      "name": "InvalidCalldata",
      "type": "error"
    },
    {
      "inputs": [
        {
          "internalType": "uint64",
          "name": "subscriptionId",
          "type": "uint64"
        },
        {
          "internalType": "address",
          "name": "consumer",
          "type": "address"
        }
      ],
      "name": "InvalidConsumer",
      "type": "error"
    },
    {
      "inputs": [],
      "name": "InvalidSubscription",
      "type": "error"
    },
    {
      "inputs": [
        {
          "internalType": "address",
          "name": "proposedOwner",
          "type": "address"
        }
      ],
      "name": "MustBeRequestedOwner",
      "type": "error"
    },
    {
      "inputs": [
        {
          "internalType": "address",
          "name": "owner",
          "type": "address"
        }
      ],
      "name": "MustBeSubOwner",
      "type": "error"
    },
    {
      "inputs": [],
      "name": "OnlyCallableFromLink",
      "type": "error"
    },
    {
      "inputs": [],
      "name": "PendingRequestExists",
      "type": "error"
    },
    {
      "inputs": [],
      "name": "TooManyConsumers",
      "type": "error"
    },
    {
      "anonymous": false,
      "inputs": [
        {
          "indexed": true,
          "internalType": "bytes32",
          "name": "requestId",
          "type": "bytes32"
        },
        {
          "indexed": true,
          "internalType": "uint64",
          "name": "subscriptionId",
          "type": "uint64"
        },
        {
          "indexed": false,
          "internalType": "bytes",
          "name": "res",
          "type": "bytes"
        },
        {
          "indexed": false,
          "internalType": "bytes",
          "name": "err",
          "type": "bytes"
        },
        {
          "indexed": false,
          "internalType": "bool",
          "name": "success",
          "type": "bool"
        }
      ],
      "name": "FulfillAndBillLog",
      "type": "event"
    },
    {
      "anonymous": false,
      "inputs": [
        {
          "indexed": true,
          "internalType": "uint64",
          "name": "subscriptionId",
          "type": "uint64"
        },
        {
          "indexed": false,
          "internalType": "address",
          "name": "to",
          "type": "address"
        },
        {
          "indexed": false,
          "internalType": "uint256",
          "name": "amount",
          "type": "uint256"
        }
      ],
      "name": "SubscriptionCanceled",
      "type": "event"
    },
    {
      "anonymous": false,
      "inputs": [
        {
          "indexed": true,
          "internalType": "uint64",
          "name": "subscriptionId",
          "type": "uint64"
        },
        {
          "indexed": false,
          "internalType": "address",
          "name": "consumer",
          "type": "address"
        }
      ],
      "name": "SubscriptionConsumerAdded",
      "type": "event"
    },
    {
      "anonymous": false,
      "inputs": [
        {
          "indexed": true,
          "internalType": "uint64",
          "name": "subscriptionId",
          "type": "uint64"
        },
        {
          "indexed": false,
          "internalType": "address",
          "name": "consumer",
          "type": "address"
        }
      ],
      "name": "SubscriptionConsumerRemoved",
      "type": "event"
    },
    {
      "anonymous": false,
      "inputs": [
        {
          "indexed": true,
          "internalType": "uint64",
          "name": "subscriptionId",
          "type": "uint64"
        },
        {
          "indexed": false,
          "internalType": "address",
          "name": "owner",
          "type": "address"
        }
      ],
      "name": "SubscriptionCreated",
      "type": "event"
    },
    {
      "anonymous": false,
      "inputs": [
        {
          "indexed": true,
          "internalType": "uint64",
          "name": "subscriptionId",
          "type": "uint64"
        },
        {
          "indexed": false,
          "internalType": "uint256",
          "name": "oldBalance",
          "type": "uint256"
        },
        {
          "indexed": false,
          "internalType": "uint256",
          "name": "newBalance",
          "type": "uint256"
        }
      ],
      "name": "SubscriptionFunded",
      "type": "event"
    },
    {
      "anonymous": false,
      "inputs": [
        {
          "indexed": true,
          "internalType": "uint64",
          "name": "subscriptionId",
          "type": "uint64"
        },
        {
          "indexed": false,
          "internalType": "address",
          "name": "from",
          "type": "address"
        },
        {
          "indexed": false,
          "internalType": "address",
          "name": "to",
          "type": "address"
        }
      ],
      "name": "SubscriptionOwnerTransferRequested",
      "type": "event"
    },
    {
      "anonymous": false,
      "inputs": [
        {
          "indexed": true,
          "internalType": "uint64",
          "name": "subscriptionId",
          "type": "uint64"
        },
        {
          "indexed": false,
          "internalType": "address",
          "name": "from",
          "type": "address"
        },
        {
          "indexed": false,
          "internalType": "address",
          "name": "to",
          "type": "address"
        }
      ],
      "name": "SubscriptionOwnerTransferred",
      "type": "event"
    },
    {
      "inputs": [],
      "name": "BASE_FEE",
      "outputs": [
        {
          "internalType": "uint96",
          "name": "",
          "type": "uint96"
        }
      ],
      "stateMutability": "view",
      "type": "function"
    },
    {
      "inputs": [],
      "name": "MAX_CONSUMERS",
      "outputs": [
        {
          "internalType": "uint16",
          "name": "",
          "type": "uint16"
        }
      ],
      "stateMutability": "view",
      "type": "function"
    },
    {
      "inputs": [
        {
          "internalType": "uint64",
          "name": "subscriptionId",
          "type": "uint64"
        },
        {
          "internalType": "address",
          "name": "consumer",
          "type": "address"
        }
      ],
      "name": "addConsumer",
      "outputs": [],
      "stateMutability": "nonpayable",
      "type": "function"
    },
    {
      "inputs": [],
      "name": "createSubscription",
      "outputs": [
        {
          "internalType": "uint64",
          "name": "",
          "type": "uint64"
        }
      ],
      "stateMutability": "nonpayable",
      "type": "function"
    },
    {
      "inputs": [
        {
          "internalType": "uint64",
          "name": "subscriptionId",
          "type": "uint64"
        },
        {
          "internalType": "uint96",
          "name": "balance",
          "type": "uint96"
        }
      ],
      "name": "forceBalance",
      "outputs": [],
      "stateMutability": "nonpayable",
      "type": "function"
    },
    {
      "inputs": [
        {
          "internalType": "bytes32",
          "name": "requestId",
          "type": "bytes32"
        },
        {
          "internalType": "bytes",
          "name": "response",
          "type": "bytes"
        },
        {
          "internalType": "bytes",
          "name": "err",
          "type": "bytes"
        }
      ],
      "name": "fulfillAndBill",
      "outputs": [
        {
          "internalType": "bool",
          "name": "",
          "type": "bool"
        }
      ],
      "stateMutability": "nonpayable",
      "type": "function"
    },
    {
      "inputs": [
        {
          "internalType": "uint64",
          "name": "subscriptionId",
          "type": "uint64"
        }
      ],
      "name": "getSubscription",
      "outputs": [
        {
          "internalType": "uint96",
          "name": "balance",
          "type": "uint96"
        },
        {
          "internalType": "address",
          "name": "owner",
          "type": "address"
        },
        {
          "internalType": "address[]",
          "name": "consumers",
          "type": "address[]"
        }
      ],
      "stateMutability": "view",
      "type": "function"
    },
    {
      "inputs": [
        {
          "internalType": "address",
          "name": "_functionsManager",
          "type": "address"
        }
      ],
      "name": "setFunctionsManager",
      "outputs": [],
      "stateMutability": "nonpayable",
      "type": "function"
    },
    {
      "inputs": [
        {
          "internalType": "bytes",
          "name": "data",
          "type": "bytes"
        },
        {
          "components": [
            {
              "internalType": "uint64",
              "name": "subscriptionId",
              "type": "uint64"
            },
            {
              "internalType": "address",
              "name": "client",
              "type": "address"
            },
            {
              "internalType": "uint32",
              "name": "gasLimit",
              "type": "uint32"
            },
            {
              "internalType": "uint256",
              "name": "gasPrice",
              "type": "uint256"
            }
          ],
          "internalType": "struct FunctionsBillingRegistryInterface.RequestBilling",
          "name": "billing",
          "type": "tuple"
        }
      ],
      "name": "startBilling",
      "outputs": [
        {
          "internalType": "bytes32",
          "name": "",
          "type": "bytes32"
        }
      ],
      "stateMutability": "nonpayable",
      "type": "function"
    }
  ],
  "bytecode": "0x6080806040523461001657611456908161001c8239f35b600080fdfe6080604052600436101561001257600080fd5b6000803560e01c90816323cdb670146100aa5750806326392e70146100a55780633d18651e146100a057806358091e991461009b57806364d51a2a146100965780637341c10c14610091578063a21a23e41461008c578063a47c7696146100875763a9d03c051461008257600080fd5b6108d4565b61080d565b610634565b610526565b61050a565b6101ef565b61019e565b610155565b34610114576040366003190112610114576101116004356100ca81610117565b67ffffffffffffffff602435916100e08361012e565b168352600260205260408320906bffffffffffffffffffffffff166bffffffffffffffffffffffff19825416179055565b80f35b80fd5b67ffffffffffffffff81160361012957565b600080fd5b6bffffffffffffffffffffffff81160361012957565b6001600160a01b0381160361012957565b34610129576020366003190112610129576001600160a01b0360043561017a81610144565b1673ffffffffffffffffffffffffffffffffffffffff196004541617600455600080f35b346101295760003660031901126101295760206040516702c68af0bb1400008152f35b9181601f840112156101295782359167ffffffffffffffff8311610129576020838186019501011161012957565b346101295760603660031901126101295767ffffffffffffffff600480356024358381116101295761022490369084016101c1565b916044358581116101295761023c90369086016101c1565b61024f61024a959295610f83565b6112dd565b6040948551927f0ca7617500000000000000000000000000000000000000000000000000000000602085015261029e846102908585858b8b60248701610fdd565b03601f198101865285610aed565b6102be6102b289546001600160a01b031690565b6001600160a01b031690565b87517f4351077d000000000000000000000000000000000000000000000000000000008152808a01878152919591600090829081906020010381895afa9081156104e4576000916104e9575b50519088517ff8454cd80000000000000000000000000000000000000000000000000000000081528a818061034a61012096879483019190602083019252565b03818a5afa9283156104e4576103809361037a926020926000926104b7575b5050015167ffffffffffffffff1690565b9561127b565b976702c68af0bb1400006bffffffffffffffffffffffff6103ca6103b88867ffffffffffffffff166000526002602052604060002090565b546bffffffffffffffffffffffff1690565b161061049057508761048c9993859361046e9361046161041f7fe78a9d260916838466aae25ad88054a6ad04e8883bec99bea8212698cdc78fb49967ffffffffffffffff166000526002602052604060002090565b61043d61043882546bffffffffffffffffffffffff1690565b6111ea565b6bffffffffffffffffffffffff166bffffffffffffffffffffffff19825416179055565b8a5196879616998661120f565b0390a361047c61024a611242565b5190151581529081906020820190565b0390f35b87517ff4d678b8000000000000000000000000000000000000000000000000000000008152fd5b6104d69250803d106104dd575b6104ce8183610aed565b81019061113e565b3880610369565b503d6104c4565b61111c565b610504913d8091833e6104fc8183610aed565b810190611089565b3861030a565b3461012957600036600319011261012957602060405160648152f35b346101295760403660031901126101295760043561054381610117565b60243561054f81610144565b67ffffffffffffffff82169182600052600160205261058e61057d60406000206001600160a01b0390541690565b93843391610589610d12565b6113ad565b6001600160a01b038316801561060a5733036105b0576105ae9250610daa565b005b610606836105c681336105c1610d71565b61133f565b6040517fd8a3fb520000000000000000000000000000000000000000000000000000000081526001600160a01b0390911660048201529081906024820190565b0390fd5b60046040517f1f6a65b6000000000000000000000000000000000000000000000000000000008152fd5b34610129576000806003193601126101145761048c9061075e6003549167ffffffffffffffff610665818516610b7f565b16809367ffffffffffffffff19161760035561067f610bd8565b61072561068a610b9d565b8381528360208201526106b18667ffffffffffffffff166000526002602052604060002090565b815181546bffffffffffffffffffffffff19166bffffffffffffffffffffffff9190911617815590602001517fffffffffffffffff000000000000000000000000ffffffffffffffffffffffff77ffffffffffffffffffffffff00000000000000000000000083549260601b169116179055565b61072d610baa565b33815291602083015260408201526107598367ffffffffffffffff166000526001602052604060002090565b610c01565b60405133815281907f464722b4166576d3dcbba877b999bc35cf911f4eaf434b7eba68fa113951d0bf90602090a260405167ffffffffffffffff90911681529081906020820190565b906080926bffffffffffffffffffffffff60608401921683526001600160a01b03938493602094859316838201526060604082015286518094520194019160005b8281106107f757505050505090565b83518516865294810194928101926001016107e8565b346101295760203660031901126101295760043561082a81610117565b67ffffffffffffffff81168060005260016020526001600160a01b03604060002054161561060a5760005260026020526bffffffffffffffffffffffff6040600020541661048c6108c860026108c26108a761089a8767ffffffffffffffff166000526001602052604060002090565b546001600160a01b031690565b9567ffffffffffffffff166000526001602052604060002090565b01610b0f565b604051938493846107a7565b346101295760a03660031901126101295767ffffffffffffffff600435818111610129576109069036906004016101c1565b50506080366023190112610129576001600160a01b0361094461089a61092a610f4f565b67ffffffffffffffff166000526001602052604060002090565b161561060a576109a261099461097461095b610f5e565b6001600160a01b03166000526000602052604060002090565b61097c610f4f565b67ffffffffffffffff16600052602052604060002090565b5467ffffffffffffffff1690565b90811615610a23576109b661048c91610f6a565b610a02610a106109c4610f4f565b926109ce81610b7f565b50604051928391602083019542908791939290604091606084019567ffffffffffffffff8093168552602085015216910152565b03601f198101835282610aed565b5190206040519081529081906020820190565b610a2b610f4f565b610a33610f5e565b6040517ff0019fe600000000000000000000000000000000000000000000000000000000815267ffffffffffffffff9290921660048301526001600160a01b03166024820152604490fd5b634e487b7160e01b600052604160045260246000fd5b60a0810190811067ffffffffffffffff821117610ab057604052565b610a7e565b6040810190811067ffffffffffffffff821117610ab057604052565b6060810190811067ffffffffffffffff821117610ab057604052565b90601f8019910116810190811067ffffffffffffffff821117610ab057604052565b9060405191828154918282526020928383019160005283600020936000905b828210610b4657505050610b4492500383610aed565b565b85546001600160a01b031684526001958601958895509381019390910190610b2e565b634e487b7160e01b600052601160045260246000fd5b67ffffffffffffffff809116908114610b985760010190565b610b69565b60405190610b4482610ab5565b60405190610b4482610ad1565b60405190610120820182811067ffffffffffffffff821117610ab057604052565b6040516020810181811067ffffffffffffffff821117610ab05760405260008152906000368137565b8151815473ffffffffffffffffffffffffffffffffffffffff19166001600160a01b03918216178255909160406002602093848401511694610c6a600196878301906001600160a01b031673ffffffffffffffffffffffffffffffffffffffff19825416179055565b019101519182519267ffffffffffffffff8411610ab057680100000000000000008411610ab057818354858555808610610ce5575b50610cb1910192600052602060002090565b9060005b848110610cc457505050505050565b859082610cd886516001600160a01b031690565b9501948185015501610cb5565b6000858152878784832093840193015b838110610d0457505050610c9f565b828155869450899101610cf5565b60405190610d1f82610ad1565b602c82527f672e73656e6465723a20257300000000000000000000000000000000000000006040837f6f776e6572206f6620737562736372697074696f6e2025643a2025732c206d7360208201520152565b60405190610d7e82610ab5565b601d82527f6d73672e73656e646572202573206973206e6f74206f776e65722025730000006020830152565b60646002610dcc8367ffffffffffffffff166000526001602052604060002090565b015414610f255767ffffffffffffffff80610e1783610dfe866001600160a01b03166000526000602052604060002090565b9067ffffffffffffffff16600052602052604060002090565b5416610f2057610e3e82610dfe856001600160a01b03166000526000602052604060002090565b600167ffffffffffffffff198254161790556002610e708367ffffffffffffffff166000526001602052604060002090565b0191825468010000000000000000811015610ab05760018101808555811015610f0a577f43dc749a04ac8fb825cbd514f7c0e13f13bc6f2ee66043b76629d51776cff8e0936000526020600020016001600160a01b03851673ffffffffffffffffffffffffffffffffffffffff19825416179055610f056040519283921694829190916001600160a01b036020820193169052565b0390a2565b634e487b7160e01b600052603260045260246000fd5b505050565b60046040517f05a48e0f000000000000000000000000000000000000000000000000000000008152fd5b602435610f5b81610117565b90565b604435610f5b81610144565b90600167ffffffffffffffff80931601918211610b9857565b60405190610f9082610ab5565b601182527f496e2066756c66696c6c416e6442696c6c0000000000000000000000000000006020830152565b908060209392818452848401376000828201840152601f01601f1916010190565b9391610f5b9593610ffb928652606060208701526060860191610fbc565b926040818503910152610fbc565b5190610b4482610144565b60005b8381106110275750506000910152565b8181015183820152602001611017565b81601f8201121561012957805167ffffffffffffffff8111610ab0576040519261106b601f8301601f191660200185610aed565b8184526020828401011161012957610f5b9160208085019101611014565b9060208282031261012957815167ffffffffffffffff9283821161012957019060a08282031261012957604051926110c084610a94565b8251845260208301516110d281610144565b602085015260408301516040850152606083015181811161012957826110f9918501611037565b60608501526080830151908111610129576111149201611037565b608082015290565b6040513d6000823e3d90fd5b5190610b4482610117565b5190610b448261012e565b908161012091031261012957611152610bb7565b9061115c81611009565b825261116a60208201611128565b602083015261117b60408201611133565b604083015261118c60608201611133565b606083015261119d60808201611128565b60808301526111ae60a08201611133565b60a08301526111bf60c08201611133565b60c08301526111d060e08201611128565b60e08301526111e3610100809201611128565b9082015290565b6bffffffffffffffffffffffff9081166702c68af0bb13ffff190191908211610b9857565b9361122c6040949261123a94989798606088526060880191610fbc565b918583036020870152610fbc565b931515910152565b6040519061124f82610ab5565b601f82527f46696e69736865642063616c6c696e672066756c66696c6c416e6442696c6c006020830152565b5a91611388831061012957622dc6c08093611387199081810160061c900301111561012957813b156101295760009283809360208451940192f190565b906020916112d181518092818552858086019101611014565b601f01601f1916010190565b610a02611324610b44926040519283917f41304fac0000000000000000000000000000000000000000000000000000000060208401526020602484015260448301906112b8565b600080916020815191016a636f6e736f6c652e6c6f675afa50565b61132490610b4493611388936040519485937ffcec75e00000000000000000000000000000000000000000000000000000000060208601526060602486015260848501906112b8565b6001600160a01b0391821660448501529116606483015203601f198101835282610aed565b611324916113f693610b44956040519586947f5ea2b7ae0000000000000000000000000000000000000000000000000000000060208701526080602487015260a48601906112b8565b9260448501526001600160a01b03809216606485015216608483015203601f198101835282610aed56fea2646970667358221220fd38763ed927337754cef9c6ae5a5fa3cb4265c2f6799274b87dc74f352da5d664736f6c63430008120033",
  "linkReferences": {},
  "deployedLinkReferences": {}
}