{
  "_format": "hh-sol-artifact-1",
  "contractName": "MockFunctionsOracle",
  "sourceName": "contracts/MockFunctionsOracle.sol",
  "abi": [
    {
      "inputs": [],
      "name": "EmptyBillingRegistry",
      "type": "error"
    },
    {
      "inputs": [],
      "name": "EmptyPublicKey",
      "type": "error"
    },
    {
      "inputs": [],
      "name": "EmptyRequestData",
      "type": "error"
    },
    {
      "inputs": [],
      "name": "InconsistentReportData",
      "type": "error"
    },
    {
      "inputs": [],
      "name": "UnauthorizedPublicKeyChange",
      "type": "error"
    },
    {
      "inputs": [],
      "name": "BASE_FEE",
      "outputs": [
        {
          "internalType": "uint256",
          "name": "",
          "type": "uint256"
        }
      ],
      "stateMutability": "view",
      "type": "function"
    },
    {
      "inputs": [
        {
          "internalType": "address",
          "name": "node",
          "type": "address"
        }
      ],
      "name": "deleteNodePublicKey",
      "outputs": [],
      "stateMutability": "nonpayable",
      "type": "function"
    },
    {
      "inputs": [
        {
          "internalType": "uint64",
          "name": "subscriptionId",
          "type": "uint64"
        },
        {
          "internalType": "bytes",
          "name": "data",
          "type": "bytes"
        },
        {
          "internalType": "uint32",
          "name": "gasLimit",
          "type": "uint32"
        },
        {
          "internalType": "uint256",
          "name": "gasPrice",
          "type": "uint256"
        }
      ],
      "name": "estimateCost",
      "outputs": [
        {
          "internalType": "uint96",
          "name": "",
          "type": "uint96"
        }
      ],
      "stateMutability": "view",
      "type": "function"
    },
    {
      "inputs": [],
      "name": "getAllNodePublicKeys",
      "outputs": [
        {
          "internalType": "address[]",
          "name": "",
          "type": "address[]"
        },
        {
          "internalType": "bytes[]",
          "name": "",
          "type": "bytes[]"
        }
      ],
      "stateMutability": "view",
      "type": "function"
    },
    {
      "inputs": [],
      "name": "getDONPublicKey",
      "outputs": [
        {
          "internalType": "bytes",
          "name": "",
          "type": "bytes"
        }
      ],
      "stateMutability": "view",
      "type": "function"
    },
    {
      "inputs": [],
      "name": "getRegistry",
      "outputs": [
        {
          "internalType": "address",
          "name": "",
          "type": "address"
        }
      ],
      "stateMutability": "view",
      "type": "function"
    },
    {
      "inputs": [
        {
          "internalType": "bytes",
          "name": "data",
          "type": "bytes"
        },
        {
          "components": [
            {
              "internalType": "uint64",
              "name": "subscriptionId",
              "type": "uint64"
            },
            {
              "internalType": "address",
              "name": "client",
              "type": "address"
            },
            {
              "internalType": "uint32",
              "name": "gasLimit",
              "type": "uint32"
            },
            {
              "internalType": "uint256",
              "name": "gasPrice",
              "type": "uint256"
            }
          ],
          "internalType": "struct FunctionsBillingRegistryInterface.RequestBilling",
          "name": "billing",
          "type": "tuple"
        }
      ],
      "name": "getRequiredFee",
      "outputs": [
        {
          "internalType": "uint96",
          "name": "",
          "type": "uint96"
        }
      ],
      "stateMutability": "view",
      "type": "function"
    },
    {
      "inputs": [],
      "name": "registry",
      "outputs": [
        {
          "internalType": "contract FunctionsBillingRegistryInterface",
          "name": "",
          "type": "address"
        }
      ],
      "stateMutability": "view",
      "type": "function"
    },
    {
      "inputs": [
        {
          "internalType": "uint64",
          "name": "subscriptionId",
          "type": "uint64"
        },
        {
          "internalType": "bytes",
          "name": "data",
          "type": "bytes"
        },
        {
          "internalType": "uint32",
          "name": "gasLimit",
          "type": "uint32"
        }
      ],
      "name": "sendRequest",
      "outputs": [
        {
          "internalType": "bytes32",
          "name": "",
          "type": "bytes32"
        }
      ],
      "stateMutability": "nonpayable",
      "type": "function"
    },
    {
      "inputs": [
        {
          "internalType": "address",
          "name": "",
          "type": "address"
        }
      ],
      "name": "setDONAddress",
      "outputs": [],
      "stateMutability": "nonpayable",
      "type": "function"
    },
    {
      "inputs": [
        {
          "internalType": "bytes",
          "name": "",
          "type": "bytes"
        }
      ],
      "name": "setDONPublicKey",
      "outputs": [],
      "stateMutability": "nonpayable",
      "type": "function"
    },
    {
      "inputs": [
        {
          "internalType": "address",
          "name": "node",
          "type": "address"
        },
        {
          "internalType": "bytes",
          "name": "publicKey",
          "type": "bytes"
        }
      ],
      "name": "setNodePublicKey",
      "outputs": [],
      "stateMutability": "nonpayable",
      "type": "function"
    },
    {
      "inputs": [
        {
          "internalType": "address",
          "name": "_registry",
          "type": "address"
        }
      ],
      "name": "setRegistry",
      "outputs": [],
      "stateMutability": "nonpayable",
      "type": "function"
    }
  ],
  "bytecode": "0x6080806040523461001a576000805561069b90816100208239f35b600080fdfe6080604081815260048036101561001557600080fd5b600092833560e01c90816326ceabac146101a257816328242b04146103c0575080633d18651e1461039d57806353398987146102d25780635ab1bd53146102aa5780637b103999146102aa5780637f15e1661461023457806380756031146101f6578063a91ee0dc146101a7578063c3485468146101a2578063d227d24514610147578063d328a91e1461010c5763f1e14a21146100b257600080fd5b346101085760a03660031901126101085780359067ffffffffffffffff8211610104576100e191369101610590565b50506080366023190112610100576020905167016345785d8a00008152f35b5080fd5b8380fd5b8280fd5b505034610100578160031936011261010057908161014392519161012f83610611565b8252519182916020835260208301906105d1565b0390f35b50913461019f57608036600319011261019f57610162610579565b506024359067ffffffffffffffff821161019f575060209261018691369101610590565b50506101906105be565b505167016345785d8a00008152f35b80fd5b61055e565b833461019f57602036600319011261019f576001600160a01b036101c9610543565b167fffffffffffffffffffffffff0000000000000000000000000000000000000000600154161760015580f35b509034610108573660031901126101005761020f610543565b506024359067ffffffffffffffff82116101085761022f91369101610590565b505080f35b509190346101005760203660031901126101005782359067ffffffffffffffff9081831161010457366023840112156101045782850135918211610297579061028b6024926020601f19601f850116019051610643565b369201011161019f5780f35b634e487b7160e01b845260418552602484fd5b5050346101005781600319360112610100576020906001600160a01b03600154169051908152f35b82843461019f578060031936011261019f578151906102f082610611565b8082528251906102ff82610611565b80825283519284840194845280518095526060840194602080920190835b818110610380575050508385038185015282519081865280860181808460051b890101950193965b8388106103525786860387f35b9091929394838061036f600193601f1986820301875289516105d1565b970193019701969093929193610345565b82516001600160a01b03168852968301969183019160010161031d565b5050346101005781600319360112610100576020905167016345785d8a00008152f35b84848434610108576060366003190112610108576103dc610579565b906024359467ffffffffffffffff9586811161053f576103ff9036908401610590565b91906104096105be565b936001600160a01b039485600154169384156105315750841561052357875196608088018881108c821117610510578a93928c88938c938452168a5260209c8d998a8c01338152848d01928d63ffffffff8096168552606001953a8752519d8e9c8d9b8c9a63a9d03c0560e01b8c528b0160a090528160a48c015260c48b013789888a0160c40152511660248801525116604486015251166064840152516084830152601f1990601f011681010360c401925af19283156105055780936104d3575b505051908152f35b909192508382813d83116104fe575b6104ec8183610643565b8101031261019f5750519083806104cb565b503d6104e2565b8251903d90823e3d90fd5b634e487b7160e01b8b526041845260248bfd5b5086516203073f60e61b8152fd5b632717f8c960e21b81529050fd5b8580fd5b600435906001600160a01b038216820361055957565b600080fd5b3461055957602036600319011261055957610577610543565b005b6004359067ffffffffffffffff8216820361055957565b9181601f840112156105595782359167ffffffffffffffff8311610559576020838186019501011161055957565b6044359063ffffffff8216820361055957565b919082519283825260005b8481106105fd575050826000602080949584010152601f8019910116010190565b6020818301810151848301820152016105dc565b6020810190811067ffffffffffffffff82111761062d57604052565b634e487b7160e01b600052604160045260246000fd5b90601f8019910116810190811067ffffffffffffffff82111761062d5760405256fea26469706673582212209898ce143ea3316e7b638d9264ddbd7c96ba89afe144dae8b3487c10503b35ee64736f6c63430008120033",
  "linkReferences": {},
  "deployedLinkReferences": {}
}