{
  "_format": "hh-sol-artifact-1",
  "contractName": "Snippet",
  "sourceName": "contracts/WebappSnippetTrial.sol",
  "abi": [
    {
      "inputs": [
        {
          "internalType": "address",
          "name": "_linkToken",
          "type": "address"
        },
        {
          "internalType": "address",
          "name": "_functionsManager",
          "type": "address"
        }
      ],
      "stateMutability": "nonpayable",
      "type": "constructor"
    },
    {
      "inputs": [
        {
          "internalType": "string",
          "name": "_base",
          "type": "string"
        },
        {
          "internalType": "string",
          "name": "_quote",
          "type": "string"
        }
      ],
      "name": "sendRequest",
      "outputs": [
        {
          "internalType": "bytes32",
          "name": "",
          "type": "bytes32"
        }
      ],
      "stateMutability": "nonpayable",
      "type": "function"
    }
  ],
  "bytecode": "0x608080604052346100fa57604081610735803803809161001f82856100ff565b8339810103126100fa5761003e602061003783610138565b9201610138565b602060018060a01b03809316604460018060a01b0319600095869584838854161787551680916001541617600155604051948593849263095ea7b360e01b845260048401526b033b2e3c9fd0803ce800000060248401525af180156100ef576100b1575b6040516105e8908161014d8239f35b6020813d82116100e7575b816100c9602093836100ff565b810103126100e35751801515036100e057806100a2565b80fd5b5080fd5b3d91506100bc565b6040513d84823e3d90fd5b600080fd5b601f909101601f19168101906001600160401b0382119082101761012257604052565b634e487b7160e01b600052604160045260246000fd5b51906001600160a01b03821682036100fa5756fe608060408181526004908136101561001657600080fd5b600091823560e01c63041394851461002d57600080fd5b346104c957816003193601126104c95767ffffffffffffffff9080358281116104c55761005d90369083016104cd565b6024939184358381116104c15761007790369086016104cd565b909173ffffffffffffffffffffffffffffffffffffffff93848a54169a636eb1769f60e11b81523388820152308982015260209b8c82604481845afa9182156104b7578c92610484575b506703782dace9d900008092106103f5578a516370a0823160e01b8152338a8201528d818c81855afa9081156103eb579083918e916103b6575b501061034d578a516323b872dd60e01b815233818b015230818c015260448101929092528c90829060649082908f905af1801561034357610308575b50885195606090818801908111888210176102f657928b95928b9a9895928e9a958c5260028752875b8c81106102e057505061019593929161017a91369161056b565b61018386610538565b5261018d85610538565b50369161056b565b61019e8361055b565b526101a88261055b565b5060019384541693875197889663f831284160e01b88527f4384ec9b548391dcd7fc8a9fdcaa6b1a196aca144fc9b515500aac41964f02ea6044890194890152870152825180925260648601918760648260051b89010194019285905b82821061026f5750505050509083809203925af192831561026457809361022f575b505051908152f35b909192508382813d831161025d575b6102488183610500565b8101031261025a575051903880610227565b80fd5b503d61023e565b8251903d90823e3d90fd5b93975093919597509350606319888203018252848b87518c815191828652815b8381106102c1575050938183949584809484010152601f801991011601019701920192019389938b9795899794610205565b8493955080925081949101015182828701015201918c8e92899461028f565b8781018c018290528d9c508f9b8f995001610160565b634e487b7160e01b8c5260418952898cfd5b8b81813d831161033c575b61031d8183610500565b810103126103385751801515036103345738610137565b8980fd5b8a80fd5b503d610313565b8a513d8d823e3d90fd5b50895162461bcd60e51b81528089018d90526028818b01527f28536e697070657429205573657220646f6573206e6f74206861766520656e6f60448201527f756768204c494e4b0000000000000000000000000000000000000000000000006064820152608490fd5b8f8193508092503d83116103e4575b6103cf8183610500565b810103126103e057829051386100fb565b8c80fd5b503d6103c5565b8c513d8f823e3d90fd5b50895162461bcd60e51b81528089018d90526047818b01527f28536e6970706574292055736572206973206e6f7420617070726f766564207460448201527f6f207472616e73666572204c494e4b20746f207468652046756e6374696f6e7360648201527f4d616e6167657200000000000000000000000000000000000000000000000000608482015260a490fd5b9091508c81813d83116104b0575b61049c8183610500565b810103126104ac575190386100c1565b8b80fd5b503d610492565b8b513d8e823e3d90fd5b8780fd5b8480fd5b8280fd5b9181601f840112156104fb5782359167ffffffffffffffff83116104fb57602083818601950101116104fb57565b600080fd5b90601f8019910116810190811067ffffffffffffffff82111761052257604052565b634e487b7160e01b600052604160045260246000fd5b8051156105455760200190565b634e487b7160e01b600052603260045260246000fd5b8051600110156105455760400190565b92919267ffffffffffffffff82116105225760405191610595601f8201601f191660200184610500565b8294818452818301116104fb57828160209384600096013701015256fea26469706673582212202d48aa3a909c41a45537a871869695c6d4f5858261d8b55f637a753d01f6646164736f6c63430008120033",
  "linkReferences": {},
  "deployedLinkReferences": {}
}