{
  "_format": "hh-sol-artifact-1",
  "contractName": "Snippet",
  "sourceName": "contracts/WebappSnippetTrial.sol",
  "abi": [
    {
      "inputs": [],
      "stateMutability": "nonpayable",
      "type": "constructor"
    },
    {
      "inputs": [
        {
          "internalType": "bytes32",
          "name": "_requestId",
          "type": "bytes32"
        }
      ],
      "name": "readResult",
      "outputs": [
        {
          "internalType": "uint256",
          "name": "",
          "type": "uint256"
        }
      ],
      "stateMutability": "nonpayable",
      "type": "function"
    },
    {
      "inputs": [
        {
          "internalType": "string",
          "name": "_base",
          "type": "string"
        },
        {
          "internalType": "string",
          "name": "_quote",
          "type": "string"
        }
      ],
      "name": "sendRequest",
      "outputs": [
        {
          "internalType": "bytes32",
          "name": "",
          "type": "bytes32"
        }
      ],
      "stateMutability": "nonpayable",
      "type": "function"
    }
  ],
  "bytecode": "0x6080806040523461010a5760018060a01b0319906020816044816000868197825416906001541673326c977e6efc84e512bb9c30f76e30c160ed06fb8092178355733744551b069e845b3e1a2832a17f7175fcf2cb9680911760015563095ea7b360e01b845260048401526b033b2e3c9fd0803ce800000060248401525af180156100ff57610098575b6040516107e090816101108239f35b60203d81116100f8575b601f8101601f191682016001600160401b038111838210176100e4576020918391604052810103126100e05751801515036100dd5780610089565b80fd5b5080fd5b634e487b7160e01b84526041600452602484fd5b503d6100a2565b6040513d84823e3d90fd5b600080fdfe608060408181526004908136101561001657600080fd5b600092833560e01c90816304139485146102215750637ab547ba1461003a57600080fd5b34610210576020928360031936011261021e576001908073ffffffffffffffffffffffffffffffffffffffff83541694818551809763284fa51d60e11b82528335848301528160249687925af195861561021457829661018d575b5094918184929681955b6100ad575b88888851908152f35b90919293959497968651808a101561018257888a8901015160f81c868b018b1161016f578a82036000190191821161016f578160031b917f1fffffffffffffffffffffffffffffffffffffffffffffffffffffffffffffff81160361016f5760ff821161016f5780821b9187828404911b149015171561015d57810180911161014c5795600019891461014c578480969798990195939291909461009f565b50634e487b7160e01b825260119052fd5b5050634e487b7160e01b825260119052fd5b5050634e487b7160e01b83525060119052fd5b5096978596506100a4565b9095503d8083833e61019f81836106c9565b81019087818303126102105780519067ffffffffffffffff821161020c570181601f82011215610210578051906101d582610734565b926101e2885194856106c9565b82845289838301011161020c578291610203918a8089989796019101610787565b95909192610095565b8380fd5b8280fd5b85513d84823e3d90fd5b80fd5b8483853461021057816003193601126102105767ffffffffffffffff908035828111610692576102549036908301610696565b60249391843583811161068e5761026e9036908601610696565b909173ffffffffffffffffffffffffffffffffffffffff93848a54169a636eb1769f60e11b81523388820152308982015260209b8c82604481845afa918215610684578c92610651575b506703782dace9d900008092106105c2578a516370a0823160e01b8152338a8201528d818c81855afa9081156105b8579083918e91610583575b501061051a578a516323b872dd60e01b815233818b015230818c015260448101929092528c90829060649082908f905af18015610510576104d5575b50885195606090818801908111888210176104c357928b95928b9a9895928e9a958c5260028752875b8c81106104ad57505061038c939291610371913691610750565b61037a86610701565b5261038485610701565b503691610750565b61039583610724565b5261039f82610724565b5060019384541693875197889663f831284160e01b88527f1cad7a1167bd441b2a8e30bbd40637f03ace876976424bdadce5e8d2b7edd0126044890194890152870152825180925260648601918760648260051b89010194019285905b8282106104635750505050509083809203925af1928315610458578093610426575b505051908152f35b909192508382813d8311610451575b61043f81836106c9565b8101031261021e57505190838061041e565b503d610435565b8251903d90823e3d90fd5b939750938880929650839799916063198c8203018652895161049081518092818552858086019101610787565b601f801991011601019701920192019389938b97958997946103fc565b8781018c018290528d9c508f9b8f995001610357565b634e487b7160e01b8c5260418952898cfd5b8b81813d8311610509575b6104ea81836106c9565b81010312610505575180151503610501578b61032e565b8980fd5b8a80fd5b503d6104e0565b8a513d8d823e3d90fd5b50895162461bcd60e51b81528089018d90526028818b01527f28536e697070657429205573657220646f6573206e6f74206861766520656e6f60448201527f756768204c494e4b0000000000000000000000000000000000000000000000006064820152608490fd5b8f8193508092503d83116105b1575b61059c81836106c9565b810103126105ad578290518f6102f2565b8c80fd5b503d610592565b8c513d8f823e3d90fd5b50895162461bcd60e51b81528089018d90526047818b01527f28536e6970706574292055736572206973206e6f7420617070726f766564207460448201527f6f207472616e73666572204c494e4b20746f207468652046756e6374696f6e7360648201527f4d616e6167657200000000000000000000000000000000000000000000000000608482015260a490fd5b9091508c81813d831161067d575b61066981836106c9565b810103126106795751908d6102b8565b8b80fd5b503d61065f565b8b513d8e823e3d90fd5b8780fd5b8480fd5b9181601f840112156106c45782359167ffffffffffffffff83116106c457602083818601950101116106c457565b600080fd5b90601f8019910116810190811067ffffffffffffffff8211176106eb57604052565b634e487b7160e01b600052604160045260246000fd5b80511561070e5760200190565b634e487b7160e01b600052603260045260246000fd5b80516001101561070e5760400190565b67ffffffffffffffff81116106eb57601f01601f191660200190565b92919261075c82610734565b9161076a60405193846106c9565b8294818452818301116106c4578281602093846000960137010152565b60005b83811061079a5750506000910152565b818101518382015260200161078a56fea2646970667358221220fd0daf26e835eed48552a5a43497cb384487e20bb7c4c2747074fb6cff53a6f964736f6c63430008120033",
  "linkReferences": {},
  "deployedLinkReferences": {}
}